:100000000C94200C0C94480C0C94480C0C94480C48
:100010000C94480C0C94480C0C94480C0C94480C10
:100020000C94480C0C94480C0C94151F0C94871FCE
:100030000C94480C0C94480C0C94480C0C94480CF0
:100040000C94480C0C94480C0C94480C0C94480CE0
:100050000C94480C0C94480C0C94480C0C946B0FAA
:100060000C94480C0C94480C0C94480C0C94480CC0
:100070000C94480C0C94480C0C94480C0C94480CB0
:100080000C9463100C94480C0C94480C0C94480C81
:100090000C94480C0C94480C0C94480C0C94480C90
:1000A0000C94480C0C94480C0C94480C6C23DA23E8
:1000B000F423D024DD24E1247B2589258925DD272F
:1000C000E2276B28526F636B20416E6420466C7987
:1000D00000467269656E646C7920496E766164656C
:1000E000720054686520466F7265737400466C6FC9
:1000F0006174696E672049736C616E647300476F49
:1001000074205370696B65733F00417420546865B7
:100110002042656163680053686970777265636B3C
:10012000205261727200476F6C64656E2041726389
:1001300068657300556E64657267726F756E6400F2
:10014000D5F08D14A1C881CFD9F1AF20000108FFEF
:10015000480BFFFFFF3030FFFFFF00FFFFFF00F8FD
:10016000FEFF0763E3E300FFFFFF3030FFFFFF0008
:10017000000000000E1F3FF3E3C000F8FEFF07037E
:100180000300F8FEFF0303FFFEF800FFFFFF73FF0D
:10019000DF0E00FFFFFF333333330707070000078D
:1001A0000707000707070001030707060307000703
:1001B0000707000007070700000000000706060702
:1001C00003010000030707060600000307060607F1
:1001D00003000007070700070707000707070606D1
:1001E0000606000000000000000000000000000003
:1001F00000000000000000000000000000000000FF
:1002000000000000000000E8FCFFFFFF7E2E000061
:1002100000000000000000000000000000000000DE
:1002200000808080E0E0E0808080800000000000AE
:1002300000000000000000000000747EFFFFFF3F90
:100240003F7F7FFFFFFF3F1700000000000000001E
:100250000000008080800000A0F0FCFCFCF8B800EA
:10026000008080800000000000000000747EFFFF1E
:10027000FF3F1703030707070100747EFFFFFF3FDF
:100280001700000000000000808080000000D0F80F
:10029000FEFEFEFC5C00000080808000000000008C
:1002A00000747EFFFFFF3F170001010303030000FE
:1002B00000747EFFFFFF3F17000000008080800079
:1002C00000000000E8FCFFFFFF7E2E0000000000A1
:1002D0008080800000747EFFFFFF3F170000000059
:1002E000000101010000000000747EFFFFFF3F17C6
:1002F0001B100000000000000000000000000000D3
:1003000000000000000000000000000000000000ED
:1003100000000000000000004854FE5424000000CB
:1003200000000000000000000000000000000000CD
:100330000000000080C0808000000000000000007D
:1003400000000000000000000000242A7F2A110A9B
:100350001F0A242A7F2A120000000000000000006B
:100360000000000000000000002050F85090000045
:1003700000000000000000000000000000242A7FB0
:100380002A12000001010301000000242A7F2A1222
:1003900000000000000000000000000000000090CD
:1003A000A8FCA848000000000000000000000000B9
:1003B0000000242A7F2A1200000000000100000033
:1003C0000000242A7F2A1200000000000000000024
:1003D00000000000004854FE54240000000000000B
:1003E000000000000000242A7F2A12000000000004
:1003F00000000000000000000000242A7F2A1200F4
:10040000080818247E42467C020418247E62667C1A
:10041000020418247E72767C020418247E7E7E7C80
:1004200002043401260117010A01FE00ED00E2007A
:10043000D100C40000010000EC006100B500B5006F
:100440006100EC00000000019FFFEC004BFFB500D5
:1004500014FF610000FF000014FF9FFF4BFF4BFFE4
:100460009FFF14FF000000FF610014FFB5004BFF69
:10047000EC009FFF03051F111F001F001D15171122
:10048000151F07041F17151D1F151D01011F1F151F
:100490001F17151F080800000000000000000D9F36
:1004A0002D970D9F2D9740404040404040402804EC
:1004B00004484804042840404F09ED094F40050214
:1004C000050205020502A54299B5A59942A55A87DC
:1004D00039D6D639875A5A8739D6D639875A825A61
:1004E0009A42985A9A5840504060405040601824B0
:1004F0007E426A7C0204EEDD9D71EFDE9D7BFA3F59
:10050000001FFA1F003F5FFC00F85FF800FC802A24
:10051000FAFA0202020202FAFAFAFAFA02020202F3
:1005200002FAFAFAFAFA0202020202FAFAFAFAFAFB
:10053000000000E0F8F8FC9C1C1C1C38000000FCCB
:10054000FCFCFC1C1C1CFCFCF8F00000C0FCFC7C4F
:10055000FCFCC000000080E0F0F8783C1C1C1C3C57
:100560000000FCFCFCFC1C1C1C1C1C1C000000FAF9
:10057000FAFAFAFA0202020202FAFAFAFAFA0202A3
:10058000020202FAFAFAFAFA0202020202FAFAFA8B
:10059000E0E01F1F1F1F1FE0E0E0E0E01F1F1F1F24
:1005A0001FE0E0E0E0E01F1F1F1F1FE0E0E0E0E0D1
:1005B000000000808103070F9EFEFCF8F00000FFA2
:1005C000FFFFFF0E0E0F0F070701E0FCFFFFEFE03C
:1005D000EFFFFFFEE0003FFFFFFFC0800000008054
:1005E0000000FFFFFFFF0E0E0E0E0E0E000000E0DB
:1005F000E0E0E0E01F1F1F1F1FE0E0E0E0E01F1F42
:100600001F1F1FE0E0E0E0E01F1F1F1F1FE0E0E0F2
:100610000B0B08080808080B0B0B0B0B0808080845
:10062000080B0B0B0B0B08080808080B0B0B0B0B2C
:10063000004020432747A747A747A341008040A782
:1006400047A7070000000000002647A74701400019
:10065000400147A747260000412347274727472750
:100660004000072747A747A7472747274000000B19
:100670000B0B0B0B08080808080B0B0B0B0B0808DF
:100680000808080B0B0B0B0B08080808080B0B0BD2
:10069000000000000000000000000000000000005A
:1006A00000000000000000000000000000040A0537
:1006B0000A050805080500000000040A050AE5FA15
:1006C000FDFE1E0F0707070F00000002F0FFFF1FCF
:1006D000FFFFF082000000FFFFFFFF87C7FFFF7EE4
:1006E0003C00040800000102050A05080508050889
:1006F00004080408000000000000000000000000E2
:1007000000000000000000000000000000000000E9
:1007100000000000000000000000000000000000D9
:1007200000000000000000000000000000000000C9
:1007300000000000000000000000000000000F3575
:1007400065DFB060404040E00080780F854F2B2887
:100750002B4F850F788000FF05057F4343651F867B
:10076000E63C000000000000000000000000000067
:100770000000000000000000000000000000000079
:100780000000000000000000000000000000000069
:100790000000000000000000000000000000000059
:1007A0000000000000000000000000000000000049
:1007B0000000000000000000000000000000000039
:1007C000000001010101010100010101010000001F
:1007D000000001010101000101010101010101000D
:1007E0000000000000000000000000000000000009
:1007F00000000000000000000000000000000000F9
:1008000000000000000000000000000000000000E8
:10081000461E000828A8A28E3EFEFEFEF8C000007C
:10082000FEFEFEFEFEAE16EE30FA6C7878786CFABC
:1008300030E00000000000000C70C03C00C020C090
:1008400000F020C020C000E020C000D000E0400048
:10085000E800C0200060A00000000000020A2A2872
:10086000A38F1F7FFEF0FFFFFFFFFFFE05C0E0F03C
:10087000F9198C291D18FA3C8F230802000000602A
:1008800091E000F021E100E1A0F900010003010086
:100890000001000100000100000100010100000052
:1008A00000000000000000020A28A1871F7FFFFF50
:1008B0007F0100C7CFCF8F8C8AC87880A00000004E
:1008C0000000000000F84808A800F800E040804060
:1008D000800080408010F8108040C00000000000C0
:1008E0000000000000000000000000000000000008
:1008F00000020A08010300000607030B01050002BD
:1009000000000000000000000000000300000300E1
:1009100003000300030003000102010003000102C1
:100920000200000000000000000053434F52453A0F
:10093000004B0D00F0FCFE0EC6C6C6000080F8FE9F
:100940000EFEF8800000FEFEFE7CE07CFEFEFE0057
:10095000FEFEFE666666660000000000F0FCFE0615
:1009600006FEFCF0023EFEF800F8FE3E0200FEFE2F
:10097000FE6666666600FEFEFEE6FEBE1C00000326
:10098000070F0E0C070F000C0F0F0303030F0F0CC4
:10099000000F0F0F0003000F0F0F000F0F0F0C0CB5
:1009A0000C0C000000000001070F0C0C0F070100E9
:1009B00000030F0F0F010000000F0F0F0C0C0C0CA9
:1009C000000F0F0F000F0F0E000808FFFFFFFFFFC3
:1009D000FFFFFF04083E09093E3F25251A1E21217D
:1009E000123F21211E3F2525213F0505011E2129FA
:1009F0003A3F04043F213F21001021211F3F040AF8
:100A0000313F2020203F02023F3F02043F1E2121B0
:100A10001E3F0909061E21112E3F090936222525F0
:100A200019013F01011F20201F0F10201F3F101030
:100A30003F3B04043B03043807312D2321102A2AAD
:100A40003C3F2424181C2222141824243F1C2A2A48
:100A50002C043E05014C52523E3F040438243D20F4
:100A6000004040443D3F081422213F20003E040442
:100A70003E3E04023C1C22221C7E22221C1C2222FE
:100A80007E3E040204242A2A12021F22201E202055
:100A90001E0E10201E3E10103E360808364E5050D6
:100AA0003E322A26221E29251E223F2000322929D5
:100AB000261221251A0C0A3F08172525191E25255F
:100AC00018013905031A25251A0629291E002F00A9
:100AD00000002000000229050200040400010204B5
:100AE0000810204080060D0B051B0D1D0701030299
:100AF0000D19071B0D040A0609100A1E050107122D
:100B00000410081C0301030102020209091A031A56
:100B10000C040B0C071005100B010C10081B081F10
:100B20000D040302090C0D1903180A1E0D03060C0F
:100B300006050D0C051A0D1C070203010D1A071CF2
:100B40000D030A0709110A1D05000711040F081DEE
:100B50000302030303010208091903190C030B0B19
:100B6000070F050F0B000C0F081A081E0D030301D9
:100B7000090B0D1803170A1D0D04060B068008FF4C
:100B80000301B1A9FDA96901A1010101010101014F
:100B90000101010101010101010101010101010145
:100BA0000101010101010183EF83013149FD85D577
:100BB000F9050901A1010101010101010101010181
:100BC000010101010101010183EF830101D161B143
:100BD00079C9C9D161A161C101A10101010101016D
:100BE00001010183EF83010111C93DC90501A10183
:100BF0000101010101010101010101010103FF03E3
:100C0000030303030303030000030303033F3F0045
:100C10000000000000FFFF0000E0E0E0E0FEFEE07A
:100C2000E0E0E0E0E0E0E0FEFEE0E0E0E00000FF29
:100C3000FF0000000000003F3F0303030300000823
:100C40000800010101010101000000000101010192
:100C50001F000000000000007E00000040404040F7
:100C60007C00404040404040007C4040404000000C
:100C7000007E000000000000001F010101010000D3
:100C80000040EC7E7FFE6800000C7EFF7E000007C7
:100C90000800402C1E68000000000C7E00000000D0
:100CA00068FE7F7EEC4000007EFF7E0C000708009F
:100CB00000681E2C40000000007E0C0000087CFE36
:100CC0007FFE6702087CFE7FFE6E04070800086452
:100CD0001E6402000008641E640400E0F0E0E0F01E
:100CE000E0E007084020404060404074FEFCFEFF0A
:100CF000FFFFFFFFFEFCFCFCFCF8F06000000207B9
:100D00000707020000000000020707070260F0F872
:100D1000FCFCFCFCFEFFFFFFFFFFFEFCFE74020775
:100D20000707020000000000020707070200007426
:100D3000FEFCFEFFFFFFFFFFFEFCFCFCFCF8F0608A
:100D400060F0F8FCFCFCFCFEFFFFFFFFFFFEFCFE7A
:100D5000740000000ECEFEF8F8F8F8F8F8F8F0F09D
:100D6000E7E7E7FCFC7C707000000000000E0EEE70
:100D7000E1EF0F7F7F7F0F0F0F1F1F1F1FDFDFDFD1
:100D80001F1E1C000000000000000000000000000A
:100D90000000000000000000010101000000000050
:100DA00000000000000070707CFCFCE7E7E7F0F05A
:100DB000F8F8F8F8F8F8F8FECE0E00000000000091
:100DC000001C1E1FDFDFDF1F1F1F1F0F0F0F7F7F86
:100DD0007F0FEFE1EE0E0E000000000000000001AA
:100DE0000101000000000000000000000000000001
:100DF000000000000007E7F7FCFCFCFCF8F8F8E056
:100E0000E7F7FFFCFCA00E8EBEF8F8E0000000EE55
:100E1000EEEF8F8F7F7FFFEFEF0F07071D1F1FFF85
:100E2000F8FC1F3F3F3C00000000000003030300EC
:100E300000000000000000000000010101000000AF
:100E4000000000000000E0F8F8BE8E0EA0FCFCFFE1
:100E5000F7E7E0F8F8F8FCFCFCFCF7E70700000017
:100E600000003C3F3F1FFCF8FF1F1F1D07070FEF4F
:100E7000EFFF7F7F8F8FEFEEEE000000000000009D
:100E8000000101010000000000000000000000035C
:100E900003030000000000E0F8F8BE8E8EE0FCFCCA
:100EA000FFC7F770F0D0F0F83CFEFEF7E3031C1C20
:100EB000000000787F7F3FF1F1C70E0F0F7F76773C
:100EC0008F8FEFEEEE8E80EEEEEE00000000000061
:100ED0000000010101000000000000030303000006
:100EE0000303030000000000E0E7E70700000E0E28
:100EF0000E0707070000000E0E0E00707077071F28
:100F00001C003838380ECECEC00000008080800033
:100F10000000808080000000EEEEEE000000000087
:100F200000010101000000030303000000030303AC
:100F300003030300000000110B0074186C1EDE1286
:100F400072767C186818D810600000000002030256
:100F50000000000000000002030200006010D8182A
:100F600068187C767212DE1E6C1874000002030290
:100F70000000000000000002030200000011080051
:100F800074186C1E5E1272767C1868185810600017
:100F9000006010581868187C7672125E1E6C187407
:100FA000001B12000000000480C070F0F0900020D0
:100FB00060C080A2E0A00800200000000000000047
:100FC000040040000400260004000707000E020C85
:100FD000820A020C00000000000000000000000077
:100FE0000000000000000000000000000000000001
:100FF000000000000000000000200008A0E0A28027
:10100000C060200090F0F070C0800400000000007C
:10101000000000000C020A820C020E000707000408
:101020000026000400400004000000000000000052
:1010300000000000000000000000000000000000B0
:1010400000000000001B1200000002406038780021
:10105000F090002060C280A8E0A0000400104000D2
:1010600000000000440000000420064004000707C0
:10107000000E020098041405180000000000000093
:10108000000100000000000000000000000000005F
:1010900000000000000000000000004010000400FC
:1010A000A0E0A880C260200090F000783860400284
:1010B00000000000000000180514049800020E0053
:1010C0000707000440062004000000440000000060
:1010D0000000000000000000000000000000000010
:1010E0000000000001000000001B12080000014089
:1010F000600C1800B09000200082002860A000045E
:101100000010400000000000440000000440060001
:1011100004002206000602008020000930000000C2
:1011200000000000000100000000010000000000BD
:101130000000000000000000000000001B1208007A
:101140000200200000000400000000000200000473
:101150000000000002400000000000440000000009
:1011600000000000000000000000000000800400FB
:10117000001000000000000000020000010000005C
:101180000000010000000000000000000000008FCF
:101190008E5483D48109813A820482D10F8C0482D7
:1011A0000F0B82048205A10F0B8204A181A10341D0
:1011B000A30F02A182048303140F02830483038418
:1011C00009A541A283A10482A102D403A105188428
:1011D00005820981058C0582098105D78505826113
:1011E0000881A10C8405826121B12105820C84A4AF
:1011F000418264A582A741A38F8F87006F536F62DE
:101200000F076C0F086B412505C105C10B6B06C1AB
:1012100003C10E63D605C70E620AC201C301C20D27
:101220006209CB044124036221B12106C101C70137
:10123000C104650365036102C101C105C101C104A7
:1012400061D40362D3036105C201C207610762066C
:10125000610F0162076206620D6407622141246327
:101260002B652141256F6F650069546F660F0F0173
:10127000A10F0F02A18107A109A10E1181A20511E1
:101280000981A10E81120581A207811109A4418162
:1012900005A2811205A281A30715810512810712FB
:1012A00081130C81078109810F81A2058141A3026D
:1012B000A3810CA1B1A1811201A341811402138168
:1012C00041A40713810314810981150A810781094B
:1012D000810F8102A581A981AF81A26F6F64006136
:1012E000546F6F04610F0DD104D10F0F0F07A4418C
:1012F000A30EC12541C104180DCA04860F0E840433
:10130000A141A30F0E1506A541A40D84078A0D83E4
:10131000098806A1B1A2048101810A810481071410
:10132000048131813A8134813784348101810A8199
:101330000481078102810481E181EA81E481E781FE
:10134000E281E4006F546F610862D3610461DA6581
:10135000096103D104D10AD164412404610F0569F4
:1013600004620F046409630963066409643766054F
:1013700063086F6404630367D96804630F05660537
:10138000630F0F640EB10E65E96A096F6BE76F6F4B
:101390006A006F546F0F0F052141230F0EC50F25F3
:1013A000412108C30F0182650F0CD2816409210F0E
:1013B00004D181630981210F0482620A81210F0314
:1013C00081D1820B81234125098101D20C890981B8
:1013D0000F810681018207810D22812681238124CC
:1013E000B121812141230434CFCB34E4CFCBE400BD
:1013F0008F8F53810F0F0F0F09240F0F6409810F77
:101400000F03812141220F0E850522B1210F2341B7
:101410002181D405640F860F0DD5810F0F03810F35
:1014200004812341298121412A810631819C819BAC
:101430008137028F8908E38F87E9006F546901C102
:1014400001C101610F0DC101C101C10F0EC101C177
:1014500001C10CB10FC105C102C101C105630D215C
:10146000C125C101C101C101C10F056801C101C18F
:1014700001C10F0DC105C10F0CC125C121072141BB
:10148000220721412668076407680F0F03610F0FC9
:1014900003612141260F0A69AFA3254121691F136A
:1014A00068006F536F610F0F0F0F08A441AA03A7C5
:1014B00041A203A31F031A33138F038F82088505EC
:1014C00086088209840F048209840DA20482A14146
:1014D000A305820E820487A10BA103A241A282046C
:1014E000880B81038704880B8101B101870488A5DB
:1014F00041A5816387A141A28F85638C005F510F55
:101500000F0F0F0F0841A84103338A3300240F0047
:10151000F8FCFEFEFEFE1EEEEE1EFE1EFEFE1EFE93
:101520003EDEDEBEFE0EBEBE7EFEFE0EFEFEFEFEFB
:10153000FCF8000003070F0F3F1F0E0D0F0E0F0EDC
:101540000D0D0E0F0E0D0D0E0F0C0F0F0C0F0F0DBE
:101550000F0F0F0F07030004083E09093E3F252522
:101560001A1E2121123F21211E3F2525213F05055D
:10157000011E21293A3F04043F213F21001021216F
:101580001F3F040A313F2020203F02023F3F020458
:101590003F1E21211E3F0909061E21112E3F090968
:1015A0003622252519013F01011F20201F0F102081
:1015B0001F3F10103F3B04043B03043807312D2329
:1015C00021102A2A3C3F2424181C222214182424E7
:1015D0003F1C2A2A2C043E05014C52523E3F040473
:1015E00038243D20004040443D3F081422213F2044
:1015F000003E04043E3E04023C1C22221C7E2222A9
:101600001C1C22227E3E040204242A2A12021F22CB
:10161000201E20201E0E10201E3E10103E360808F0
:10162000364E50503E322A26221E29251E223F20A9
:1016300000322929261221251A0C0A3F08172525D0
:10164000191E252518013905031A25251A062929E9
:101650001E002F00000020000002290502000404E3
:1016600000240F00F8FCFE1EEE6E5EFE3EDEDE3E47
:10167000FEFEDE0EDEFE3EDEDE3EFEFEFEFEFEFE7A
:10168000FEFE0EFEFCF8000003070F0E3D1D0C0FC2
:101690000E0D0D0E0F0F0F0E0D0F0E0D0D0E0F0F69
:1016A0000F0F0F0F0F0F0D0F070300F8FCFEFFFFCA
:1016B000FFFFFFFFFFFFFFFFFFFFFFFFFFFFFFFF3A
:1016C000FFFFFFFFFFFFFFFFFFFFFFFFFEFCF80331
:1016D000070F1F3F7F3F1F1F1F1F1F1F1F1F1F1FA2
:1016E0001F1F1F1F1F1F1F1F1F1F1F1F1F1F1F1F0A
:1016F0000F0703240F00F8FCDE0EDEFE3EDEDE3EAA
:10170000FEFEFE1EEE6E5EFEFE5E5E3EFEDE0EDE49
:10171000FEFE3E5E5E3EFCF8000003070F0E3D1F1E
:101720000E0D0D0E0F0F0F0E0D0D0C0F0E0D0D0CDF
:101730000F0F0E0D0D0F0E0D0D0D0703000002070C
:101740000E070200000002070E0702000000000062
:101750000207020000000000020702000000001162
:101760000400000204020000000000020402000065
:101770000000000000020000000000000002000065
:1017800000000000000002070E0702000000020730
:101790000E07020000000000020702000000000027
:1017A0000207020000110400000000020402000011
:1017B000000000020402000000000000000200001F
:1017C000000000000002000000080B0002020201FD
:1017D00000090400000102020000052400100105B8
:1017E00024010101042402060524060001070581E5
:1017F0000310004009040100020A0000000705026E
:10180000024000000705830240000004030904129F
:10181000010002EF02014041233680000101020372
:101820000141726475696E6F204C4C4300417264D3
:1018300075696E6F204C656F6E6172646F00063162
:1018400011241FBECFEFDAE0DEBFCDBF11E0A0E074
:10185000B1E0E6E3F7E602C005900D92AC3DB107BA
:10186000D9F728E0ACEDB1E001C01D92A134B20778
:10187000E1F71CE0C0E2DCE004C02197FE010E9419
:101880004B33CF31D107C9F70E94B7210C9499335C
:101890000C940000CF92DF92EF92FF920F931F9370
:1018A000CF93DF936C017A018B01C0E0D0E0CE15BD
:1018B000DF0589F0D8016D918D01D601ED91FC9184
:1018C0000190F081E02DC6010995892B11F47E016C
:1018D00002C02196ECCFC701DF91CF911F910F91EC
:1018E000FF90EF90DF90CF9008953FB7F8948091EC
:1018F000F5019091F601A091F701B091F80126B59C
:10190000A89B05C02F3F19F00196A11DB11D3FBF37
:10191000BA2FA92F982F8827820F911DA11DB11DC5
:10192000BC01CD0142E0660F771F881F991F4A95C1
:10193000D1F7089580911B06E0911906F0911A06DF
:10194000882349F0CF01029690931A0680931906D6
:10195000859194910895CF01029690931A068093F1
:1019600019068081918108956F927F928F929F9244
:10197000AF92BF92CF92DF92EF92FF920F931F939D
:10198000CF93DF9300D000D0CDB7DEB73A01411539
:10199000510509F401C2FA01F49031965491F2E034
:1019A0006F0E711CAF2CB12C211102C0EE2069F119
:1019B000A52FA695A695A695B0E0E1E0F0E0352F1D
:1019C000377011F4E0E0F0E0AE0FBF1FAA9EF00107
:1019D000AB9EF00DBA9EF00D1124A3E08A2EC81024
:1019E00003C0EE0FFF1F0AC00115110539F0EE9E6E
:1019F000D001EF9EB00D11240A0F1B1F2E9FD001A6
:101A00002F9FB00D11246A0E7B1E2FEFC21208C04B
:101A10000115110519F0CC24C39402C032E0C32E85
:101A2000DC01AA0DBB1D1A161B060CF0B5C18038CF
:101A300091050CF0B1C19B01250F311D1216130643
:101A40000CF0AAC1603471050CF0A6C161147104D8
:101A500009F4A2C1362F3770932EFB0177FD37961C
:101A600023E0F595E7952A95E1F72E2F77FF04C03F
:101A7000992011F02FEF2E0F97FF05C0EE27FF27BB
:101A8000E81BF90B02C0E0E0F0E0A038B1051CF063
:101A900030E8381B01C03F2D3E1B622F022E000C88
:101AA000770B2F3F1CF4462F409501C040E0B1E07A
:101AB000A52FA77009F4B0E0569556955695DB2EE4
:101AC000D50E6D0D711D693071051CF058E0D52ED5
:101AD000D21AD41A240FDC0150E82503A00DB11D41
:101AE0001124AE0FBF1F4F9DE00DF11D1124A30166
:101AF0004E0F5F1F81E090E07C01092C02C0EE0CCC
:101B0000FF1C0A94E2F783E0C81609F404C18C159F
:101B1000A8F091E0C91609F4B5C0E2E0CE123CC1CC
:101B20008FEF8E9DB0018F9D700D11246095709583
:101B30007C836B837C806D2C620E2BC0FAEFCF16FA
:101B400031F09BEF892EC81027C1D20E87C0D20E6C
:101B500051C0FA01E00FF11FE491EE9D6001EF9D8D
:101B6000D00C1124DA82C98227FD07C0FC01D08085
:101B7000ED2DE623CE2AFC01C082911013C00F5F29
:101B80001F4F0196031728F32F5F4A0D5B1DA058C6
:101B9000BF4F261509F400C1CD0182509E4F00E0D1
:101BA00010E0F0CF27305CF7FC01E058FF4FC08019
:101BB000C7208A80C828C082E2CFFA01E60FF71F4B
:101BC000E491EE9D8001EF9D100D11241A8309838D
:101BD00027FD04C0FC011081012B0083911013C06C
:101BE0006F5F7F4F0196631740F32F5F4A0D5B1DB8
:101BF000A058BF4F2D1509F4CFC0CD0182509E4F84
:101C000060E070E0F0CF27305CF78C0100581F4F88
:101C1000F801C080FA81CF2AF801C082E1CFFA0131
:101C2000E00FF11FE491EE9DC001EF9D900D112496
:101C30009A83898327FD05C08095FB0190818923C4
:101C40008083911014C00F5F1F4F6F5F7F4F03178A
:101C500030F32F5F4A0D5B1DA058BF4F2D1509F4BF
:101C60009BC0BD0162507E4F00E010E0F0CF2730F6
:101C700054F7FB01E058FF4F8A81809590818923BA
:101C80008083E1CF0E0F1F1F8D2C820E281509F4C3
:101C900083C0CD0182509E4F6C0160E070E06317FD
:101CA00090F5F801E60FF71FE491EE9DC001EF9D5E
:101CB000900D1124809590959C838B83FA01E60FFB
:101CC000F71FE491EE9D3001EF9D700C11247A8294
:101CD000698227FD05C0F60190818923682A608208
:101CE000992059F027304CF4F601E058FF4F9081CD
:101CF0008C8189239A81892B80836F5F7F4FFFEFCF
:101D0000CF1ADF0ACCCF2F5F4A0D5B1D0A0D1B1DBA
:101D1000A058BF4FBBCF832F90E0E40FF51FA25018
:101D2000BE4F60E870E0681B790BA81AB90A8501FC
:101D3000000F111F5D2D832ECF93DF93ED01EF96E2
:101D4000EF962296A590C590992059F0AE9C50012F
:101D5000CE9C600127302CF4F880D094FD20FB2825
:101D6000F99222233AF0FC90C094FC20FA28FD92CC
:101D70000C94BB0E11963A9529F75A9551F0382DCF
:101D800023951124E00FF11DA60FB11DC60FD11D23
:101D9000D9CFDF91CF9111240F900F900F900F901A
:101DA000DF91CF911F910F91FF90EF90DF90CF9037
:101DB000BF90AF909F908F907F906F90089580918B
:101DC000DC0108950895089580E090E008950E9450
:101DD0009433CF93DF9300D000D0CDB7DEB7611539
:101DE00071058105910579F09B01AC0169833A8306
:101DF0004B835C830E94903229813A814B815C81C4
:101E00000E94B43203C060E070E0CB010F900F90ED
:101E10000F900F90DF91CF910895EF92FF920F9363
:101E20001F93CF93DF938C017B01C0E0D0E0F701DB
:101E3000EC0FFD1F6491662361F0D801ED91FC91D8
:101E40000190F081E02DC8010995892B11F02196B0
:101E5000EECFCE01DF91CF911F910F91FF90EF90C8
:101E600008958F929F92AF92BF92CF92DF92EF929E
:101E7000FF926B017C010E94750C4B015C01C11447
:101E8000D104E104F104F1F00E94750CDC01CB01F6
:101E900088199909AA09BB09883E9340A105B10593
:101EA00070F321E0C21AD108E108F10888EE880E2B
:101EB00083E0981EA11CB11CC114D104E104F104FB
:101EC00019F7DDCFFF90EF90DF90CF90BF90AF90EC
:101ED0009F908F9008951F920F920FB60F9211242A
:101EE0002F933F938F939F93AF93BF938091DD0187
:101EF0009091DE01A091DF01B091E0013091F401F9
:101F000023E0230F2D3720F40196A11DB11D05C03C
:101F100026E8230F0296A11DB11D2093F4018093A2
:101F2000DD019093DE01A093DF01B093E001809189
:101F3000F5019091F601A091F701B091F801019699
:101F4000A11DB11D8093F5019093F601A093F701B7
:101F5000B093F801BF91AF919F918F913F912F91D5
:101F60000F900FBE0F901F901895CF92DF92EF92B7
:101F7000FF920F931F93CF93DF930E949A0C8115CA
:101F800020E8920761F4809171008D7F8093710049
:101F900010929100469847981092ED018BC021E075
:101FA0002093ED01813020E8920751F480911706CB
:101FB0009091180690931A06809319060E949A0C25
:101FC00097FD05C02091EC01222309F43FC0209128
:101FD000EB0121113BC021E02093EE01EC01DF7702
:101FE000209769F481E08093EF0146983FE9C32E82
:101FF0003FE0D32EE12CF12CCAEFD0E014C08E01CB
:1020000020E030E060E472E48FE090E0A901980104
:102010000E94B43269017A0181E0C81AD108E1084E
:10202000F1081092EF01E0912B06F0912C06099532
:10203000811103C081E08093EF018091EE0188233C
:10204000B9F18091EF01811133C003C01092EE010C
:10205000C5CF46992DC0479A0E949A0C009771F0FF
:102060009C01DE010E940833DC01CB0129E0B5951B
:10207000A795979587952A95D1F703C08FEF9FEF86
:10208000DC01109290002AE020939100D0929900F8
:10209000C09298008093F0019093F101A093F20117
:1020A000B093F3018091710082608093710002C04F
:1020B0004798D2CFDF91CF911F910F91FF90EF9072
:1020C000DF90CF9008951F920F920FB60F921124B8
:1020D0002F933F934F935F936F937F938F939F9330
:1020E000AF93BF93EF93FF938091F0019091F10133
:1020F000A091F201B091F301892B8A2B8B2B81F1F6
:102100008091EF0181110BC098B180E4892788B9D3
:102110008091EE01882319F088B1805888B98091A8
:10212000F0019091F101A091F201B091F301181624
:1021300019061A061B06B4F48091F0019091F10182
:10214000A091F201B091F3010197A109B109809327
:10215000F0019093F101A093F201B093F30102C05A
:102160000E94B50FFF91EF91BF91AF919F918F9119
:102170007F916F915F914F913F912F910F900FBE83
:102180000F901F901895CF92EF920F931F933BEFF4
:10219000C32EE12C00E010E00E94B40C1F910F91BF
:1021A000EF90CF900895CF92EF920F931F93CF931C
:1021B000DF93FC0196816A3031F4858184836185E7
:1021C000960F968342C0262FEF01848161E0690F4C
:1021D0002F33A1F164F42E32A1F01CF42132A9F0C6
:1021E00027C090ED920F9A3018F52C5F0FC0213464
:1021F000FCF02B3544F09FE9920F9A31C8F4275434
:1022000005C02FE303C0215401C02EE33F81062EF9
:10221000000C770B082E000C990B313089F43AEF43
:10222000C32EE12C00E010E043ED59E00E94B40C15
:1022300088858C5F9C81890F8C8307C020E4E6CF62
:1022400043ED59E00E94C310F3CF81E090E0DF91AD
:10225000CF911F910F91EF90CF900895CF92EF9271
:102260000F931F9332E0C32EE12C00E010E00E9498
:10227000B40C1F910F91EF90CF900895CF92EF92F1
:102280000F931F93F901202FCC24C3948F010E9438
:10229000B40C1F910F91EF90CF900895BC0180E096
:1022A00090E00C94310F8FB18095807F669B8860A1
:1022B0001C9B84600895FC01840F911D181619065B
:1022C000E4F5E038F105CCF5F7FF02C0E0E0F0E01E
:1022D0008138910514F080E890E0382F3E1BAB0167
:1022E00077FF02C0495F5F4F83E0559547958A9518
:1022F000E1F75695542F442757954795E40FF51F5E
:10230000E250FE4F6770772781E090E001C0880FB0
:102310006A95EAF7482F222349F0213071F43150B1
:1023200020F08081842B8193FACF089580953150DD
:1023300020F0908198239193FACF08956038710529
:10234000D0F440345105B8F4EDEDFAE080E1849F1B
:10235000D001A0781124A60F4770E40FF11D8491DD
:10236000A250BE4F222319F06C91862B03C080959A
:102370006C9186238C930895FC019081992359F0E8
:102380001CF49C3F34F40895913041F0993044F0AE
:102390000895990F06C08FEF8083089510820895E5
:1023A000959590830895FC0190819F3F69F01CF4FE
:1023B000983F34F40895992349F0953054F00895E6
:1023C00097FD9F5F959506C01082089581E08083F8
:1023D0000895990F908308958F929F92BF92CF9204
:1023E000DF92EF92FF920F931F93CF93DF931F9291
:1023F000CDB7DEB7E82E21E040E860E070E080E095
:1024000090E00E945B118090E9019090EA018401C4
:10241000F12C0038110514F584E0C82ED12C30E0E1
:102420008F2D8170B82E932F9170B11002C019F0CA
:102430000BC0992349F020E049EC59E0B601C801EE
:1024400039830E942E1139813F5F88E0C80ED11C6C
:10245000373049F7F394085F1F4FDBCF21E040E8A6
:102460006FE370E080E090E00E945B118091E307F1
:1024700080FD1FC0EE2069F081E0881A910881E894
:1024800088168FEF980654F41092EA011092E90131
:1024900010C08FEF881A980A97FE05C09092EA0143
:1024A0008092E90106C080E89FEF9093EA01809353
:1024B000E9010F90DF91CF911F910F91FF90EF9065
:1024C000DF90CF90BF909F908F900895EF92FF92F2
:1024D0000F931F93CF93DF9300D000D01F92CDB7FF
:1024E000DEB781E00E94EC1100E02FE140E860E1FE
:1024F00070E080E090E00E94491540E06DE070E0FF
:102500008DE090E00E94801840E06FE070E08FE086
:1025100090E00E94801841E061E170E081E190E08C
:102520000E94801841E06DE270E08DE290E00E9430
:10253000801840E06FE270E08FE290E00E94801827
:1025400040E061E370E081E390E00E94801820E0C9
:1025500041E359E064E170E089E190E00E942E11CE
:1025600084E28093C3078093C20783E28093C40709
:102570006AE279E08EEB97E00E940D0F8091D6071A
:102580009091D7078E010F5F1F4FF8012AE0E22ECE
:10259000F12C25E0200FB7010E9423338193CB015A
:1025A0002E13F9CF7E0186E0E80EF11CF70162914F
:1025B0007F0170E080E090E04AE00E942F18E01672
:1025C000F106A1F788E00E94921A811105C084E00B
:1025D0000E94921A882319F08AE08093FD010F90DF
:1025E0000F900F900F900F90DF91CF911F910F914F
:1025F000FF90EF900895EF92FF920F931F93CF9368
:10260000DF9300D0CDB7DEB78B0195E0899F7001D5
:102610001124C70188559F4F0E949E32F801808384
:10262000C70187559F4F0E949E32F8018183C701E1
:1026300086559F4F0E949E32F80182831A8219822A
:10264000BE016F5F7F4FC70185559F4F0E94DD1C04
:1026500089819A81F801948383830F900F90DF9191
:10266000CF911F910F91FF90EF900895873028F43C
:10267000853058F4813039F408C0883020F08A3031
:1026800020F08C3011F080E0089581E00895EF9201
:10269000FF920F931F93CF93DF931F92CDB7DEB7B7
:1026A0007C01FC0100811181C80169830E949E3276
:1026B0006981681719F0C8010E94A632C7010F90FE
:1026C000DF91CF911F910F91FF90EF900895EF92BE
:1026D000FF920F931F93CF93DF9300D0CDB7DEB758
:1026E0008C017B01FB0160819A838983CE01019675
:1026F0000E944713F70161810F5F1F4F1A830983FF
:10270000CE0101960E944713C7010F900F90DF91F1
:10271000CF911F910F91FF90EF900895CF93DF938A
:1027200000D0CDB7DEB79A838983CE0101960E948F
:1027300047130F900F90DF91CF9108950F931F9340
:10274000CF93DF9300D0CDB7DEB7082F86EA90E0B5
:102750000E949E32182F87EA90E00E949E3201115B
:1027600004C0133511F4833441F11A82198263E5F0
:1027700086EA90E00E948E1363E487EA90E00E946C
:102780008E1308EA10E060E0C8010E948E1360E03A
:10279000C80101960E948E1360E0C80102960E9453
:1027A0008E13BE016F5F7F4FC80103960E946713AF
:1027B0000B5F1F4F013C110531F70F900F90DF9118
:1027C000CF911F910F910895CF93DF931F92CDB7B3
:1027D000DEB76983DC01ED91FC910280F381E02D8D
:1027E00041E050E0BE016F5F7F4F09950F90DF9190
:1027F000CF91089583E08093E9008091F2008823CF
:1028000019F08AE38093E8000895CF93C82F0E94BF
:102810001F1D89E0C89FF0011124EA5AFE4F8581EF
:10282000082E000C990BAA0BBB0BDC0199278827FB
:102830004481042E000C550B660B770BBA0155270B
:102840004427E8ECF7E010861186128628EC30E089
:1028500035872487138A21E0248B258B168A178AD3
:10286000118A408351836283738384839583A68313
:10287000B7838FEF80930D06CF91089580E0EEEF40
:10288000F1E081118FEF00248193819381938193F3
:102890000394D1F70895EEEFF1E080E0A0E0B8E016
:1028A00000800EBC8111012C1197A0FDFDCF01927B
:1028B000B9F70DB408958F929F92AF92BF92CF92C5
:1028C000DF92EF92FF920F931F93CF93DF93182F16
:1028D000C62F009181070230B0F18F3F51F4602F75
:1028E00070E080E090E00E94E90ED62FCF3F69F4BF
:1028F00003C0D82F6F3F49F5602F70E080E090E073
:102900000E94E90EC62F1F3F01F5802E912CA12CAD
:10291000B12C80910D06D81306C0C501B4010E94E8
:10292000E90ED62FF6CF80911006D817B1F3C02E3E
:10293000D12CE12CF12CDC1308C0C701B6010E9498
:10294000E90EC62FF8CFCEEFD0E02091750630E02B
:10295000220F331FF901E25DFE4F608171818D2FDF
:1029600090E0880F991FFB01E80FF91F44914093F5
:102970000E060196FB01E80FF91FE491E0930F06A4
:10298000D0930D06C0931006CE3FB9F0F901E65E74
:10299000FE4F208131816C2F70E0660F771FF901A7
:1029A000E60FF71F8491809311066F5F7F4FF90147
:1029B000E60FF71FE491E093120610920B0681E0F8
:1029C000809313066AE070E080E090E00E94E90ED8
:1029D000DC01CB010A96A11DB11D80930C06DF918D
:1029E000CF911F910F91FF90EF90DF90CF90BF900C
:1029F000AF909F908F9008954B3049F080F183EF16
:102A0000840F823060F583E38093D90728C091E07A
:102A10009093DF072091E3073091E4072370332779
:102A2000232BE9F4A5EAB7E0ED91FD91908198138D
:102A30001FC0918196131CC08281882381F08091F0
:102A4000D4079091D507883C910548F4019690935E
:102A5000D5078093D4078281811181508283809130
:102A6000DC07811115C08091D107181644F0089534
:102A700097E0AF3AB907C1F6E0E0F0E0DDCF842F90
:102A80000E943613882321F083E38093D9070895A9
:102A900008958F929F92AF92BF92CF92DF92EF9262
:102AA000FF920F93CF93DF936B01EC014C01840EE7
:102AB000911C5B01A20EB11CC815D905ECF476017E
:102AC000D7FE10C0E12CF12C0DC0E816F90694F4E5
:102AD000202FA701BE0180EE97E00E949E112FEFEC
:102AE000E21AF20AC50121E4A216B10474F380E4EB
:102AF00090E0EBCF2196E0CFDF91CF910F91FF9047
:102B0000EF90DF90CF90BF90AF909F908F900895FF
:102B10008F929F92AF92BF92EF920F930091D20744
:102B20008091D907863270F48F31B8F4882311F17F
:102B3000883108F44BC000E08BEF26EE3EE04CE31A
:102B400051E126C08D3280F0843308F03FC08BEF16
:102B500021E53DE041EA5FE01BC000E08BEF25E9A5
:102B60003EE049EE50E114C08BEF23EF3DE045E439
:102B700050E10EC08091DC07811105C02FE23DE0DD
:102B80004DE75FE005C080E02BEE3CE047E35FE00F
:102B900041155105D9F0082E000C990B8090CC07F7
:102BA0009090CD07A090CE07B090CF07BC016A0DE2
:102BB0007B1D8090C8079090C907A090CA07B0906D
:102BC000CB07E02E8A0D9B1D0E943E110F91EF90C6
:102BD000BF90AF909F908F9008952F923F924F9209
:102BE0005F926F927F928F929F92AF92BF92CF929D
:102BF000DF92EF92FF920F931F93CF93DF93CDB7A6
:102C0000DEB728970FB6F894DEBF0FBECDBF409158
:102C10000E0608E0409FA0011124C0906D06D090E0
:102C20006E06E0906F06F0907006C701BB2797FD17
:102C3000B095AB2F89839A83AB83BC8320910F0619
:102C400098E0299F100111248090710690907206DF
:102C5000A0907306B09074068501332717FD309558
:102C6000232F0D831E832F833887E091DB07E1112B
:102C700016C089819A81840F951F893F1FEF9107A4
:102C800074F0803891055CF46D817E81620D731D56
:102C9000683F2FEF72071CF06034710564F080917B
:102CA000FD01883009F0C2C1EE2379F18091100650
:102CB0008E3F59F5BBC1209113062130E1F40091FC
:102CC0000B06E02E2DEB3CE04BEC5CE00E943E114D
:102CD0008091E3079091E4076FE070E00E94233356
:102CE000892B09F0A3C181E090910B06911180E03E
:102CF00080930B069BC1213008F07FC0E12C00E0DF
:102D00002BED3CE042EE5CE075C04090C80750906F
:102D1000C9076090CA077090CB078091CC0790914B
:102D2000CD07A091CE07B091CF0760910A0664311C
:102D300008F07CC1EE2361F04091110668E0469FE7
:102D4000A001112420911206E8E02E9F1001112409
:102D500069817A81695F7F4F640F751F67387105DC
:102D600008F4FFC08301332717FD3095232F0D830F
:102D70001E832F8338878D01332717FD3095232F2E
:102D800009831A832B833C834C185D086E087F08E7
:102D90004619570988199909AA09BB0991012A1BE3
:102DA0003B0BED81FE81FF27882799278E1B9F0B08
:102DB000481759070CF4E3C080E890E08E1B9F0B86
:102DC000481759070CF0EFC037FF1CC18D81840FE5
:102DD00000E060E0A0E8B0E07D01EE1AFF0A4E15C9
:102DE0005F050CF0E4C070E0E02E2FEF3BE04FE316
:102DF0005CE090E00E943E1119C1223009F016C13A
:102E00002091140600910B06E0911506E02E263065
:102E100029F42FE93CE04DEA5CE004C021E83CE005
:102E20004FE85CE08E0F911DE7FD9A950E943E11E0
:102E30008091E3079091E40787709927892B09F027
:102E4000F5C090910E0680911506282F082E000CD3
:102E5000330B2D5F3F4F48E0949F200D311D11240F
:102E60004091C8075091C9076091CA077091CB077C
:102E7000AB01485F5F4FC0906D06D0906E06E0904A
:102E80006F06F09070064E195F092417350789F018
:102E900091E020910B06211190E090930B06909108
:102EA0001406963011F4815001C08F5F809315068F
:102EB000BDC081E08093DB071092DE072091DA0726
:102EC00090917F07291710F080937E078091710001
:102ED0008D7F8093710010921B068DE196E0909398
:102EE0001A0680931906909318068093170687E2B6
:102EF00095E090931E0680931D0682E390E09093E8
:102F0000200680931F0625EA30E0309322062093A6
:102F10002106909324068093230622E530E0309327
:102F20002606209325069093280680932706289648
:102F30000FB6F894DEBF0FBECDBFDF91CF911F91CA
:102F40000F91FF90EF90DF90CF90BF90AF909F9048
:102F50008F907F906F905F904F903F902F900C9448
:102F6000B50F6D817E81620D731D683FFFEF7F0796
:102F70000CF4F8CE603471050CF0F4CE57C0C801E3
:102F8000992766277727681B790B261737074CF593
:102F900007E060E0A8E3B0E07D01E81AF90A2E1529
:102FA0003F056CF502C000E060E080E013CF49818E
:102FB0005A815527EE27FF27E41BF50B2E173F07F5
:102FC0004CF501E060E088E7E8E3F0E0DF01A41BF6
:102FD000B50B2A173B070CF406CF03E060E388E744
:102FE00002CF68E370E0681B790B261737072CF4D3
:102FF00069816450620F06E0CDCF00E0CACF05E0E2
:1030000060E3D3CF2115310571F28D81840F04E087
:1030100060E3E0CEE8E3F0E0E41BF50B2E173F079A
:103020009CF669816450620F02E0CDCF28960FB6FE
:10303000F894DEBF0FBECDBFDF91CF911F910F91EE
:10304000FF90EF90DF90CF90BF90AF909F908F90C8
:103050007F906F905F904F903F902F9008958F9248
:103060009F92AF92BF920F931F93CF93DF93CDB7F1
:10307000DEB7A1970FB6F894DEBF0FBECDBF19A281
:10308000423008F44AE08E010F5D1F4F842E912CD0
:10309000A12CB12CA50194010E94E632E62FB901C2
:1030A000CA0101501109EA3014F4E05D01C0E95C85
:1030B000D801EC93232B242B252B61F70115110547
:1030C00071F0F80101900020E9F73197AF01401B42
:1030D000510BB8018EEB97E00E944A0C02C080E0D1
:1030E00090E0A1960FB6F894DEBF0FBECDBFDF9182
:1030F000CF911F910F91BF90AF909F908F900895A7
:103100004F925F926F927F928F929F92AF92BF92F7
:10311000CF92DF92EF92FF920F931F93CF93DF93A3
:10312000EC018B01442ECB018C1B9D0B97FF03C040
:1031300091958195910955245394813891053CF4DA
:10314000512CC80100E810E0E12CF12C0FC00C1745
:103150001D0734F07E0180E890E0C0E0D0E006C0BA
:1031600078018E0180E090E0C0E8D0E038016E1870
:103170007F085C01AC1ABD0AB7FE03C0B194A194EC
:10318000B108630177FE03C02FEFC21AD20AD594AB
:10319000C794C817D90714F08FEF01C081E0882EBB
:1031A000880F99080E151F05C4F0242D552019F01D
:1031B000A701BE0102C0AE01B70180EE97E00E94F8
:1031C0009E11CA18DB08D7FE04C0C80DD91DC60C55
:1031D000D71C8FEFE81AF80AE5CFDF91CF911F9146
:1031E0000F91FF90EF90DF90CF90BF90AF909F90A6
:1031F0008F907F906F905F904F900895EF92FF9225
:103200000F931F93CF93DF9300D000D01F92CDB7C1
:10321000DEB720E04DE75BE068E370E080E090E03F
:103220000E942E118DE08093C3078093C20789E32B
:103230008093C4078091D6079091D7078E010F5FC6
:103240001F4FF8012AE0E22EF12C25E0200FB701F4
:103250000E9423338193CB012E13F9CF7E0186E0A8
:10326000E80EF11CF70162917F0170E080E090E0D0
:103270004AE00E942F18E016F106A1F74091D4070A
:103280005091D507CA010197439708F04BC0809130
:103290000A06843108F046C000E028E04EE169E308
:1032A00070E08CE290E00E9449158EE58093C307A0
:1032B0008093C20719E31093C4078091D8070AE0EE
:1032C000602F0E941733692F70E080E090E04AE0A1
:1032D0000E942F1883E78093C3078093C20710933F
:1032E000C40780910C06602F0E941733192F0E948B
:1032F0001733692F70E080E090E04AE00E942F18B9
:10330000612F70E080E090E04AE00F900F900F9006
:103310000F900F90DF91CF911F910F91FF90EF9041
:103320000C942F1899E39093C3079093C20790933E
:10333000C4072AE030E0CA01B9010E942333082FF4
:10334000CB01B9010E942333182FCB01B9010E9490
:103350002333BC0180E090E04AE00E942F18612FE7
:1033600070E080E090E04AE00E942F18602F70E04B
:1033700080E090E04AE00E942F1897CFFC018091F6
:10338000FC01811103C08FEF9FEF08959FB7F89460
:1033900082E08093E9002091F20030E012161306DB
:1033A00014F421E030E02115310559F0289884E625
:1033B0008093FB018091F10080838091F20088234B
:1033C00019F09FBFC90108958BE68093E800F9CFFB
:1033D0002FB7F89483E08093E9009091E800892F5B
:1033E000807295FF04C09091F20080E4891B2FBF8A
:1033F00008958F929F92AF92BF92CF92DF92EF92F9
:10340000FF920F931F93CF93DF935C016B017A01BF
:1034100080911101882309F45BC08091FC0188230D
:1034200009F456C08091FA0180FF05C08091E00048
:1034300082608093E000E70110E00AEF83E0882ECD
:103440009AE3992E2097D9F10E94E81981110AC0B8
:10345000015009F43DC061E070E080E090E00E941E
:10346000310FF0CF282F30E0C217D3070CF48C2F88
:103470004FB7F8948092E9009091E80095FF1DC045
:10348000282F30E0C21BD30BF601982F915020F06B
:1034900081918093F100FACFC20ED31E112319F04F
:1034A0009092E80009C08091E80085FD06C09092E6
:1034B000E80011E0209709F010E04FBFC3CF1111D1
:1034C000C3CF5D9884E68093F9011E141F0444F075
:1034D00081E090E0F5019383828380E090E001C079
:1034E000C701DF91CF911F910F91FF90EF90DF9077
:1034F000CF90BF90AF909F908F90089580910206DB
:1035000081110DC082E08093FE0584E08093FF0569
:10351000109201061092000681E0809302068EEF61
:1035200095E008952091E607282329F49091E50776
:10353000982381E009F480E00895EF920F93809141
:10354000DE07811114C184E00E94921A882369F079
:103550008091D4079091D507892B39F09091DC07A1
:1035600081E089278093DC0702C18091E307909175
:10357000E40783709927892B09F0F9C08091DD0752
:10358000811116C00E94531185FF08C080ED97E09D
:103590000E94BC1181E08093D2070AC00E9453119F
:1035A00086FF06C080ED97E00E94D3111092D207EB
:1035B0000E94531183FF70C08091D4079091D5076A
:1035C000892B09F469C08091D207811195C00091BF
:1035D0001C068091CC079091CD07A091CE07B091A9
:1035E000CF07BD01685F7F4FE02E23E837E145EA52
:1035F00057E18091CA079091CB070E943E118091BC
:10360000E3079091E40765E070E00E942333892B83
:1036100031F480911C068F5F817080931C0680912D
:10362000D107882309F464C00CF458C0813009F034
:103630005AC01092D107809171008D7F80937100E4
:1036400010921B068DE196E090931A06809319065E
:10365000909318068093170621E230E030931E06FF
:1036600020931D0682E390E09093200680931F062E
:1036700041E450E0509322064093210690932406A3
:1036800080932306309326062093250690932806E0
:10369000809327060E94B50F8091E3079091E4077D
:1036A00087709927892B09F062C00E94531183FF0C
:1036B00006C08091D4079091D507892B31F4809171
:1036C000D1078F3F79F51092D1070E94531185FDE4
:1036D0004EC00E94531186FF38C049C08C3F0CF485
:1036E000AACF880F06C089300CF0A5CF859501C000
:1036F0008FEF8093D1079FCF813009F080CF009169
:103700001C068091CC079091CD07A091CE07B09177
:10371000CF07BD01685F7F4FE02E2DE337E14FE516
:1037200057E167CF8F3F09F034F4883F74F287FD8B
:103730008F5F859503C0811104C081E08093D1071C
:10374000C4CF853014F6880FF9CF8091D0071816B2
:1037500024F480ED97E00E94BC118091D00787FF90
:1037600006C080ED97E00F91EF900C94D3110F916C
:10377000EF9008958F929F92AF92BF92CF92DF9277
:10378000FF920F931F93CF93DF930091C80710917F
:10379000C9072091CA073091CB074091CC075091BF
:1037A000CD076091CE077091CF078091DC07811122
:1037B00003C0A8E0FA2E02C0FBE0FF2EE0910E0647
:1037C00080916D0690916E06A0916F06B091700683
:1037D000C8E0EC9FA00DB11D112480910F068090D0
:1037E000710690907206A0907306B09074066D01F9
:1037F000D7E0CD0ED11CE7E8CE16D104A0F5E50147
:10380000E8E08E9FC00DD11D1124CE01C83FFFEF0F
:10381000DF074CF1C034D10534F58901332717FD9A
:103820003095232FE8010F5E1F4FA017B107DCF47E
:10383000CC15DD05C4F4AB01772757FD7095672FD4
:10384000FA012F2D30E0420F531F841795075CF4C7
:103850000896E817F9073CF488E78093160610925B
:1038600013061092DE07DF91CF911F910F91FF9009
:10387000DF90CF90BF90AF909F908F900895CF92A0
:10388000DF92EF920F93CF93DF9380910E06C0915A
:1038900015060C2E000CDD0B219640916D06509103
:1038A0006E0660916F0670917006C60FD71F98E084
:1038B000899FC00DD11D112480910F064091710682
:1038C0005091720660917306709174066B019DE0D1
:1038D000C91AD10898E0899FC00CD11C112490917D
:1038E000DA0780917F07E12C00E02BEA36E1981798
:1038F00068F043EF56E1B601CE010E943E11DF9120
:10390000CF910F91EF90DF90CF90089541E656E16F
:10391000B601CE010E943E11209110062B5CB6012B
:103920006C5F7F4F47E555E1CE014996DF91CF911E
:103930000F91EF90DF90CF900C94C310EF920F9304
:103940001F93809116068823A1F180910A06843185
:1039500080F5E0910E0680910F064091710650911E
:10396000720660917306709174066D50710998E04B
:10397000899F600D711D112480911506082E000C81
:10398000990B019600916D0610916E0620916F06BD
:1039900030917006820F931FE12C00E02BEA36E194
:1039A0004DE055E1F8E0EF9F800D911D11240E943C
:1039B0003E111F910F91EF9008950F931F93CF9396
:1039C000DF938C01EB010E949E328883C80101962F
:1039D0000E949E328983CE01DF91CF911F910F917A
:1039E000089570E020917A0630917B0626173707FC
:1039F00010F120917C0630917D06982F9695629F5C
:103A0000F001639FF00D729FF00D1124F695E7957C
:103A1000E359F94FE90FF11D80FD03C081898295BB
:103A200001C081898F70853049F480917E078111B2
:103A300004C085E0089589E0089580E008955F92CC
:103A40006F927F928F929F92AF92BF92CF92DF92AE
:103A5000EF92FF920F931F93CF93DF931F92CDB7F7
:103A6000DEB78093750610927E0799E0899FF0017A
:103A70001124EA5AFE4F2081022E000C330B3093A2
:103A80007D0620937C068181082E000C990B909373
:103A90007B0680937A0663E0220F331F6A95E1F775
:103AA000309379062093780673E0880F991F7A95F2
:103AB000E1F790937706809376068281082E000CBA
:103AC000990BAA0BBB0BDC019927882780936D0605
:103AD00090936E06A0936F06B09370068381082EB4
:103AE000000C990BAA0BBB0BDC019927882780934C
:103AF000710690937206A0937306B0937406868144
:103B000080937F07878180938007808580938107DA
:103B1000A5EAB7E0ED91FD91108211821282138225
:103B2000E7E0AF3ABE07B1F7E0917506F0E0EE0FBF
:103B3000FF1FEE5BFE4FE080F18000E010E0B12C53
:103B4000512CAA24A394F7018491282F22952F7039
:103B50008F70682E09F464C0722E729440EF742244
:103B60006801D601B695A795A359B94F51968C9186
:103B70005197C0FC03C08F70872902C0807F822BC1
:103B800051968C93253031F12B30C1F560917C0634
:103B900070917D06E52DF0E0EE0FFF1FEB55F84F1D
:103BA00080809180C6010E942333F4018083618369
:103BB00068E270E080E090E029830E94E90EDC0179
:103BC000CB018896A11DB11DF40182838383539498
:103BD000298114C060917C0670917D06EB2DF0E088
:103BE000EE0FFF1FE155F84F0190F081E02DC60167
:103BF0000E94233380836183A282B394FFEFCF1AA4
:103C0000DF0A8C2D801B861508F4ABCF6A94862DB5
:103C100090E00196080F191F8FEFE81AF80A93CF6A
:103C20000F90DF91CF911F910F91FF90EF90DF9058
:103C3000CF90BF90AF909F908F907F906F905F904C
:103C40000895FC018485958597FD0BC09FB7F89476
:103C500082E08093E9008091F2009FBF90E001969E
:103C600008959FB7F89482E08093E9008091F20074
:103C70009FBF90E0089540913F08509140082091E7
:103C80003D0830913E0842175307B4F49091E80084
:103C90009570E1F39091E80092FD19C08093F100D6
:103CA00080913F089091400801968F739927892B46
:103CB00019F48EEF8093E80080913F0890914008BE
:103CC00001969093400880933F0881E0089580E03A
:103CD0000895DF92EF92FF920F931F93CF93DF939C
:103CE000D82E8A017B01E40EF51EEB01CE15DF050F
:103CF00071F0D7FE03C0FE01849101C088810E944B
:103D00003B1E21968111F2CF8FEF9FEF01C0C801BA
:103D1000DF91CF911F910F91FF90EF90DF90089569
:103D2000615030F02091F100FC0120830196F8CF22
:103D3000289884E68093FB0108950E94E81990E09A
:103D40000895CF93DF931F92CDB7DEB7FC01848532
:103D5000958597FD05C02FEF3FEF358724870BC072
:103D6000CE0101960E94BE19019719F4898190E055
:103D700002C08FEF9FEF0F90DF91CF9108950F93C7
:103D80001F93CF93DF931F92CDB7DEB78C01FC0159
:103D90008485958597FF0EC0CE0101960E94BE19BD
:103DA000019719F4298130E002C02FEF3FEFF801AD
:103DB00035872487F801848595850F90DF91CF9111
:103DC0001F910F9108950F931F93CF93DF931F922D
:103DD000CDB7DEB782E0898342E450E069EC77E159
:103DE00080E80E94691E0E947E1ADC0112960D91E5
:103DF0001C9113970115110569F0D801ED91FC9103
:103E00000280F381E02DBE016F5F7F4FC8010995ED
:103E100097FF07C089810F90DF91CF911F910F917C
:103E20000895F80100851185E5CF1F920F920FB616
:103E30000F9211248F939F938091E1009091E10064
:103E4000937F9093E10083FF0FC01092E90091E00F
:103E50009093EB001092EC0092E39093ED0010929F
:103E6000FC0198E09093F00082FF20C093E09093D3
:103E7000E9009091F200992319F09AE39093E800F9
:103E80009091F901992339F09091F9019150909313
:103E9000F901992389F19091FB01992339F09091CF
:103EA000FB0191509093FB01992341F184FF10C0D5
:103EB0008091E2008E7E81608093E2008091E1003B
:103EC0008F7E8093E1008091FA018E7E806111C027
:103ED00080FF16C08091E2008E7E80618093E200B8
:103EE0008091E1008E7E8093E1008091FA018E7EC8
:103EF00081608093FA0104C05D9ACDCF289AD6CF15
:103F00009F918F910F900FBE0F901F9018951F9249
:103F10000F920FB60F921124CF92DF92EF92FF9281
:103F20000F931F932F933F934F935F936F937F93C1
:103F30008F939F93AF93BF93EF93FF93CF93DF93B1
:103F4000CDB7DEB76C97DEBFCDBF1092E900809190
:103F5000E80083FFEDC168E0CE0145960E94901E07
:103F600082EF8093E8008D8987FF05C09091E8007B
:103F700090FFFCCF03C09EEF9093E800982F9076BF
:103F800009F0C6C09E892F89188D91110CC0803808
:103F900029F480913C088093F10002C01092F10056
:103FA0001092F10048C1422F50E0512B913051F452
:103FB000811141C14130510509F03DC180913C085A
:103FC0008D7F0BC0933061F4811135C141305105B3
:103FD00009F031C180913C08826080933C082BC17C
:103FE000953041F48091E80080FFFCCF2068209359
:103FF000E30021C1963009F05FC0EB8CFC8C10927D
:10400000E9001092400810923F08123091F510928A
:104010003E0810923D080E94E31E99E0BE016F5FCA
:104020007F4FDB01E92F1D92EA95E9F799831A8307
:1040300091E09E8390EA98879AEF998720913F08B4
:1040400030914008275F3F4F3C832B838D83109234
:10405000E9001092400810923F08F0923E08E0926A
:104060003D0849E050E080E00E94691E0E94E31E86
:10407000E2C0F0923E08E0923D080E947E1ADC0108
:104080001296ED90FC901397E114F10409F4C0C06E
:10409000D701ED91FC910480F581E02DBE016B5EAE
:1040A0007F4FC7010995009719F00CF0C4C0C7C035
:1040B000F701E084F184E8CF973009F4C0C098306C
:1040C00021F481E08093F100B6C0993009F0B3C0CB
:1040D000837009F0B4C0E5EDF1E081E021E036E362
:1040E0009081992361F08093E9002093EB009191F6
:1040F0009093EC003093ED008F5F873089F78EE767
:104100008093EA001092EA008F898093FC0193C0AB
:104110008B8D9C8D1092E9001092400810923F0800
:1041200090933E0880933D08898D811156C08E89F9
:104130009D89913A59F4813209F081C047E050E0FD
:104140006AE071E080E00E94691E75C0913209F05A
:1041500076C0833289F4888D90E0982F88272F8944
:10416000822BA0E0B0E08093120190931301A09302
:104170001401B09315015FC0803269F48091E800AA
:1041800082FFFCCF67E08AE091E00E94901E8BEFF7
:104190008093E80006C0823209F04DC08F89809379
:1041A000110180913B08882319F0EEEFFAE002C07C
:1041B000E0E0F8E080910A0190910B01A0910C01E0
:1041C000B0910D01803B9440A105B10509F07BC081
:1041D0008091110180FF93C076C00E947E1ADC019D
:1041E00012960D911C9113970115110541F1D801FB
:1041F000ED91FC910190F081E02DBE016B5E7F4F4F
:10420000C8010995811117C0F80100851185ECCF0F
:10421000113009F44EC0133091F48F89882309F4CA
:1042200045C0823081F440E860E18DE298E10E946F
:104230000532882321F08EEF8093E80079C081E277
:104240008093EB0075C0813029F440E86BE081E297
:1042500098E1EDCF833099F70E947E1ADC01129627
:10426000ED90FC9013978E010F5F1F4F6801E114D2
:10427000F10479F0D701ED91FC910680F781E02DF2
:10428000B801C7010995080F111DF701E084F184F9
:10429000EECFD8011C92F60101900020E9F731978A
:1042A000BF016C197D0940E0C601C1CF6BE078E128
:1042B00002C06FE078E16115710509F2FB014491DC
:1042C00050E080E840CF0FB6F894A8958091600048
:1042D000886180936000109260000FBEA895EE3F49
:1042E0002AE0F20739F08091FE0A9091FF0A91834B
:1042F0008083A1CF1092FF0A1092FE0A9CCFEE3F5E
:104300008AE0F80731F0808191819093FF0A8093D1
:10431000FE0A87E797E7918380839BE088E10FB6E9
:10432000F894A895809360000FBE9093600083CFAF
:104330006C960FB6F894DEBF0FBECDBFDF91CF9164
:10434000FF91EF91BF91AF919F918F917F916F916D
:104350005F914F913F912F911F910F91FF90EF909F
:10436000DF90CF900F900FBE0F901F901895CF93B6
:10437000DF93CDB7DEB7A8970FB6F894DEBF0FBEB8
:10438000CDBF789484B5826084BD84B5816084BDDE
:1043900085B5826085BD85B5816085BD80916E00E3
:1043A000816080936E001092810080918100826014
:1043B0008093810080918100816080938100809151
:1043C0008000816080938000809191008260809362
:1043D0009100809191008160809391008091900084
:1043E0008160809390008091C10084608093C100BF
:1043F0008091C10082608093C1008091C100816082
:104400008093C1008091C30081608093C30080913C
:10441000C00082608093C0008091C2008160809360
:10442000C20080917A00846080937A0080917A0043
:10443000826080937A0080917A00816080937A0014
:1044400080917A00806880937A001092FC0110922B
:104450003C081092FA018091D70081608093D700C8
:1044600080EA8093D80089B5806189BD89B5826072
:1044700089BD09B400FEFDCF61E070E080E090E00E
:104480000E94310F8091D8008F7C80618093D8008A
:104490008091E000807F8093E0008091E1008E7E3B
:1044A0008093E1008DE08093E200559A209AEEEF30
:1044B000FFE7859194918B3F9C4D19F481E08093A7
:1044C0003B0881EC80937C0085B1806F85B984B115
:1044D000877E84B984B1876E84B95E9A5F988AB109
:1044E000806D8AB9769A6E9881B3806F81BB899806
:1044F00080B38D7080BB80E58CBD81E08DBD85E093
:1045000090E00E944E115F9A85E090E00E944E116B
:104510005E985C98E0E4F1E08DE08E0F94919EBD92
:1045200000000DB407FEFDCF31968E13F7CF5C9AD5
:1045300081E88093640080916500816080936500CC
:104540000E944B140E94531187FF15C05C9885EAA6
:104550008EBD00000DB407FEFDCF5C9A2E982F98FB
:104560002D988091640080628093640081E083BF15
:10457000889513BEFCCF02E010E00E94531182FF29
:1045800040C02D980E94531184788438C1F00E9455
:1045900053118471843181F52D9A88EC90E00E944A
:1045A0004E112E981A83098360E0CE0101960E9475
:1045B000471384EF91E00E944E112E9A18C02D9A55
:1045C00088EC90E00E944E112F981A8309836FEFB8
:1045D000CE0101960E94471384EF91E00E944E1194
:1045E0002F9A0E94531184788438D9F3D0CF0E9437
:1045F000531184718431D9F388EC90E00E944E11FC
:10460000BCCF2D9A82E090E00E949E32882331F048
:104610003E9A3F9A81E08093DC0104C01092DC0155
:104620003E983F980E943E1480E18093E70780E027
:104630000E949E139E012F5F3F4F19018FB7F89480
:104640004091DD015091DE016091DF017091E00148
:104650008FBF8091E807342F381B832F9091E90793
:10466000992331F03093EA071092E9070C94FC2C5F
:104670009091E707391758F48F5F891710F00C9461
:10468000FC2C81E083BF889513BE0C94FC2C81E048
:104690008093E9074093E8078091E3079091E4074E
:1046A00001969093E4078093E3078091E507809358
:1046B000E6070E9453118093E5070E943E14E091A3
:1046C000FD018E2F90E08C30910508F0E8C6FC01CA
:1046D000EA5AFF4F0C944B3320E040E158E061E18F
:1046E00070E08DE190E00E942E11809104018823FA
:1046F00079F0813009F05AC0109200011092010146
:1047000090E4909302018093030110920401C7C6C4
:104710008091000187FD44C08091020190E02091CA
:104720000101821B910997FD019695958795B82EF9
:10473000E12CF12C30E8C32ED12C40910001EB1478
:1047400040F58701000F111F80910101B801680F2A
:10475000711D603471052CF420E080E090E00E942F
:104760005B1180910101B801680F711D6F5F7F4F70
:10477000809100016034710544F420E0482FD60197
:10478000A81BB109CD010E945B11BFEFEB1AFB0A18
:10479000D4CF47FD05C080910301480F409300012D
:1047A0008091000187FF7BC60C947A2D8150809305
:1047B000040175C61092E80180E00E9405146EEFB6
:1047C000809109010E945B141092D20782E08093CD
:1047D000FD0180E8809305011092060180E480933A
:1047E000070181E0809308018091E601882319F098
:1047F00081508093E60180911606882379F08150DC
:104800008093160681110AC081E0909109019111EF
:1048100080E0809309016EEF0E945B1420E04EE07F
:1048200055E067E070E080E090E00E942E118090FB
:1048300009018F8A512C182D1F5F1BA3E52CF12C29
:1048400080917A0690917B06E816F90608F079C007
:10485000B3E0EE0CFF1CBA95E1F710E0970122508F
:1048600031093C8F2B8FA7014150510958A34F8F1D
:10487000C12ED12C80917C0690917D06C816D90658
:1048800008F05DC083E0CC0CDD1C8A95E1F7652D56
:10489000812F0E94F11C882309F44FC0843009F055
:1048A00045C030918107E0917506F0E0EE0FFF1FE3
:1048B000E65EFE4FA080B180412C90E0460122E0F0
:1048C000820E911C360143E0640E711C431651F1B7
:1048D000F50184913196E49118131FC05E121DC03A
:1048E000FF89F4111AC024E044E954E0B701C6017D
:1048F0003CA30E942E1101E027E045E06B8D7C8DEA
:10490000C4010E9449152BA144E754E06F8D78A1A2
:10491000C3010E94C31091E03CA1439402E0A00EA9
:10492000B11CD4CF911109C02AE001C0282F44E95D
:1049300054E0B701C6010E942E111F5F99CF539416
:104940007DCF0E9488150E94ED150E949D1A8091CE
:10495000DB07811105C08091130681110C94062D8F
:104960008091E601882331F080910A06843110F4A9
:104970000E943F1C0E949E1C8091CC079091CD0705
:10498000A091CE07B091CF070097A942B1050CF4D2
:1049900086C58091D107181614F40C940A2D7FC592
:1049A00081E08093E80183E08093D8071092D707D5
:1049B0001092D60784E08093FD018091E8010E9467
:1049C0001F1D8091E501811112C0EDE2F6E020E0AB
:1049D00030E480E090E231832083938382833496B5
:1049E00066E0ED36F607B9F781E08093E50184E3F0
:1049F00094E00DE216E0D80160E070E440E050E29F
:104A0000FC0125913491ED91FC9111972E0F3F1FE0
:104A100011963C932E93FC013296E590F4901296F9
:104A2000ED91FC911397EE0EFF1E1396FC92EE9201
:104A3000129737FF02C00C940E2DF7FE02C00C94A3
:104A40000E2D04961496E6E0AD36BE07C9F6D801E1
:104A500013964C911397042E000C550B11966C91E4
:104A6000062E000C770B21E080EE97E00E949E114D
:104A70000C5F1F4FB6E00D361B0749F700E021E140
:104A80004EE567E170E082E190E00E94491521E087
:104A90004CE569E170E083E190E00E945B1121E068
:104AA0004CE566E270E083E190E00E945B1180914A
:104AB00080078A5E8093C3078093C2078CE180934E
:104AC000C407E0917506E150F0E0EE0FFF1FEE5DC8
:104AD000FB4F659174918EEB97E00E940D0F88E07B
:104AE0000E94921A882319F086E08093FD0187E0E6
:104AF0008093E701D4C410921C068091E8010E94C3
:104B000005146FEF8FEF0E945B148091E701809393
:104B1000FD0180910A068F5F68E20E94173390932F
:104B20000A068091E601882319F081508093E601FE
:104B300080911606882349F08150809316068111D2
:104B400004C06FEF8FEF0E945B14712CA72CB12C67
:104B500080917A0690917B06A816B90608F0A6C047
:104B600063E0AA0CBB1C6A95E1F710E0E12EF12C82
:104B700080917C0690917D06E816F90608F094C0B5
:104B8000E3E0EE0CFF1CEA95E1F780916D06909151
:104B90006E06A0916F06B0917006EA0EFB1E809122
:104BA000710690917206A0917306B09174069701F8
:104BB000285F3F4F2838310508F074C06501CA0EE0
:104BC000DB1EC60108968834910508F06BC0672D7E
:104BD000812F0E94F11C843051F08B3009F445C0C4
:104BE000882309F45FC0282F44E954E057C024E02B
:104BF00044E954E0B601C7010E942E1101E027E00C
:104C000045E0B60162507109C70102960E9449153C
:104C100080910A06843108F045C000918107E09137
:104C20007506F0E0EE0FFF1FE65EFE4F808091807C
:104C3000612CE1E0CE1AD108F3E0EF0EF11C601612
:104C400089F1F40184913196E4916394181309C0B9
:104C50007E1207C0262D44E754E0B601C7010E942A
:104C6000C310F2E08F0E911CEACFA5EAB7E0ED91F8
:104C7000FD9180818113DBC681818711D8C6828135
:104C800004E0809FC0011124638170E00E943733EB
:104C9000262F643008F023E040E054E0B601C7015D
:104CA0000E942E111F5F62CF739450CF8091D9075D
:104CB0008111D6C00E949D1A8091DB07811104C02A
:104CC000809113068111BBC68091FD01883009F0E7
:104CD000C7C01092DF07F1018FE0820D11928E1391
:104CE000FDCF8091CC079091CD07A091CE07B091D8
:104CF000CF07AD01772757FD7095672F809171061B
:104D000090917206A0917306B0917406CD01BB27F5
:104D100097FDB095AB2F5A01A81AB90A0091C807A0
:104D20001091C9072091CA073091CB078901332719
:104D300017FD3095232F80916D0690916E06A091FE
:104D40006F06B0917006CD01BB2797FDB095AB2FD4
:104D5000081B190B33E0169507953A95E1F799244E
:104D60009394900E42E0C42EC00E750153E0F69469
:104D7000E7945A95E1F7DD24D394DE0C6E2D802F55
:104D80000E94F11C3101680E711CD3019C9191119C
:104D900008C0482F6E2D802F0E94FC1481E0F30183
:104DA00080836E2D892D0E94F11C3101680E711CCB
:104DB000D3019C91911108C0482F6E2D892D0E941E
:104DC000FC1481E0F30180836E2D8C2D0E94F11C78
:104DD0003101680E711CD3019C91911108C0482FBC
:104DE0006E2D8C2D0E94FC1481E0F3018083F8E08D
:104DF000AF16B104A8F16D2D802F0E94F11C710136
:104E0000E80EF11CD7019C91911108C0482F6D2D1F
:104E1000802F0E94FC1481E0F70180836D2D892D85
:104E20000E94F11C8101080F111DD8019C91911164
:104E300008C0482F6D2D892D0E94FC1481E0F801D7
:104E400080836D2D8C2D0E94F11CF101E80FF11D66
:104E50009081911105C0482F6D2D8C2D0E94FC145E
:104E60008091FD01873021F480910A06843110F48D
:104E70000E9488151091E401112361F187E290E00E
:104E8000811B910997FD07969C0163E03595279555
:104E90006A95E1F78091CC079091CD07A091CE075C
:104EA000B091CF07BD016A5071098091C8079091F8
:104EB000C907A091CA07B091CB07E22E022F22EEBC
:104EC00031E040EF52E0CD0105970E943E111150B4
:104ED0001093E4010E94ED150E94FE188091E601F6
:104EE000882331F080910A06843110F40E943F1C1F
:104EF0000E949E1C8091FD01873051F488E00E9441
:104F0000921A882309F4CBC288E08093FD01C7C2BE
:104F10009091DF078091D90791110EC081110CC0CB
:104F20008091E3079091E4076FE070E00E942333E3
:104F3000892B09F487C523C0823039F000F184330E
:104F4000F0F481508093D9071AC081E08093D9078B
:104F50008091D80781508093D807882369F0809189
:104F600075060E941F1D1092D90786E08093FD01EF
:104F700087E08093E70103C089E08093FD01809181
:104F8000E3079091E4076FE070E00E942333892BE0
:104F900009F085C28091E3018F5F8B3018F4809314
:104FA000E3017DC21092E30180910C068B3008F47E
:104FB00076C2815080930C0672C20E9466121092D3
:104FC000E8016DC28FEF8093B9071092BA07109273
:104FD000BB071092BC071092BD078091D607909135
:104FE000D7079E8B8D8B00E010E0B12C1A821982BE
:104FF0006801FBEACF0ED11CB101C6010E94DD1C85
:1050000029813A818D899E892817390730F44FEB21
:10501000E42EF12C54E0A52E0AC0B3940B5F1F4F71
:1050200035E0832EB810E2CFBB24BA943CC0BA144A
:1050300010F5AA94B1018A2D0E94FB126981C70163
:1050400003970E948E136A81C70102970E948E13F4
:105050006B81C70101970E948E138C819D81998B72
:10506000888BBE01605F7F4FC7010E94671325E0F8
:10507000E21AF108DCCF60E0C80188559F4F0E941A
:105080008E1360E0C80187559F4F0E948E1360E029
:10509000C80186559F4F0E948E13BE016B5E7F4FE5
:1050A000C6010E9467131FEFB101812F0E94FB12FE
:1050B0001F5F1430C9F7B092B9078BE08093FD01F0
:1050C00080E8809305011092060180E48093070137
:1050D00081E08093080180E00E94EC1100E020E470
:1050E00042E560E070E087E190E00E94491500E051
:1050F00010E021E0A80168E170E080EE97E00E94F6
:105100009E110F5F1F4F0034110599F700E010E06A
:1051100021E0A80167E670E080EE97E00E949E1112
:105120000F5F1F4F0034110599F720E040E551E073
:1051300066E070E08CE190E00E942E1105E110E045
:10514000B12C96E0A92E26E0922E920CBE01605F53
:105150007F4F8B2D0E94FB12288947E555E1B8014E
:1051600083E290E00E942E11298947E555E1B801BC
:1051700089E290E00E942E112A8947E555E1B801A5
:105180008FE290E00E942E11D101EA2D1D92EA9546
:10519000E9F78B899C896101F1016AE070E00E9466
:1051A00023338193CB019E12F8CF89E5E82EF12CB1
:1051B000D6012D916D012C5C47E555E1B801C70181
:1051C0000E942E11B5E0EB1AF108EBE3EE16F104A4
:1051D00079F7B394085F1F4FF5E0BF12B7CF109176
:1051E000B9071F3F09F41BC18091E2018F5F8093D3
:1051F000E2018F30E8F408E0109FB00111246C5EEA
:105200007F4F20E04DE451E08EE190E00E942E11AE
:105210006091B90718E0619FB00111246C5E7F4F67
:1052200020E04DE451E081E690E00E942E1104C0A0
:105230008F3110F01092E2018091BA076091B907A6
:1052400081111EC028E0629FB00111246C5E7F4F67
:1052500001E028E046E082E290E00E94491560917A
:10526000B90738E0639FB00111246B5E7F4F209136
:10527000BB0747E555E183E290E00E94C3100EC0F2
:1052800048E0649FB00111246B5E7F4F2091BB0703
:1052900047E555E183E290E00E942E118091BA0724
:1052A0006091B9078130F1F458E0659FB001112495
:1052B0006C5E7F4F01E028E046E088E290E00E94CB
:1052C00049156091B90788E0689FB00111246B5EB1
:1052D0007F4F2091BC0747E555E189E290E00E94AD
:1052E000C3100EC098E0699FB00111246B5E7F4F20
:1052F0002091BC0747E555E189E290E00E942E111C
:105300008091BA076091B9078230F1F4A8E06A9FF2
:10531000B00111246C5E7F4F01E028E046E08EE290
:1053200090E00E9449156091B907B8E06B9FB00109
:1053300011246B5E7F4F2091BD0747E555E18FE259
:1053400090E00E94C3100EC0E8E06E9FB0011124EF
:105350006B5E7F4F2091BD0747E555E18FE290E0FE
:105360000E942E111091BA0780E80E94921A882399
:1053700059F0E12FF0E0E754F84F82818A3111F4BF
:10538000128202C08F5F828380E10E94921A88237A
:1053900059F0E12FF0E0E754F84F8281811102C00B
:1053A00089E101C08150828380E20E94921A8823A1
:1053B00029F0112319F011501093BA0780E40E94CC
:1053C000921A882339F08091BA07823018F48F5FDF
:1053D0008093BA0788E00E94921A882309F45FC07C
:1053E0000091B907F5E00F9F800111246091BB0780
:1053F000C80188559F4F0E948E136091BC07C80159
:1054000087559F4F0E948E136091BD07C801865536
:105410009F4F0E948E138FEF8093B90740C00E9468
:10542000531187FF24C30E94531184FD3CC31FC343
:105430008D3309F02DC31092E10183E884BD17BDBF
:1054400081EF809380001092880010928A0081E0A2
:105450000E949E13809171008D7F80937100109245
:105460001B068DE196E090931A068093190690939F
:1054700018068093170687E194E090931E068093A8
:105480001D0684E690E09093200680931F0680E03E
:1054900090E890932206809321060E94B50F0E9407
:1054A0004B149090FD019B8E192D123019F018307D
:1054B00009F0A2C2E090D1078E2D0E2C000C990BA2
:1054C000AA0BBB0BDC01992788274C015D01BB0CA3
:1054D0008808982C54019C01AD01682D782D882DE9
:1054E000982D00E10E945133F22E032F142FB52F77
:1054F000F62FE72F6C01A0E00E9488337CF4215046
:105500003109484F5F4F6F4F7F4F8F4F9F4FF22EA4
:10551000032F142FB52FF62FE72F6C012F2D302FCF
:10552000412F5B2F6F2F7E2FC60103E10E946A334C
:105530002F8B388F498F5A8F8091D007082E000CFF
:10554000990BAA0BBB0BDC01992788274C015D0145
:10555000BB0C8808982C54019C01AD01682D782D56
:10556000882D982D00E10E945133F22E032F142F25
:10557000B52FF62FE72F6C01A0E00E9488337CF452
:1055800021503109484F5F4F6F4F7F4F8F4F9F4FD3
:10559000F22E032F142FB52FF62FE72F6C012F2D8E
:1055A000302F412F5B2F6F2F7E2FC60103E10E940A
:1055B0006A3329013A01E7FE98C00091C8071091AB
:1055C000C9072091CA073091CB0740916D065091D1
:1055D0006E0660916F06709170064F8F58A369A395
:1055E0007AA3C0907106D0907206E0907306F09096
:1055F00074068090CC079090CD07A090CE07B09015
:10560000CF07A501772757FD7095672FC701BB27E7
:1056100097FDB095AB2FBA01681B790BCB01877052
:105620009927892B09F042C06115710509F4DAC286
:10563000B3E076956795BA95E1F74FEF460FB9015C
:10564000992777FD9095892F6DA37EA38FA398A7A7
:105650000F8D18A129A13AA1C901BB2797FDB095CB
:10566000AB2F8B01081B190B23E0169507952A9584
:10567000E1F7642F802F4CA30E94F11C0E94361387
:105680004CA18111AFC2642F81E0800F0E94F11CF8
:105690000E9436134CA18111A5C2642F82E0800FB5
:1056A0000E94F11C0E94361381119CC28091D30785
:1056B000882339F081508093D307811102C0109262
:1056C000DC071092DD07F7FE63C2811491041CE130
:1056D000A106B1040CF410C2811491040CE1A006DF
:1056E000B10409F414C20CF021C28091D10718163C
:1056F0000CF0A2C02091DC072F8F211102C0E8E03E
:1057000001C0EBE00091C8071091C9072091CA07BA
:105710003091CB0740916D0650916E0660916F06F7
:10572000709170068090710690907206A09073063A
:10573000B09074068B8E9C8EAD8EBE8E8091CC0701
:105740009091CD07A091CE07B091CF07CD01BB2797
:1057500097FDB095AB2F6501FF24D7FCF094EF2C9B
:105760004C018C189D087401EE0EF11CC701877066
:105770009927892BC9F58901332717FD3095232FE8
:10578000AB01772757FD7095672F041B150B809190
:10579000760690917706E816F90609F4F6C2A3E0BA
:1057A000F694E794AA95E1F76801B3E0D694C7941C
:1057B000BA95E1F76E2D8C2D0E94F11C0E943613D4
:1057C0008111E3C26E2D81E08C0D0E94F11C0E94BC
:1057D00036138111DAC26E2D82E08C0D0E94F11C0D
:1057E0000E9436138111D1C28091CC079091CD07D0
:1057F000A091CE07B091CF0700970CE1A007B105AB
:105800000CF056C24F89588D698D7A8D480F591FFB
:105810006A1F7B1F411551050CE1600771050CF0F3
:1058200032C24093CC075093CD076093CE0770935C
:10583000CF0784E18093D3078091D00787FF64C0AE
:1058400080906D0690906E06A0906F06B0907006E6
:105850008091C8079091C907A091CA07B091CB0762
:10586000CD01BB2797FDB095AB2FA501772757FD3D
:105870007095672F841B950BC090CC07D090CD07F7
:10588000E090CE07F090CF074091710650917206DC
:1058900060917306709174069C0127703327232B47
:1058A00009F092C08701332717FD3095232FAB01F4
:1058B000772757FD7095672F041B150BA3E096956E
:1058C0008795AA95E1F7DD24DA94D80E7801B3E044
:1058D000F694E794BA95E1F76E2D8D2D0E94F11C98
:1058E0000E943613811188C007701127012B09F41B
:1058F0006BC061E06E0D8D2D0E94F11C0E9436136D
:10590000882309F461C078C018160CF075C0809027
:105910006D0690906E06A0906F06B0907006809114
:10592000C8079091C907A091CA07B091CB07CD01D4
:1059300041968A199B09C090CC07D090CD07E09082
:10594000CE07F090CF07409171065091720660919A
:105950007306709174069C01277033272730310538
:1059600009F065C38701332717FD3095232FAB015D
:10597000772757FD7095672F041B150B23E096952D
:1059800087952A95E1F7DD24D394D80E780133E08A
:10599000F694E7943A95E1F76E2D8D2D0E94F11C57
:1059A0000E943613811128C007701127012B09F4BA
:1059B0003EC361E06E0D8D2D0E94F11C0E943613D6
:1059C000882309F434C318C08091C8079091C9078F
:1059D000A091CA07B091CB07B7FE0FC3009778E339
:1059E000A707B1050CF4C0C20097E8E3AE07B10504
:1059F00009F4C1C20CF0D4C280E090E0892B11F40C
:105A00000C941E230E9400000C941E230E94BA1BBB
:105A10000C94B02481E08093DC0741CD11967C93F7
:105A20006E9313965C934E9312970C94212597E0F6
:105A3000AF3AB90709F01BC9E0E0F0E020C90E94C5
:105A4000BA1B42C98091D4079091D507009729F0DD
:105A500001979093D5078093D4078091D4079091B4
:105A6000D507892B09F08BCA1092DC0788CA809170
:105A7000E101882369F083E884BD8FEF87BD81EF62
:105A8000809380001092880010928A001092E101A9
:105A900088E00E94921A811122C084E00E94921A2A
:105AA00081111DC0FCCC8091E1018F5F8093E101E9
:105AB000853170F38D3308F0BBCC20E430E0490130
:105AC000881A9108C401880F93E894BD17BD91EF1F
:105AD000909380001092880080938A00D9CF83E849
