:100000000C942A0D0C94520D0C94520D0C94520D1C
:100010000C94520D0C94520D0C94520D0C94520DE4
:100020000C94520D0C94520D0C9459150C94CB1544
:100030000C94520D0C94520D0C94520D0C94520DC4
:100040000C94520D0C94520D0C94520D0C94520DB4
:100050000C94520D0C94520D0C94520D0C943C19AE
:100060000C94520D0C94520D0C94520D0C94520D94
:100070000C94520D0C94520D0C94520D0C94520D84
:100080000C9486190C94520D0C94520D0C94520D34
:100090000C94520D0C94520D0C94520D0C94520D64
:1000A0000C94520D0C94520D0C94520D9C250A2662
:1000B0002A260427112715275C276A276A27E7299C
:1000C000392A3E2AC12A2813261326132613281359
:1000D0002813261328132813261326132813261350
:1000E0002613281328132813526F636B20416E6464
:1000F00020466C7900506861726170732052657699
:10010000656E676500467269656E646C7920496E3C
:1001100076616465720054686520466F7265737419
:1001200000466C6F6174696E672049736C616E6420
:100130007300476F74205370696B65733F0041749F
:100140002054686520426561636800536869707770
:100150007265636B205261727200476F6C64656EEA
:100160002041726368657300556E64657267726FD3
:10017000756E6400D5F08D14A1C881CFD9F1AF2080
:10018000000108FF480BFFFFFF3030FFFFFF00FFBB
:10019000FFFF00F8FEFF0763E3E300FFFFFF3030DF
:1001A000FFFFFF00000000000E1F3FF3E3C000F858
:1001B000FEFF07030300F8FEFF0303FFFEF800FF46
:1001C000FFFF73FFDF0E00FFFFFF333333330707FB
:1001D00007000007070700070707000103070706D6
:1001E00003070007070700000707070000000000DB
:1001F00007060607030100000307070606000003C1
:1002000007060607030000070707000707070007A0
:1002100007070606060618180040000010381000F0
:10022000028040B088F474F408F082878290000065
:100230000000FC02AAFAFA0253FCFCFFFFAA01929A
:10024000B692B692B600FF0000001F20222F2F208A
:1002500025222523252220242524252425100F00AE
:10026000616C6C206C6576656C732100596F75202C
:10027000636F6D706C6574656400000000000000C1
:10028000000000000000000000000000000000006E
:10029000000000000000000000000000000000E876
:1002A000FCFFFFFF7E2E00000000000000000000A9
:1002B000000000000000000000808080E0E0E0809E
:1002C00080808000000000000000000000000000AE
:1002D0000000747EFFFFFF3F3F7F7FFFFFFF3F1760
:1002E000000000000000000000000080808000008E
:1002F000A0F0FCFCFCF8B80000808080000000004A
:1003000000000000747EFFFFFF3F1703030707078D
:100310000100747EFFFFFF3F170000000000000097
:10032000808080000000D0F8FEFEFEFC5C00000033
:10033000808080000000000000747EFFFFFF3F17F8
:10034000000101030303000000747EFFFFFF3F175D
:10035000000000008080800000000000E8FCFFFF3B
:10036000FF7E2E00000000008080800000747EFF71
:10037000FFFF3F1700000000000101010000000026
:1003800000747EFFFFFF3F171B10000000000000FD
:10039000000000000000000000000000000000005D
:1003A000000000000000000000000000000000004D
:1003B0004854FE542400000000000000000000002B
:1003C00000000000000000000000000080C08080ED
:1003D000000000000000000000000000000000001D
:1003E0000000242A7F2A110A1F0A242A7F2A1200C9
:1003F00000000000000000000000000000000000FD
:10040000002050F8509000000000000000000000A4
:100410000000000000242A7F2A12000001010301CD
:10042000000000242A7F2A120000000000000000C3
:100430000000000000000090A8FCA8480000000098
:1004400000000000000000000000242A7F2A1200A3
:1004500000000000010000000000242A7F2A120092
:10046000000000000000000000000000004854FEF2
:100470005424000000000000000000000000242AB6
:100480007F2A1200000000000000000000000000B1
:100490000000242A7F2A1200080818247E42467C85
:1004A000020418247E62667C020418247E72767C24
:1004B000020418247E7E7E7C020468015A014B01EE
:1004C0003E013201210116010501F500E800030596
:1004D0001F111F001F001D151711151F07041F17DF
:1004E000151D1F151D01011F1F151F17151F0808BA
:1004F00000000000000000000D9F2D970D9F2D971C
:1005000040404040404040402804044848040428FB
:1005100040404F09ED094F40050205020502050262
:10052000A54299B5A59942A55A8739D6D639875A91
:100530005A8739D6D639875A825A9A42985A9A583F
:10054000405040604050406018247E426A7C020463
:10055000EEDD9D71EFDE9D7BFA3F001FFA1F003F2D
:100560005FFC00F85FF800FC3C4299A5AD99423C65
:10057000000055AA550000003C42A58991A5423CC7
:10058000802AFAFA0202020202FAFAFAFAFA0202DD
:10059000020202FAFAFAFAFA0202020202FAFAFA7B
:1005A000FAFA000000E0F8F8FC9C1C1C1C38000063
:1005B00000FCFCFCFC1C1C1CFCFCF8F00000C0FC5B
:1005C000FC7CFCFCC000000080E0F0F8783C1C1CC7
:1005D0001C3C0000FCFCFCFC1C1C1C1C1C1C00002B
:1005E00000FAFAFAFAFA0202020202FAFAFAFAFA3D
:1005F0000202020202FAFAFAFAFA0202020202FA0B
:10060000FAFAE0E01F1F1F1F1FE0E0E0E0E01F1FFD
:100610001F1F1FE0E0E0E0E01F1F1F1F1FE0E0E0E2
:10062000E0E0000000808103070F9EFEFCF8F00070
:1006300000FFFFFFFF0E0E0F0F070701E0FCFFFF9B
:10064000EFE0EFFFFFFEE0003FFFFFFFC080000094
:1006500000800000FFFFFFFF0E0E0E0E0E0E0000CA
:1006600000E0E0E0E0E01F1F1F1F1FE0E0E0E0E02F
:100670001F1F1F1F1FE0E0E0E0E01F1F1F1F1FE004
:10068000E0E00B0B08080808080B0B0B0B0B080825
:100690000808080B0B0B0B0B08080808080B0B0BC2
:1006A0000B0B004020432747A747A747A3410080E3
:1006B00040A747A7070000000000002647A7470102
:1006C0004000400147A7472600004123472747270E
:1006D00047274000072747A747A747274727400046
:1006E000000B0B0B0B0B08080808080B0B0B0B0B74
:1006F00008080808080B0B0B0B0B08080808080B68
:100700000B0B0000000000000000000000000000D3
:1007100000000000000000000000000000000004D5
:100720000A050A050805080500000000040A050A74
:10073000E5FAFDFE1E0F0707070F00000002F0FF9D
:10074000FF1FFFFFF082000000FFFFFFFF87C7FFD2
:10075000FF7E3C00040800000102050A05080508A8
:100760000508040804080000000000000000000064
:100770000000000000000000000000000000000079
:100780000000000000000000000000000000000069
:100790000000000000000000000000000000000059
:1007A0000000000000000000000000000000000049
:1007B0000F3565DFB060404040E00080780F854F26
:1007C0002B282B4F850F788000FF05057F4343655D
:1007D0001F86E63C00000000000000000000000052
:1007E0000000000000000000000000000000000009
:1007F00000000000000000000000000000000000F9
:1008000000000000000000000000000000000000E8
:1008100000000000000000000000000000000000D8
:1008200000000000000000000000000000000000C8
:1008300000000000010101010101000101010100AE
:10084000000000000101010100010101010101019D
:100850000100000000000000000000000000000097
:100860000000000000000000000000000000000088
:100870000000000000000000000000000000000078
:100880000000461E000828A8A28E3EFEFEFEF8C00C
:100890000000FEFEFEFEFEAE16EE30FA6C787878B2
:1008A0006CFA30E00000000000000C70C03C00C09A
:1008B00020C000F020C020C000E020C000D000E038
:1008C0004000E800C0200060A00000000000020A14
:1008D0002A28A38F1F7FFEF0FFFFFFFFFFFE05C04A
:1008E000E0F0F9198C291D18FA3C8F23080200004A
:1008F000006091E000F021E100E1A0F900010003B7
:1009000001000001000100000100000100010100E0
:10091000000000000000000000020A28A1871F7FDD
:10092000FFFF7F0100C7CFCF8F8C8AC87880A000DF
:1009300000000000000000F84808A800F800E040AF
:100940008040800080408010F8108040C00000008F
:100950000000000000000000000000000000000097
:10096000000000020A08010300000607030B01054E
:100970000002000000000000000000000003000072
:100980000300030003000300030001020100030051
:1009900001020200000000000000000053434F521B
:1009A000453A004B0D00F0FCFE0EC6C6C6000080A6
:1009B000F8FE0EFEF8800000FEFEFE7CE07CFEFEEF
:1009C000FE00FEFEFE666666660000000000F0FCAB
:1009D000FE0606FEFCF0023EFEF800F8FE3E0200B7
:1009E000FEFEFE6666666600FEFEFEE6FEBE1C00BD
:1009F0000003070F0E0C070F000C0F0F0303030F6C
:100A00000F0C000F0F0F0003000F0F0F000F0F0F41
:100A10000C0C0C0C000000000001070F0C0C0F0761
:100A2000010000030F0F0F010000000F0F0F0C0C4F
:100A30000C0C000F0F0F000F0F0E000808FFFFFF38
:100A4000FFFFFFFFFF00010000EC006100B500B5F3
:100A5000006100EC00000000019FFFEC004BFFB5BF
:100A60000014FF610000FF000014FF9FFF4BFF4BCD
:100A7000FF9FFF14FF000000FF610014FFB5004B53
:100A8000FFEC009FFF04083E09093E3F25251A1E82
:100A90002121123F21211E3F2525213F0505011E51
:100AA00021293A3F04043F213F21001021211F3F0B
:100AB000040A313F2020203F02023F3F02043F1E34
:100AC00021211E3F0909061E21112E3F0909362248
:100AD000252519013F01011F20201F0F10201F3F56
:100AE00010103F3B04043B03043807312D23211031
:100AF0002A2A3C3F2424181C2222141824243F1C98
:100B00002A2A2C043E05014C52523E3F040438244C
:100B10003D20004040443D3F081422213F20003E3C
:100B200004043E3E04023C1C22221C7E22221C1C89
:100B300022227E3E040204242A2A12021F22201EA0
:100B400020201E0E10201E3E10103E360808364E85
:100B500050503E322A26221E29251E223F200032D6
:100B60002929261221251A0C0A3F08172525191EA6
:100B7000252518013905031A25251A0629291E00DD
:100B80002F000000200000022905020004040001DB
:100B900002040810204080080B0002020201000934
:100BA00004000001020200000524001001052401D8
:100BB0000101042402060524060001070581031033
:100BC000004009040100020A00000007050202407B
:100BD000000007058302400000040309041201001D
:100BE00002EF02014041233680000101020301416E
:100BF000726475696E6F204C4C4300417264756974
:100C00006E6F204C656F6E6172646F00060D0B0590
:100C10001B0D1D070103020D070D1A0D1F0D01030A
:100C2000020D19071B0D040A0609100A1E0501070B
:100C3000120410081C030103020209091A031A0C0A
:100C4000040B0C071005100B010C10081B081F0DDE
:100C5000040302090C0D1903180A1E0D03060C06E5
:100C6000050D0C051A0D1C070003010D060D1B0DCB
:100C7000200D0203010D1A071C0D030A0709110AB2
:100C80001D05000711040F081D03020301020809D6
:100C90001903190C030B0B070F050F0B000C0F08A2
:100CA0001A081E0D030301090B0D1803170A1D0D69
:100CB00004060B0674FEFCFEFFFFFFFFFFFEFCFCBC
:100CC000FCFCF8F0600000020707070200000000CB
:100CD00000020707070260F0F8FCFCFCFCFEFFFFC7
:100CE000FFFFFFFEFCFE7402070707020000000082
:100CF000000207070702000074FEFCFEFFFFFFFF73
:100D0000FFFEFCFCFCFCF8F06060F0F8FCFCFCFC76
:100D1000FEFFFFFFFFFFFEFCFE740000000ECEFE94
:100D2000F8F8F8F8F8F8F8F0F0E7E7E7FCFC7C7082
:100D30007000000000000E0EEEE1EF0F7F7F7F0FCE
:100D40000F0F1F1F1F1FDFDFDF1F1E1C0000000013
:100D50000000000000000000000000000000000093
:100D60000001010100000000000000000000007010
:100D7000707CFCFCE7E7E7F0F0F8F8F8F8F8F8F832
:100D8000FECE0E000000000000001C1E1FDFDFDF93
:100D90001F1F1F1F0F0F0F7F7F7F0FEFE1EE0E0E44
:100DA0000000000000000000010101000000000040
:100DB000000000000000000000000000000007E745
:100DC000F7FCFCFCFCF8F8F8E0E7F7FFFCFCA00EF1
:100DD0008EBEF8F8E0000000EEEEEF8F8F7F7FFF11
:100DE000EFEF0F07071D1F1FFFF8FC1F3F3F3C00E1
:100DF00000000000000303030000000000000000EA
:100E0000000000010101000000000000000000E0FF
:100E1000F8F8BE8E0EA0FCFCFFF7E7E0F8F8F8FC4F
:100E2000FCFCFCF7E70700000000003C3F3F1FFC14
:100E3000F8FF1F1F1D07070FEFEFFF7F7F8F8FEF5B
:100E4000EEEE0000000000000000010101000000C3
:100E50000000000000000000030303000000000089
:100E6000E0F8F8BE8E8EE0FCFCFFC7F770F0D0F023
:100E7000F83CFEFEF7E3031C1C000000787F7F3F78
:100E8000F1F1C70E0F0F7F76778F8FEFEEEE8E802A
:100E9000EEEEEE0000000000000000010101000085
:100EA0000000000003030300000303030000000030
:100EB00000E0E7E70700000E0E0E0707070000003E
:100EC0000E0E0E00707077071F1C003838380ECEDB
:100ED000CEC0000000808080000000808080000084
:100EE00000EEEEEE00000000000001010100000035
:100EF00003030300000003030303030300000000D7
:100F0000110B0074186C1EDE1272767C186818D8EB
:100F1000106000000000020302000000000000005A
:100F200002030200006010D81868187C767212DE86
:100F30001E6C187400000203020000000000000094
:100F400002030200000011080074186C1E5E127289
:100F5000767C1868185810600000601058186818DF
:100F60007C7672125E1E6C1874001B12000000006A
:100F70000480C070F0F090002060C080A2E0A00863
:100F800000200000000000000004004000040026D3
:100F90000004000707000E020C820A020C00000089
:100FA0000000000000000000000000000000000041
:100FB0000000000000000000000000000000000031
:100FC0000000200008A0E0A280C060200090F0F0A7
:100FD00070C080040000000000000000000C020A45
:100FE000820C020E000707000400260004004000E7
:100FF00004000000000000000000000000000000ED
:1010000000000000000000000000000000001B12B3
:10101000000000024060387800F090002060C2803C
:10102000A8E0A00004001040000000000044000000
:10103000000420064004000707000E020098041474
:101040000518000000000000000001000000000082
:101050000000000000000000000000000000000090
:10106000000000004010000400A0E0A880C2602042
:101070000090F0007838604002000000000000009E
:10108000180514049800020E00070700044006200B
:101090000400000044000000000000000000000008
:1010A000000000000000000000000000000100003F
:1010B00000001B120800000140600C1800B09000F6
:1010C000200082002860A000040010400000000002
:1010D000004400000004400600040022060006024E
:1010E0000080200009300000000000000000010026
:1010F00000000001000000000000000000000000EF
:1011000000000000001B1208000200200000000484
:101110000000000000020000040000000002400087
:10112000000000004400000000000000000000007B
:10113000000000000000800400001000000000001B
:10114000000002000001000000000001000000009B
:101150000000000000000000240F00F8FCFEFEFE6E
:10116000FE1EEEEE1EFE1EFEFE1EFE3EDEDEBEFE7F
:101170000EBEBE7EFEFE0EFEFEFEFEFCF80000036E
:10118000070F0F3F1F0E0D0F0E0F0E0D0D0E0F0E42
:101190000D0D0E0F0C0F0F0C0F0F0D0F0F0F0F0774
:1011A000030004083E09093E3F25251A1E2121128D
:1011B0003F21211E3F2525213F0505011E21293AFA
:1011C0003F04043F213F21001021211F3F040A3129
:1011D0003F2020203F02023F3F02043F1E21211EEC
:1011E0003F0909061E21112E3F090936222525191E
:1011F000013F01011F20201F0F10201F3F10103F33
:101200003B04043B03043807312D2321102A2A3CD8
:101210003F2424181C2222141824243F1C2A2A2C80
:10122000043E05014C52523E3F040438243D200048
:101230004040443D3F081422213F20003E04043E2C
:101240003E04023C1C22221C7E22221C1C22227EE6
:101250003E040204242A2A12021F22201E20201EDD
:101260000E10201E3E10103E360808364E50503EDE
:10127000322A26221E29251E223F20003229292615
:101280001221251A0C0A3F08172525191E25251895
:10129000013905031A25251A0629291E002F0000E9
:1012A000002000000229050200040400240F00F8B9
:1012B000FCFE1EEE6E5EFE3EDEDE3EFEFEDE0EDE60
:1012C000FE3EDEDE3EFEFEFEFEFEFEFEFE0EFEFCF0
:1012D000F8000003070F0E3D1D0C0F0E0D0D0E0F35
:1012E0000F0F0E0D0F0E0D0D0E0F0F0F0F0F0F0F17
:1012F0000F0D0F070300F8FCFEFFFFFFFFFFFFFFCE
:10130000FFFFFFFFFFFFFFFFFFFFFFFFFFFFFFFFED
:10131000FFFFFFFFFFFFFFFEFCF803070F1F3F7FEC
:101320003F1F1F1F1F1F1F1F1F1F1F1F1F1F1F1FAD
:101330001F1F1F1F1F1F1F1F1F1F1F0F0703240F0C
:1013400000F8FCDE0EDEFE3EDEDE3EFEFEFE1EEEA3
:101350006E5EFEFE5E5E3EFEDE0EDEFEFE3E5E5E0D
:101360003EFCF8000003070F0E3D1F0E0D0D0E0F83
:101370000F0F0E0D0D0C0F0E0D0D0C0F0F0E0D0D92
:101380000F0E0D0D0D0703000002070E07020000EF
:101390000002070E07020000000000020702000022
:1013A0000000000207020000000011040000020417
:1013B0000200000000000204020000000000000023
:1013C0000200000000000000020000000000000019
:1013D0000002070E070200000002070E07020000CD
:1013E00000000002070200000000000207020000E7
:1013F00011040000000002040200000000000204CA
:1014000002000000000000000200000000000000D8
:10141000020000008F8E5483D48109813A820482B5
:10142000D10F8C04820F0B82048205A10F0B820462
:10143000A181A10341A30F02A182048303140F021F
:10144000830483038409A541A283A10482A102D459
:1014500003A105188405820981058C05820981058F
:10146000D7850582610881A10C8405826121B121A3
:1014700005820C84A4418264A582A741A38F8F8733
:10148000006F556E0F0F0F0F08A141A6078506A626
:10149000B1A117810681058105811787068102C1E7
:1014A00001C102810588055106F101C201C2018115
:1014B000055104830551068101C201C20181055114
:1014C00005820551068102C101C1028105510582D3
:1014D00004850481058104840482048108810181DA
:1014E00001810181078104820481088101810181D8
:1014F0000181078104820481088707810482A14158
:10150000A28121412F23412181A241A18F8F8500FA
:101510006F536F620F076C0F086B412505C105C142
:101520000B6B06C103C10E63D605C70E620AC2016A
:10153000C301C20D6209CB044124036221B121061B
:10154000C101C701C104650365036102C101C10591
:10155000C101C10461D40362D3036105C201C207A2
:1015600061076206610F0162076206620D6407622D
:10157000214124632B652141256F6F650069546FFC
:10158000660F0F01A10F0F02A18107A109A10E1182
:1015900081A205110981A10E81120581A207811185
:1015A00009A4418105A2811205A281A30715810525
:1015B0001281071281130C81078109810F81A20515
:1015C0008141A302A3810CA1B1A1811201A3418198
:1015D0001402138141A40713810314810981150AA0
:1015E00081078109810F8102A581A981AF81A26F45
:1015F0006F640061546F6F04610F0DD104D10F0F40
:101600000F07A441A30EC12541C104180DCA0486C9
:101610000F0E8404A141A30F0E1506A541A40D844D
:10162000078A0D83098806A1B1A2048101810A817C
:1016300004810714048131813A81348137843481F3
:1016400001810A810481078102810481E181EA81AB
:10165000E481E781E281E4006F546F610862D36145
:101660000461DA65096103D104D10AD1644124041B
:10167000610F056904620F04640963096306640964
:101680006437660563086F6404630367D96804639D
:101690000F056605630F0F640EB10E65E96A096FE9
:1016A0006BE76F6F6A006F546F0F0F052141230FB7
:1016B0000EC50F25412108C30F0182650F0CD28191
:1016C0006409210F04D181630981210F0482620A18
:1016D00081210F0381D1820B81234125098101D210
:1016E0000C8909810F810681018207810D228126E3
:1016F00081238124B121812141230434CFCB34E4DF
:10170000CFCBE4008F8F53810F0F0F0F09240F0FE2
:101710006409810F0F03812141220F0E850522B13B
:10172000210F23412181D405640F860F0DD5810F30
:101730000F03810F04812341298121412A81063130
:10174000819C819B8137028F8908E38F87E9006F35
:10175000546901C101C101610F0DC101C101C10F76
:101760000EC101C101C10CB10FC105C102C101C14E
:1017700005630D21C125C101C101C101C10F05686A
:1017800001C101C101C10F0DC105C10F0CC125C1AE
:1017900021072141220721412668076407680F0FAE
:1017A00003610F0F03612141260F0A69AFA3254191
:1017B00021691F1368006F536F610F0F0F0F08A48B
:1017C00041AA03A741A203A31F031A33138F038F58
:1017D00082045103850586088204510483F10F04B5
:1017E00082045104840DA20482A141A28105820ECB
:1017F000820487A10BA103A241A28204880B81036A
:101800008704880B8101B101870488A541A5816304
:1018100087A141A28F85638C005F510F0F0F0F0FBF
:101820000841A84103338A33008008FF0301B1A9AE
:10183000FDA96901A10101010101010101010101EC
:101840000101010101010101010101010101010188
:1018500001010183EF83013149FD85D5F9050901B6
:10186000A1010101010101010101010101010101C8
:101870000101010183EF830101D161B179C9C9D1AE
:1018800061A161C101A10101010101010101018306
:10189000EF83010111C93DC90501A1010101010148
:1018A00001010101010101010103FF100800000015
:1018B000001C2DC80000000206090000220F9DFF39
:1018C00000003815C8000310060F11F401220F00A4
:1018D00000C8FF1825C800040C040F120000220FD6
:1018E00095FFC8FF381DC800040A041E200000220E
:1018F0000FDCFFD7FF381CC800030C040F120000D8
:10190000220F000000001D15C8000010010F12007A
:1019100000220FD9FFDFFF381CC8000408040104AF
:101920000000220F70FFC8FF3B2DC80005100409FE
:101930000C0000220FC6FFFFFF381CC8000408047B
:101940000F110000220FB5FF0000380DC80001067E
:10195000050F110000220F74FFE7FF381CC80005B7
:1019600010041D20000005050505050505050007F7
:101970000707077F7F7F0000000000FFFFFF00F0E8
:10198000F0F0F0FFFFFFF0F0F0F0F0F0F0F0FFFF0C
:10199000FFF0F0F0F000FFFFFF00000000007F7F8D
:1019A0007F07070707000808000101010101010086
:1019B000000000010101011F000000000000007E86
:1019C000000000404040407C00404040404040001B
:1019D0007C404040400000007E000000000000000D
:1019E0001F0101010100000040EC7E7FFE68000045
:1019F0000C7EFF7E0000070800402C1E68000000DF
:101A0000000C7E0000000068FE7F7EEC4000007E3F
:101A1000FF7E0C0007080000681E2C40000000003C
:101A20007E0C0000087CFE7FFE6702087CFE7FFEC5
:101A30006E0407080008641E6402000008641E6447
:101A40000400E0F0E0E0F0E0E00708402040406003
:101A50004040063411241FBECFEFDAE0DEBFCDBF19
:101A600011E0A0E0B1E0EEE0FDE602C005900D92CD
:101A7000A439B107D9F728E0A4E9B1E001C01D926B
:101A8000AE30B207E1F71DE0CAE2DDE004C0219705
:101A9000FE010E943736C932D107C9F70E94E723F9
:101AA0000C9485360C9400006F927F928F929F92D7
:101AB000AF92BF92CF92DF92EF92FF920F931F935C
:101AC000CF93DF9300D000D0CDB7DEB73A014115F8
:101AD000510509F401C2FA01F49031965491F2E0F3
:101AE0006F0E711CAF2CB12C211102C0EE2069F1D8
:101AF000A52FA695A695A695B0E0E1E0F0E0352FDC
:101B0000377011F4E0E0F0E0AE0FBF1FAA9EF001C5
:101B1000AB9EF00DBA9EF00D1124A3E08A2EC810E2
:101B200003C0EE0FFF1F0AC00115110539F0EE9E2C
:101B3000D001EF9EB00D11240A0F1B1F2E9FD00164
:101B40002F9FB00D11246A0E7B1E2FEFC21208C00A
:101B50000115110519F0CC24C39402C032E0C32E44
:101B6000DC01AA0DBB1D1A161B060CF0B5C180388E
:101B700091050CF0B1C19B01250F311D1216130602
:101B80000CF0AAC1603471050CF0A6C16114710497
:101B900009F4A2C1362F3770932EFB0177FD3796DB
:101BA00023E0F595E7952A95E1F72E2F77FF04C0FE
:101BB000992011F02FEF2E0F97FF05C0EE27FF277A
:101BC000E81BF90B02C0E0E0F0E0A038B1051CF022
:101BD00030E8381B01C03F2D3E1B622F022E000C47
:101BE000770B2F3F1CF4462F409501C040E0B1E039
:101BF000A52FA77009F4B0E0569556955695DB2EA3
:101C0000D50E6D0D711D693071051CF058E0D52E93
:101C1000D21AD41A240FDC0150E82503A00DB11DFF
:101C20001124AE0FBF1F4F9DE00DF11D1124A30124
:101C30004E0F5F1F81E090E07C01092C02C0EE0C8A
:101C4000FF1C0A94E2F783E0C81609F404C18C155E
:101C5000A8F091E0C91609F4B5C0E2E0CE123CC18B
:101C60008FEF8E9DB0018F9D700D11246095709542
:101C70007C836B837C806D2C620E2BC0FAEFCF16B9
:101C800031F09BEF892EC81027C1D20E87C0D20E2B
:101C900051C0FA01E00FF11FE491EE9D6001EF9D4C
:101CA000D00C1124DA82C98227FD07C0FC01D08044
:101CB000ED2DE623CE2AFC01C082911013C00F5FE8
:101CC0001F4F0196031728F32F5F4A0D5B1DA05885
:101CD000BF4F261509F400C1CD0187549E4F00E087
:101CE00010E0F0CF27305CF7FC01E058FF4FC080D8
:101CF000C7208A80C828C082E2CFFA01E60FF71F0A
:101D0000E491EE9D8001EF9D100D11241A8309834B
:101D100027FD04C0FC011081012B0083911013C02A
:101D20006F5F7F4F0196631740F32F5F4A0D5B1D76
:101D3000A058BF4F2D1509F4CFC0CD0187549E4F39
:101D400060E070E0F0CF27305CF78C0100581F4F47
:101D5000F801C080FA81CF2AF801C082E1CFFA01F0
:101D6000E00FF11FE491EE9DC001EF9D900D112455
:101D70009A83898327FD05C08095FB019081892383
:101D80008083911014C00F5F1F4F6F5F7F4F031749
:101D900030F32F5F4A0D5B1DA058BF4F2D1509F47E
:101DA0009BC0BD0167547E4F00E010E0F0CF2730AC
:101DB00054F7FB01E058FF4F8A8180959081892379
:101DC0008083E1CF0E0F1F1F8D2C820E281509F482
:101DD00083C0CD0187549E4F6C0160E070E06317B3
:101DE00090F5F801E60FF71FE491EE9DC001EF9D1D
:101DF000900D1124809590959C838B83FA01E60FBA
:101E0000F71FE491EE9D3001EF9D700C11247A8252
:101E1000698227FD05C0F60190818923682A6082C6
:101E2000992059F027304CF4F601E058FF4F90818B
:101E30008C8189239A81892B80836F5F7F4FFFEF8D
:101E4000CF1ADF0ACCCF2F5F4A0D5B1D0A0D1B1D79
:101E5000A058BF4FBBCF832F90E0E40FF51FA754CE
:101E6000BE4F60E870E0681B790BA81AB90A8501BB
:101E7000000F111F5D2D832ECF93DF93ED01EF96A1
:101E8000EF962296A590C590992059F0AE9C5001EE
:101E9000CE9C600127302CF4F880D094FD20FB28E4
:101EA000F99222233AF0FC90C094FC20FA28FD928B
:101EB0000C945B0F11963A9529F75A9551F0382DED
:101EC00023951124E00FF11DA60FB11DC60FD11DE2
:101ED000D9CFDF91CF9111240F900F900F900F90D9
:101EE000DF91CF911F910F91FF90EF90DF90CF90F6
:101EF000BF90AF909F908F907F906F90089580914A
:101F0000970108950895089580E090E00895CF9294
:101F1000DF92EF92FF920F931F93CF93DF930E9474
:101F2000E619811520E8920761F4809171008D7F98
:101F30008093710010929100469847981092A801E2
:101F40008BC021E02093A801813020E8920751F452
:101F50008091C5059091C6059093C8058093C705EB
:101F60000E94E61997FD05C02091A701222309F4DC
:101F70003FC02091A60121113BC021E02093A9017F
:101F8000EC01DF77209769F481E08093AA014698FD
:101F90003FE9C32E3FE0D32EE12CF12CCAEFD0E075
:101FA00014C08E0120E030E060E472E48FE090E045
:101FB000A90198010E94A03569017A0181E0C81A3F
:101FC000D108E108F1081092AA01E0912A06F091E7
:101FD0002B060995811103C081E08093AA018091AD
:101FE000A9018823B9F18091AA01811133C003C0EE
:101FF0001092A901C5CF46992DC0479A0E94E619B3
:10200000009771F09C01DE010E94F435DC01CB01E8
:1020100029E0B595A795979587952A95D1F703C09F
:102020008FEF9FEFDC01109290002AE02093910047
:10203000D0929900C09298008093AB019093AC012C
:10204000A093AD01B093AE01809171008260809346
:10205000710002C04798D2CFDF91CF911F910F91AD
:10206000FF90EF90DF90CF900895CF92EF920F9373
:102070001F933BEFC32EE12C00E010E00E94540DB3
:102080001F910F91EF90CF900895CF92EF920F9301
:102090001F93CF93DF93FC0196816A3031F48581E1
:1020A00084836185960F968342C0262FEF01848139
:1020B00061E0690F2F33A1F164F42E32A1F01CF41A
:1020C0002132A9F027C090ED920F9A3018F52C5FBD
:1020D0000FC02134FCF02B3544F09FE9920F9A3168
:1020E000C8F4275405C02FE303C0215401C02EE3D8
:1020F0003F81062E000C770B082E000C990B313017
:1021000089F43AEFC32EE12C00E010E045E85AE0F4
:102110000E94540D88858C5F9C81890F8C8307C039
:1021200020E4E6CF45E85AE00E943510F3CF81E085
:1021300090E0DF91CF911F910F91EF90CF90089594
:10214000CF92EF920F931F9332E0C32EE12C00E069
:1021500010E00E94540D1F910F91EF90CF900895C1
:10216000CF92EF920F931F93F901202FCC24C394A9
:102170008F010E94540D1F910F91EF90CF90089501
:10218000BC0180E090E00C947D188FB18095807F39
:10219000669B88601C9B84600895FC01840F911DE0
:1021A00018161906E4F5E038F105CCF5F7FF02C082
:1021B000E0E0F0E08138910514F080E890E0382FFD
:1021C0003E1BAB0177FF02C0495F5F4F83E055952F
:1021D00047958A95E1F75695542F4427579547958B
:1021E000E40FF51FE754FE4F6770772781E090E01A
:1021F00001C0880F6A95EAF7482F222349F0213061
:1022000071F4315020F08081842B8193FACF0895AE
:102210008095315020F0908198239193FACF0895C2
:1022200060387105D0F440345105B8F4EFE8FBE0B4
:1022300080E1849FD001A0781124A60F4770E40F9D
:10224000F11D8491A754BE4F222319F06C91862B67
:1022500003C080956C9186238C930895FC01908136
:10226000992359F01CF49C3F34F40895913041F0C7
:10227000993044F00895990F06C08FEF8083089538
:1022800010820895959590830895FC0190819F3F59
:1022900069F01CF4983F34F40895992349F095307F
:1022A00054F0089597FD9F5F959506C0108208959C
:1022B00081E080830895990F90830895CF93DF93F1
:1022C000CCE2D6E04B81042E000C550B6981062E22
:1022D000000C770B21E084EF97E00E941011249608
:1022E00086E0CC36D80771F7DF91CF9108950F9330
:1022F0001F93CF93DF9385E49AE0ACE2B6E0C0E0B1
:10230000D0E460E070E2FC01459154912D913C9144
:102310001197420F531F11965C934E93FC01329616
:102320000591149112962D913C911397200F311F16
:1023300013963C932E93129757FD0DC037FD0BC09B
:102340000496149626E0AC36B207E9F6DF91CF91F9
:102350001F910F9108951196DC93CE9313967C9361
:102360006E931297EDCFECE2F6E020E030E480E0EF
:1023700090E23183208393838283349646E0EC3667
:10238000F407B9F781E080939C0108958F929F92A2
:10239000BF92CF92DF92EF92FF920F931F93CF9352
:1023A000DF931F92CDB7DEB7E82E21E040E860E072
:1023B00070E080E090E00E94CD108090A4019090A9
:1023C000A5018401F12C0038110514F584E0C82E14
:1023D000D12C30E08F2D8170B82E932F9170B110D9
:1023E00002C019F00BC0992349F020E04BE35AE0FA
:1023F000B601C80139830E94A01039813F5F88E08F
:10240000C80ED11C373049F7F394085F1F4FDBCF5C
:1024100021E040E86FE370E080E090E00E94CD10A2
:102420008091F70780FD1FC0EE2069F081E0881AD7
:10243000910881E888168FEF980654F41092A50150
:102440001092A40110C08FEF881A980A97FE05C059
:102450009092A5018092A40106C080E89FEF90931E
:10246000A5018093A4010F90DF91CF911F910F914F
:10247000FF90EF90DF90CF90BF909F908F90089546
:10248000EF92FF920F931F93CF93DF9300D000D072
:102490001F92CDB7DEB781E00E94C61100E02FE1A8
:1024A00040E860E170E080E090E00E94EB1D40E0D9
:1024B0006DE070E08DE090E00E94532240E06FE01C
:1024C00070E08FE090E00E94532241E061E170E013
:1024D00081E190E00E94532241E06DE270E08DE2E4
:1024E00090E00E94532240E06FE270E08FE290E0C3
:1024F0000E94532240E061E370E081E390E00E949B
:10250000532220E043EA59E064E170E089E190E081
:102510000E94A01084E28093D7078093D60783E2BD
:102520008093D8076CE979E082ED97E00E94FB1771
:102530008091EA079091EB078E010F5F1F4FF80122
:102540002AE0E22EF12C25E0200FB7010E940F3681
:102550008193CB012E13F9CF7E0186E0E80EF11CAA
:10256000F70142917F0150E060E070E02AE082EDE7
:1025700097E00E943418E016F10691F788E00E9477
:10258000251A811105C084E00E94251A882319F0BC
:102590008BE08093CB050F900F900F900F900F90D2
:1025A000DF91CF911F910F91FF90EF9008950F93BE
:1025B0001F93CF93DF93CDB7DEB72A970FB6F8946A
:1025C000DEBF0FBECDBF95E0899F80011124C801F9
:1025D00088559F4F0E948A35282FC80187559F4FE5
:1025E0002A870E948A35382FC80186559F4F398720
:1025F0000E948A35482F1F821E82C80185559F4F31
:1026000048870E948A358E83C80184559F4F0E9457
:102610008A355E81682F2A853985488570E080E09B
:1026200090E02A960FB6F894DEBF0FBECDBFDF91C3
:10263000CF911F910F91089590E0FC013197E13106
:10264000F10520F4ED59FF4F0C94373680E00895E2
:1026500081E00895EF92FF920F931F93CF93DF9342
:102660001F92CDB7DEB77C01FC0100811181C8014A
:1026700069830E948A356981681719F0C8010E9430
:102680009235C7010F90DF91CF911F910F91FF906D
:10269000EF900895EF92FF920F931F93CF93DF93E4
:1026A00000D0CDB7DEB78C017B01FB0160819A833E
:1026B0008983CE0101960E942A13F70161810F5F81
:1026C0001F4F1A830983CE0101960E942A13C70166
:1026D0000F900F90DF91CF911F910F91FF90EF908E
:1026E0000895CF93DF9300D0CDB7DEB79A83898367
:1026F000CE0101960E942A130F900F90DF91CF9187
:1027000008950F931F93CF93DF9300D0CDB7DEB71B
:10271000082F86EA90E00E948A35182F87EA90E019
:102720000E948A35011104C0133511F4833479F104
:102730008AE090E09A83898363E586EA90E00E94CC
:10274000711363E487EA90E00E94711308EA10E0D5
:1027500060E0C8010E94711360E0C80101960E9408
:10276000711360E0C80102960E947113BE016F5F91
:102770007F4FC80103960E944A1389819A8102976C
:102780009A8389830B5F1F4F013C110509F70F9056
:102790000F90DF91CF911F910F9108954091B60155
:1027A0005091B7012091B4013091B5014217530700
:1027B000B4F49091E8009570E1F39091E80092FDF7
:1027C00019C08093F1008091B6019091B7010196F4
:1027D0008F739927892B19F48EEF8093E8008091ED
:1027E000B6019091B70101969093B7018093B6011D
:1027F00081E0089580E00895DF92EF92FF920F93B9
:102800001F93CF93DF93D82E8A017B01E40EF51E30
:10281000EB01CE15DF0571F0D7FE03C0FE018491F8
:1028200001C088810E94CE1321968111F2CF8FEFD3
:102830009FEF01C0C801DF91CF911F910F91FF90D1
:10284000EF90DF900895615030F02091F100FC018D
:1028500020830196F8CF289884E68093FF07089597
:10286000CF92DF92EF92FF920F931F93CF93DF935C
:102870006C017A018B01C0E0D0E0CE15DF0589F054
:10288000D8016D918D01D601ED91FC910190F081FF
:10289000E02DC6010995892B11F47E0102C0219615
:1028A000ECCFC701DF91CF911F910F91FF90EF9077
:1028B000DF90CF900895CF93DF931F92CDB7DEB70F
:1028C0006983DC01ED91FC910280F381E02D41E010
:1028D00050E0BE016F5F7F4F09950F90DF91CF9160
:1028E000089583E08093E9008091F200882319F035
:1028F0008AE38093E8000895FC018485958597FD1F
:102900000BC09FB7F89482E08093E9008091F200B9
:102910009FBF90E0019608959FB7F89482E080935E
:10292000E9008091F2009FBF90E008953FB7F894CE
:102930008091B0019091B101A091B201B091B30129
:1029400026B5A89B05C02F3F19F00196A11DB11D0A
:102950003FBFBA2FA92F982F8827820F911DA11D45
:10296000B11DBC01CD0142E0660F771F881F991F82
:102970004A95D1F708950E9480360F931F93CF9305
:10298000DF931F92CDB7DEB782E0898342E450E047
:1029900067E97BE080E80E94FC130E94D323DC01FE
:1029A00012960D911C9113970115110569F0D8012C
:1029B000ED91FC910280F381E02DBE016F5F7F4FAE
:1029C000C801099597FF07C089810F90DF91CF91CA
:1029D0001F910F910895F80100851185E5CF0E94A0
:1029E000C22390E008950F931F93CF93DF931F921C
:1029F000CDB7DEB78C01FC018485958597FF0EC0AD
:102A0000CE0101960E949823019719F4298130E0A4
:102A100002C02FEF3FEFF80135872487F801848546
:102A200095850F90DF91CF911F910F910895CF93CE
:102A3000DF931F92CDB7DEB7FC018485958597FDA6
:102A400005C02FEF3FEF358724870BC0CE010196DD
:102A50000E949823019719F4898190E002C08FEFBA
:102A60009FEF0F90DF91CF910895CF93DF9300D028
:102A700000D0CDB7DEB7611571058105910579F0FC
:102A80009B01AC0169833A834B835C830E9473355D
:102A900029813A814B815C810E94A03503C060E0AE
:102AA00070E0CB010F900F900F900F90DF91CF91BE
:102AB00008951F920F920FB60F9211248F939F9338
:102AC0008091E1009091E100937F9093E10083FF7A
:102AD0000FC01092E90091E09093EB001092EC008F
:102AE00092E39093ED001092000898E09093F0002C
:102AF00082FF20C093E09093E9009091F200992327
:102B000019F09AE39093E8009091B801992339F075
:102B10009091B80191509093B801992389F19091C7
:102B2000FF07992339F09091FF0791509093FF0789
:102B3000992341F184FF10C08091E2008E7E816074
:102B40008093E2008091E1008F7E8093E10080918C
:102B500095018E7E806111C080FF16C08091E200D9
:102B60008E7E80618093E2008091E1008E7E809372
:102B7000E100809195018E7E81608093950104C073
:102B80005D9ACDCF289AD6CF9F918F910F900FBE8F
:102B90000F901F9018951F920F920FB60F9211244D
:102BA000CF92DF92EF92FF920F931F932F933F9359
:102BB0004F935F936F937F938F939F93AF93BF9345
:102BC000EF93FF93CF93DF93CDB7DEB76C97DEBF64
:102BD000CDBF1092E9008091E80083FFEDC168E06D
:102BE000CE0145960E94231482EF8093E8008D89E0
:102BF00087FF05C09091E80090FFFCCF03C09EEFD7
:102C00009093E800982F907609F0C6C09E892F898E
:102C1000188D91110CC0803829F480919601809311
:102C2000F10002C01092F1001092F10048C1422F51
:102C300050E0512B913051F4811141C14130510587
:102C400009F03DC1809196018D7F0BC0933061F4F6
:102C5000811135C14130510509F031C18091960192
:102C60008260809396012BC1953041F48091E800F9
:102C700080FFFCCF20682093E30021C1963009F04B
:102C80005FC0EB8CFC8C1092E9001092B70110929F
:102C9000B601123091F51092B5011092B4010E9464
:102CA000BD1499E0BE016F5F7F4FDB01E92F1D92DC
:102CB000EA95E9F799831A8391E09E8390EA9887D1
:102CC0009AEF99872091B6013091B701275F3F4F66
:102CD0003C832B838D831092E9001092B7011092F0
:102CE000B601F092B501E092B40149E050E080E015
:102CF0000E94FC130E94BD14E2C0F092B501E09264
:102D0000B4010E94D323DC011296ED90FC9013973E
:102D1000E114F10409F4C0C0D701ED91FC910480E5
:102D2000F581E02DBE016B5E7F4FC70109950097CD
:102D300019F00CF0C4C0C7C0F701E084F184E8CFFB
:102D4000973009F4C0C0983021F481E08093F100FD
:102D5000B6C0993009F0B3C0837009F0B4C0EBE19C
:102D6000F1E081E021E036E39081992361F08093E6
:102D7000E9002093EB0091919093EC003093ED00EB
:102D80008F5F873089F78EE78093EA001092EA0020
:102D90008F898093000893C08B8D9C8D1092E900E1
:102DA0001092B7011092B6019093B5018093B401CF
:102DB000898D811156C08E899D89913A59F481324D
:102DC00009F081C047E050E06EE071E080E00E94D1
:102DD000FC1375C0913209F076C0833289F4888D76
:102DE00090E0982F88272F89822BA0E0B0E0809375
:102DF0000A0190930B01A0930C01B0930D015FC0E9
:102E0000803269F48091E80082FFFCCF67E08EE0B9
:102E100091E00E9423148BEF8093E80006C0823279
:102E200009F04DC08F89809315018091940188230A
:102E300019F0EEEFFAE002C0E0E0F8E080910E0158
:102E400090910F01A0911001B0911101803B94402D
:102E5000A105B10509F07BC08091150180FF93C0E9
:102E600076C00E94D323DC0112960D911C9113971A
:102E70000115110541F1D801ED91FC910190F0810E
:102E8000E02DBE016B5E7F4FC8010995811117C00F
:102E9000F80100851185ECCF113009F44EC01330D4
:102EA00091F48F89882309F445C0823081F440E889
:102EB00060E18BEF9BE00E94C933882321F08EEF05
:102EC0008093E80079C081E28093EB0075C0813087
:102ED00029F440E86BE08FEE9BE0EDCF833099F76B
:102EE0000E94D323DC011296ED90FC9013978E0183
:102EF0000F5F1F4F6801E114F10479F0D701ED91E4
:102F0000FC910680F781E02DB801C7010995080FF3
:102F1000111DF701E084F184EECFD8011C92F60177
:102F200001900020E9F73197BF016C197D0940E05D
:102F3000C601C1CF69ED7BE002C06DED7BE061159C
:102F4000710509F2FB01449150E080E840CF0FB6D3
:102F5000F894A89580916000886180936000109239
:102F600060000FBEA895EE3F2AE0F20739F080918D
:102F7000FE0A9091FF0A91838083A1CF1092FF0AED
:102F80001092FE0A9CCFEE3F8AE0F80731F0808174
:102F900091819093FF0A8093FE0A87E797E79183D8
:102FA00080839BE088E10FB6F894A8958093600039
:102FB0000FBE9093600083CF6C960FB6F894DEBF7F
:102FC0000FBECDBFDF91CF91FF91EF91BF91AF9138
:102FD0009F918F917F916F915F914F913F912F9131
:102FE0001F910F91FF90EF90DF90CF900F900FBE49
:102FF0000F901F901895EF92FF920F931F93CF930E
:10300000DF938C017B01C0E0D0E0F701EC0FFD1FE6
:103010006491662361F0D801ED91FC910190F081FB
:10302000E02DC8010995892B11F02196EECFCE0134
:10303000DF91CF911F910F91FF90EF90089561154F
:10304000710579F0FB0101900020E9F73197AF019C
:10305000461B570BDC01ED91FC910280F381E02DC2
:10306000099480E090E008954F925F926F927F9272
:10307000EF92FF920F931F93CF93DF93CDB7DEB7FD
:10308000A1970FB6F894DEBF0FBECDBF7C01FA0149
:10309000CB0119A2223008F42AE08E010F5D1F4FE8
:1030A000422E512C612C712CBF01A30192010E9470
:1030B000D235F901CA01015011096A3014F4605D7A
:1030C00001C0695CD8016C93232B242B252B61F75D
:1030D000B801C7010E941F18A1960FB6F894DEBF71
:1030E0000FBECDBFDF91CF911F910F91FF90EF9059
:1030F0007F906F905F904F9008958F929F92AF92C4
:10310000BF92CF92DF92EF92FF926B017C010E94FF
:1031100096144B015C01C114D104E104F104F1F0F7
:103120000E949614DC01CB0188199909AA09BB09F0
:10313000883E9340A105B10570F321E0C21AD10881
:10314000E108F10888EE880E83E0981EA11CB11CEE
:10315000C114D104E104F10419F7DDCFFF90EF9021
:10316000DF90CF90BF90AF909F908F9008958F92F7
:103170009F92AF92BF92CF92DF92EF92FF920F9306
:103180001F93CF93DF935C016B017A01809115014E
:10319000882309F45BC080910008882309F456C095
:1031A0008091950180FF05C08091E000826080934E
:1031B000E000E70110E00AEF83E0882E9AE3992E01
:1031C0002097D9F10E94C22381110AC0015009F44D
:1031D0003DC061E070E080E090E00E947D18F0CF9B
:1031E000282F30E0C217D3070CF48C2F4FB7F89478
:1031F0008092E9009091E80095FF1DC0282F30E0F3
:10320000C21BD30BF601982F915020F0819180932F
:10321000F100FACFC20ED31E112319F09092E800EC
:1032200009C08091E80085FD06C09092E80011E099
:10323000209709F010E04FBFC3CF1111C3CF5D98A5
:1032400084E68093B8011E141F0444F081E090E0EE
:10325000F5019383828380E090E001C0C701DF9194
:10326000CF911F910F91FF90EF90DF90CF90BF9083
:10327000AF909F908F9008951F920F920FB60F926C
:1032800011242F933F938F939F93AF93BF9380917C
:10329000980190919901A0919A01B0919B01309170
:1032A000AF0123E0230F2D3720F40196A11DB11D9E
:1032B00005C026E8230F0296A11DB11D2093AF0182
:1032C0008093980190939901A0939A01B0939B01E8
:1032D0008091B0019091B101A091B201B091B30180
:1032E0000196A11DB11D8093B0019093B101A093EF
:1032F000B201B093B301BF91AF919F918F913F9174
:103300002F910F900FBE0F901F9018951F920F9244
:103310000FB60F9211242F933F934F935F936F93A8
:103320007F938F939F93AF93BF93EF93FF9380917E
:10333000AB019091AC01A091AD01B091AE01892B90
:103340008A2B8B2B81F18091AA0181110BC098B13E
:1033500080E4892788B98091A901882319F088B170
:10336000805888B98091AB019091AC01A091AD01DA
:10337000B091AE01181619061A061B06B4F4809116
:10338000AB019091AC01A091AD01B091AE0101975C
:10339000A109B1098093AB019093AC01A093AD0159
:1033A000B093AE0102C00E94870FFF91EF91BF91D1
:1033B000AF919F918F917F916F915F914F913F91CD
:1033C0002F910F900FBE0F901F9018958091C905F7
:1033D000E091C705F091C805882349F0CF01029616
:1033E0009093C8058093C705859194910895CF0166
:1033F00002969093C8058093C705808191810895B6
:1034000070E02091790630917A0626173707D8F0B8
:1034100040917B0650917C06282F30E0649FF0019C
:10342000659FF00D749FF00D1124E20FF31FF695C8
:10343000E795E459F94F80FD03C08189829501C069
:1034400081898F70089589E008952091FA072823D3
:1034500029F49091F907982381E009F480E0089518
:10346000EF920F938091F207811121C18091CB05DA
:10347000873091F084E00E94251A882369F08091BA
:10348000E8079091E907892B39F09091F00781E0E6
:1034900089278093F0070BC18091F7079091F80777
:1034A00083709927892B09F002C18091F10781115E
:1034B00016C00E94C51085FF08C084EE97E00E94E8
:1034C0002E1181E08093E6070AC00E94C51086FF96
:1034D00006C084EE97E00E9445111092E6070E9414
:1034E000C51083FF70C08091E8079091E907892B90
:1034F00009F469C08091E60781119DC00091CA0559
:103500008091E0079091E107A091E207B091E30775
:10351000BD01685F7F4FE02E2EEC33E140EF53E1B9
:103520008091DE079091DF070E94B0108091F7072D
:103530009091F80765E070E00E940F36892B31F416
:103540008091CA058F5F81708093CA058091E507DD
:10355000882309F46CC00CF460C0813009F062C0AB
:103560001092E507809171008D7F80937100109219
:10357000C9058CE196E09093C8058093C7059093A8
:10358000C6058093C50521E230E030931D062093E7
:103590001C0682E390E090931F0680931E0641E490
:1035A00050E0509321064093200690932306809389
:1035B00022063093250620932406909327068093B5
:1035C00026060E94870F8091F7079091F807877071
:1035D0009927892B81F40E94C51083FF06C0809132
:1035E000E8079091E907892B31F48091E5078F3F37
:1035F000C1F51092E5078091F7079091F8078F7059
:103600009927892B09F053C00E94C51085FD4FC032
:103610000E94C51086FF39C04AC08C3F0CF4A2CF6F
:10362000880F06C089300CF09DCF859501C08FEFC3
:103630008093E50797CF813009F078CF0091CA05D4
:103640008091E0079091E107A091E207B091E30734
:10365000BD01685F7F4FE02E28E833E14AEA53E17D
:103660005FCF8F3F09F034F4883F2CF287FD8F5FE6
:10367000859503C0811104C081E08093E507BBCF2D
:1036800085300CF0B8CF880FF8CF8091E40718167A
:1036900024F484EE97E00E942E118091E40787FFC6
:1036A00006C084EE97E00F91EF900C9445110F91B6
:1036B000EF9008958F929F92AF92BF92CF92DF9238
:1036C000FF920F931F93CF93DF930091DC0710912C
:1036D000DD072091DE073091DF074091E007509130
:1036E000E1076091E2077091E3078091F007811193
:1036F00003C0A8E0FA2E02C0FBE0FF2EE091BC055B
:1037000080916C0690916D06A0916E06B0916F0647
:10371000C8E0EC9FA00DB11D11248091BD058090E3
:10372000700690907106A0907206B09073066D01BD
:10373000D7E0CD0ED11CE7E8CE16D104A0F5E50107
:10374000E8E08E9FC00DD11D1124CE01C83FFFEFD0
:10375000DF074CF1C034D10534F58901332717FD5B
:103760003095232FE8010F5E1F4FA017B107DCF43F
:10377000CC15DD05C4F4AB01772757FD7095672F95
:10378000FA012F2D30E0420F531F841795075CF488
:103790000896E817F9073CF488E78093C40510926F
:1037A000C1051092F207DF91CF911F910F91FF9009
:1037B000DF90CF90BF90AF909F908F900895CF9261
:1037C000DF92EF920F93CF93DF938091BC05C0916E
:1037D000C3050C2E000CDD0B219640916C06509118
:1037E0006D0660916E0670916F06C60FD71F98E048
:1037F000899FC00DD11D11248091BD054091700697
:103800005091710660917206709173066B019DE094
:10381000C91AD10898E0899FC00CD11C112490913D
:10382000EE0780917D07E12C00E026EF32E198174A
:1038300068F04EE353E1B601CE010E94B010DF9173
:10384000CF910F91EF90DF90CF9008954CEA52E125
:10385000B601CE010E94B0102091BE052B5CB601CE
:103860006C5F7F4F42EA51E1CE014996DF91CF91E3
:103870000F91EF90DF90CF900C943510EF920F9353
:103880001F93CF93E9EBF5E0C3818481ACE6B6E00A
:1038900014964D915D916D917C9117976D507109C2
:1038A00098E0899F600D711D11248285082E000CFF
:1038B000990B01960D911D912D913C91820F931FB3
:1038C000E12C00E026EF32E148E551E1E8E0CE9F4F
:1038D000800D911D11240E94B010CF911F910F9166
:1038E000EF90089540917B0650917C06A9EBB7E0DC
:1038F000ED91FD9192819923F9F060819181262FBC
:1039000030E0949FF001959FF00D1124E20FF31F1A
:10391000F695E795E459F94F918960FD05C09F70D0
:10392000813039F420E506C0907F813011F425E024
:1039300001C020E0922B918B97E0AD3CB907C1F616
:1039400080938807811105C0809184079091850735
:1039500002C080E090E090938707809386070895E7
:10396000CF93DF93D82FC62F0E94001A8530A1F481
:10397000CC2381F06FEF6C0F8D2F0E94001A8530E1
:1039800039F061E06C0F8D2F0E94001A853011F420
:1039900080E10BC085E009C08F3039F48091880741
:1039A000813011F081E101C08FE0DF91CF91089566
:1039B0004B3049F0B0F183EF840F823090F583E310
:1039C0008093ED072CC091E09093F3072091F707C7
:1039D0003091F80723703327232B19F5A3EBB7E0B9
:1039E000ED91FD919081981327C09181961324C089
:1039F00082818823B1F08091E8079091E9072091B6
:103A00008207309183078217930758F401969093A9
:103A1000E9078093E807828181118150828381E0E8
:103A200008958091F007811105C09091E50719165E
:103A300054F0089580E0089597E0A93BB90781F616
:103A4000E0E0F0E0D5CF842F0E941C13882321F002
:103A500093E39093ED070895089580E0E9EBF1E09A
:103A600081118FEF0024819381938193819303943B
:103A7000D1F70895E9EBF1E080E0A0E0B8E0008044
:103A80000EBC8111012C1197A0FDFDCF0192B9F759
:103A90000DB408958F929F92AF92BF92CF92DF9212
:103AA000EF92FF920F931F93CF93DF93182FC62FA0
:103AB00000917F070230B0F18F3F51F4602F70E02A
:103AC00080E090E00E943515D62FCF3F69F403C007
:103AD000D82F6F3F49F5602F70E080E090E00E94A2
:103AE0003515C62F1F3F01F5802E912CA12CB12C2E
:103AF0008091BB05D81306C0C501B4010E943515DD
:103B0000D62FF6CF8091BE05D817B1F3C02ED12C99
:103B1000E12CF12CDC1308C0C701B6010E94351559
:103B2000C62FF8CFCEEFD0E02091740630E0220F00
:103B3000331FF901E95CFE4F608171818D2F90E0A8
:103B4000880F991FFB01E80FF91F44914093BC05B2
:103B50000196FB01E80FF91FE491E093BD05D093B6
:103B6000BB05C093BE05CE3FB9F0F901EF5DFE4F36
:103B7000208131816C2F70E0660F771FF901E60F0D
:103B8000F71F84918093BF056F5F7F4FF901E60FA8
:103B9000F71FE491E093C0051092B90581E080938E
:103BA000C10564E170E080E090E00E943515DC0121
:103BB000CB010A96A11DB11D8093BA05DF91CF916B
:103BC0001F910F91FF90EF90DF90CF90BF90AF903B
:103BD0009F908F9008958F929F92AF92BF92CF92B5
:103BE000DF92EF92FF920F93CF93DF936B01EC0183
:103BF0004C01840E911C5B01A20EB11CC815D905A5
:103C0000ECF47601D7FE10C0E12CF12C0DC0E816C3
:103C1000F90694F4202FA701BE0184EF97E00E94DB
:103C200010112FEFE21AF20AC50121E4A216B10425
:103C300074F380E490E0EBCF2196E0CFDF91CF9159
:103C40000F91FF90EF90DF90CF90BF90AF909F903B
:103C50008F9008958F929F92AF92BF92EF920F93A1
:103C60000091E6078091ED07863270F48F31B8F449
:103C7000882311F1883108F44BC000E08BEF2FEA64
:103C80003EE045E051E126C08D3280F0843308F0FB
:103C90003FC08BEF2AE13DE04AE65FE01BC000E059
:103CA0008BEF2EE53EE042EB50E114C08BEF2CEBA6
:103CB0003DE04EE050E10EC08091F007811105C05B
:103CC00028EF3CE046E45FE005C080E024EB3CE008
:103CD00040E05FE041155105D9F0082E000C990B2A
:103CE0008090E0079090E107A090E207B090E30792
:103CF000BC016A0D7B1D8090DC079090DD07A090D1
:103D0000DE07B090DF07E02E8A0D9B1D0E94B010E9
:103D10000F91EF90BF90AF909F908F9008952F924A
:103D20003F924F925F926F927F928F929F92AF924B
:103D3000BF92CF92DF92EF92FF920F931F93CF9398
:103D4000DF93CDB7DEB728970FB6F894DEBF0FBE6E
:103D5000CDBF4091BC0508E0409FA0011124C09058
:103D60006C06D0906D06E0906E06F0906F06C7016D
:103D7000BB2797FDB095AB2F89839A83AB83BC8318
:103D80002091BD0598E0299F1001112480907006B4
:103D900090907106A0907206B0907306850133274B
:103DA00017FD3095232F0D831E832F833887E091D5
:103DB000EF07E11140C089819A81840F951F893FE7
:103DC0001FEF9107C4F180389105ACF56D817E81BC
:103DD000620D731D683F2FEF72076CF1603471053F
:103DE00054F52091C1052130E1F40091B905E02E90
:103DF00024E23AE142E35AE10E94B0108091F707D1
:103E00009091F8076FE070E00E940F36892B09F05F
:103E1000C4C181E09091B905911180E08093B9050A
:103E2000BCC1213008F086C0E12C00E022E43AE178
:103E300049E45AE17CC08091CB05883009F0ADC1DE
:103E4000E11140C14090DC075090DD076090DE0733
:103E50007090DF078091E0079091E107A091E20761
:103E6000B091E30760910108643108F096C1EE2338
:103E700061F04091BF0568E0469FA00111242091A8
:103E8000C005E8E02E9F1001112469817A81695FE5
:103E90007F4F640F751F6738710508F419C18301DE
:103EA000332717FD3095232F0D831E832F833887EB
:103EB0008D01332717FD3095232F09831A832B8318
:103EC0003C834C185D086E087F084619570988190D
:103ED0009909AA09BB0991012A1B3B0BED81FE81BF
:103EE000FF27882799278E1B9F0B481759070CF42B
:103EF000FDC080E890E08E1B9F0B481759070CF01F
:103F000009C137FF33C18D81840F00E060E0A0E874
:103F1000B0E07D01EE1AFF0A4E155F050CF0FEC001
:103F200070E0E02E26E639E146EA59E190E00E9491
:103F3000B01033C1223009F030C12091C205009188
:103F4000B905E091C305E02E263029F426E03AE1D8
:103F500044E15AE104C028EE39E146EF59E18E0F01
:103F6000911DE7FD9A950E94B0108091F7079091FE
:103F7000F80787709927892B09F00FC19091BC052C
:103F80008091C305282F082E000C330B2D5F3F4F67
:103F900048E0949F200D311D11244091DC07509181
:103FA000DD076091DE077091DF07AB01485F5F4F6F
:103FB000C0906C06D0906D06E0906E06F0906F0693
:103FC0004E195F092417350789F091E02091B90552
:103FD000211190E09093B9059091C205963011F4AB
:103FE000815001C08F5F8093C305D7C081E080936B
:103FF000EF071092F2079091EE0780917D079817D6
:1040000008F04BC0809171008D7F809371001092F9
:10401000C9058CE196E09093C8058093C7059093FD
:10402000C6058093C50587E295E090931D068093B1
:104030001C0682E390E090931F0680931E0625EAFB
:1040400030E030932106209320069093230680933E
:10405000220622E530E03093250620932406909333
:1040600027068093260628960FB6F894DEBF0FBE6B
:10407000CDBFDF91CF911F910F91FF90EF90DF9017
:10408000CF90BF90AF909F908F907F906F905F90F8
:104090004F903F902F900C94870F80918007209134
:1040A0008107281708F4AECFE82FE695F0E0E45931
:1040B000F94F918980FD02C09F7001C0907F918B64
:1040C0008F5FEFCF8091BE058E3F09F0BBCE65C0FC
:1040D0006D817E81620D731D683FFFEF7F070CF4D9
:1040E000DECE603471050CF0DACE57C0C8019927D6
:1040F00066277727681B790B261737074CF507E0EB
:1041000060E0A8E3B0E07D01E81AF90A2E153F054A
:10411000ACF502C000E060E080E0F9CE49815A8150
:104120005527EE27FF27E41BF50B2E173F074CF50D
:1041300001E060E088E7E8E3F0E0DF01A41BB50BF5
:104140002A173B070CF4ECCE03E060E388E7E8CEE7
:1041500068E370E0681B790B261737072CF4698138
:104160006450620F06E0CDCF00E0CACF21153105C3
:1041700089F28D81840F04E060E3C9CE05E060E33D
:10418000CBCFE8E3F0E0E41BF50B2E173F079CF6DE
:1041900069816450620F02E0CDCF28960FB6F89483
:1041A000DEBF0FBECDBFDF91CF911F910F91FF906A
:1041B000EF90DF90CF90BF90AF909F908F907F90C7
:1041C0006F905F904F903F902F9008954F925F9225
:1041D0006F927F928F929F92AF92BF92CF92DF9217
:1041E000EF92FF920F931F93CF93DF93CDB7DEB77C
:1041F00061970FB6F894DEBF0FBECDBF80937406F3
:1042000091E09093880791E1899FB0011124655551
:10421000774E41E150E0CE0101960E94813529811F
:1042200030E030937C0620937B068A8190E0909367
:104230007A068093790673E0220F331F7A95E1F7AF
:104240003093780620937706E3E0880F991FEA956C
:10425000E1F790937606809375068B819C81092EF9
:10426000000CAA0BBB0BDC019927882780936C06F6
:1042700090936D06A0936E06B0936F068D819E811C
:10428000092E000CAA0BBB0BDC0199278827809311
:10429000700690937106A0937206B09373068B8597
:1042A00080937D078C8580937E078D8580937F0723
:1042B0008E85809380078F858093810789859A8575
:1042C00090938307809382078889998990938507C3
:1042D00080938407A3EBB7E0ED91FD9110821182EA
:1042E00012821382E7E0A93BBE07B1F7E0917406A2
:1042F000F0E0EE0FFF1FEF58FE4FA080B180C12C01
:10430000D12C612C712C55245394F5011491012F5B
:1043100002950F701F7009F463C0402E429450EF55
:1043200045227601970136952795F901E459F94F11
:104330008189E0FC03C08F70842902C0807F802BBC
:10434000818B053021F10B30C9F560917B067091AE
:104350007C06E72DF0E0EE0FFF1FED54F84F808054
:104360009180C7010E940F36F4018083618368E267
:1043700070E080E090E00E943515DC01CB0188966A
:10438000A11DB11DF40182838383739417C06091D2
:104390007B0670917C066217730780F4E62DF0E0CF
:1043A000EE0FFF1FE754F84F0190F081E02DC70199
:1043B0000E940F368083618352826394FFEFEF1A6D
:1043C000FF0A8E2D8C19811708F4ACCF1150812F64
:1043D00090E00196C80ED91E8FEFA81AB80A95CFA3
:1043E00061960FB6F894DEBF0FBECDBFDF91CF91BF
:1043F0001F910F91FF90EF90DF90CF90BF90AF9003
:104400009F908F907F906F905F904F900895CF9383
:10441000DF93CDB7DEB761970FB6F894DEBF0FBE5E
:10442000CDBF0E94E6206091740681E1689FB001D3
:1044300011246555774E41E150E0CE0101960E946E
:104440008135ECEDF7E0108611861286138A81E043
:10445000848B858B168A178A118A89859A85958718
:1044600084878F8190E0A0E0B0E0DC019927882765
:1044700080839183A283B383888590E0A0E0B0E03D
:10448000DC019927882784839583A683B7838FEFE0
:104490008093BB0561960FB6F894DEBF0FBECDBF0B
:1044A000DF91CF9108954F925F926F927F928F929A
:1044B0009F92AF92BF92CF92DF92EF92FF920F93B3
:1044C0001F93CF93DF93EC018B01442ECB018C1B08
:1044D0009D0B97FF03C091958195910955245394A5
:1044E000813891053CF4512CC80100E810E0E12C22
:1044F000F12C0FC00C171D0734F07E0180E890E00E
:10450000C0E0D0E006C078018E0180E090E0C0E815
:10451000D0E038016E187F085C01AC1ABD0AB7FE06
:1045200003C0B194A194B108630177FE03C02FEFDB
:10453000C21AD20AD594C794C817D90714F08FEFBE
:1045400001C081E0882E880F99080E151F05C4F060
:10455000242D552019F0A701BE0102C0AE01B701FC
:1045600084EF97E00E941011CA18DB08D7FE04C040
:10457000C80DD91DC60CD71C8FEFE81AF80AE5CF75
:10458000DF91CF911F910F91FF90EF90DF90CF902F
:10459000BF90AF909F908F907F906F905F904F9063
:1045A0000895EF92FF920F931F93CF93DF9300D064
:1045B00000D01F92CDB7DEB720E049E258E168E3B2
:1045C00070E080E090E00E94A0108DE08093D7071B
:1045D0008093D60789E38093D8078091EA0790916A
:1045E000EB078E010F5F1F4FF8012AE0E22EF12C3E
:1045F00025E0200FB7010E940F368193CB012E13C7
:10460000F9CF7E0186E0E80EF11CF70142917F01AF
:1046100050E060E070E02AE082ED97E00E943418FC
:10462000E016F10691F74091E8075091E907CA01B9
:104630000197439708F051C080910108843108F038
:104640004CC000E028E04EE169E370E08CE290E0CD
:104650000E94EB1D8EE58093D7078093D60719E360
:104660001093D8078091EC070AE0602F0E94033670
:10467000492F50E060E070E02AE082ED97E00E9470
:10468000341883E78093D7078093D6071093D80711
:104690008091BA05602F0E940336192F0E940336BD
:1046A000492F50E060E070E02AE082ED97E00E9440
:1046B0003418412F50E060E070E02AE082ED97E08E
:1046C0000F900F900F900F900F90DF91CF911F914F
:1046D0000F91FF90EF900C94341899E39093D707C3
:1046E0009093D6079093D8072AE030E0CA01B90129
:1046F0000E940F368983CB01B9010E940F368A834D
:10470000CB01B9010E940F368B837E01F4E0EF0EDE
:10471000F11CF70142917F0150E060E070E02AE077
:1047200082ED97E00E943418E016F10691F792CFDF
:10473000FC0180910008811103C08FEF9FEF089565
:104740009FB7F89482E08093E9002091F20030E076
:104750001216130614F421E030E02115310559F04A
:10476000289884E68093FF078091F10080838091F0
:10477000F200882319F09FBFC90108958BE680934A
:10478000E800F9CF2FB7F89483E08093E900909187
:10479000E800892F807295FF04C09091F20080E4B8
:1047A000891B2FBF08958091060881110DC082E0FA
:1047B0008093020884E08093030810920508109209
:1047C000040881E08093060882E098E00895CF9382
:1047D000DF93CDB7DEB7A8970FB6F894DEBF0FBE54
:1047E000CDBF789484B5826084BD84B5816084BD7A
:1047F00085B5826085BD85B5816085BD80916E007F
:10480000816080936E0010928100809181008260AF
:1048100080938100809181008160809381008091EC
:1048200080008160809380008091910082608093FD
:10483000910080919100816080939100809190001F
:104840008160809390008091C10084608093C1005A
:104850008091C10082608093C1008091C10081601D
:104860008093C1008091C30081608093C3008091D8
:10487000C00082608093C0008091C20081608093FC
:10488000C20080917A00846080937A0080917A00DF
:10489000826080937A0080917A00816080937A00B0
:1048A00080917A00806880937A00109200081092BC
:1048B0009601109295018091D70081608093D70076
:1048C00080EA8093D80089B5806189BD89B582600E
:1048D00089BD09B400FEFDCF61E070E080E090E0AA
:1048E0000E947D188091D8008F7C80618093D800D1
:1048F0008091E000807F8093E0008091E1008E7ED7
:104900008093E1008DE08093E200559A209AEEEFCB
:10491000FFE7859194918B3F9C4D19F481E0809342
:10492000940181EC80937C0085B1806F85B984B15E
:10493000877E84B984B1876E84B95E9A5F988AB1A4
:10494000806D8AB9769A6E9881B3806F81BB8998A1
:1049500080B38D7080BB80E58CBD81E08DBD85E02E
:1049600090E00E94C0105F9A85E090E00E94C01025
:104970005E985C98E4E7F1E08DE08E0F94919EBD27
:1049800000000DB407FEFDCF31968E13F7CF5C9A71
:1049900081E8809364008091650081608093650068
:1049A0000E943A1D0E94C51087FF15C05C9885EAD9
:1049B0008EBD00000DB407FEFDCF5C9A2E982F9897
:1049C0002D988091640080628093640081E083BFB1
:1049D000889513BEFCCF02E010E00E94C51082FF54
:1049E00040C02D980E94C51084788438C1F00E9480
:1049F000C5108471843181F52D9A88EC90E00E9475
:104A0000C0102E981A83098360E0CE0101960E949F
:104A10002A1384EF91E00E94C0102E9A18C02D9A9C
:104A200088EC90E00E94C0102F981A8309836FEFE2
:104A3000CE0101960E942A1384EF91E00E94C010DB
:104A40002F9A0E94C51084788438D9F3D0CF0E9461
:104A5000C51084718431D9F388EC90E00E94C010B5
:104A6000BCCF2D9A82E090E00E948A35882331F0F5
:104A70003E9A3F9A81E08093970104C0109297017B
:104A80003E983F980E942D1D80E18093FB0780E0B7
:104A90000E9481139E012F5F3F4F19018FB7F89439
:104AA000409198015091990160919A0170919B01F8
:104AB0008FBF8091FC07342F381B832F9091FD0707
:104AC000992331F03093FE071092FD070C94532F79
:104AD0009091FB07391758F48F5F891710F00C94E9
:104AE000532F81E083BF889513BE0C94532F81E030
:104AF0008093FD074093FC078091F7079091F8079A
:104B000001969093F8078093F7078091F9078093B7
:104B1000FA070E94C5108093F9070E942D1DE091AD
:104B2000CB058E2F90E08D30910508F00FC7FC016A
:104B3000EA5AFF4F0C94373620E042E858E061E132
:104B400070E08DE190E00E94A01080910401882324
:104B500079F0813009F05AC01092000110920101E1
:104B600090E4909302018093030110920401EEC639
:104B70008091000187FD44C08091020190E0209166
:104B80000101821B910997FD019695958795B82E95
:104B9000E12CF12C30E8C32ED12C40910001EB1414
:104BA00040F58701000F111F80910101B801680FC6
:104BB000711D603471052CF420E080E090E00E94CB
:104BC000CD1080910101B801680F711D6F5F7F4F9B
:104BD000809100016034710544F420E0482FD60133
:104BE000A81BB109CD010E94CD10BFEFEB1AFB0A43
:104BF000D4CF47FD05C080910301480F40930001C9
:104C00008091000187FFA2C60C94273081508093C9
:104C100004019CC61092A3011092C4051092A20137
:104C200011E01093090180E00E9407226EEF80914D
:104C300009010E944A1D1092E60782E08093CB058D
:104C400080E8809305011092060180E480930701BB
:104C5000109308018091A301882319F0815080935B
:104C6000A3018091C405882379F081508093C40505
:104C700081110AC081E090910901911180E0809337
:104C800009016EEF0E944A1D20E040E855E067E010
:104C900070E080E090E00E94A010809009018F8A6F
:104CA000512C182D1F5F1BA3E52CF12C8091790648
:104CB00090917A06E816F90608F079C0B3E0EE0C98
:104CC000FF1CBA95E1F710E09701225031093C8FA3
:104CD0002B8FA7014150510958A34F8FC12ED12CC2
:104CE00080917B0690917C06C816D90608F05DC0BD
:104CF00083E0CC0CDD1C8A95E1F7652D812F0E94A5
:104D0000B01C882309F44FC0843009F045C03091AD
:104D10007F07E0917406F0E0EE0FFF1FEF5DFE4F9E
:104D2000A080B180412C90E0460122E0820E911CCF
:104D3000360143E0640E711C431651F1F501849174
:104D40003196E49118131FC05E121DC0FF89F41143
:104D50001AC024E04EEE54E0B701C6013CA30E9405
:104D6000A01001E027E045E06B8D7C8DC4010E941E
:104D7000EB1D2BA14EEC54E06F8D78A1C3010E9476
:104D8000351091E03CA1439402E0A00EB11CD4CFB9
:104D9000911109C02AE001C0282F4EEE54E0B7015E
:104DA000C6010E94A0101F5F99CF53947DCF0E942F
:104DB0002A1E0E948F1E0E94301A8091EF078111D7
:104DC00005C08091C10581110C945D2F8091A301D4
:104DD00081110E94DF1B8091C40581110E943E1C3D
:104DE0008091E0079091E107A091E207B091E3077D
:104DF0000097A942B1050CF4A9C58091E5071816E2
:104E000014F40C94612FA2C581E08093A20183E089
:104E10008093EC071092EB071092EA0784E08093EE
:104E2000CB058091A2010E94E62080919C01811116
:104E300002C00E94B3110E9477110E945E1100E02F
:104E400021E14EE567E170E082E190E00E94EB1D18
:104E500021E04CE569E170E083E190E00E94CD1033
:104E600021E04CE566E270E083E190E00E94CD1025
:104E700080917E078A5E8093D7078093D6078CE166
:104E80008093D807E0917406E150F0E0EE0FFF1F29
:104E9000E654FB4F6591749182ED97E00E94FB17F9
:104EA00088E00E94251A882319F086E08093CB05BC
:104EB00087E08093A1014AC51092CA058091A201A2
:104EC0000E9407226FEF8FEF0E944A1D8091A1017F
:104ED0008093CB05809101088F5F68E20E940336C2
:104EE000909301088091A301882319F08150809349
:104EF000A3018091C405882349F081508093C405A3
:104F0000811104C06FEF8FEF0E944A1D80918607C8
:104F100090918707009751F00197909387078093AE
:104F20008607892B19F481E00E94721C712CA72C32
:104F3000B12C8091790690917A06A816B90608F0EE
:104F4000A6C053E0AA0CBB1C5A95E1F710E0E12E75
:104F5000F12C80917B0690917C06E816F90608F00A
:104F600094C073E0EE0CFF1C7A95E1F780916C061B
:104F700090916D06A0916E06B0916F06EA0EFB1E31
:104F80008091700690917106A0917206B09173069F
:104F90009701285F3F4F2838310508F074C065013C
:104FA000CA0EDB1EC60108968834910508F06BC056
:104FB000672D812F0E94B01C843051F08B3009F492
:104FC00045C0882309F45FC0282F4EEE54E057C037
:104FD00024E04EEE54E0B601C7010E94A01001E0AB
:104FE00027E045E0B60162507109C70102960E94B0
:104FF000EB1D80910108843108F045C000917F07C6
:10500000E0917406F0E0EE0FFF1FEF5DFE4F808031
:105010009180612C61E0C61AD10873E0E70EF11CA3
:10502000601689F1F40184913196E4916394181328
:1050300009C07E1207C0262D4EEC54E0B601C70110
:105040000E943510F2E08F0E911CEACFA3EBB7E07F
:10505000ED91FD918081811338C78181871135C71A
:10506000828104E0809FC0011124638170E00E946E
:105070002336262F643008F023E048E954E0B601D7
:10508000C7010E94A0101F5F62CF739450CF809120
:10509000ED078111FEC00E94301A8091EF07811147
:1050A00004C08091C105811118C78091CB0588305B
:1050B00009F0EFC01092F307F1018FE0820D119219
:1050C0008E13FDCF0091DC071091DD072091DE07E4
:1050D0003091DF078901332717FD3095232F809109
:1050E0006C0690916D06A0916E06B0916F06CD0191
:1050F000BB2797FDB095AB2F081B190BC090E0079D
:10510000D090E107E090E207F090E3076701FF2409
:10511000D7FCF094EF2C8091700690917106A091CD
:105120007206B0917306CD01BB2797FDB095AB2FEA
:10513000C81AD90A8091E507882309F496C0580156
:10514000F3E0B694A794FA95E1F7882483948A0C47
:10515000A2E09A2E9A0C7601B3E0F694E794BA9501
:10516000E1F76E2D8A2D0E94B01C3101680E711C72
:10517000D3019C9191110AC0482F6E2D8A2D0E9457
:10518000D81C882319F081E0F30180836E2D882DCF
:105190000E94B01C3101680E711CD3019C919111C9
:1051A0000AC0482F6E2D882D0E94D81C882319F024
:1051B00081E0F30180836E2D892D0E94B01C3101A6
:1051C000680E711CD3019C9191110AC0482F6E2D5D
:1051D000892D0E94D81C882319F081E0F301808377
:1051E000F8E0CF16D10408F440C0E3946E2D8A2D68
:1051F0000E94B01C3101680E711CD3019C91911169
:105200000AC0482F6E2D8A2D0E94D81C882319F0C1
:1052100081E0F30180836E2D882D0E94B01C510126
:10522000A80EB11CD5019C9191110AC0482F6E2D7A
:10523000882D0E94D81C882319F081E0F501808315
:105240006E2D892D0E94B01C5101A80EB11CD501F4
:105250009C9191110AC0482F6E2D892D0E94D81C57
:10526000882319F081E0F50180838091E40787FDB0
:1052700002C00C94B433C80187709927892B49F474
:10528000A3E016950795AA95E1F701500F3F09F0A5
:1052900027C68091CB05873021F4809101088431A5
:1052A00010F40E942A1E1091A001112361F187E2DF
:1052B00090E0811B910997FD07969C0153E035957D
:1052C00027955A95E1F78091E0079091E107A09129
:1052D000E207B091E307BD016A5071098091DC07D4
:1052E0009091DD07A091DE07B091DF07E22E022F3B
:1052F0002AE732E048E853E0CD0105970E94B0105C
:1053000011501093A0010E948F1E0E94D122809103
:10531000A30181110E94DF1B8091C40581110E94AD
:105320003E1C8091CB05873041F488E00E94251A0D
:10533000882309F40BC388E099C09091F30780910A
:10534000ED07911103C0882309F40DC6823039F0AE
:1053500000F18433F0F481508093ED071AC081E0AE
:105360008093ED078091EC0781508093EC078823B0
:1053700069F0809174060E94E6201092ED0786E0A5
:105380008093CB0587E08093A10103C08AE08093DE
:10539000CB058091F7079091F8076FE070E00E94CD
:1053A0000F36892B09F0D2C280919F018F5F8B301D
:1053B00018F480939F01CAC210929F018091BA0590
:1053C0008B3008F4C3C281508093BA05BFC280916C
:1053D0009C01811102C00E94B3110E9477110E94AA
:1053E0005E1100E02EE142E662E170E08FE090E0C5
:1053F0000E94EB1D21E040E663E170E080E190E077
:105400000E94CD1021E040E66EE270E080E190E085
:105410000E94CD108BE28093D7078093D60788E156
:105420008093D8076CE672E082ED97E00E94FB174C
:1054300081E38093D7078093D60782E28093D807D1
:1054400060E672E082ED97E00E94FB1720E046E103
:1054500052E065E170E082E190E00E94A01088E0F7
:105460000E94251A882309F471C28AE08093CB0533
:105470006DC20E9440121092A20168C28FEF809309
:10548000CD071092CE071092CF071092D00710923E
:10549000D1078091EA079091EB079E8B8D8BF12CC1
:1054A0008F2D0E94D71229833A834B835C836D83AF
:1054B0002C813D818D899E892817390728F40FEBAF
:1054C00010E044E0E42E08C0F39435E0832EF81099
:1054D000E7CFFF24FA9445C0FE1428F5EA948E2DF8
:1054E0000E94D71229833A834B835C836D83622F9A
:1054F000C80103970E9471136A81C80102970E9434
:1055000071136B81C80101970E9471138C819D8179
:10551000998B888BBE01605F7F4FC8010E944A1340
:1055200005501109D9CF25E0F29E8001112460E0D9
:10553000C80188559F4F0E94711360E0C8018755CC
:105540009F4F0E94711360E0C80186559F4F0E94D3
:105550007113BE016B5E7F4FC80185559F4F0E943E
:105560004A13F092CD078CE08093CB0580E88093BE
:1055700005011092060180E48093070181E0809389
:10558000080180E00E94C61100E020E442E560E0EE
:1055900070E087E190E00E94EB1D00E010E021E068
:1055A000A80168E170E084EF97E00E9410110F5F9E
:1055B0001F4F0034110599F700E010E021E0A80129
:1055C00067E670E084EF97E00E9410110F5F1F4FB5
:1055D0000034110599F720E044E851E066E070E0FE
:1055E0008CE190E00E94A01005E110E0B12C96E063
:1055F000A92E26E0922E920C8B2D0E94D712288B7A
:10560000398B4A8B5B8B6C8B42EA51E1B80183E2A8
:1056100090E00E94A010298942EA51E1B80189E294
:1056200090E00E94A0102A8942EA51E1B8018FE27D
:1056300090E00E94A010D101EA2D1D92EA95E9F7B1
:105640008B899C896101F1016AE070E00E940F364C
:105650008193CB019E12F8CF89E5E82EF12CD6017B
:105660002D916D012C5C42EA51E1B801C7010E9405
:10567000A010B5E0EB1AF108EBE3EE16F10479F7B0
:10568000B394085F1F4FF5E0BF12B6CF1091CD075E
:105690001F3F09F41BC180919E018F5F80939E0183
:1056A0008F30E8F408E0109FB00111246C5E7F4F4A
:1056B00020E041E851E08EE190E00E94A01060916E
:1056C000CD0718E0619FB00111246C5E7F4F20E090
:1056D00041E851E081E690E00E94A01004C08F31C3
:1056E00010F010929E018091CE076091CD0781113C
:1056F0001EC028E0629FB00111246C5E7F4F01E064
:1057000028E046E082E290E00E94EB1D6091CD0728
:1057100038E0639FB00111246B5E7F4F2091CF076B
:1057200042EA51E183E290E00E9435100EC048E069
:10573000649FB00111246B5E7F4F2091CF0742EA36
:1057400051E183E290E00E94A0108091CE07609129
:10575000CD078130F1F458E0659FB00111246C5EF3
:105760007F4F01E028E046E088E290E00E94EB1DD8
:105770006091CD0788E0689FB00111246B5E7F4F78
:105780002091D00742EA51E189E290E00E94351071
:105790000EC098E0699FB00111246B5E7F4F20918D
:1057A000D00742EA51E189E290E00E94A010809186
:1057B000CE076091CD078230F1F4A8E06A9FB00176
:1057C00011246C5E7F4F01E028E046E08EE290E01D
:1057D0000E94EB1D6091CD07B8E06B9FB0011124D2
:1057E0006B5E7F4F2091D10742EA51E18FE290E05A
:1057F0000E9435100EC0E8E06E9FB00111246B5E70
:105800007F4F2091D10742EA51E18FE290E00E9460
:10581000A0101091CE0780E80E94251A882359F025
:10582000E12FF0E0E353F84F8281893118F48F5F64
:10583000828301C0128280E10E94251A882359F0D8
:10584000E12FF0E0E353F84F8281882311F081507B
:1058500001C089E1828380E20E94251A882329F011
:10586000112319F011501093CE0780E40E94251ADD
:10587000882339F08091CE07823018F48F5F8093AF
:10588000CE0788E00E94251A882309F45FC00091A2
:10589000CD07F5E00F9F800111246091CF07C8016B
:1058A00088559F4F0E9471136091D007C80187559A
:1058B0009F4F0E9471136091D107C80186559F4F79
:1058C0000E9471138FEF8093CD0740C00E94C510D6
:1058D00087FF7AC30E94C51084FD92C375C38D33C0
:1058E00009F083C310929D0183E884BD17BD81EF49
:1058F000809380001092880010928A0081E00E94BC
:105900008113809171008D7F809371001092C90581
:105910008CE196E09093C8058093C7059093C605E7
:105920008093C50587E194E090931D0680931C0643
:1059300084E690E090931F0680931E0680E090E836
:1059400090932106809320060E94870F0E943A1DA3
:105950009090CB059B8E192D123019F0183009F05C
:10596000A2C2E090E5078E2D0E2C000C990BAA0B1D
:10597000BB0BDC01992788274C015D01BB0C880813
:10598000982C54019C01AD01682D782D882D982DFF
:1059900000E10E943D36F22E032F142FB52FF62F73
:1059A000E72F6C01A0E00E9474367CF4215031098D
:1059B000484F5F4F6F4F7F4F8F4F9F4FF22E032FF8
:1059C000142FB52FF62FE72F6C012F2D302F412FDD
:1059D0005B2F6F2F7E2FC60103E10E9456362F8B5F
:1059E000388F498F5A8F8091E407082E000C990B4D
:1059F000AA0BBB0BDC01992788274C015D01BB0C6E
:105A00008808982C54019C01AD01682D782D882DB3
:105A1000982D00E10E943D36F22E032F142FB52F52
:105A2000F62FE72F6C01A0E00E9474367CF4215021
:105A30003109484F5F4F6F4F7F4F8F4F9F4FF22E6F
:105A4000032F142FB52FF62FE72F6C012F2D302F9A
:105A5000412F5B2F6F2F7E2FC60103E10E94563628
:105A600029013A01E7FE98C00091DC071091DD079B
:105A70002091DE073091DF0740916C0650916D0652
:105A800060916E0670916F064F8F58A369A37AA339
:105A9000C0907006D0907106E0907206F090730688
:105AA0008090E0079090E107A090E207B090E307B4
:105AB000A501772757FD7095672FC701BB2797FD75
:105AC000B095AB2FBA01681B790BCB018770992772
:105AD000892B09F042C06115710509F430C3B3E0A8
