:100000000C949B0C0C94C30C0C94C30C0C94C30C5C
:100010000C94C30C0C94C30C0C94C30C0C94C30C24
:100020000C94C30C0C94C30C0C94CC1C0C943E1D6F
:100030000C94C30C0C94C30C0C94C30C0C94C30C04
:100040000C94C30C0C94C30C0C94C30C0C94C30CF4
:100050000C94C30C0C94C30C0C94C30C0C94970D0F
:100060000C94C30C0C94C30C0C94C30C0C94C30CD4
:100070000C94C30C0C94C30C0C94C30C0C94C30CC4
:100080000C948F0E0C94C30C0C94C30C0C94C30CE6
:100090000C94C30C0C94C30C0C94C30C0C94C30CA4
:1000A0000C94C30C0C94C30C0C94C30C242190210D
:1000B000A5212C22392247224722C9254226D026B3
:1000C000D5F08D14A1C881CFD9F1AF20000108FF70
:1000D000480BFFFFFF3030FFFFFF00FFFFFF00F87E
:1000E000FEFF0763E3E300FFFFFF3030FFFFFF0089
:1000F000000000000E1F3FF3E3C000F8FEFF0703FF
:100100000300F8FEFF0303FFFEF800FFFFFF73FF8D
:10011000DF0E00FFFFFF333333330707070000070D
:100120000707000707070001030707060307000783
:100130000707000007070700000000000706060782
:100140000301000003070706060000030706060771
:100150000300000707070007070700070707060651
:10016000060653434F52453A004B0D00F0FCFE0E7D
:10017000C6C6C6000080F8FE0EFEF8800000FEFE37
:10018000FE7CE07CFEFEFE00FEFEFE66666666000D
:1001900000000000F0FCFE0606FEFCF0023EFEF849
:1001A00000F8FE3E0200FEFEFE6666666600FEFE8B
:1001B000FEE6FEBE1C000003070F0E0C070F000C2E
:1001C0000F0F0303030F0F0C000F0F0F0003000F9F
:1001D0000F0F000F0F0F0C0C0C0C000000000001A3
:1001E000070F0C0C0F07010000030F0F0F01000099
:1001F000000F0F0F0C0C0C0C000F0F0F000F0F0E49
:100200000020474F4F44204C55434B2120004C6564
:1002100076656C200004083E09093E3F25251A1E1C
:100220002121123F21211E3F2525213F0505011EC9
:1002300021293A3F04043F213F21001021211F3F83
:10024000040A313F2020203F02023F3F02043F1EAC
:1002500021211E3F0909061E21112E3F09093622C0
:10026000252519013F01011F20201F0F10201F3FCE
:1002700010103F3B04043B03043807312D232110A9
:100280002A2A3C3F2424181C2222141824243F1C10
:100290002A2A2C043E05014C52523E3F04043824C5
:1002A0003D20004040443D3F081422213F20003EB5
:1002B00004043E3E04023C1C22221C7E22221C1C02
:1002C00022227E3E040204242A2A12021F22201E19
:1002D00020201E0E10201E3E10103E360808364EFE
:1002E00050503E322A26221E29251E223F2000324F
:1002F0002929261221251A0C0A3F08172525191E1F
:10030000252518013905031A25251A0629291E0055
:100310002F00000020000002290502000404002430
:100320000F00F8FCFE1EEE6E5EFE3EDEDE3EFEFEC2
:10033000DE0EDEFE3EDEDE3EFEFEFEFEFEFEFEFECD
:100340000EFEFCF8000003070F0E3D1D0C0F0E0DF6
:100350000D0E0F0F0F0E0D0F0E0D0D0E0F0F0F0FB9
:100360000F0F0F0F0D0F0703008008FF0301B9A93E
:10037000FDA9E901A1010101010101010101010141
:10038000010101010101010101010101010101015D
:1003900001010183EF83013149FD85D5F90509018B
:1003A000A10101010101010101010101010101019D
:1003B0000101010183EF830101C161B979C9C9D18B
:1003C00061A161C101A101010101010101010183DB
:1003D000EF83010111C93DC90501A101010101011D
:1003E00001010101010101010103FF000000000002
:1003F00000000000000000000000000000000000FD
:1004000000000000000000000000000000000000EC
:10041000E8FCFFFFFF7E2E0000000000000000004F
:1004200000000000000000000000808080E0E0E0AC
:1004300080808080000000000000000000000000BC
:10044000000000747EFFFFFF3F3F7F7FFFFFFF3F05
:100450001700000000000000000000008080800005
:1004600000A0F0FCFCFCF8B80000808080000000D8
:100470000000000000747EFFFFFF3F170303070723
:10048000070100747EFFFFFF3F170000000000001F
:1004900000808080000000D0F8FEFEFEFC5C0000C2
:1004A00000808080000000000000747EFFFFFF3F9E
:1004B00017000101030303000000747EFFFFFF3FEC
:1004C00017000000008080800000000000E8FCFFB2
:1004D000FFFF7E2E00000000008080800000747E00
:1004E000FFFFFF3F170000000000010101000000B6
:1004F0000000747EFFFFFF3F171B1000000000008C
:1005000000000000000000000000000000000000EB
:1005100000000000000000000000000000000000DB
:10052000004854FE542400000000000000000000B9
:100530000000000000000000000000000080C080FB
:10054000800000000000000000000000000000002B
:10055000000000242A7F2A110A1F0A242A7F2A1257
:10056000000000000000000000000000000000008B
:1005700000002050F8509000000000000000000033
:10058000000000000000242A7F2A1200000101035D
:1005900001000000242A7F2A120000000000000051
:1005A000000000000000000090A8FCA84800000027
:1005B0000000000000000000000000242A7F2A1232
:1005C0000000000000010000000000242A7F2A1221
:1005D000000000000000000000000000000048547F
:1005E000FE54240000000000000000000000002471
:1005F0002A7F2A1200000000000000000000000016
:10060000000000242A7F2A1200F8FCFEFFFFFFFFF3
:10061000FFFFFFFFFFFFFFFFFFFFFFFFFFFFFFFFEA
:10062000FFFFFFFFFFFFFFFFFFFFFEFCF803070FC9
:100630001F3F7F3F1F1F1F1F1F1F1F1F1F1F1F1F2A
:100640001F1F1F1F1F1F1F1F1F1F1F1F1F1F0F07E2
:1006500003240F00F8FCFEFEFEFE1EEEEE1EFE1E44
:10066000FEFE1EFE3EDEFEBEFE0EBEBE7EFEFE0E8A
:10067000FEFEFEFEFCF8000003070F0F3F1F0E0DED
:100680000F0E0F0E0D0D0E0F0E0D0D0E0F0C0F0F8A
:100690000C0F0F0D0F0F0F0F070300461E00082849
:1006A000A8A28E3EFEFEFEF8C00000FEFEFEFEFE8C
:1006B000AE16EE30FA6C7878786CFA30E000000014
:1006C0000000000C70C03C00C020C000F020C02022
:1006D000C000E020C000D000E04000E800C02000E2
:1006E00060A00000000000020A2A28A38F1F7FFEDE
:1006F000F0FFFFFFFFFFFE05C0E0F0F9198C291D98
:1007000018FA3C8F2308020000006091E000F021FD
:10071000E100E1A0F9000100030100000100010077
:1007200000010000010001010000000000000000C5
:100730000000020A28A1871F7FFFFF7F0100C7CFAB
:10074000CF8F8C8AC87880A00000000000000000D5
:10075000F84808A800F800E0408040800080408011
:1007600010F8108040C000000000000000000000F1
:10077000000000000000000000000000020A080164
:100780000300000607030B01050002000000000043
:10079000000000000000030000030003000300034A
:1007A000000300010201000300010202000000003A
:1007B00000000000000808FFFFFFFFFFFFFFFF042D
:1007C000083E09093E3F25251A1E2121123F2121FD
:1007D0001E3F2525213F0505011E21293A3F04041E
:1007E0003F213F21001021211F3F040A313F2020DB
:1007F000203F02023F3F02043F1E21211E3F090904
:10080000061E21112E3F09093622252519013F0117
:10081000011F20201F0F10201F3F10103F3B04041A
:100820003B03043807312D2321102A2A3C3F24247E
:10083000181C2222141824243F1C2A2A2C043E05AA
:10084000014C52523E3F040438243D2000404044B5
:100850003D3F081422213F20003E04043E3E040296
:100860003C1C22221C7E22221C1C22227E3E0402D0
:1008700004242A2A12021F22201E20201E0E1020CD
:100880001E3E10103E360808364E50503E322A2684
:10089000221E29251E223F20003229292612212529
:1008A0001A0C0A3F08172525191E25251801390598
:1008B000031A25251A0629291E002F0000002000F2
:1008C000000229050200040400010204081020406F
:1008D000800102040506060E080102040506060E44
:1008E00008020C0B09070D0F03120C210900000B65
:1008F000060102040506060E080102040506060E9E
:1009000008010C0A09080D1003110C200900000C45
:100910000608080808080805050508080808080862
:100920000808080808080808080808080808080847
:100930000808080800000000000000000000000097
:1009400000000000000000000000000000000000A7
:10095000000000000800000000000000000000008F
:100960000000000000000000000000000000000087
:100970000000000000000000000000000000000077
:100980000000000000000000000000000000000067
:100990000000000000000000000000000000000057
:1009A0000000000202020000000000000000000041
:1009B0000000000000000000000000000000000037
:1009C000000000000008080800000000000000000F
:1009D0000000000000000000000000000000000017
:1009E00000000000000000000808000000000000F7
:1009F00000000000000000000000000000000000F7
:100A000000000000000000000000000800000000DE
:100A100000000000000000000000000000000000D6
:100A200000000000020000000000020204080000B4
:100A300000000000000000000000000000000000B6
:100A4000000000000000080000000000090909087B
:100A50000000000000000000000000000000000096
:100A6000000000000000000008000000000008086E
:100A70000808000000000000000000000000000066
:100A8000000000000000000000000800000000005E
:100A90000008080000000000000000000000000046
:100AA000000000000000000000000000080000003E
:100AB000000000080000000000000000000000002E
:100AC000000000000000000000000000000008001E
:100AD000000000000008000000000000000000000E
:100AE0000000000000000000000000000000000006
:100AF00008020200000000080000000000000000E2
:100B000000000000000000000000000000000000E5
:100B100000000808080200000008000000000000B3
:100B200000000000000000000000000000000000C5
:100B3000000000000808080800000008000000008D
:100B400000000000000000000000000000000000A5
:100B50000000000202040808080800000008000065
:100B60000000000000000000000000000000000085
:100B70000000000000090909080808080303030829
:100B8000030303080202020202020202020202023C
:100B9000020202020202020101010101010101013E
:100BA0000101010101010101010101010101010135
:100BB00001010101010101010108080808080805F7
:100BC00005050808080808080808080808080808AB
:100BD00008080808080808080808080800000000B5
:100BE0000000000000000000000000000000000005
:100BF00000000000000000000000000008000000ED
:100C000000000000000000000000000000000000E4
:100C100000000000000000000000000000000000D4
:100C200000000000000000000000000000000000C4
:100C300000000000000000000000000000000000B4
:100C4000000000000000000000000002020200009E
:100C50000000000000000000000000000000000094
:100C6000000000000000000000000000000808086C
:100C70000000000000000000000000000000000074
:100C80000000000000000000000000000000000064
:100C90000808000000000000000000000000000044
:100CA0000000000000000000000000000000000044
:100CB000000000080000000000000000000000002C
:100CC0000000000000000000000000000200000022
:100CD0000000020204080000000000000000000004
:100CE00000000000000000000000000000000800FC
:100CF00000000000090909080000000000000000D1
:100D000000000000000000000000000000000000E3
:100D100008000000000008080808000000000000AB
:100D200000000000000000000000000000000000C3
:100D3000000008000000000000080800000000009B
:100D400000000000000000000000000000000000A3
:100D50000000000008000000000000080000000083
:100D60000000000000000000000000000000000083
:100D70000000000000000800000000000008000063
:100D80000000000000000000000000000000000063
:100D9000000000000000000008020200000000083F
:100DA0000000000000000000000000000000000043
:100DB0000000000000000000000008080802000019
:100DC000000800000000000000000000000000001B
:100DD00000000000000000000000000008080808F3
:100DE00000000008000000000000000000000000FB
:100DF00000000000000000000000000202040808DB
:100E000008080000000800000000000000000000CA
:100E100000000000000000000000000000090909B7
:100E20000808080803030308030303080202020278
:100E30000202020202020202020202020202020193
:100E40000101010101010101010101010101010192
:100E50000101010101010101010101010101010182
:100E60000108080808080808080808080808080809
:100E700008060505050608080808080808080808FF
:100E8000080808000000000000000000000000004A
:100E90000000000000000000000000000000000052
:100EA00000000000000B0000000000000000000037
:100EB0000000000000000000000000000000000032
:100EC00000000000000A0806060000000000000202
:100ED00006020000000004020202020202000000FA
:100EE0000000000000000A08080D0D0000000000CE
:100EF00000060606000000000606060606060600B6
:100F000000000000000000000808080000000000C9
:100F10000000000808080000000A000000000000AF
:100F2000000A000000000000060606060600000099
:100F30000A00000000000000000000080303030393
:100F4000030303080000000000000D0D0D0D0D004F
:100F50000000080000000000000000000008080871
:100F60000808080808080000000000000000000051
:100F70000000000008000000000000000000000069
:100F80000000000000000000000000000000000061
:100F9000000000000000080A000000000A0A040027
:100FA0000000000000000000000000000000000041
:100FB00000000A0A0400000008080A0000000909ED
:100FC0000900000000000000000A000000000A0004
:100FD00000000E0E060606000000080808000000CB
:100FE000080808000000000000000A080A000000CD
:100FF000080A000006060606060A0A040808080091
:101000000000000000000000000A0A0408080800B0
:10101000000008080A0A0000000000090909080881
:10102000080A040A0A0A0A0A0A0A0A09090908082F
:101030000803030308080808030303030308080858
:10104000080808080101010101010101010808085F
:10105000080808010101010101010101010101006C
:101060000000000000000000000000000000000080
:101070000000000000000000000000000000000070
:101080000000000000000000000000000000000060
:101090000000000000000000000000000000000050
:1010A0000000000000000000000000000000000040
:1010B0000000000000000000000000000000000030
:1010C00000000A0A0A0A0A0A0A0A040A00000003BF
:1010D00003030101010101010101010103030300F7
:1010E00002070E070200000002070E0702000000C0
:1010F00000000207020000000000020702000000DA
:1011000000110400000204020000000000020402BA
:1011100000000000000000020000000000000002CB
:10112000000000000000000002070E07020000009F
:1011300002070E0702000000000002070200000084
:101140000000020702000011040000000002040277
:101150000000000000020402000000000000000285
:10116000000000000000000200000003030303036E
:101170000303030000030303033F3F0000000000DC
:1011800000FFFF0000E0E0E0E0FEFEE0E0E0E0E085
:10119000E0E0E0FEFEE0E0E0E00000FFFF00000035
:1011A0000000003F3F0303030300000808000101A3
:1011B0000101010100000000010101011F00000008
:1011C000000000007E000000404040407C004040A5
:1011D00040404040007C404040400000007E000015
:1011E00000000000001F01010101000000E0F0E02C
:1011F000E0F0E0E0070840204040604040087CFE0E
:101200007FFE6702087CFE7FFE6E0407080008640C
:101210001E6402000008641E64040070F8FEFFFFF4
:10122000FFFFFFFFFEFEFFFFFFFAF0600000020776
:101230000707020000000000020707070260F0FA3B
:10124000FFFFFFFEFEFFFFFFFFFFFFFEF87002073C
:1012500007070200000000000207070702000070F5
:10126000F8FEFFFFFFFFFFFFFEFEFFFFFFFAF0604B
:1012700060F0FAFFFFFFFEFEFFFFFFFFFFFFFEF83B
:10128000700000000ECEFEF8F8F8F8F8F8F8F0F06C
:10129000E7E7E7FCFC7C707000000000000E0EEE3B
:1012A000E1EF0F7F7F7F0F0F0F1F1F1F1FDFDFDF9C
:1012B0001F1E1C00000000000000000000000000D5
:1012C000000000000000000001010100000000001B
:1012D00000000000000070707CFCFCE7E7E7F0F025
:1012E000F8F8F8F8F8F8F8FECE0E0000000000005C
:1012F000001C1E1FDFDFDF1F1F1F1F0F0F0F7F7F51
:101300007F0FEFE1EE0E0E00000000000000000174
:1013100001010000000000000000000000000000CB
:10132000000000000007E7F7FCFCFCFCF8F8F8E020
:10133000E7F7FFFCFCA00E8EBEF8F8E0000000EE20
:10134000EEEF8F8F7F7FFFEFEF0F07071D1F1FFF50
:10135000F8FC1F3F3F3C00000000000003030300B7
:10136000000000000000000000000101010000007A
:10137000000000000000E0F8F8BE8E0EA0FCFCFFAC
:10138000F7E7E0F8F8F8FCFCFCFCF7E707000000E2
:1013900000003C3F3F1FFCF8FF1F1F1D07070FEF1A
:1013A000EFFF7F7F8F8FEFEEEE0000000000000068
:1013B0000001010100000000000000000000000327
:1013C00003030000000000E0F8F8BE8E8EE0FCFC95
:1013D000FFC7F770F0D0F0F83CFEFEF7E3031C1CEB
:1013E000000000787F7F3FF1F1C70E0F0F7F767707
:1013F0008F8FEFEEEE8E80EEEEEE0000000000002C
:1014000000000101010000000000000303030000D0
:101410000303030000001C1C03E3F7FEFE3CF8F08E
:10142000D0F070F7C7FFFCFCE08E8EBEF8F8E0004D
:101430000000EEEEEE808EEEEEEF8F8F77767F0F70
:101440000F0EC7F1F13F7F7F78000000000000031E
:10145000030300000303030000000000000101017A
:10146000000000000000000000E0E7E70700000EB9
:101470000E0E0707070000000E0E0E0070707707B3
:101480001F1C003838380ECECEC00000008080808F
:10149000000000808080000000EEEEEE0000000002
:1014A000000001010100000003030300000003032A
:1014B00003030303000000001C1F07777070000E79
:1014C0000E0E0000000707070E0E0E000007E7E7EC
:1014D000E0000000EEEEEE000000808080000000E2
:1014E000808080000000C0CECE0E3838380000006A
:1014F00000000303030303030000000303030000D1
:10150000000101010000000000110B0070186E1EA8
:10151000DE1272767C186A1EDA106000000000028B
:10152000030200000000000000020302000060103F
:10153000DA1E6A187C767212DE1E6E1870000002C7
:10154000030200000000000000020302000000117E
:10155000080070186E1E5E1272767C186A1E5A1091
:1015600060000060105A1E6A187C7672125E1E6E51
:101570001870001B12000000000480C070F0F09092
:10158000002060C080A2E0A0080020000000000051
:101590000000040040000400260004000707000EBD
:1015A000020C820A020C0000000000000000000093
:1015B000000000000000000000000000000000002B
:1015C0000000000000000000000000200008A0E073
:1015D000A280C060200090F0F070C0800400000085
:1015E0000000000000000C020A820C020E00070737
:1015F0000004002600040040000400000000000079
:1016000000000000000000000000000000000000DA
:10161000000000000000001B1200000002406038C3
:101620007800F090002060C280A8E0A000040010C4
:1016300040000000000044000000042006400400B8
:101640000707000E020098041405180000000000AF
:101650000000000100000000000000000000000089
:10166000000000000000000000000000004010002A
:101670000400A0E0A880C260200090F000783860EC
:101680004002000000000000001805140498000249
:101690000E0007070004400620040000004400007C
:1016A000000000000000000000000000000000003A
:1016B00000000000000001000000001B12080000F4
:1016C0000140600C1800B09000200082002860A04B
:1016D000000400104000000000004400000004402E
:1016E00006000400220600060200802000093000E7
:1016F00000000000000000010000000001000000E8
:1017000000000000000000000000000000000000D9
:10171000004010000400A06028008200200090B06B
:1017200000180C60400100000800000000300900B3
:10173000208000020600062200040006400400008B
:101740000044000000000000000000000000000055
:101750000000000000010000000001000000001B6C
:101760001208000200200000000400000000000237
:1017700000000400000000024000000000004400DF
:101780000000000000000000000000000000000059
:1017900080040000100000000000000002000001B2
:1017A0000000000000010000000000000000000038
:1017B00000000000004002000000000400000200E1
:1017C00000000000040000002000020008000010DB
:1017D0000000048000000000000000000000000085
:1017E00000000000004400000000000000000000B5
:1017F00000000000010000000000010000020000E5
:10180000000000080818247E42467C020418247E4A
:1018100062667C020418247E72767C020418247EA0
:101820007E7E7C020403051F111F001F001D15177B
:1018300011151F07041F17151D1F151D01011F1F5F
:10184000151F17151F080800000000000000000DFC
:101850009F2D970D9F2D974040404040404040288D
:101860000404484804042840404F09ED094F40054E
:1018700002050205020502A54299B5A59942A55A9D
:101880008739D6D639875A5A8739D6D639875A8270
:101890005A9A42985A9A58405040604050406018B6
:1018A000247E426A7C0204EEDD9D71EFDE9D7BFAB0
:1018B0003F001FFA1F003F5FFC00F85FF800FC08C4
:1018C0000B000202020100090400000102020000F4
:1018D0000524001001052401010104240206052449
:1018E0000600010705810310004009040100020AF7
:1018F00000000007050202400000070583024000C7
:10190000000403090412010002EF020140412336E2
:101910008000010102030141726475696E6F204C01
:101920004C430041726475696E6F204C656F6E6147
:1019300072646F009A2F11241FBECFEFDAE0DEBF72
:10194000CDBF11E0A0E0B1E0E0E8F3E602C0059011
:101950000D92A238B107D9F726E0A2E8B1E001C0A4
:101960001D92A438B207E1F71CE0CBE9DCE004C02B
:101970002197FE010E947031CA39D107C9F70E9430
:101980006E1F0C94BE310C940000CF92DF92EF9248
:10199000FF920F931F93CF93DF936C017A018B011A
:1019A000C0E0D0E0CE15DF0589F0D8016D918D0142
:1019B000D601ED91FC910190F081E02DC6010995D1
:1019C000892B11F47E0102C02196ECCFC701DF9173
:1019D000CF911F910F91FF90EF90DF90CF900895DE
:1019E0008091AB05E091A905F091AA05882349F003
:1019F000CF0102969093AA058093A90585919491B1
:101A00000895CF0102969093AA058093A90580813D
:101A1000918108958091820108950895089580E04C
:101A200090E008950E94B931CF93DF9300D000D0A9
:101A3000CDB7DEB7611571058105910579F09B0180
:101A4000AC0169833A834B835C830E94B530298162
:101A50003A814B815C810E94D93003C060E070E024
:101A6000CB010F900F900F900F90DF91CF910895C1
:101A70003FB7F8948091990190919A01A0919B01B0
:101A8000B0919C0126B5A89B05C02F3F19F0019687
:101A9000A11DB11D3FBFBA2FA92F982F8827820FF4
:101AA000911DA11DB11DBC01CD0142E0660F771F44
:101AB000881F991F4A95D1F708958F929F92AF92F0
:101AC000BF92CF92DF92EF92FF926B017C010E9456
:101AD000380D4B015C01C114D104E104F104F1F0B3
:101AE0000E94380DDC01CB0188199909AA09BB09AC
:101AF000883E9340A105B10570F321E0C21AD108D8
:101B0000E108F10888EE880E83E0981EA11CB11C44
:101B1000C114D104E104F10419F7DDCFFF90EF9077
:101B2000DF90CF90BF90AF909F908F9008951F92BD
:101B30000F920FB60F9211242F933F938F939F9381
:101B4000AF93BF938091830190918401A09185010F
:101B5000B09186013091980123E0230F2D3720F4B6
:101B60000196A11DB11D05C026E8230F0296A11DF7
:101B7000B11D209398018093830190938401A093D9
:101B80008501B09386018091990190919A01A0916D
:101B90009B01B0919C010196A11DB11D80939901FB
:101BA00090939A01A0939B01B0939C01BF91AF9138
:101BB0009F918F913F912F910F900FBE0F901F908B
:101BC0001895CF92DF92EF92FF920F931F93CF93CE
:101BD000DF930E94F00C811520E8920761F4809158
:101BE00071008D7F80937100109291004698479804
:101BF000109291018BC021E020939101813020E867
:101C0000920751F48091A7059091A8059093AA0599
:101C10008093A9050E94F00C97FD05C020919001CA
:101C2000222309F43FC020918F0121113BC021E004
:101C300020939201EC01DF77209769F481E0809393
:101C4000930146983FE9C32E3FE0D32EE12CF12CBF
:101C5000CAEFD0E014C08E0120E030E060E472E40E
:101C60008FE090E0A90198010E94D93069017A01C2
:101C700081E0C81AD108E108F10810929301E091BF
:101C8000BB05F091BC050995811103C081E08093EB
:101C90009301809192018823B9F180919301811180
:101CA00033C003C010929201C5CF46992DC0479A08
:101CB0000E94F00C009771F09C01DE010E942D3112
:101CC000DC01CB0129E0B595A795979587952A95D5
:101CD000D1F703C08FEF9FEFDC01109290002AE054
:101CE00020939100D0929900C09298008093940123
:101CF00090939501A0939601B09397018091710004
:101D000082608093710002C04798D2CFDF91CF915B
:101D10001F910F91FF90EF90DF90CF9008951F9249
:101D20000F920FB60F9211242F933F934F935F930F
:101D30006F937F938F939F93AF93BF93EF93FF9393
:101D40008091940190919501A0919601B091970195
:101D5000892B8A2B8B2B81F18091930181110BC0F0
:101D600098B180E4892788B980919201882319F07D
:101D700088B1805888B98091940190919501A09183
:101D80009601B0919701181619061A061B06B4F4AD
:101D90008091940190919501A0919601B091970145
:101DA0000197A109B1098093940190939501A093A3
:101DB0009601B093970102C00E94E10DFF91EF914F
:101DC000BF91AF919F918F917F916F915F914F9153
:101DD0003F912F910F900FBE0F901F9018956F920B
:101DE0007F928F929F92AF92BF92CF92DF92EF92AB
:101DF000FF920F931F93CF93DF9300D000D0CDB706
:101E0000DEB73A014115510509F401C2FA01F49017
:101E100031965491F2E06F0E711CAF2CB12C211150
:101E200002C0EE2069F1A52FA695A695A695B0E073
:101E3000E1E0F0E0352F377011F4E0E0F0E0AE0FB4
:101E4000BF1FAA9EF001AB9EF00DBA9EF00D1124AB
:101E5000A3E08A2EC81003C0EE0FFF1F0AC00115B1
:101E6000110539F0EE9ED001EF9EB00D11240A0F3E
:101E70001B1F2E9FD0012F9FB00D11246A0E7B1EB9
:101E80002FEFC21208C00115110519F0CC24C3941C
:101E900002C032E0C32EDC01AA0DBB1D1A161B06C0
:101EA0000CF0B5C1803891050CF0B1C19B01250F34
:101EB000311D121613060CF0AAC1603471050CF026
:101EC000A6C16114710409F4A2C1362F3770932E94
:101ED000FB0177FD379623E0F595E7952A95E1F725
:101EE0002E2F77FF04C0992011F02FEF2E0F97FFB0
:101EF00005C0EE27FF27E81BF90B02C0E0E0F0E089
:101F0000A038B1051CF030E8381B01C03F2D3E1B46
:101F1000622F022E000C770B2F3F1CF4462F4095AA
:101F200001C040E0B1E0A52FA77009F4B0E05695DC
:101F300056955695DB2ED50E6D0D711D69307105C8
:101F40001CF058E0D52ED21AD41A240FDC0150E828
:101F50002503A00DB11D1124AE0FBF1F4F9DE00D35
:101F6000F11D1124A3014E0F5F1F81E090E07C0161
:101F7000092C02C0EE0CFF1C0A94E2F783E0C8169D
:101F800009F404C18C15A8F091E0C91609F4B5C094
:101F9000E2E0CE123CC18FEF8E9DB0018F9D700D9F
:101FA0001124609570957C836B837C806D2C620E10
:101FB0002BC0FAEFCF1631F09BEF892EC81027C146
:101FC000D20E87C0D20E51C0FA01E00FF11FE4918A
:101FD000EE9D6001EF9DD00C1124DA82C98227FDAD
:101FE00007C0FC01D080ED2DE623CE2AFC01C08283
:101FF000911013C00F5F1F4F0196031728F32F5F37
:102000004A0D5B1DA058BF4F261509F400C1CD0134
:1020100082569E4F00E010E0F0CF27305CF7FC01C5
:10202000E058FF4FC080C7208A80C828C082E2CF16
:10203000FA01E60FF71FE491EE9D8001EF9D100D70
:1020400011241A83098327FD04C0FC011081012B90
:102050000083911013C06F5F7F4F0196631740F3A9
:102060002F5F4A0D5B1DA058BF4F2D1509F4CFC03F
:10207000CD0182569E4F60E070E0F0CF27305CF7D4
:102080008C0100581F4FF801C080FA81CF2AF80157
:10209000C082E1CFFA01E00FF11FE491EE9DC00193
:1020A000EF9D900D11249A83898327FD05C08095AB
:1020B000FB01908189238083911014C00F5F1F4F13
:1020C0006F5F7F4F031730F32F5F4A0D5B1DA058E2
:1020D000BF4F2D1509F49BC0BD0162567E4F00E035
:1020E00010E0F0CF273054F7FB01E058FF4F8A8112
:1020F0008095908189238083E1CF0E0F1F1F8D2C47
:10210000820E281509F483C0CD0182569E4F6C01C2
:1021100060E070E0631790F5F801E60FF71FE491B7
:10212000EE9DC001EF9D900D1124809590959C83AC
:102130008B83FA01E60FF71FE491EE9D3001EF9DCE
:10214000700C11247A82698227FD05C0F601908106
:102150008923682A6082992059F027304CF4F601CF
:10216000E058FF4F90818C8189239A81892B80834D
:102170006F5F7F4FFFEFCF1ADF0ACCCF2F5F4A0D83
:102180005B1D0A0D1B1DA058BF4FBBCF832F90E0D6
:10219000E40FF51FA256BE4F60E870E0681B790B94
:1021A000A81AB90A8501000F111F5D2D832ECF9348
:1021B000DF93ED01EF96EF962296A590C5909920BA
:1021C00059F0AE9C5001CE9C600127302CF4F88071
:1021D000D094FD20FB28F99222233AF0FC90C09481
:1021E000FC20FA28FD920C94F61011963A9529F7E6
:1021F0005A9551F0382D23951124E00FF11DA60FAB
:10220000B11DC60FD11DD9CFDF91CF9111240F90F1
:102210000F900F900F90DF91CF911F910F91FF9032
:10222000EF90DF90CF90BF90AF909F908F907F9076
:102230006F900895CF92EF920F931F933BEFC32EB1
:10224000E12C00E010E00E94EF0E1F910F91EF9043
:10225000CF900895CF92EF920F931F93CF93DF9378
:10226000FC0196816A3031F4858184836185960F03
:10227000968342C0262FEF01848161E0690F2F33DE
:10228000A1F164F42E32A1F01CF42132A9F027C090
:1022900090ED920F9A3018F52C5F0FC02134FCF0AE
:1022A0002B3544F09FE9920F9A31C8F4275405C0AA
:1022B0002FE303C0215401C02EE33F81062E000C02
:1022C000770B082E000C990B313089F43AEFC32EAE
:1022D000E12C00E010E04FEB57E00E94EF0E888504
:1022E0008C5F9C81890F8C8307C020E4E6CF4FEB85
:1022F00057E00E941A11F3CF81E090E0DF91CF9177
:102300001F910F91EF90CF900895CF92EF920F937E
:102310001F9332E0C32EE12C00E010E00E94EF0E8C
:102320001F910F91EF90CF900895BC0180E090E055
:102330000C945D0D8FB18095807F669B88601C9B9F
:1023400084600895FC01840F911D18161906E4F5A8
:10235000E038F105CCF5F7FF02C0E0E0F0E08138AD
:10236000910514F080E890E0382F3E1BAB0177FF19
:1023700002C0495F5F4F83E0559547958A95E1F725
:102380005695542F442757954795E40FF51FE2566D
:10239000FE4F6770772781E090E001C0880F6A9553
:1023A000EAF7482F222349F0213071F4315020F010
:1023B0008081842B8193FACF08958095315020F04D
:1023C000908198239193FACF089560387105D0F4E5
:1023D00040345105B8F4E9ECF8E080E1849FD00185
:1023E000A0781124A60F4770E40FF11D8491A25626
:1023F000BE4F222319F06C91862B03C080956C91FF
:1024000086238C930895FC019081992359F01CF444
:102410009C3F34F40895913041F0993044F0089590
:10242000990F06C08FEF80830895108208959595C7
:1024300090830895FC0190819F3F69F01CF4983FC0
:1024400034F40895992349F0953054F0089597FD98
:102450009F5F959506C01082089581E0808308955E
:10246000990F908308958F929F92BF92CF92DF929F
:10247000EF92FF920F931F93CF93DF931F92CDB7ED
:10248000DEB7E82E21E040E860E070E080E090E018
:102490000E94A21180908D0190908E018401F12CF8
:1024A0000038110514F584E0C82ED12C30E08F2DB2
:1024B0008170B82E932F9170B11002C019F00BC02B
:1024C000992349F020E045EB57E0B601C801398374
:1024D0000E94851139813F5F88E0C80ED11C3730DA
:1024E00049F7F394085F1F4FDBCF21E040E86FE32B
:1024F00070E080E090E00E94A2118091000680FDD3
:102500001FC0EE2069F081E0881A910881E88816E2
:102510008FEF980654F410928E0110928D0110C026
:102520008FEF881A980A97FE05C090928E018092CC
:102530008D0106C080E89FEF90938E0180938D01FE
:102540000F90DF91CF911F910F91FF90EF90DF904F
:10255000CF90BF909F908F900895EF92FF920F932E
:102560001F93CF93DF9300D0CDB7DEB78B0195E0FB
:10257000899F70011124C70188559F4F0E94C33065
:10258000F8018083C70187559F4F0E94C330F8012F
:102590008183C70186559F4F0E94C330F801828313
:1025A0001A821982BE016F5F7F4FC70185559F4F09
:1025B0000E94A71489819A81F801948383830F90E4
:1025C0000F90DF91CF911F910F91FF90EF900895A1
:1025D0008A3038F4883048F4813039F0863019F484
:1025E00004C08C3011F080E0089581E00895EF92EE
:1025F000FF920F931F93CF93DF931F92CDB7DEB758
:102600007C01FC0100811181C80169830E94C330F3
:102610006981681719F0C8010E94CB30C7010F907B
:10262000DF91CF911F910F91FF90EF900895EF925E
:10263000FF920F931F93CF93DF9300D0CDB7DEB7F8
:102640008C017B01FB0160819A838983CE01019615
:102650000E94F712F70161810F5F1F4F1A830983F0
:10266000CE0101960E94F712C7010F900F90DF91E3
:10267000CF911F910F91FF90EF900895CF93DF932B
:1026800000D0CDB7DEB79A838983CE0101960E9430
:10269000F7120F900F90DF91CF9108950F931F9332
:1026A000CF93DF9300D0CDB7DEB7082F86EA90E056
:1026B0000E94C330182F87EA90E00E94C3300111B6
:1026C00004C0133511F4833441F11A82198263E591
:1026D00086EA90E00E943E1363E487EA90E00E945D
:1026E0003E1308EA10E060E0C8010E943E1360E07B
:1026F000C80101960E943E1360E0C80102960E9444
:102700003E13BE016F5F7F4FC80103960E941713EF
:102710000B5F1F4F013C110531F70F900F90DF91B8
:10272000CF911F910F91089520910306282329F43A
:1027300090910206982381E009F480E00895CF92F9
:10274000EF920F931F9384E00E949413882339F033
:102750009091F80581E089278093F805F3C0809176
:1027600000069091010683709927892B09F0EAC031
:102770008091F905811116C00E949A1185FF08C049
:102780008FEE95E00E94031281E08093F1050AC06C
:102790000E949A1186FF06C08FEE95E00E941A12E1
:1027A0001092F1050E949A1183FF8CC08091F1056F
:1027B0008823B9F0813079F52091AC058091EB0543
:1027C0009091EC05A091ED05B091EE05BD01685F1B
:1027D0007F4FCC24C394E22E0FED10E141E051E194
:1027E00014C02091AC058091EB059091EC05A0916F
:1027F000ED05B091EE05BD01685F7F4FCC24C39419
:10280000E22E05E211E147E451E18091E905909162
:10281000EA050E94EF0E809100069091010665E0A6
:1028200070E00E944831892B31F48091AC058F5FB4
:1028300081708093AC058091F005882359F024F4D1
:102840008C3F7CF0880F0BC0813031F089304CF424
:10285000859505C08FEF03C01092F00502C08093EC
:10286000F005809171008D7F809371001092AB050F
:102870008DEA95E09093AA058093A9059093A80509
:102880008093A70521E230E03093AE052093AD059B
:1028900082E390E09093B0058093AF0541E450E06F
:1028A0005093B2054093B1059093B4058093B3055E
:1028B0003093B6052093B5059093B8058093B7057E
:1028C0000E94E10D80910006909101068770992782
:1028D000892BC1F50E949A1183FD18C08091F005E3
:1028E0008F3F71F01CF4883F3CF410C0882359F0EE
:1028F000853064F4880F08C087FD8F5F859504C01C
:102900001092F00503C081E08093F0050E949A11B7
:1029100085FD18C00E949A1186FD14C08091EF05B4
:10292000181624F48FEE95E00E9403128091EF05B3
:1029300087FF08C08FEE95E01F910F91EF90CF9029
:102940000C941A121F910F91EF90CF9008950F934E
:102950001F93CF93DF938C01EB010E94C3308883D8
:10296000C80101960E94C3308983CE01DF91CF91C7
:102970001F910F910895BF92CF92DF92EF92FF9235
:102980000F931F93CF93DF9396E0899FF00111245B
:10299000E15CFE4F908121814281042E000C550B99
:1029A000660B770BBA01552744274093BD0550931A
:1029B000BE056093BF057093C0054381042E000CD3
:1029C000550B660B770BBA01552744274093C10579
:1029D0005093C2056093C3057093C4054481042ECF
:1029E000000C550B660B770BBA0155274427409313
:1029F000E7055093E8056093E9057093EA05458182
:102A0000042E000C550B660B770BBA015527442793
:102A10004093EB055093EC056093ED057093EE0544
:102A20001092EF051092F00531E03093F10548EC7B
:102A300050E05093F4054093F3051092F70510927F
:102A4000FC051092FB053093F8053093F90580934F
:102A5000C50530E0A901D3E0440F551FDA95E1F731
:102A60005093C7054093C605892F90E0AC0113E051
:102A7000440F551F1A95E1F75093C9054093C805B7
:102A80003093CB052093CA059093CD058093CC0558
:102A90008FEF8093A005AEECB5E0ED91FD91108233
:102AA000118212821382E5E0A83DBE07B1F7E091E2
:102AB000C505F0E0EE0FFF1FE95CFE4FC081D1813C
:102AC000E12CB12C0E2D10E08091CA059091CB0520
:102AD00008171907B0F5F12CEF2DF0E02091CC0587
:102AE0003091CD05E217F30750F5029FC001039F17
:102AF000900D129F900D1124E80FF91FEC0FFD1F90
:102B0000E491EB30D1F4EB2DF0E0EE0FFF1FE35436
:102B1000FA4FC188D288F601F082E18268E270E063
:102B200080E090E00E94140DDC01CB018896A11D8D
:102B3000B11DF60182838383B394F394CDCFE394E4
:102B4000C1CFDF91CF911F910F91FF90EF90DF9058
:102B5000CF90BF90089580E0EEE9F1E081118FEF12
:102B6000002481938193819381930394D1F70895F5
:102B7000EEE9F1E080E0A0E0B8E000800EBC811159
:102B8000012C1197A0FDFDCF0192B9F70DB4089566
:102B9000CF92DF92EF92FF921F93CF93DF93E0915A
:102BA000C505F0E0EC5CFE4F1081C12ED12CE12C6C
:102BB000F12CC701B6010E94140DD62FC701B60132
:102BC0000E94140DC62F1130B1F08091A005D813CA
:102BD00006C0C701B6010E94140DD62FF4CF809114
:102BE000A305D81308C0F5CFDC1307C0C701B60191
:102BF0000E94140DC62F1130B9F72091C50530E0A1
:102C0000220F331FF901E45DFE4F608171818D2F2A
:102C100090E0880F991FFB01E80FF91F4491409342
:102C2000A1050196FB01E80FF91FE491E093A205CD
:102C3000D093A005F901EC5DFE4F408151818C2FAE
:102C400090E0880F991FFA01E80FF91F2491209353
:102C5000A4050196FA01E80FF91FE491E093A50598
:102C6000C093A30510929E0581E08093A6056AE0BB
:102C700070E080E090E00E94140DDC01CB010A9628
:102C8000A11DB11D80939F05DF91CF911F91FF90F2
:102C9000EF90DF90CF900895CF93DF931F92CDB741
:102CA000DEB74B3079F018F4443049F13DC083EF82
:102CB000840F8230C8F583E390E09093FC05809305
:102CC000FB0532C0209100063091010623703327A6
:102CD000232B51F5AEECB5E0ED91FD919081981369
:102CE0002CC09181961329C082818823E9F08091BC
:102CF000F3059091F405883C910530F115C0909151
:102D0000F705992389F02091A40530E0281B3109AB
:102D100037FF03C03195219531092230310524F464
:102D20008091A5058617D1F08091F805811137C0F3
:102D30008091F005181644F132C095E0A83DB9071E
:102D400059F6E0E0F0E0D0CF01969093F40580933F
:102D5000F3058281811181508283E6CF1092F705BD
:102D600020919F058091F5059091F605820F911DA8
:102D70009093F6058093F50549830E94C81587E274
:102D800080939D014981D0CF842F0E94E81288232F
:102D900031F083E390E09093FC058093FB050F9066
:102DA000DF91CF9108958F929F92AF92BF92CF9271
:102DB000DF92EF92FF920F93CF93DF936B01EC01C1
:102DC0004C01840E911C5B01A20EB11CC815D905E3
:102DD000ECF47601D7FE10C0E12CF12C0DC0E81602
:102DE000F90694F4202FA701BE018DEF95E00E9413
:102DF000E5112FEFE21AF20AC50121E4A216B1048F
:102E000074F380E490E0EBCF2196E0CFDF91CF9197
:102E10000F91FF90EF90DF90CF90BF90AF909F9079
:102E20008F900895FC0180916F06811103C08FEF90
:102E30009FEF08959FB7F89482E08093E900209176
:102E4000F20030E01216130614F421E030E02115F0
:102E5000310559F0289884E680936E068091F10040
:102E600080838091F200882319F09FBFC9010895E3
:102E70008BE68093E800F9CF2FB7F89483E0809336
:102E8000E9009091E800892F807295FF04C090912D
:102E9000F20080E4891B2FBF0895CF93DF931F9228
:102EA000CDB7DEB76983DC01ED91FC910280F3813F
:102EB000E02D41E050E0BE016F5F7F4F09950F901C
:102EC000DF91CF91089583E08093E9008091F20033
:102ED000882319F08AE38093E80008950E943C1744
:102EE00090E00895CF93DF931F92CDB7DEB7FC013A
:102EF0008485958597FD05C02FEF3FEF35872487A3
:102F00000BC0CE0101960E941217019719F4898116
:102F100090E002C08FEF9FEF0F90DF91CF91089567
:102F20000F931F93CF93DF931F92CDB7DEB78C0122
:102F3000FC018485958597FF0EC0CE0101960E9405
:102F40001217019719F4298130E002C02FEF3FEFEB
:102F5000F80135872487F801848595850F90DF91E6
:102F6000CF911F910F910895FC018485958597FD60
:102F70000BC09FB7F89482E08093E9008091F20043
:102F80009FBF90E0019608959FB7F89482E08093E8
:102F9000E9008091F2009FBF90E008958F929F9288
:102FA000AF92BF92CF92DF92EF92FF920F931F9357
:102FB000CF93DF935C016B017A0180911B01882321
:102FC00009F45BC080916F06882309F456C0809194
:102FD0006D0680FF05C08091E00082608093E00074
:102FE000E70110E00AEF83E0882E9AE3992E2097FC
:102FF000D9F10E943C1781110AC0015009F43DC06B
:1030000061E070E080E090E00E945D0DF0CF282F3D
:1030100030E0C217D3070CF48C2F4FB7F89480928E
:10302000E9009091E80095FF1DC0282F30E0C21BF9
:10303000D30BF601982F915020F081918093F100ED
:10304000FACFC20ED31E112319F09092E80009C0E6
:103050008091E80085FD06C09092E80011E020977D
:1030600009F010E04FBFC3CF1111C3CF5D9884E6C4
:1030700080936C061E141F0444F081E090E0F5017B
:103080009383828380E090E001C0C701DF91CF91FC
:103090001F910F91FF90EF90DF90CF90BF90AF9076
:1030A0009F908F9008954F925F926F927F928F9230
:1030B0009F92AF92BF92CF92DF92EF92FF920F93C7
:1030C0001F93CF93DF93E091C505F0E0EE0FFF1F54
:1030D000E95CFE4F40805180712CC72CD12C80912F
:1030E000CA059091CB05C816D90608F0B9C056019B
:1030F00083E0AA0CBB1C8A95E1F710E0E12FF0E019
:103100002091CC053091CD05E217F30708F09FC060
:103110008091BD059091BE05A091BF05B091C005FD
:10312000EF0143E0CC0FDD1F4A95E1F7CA0FDB1F2B
:103130004091C1055091C2056091C3057091C405CD
:10314000CE0108968838910508F07FC07501E60E1B
:10315000F71EC70108968834910508F076C0C29E14
:10316000C001C39E900DD29E900D1124E80FF91F4F
:10317000E40DF51D2491243049F02B3009F448C0AA
:10318000222309F462C045E458E15BC024E045E431
:1031900058E1B701CE010E94851101E027E045E02A
:1031A000B70162507109CE0102960E94D316809138
:1031B0007106843108F049C08091C50590E0FC019A
:1031C000EC5CFE4F0081880F991FFC01EC5DFE4F07
:1031D0008080918020E081E0E81AF1082396201792
:1031E000A1F1F40184913196E49166246394620E16
:1031F000181309C07E1207C0262D45E258E1B70119
:10320000CE010E941A11262DF2E08F0E911CE7CFFD
:10321000AEECB5E0ED91FD91808181131AC0818102
:10322000871117C0828124E0829FC001112463812D
:1032300070E00E945C31262F643008F023E043E008
:1032400058E1B701CE010E9485111F5F57CF7394DB
:1032500044CF85E0A83DB807E9F6E0E0F0E0E2CF32
:10326000DF91CF911F910F91FF90EF90DF90CF9062
:10327000BF90AF909F908F907F906F905F904F9096
:1032800008958F929F92AF92BF92CF92EF920F9339
:103290001F938091FB059091FC058632910570F497
:1032A0008F319105B8F4009709F1489708F44EC0A2
:1032B0008BEF07E614E14FE557E126C08D3291050B
:1032C00078F0C49708F042C08BEF01E812E143E7C1
:1032D00055E11AC08BEF05EC13E14BEB56E114C03E
:1032E0008BEF03E213E147E156E10EC08091F80550
:1032F000811105C00FE512E14FE455E105C080E002
:103300000BE112E149E055E141155105F9F0209139
:10331000F105082E000C990B8090EB059090EC05C0
:10332000A090ED05B090EE05BC016A0D7B1D80906C
:10333000E7059090E805A090E905B090EA05CC2457
:10334000C394E22E8A0D9B1D0E94EF0E1F910F91D8
:10335000EF90CF90BF90AF909F908F9008952F9255
:103360003F924F925F926F927F928F929F92AF9215
:10337000BF92CF92DF92EF92FF920F931F93CF9362
:10338000DF93CDB7DEB728970FB6F894DEBF0FBE38
:10339000CDBF4091A10508E0409FA0011124C0903D
:1033A000BD05D090BE05E090BF05F090C005C701F7
:1033B000BB2797FDB095AB2F89839A83AB83BC83E2
:1033C0002091A20598E0299F100111248090C10549
:1033D0009090C205A090C305B090C4058501332725
:1033E00017FD3095232F0D831E832F833887E0919F
:1033F000F705E11117C089819A81840F951F893FD4
:103400001FEF91077CF08038910564F46D817E8117
:10341000620D731D683F2FEF720724F06034710551
:103420000CF4B3C080917006853009F004C140905F
:10343000E7055090E8056090E9057090EA058091F5
:10344000EB059091EC05A091ED05B091EE05609132
:103450007106643108F0EFC0EE2361F04091A405DD
:1034600038E0439FA00111242091A50568E0269F24
:103470001001112469817A81695F7F4F640F751F84
:103480006738710560F46D817E81620D731D683F40
:10349000EFEF7E0724F0603471050CF4CCC083019B
:1034A000332717FD3095232F0D831E832F833887F5
:1034B0008D01332717FD3095232F09831A832B8322
:1034C0003C834C185D086E087F0846195709881917
:1034D0009909AA09BB09F101EA1BFB0BED80FE80EB
:1034E000FF24882799278E199F0948175907B4F494
:1034F000C801992722273327281B390BE217F30726
:103500000CF06CC027E060E008E310E0D801A81BD5
:10351000B90BEA17FB070CF06FC00AC080E890E017
:103520008E199F09481759070CF469C020E060E024
:1035300080E0A0E8B0E0AE19BF094A175B07CCF005
:1035400049815A815527AA27BB27A41BB50BEA1727
:10355000FB070CF063C021E060E088E7A8E3B0E07F
:103560008D01041B150BE017F1071CF023E060E34D
:1035700088E770E0CC24C394E22E0BE611E14BEA1D
:1035800051E190E00E94EF0E56C03091A6052091C7
:103590009E053323D9F0CC24C394E22E0DEF11E124
:1035A0004BE052E10E94EF0E8091000690910106DF
:1035B0006FE070E00E944831892BE9F581E090913D
:1035C0009E05911180E080939E0535C0CC24C39464
:1035D000E22E0DEE11E144EF51E1D4CF28E330E0CB
:1035E000281B390BE217F3072CF4698164506E0F26
:1035F00026E08ACF20E087CF25E060E399CFF7FF70
:1036000005C08D81840F20E060E093CF309709F4EE
:103610008DCF8D81840F24E060E38BCFA8E3B0E0F1
:10362000A41BB50BEA17FB070CF098CF6981645017
:103630006E0F22E092CF28960FB6F894DEBF0FBE31
:10364000CDBFDF91CF911F910F91FF90EF90DF9051
:10365000CF90BF90AF909F908F907F906F905F9032
:103660004F903F902F9008950F931F93CF93DF9328
:103670008C01C0E0D0E0F801EC0FFD1F64916623DF
:1036800071F0E091DD05F091DE050190F081E02D13
:103690008DED95E00995892B11F02196ECCFCE01A7
:1036A000DF91CF911F910F9108958F929F92AF92CA
:1036B000BF920F931F93CF93DF93CDB7DEB7A19740
:1036C0000FB6F894DEBF0FBECDBF19A2423008F48A
:1036D0004AE08E010F5D1F4F842E912CA12CB12C3E
:1036E000A50194010E940B31E62FB901CA010150D6
:1036F0001109EA3014F4E05D01C0E95CD801EC93F3
:10370000232B242B252B61F70115110571F0F801EE
:1037100001900020E9F73197AF01401B510BB80130
:103720008DED95E00E94C50C02C080E090E0A1966E
:103730000FB6F894DEBF0FBECDBFDF91CF911F91C2
:103740000F91BF90AF909F908F9008954F925F928E
:103750006F927F928F929F92AF92BF92CF92DF92A1
:10376000EF92FF920F931F93CF93DF93EC018B01A6
:10377000442ECB018C1B9D0B97FF03C09195819527
:10378000910955245394813891053CF4512CC8017A
:1037900000E810E0E12CF12C0FC00C171D0734F0ED
:1037A0007E0180E890E0C0E0D0E006C078018E01A4
:1037B00080E090E0C0E8D0E038016E187F085C013E
:1037C000AC1ABD0AB7FE03C0B194A194B10863015D
:1037D00077FE03C02FEFC21AD20AD594C794C81738
:1037E000D90714F08FEF01C081E0882E880F990867
:1037F0000E151F05C4F0242D552019F0A701BE0198
:1038000002C0AE01B7018DEF95E00E94E511CA1824
:10381000DB08D7FE04C0C80DD91DC60CD71C8FEF1E
:10382000E81AF80AE5CFDF91CF911F910F91FF9031
:10383000EF90DF90CF90BF90AF909F908F907F9050
:103840006F905F904F9008958091760681110DC022
:1038500082E08093720684E080937306109275066E
:103860001092740681E08093760682E796E00895D0
:103870004091820650918306209180063091810606
:1038800042175307B4F49091E8009570E1F39091DA
:10389000E80092FD19C08093F1008091820690911A
:1038A000830601968F739927892B19F48EEF8093E5
:1038B000E80080918206909183060196909383069A
:1038C0008093820681E0089580E00895DF92EF9270
:1038D000FF920F931F93CF93DF93D82E8A017B0122
:1038E000E40EF51EEB01CE15DF0571F0D7FE03C027
:1038F000FE01849101C088810E94381C21968111AB
:10390000F2CF8FEF9FEF01C0C801DF91CF911F91E0
:103910000F91FF90EF90DF900895615030F020916B
:10392000F100FC0120830196F8CF289884E680936B
:103930006E0608950F931F93CF93DF931F92CDB719
:10394000DEB782E0898342E450E06FEB78E180E803
:103950000E94661C0E94241CDC0112960D911C9191
:1039600013970115110569F0D801ED91FC910280C2
:10397000F381E02DBE016F5F7F4FC801099597FF6E
:1039800007C089810F90DF91CF911F910F9108950A
:10399000F80100851185E5CF1F920F920FB60F92A7
:1039A00011248F939F938091E1009091E100937F88
:1039B0009093E10083FF0FC01092E90091E0909393
:1039C000EB001092EC0092E39093ED0010926F06E2
:1039D00098E09093F00082FF20C093E09093E9007C
:1039E0009091F200992319F09AE39093E800909156
:1039F0006C06992339F090916C06915090936C0667
:103A0000992389F190916E06992339F090916E0671
:103A1000915090936E06992341F184FF10C08091DC
:103A2000E2008E7E81608093E2008091E1008F7ED3
:103A30008093E10080916D068E7E806111C080FFD1
:103A400016C08091E2008E7E80618093E2008091BA
:103A5000E1008E7E8093E10080916D068E7E816014
:103A600080936D0604C05D9ACDCF289AD6CF9F91E2
:103A70008F910F900FBE0F901F9018951F920F926D
:103A80000FB60F921124CF92DF92EF92FF920F9315
:103A90001F932F933F934F935F936F937F938F93D6
:103AA0009F93AF93BF93EF93FF93CF93DF93CDB7E4
:103AB000DEB76C97DEBFCDBF1092E9008091E800C1
:103AC00083FFEDC168E0CE0145960E948D1C82EF18
:103AD0008093E8008D8987FF05C09091E80090FFF2
:103AE000FCCF03C09EEF9093E800982F907609F0EA
:103AF000C6C09E892F89188D91110CC0803829F479
:103B000080917F068093F10002C01092F100109224
:103B1000F10048C1422F50E0512B913051F48111F6
:103B200041C14130510509F03DC180917F068D7F33
:103B30000BC0933061F4811135C14130510509F05A
:103B400031C180917F06826080937F062BC19530C2
:103B500041F48091E80080FFFCCF20682093E300CF
:103B600021C1963009F05FC0EB8CFC8C1092E9000B
:103B70001092830610928206123091F510928106FF
:103B8000109280060E949A1C99E0BE016F5F7F4FE1
:103B9000DB01E92F1D92EA95E9F799831A8391E0F9
:103BA0009E8390EA98879AEF9987209182063091B8
:103BB0008306275F3F4F3C832B838D831092E90060
:103BC0001092830610928206F0928106E09280069F
:103BD00049E050E080E00E94661C0E949A1CE2C00E
:103BE000F0928106E09280060E94241CDC0112966D
:103BF000ED90FC901397E114F10409F4C0C0D701D3
:103C0000ED91FC910480F581E02DBE016B5E7F4F4C
:103C1000C7010995009719F00CF0C4C0C7C0F7019F
:103C2000E084F184E8CF973009F4C0C0983021F4E3
:103C300081E08093F100B6C0993009F0B3C0837081
:103C400009F0B4C0ECE7F1E081E021E036E39081D7
:103C5000992361F08093E9002093EB009191909378
:103C6000EC003093ED008F5F873089F78EE780930B
:103C7000EA001092EA008F8980936F0693C08B8DC3
:103C80009C8D1092E9001092830610928206909308
:103C9000810680938006898D811156C08E899D8909
:103CA000913A59F4813209F081C047E050E064E173
:103CB00071E080E00E94661C75C0913209F076C008
:103CC000833289F4888D90E0982F88272F89822B62
:103CD000A0E0B0E080931C0190931D01A0931E0111
:103CE000B0931F015FC0803269F48091E80082FFC9
:103CF000FCCF67E084E191E00E948D1C8BEF809304
:103D0000E80006C0823209F04DC08F8980931B0104
:103D100080917E06882319F0EEEFFAE002C0E0E021
:103D2000F8E08091140190911501A0911601B091D5
:103D30001701803B9440A105B10509F07BC080913B
:103D40001B0180FF93C076C00E94241CDC011296E8
:103D50000D911C9113970115110541F1D801ED91B9
:103D6000FC910190F081E02DBE016B5E7F4FC80198
:103D70000995811117C0F80100851185ECCF11302C
:103D800009F44EC0133091F48F89882309F445C09B
:103D9000823081F440E860E183E299E10E942A30B8
:103DA000882321F08EEF8093E80079C081E2809330
:103DB000EB0075C0813029F440E86BE087E199E1C0
:103DC000EDCF833099F70E94241CDC011296ED9010
:103DD000FC9013978E010F5F1F4F6801E114F104EF
:103DE00079F0D701ED91FC910680F781E02DB801C3
:103DF000C7010995080F111DF701E084F184EECF8A
:103E0000D8011C92F60101900020E9F73197BF011B
:103E10006C197D0940E0C601C1CF61E079E102C0C3
:103E200065E079E16115710509F2FB01449150E00B
:103E300080E840CF0FB6F894A89580916000886123
:103E400080936000109260000FBEA895EE3F2AE0BC
:103E5000F20739F08091FE0A9091FF0A91838083E6
:103E6000A1CF1092FF0A1092FE0A9CCFEE3F8AE08B
:103E7000F80731F0808191819093FF0A8093FE0AC8
:103E800087E797E7918380839BE088E10FB6F894FA
:103E9000A895809360000FBE9093600083CF6C96CE
:103EA0000FB6F894DEBF0FBECDBFDF91CF91FF916B
:103EB000EF91BF91AF919F918F917F916F915F91A2
:103EC0004F913F912F911F910F91FF90EF90DF90B5
:103ED000CF900F900FBE0F901F901895CF93DF9348
:103EE000CDB7DEB7A0970FB6F894DEBF0FBECDBF3B
:103EF000789484B5826084BD84B5816084BD85B5C5
:103F0000826085BD85B5816085BD80916E008160D0
:103F100080936E0010928100809181008260809376
:103F20008100809181008160809381008091800078
:103F300081608093800080919100826080939100E5
:103F400080919100816080939100809190008160C8
:103F5000809390008091C10084608093C100809123
:103F6000C10082608093C1008091C1008160809314
:103F7000C1008091C30081608093C3008091C00024
:103F800082608093C0008091C20081608093C200F3
:103F900080917A00846080937A0080917A008260B8
:103FA00080937A0080917A00816080937A0080917A
:103FB0007A00806880937A0010926F0610927F06D4
:103FC00010926D068091D70081608093D70080EABF
:103FD0008093D80089B5806189BD89B5826089BD2B
:103FE00009B400FEFDCF61E070E080E090E00E9447
:103FF0005D0D8091D8008F7C80618093D800809186
:10400000E000807F8093E0008091E1008E7E8093CD
:10401000E1008DE08093E200559A209AEEEFFFE7F1
:10402000859194918B3F9C4D19F481E080937E069D
:1040300081EC80937C0085B1806F85B984B1877EE7
:1040400084B984B1876E84B95E9A5F988AB1806DB5
:104050008AB9769A6E9881B3806F81BB899880B354
:104060008D7080BB80E58CBD81E08DBD85E090E0EA
:104070000E9495115F9A85E090E00E9495115E98EC
:104080005C98E0ECF0E08DE08E0F94919EBD000016
:104090000DB407FEFDCF31968E13F7CF5C9A81E801
:1040A00080936400809165008160809365000E9428
:1040B000B8150E949A1187FF15C05C9885EA8EBDDD
:1040C00000000DB407FEFDCF5C9A2E982F982D9816
:1040D0008091640080628093640081E083BF889552
:1040E00013BEFCCF02E010E00E949A1182FF40C094
:1040F0002D980E949A1184788438C1F00E949A11F8
:104100008471843181F52D9A88EC90E00E9495119C
:104110002E981A83098360E0CE0101960E94F7125F
:1041200084EF91E00E9495112E9A18C02D9A88EC88
:1041300090E00E9495112F981A8309836FEFCE01AA
:1041400001960E94F71284EF91E00E9495112F9A38
:104150000E949A1184788438D9F3D0CF0E949A11A2
:1041600084718431D9F388EC90E00E949511BCCF22
:104170002D9A82E090E00E94C330882331F03E9A6D
:104180003F9A81E08093820104C0109282013E98A0
:104190003F980E94AB1580E18093040680E00E9466
:1041A0004E13AE014F5F5F4F588F4F8B8FB7F89410
:1041B0004091830150918401609185017091860145
:1041C0008FBF80910506942F981B892F909106062A
:1041D000992331F080930706109206060C94AA2BBF
:1041E00090910406891758F48F5F891710F00C948A
:1041F000AA2B81E083BF889513BE0C94AA2B81E083
:104200008093060640930506809100069091010672
:104210000196909301068093000680910206809398
:1042200003060E949A11809302060E94AB15E0914A
:1042300070068E2F90E08A30910508F0C0C7FC010F
:10424000EA5AFF4F0C94703120E04BE956E061E1EF
:1042500070E08DE190E00E94851180910401882337
:1042600079F0813009F058C01092000110920101DC
:1042700090E49093020180930301109204019FC780
:104280008091000187FD42C08091020190E0209161
:104290000101821B910997FD019695958795D82E6E
:1042A000E12CF12C40910001ED1448F58701000F3D
:1042B000111F80910101B801680F711D60347105F3
:1042C0002CF420E080E090E00E94A2118091010196
:1042D000B801680F711D6F5F7F4F809100016034DE
:1042E00071054CF420E0482FA0E8B0E0A81BB1090C
:1042F000CD010E94A211BFEFEB1AFB0AD3CF47FDFD
:1043000005C080910301480F409300018091000196
:1043100087FF55C70C94692C8150809304014FC7C7
:1043200080E00E94BB140E94C8151092F10582E043
:104330008093700680E8809306011092070180E464
:104340008093080181E0809309012091A10580916B
:10435000BD059091BE05A091BF05B091C0053D017E
:10436000E8E02E9F600C711C1124F090A2052091B2
:10437000C1053091C2054091C3055091C405298FF4
:104380003A8F4B8F5C8F8091E7059091E805A09163
:10439000E905B091EA051D01552437FC5094452CE0
:1043A0003E8E2D8E8090EB059090EC05A090ED0553
:1043B000B090EE054501BB2497FCB094AB2CB40142
:1043C0006C507109CC24C394E12C09E016E020E084
:1043D00041E556E0C1010E94EF0E0E9453180E9471
:1043E00041190E94AF190E949F138091EB05909193
:1043F000EC05A091ED05B091EE050097A942B1053D
:1044000034F08091F005181614F40C94B42B41E1AB
:10441000240E311C621473040CF0D1C657E0650EF3
:10442000711C6D8D7E8D661577050CF0C8C68B8D61
:104430009C8D78E0F79E800D911D11249401A8E0D9
:104440008A0E911C881599050CF0B9C60896281794
:1044500039070CF0B4C654C681E080938C0183E028
:104460008093FA051092F6051092F50584E080938A
:1044700070061092AC058AE08093050180918C0152
:104480000E94BB140E94C81585E08093700680913D
:104490000006909101066CE370E00E944831892B80
:1044A00039F480910501811103C087E08093700683
:1044B000809171068F5F68E20E943C319093710693
:1044C00080918B01882319F0815080938B0180911A
:1044D0008A01882339F0815080938A01811102C0BA
:1044E0000E94C8150E9453188091FB059091FC050D
:1044F000892B09F07AC10E949F138091F7058111E1
:1045000040C08091A6058823E1F10091E705109154
:10451000E8052091E9053091EA05C090EB05D090BF
:10452000EC05E090ED05F090EE054091A10580913D
:10453000BD059091BE05A091BF05B091C005BD011C
:1045400058E0459F600D711D11244091A205809196
:10455000C1059091C205A091C305B091C405CD01DC
:10456000E8E04E9F800D911D1124AB01495F5F4F24
:104570004738510530F4883FBFEF9B0714F00C9487
:10458000B92BFE0131968F89815F11928E13FDCF79
:10459000E091C505F0E0EE0FFF1FE95CFE4FA08043
:1045A000B1808091EB059091EC05A091ED05B09163
:1045B000EE05AD01772757FD7095672F8091C105F6
:1045C0009091C205A091C305B091C405CD01BB2750
:1045D00097FDB095AB2F1A01281A390A0091E7050B
:1045E0001091E8052091E9053091EA05890133270A
:1045F00017FD3095232F8091BD059091BE05A091A8
:10460000BF05B091C005CD01BB2797FDB095AB2F7D
:10461000081B190BF3E016950795FA95E1F7882426
:104620008394800EA2E09A2E900E7101B3E0F6946E
:10463000E794BA95E1F73701772428015524809152
:10464000CC059091CD05689EF001699EF00D789E95
:10465000F00D1124E40DF51DEA0DFB1D4491CC2451
:10466000C394D12CCC0EDD1EC40ED11CD6018C916E
:10467000811107C06E2D802F0E944C1681E0F6013B
:104680008083282D30E03A8F298F8091CC0590913E
:10469000CD05689EF001699EF00D789EF00D112405
:1046A000E20FF31FEA0DFB1D4491CC24C394D12CDF
:1046B000CC0EDD1EC40ED11CD6018C91811107C019
:1046C0006E2D882D0E944C1681E0F6018083C92C46
:1046D000D12C8091CC059091CD05689EF001699E0A
:1046E000F00D789EF00D1124EC0DFD1DEA0DFB1D63
:1046F000449166246394712C6C0E7D1E640E711CB3
:10470000D3018C91811107C06E2D892D0E944C160A
:1047100081E0F3018083F8E02F16310408F465C0CE
:10472000E3946E2C712C8091CC059091CD05689E00
:10473000F001699EF00D789EF00D1124E40DF51D39
:10474000EA0DFB1D449122242394312C2C0E3D1E96
:10475000240E311CD1018C91811107C06E2D802F48
:104760000E944C1681E0F10180838091CC059091EC
:10477000CD05689EF001699EF00D789EF00D112424
:10478000298D3A8DE20FF31FEA0DFB1D449101E0E4
:1047900010E00C0F1D1F040F111DD8018C91811109
:1047A00007C06E2D882D0E944C1681E0F801808391
:1047B0008091CC059091CD05689EF001699EF00D29
:1047C000789EF00D1124EC0DFD1DEA0DFB1D4491AA
:1047D000E1E0F0E0EC0FFD1FE40FF11D808181119D
:1047E00004C06E2D892D0E944C160E9441198091A3
:1047F0009D01882381F127E230E0281B310937FF32
:1048000002C0295F3F4FB3E035952795BA95E1F790
:104810008091EB059091EC05A091ED05B091EE052E
:10482000BD016A5071098091E7059091E805A0915A
:10483000E905B091EA05CC24C394E22E0BEE13E017
:1048400049EF54E0CD0105970E94EF0E80919D0144
:10485000815080939D010E94AF1920E049E653E00A
:1048600068E370E080E090E00E9485118DE0809325
:10487000E2058093E10589E38093E3058091F505E6
:104880009091F605FE0131962F892B5F6AE070E06A
:104890000E9448318193CB012E13F8CF8E010A5F1D
:1048A0001F4FD8016E918D0170E080E090E04AE0EA
:1048B0000E94551BEF89F88D0E171F0791F719E31A
:1048C0001093E2051093E1051093E3058091F30541
:1048D0009091F4056AE070E00E944831082FCB0106
:1048E0006AE070E00E944831F82ECB016AE070E087
:1048F0000E944831BC0180E090E04AE00E94551BD4
:104900006F2D70E080E090E04AE00E94551B602F20
:1049100070E080E090E04AE00E94551B8EE58093B5
:10492000E2058093E1051093E3058091FA050AE022
:10493000602F0E943C31692F70E080E090E04AE0F7
:104940000E94551B83E78093E2058093E105109355
:10495000E30580919F05602F0E943C31192F0E9432
:104960003C31692F70E080E090E04AE00E94551BE6
:10497000612F70E080E090E04AE00E94551B80913A
:104980008B018823C9F1809171068431A8F580914B
:10499000EB059091EC05A091ED05B091EE05BD0100
:1049A0006C507109CC24C394E12C09E016E020E09E
:1049B0004FE153E08091E9059091EA050E94EF0EE6
:1049C0002091A3052B5C8091EB059091EC05A091C3
:1049D000ED05B091EE05BD01685071098091E705C4
:1049E0009091E805A091E905B091EA0545E152E012
:1049F000CD0149960E941A1180918A018823E9F01D
:104A0000809171068431C8F48091EB059091EC059A
:104A1000A091ED05B091EE05BD016C507109CC245B
:104A2000C394E12C09E016E020E041E556E08091D6
:104A3000E9059091EA050E94EF0E8091700686309C
:104A400009F041C000E020E14EE567E170E082E15D
:104A500090E00E94D31621E04CE569E170E083E12B
:104A600090E00E94A21121E04CE566E270E083E153
:104A700090E00E94A21120E04CE567E270E083E143
:104A800090E00E94A21186E18093E2058093E10507
:104A90008CE18093E3058EE092E00E94341B6091EC
:104AA0008C0170E080E090E04AE00E94551B81E0BC
:104AB00092E00E94341B88E00E949413882319F02E
:104AC00084E0809370068091FB059091FC05892B12
:104AD000D9F480910006909101066FE070E00E9489
:104AE0004831892B89F48091F3059091F405019761
:104AF0009093F4058093F305892B31F483E390E0E0
:104B00009093FC058093FB058091FB059091FC053B
:104B10008230910551F0D8F084339105C0F40197AB
:104B20009093FC058093FB0512C081E090E0909388
:104B3000FC058093FB058091FA0581508093FA056E
:104B4000882311F086E001C087E080937006809191
:104B5000F705882309F433C380910006909101067C
:104B60006FE070E00E944831892B09F028C38091E2
:104B700089018F5F8B3018F48093890120C31092D4
:104B8000890181E090919F05911180E080939F05BC
:104B900016C381E00E94331200E02FE140E860E19B
:104BA00070E080E090E00E94D31640E06DE070E09D
:104BB0008DE090E00E94A61B40E06FE070E08FE087
:104BC00090E00E94A61B41E061E170E081E190E08D
:104BD0000E94A61B41E06DE270E08DE290E00E9431
:104BE000A61B40E06FE270E08FE290E00E94A61BFF
:104BF00040E061E370E081E390E00E94A61B20E0CA
:104C000049E651E064E170E089E190E00E9485119D
:104C100084E28093E2058093E10583E28093E305DB
:104C200082E691E00E94341B8091F5059091F60593
:104C3000FE0131962F892B5F6AE070E00E944831B7
:104C40008193CB012E13F8CF8E010A5F1F4FD8013D
:104C50006E918D0170E080E090E04AE00E94551B6B
:104C6000EF89F88D0E171F0791F788E00E949413C3
:104C70008111B2C584E00E9494138111ADC51092D8
:104C80008C019DC28FEF8093D8051092D9051092A8
:104C9000DA051092DB051092DC058091F505909104
:104CA000F6059E8B8D8B00E010E0B12C1A821982E4
:104CB0006801FBEACF0ED11CBE016F5F7F4FC601BA
:104CC0000E94A71429813A818D899E892817390766
:104CD00030F4FFEBEF2EF12CA4E0AA2E09C0B39420
:104CE0000B5F1F4F25E0B212E1CFBB24BA943EC048
:104CF000BA1420F5AA94BE016F5F7F4F8A2D0E94DF
:104D0000AD126981C70103970E943E136A81C701F2
:104D100002970E943E136B81C70101970E943E13C8
:104D20008C819D81998B888BBE01605F7F4FC7010D
:104D30000E94171335E0E31AF108DACF60E0C801EA
:104D400088559F4F0E943E1360E0C80187559F4FD2
:104D50000E943E1360E0C80186559F4F0E943E139B
:104D6000BE016B5E7F4FC6010E9417131FEFBE018D
:104D70006F5F7F4F812F0E94AD121F5F1430B9F714
:104D8000B092D80589E08093700680E88093060190
:104D90001092070180E48093080181E0809309016B
:104DA00080E00E94331200E020E442E560E070E021
:104DB00087E190E00E94D31600E010E021E0A80116
:104DC00068E170E08DEF95E00E94E5110F5F1F4FE5
:104DD0000034110599F700E010E021E0A80167E632
:104DE00070E08DEF95E00E94E5110F5F1F4F0034DA
:104DF000110599F720E040ED50E066E070E08CE1AD
:104E000090E00E94851105E110E0912CE6E0BE2EB5
:104E1000AF88AB0CBE01605F7F4F892D0E94AD1241
:104E2000288945E152E0B80183E290E00E948511B3
:104E3000298945E152E0B80189E290E00E9485119C
:104E40002A8945E152E0B8018FE290E00E94851185
:104E5000AF89B88DEB2D1D92EA95E9F78B899C8976
:104E60009E012F5F3F4F6901F9016AE070E00E94E7
:104E700048318193CB01AE12F8CF79E5E72EF12CC2
:104E8000D6012D916D012C5C45E152E0B801C701BE
:104E90000E948511B5E0EB1AF108EBE3EE16F10480
:104EA00079F79394085F1F4FF5E09F12B3CF1091ED
:104EB000D8051F3F09F41BC1809188018F5F809343
:104EC00088018F30E8F428E0129FB00111246C5E55
:104ED0007F4F20E04DEC50E08EE190E00E94851184
:104EE0006091D80538E0639FB00111246C5E7F4F5C
:104EF00020E04DEC50E081E690E00E94851104C076
:104F00008F3110F0109288018091D9056091D805F9
:104F100081111EC048E0649FB00111246C5E7F4F78
:104F200001E028E046E082E290E00E94D316609122
:104F3000D80558E0659FB00111246B5E7F4F20912A
:104F4000DA0545E152E083E290E00E941A110EC0BA
:104F500088E0689FB00111246B5E7F4F2091DA05D5
:104F600045E152E083E290E00E9485118091D905ED
:104F70006091D8058130F1F498E0699FB001112467
:104F80006C5E7F4F01E028E046E088E290E00E94FE
:104F9000D3166091D805A8E06A9FB00111246B5E1A
:104FA0007F4F2091DB0545E152E089E290E00E94CD
:104FB0001A110EC0B8E06B9FB00111246B5E7F4FD9
:104FC0002091DB0545E152E089E290E00E948511E5
:104FD0008091D9056091D8058230F1F4E8E06E9FA8
:104FE000B00111246C5E7F4F01E028E046E08EE2C4
:104FF00090E00E94D3166091D805F8E06F9FB00151
:1050000011246B5E7F4F2091DC0545E152E08FE279
:1050100090E00E941A110EC028E0629FB001112496
:105020006B5E7F4F2091DC0545E152E08FE290E01E
:105030000E9485111091D90580E80E94941388235D
:1050400059F0E12FF0E0E852FA4F82818A3111F4F1
:10505000128202C08F5F828380E10E9494138823B2
:1050600059F0E12FF0E0E852FA4F8281811102C03D
:1050700089E101C08150828380E20E9494138823D9
:1050800029F0112319F011501093D90580E40E94E2
:105090009413882339F08091D905823018F48F5FFA
:1050A0008093D90588E00E949413882309F487C06F
:1050B0000091D80535E0039F800111246091DA0545
:1050C000C80188559F4F0E943E136091DB05C801BF
:1050D00087559F4F0E943E136091DC05C80186559D
:1050E0009F4F0E943E138FEF8093D80568C00E94A7
:1050F0009A1187FF75C30E949A1184FD8DC370C3F6
:10510000809164008E7F8093640080917A00806437
:1051100080937A0080917A0086FDFCCF0091780020
:10512000109179000E94380D20E030E0980111279D
:105130000027600F711F821F931F61157105810584
:10514000910511F00E94BA308091640081608093D3
:105150006400809171008D7F809371001092AB0587
:105160008DEA95E09093AA058093A9059093A805F0
:105170008093A7058BE092E09093AE058093AD05F8
:1051800082E390E09093B0058093AF0526E231E092
:105190003093B2052093B1059093B4058093B30585
:1051A00025EA30E03093B6052093B5059093B80515
:1051B0008093B7050E94E10D83E0809370060E9402
:1051C000B8151091F005812F012E000C990BAA0B38
:1051D000BB0BDC01992788276C017D01FF0CCC08F3
:1051E000DC2C76019C01AD016C2D7C2D8C2D9C2D31
:1051F00000E10E9476317901042FB52FF62FE72FB9
:105200006C01A0E00E94AD3174F421503109484F87
:105210005F4F6F4F7F4F8F4F9F4F7901042FB52FF7
:10522000F62FE72F6C019701402F5B2F6F2F7E2FFA
:10523000C60103E10E948F312D8F3E8F4F8F58A3FF
:105240008091EF05082E000C990BAA0BBB0BDC011B
:10525000992788276C017D01FF0CCC08DC2C760196
:105260009C01AD016C2D7C2D8C2D9C2D00E10E94AC
:1052700076317901042FB52FF62FE72F6C01A0E0CE
:105280000E94AD3174F421503109484F5F4F6F4F88
:105290007F4F8F4F9F4F7901042FB52FF62FE72FA8
:1052A0006C019701402F5B2F6F2F7E2FC60103E10A
:1052B0000E948F31298F3A8F4B8F5C8F17FF7FC0F1
:1052C000E091C505F0E0EE0FFF1FE95CFE4FC080E6
:1052D000D1804091E7055091E8056091E905709112
:1052E000EA058090BD059090BE05A090BF05B090E6
:1052F000C0054090C1055090C2056090C3057090F4
:10530000C4058091EB059091EC05A091ED05B0915D
:10531000EE05CD01BB2797FDB095AB2F8301332759
:1053200017FD3095232F801B910B9C01277033278D
:10533000232B09F0D0C0AB01772757FD7095672F5D
:105340004501BB2497FCB094AB2C481959098A013C
:10535000A3E016950795AA95E1F7B3E09695879592
:10536000BA95E1F781502091CC053091CD05829F0F
:105370007001839FF00C1124F701E00FF11DEC0D7B
:10538000FD1D84910E94E8128111CCC081E0800F44
:10539000F701E80FF11DEC0DFD1D84910E94E8124C
:1053A0008111C0C00E5FF701E00FF11DEC0DFD1D76
:1053B00084910E94E812882309F48DC0B3C01116AD
:1053C0000CF0B0C08091F805811102C038E001C036
:1053D0003BE0E091C505F0E0EE0FFF1FE95CFE4FFA
:1053E000C080D1808091E7059091E805A091E90502
:1053F000B091EA054090BD055090BE056090BF0594
:105400007090C0058090C1059090C205A090C30522
:10541000B090C4054091EB055091EC056091ED050D
:105420007091EE05AB01772757FD7095672F7501D9
:105430001127F7FC1095012F4E195F09FA01E30FB0
:10544000F11D9F01AF0147705527452B09F0FCC2A4
:10545000CD01BB2797FDB095AB2F2301772457FCD7
:105460007094672C841995098C01B3E01695079503
:10547000BA95E1F713E0369527951A95E1F78091F3
:10548000CC059091CD05289F7001299FF00C112427
:10549000F701E00FF11DEC0DFD1D84910E94E81253
:1054A0008111C9C281E0800FF701E80FF11DEC0DF9
:1054B000FD1D84910E94E8128111BDC20E5FF701AB
:1054C000E00FF11DEC0DFD1D84910E94E812882370
:1054D00009F4BAC2B0C28091F205882339F0815034
:1054E0008093F205811102C01092F8051092F9051F
:1054F0008090EB059090EC05A090ED05B090EE0546
:1055000077FE42C2811491045CE1A506B1040CF45B
:10551000E2C1811491047CE1A706B10409F4EAC157
:105520000CF0F7C18091EF0587FF80C0E091C505C1
:10553000F0E0EE0FFF1FE95CFE4FA080B1804090CD
:10554000BD055090BE056090BF057090C0050091EC
:10555000E7051091E8052091E9053091EA058901F8
:10556000332717FD3095232FC301BB2797FDB09537
:10557000AB2FF801E81BF90B0091EB051091EC053E
:105580002091ED053091EE054091C1055091C20585
:105590006091C3057091C405CF0187709927892B4D
:1055A00009F0BEC0C901BB2797FDB095AB2FAB0179
:1055B000772757FD7095672F7C01E41AF50A67017C
:1055C00033E0D694C7943A95E1F78090CC0590905B
:1055D000CD0543E0F695E7954A95E1F7E1500E2FAA
:1055E00010E0C89CF001C99CF00D1124E00FF11FE0
:1055F000EA0DFB1D84910E94E8128111ABC057E0B7
:10560000E522FF24EF2809F48BC0C394C89CF00165
:10561000C99CF00D1124E00FF11FEA0DFB1D8491D0
:105620000E94E812882309F47BC094C018160CF07D
:1056300091C0E091C505F0E0EE0FFF1FE95CFE4F61
:10564000608071808090BD059090BE05A090BF05E0
:10565000B090C0058091E7059091E805A091E9051B
:10566000B091EA058D010F5E1F4F0A191B09C0900A
:10567000EB05D090EC05E090ED05F090EE05409143
:10568000C1055091C2056091C3057091C405C80160
:1056900087709927079709F047C36701FF24D7FC54
:1056A000F094EF2CAB01772757FD7095672F7601AB
:1056B000E41AF50A6701A3E0D694C794AA95E1F726
:1056C0004090CC055090CD05B3E016950795BA955E
:1056D000E1F70F5F10E0C49CF001C59CF00D1124B0
:1056E000E00FF11FE60DF71D84910E94E812811171
:1056F00031C077E0E722FF24EF2809F415C3C394F3
:10570000C49CF001C59CF00D1124E00FF11FE60DC3
:10571000F71D84910E94E812882309F405C31AC07A
:105720008090E7059090E805A090E905B090EA0523
:1057300077FEC7C28114910468E3A606B1040CF495
:105740006DC28114910438E3A306B10409F475C253
:105750000CF08CC280E090E0892B11F40C94D620E0
:105760000E9400000C94D62081E08093F8050C94F0
:1057700007228034910514F00C94C122890133274B
:1057800017FD3095232FF80198012F5E3F4F6217C8
:10579000730714F00C94C122E417F50714F00C946D
:1057A000C1226701FF24D7FCF094EF2C9601E8E0BA
:1057B000CE0ED11C8C159D0514F00C94C1220896B8
:1057C0002817390714F00C94C12280E580938A01D0
:1057D0001092A6050C94C12288E0809370064FCAEF
:1057E00080918701882369F083E884BD8FEF87BDAE
:1057F00081EF809380001092880010928A001092AE
:10580000870188E00E949413811158C084E00E94AF
:105810009413811153C0D3CC809187018F5F809303
:105820008701853170F38D3390F420E430E0A901D5
:10583000481B5109CA01880F93E894BD17BD91EF29
:10584000909380001092880080938A00DACF8D3385
:10585000C1F61092870183E884BD17BD81EF809364
:1058600080001092880010928A0081E00E944E13FE
:10587000809171008D7F809371001092AB058DEA4D
:1058800095E09093AA058093A9059093A80580932D
:10589000A70587E194E09093AE058093AD0584E67B
:1058A00090E09093B0058093AF0580E090E89093EE
:1058B000B2058093B1050E94E10D81CC83E884BDDF
:1058C0008FEF87BD81EF8093800010928800109247
:1058D0008A0081E072CC6D8D7E8D8F8D98A14616E9
:1058E0005706680679060CF09DC0461A570A680AE2
:1058F000790A7CC08091CC059091CD05409709F044
:105900006DC08091CA059091CB05089709F066C0DB
:1059100076C08D8D9E8DAF8DB8A1880D991DAA1D65
:10592000BB1D81309105ECE1AE07B1054CF08093D1
:10593000EB059093EC05A093ED05B093EE05F2CD49
:10594000FCE16F0E711C481859086A087B082D8D00
:105950003E8D4F8D58A1421A530A640A750A40922F
:10596000C1055092C2056092C3057092C40540E023
:1059700050E06CE170E04093EB055093EC056093D0
:10598000ED057093EE05CECD8D8D9E8DAF8DB8A1BA
:10599000B095A095909581959F4FAF4FBF4F8815BB
:1059A0009905AA05BB058CF46D8D7E8D8F8D98A110
:1059B000860E971EA81EB91E8092EB059092EC05EC
:1059C000A092ED05B092EE05ADCD1092EB051092D0
:1059D000EC051092ED051092EE05A4CD2D8D3E8DB7
:1059E0004F8D58A1421A530A640A750A4092C105A4
:1059F0005092C2056092C3057092C40593CD8D8C00
:105A00009E8CAF8CB8A03CE1A30EB11C8418950805
:105A1000A608B7088092EB059092EC05A092ED05E0
:105A2000B092EE051092C1051092C2051092C30506
:105A30001092C40577CD1092EF0581E08093F905AF
:105A400085E08093F2056ECD8091EB059091EC0599
:105A5000A091ED05B091EE0500974CE1A407B105CA
:105A600064F54D8D5E8D6F8D78A1480F591F6A1FAB
:105A70007B1F41155105FCE16F0771050CF472C0E5
:105A80002091CC053091CD052031310509F073C04E
:105A90002091CA053091CB052830310509F06BC043
:105AA00020E030E04CE150E02093EB053093EC0532
:105AB0004093ED055093EE05C3CF00973CE1A3075B
:105AC000B10579F58091C6059091C705240135018E
:105AD0004D8D5E8D6F8D78A1441A550A660A770A3E
