:100000000C94710C0C94990C0C94990C0C94990C04
:100010000C94990C0C94990C0C94990C0C94990CCC
:100020000C94990C0C94990C0C94230E0C94950E32
:100030000C94990C0C94990C0C94990C0C94990CAC
:100040000C94990C0C94990C0C94990C0C94990C9C
:100050000C94990C0C94990C0C94990C0C94071218
:100060000C94990C0C94990C0C94990C0C94990C7C
:100070000C94990C0C94990C0C94990C0C94990C6C
:100080000C94FF120C94990C0C94990C0C94990CF0
:100090000C94990C0C94990C0C94990C0C94990C4C
:1000A0000C94990C0C94990C0C94990C5C22C82219
:1000B000E02271237E238D238D23A2261A27A327D6
:1000C000D5F08D14A1C881CFD9F1AF20000108FF70
:1000D000480BFFFFFF3030FFFFFF00FFFFFF00F87E
:1000E000FEFF0763E3E300FFFFFF3030FFFFFF0089
:1000F000000000000E1F3FF3E3C000F8FEFF0703FF
:100100000300F8FEFF0303FFFEF800FFFFFF73FF8D
:10011000DF0E00FFFFFF333333330707070000070D
:100120000707000707070001030707060307000783
:100130000707000007070700000000000706060782
:100140000301000003070706060000030706060771
:100150000300000707070007070700070707060651
:10016000060653434F52453A004B0D00F0FCFE0E7D
:10017000C6C6C6000080F8FE0EFEF8800000FEFE37
:10018000FE7CE07CFEFEFE00FEFEFE66666666000D
:1001900000000000F0FCFE0606FEFCF0023EFEF849
:1001A00000F8FE3E0200FEFEFE6666666600FEFE8B
:1001B000FEE6FEBE1C000003070F0E0C070F000C2E
:1001C0000F0F0303030F0F0C000F0F0F0003000F9F
:1001D0000F0F000F0F0F0C0C0C0C000000000001A3
:1001E000070F0C0C0F07010000030F0F0F01000099
:1001F000000F0F0F0C0C0C0C000F0F0F000F0F0E49
:100200000020474F4F44204C55434B2120004C6564
:1002100076656C2000240F00F8FCFEFEFEFE1EEE4C
:10022000EE1EFE1EFEFE1EFE3EDEFEBEFE0EBEBE2E
:100230007EFEFE0EFEFEFEFEFCF8000003070F0F22
:100240003F1F0E0D0F0E0F0E0D0D0E0F0E0D0D0E8E
:100250000F0C0F0F0C0F0F0D0F0F0F0F07030004E4
:10026000083E09093E3F25251A1E2121123F212162
:100270001E3F2525213F0505011E21293A3F040483
:100280003F213F21001021211F3F040A313F202040
:10029000203F02023F3F02043F1E21211E3F090969
:1002A000061E21112E3F09093622252519013F017D
:1002B000011F20201F0F10201F3F10103F3B040480
:1002C0003B03043807312D2321102A2A3C3F2424E4
:1002D000181C2222141824243F1C2A2A2C043E0510
:1002E000014C52523E3F040438243D20004040441B
:1002F0003D3F081422213F20003E04043E3E0402FC
:100300003C1C22221C7E22221C1C22227E3E040235
:1003100004242A2A12021F22201E20201E0E102032
:100320001E3E10103E360808364E50503E322A26E9
:10033000221E29251E223F2000322929261221258E
:100340001A0C0A3F08172525191E252518013905FD
:10035000031A25251A0629291E002F000000200057
:10036000000229050200040400F8FCFEFFFFFFFF65
:10037000FFFFFFFFFFFFFFFFFFFFFFFFFFFFFFFF8D
:10038000FFFFFFFFFFFFFFFFFFFFFEFCF803070F6C
:100390001F3F7F3F1F1F1F1F1F1F1F1F1F1F1F1FCD
:1003A0001F1F1F1F1F1F1F1F1F1F1F1F1F1F0F0785
:1003B00003240F00F8FCFE1EEE6E5EFE3EDEDE3E07
:1003C000FEFEDE0EDEFE3EDEDE3EFEFEFEFEFEFE3D
:1003D000FEFE0EFEFCF8000003070F0E3D1D0C0F85
:1003E0000E0D0D0E0F0F0F0E0D0F0E0D0D0E0F0F2C
:1003F0000F0F0F0F0F0F0D0F0703008008FF0301F2
:10040000B9A9FDA9E901A101010101010101010150
:1004100001010101010101010101010101010101CC
:10042000010101010183EF83013149FD85D5F90502
:100430000901A10101010101010101010101010104
:1004400001010101010183EF830101C161B979C992
:10045000C9D161A161C101A1010101010101010134
:100460000183EF83010111C93DC90501A10101010A
:10047000010101010101010101010103FF0000006F
:10048000000000000000000000000000000000006C
:10049000000000000000000000000000000000005C
:1004A0000000E8FCFFFFFF7E2E00000000000000BF
:1004B000000000000000000000000000808080E0DC
:1004C000E0E080808080000000000000000000006C
:1004D0000000000000747EFFFFFF3F3F7F7FFFFFB3
:1004E000FF3F1700000000000000000000008080B7
:1004F000800000A0F0FCFCFCF8B8000080808000C8
:1005000000000000000000747EFFFFFF3F170303A0
:100510000707070100747EFFFFFF3F170000000080
:10052000000000808080000000D0F8FEFEFEFC5C31
:10053000000000808080000000000000747EFFFF4B
:10054000FF3F17000101030303000000747EFFFF5B
:10055000FF3F17000000008080800000000000E8DE
:10056000FCFFFFFF7E2E0000000000808080000066
:10057000747EFFFFFF3F1700000000000101010033
:1005800000000000747EFFFFFF3F171B10000000FB
:10059000000000000000000000000000000000005B
:1005A000000000000000000000000000000000004B
:1005B0000000004854FE5424000000000000000029
:1005C00000000000000000000000000000000080AB
:1005D000C08080000000000000000000000000005B
:1005E0000000000000242A7F2A110A1F0A242A7F03
:1005F0002A120000000000000000000000000000BF
:10060000000000002050F8509000000000000000A2
:100610000000000000000000242A7F2A12000001D0
:10062000010301000000242A7F2A120000000000BC
:100630000000000000000000000090A8FCA8480096
:1006400000000000000000000000000000242A7FDD
:100650002A120000000000010000000000242A7F90
:100660002A1200000000000000000000000000004E
:100670004854FE5424000000000000000000000068
:1006800000242A7F2A120000000000000000000061
:100690000000000000242A7F2A1200802AFAFA02B1
:1006A00002020202FAFAFAFAFA0202020202FAFA62
:1006B000FAFAFA0202020202FAFAFAFAFA00000060
:1006C000E0F8F8FC9C1C1C1C38000000FCFCFCFC46
:1006D0001C1C1CFCFCF8F00000C0FCFC7CFCFCC0FA
:1006E00000000080E0F0F8783C1C1C1C3C0000FC82
:1006F000FCFCFC1C1C1C1C1C1C000000FAFAFAFA76
:10070000FA0202020202FAFAFAFAFA0202020202F9
:10071000FAFAFAFAFA0202020202FAFAFAE0E01F20
:100720001F1F1F1FE0E0E0E0E01F1F1F1F1FE0E092
:10073000E0E0E01F1F1F1F1FE0E0E0E0E00000001E
:10074000808103070F9EFEFCF8F00000FFFFFFFF13
:100750000E0E0F0F070701E0FCFFFFEFE0EFFFFFBA
:10076000FEE0003FFFFFFFC080000000800000FFB0
:10077000FFFFFF0E0E0E0E0E0E000000E0E0E0E0A8
:10078000E01F1F1F1F1FE0E0E0E0E01F1F1F1F1FF3
:10079000E0E0E0E0E01F1F1F1F1FE0E0E00B0B08A0
:1007A000080808080B0B0B0B0B08080808080B0BB4
:1007B0000B0B0B08080808080B0B0B0B0B00402059
:1007C000432747A747A747A341008040A747A7075C
:1007D0000000000000002647A747014000400147F5
:1007E000A747260000412347274727472740000700
:1007F0002747A747A7472747274000000B0B0B0BAE
:100800000B08080808080B0B0B0B0B080808080856
:100810000B0B0B0B0B08080808080B0B0B00000058
:1008200000000000000000000000000000000000C8
:1008300000000000000000000000040A050A05088E
:1008400005080500000000040A050AE5FAFDFE1E81
:100850000F0707070F00000002F0FFFF1FFFFFF068
:1008600082000000FFFFFFFF87C7FFFF7E3C000400
:100870000800000102050A05080508050804080427
:100880000800000000000000000000000000000060
:100890000000000000000000000000000000000058
:1008A0000000000000000000000000000000000048
:1008B0000000000000000000000000000000000038
:1008C00000000000000000000000000F3565DFB0F0
:1008D00060404040E00080780F854F2B282B4F85EB
:1008E0000F788000FF05057F4343651F86E63C00C7
:1008F00000000000000000000000000000000000F8
:1009000000000000000000000000000000000000E7
:1009100000000000000000000000000000000000D7
:1009200000000000000000000000000000000000C7
:1009300000000000000000000000000000000000B7
:1009400000000000000000000000000000000001A6
:10095000010101010100010101010000000000018D
:10096000010101000101010101010101000000007C
:100970000000000000000000000000000000000077
:100980000000000000000000000000000000000067
:1009900000000000000000000000000000461E00F3
:1009A0000828A8A28E3EFEFEFEF8C00000FEFEFE55
:1009B000FEFEAE16EE30FA6C7878786CFA30E00015
:1009C00000000000000C70C03C00C020C000F020FF
:1009D000C020C000E020C000D000E04000E800C01F
:1009E000200060A00000000000020A2A28A38F1F38
:1009F0007FFEF0FFFFFFFFFFFE05C0E0F0F9198C5E
:100A0000291D18FA3C8F2308020000006091E000C5
:100A1000F021E100E1A0F900010003010000010064
:100A200001000001000001000101000000000000C1
:100A300000000000020A28A1871F7FFFFF7F01003E
:100A4000C7CFCF8F8C8AC87880A00000000000003C
:100A50000000F84808A800F800E0408040800080CE
:100A6000408010F8108040C000000000000000002E
:100A70000000000000000000000000000000020A6A
:100A800008010300000607030B0105000200000037
:100A9000000000000000000003000003000300034A
:100AA0000003000300010201000300010202000034
:100AB000000000000000000808FFFFFFFFFFFFFF2D
:100AC000FF04083E09093E3F25251A1E2121123F39
:100AD00021211E3F2525213F0505011E21293A3FE1
:100AE00004043F213F21001021211F3F040A313F10
:100AF0002020203F02023F3F02043F1E21211E3FD3
:100B00000909061E21112E3F090936222525190142
:100B10003F01011F20201F0F10201F3F10103F3BDF
:100B200004043B03043807312D2321102A2A3C3FBB
:100B30002424181C2222141824243F1C2A2A2C04A2
:100B40003E05014C52523E3F040438243D200040F3
:100B500040443D3F081422213F20003E04043E3E15
:100B600004023C1C22221C7E22221C1C22227E3ECD
:100B7000040204242A2A12021F22201E20201E0EF4
:100B800010201E3E10103E360808364E50503E32A1
:100B90002A26221E29251E223F200032292926121C
:100BA00021251A0C0A3F08172525191E252518018D
:100BB0003905031A25251A0629291E002F000000D1
:100BC00020000002290502000404000102040810AC
:100BD000204080080B00020202010009040000010D
:100BE0000202000005240010010524010101042473
:100BF00002060524060001070581031000400904D0
:100C00000100020A0000000705020240000007057B
:100C100083024000000403090412010002EF0201F4
:100C2000404123368000010102030141726475696D
:100C30006E6F204C4C430041726475696E6F204C9E
:100C4000656F6E6172646F000102040506060E088E
:100C50000102040506060E080102040506060E0838
:100C6000050D160D0D0400000B0601020405060615
:100C70000E080102040506060E0801020405060618
:100C80000E08060D150D0C0400000C0688888888D7
:100C900088888888655568888888888888000000E2
:100CA0000000000000000000000000000000B00094
:100CB0000000000000000000000000000000A86626
:100CC00000000026200004222222000000000A88E2
:100CD000DD00000066600006666666000000000831
:100CE0008800000000888000A0000000A00000062E
:100CF0006666000A00000000008333333380000082
:100D00000DDDDD0008000000000088888888800074
:100D100000000000000800000000000000000000CB
:100D200000000000000008A0000AA400000000006D
:100D3000000000000AA400088A00099900000000D1
:100D4000A0000A000EE6660008880008880000007F
:100D50000A8A0008A0066666AA488800000000000B
:100D6000AA488800088AA00000999888A4AAAAAA7C
:100D7000AA999888333888833333888888811111F9
:100D80001111888888111111111111000000000043
:100D90000000000000000000000000000000000053
:100DA0000000000000000000000000000000000043
:100DB0000000000000000000000000000000000033
:100DC0000000000000000000000000000000000023
:100DD0000000000000000000000000000000000013
:100DE00088888888888888886555688888888888F9
:100DF000880000000000000000000000000000006B
:100E00000000B00000000000000000000000000032
:100E10000000A86600000026200004222222000014
:100E200000000A88DD000000666000066666660055
:100E3000000000088800000000888000A00000007A
:100E4000A00000066666000A00000000008333333D
:100E5000338000000DDDDD00080000000000888800
:100E600088888000000000000008000000000000EA
:100E70000000000000000000000008A0000AA4001C
:100E800000000000000000000AA400088A00099980
:100E900000000000A0000A000EE6660008880008B6
:100EA000880000000A8A0008A0066666AA48880032
:100EB00000000000AA488800088AA00000999888CD
:100EC000A4AAAAAAAA999888333888833333888831
:100ED00088811111111188888811111111111100C7
:100EE0000000000000000000000000000000000002
:100EF00000000000000000000000000000000000F2
:100F000000000000000000000000000000000000E1
:100F100000000000000000000000000000000000D1
:100F200000000000000000000000000000000000C1
:100F300000000000888888888888888865556888C7
:100F400088888888880000000000000000000000F9
:100F5000000000000000B0000000000000000000E1
:100F6000000000000000A866000000262000042207
:100F70002222000000000A88DD00000066600006F2
:100F80006666660000000008880000000088800097
:100F9000A0000000A00000066666000A0000000035
:100FA00000833333338000000DDDDD0008000000D6
:100FB0000000888888888000000000000008000089
:100FC000000000000000000000000000000008A079
:100FD000000AA40000000000000000000AA40008AD
:100FE0008A00099900000000A0000A000EE66600D1
:100FF00008880008880000000A8A0008A0066666C3
:10100000AA48880000000000AA488800088AA000BA
:1010100000999888A4AAAAAAAA999888333888839C
:101020003333888888811111111188888811111132
:10103000111111000000000000000000000000007D
:1010400000000000000000000000000000000000A0
:101050000000000000000000000000000000000090
:101060000000000000000000000000000000000080
:101070000000000000000000000000000000000070
:101080000000000000000000888888888888888820
:1010900065556888888888888800000000000000FE
:1010A0000000000000000000000000000000000040
:1010B0000000000000000000000000000000000030
:1010C0000000000000000000000000000000000020
:1010D0000000A4AAA0000000000000000000000022
:1010E00000000088811000000000000000000000E7
:1010F00000000000000000000000000000000000F0
:1011000000000000000000000000000000000000DF
:1011100000000000000000000000000000000000CF
:1011200000000000000000000000000000000000BF
:1011300000000000000000000000000000000000AF
:10114000000000000000000000000000000000009F
:10115000000000000000000000000000000000008F
:1011600000000000000000A4AAAAAA000AAAAAAAD5
:101170004A000000000088888881111111118888B8
:101180008811111111111100000000000000000071
:10119000000000000000000000000000000000004F
:1011A000000000000000000000000000000000003F
:1011B00000000000000000000AAAAAAAA4A00033B0
:1011C0003111111111133300000000000000000064
:1011D000000000000000000000000000000000000F
:1011E00000000000000000000000000000000000FF
:1011F00000000000000000000000000000000000EF
:101200000000000000000070F8FEFFFFFFFFFFFF7E
:10121000FEFEFFFFFFFAF060000002070707020072
:1012200000000000020707070260F0FAFFFFFFFE60
:10123000FEFFFFFFFFFFFFFEF87002070707020037
:10124000000000000207070702000070F8FEFFFF21
:10125000FFFFFFFFFEFEFFFFFFFAF06060F0FAFF06
:10126000FFFFFEFEFFFFFFFFFFFFFEF87000000024
:101270000ECEFEF8F8F8F8F8F8F8F0F0E7E7E7FC3B
:10128000FC7C707000000000000E0EEEE1EF0F7F9E
:101290007F7F0F0F0F1F1F1F1FDFDFDF1F1E1C00B1
:1012A000000000000000000000000000000000003E
:1012B000000000000101010000000000000000002B
:1012C000000070707CFCFCE7E7E7F0F0F8F8F8F855
:1012D000F8F8F8FECE0E000000000000001C1E1FF3
:1012E000DFDFDF1F1F1F1F0F0F0F7F7F7F0FEFE15C
:1012F000EE0E0E00000000000000000101010000E1
:1013000000000000000000000000000000000000DD
:101310000007E7F7FCFCFCFCF8F8F8E0E7F7FFFC57
:10132000FCA00E8EBEF8F8E0000000EEEEEF8F8F0E
:101330007F7FFFEFEF0F07071D1F1FFFF8FC1F3F09
:101340003F3C000000000000030303000000000019
:10135000000000000000010101000000000000008A
:101360000000E0F8F8BE8E0EA0FCFCFFF7E7E0F806
:10137000F8F8FCFCFCFCF7E70700000000003C3F2D
:101380003F1FFCF8FF1F1F1D07070FEFEFFF7F7FB9
:101390008F8FEFEEEE000000000000000001010161
:1013A0000000000000000000000000030303000034
:1013B000000000E0F8F8BE8E8EE0FCFCFFC7F7707E
:1013C000F0D0F0F83CFEFEF7E3031C1C00000078B0
:1013D0007F7F3FF1F1C70E0F0F7F76778F8FEFEE94
:1013E000EE8E80EEEEEE0000000000000000010135
:1013F00001000000000000030303000003030300DA
:1014000000000000E0E7E70700000E0E0E070707E8
:101410000000000E0E0E00707077071F1C00383899
:10142000380ECECEC000000080808000000080809A
:1014300080000000EEEEEE0000000000000101015F
:101440000000000303030000000303030303030081
:10145000000000110B0070186E1EDE1272767C18F0
:101460006A1EDA10600000000002030200000000A3
:1014700000000002030200006010DA1E6A187C7689
:101480007212DE1E6E1870000002030200000000DF
:1014900000000002030200000011080070186E1E18
:1014A0005E1272767C186A1E5A1060000060105A34
:1014B0001E6A187C7672125E1E6E1870001B120077
:1014C0000000000480C070F0F090002060C080A296
:1014D000E0A0080020000000000000000400400020
:1014E0000400260004000707000E020C820A020C0A
:1014F00000000000000000000000000000000000EC
:1015000000000000000000000000000000000000DB
:101510000000000000200008A0E0A280C0602000C1
:1015200090F0F070C0800400000000000000000097
:101530000C020A820C020E000707000400260004B9
:101540000040000400000000000000000000000057
:10155000000000000000000000000000000000008B
:10156000001B12000000024060387800F09000205C
:1015700060C280A8E0A0000400104000000000004D
:10158000440000000420064004000707000E02008B
:10159000980414051800000000000000000100007D
:1015A000000000000000000000000000000000003B
:1015B000000000000000004010000400A0E0A8802F
:1015C000C260200090F00078386040020000000007
:1015D000000000180514049800020E00070700041C
:1015E000400620040000004400000000000000004D
:1015F00000000000000000000000000000000000EB
:1016000001000000001B120800000140600C1800DF
:10161000B09000200082002860A00004001040006C
:101620000000000044000000044006000400220600
:1016300000060200802000093000000000000000C9
:101640000001000000000100000000000000000098
:1016500000000000000000001B1208000200200033
:101660000000040000000000020000040000000070
:1016700002400000000000440000000000000000E4
:1016800000000000000000000080040000100000C6
:101690000000000000020000010000000000010046
:1016A0000000000000000000000000080818247E70
:1016B00042467C020418247E62667C020418247E62
:1016C00072767C020418247E7E7E7C020403051F51
:1016D000111F001F001D151711151F07041F1715D7
:1016E0001D1F151D01011F1F151F17151F080800BD
:1016F000000000000000000D9F2D970D9F2D9740CA
:1017000040404040404040280404484804042840E9
:10171000404F09ED094F400502050205020502A5EB
:101720004299B5A59942A55A8739D6D639875A5ACA
:101730008739D6D639875A825A9A42985A9A584047
:101740005040604050406018247E426A7C0204EEA3
:10175000DD9D71EFDE9D7BFA3F001FFA1F003F5FAA
:10176000FC00F85FF800FC0002070E070200000012
:1017700002070E070200000000000207020000003E
:101780000000020702000000001104000002040231
:10179000000000000002040200000000000000023F
:1017A0000000000000000002000000000000000037
:1017B00002070E070200000002070E0702000000E9
:1017C00000000207020000000000020702000011F2
:1017D00004000000000204020000000000020402F5
:1017E00000000000000000020000000000000002F5
:1017F00000000003030303030303030000030303C8
:10180000033F3F000000000000FFFF0000E0E0E0B9
:10181000E0FEFEE0E0E0E0E0E0E0E0FEFEE0E0E050
:10182000E00000FFFF0000000000003F3F03030353
:10183000030000080800010101010101000000008F
:10184000010101011F000000000000007E000000F7
:10185000404040407C00404040404040007C404090
:1018600040400000007E000000000000001F010159
:10187000010100000070707FFFFFFC18C0E0FF7FD7
:10188000FFFCDC07080020201E6408000040201E2A
:1018900024480018FCFFFF7F7070DCFCFF7FFFE036
:1018A000C007080008641E2020000048241E2040B5
:1018B00000087CFE7FFE6702087CFE7FFE6E040748
:1018C000080008641E6402000008641E640400E04E
:1018D000F0E0E0F0E0E007084020404060404000D9
:1018E000C33011241FBECFEFDAE0DEBFCDBF11E061
:1018F000A0E0B1E0E0E3F6E602C005900D92A83A60
:10190000B107D9F727E0A8EAB1E001C01D92A83CD1
:10191000B207E1F71CE0C1E7DCE004C02197FE015B
:101920000E94C832C037D107C9F70E94A2200C9488
:1019300016330C9400004091C8015091C9012091C8
:10194000C6013091C70142175307B4F49091E800E3
:101950009570E1F39091E80092FD19C08093F10039
:101960008091C8019091C90101968F739927892BA5
:1019700019F48EEF8093E8008091C8019091C9011D
:1019800001969093C9018093C80181E0089580E099
:101990000895DF92EF92FF920F931F93CF93DF93FF
:1019A000D82E8A017B01E40EF51EEB01CE15DF0572
:1019B00071F0D7FE03C0FE01849101C088810E94AE
:1019C0009B0C21968111F2CF8FEF9FEF01C0C801D0
:1019D000DF91CF911F910F91FF90EF90DF900895CD
:1019E000615030F02091F100FC0120830196F8CF86
:1019F000289884E68093B9070895CF92DF92EF92FA
:101A0000FF920F931F93CF93DF936C017A018B01A9
:101A1000C0E0D0E0CE15DF0589F0D8016D918D01D1
:101A2000D601ED91FC910190F081E02DC601099560
:101A3000892B11F47E0102C02196ECCFC701DF9102
:101A4000CF911F910F91FF90EF90DF90CF9008956D
:101A5000CF93DF931F92CDB7DEB76983DC01ED91A1
:101A6000FC910280F381E02D41E050E0BE016F5F08
:101A70007F4F09950F90DF91CF91089583E0809378
:101A8000E9008091F200882319F08AE38093E8004E
:101A90000895FC018485958597FD0BC09FB7F89448
:101AA00082E08093E9008091F2009FBF90E0019670
:101AB00008959FB7F89482E08093E9008091F20046
:101AC0009FBF90E008958091DD05E091DB05F091E6
:101AD000DC05882349F0CF0102969093DC058093C2
:101AE000DB05859194910895CF0102969093DC05D2
:101AF0008093DB058081918108958091AB010895E9
:101B00000895089580E090E008950E9411330F93A6
:101B10001F93CF93DF931F92CDB7DEB782E0898307
:101B200042E450E063ED7BE080E80E94C90C0E9433
:101B30008E20DC0112960D911C9113970115110551
:101B400069F0D801ED91FC910280F381E02DBE0196
:101B50006F5F7F4FC801099597FF07C089810F907C
:101B6000DF91CF911F910F910895F80100851185A4
:101B7000E5CF0E947D2090E008950F931F93CF93AF
:101B8000DF931F92CDB7DEB78C01FC01848595856C
:101B900097FF0EC0CE0101960E945320019719F4C1
:101BA000298130E002C02FEF3FEFF801358724870D
:101BB000F801848595850F90DF91CF911F910F914A
:101BC0000895CF93DF931F92CDB7DEB7FC018485D4
:101BD000958597FD05C02FEF3FEF358724870BC014
:101BE000CE0101960E945320019719F4898190E05B
:101BF00002C08FEF9FEF0F90DF91CF910895CF93A9
:101C0000DF9300D000D0CDB7DEB761157105810537
:101C1000910579F09B01AC0169833A834B835C8326
:101C20000E940D3229813A814B815C810E943132C0
:101C300003C060E070E0CB010F900F900F900F9009
:101C4000DF91CF9108951F920F920FB60F9211243A
:101C50008F939F938091E1009091E100937F909307
:101C6000E10083FF0FC01092E90091E09093EB0038
:101C70001092EC0092E39093ED001092BA0798E076
:101C80009093F00082FF20C093E09093E900909140
:101C9000F200992319F09AE39093E8009091CA0119
:101CA000992339F09091CA0191509093CA019923D8
:101CB00089F19091B907992339F09091B907915022
:101CC0009093B907992341F184FF10C08091E200FD
:101CD0008E7E81608093E2008091E1008F7E809310
:101CE000E1008091A9018E7E806111C080FF16C045
:101CF0008091E2008E7E80618093E2008091E1001D
:101D00008E7E8093E1008091A9018E7E8160809318
:101D1000A90104C05D9ACDCF289AD6CF9F918F910B
:101D20000F900FBE0F901F9018951F920F920FB635
:101D30000F921124CF92DF92EF92FF920F931F9395
:101D40002F933F934F935F936F937F938F939F93C3
:101D5000AF93BF93EF93FF93CF93DF93CDB7DEB7EE
:101D60006C97DEBFCDBF1092E9008091E80083FF41
:101D7000EDC168E0CE0145960E94F00C82EF8093A1
:101D8000E8008D8987FF05C09091E80090FFFCCFA7
:101D900003C09EEF9093E800982F907609F0C6C09C
:101DA0009E892F89188D91110CC0803829F480915B
:101DB000AA018093F10002C01092F1001092F1008C
:101DC00048C1422F50E0512B913051F4811141C153
:101DD0004130510509F03DC18091AA018D7F0BC0B2
:101DE000933061F4811135C14130510509F031C1A1
:101DF0008091AA0182608093AA012BC1953041F4A1
:101E00008091E80080FFFCCF20682093E30021C18F
:101E1000963009F05FC0EB8CFC8C1092E9001092B8
:101E2000C9011092C801123091F51092C7011092A9
:101E3000C6010E94870D99E0BE016F5F7F4FDB01F5
:101E4000E92F1D92EA95E9F799831A8391E09E8321
:101E500090EA98879AEF99872091C8013091C9013B
:101E6000275F3F4F3C832B838D831092E9001092B4
:101E7000C9011092C801F092C701E092C60149E081
:101E800050E080E00E94C90C0E94870DE2C0F092F1
:101E9000C701E092C6010E948E20DC011296ED90EF
:101EA000FC901397E114F10409F4C0C0D701ED913F
:101EB000FC910480F581E02DBE016B5E7F4FC70170
:101EC0000995009719F00CF0C4C0C7C0F701E08471
:101ED000F184E8CF973009F4C0C0983021F481E054
:101EE0008093F100B6C0993009F0B3C0837009F057
:101EF000B4C0E5E2F1E081E021E036E3908199238E
:101F000061F08093E9002093EB0091919093EC00B5
:101F10003093ED008F5F873089F78EE78093EA007A
:101F20001092EA008F898093BA0793C08B8D9C8DA5
:101F30001092E9001092C9011092C8019093C70154
:101F40008093C601898D811156C08E899D89913AF1
:101F500059F4813209F081C047E050E06EE071E051
:101F600080E00E94C90C75C0913209F076C08332BE
:101F700089F4888D90E0982F88272F89822BA0E004
:101F8000B0E080930A0190930B01A0930C01B093F1
:101F90000D015FC0803269F48091E80082FFFCCFC0
:101FA00067E08EE091E00E94F00C8BEF8093E800F8
:101FB00006C0823209F04DC08F898093150180914F
:101FC000A801882319F0EEEFFAE002C0E0E0F8E0A3
:101FD00080910E0190910F01A0911001B09111011B
:101FE000803B9440A105B10509F07BC080911501AB
:101FF00080FF93C076C00E948E20DC0112960D9166
:102000001C9113970115110541F1D801ED91FC9137
:102010000190F081E02DBE016B5E7F4FC8010995F4
:10202000811117C0F80100851185ECCF113009F43A
:102030004EC0133091F48F89882309F445C0823053
:1020400081F440E860E187E39CE00E9486308823C9
:1020500021F08EEF8093E80079C081E28093EB005D
:1020600075C0813029F440E86BE08BE29CE0EDCF55
:10207000833099F70E948E20DC011296ED90FC903F
:1020800013978E010F5F1F4F6801E114F10479F07F
:10209000D701ED91FC910680F781E02DB801C701D1
:1020A0000995080F111DF701E084F184EECFD801E6
:1020B0001C92F60101900020E9F73197BF016C19DD
:1020C0007D0940E0C601C1CF65E17CE002C069E165
:1020D0007CE06115710509F2FB01449150E080E854
:1020E00040CF0FB6F894A8958091600088618093E6
:1020F0006000109260000FBEA895EE3F2AE0F20744
:1021000039F08091FE0A9091FF0A91838083A1CFDC
:102110001092FF0A1092FE0A9CCFEE3F8AE0F80769
:1021200031F0808191819093FF0A8093FE0A87E7C6
:1021300097E7918380839BE088E10FB6F894A89598
:10214000809360000FBE9093600083CF6C960FB6B3
:10215000F894DEBF0FBECDBFDF91CF91FF91EF911D
:10216000BF91AF919F918F917F916F915F914F91AF
:102170003F912F911F910F91FF90EF90DF90CF90A3
:102180000F900FBE0F901F9018956115710579F093
:10219000FB0101900020E9F73197AF01461B570B77
:1021A000DC01ED91FC910280F381E02D099480E047
:1021B00090E008954F925F926F927F92EF92FF921C
:1021C0000F931F93CF93DF93CDB7DEB7A1970FB6D1
:1021D000F894DEBF0FBECDBF7C01FA01CB0119A27E
:1021E000223008F42AE08E010F5D1F4F422E512C41
:1021F000612C712CBF01A30192010E946332F9018D
:10220000CA01015011096A3014F4605D01C0695CB3
:10221000D8016C93232B242B252B61F7B801C70120
:102220000E94C510A1960FB6F894DEBF0FBECDBFB9
:10223000DF91CF911F910F91FF90EF907F906F9062
:102240005F904F9008953FB7F8948091C2019091AC
:10225000C301A091C401B091C50126B5A89B05C0DA
:102260002F3F19F00196A11DB11D3FBFBA2FA92F15
:10227000982F8827820F911DA11DB11DBC01CD0192
:1022800042E0660F771F881F991F4A95D1F708957E
:102290008F929F92AF92BF92CF92DF92EF92FF9276
:1022A0006B017C010E9423114B015C01C114D1041C
:1022B000E104F104F1F00E942311DC01CB01881943
:1022C0009909AA09BB09883E9340A105B10570F39D
:1022D00021E0C21AD108E108F10888EE880E83E0F7
:1022E000981EA11CB11CC114D104E104F10419F71A
:1022F000DDCFFF90EF90DF90CF90BF90AF909F9099
:102300008F9008958F929F92AF92BF92CF92DF925B
:10231000EF92FF920F931F93CF93DF935C016B01BA
:102320007A0180911501882309F45BC08091BA0776
:10233000882309F456C08091A90180FF05C08091CF
:10234000E00082608093E000E70110E00AEF83E0A4
:10235000882E9AE3992E2097D9F10E947D20811131
:102360000AC0015009F43DC061E070E080E090E0F7
:102370000E944811F0CF282F30E0C217D3070CF489
:102380008C2F4FB7F8948092E9009091E80095FF68
:102390001DC0282F30E0C21BD30BF601982F91509F
:1023A00020F081918093F100FACFC20ED31E112349
:1023B00019F09092E80009C08091E80085FD06C000
:1023C0009092E80011E0209709F010E04FBFC3CFD2
:1023D0001111C3CF5D9884E68093CA011E141F04B7
:1023E00044F081E090E0F5019383828380E090E007
:1023F00001C0C701DF91CF911F910F91FF90EF9026
:10240000DF90CF90BF90AF909F908F9008951F92D4
:102410000F920FB60F9211242F933F938F939F9398
:10242000AF93BF938091AC019091AD01A091AE01AB
:10243000B091AF013091C10123E0230F2D3720F47B
:102440000196A11DB11D05C026E8230F0296A11D0E
:10245000B11D2093C1018093AC019093AD01A09375
:10246000AE01B093AF018091C2019091C301A091E0
:10247000C401B091C5010196A11DB11D8093C20197
:102480009093C301A093C401B093C501BF91AF91D4
:102490009F918F913F912F910F900FBE0F901F90A2
:1024A0001895CF92DF92EF92FF920F931F93CF93E5
:1024B000DF930E94630D811520E8920761F48091FB
:1024C00071008D7F8093710010929100469847981B
:1024D0001092BA018BC021E02093BA01813020E82C
:1024E000920751F48091D9059091DA059093DC051B
:1024F0008093DB050E94630D97FD05C02091B90113
:10250000222309F43FC02091B80121113BC021E0F2
:102510002093BB01EC01DF77209769F481E0809381
:10252000BC0146983FE9C32E3FE0D32EE12CF12CAD
:10253000CAEFD0E014C08E0120E030E060E472E425
:102540008FE090E0A90198010E94313269017A017F
:1025500081E0C81AD108E108F1081092BC01E091AD
:10256000EC05F091ED050995811103C081E08093A0
:10257000BC018091BB018823B9F18091BC0181111C
:1025800033C003C01092BB01C5CF46992DC0479AF6
:102590000E94630D009771F09C01DE010E9485325C
:1025A000DC01CB0129E0B595A795979587952A95EC
:1025B000D1F703C08FEF9FEFDC01109290002AE06B
:1025C00020939100D0929900C09298008093BD0111
:1025D0009093BE01A093BF01B093C00180917100A0
:1025E00082608093710002C04798D2CFDF91CF9173
:1025F0001F910F91FF90EF90DF90CF9008951F9261
:102600000F920FB60F9211242F933F934F935F9326
:102610006F937F938F939F93AF93BF93EF93FF93AA
:102620008091BD019091BE01A091BF01B091C00108
:10263000892B8A2B8B2B81F18091BC0181110BC0DE
:1026400098B180E4892788B98091BB01882319F06B
:1026500088B1805888B98091BD019091BE01A09148
:10266000BF01B091C001181619061A061B06B4F472
:102670008091BD019091BE01A091BF01B091C001B8
:102680000197A109B1098093BD019093BE01A09368
:10269000BF01B093C00102C00E945112FF91EF919F
:1026A000BF91AF919F918F917F916F915F914F916A
:1026B0003F912F910F900FBE0F901F9018956F9222
:1026C0007F928F929F92AF92BF92CF92DF92EF92C2
:1026D000FF920F931F93CF93DF9300D000D0CDB71D
:1026E000DEB73A014115510509F401C2FA01F4902F
:1026F00031965491F2E06F0E711CAF2CB12C211168
:1027000002C0EE2069F1A52FA695A695A695B0E08A
:10271000E1E0F0E0352F377011F4E0E0F0E0AE0FCB
:10272000BF1FAA9EF001AB9EF00DBA9EF00D1124C2
:10273000A3E08A2EC81003C0EE0FFF1F0AC00115C8
:10274000110539F0EE9ED001EF9EB00D11240A0F55
:102750001B1F2E9FD0012F9FB00D11246A0E7B1ED0
:102760002FEFC21208C00115110519F0CC24C39433
:1027700002C032E0C32EDC01AA0DBB1D1A161B06D7
:102780000CF0B5C1803891050CF0B1C19B01250F4B
:10279000311D121613060CF0AAC1603471050CF03D
:1027A000A6C16114710409F4A2C1362F3770932EAB
:1027B000FB0177FD379623E0F595E7952A95E1F73C
:1027C0002E2F77FF04C0992011F02FEF2E0F97FFC7
:1027D00005C0EE27FF27E81BF90B02C0E0E0F0E0A0
:1027E000A038B1051CF030E8381B01C03F2D3E1B5E
:1027F000622F022E000C770B2F3F1CF4462F4095C2
:1028000001C040E0B1E0A52FA77009F4B0E05695F3
:1028100056955695DB2ED50E6D0D711D69307105DF
:102820001CF058E0D52ED21AD41A240FDC0150E83F
:102830002503A00DB11D1124AE0FBF1F4F9DE00D4C
:10284000F11D1124A3014E0F5F1F81E090E07C0178
:10285000092C02C0EE0CFF1C0A94E2F783E0C816B4
:1028600009F404C18C15A8F091E0C91609F4B5C0AB
:10287000E2E0CE123CC18FEF8E9DB0018F9D700DB6
:102880001124609570957C836B837C806D2C620E27
:102890002BC0FAEFCF1631F09BEF892EC81027C15D
:1028A000D20E87C0D20E51C0FA01E00FF11FE491A1
:1028B000EE9D6001EF9DD00C1124DA82C98227FDC4
:1028C00007C0FC01D080ED2DE623CE2AFC01C0829A
:1028D000911013C00F5F1F4F0196031728F32F5F4E
:1028E0004A0D5B1DA058BF4F261509F400C1CD014C
:1028F00083539E4F00E010E0F0CF27305CF7FC01DF
:10290000E058FF4FC080C7208A80C828C082E2CF2D
:10291000FA01E60FF71FE491EE9D8001EF9D100D87
:1029200011241A83098327FD04C0FC011081012BA7
:102930000083911013C06F5F7F4F0196631740F3C0
:102940002F5F4A0D5B1DA058BF4F2D1509F4CFC056
:10295000CD0183539E4F60E070E0F0CF27305CF7ED
:102960008C0100581F4FF801C080FA81CF2AF8016E
:10297000C082E1CFFA01E00FF11FE491EE9DC001AA
:10298000EF9D900D11249A83898327FD05C08095C2
:10299000FB01908189238083911014C00F5F1F4F2A
:1029A0006F5F7F4F031730F32F5F4A0D5B1DA058F9
:1029B000BF4F2D1509F49BC0BD0163537E4F00E04E
:1029C00010E0F0CF273054F7FB01E058FF4F8A8129
:1029D0008095908189238083E1CF0E0F1F1F8D2C5E
:1029E000820E281509F483C0CD0183539E4F6C01DC
:1029F00060E070E0631790F5F801E60FF71FE491CF
:102A0000EE9DC001EF9D900D1124809590959C83C3
:102A10008B83FA01E60FF71FE491EE9D3001EF9DE5
:102A2000700C11247A82698227FD05C0F60190811D
:102A30008923682A6082992059F027304CF4F601E6
:102A4000E058FF4F90818C8189239A81892B808364
:102A50006F5F7F4FFFEFCF1ADF0ACCCF2F5F4A0D9A
:102A60005B1D0A0D1B1DA058BF4FBBCF832F90E0ED
:102A7000E40FF51FA353BE4F60E870E0681B790BAD
:102A8000A81AB90A8501000F111F5D2D832ECF935F
:102A9000DF93ED01EF96EF962296A590C5909920D1
:102AA00059F0AE9C5001CE9C600127302CF4F88088
:102AB000D094FD20FB28F99222233AF0FC90C09498
:102AC000FC20FA28FD920C94661511963A9529F788
:102AD0005A9551F0382D23951124E00FF11DA60FC2
:102AE000B11DC60FD11DD9CFDF91CF9111240F9009
:102AF0000F900F900F90DF91CF911F910F91FF904A
:102B0000EF90DF90CF90BF90AF909F908F907F908D
:102B10006F900895CF92EF920F931F933BEFC32EC8
:102B2000E12C00E010E00E945F131F910F91EF90E5
:102B3000CF900895CF92EF920F931F93CF93DF938F
:102B4000FC0196816A3031F4858184836185960F1A
:102B5000968342C0262FEF01848161E0690F2F33F5
:102B6000A1F164F42E32A1F01CF42132A9F027C0A7
:102B700090ED920F9A3018F52C5F0FC02134FCF0C5
:102B80002B3544F09FE9920F9A31C8F4275405C0C1
:102B90002FE303C0215401C02EE33F81062E000C19
:102BA000770B082E000C990B313089F43AEFC32EC5
:102BB000E12C00E010E041EC5AE00E945F138885B0
:102BC0008C5F9C81890F8C8307C020E4E6CF41ECA9
:102BD0005AE00E948A15F3CF81E090E0DF91CF9117
:102BE0001F910F91EF90CF900895CF92EF920F9396
:102BF0001F9332E0C32EE12C00E010E00E945F132F
:102C00001F910F91EF90CF900895BC0180E090E06C
:102C10000C9448118FB18095807F669B88601C9BC7
:102C200084600895FC01840F911D18161906E4F5BF
:102C3000E038F105CCF5F7FF02C0E0E0F0E08138C4
:102C4000910514F080E890E0382F3E1BAB0177FF30
:102C500002C0495F5F4F83E0559547958A95E1F73C
:102C60005695542F442757954795E40FF51FE35386
:102C7000FE4F6770772781E090E001C0880F6A956A
:102C8000EAF7482F222349F0213071F4315020F027
:102C90008081842B8193FACF08958095315020F064
:102CA000908198239193FACF089560387105D0F4FC
:102CB00040345105B8F4EBECFBE080E1849FD00197
:102CC000A0781124A60F4770E40FF11D8491A3533F
:102CD000BE4F222319F06C91862B03C080956C9116
:102CE00086238C930895FC019081992359F01CF45C
:102CF0009C3F34F40895913041F0993044F00895A8
:102D0000990F06C08FEF80830895108208959595DE
:102D100090830895FC0190819F3F69F01CF4983FD7
:102D200034F40895992349F0953054F0089597FDAF
:102D30009F5F959506C01082089581E08083089575
:102D4000990F908308958F929F92BF92CF92DF92B6
:102D5000EF92FF920F931F93CF93DF931F92CDB704
:102D6000DEB7E82E21E040E860E070E080E090E02F
:102D70000E9412168090B6019090B7018401F12C48
:102D80000038110514F584E0C82ED12C30E08F2DC9
:102D90008170B82E932F9170B11002C019F00BC042
:102DA000992349F020E047EB5AE0B601C801398386
:102DB0000E94F51539813F5F88E0C80ED11C37307D
:102DC00049F7F394085F1F4FDBCF21E040E86FE342
:102DD00070E080E090E00E94121680914D0780FD27
:102DE0001FC0EE2069F081E0881A910881E88816FA
:102DF0008FEF980654F41092B7011092B60110C0EC
:102E00008FEF881A980A97FE05C09092B7018092BA
:102E1000B60106C080E89FEF9093B7018093B6019A
:102E20000F90DF91CF911F910F91FF90EF90DF9066
:102E3000CF90BF909F908F900895EF92FF920F9345
:102E40001F93CF93DF9300D0CDB7DEB78B0195E012
:102E5000899F70011124C70188559F4F0E941B3222
:102E6000F8018083C70187559F4F0E941B32F801EC
:102E70008183C70186559F4F0E941B32F8018283D0
:102E80001A821982BE016F5F7F4FC70185559F4F20
:102E90000E942A1989819A81F801948383830F9073
:102EA0000F90DF91CF911F910F91FF90EF900895B8
:102EB0008A3038F4883048F4813039F0863019F49B
:102EC00004C08C3011F080E0089581E00895EF9205
:102ED000FF920F931F93CF93DF931F92CDB7DEB76F
:102EE0007C01FC0100811181C80169830E941B32B1
:102EF0006981681719F0C8010E942332C7010F9039
:102F0000DF91CF911F910F91FF90EF900895EF9275
:102F1000FF920F931F93CF93DF9300D0CDB7DEB70F
:102F20008C017B01FB0160819A838983CE0101962C
:102F30000E946717F70161810F5F1F4F1A83098392
:102F4000CE0101960E946717C7010F900F90DF9185
:102F5000CF911F910F91FF90EF900895CF93DF9342
:102F600000D0CDB7DEB79A838983CE0101960E9447
:102F700067170F900F90DF91CF9108950F931F93D4
:102F8000CF93DF9300D0CDB7DEB7082F86EA90E06D
:102F90000E941B32182F87EA90E00E941B32011119
:102FA00004C0133511F4833441F11A82198263E5A8
:102FB00086EA90E00E94AE1763E487EA90E00E9400
:102FC000AE1708EA10E060E0C8010E94AE1760E0AA
:102FD000C80101960E94AE1760E0C80102960E94E7
:102FE000AE17BE016F5F7F4FC80103960E9487171F
:102FF0000B5F1F4F013C110531F70F900F90DF91D0
:10300000CF911F910F9108959C01E1E7F0E090812D
:103010009D7F90831092DD05EEEDF5E0F093DC05E9
:10302000E093DB05F093DA05E093D9053183208343
:1030300082E390E09383828375836483978386839E
:1030400051874087938782870C94511220915007B3
:10305000282329F490914F07982381E009F480E018
:103060000895CF92EF920F931F938091460781119D
:10307000ECC084E00E942618882369F080913F0705
:1030800090914007892B39F09091440781E089277E
:1030900080934407DAC080914D0790914E0783706A
:1030A0009927892B09F0D1C080914507811116C05D
:1030B0000E940A1685FF08C08BE397E00E947316F2
:1030C00081E080933D070AC00E940A1686FF06C071
:1030D0008BE397E00E948A1610923D070E940A1621
:1030E00083FF46C080913F0790914007892B09F4E8
:1030F0003FC080913D07811169C02091D805809122
:10310000370790913807A0913907B0913A07BD0170
:10311000685F7F4FCC24C394E22E0DEA17E14FEC99
:1031200057E180913507909136070E945F13809197
:103130004D0790914E0765E070E00E94A032892B08
:1031400031F48091D8058F5F81708093D80580918C
:103150003C078823B9F174F1813081F510923C0766
:1031600041E250E061E470E081E290E00E940418E6
:1031700080914D0790914E0787709927892B09F010
:1031800064C00E940A1683FF06C080913F07909199
:103190004007892B31F480913C078F3F79F51092DD
:1031A0003C070E940A1685FD50C00E940A1686FF41
:1031B00038C04BC08C3FA4F2880F05C0893084F61C
:1031C000859501C08FEF80933C07CACF813009F00D
:1031D000AECF2091D8058091370790913807A09104
:1031E0003907B0913A07BD01685F7F4FCC24C39483
:1031F000E22E07E617E149E857E193CF8F3F09F048
:1032000034F4883F74F287FD8F5F859503C0811188
:1032100004C081E080933C07C4CF853014F6880F4A
:10322000F9CF80913B07181624F48BE397E00E94B6
:10323000731680913B0787FF08C08BE397E01F91CF
:103240000F91EF90CF900C948A161F910F91EF90F1
:10325000CF9008950F931F93CF93DF938C01EB01D1
:103260000E941B328883C80101960E941B32898309
:10327000CE01DF91CF911F910F910895982F9695D0
:1032800070E04091FD055091FE0580FD13C0892F2F
:1032900090E0649F9001659F300D749F300D112464
:1032A0003695279582519A4FFC01E20FF31F838DCB
:1032B000829511C0892F90E0649F9001659F300D29
:1032C000749F300D11243695279582519A4FFC0139
:1032D000E20FF31F838D8F70853039F480910907D9
:1032E000811102C085E0089580E008956F927F9279
:1032F0008F929F92AF92BF92CF92DF92EF92FF9206
:103300000F931F93CF93DF938093F60510920907D5
:1033100097E0899FE0011124C35BDE4F2881022ED4
:10332000000C330B3093FE052093FD058981082E98
:10333000000C990B9093FC058093FB05B3E0220FE2
:10334000331FBA95E1F73093FA052093F90513E09E
:10335000880F991F1A95E1F79093F8058093F70568
:103360008A81082E000C990BAA0BBB0BDC01992754
:1033700088278093EE059093EF05A093F005B09316
:10338000F1058B81082E000C990BAA0BBB0BDC01FD
:10339000992788278093F2059093F305A093F4056D
:1033A000B093F5058E8180930A07AFEFB5E0ED91FC
:1033B000FD911082118212821382E6E0A930BE07CD
:1033C000B1F7E091F605F0E0EE0FFF1FED5BFE4F69
:1033D000E080F180C12C712CB12CAA24A3940C2D77
:1033E00010E08091FB059091FC050817190708F083
:1033F00082C0D12C2091FD053091FE058D2D90E0ED
:103400008217930708F075C0029FC001039F900DBB
:10341000129F900D1124969587959D2D9695890F55
:1034200090E0F701E80FF91F6490FC01E251FA4FB8
:10343000638E862D82958F708530E9F08B3041F553
:10344000EB2DF0E0EE0FFF1FE251FA4F81889288DA
:10345000F401D082C18268E270E080E090E00E94D6
:10346000FF0DDC01CB018896A11DB11DF401828303
:103470008383B3940DC0E72DF0E0EE0FFF1FE65EEF
:10348000F84F0190F081E02DD082C182A282739426
:10349000E62DEF70E530E9F0EB3041F5EB2DF0E093
:1034A000EE0FFF1FE251FA4F81889288F401D0821B
:1034B000C18268E270E080E090E00E94FF0DDC01D4
:1034C000CB018896A11DB11DF40182838383B3943F
:1034D0000DC0E72DF0E0EE0FFF1FE65EF84F019004
:1034E000F081E02DD082C182A2827394D394D394D0
:1034F00081CFC39474CF8D81082E000C990BAA0B39
:10350000BB0BDC01992788274C81042E000C550B3E
:10351000660B770BBA015527442710923B07109290
:103520003C0710923D0728EC30E030934007209391
:103530003F071092430721E020934407209345075B
:10354000109246071092490710924807409333079C
:10355000509334076093350770933607809337078D
:1035600090933807A0933907B0933A078FEF809371
:10357000CF05DF91CF911F910F91FF90EF90DF90DA
:10358000CF90BF90AF909F908F907F906F90089555
:1035900080E0EDECF1E081118FEF002481938193C5
:1035A000819381930394D1F70895EDECF1E080E0ED
:1035B000A0E0B8E000800EBC8111012C1197A0FDA5
:1035C000FDCF0192B9F70DB40895CF92DF92EF923B
:1035D000FF921F93CF93DF93182FE091F605F0E051
:1035E000E15CFE4FC080D12CE12CF12C8F3F31F4F7
:1035F000C701B6010E94FF0DD62F01C0D82FC70109
:10360000B6010E94FF0DC62F1F3FB1F48091CF0578
:10361000D81306C0C701B6010E94FF0DD62FF6CF02
:103620008091D205D817B1F3DC1306C0C701B601EB
:103630000E94FF0DC62FF8CF64E971E089E697E09C
:103640000E94C510412F50E060E070E02AE089E65A
:1036500097E00E94DA1063EA71E089E697E00E9441
:10366000C5104D2F50E060E070E02AE089E697E059
:103670000E94DA1065EA71E089E697E00E94C510C1
:103680002091F60530E0220F331FF901EB5CFE4F6D
:10369000608171818D2F90E0880F991FFB01E80FE9
:1036A000F91F44914093D0050196FB01E80FF91FE3
:1036B000E491E093D105D093CF05F901E55DFE4F8C
:1036C000408151818C2F90E0880F991FFA01E80FFB
:1036D000F91F24912093D3050196FA01E80FF91FF1
:1036E000E491E093D405C093D2051092CD0581E01A
:1036F0008093D5056AE070E080E090E00E94FF0DC5
:10370000DC01CB010A96A11DB11D8093CE05DF918E
:10371000CF911F91FF90EF90DF90CF900895CF93BE
:10372000DF931F92CDB7DEB74B3081F018F44430F1
:1037300051F148C083EF840F823008F043C083E327
:1037400090E090934907809348073CC020914D0733
:1037500030914E0723703327232BA1F5AFEFB5E04F
:10376000ED91FD919081981336C09181961333C0ED
:103770008281882339F180913F0790914007883CEE
:103780009105B8F01FC0909143079923D9F020917B
:10379000D30530E0281B310937FF03C0319521954F
:1037A00031092230310574F48091D40586130AC0A2
:1037B0001AC001969093400780933F078281811140
:1037C0008150828380914407811138C080913C07E9
:1037D00018164CF133C096E0A930B90709F0C0CFF4
:1037E000E0E0F0E0C5CF109243072091CE05809134
:1037F000410790914207820F911D90934207809359
:10380000410720910A0730E08217930718F081E002
:10381000809309078FEF49830E94E51A87E280931E
:10382000CC014981CFCF842F0E945817882331F0D3
:1038300083E390E090934907809348070F90DF91CE
:10384000CF9108958F929F92AF92BF92CF92DF92C5
:10385000EF92FF920F93CF93DF936B01EC014C013A
:10386000840E911C5B01A20EB11CC815D905ECF4A5
:103870007601D7FE10C0E12CF12C0DC0E816F90638
:1038800094F4202FA701BE018AE497E00E94551608
:103890002FEFE21AF20AC50121E4A216B10474F373
:1038A00080E490E0EBCF2196E0CFDF91CF910F91B4
:1038B000FF90EF90DF90CF90BF90AF909F908F9050
:1038C00008958F929F92AF92BF92CF92DF92EF9224
:1038D000FF920F931F93CF93DF93B12CCB2CD12C5E
:1038E0008091FB059091FC05C816D90608F0B1C07F
:1038F00083E0CC0CDD1C8A95E1F710E0C12FD0E00D
:103900008091FD059091FE05C817D90708F098C071
:1039100023E0CC0FDD1F2A95E1F78091EE05909111
:10392000EF05A091F005B091F105CA0FDB1F809162
:10393000F2059091F305A091F405B091F5059E0173
:10394000285F3F4F2838310508F078C07601EA0E2D
:10395000FB1EC70108968834910508F06FC06B2DD7
:10396000812F0E943E19843051F08B3009F449C0F8
:10397000882309F463C0282F4DEE56E15BC024E094
:103980004DEE56E1B701CE010E94F51501E027E0AA
:1039900045E0B70162507109CE0102960E94221CD7
:1039A0008091CB01843108F049C02091F60530E0C8
:1039B000F901E15CFE4F0081220F331FF901E55D43
:1039C000FE4F8080918020E081E0E81AF108239684
:1039D0002017A1F1F40184913196E491AA24A394D3
:1039E000A20E181309C0BE1207C02A2D4DEC56E1D5
:1039F000B701CE010E948A152A2DF2E08F0E911C8C
:103A0000E7CFAFEFB5E0ED91FD91808181131AC052
:103A100081818B1117C0828124E0829FC001112413
:103A2000638170E00E94B432262F643008F023E0F6
:103A30004BEA56E1B701CE010E94F5151F5F5ECF3C
:103A4000B3944CCF86E0A930B807E9F6E0E0F0E0A7
:103A5000E2CFDF91CF911F910F91FF90EF90DF9018
:103A6000CF90BF90AF909F908F9008958F929F922C
:103A7000AF92BF92CF92EF920F931F9320913D0789
:103A800080914807909149078632910578F48F31EB
:103A90009105C0F4009719F1489708F44EC020E052
:103AA0008BEF02E014E148E556E127C08D32910525
:103AB00080F0C49708F041C08BEF0DE612E14DEBAA
:103AC00054E11BC020E08BEF01EB13E145E056E130
:103AD00014C08BEF0FE013E141E655E10EC0809179
:103AE0004407811105C00BE412E149E954E105C026
:103AF00080E007E012E143E554E141155105E9F0AA
:103B0000082E000C990B8090370790903807A090F2
:103B10003907B0903A07BC016A0D7B1D80903307CE
:103B200090903407A0903507B0903607CC24C3940A
:103B3000E22E8A0D9B1D0E945F131F910F91EF9043
:103B4000CF90BF90AF909F908F9008952F923F920B
:103B50004F925F926F927F928F929F92AF92BF929D
:103B6000CF92DF92EF92FF920F931F93CF93DF9349
:103B7000CDB7DEB728970FB6F894DEBF0FBECDBF26
:103B80004091D00508E0409FA0011124C090EE05AF
:103B9000D090EF05E090F005F090F105C701BB274C
:103BA00097FDB095AB2F89839A83AB83BC8320911B
:103BB000D10598E0299F100111248090F205909082
:103BC000F305A090F405B090F5058501332717FDA6
:103BD0003095232F0D831E832F833887E091430771
:103BE000E11144C089819A81840F951F893F1FEF9D
:103BF0009107E4F180389105CCF56D817E81620DED
:103C0000731D683F2FEF72078CF16034710574F5F6
:103C10002091D5052130F1F42091CD05CC24C39419
:103C2000E22E01EB18E14FEB58E10E945F13809107
:103C30004D0790914E076FE070E00E94A032892BF3
:103C400009F079C181E09091CD05911180E08093D8
:103C5000CD0571C1213008F087C0CC24C394E12C7C
:103C60000FEC18E120E046ED58E17BC08091BB07E6
:103C7000853009F060C14090330750903407609060
:103C80003507709036078091370790913807A091DB
:103C90003907B0913A076091CB01643108F04BC10C
:103CA000EE2361F04091D30568E0469FA001112406
:103CB0002091D405E8E02E9F1001112469817A81BA
:103CC000695F7F4F640F751F6738710508F4CFC0B7
:103CD0008301332717FD3095232F0D831E832F83F8
:103CE00038878D01332717FD3095232F09831A83D9
:103CF0002B833C834C185D086E087F0846195709D2
:103D000088199909AA09BB09F101EA1BFB0BED808F
:103D1000FE80FF24882799278E199F094817590785
:103D20000CF4B3C080E890E08E199F09481759073A
:103D30000CF0BFC0F7FFECC08D81840F20E060E085
:103D4000A0E8B0E0AE19BF094A175B070CF0B5C098
:103D500070E0CC24C394E22E03EF17E143E358E173
:103D600090E00E945F13E7C0223009F0E4C0409168
:103D7000D6052091CD053091D705CC24C394E22EF1
:103D8000463029F403E918E141EA58E104C005E7A7
:103D900018E143E858E1830F911D37FD9A950E9481
:103DA0005F1380914D0790914E0787709927892B5B
:103DB00009F0C1C09091D0058091D705282F082E19
:103DC000000C330B2D5F3F4F48E0949F200D311DB9
:103DD0001124409133075091340760913507709159
:103DE0003607AB01485F5F4FC090EE05D090EF05FE
:103DF000E090F005F090F1054E195F0924173507A2
:103E000089F091E02091CD05211190E09093CD05AE
:103E10009091D605963011F4815001C08F5F809348
:103E2000D70589C081E0809343071092460742E599
:103E300050E065EA70E087E295E028960FB6F894C6
:103E4000DEBF0FBECDBFDF91CF911F910F91FF90CD
:103E5000EF90DF90CF90BF90AF909F908F907F902A
:103E60006F905F904F903F902F900C9404186D814D
:103E70007E81620D731D683FFFEF7F070CF428CF32
:103E8000603471050CF024CF56C0C8019927222751
:103E90003327281B390BE217F3074CF527E060E0C6
:103EA00008E310E0D801A81BB90BEA17FB076CF573
:103EB00002C020E060E080E043CF49815A8155276D
:103EC000AA27BB27A41BB50BEA17FB0744F521E083
:103ED00060E088E7A8E3B0E08D01041B150BE01754
:103EE000F1070CF435CF23E060E388E731CF28E316
:103EF00030E0281B390BE217F3072CF4698164507A
:103F00006E0F26E0CDCF20E0CACF25E060E3D3CF0F
:103F1000309779F28D81840F24E060E311CFA8E31C
:103F2000B0E0A41BB50BEA17FB07A4F66981645047
:103F30006E0F22E0CECF28960FB6F894DEBF0FBEEC
:103F4000CDBFDF91CF911F910F91FF90EF90DF9048
:103F5000CF90BF90AF909F908F907F906F905F9029
:103F60004F903F902F9008950F931F93CF93DF931F
:103F70008C01C0E0D0E0F801EC0FFD1F64916623D6
:103F800071F0E0912907F0912A070190F081E02D6E
:103F900089E297E00995892B11F02196ECCFCE01AB
:103FA000DF91CF911F910F9108954F925F926F9281
:103FB0007F928F929F92AF92BF92CF92DF92EF92B9
:103FC000FF920F931F93CF93DF93EC018B01442E4D
:103FD000CB018C1B9D0B97FF03C091958195910997
:103FE00055245394813891053CF4512CC80100E8C4
:103FF00010E0E12CF12C0FC00C171D0734F07E01EE
:1040000080E890E0C0E0D0E006C078018E0180E05A
:1040100090E0C0E8D0E038016E187F085C01AC1A6F
:10402000BD0AB7FE03C0B194A194B108630177FE45
:1040300003C02FEFC21AD20AD594C794C817D90764
:1040400014F08FEF01C081E0882E880F99080E15BB
:104050001F05C4F0242D552019F0A701BE0102C090
:10406000AE01B7018AE497E00E945516CA18DB0832
:10407000D7FE04C0C80DD91DC60CD71C8FEFE81A97
:10408000F80AE5CFDF91CF911F910F91FF90EF904C
:10409000DF90CF90BF90AF909F908F907F906F9068
:1040A0005F904F900895FC018091BA07811103C081
:1040B0008FEF9FEF08959FB7F89482E08093E90017
:1040C0002091F20030E01216130614F421E030E0E3
:1040D0002115310559F0289884E68093B90780911D
:1040E000F10080838091F200882319F09FBFC901FD
:1040F00008958BE68093E800F9CF2FB7F89483E01A
:104100008093E9009091E800892F807295FF04C0A8
:104110009091F20080E4891B2FBF08958091C00721
:1041200081110DC082E08093BC0784E08093BD07BD
:104130001092BF071092BE0781E08093C0078CEBFE
:1041400097E00895CF93DF93CDB7DEB7A6970FB66C
:10415000F894DEBF0FBECDBF789484B5826084BD75
:1041600084B5816084BD85B5826085BD85B581607B
:1041700085BD80916E00816080936E0010928100F9
:1041800080918100826080938100809181008160B4
:104190008093810080918000816080938000809175
:1041A0009100826080939100809191008160809362
:1041B0009100809190008160809390008091C10077
:1041C00084608093C1008091C10082608093C100AF
:1041D0008091C10081608093C1008091C3008160A3
:1041E0008093C3008091C00082608093C000809162
:1041F000C20081608093C20080917A0084608093C5
:104200007A0080917A00826080937A0080917A00AF
:10421000816080937A0080917A00806880937A0030
:104220001092BA071092AA011092A9018091D700AA
:1042300081608093D70080EA8093D80089B580613F
:1042400089BD89B5826089BD09B400FEFDCF61E0FA
:1042500070E080E090E00E9448118091D8008F7C4F
:1042600080618093D8008091E000807F8093E0009F
:104270008091E1008E7E8093E1008DE08093E200EA
:10428000559A209AEEEFFFE7859194918B3F9C4DD4
:1042900019F481E08093A80181EC80937C0085B1C2
:1042A000806F85B984B1877E84B984B1876E84B903
:1042B0005E9A5F988AB1806D8AB9769A6E9881B35A
:1042C000806F81BB899880B38D7080BB80E58CBD89
:1042D00081E08DBD85E090E00E9405165F9A85E043
:1042E00090E00E9405165E985C98E0ECF0E08DE0AE
:1042F0008E0F94919EBD00000DB407FEFDCF319648
:104300008E13F7CF5C9A81E88093640080916500FA
:104310008160809365000E94D51A0E940A1687FF6B
:1043200015C05C9885EA8EBD00000DB407FEFDCF78
:104330005C9A2E982F982D988091640080628093CB
:10434000640081E083BF889513BEFCCF02E010E0DB
:104350000E940A1682FF40C02D980E940A16847897
:104360008438C1F00E940A168471843181F52D9A37
:1043700088EC90E00E9405162E981A83098360E06D
:10438000CE0101960E94671784EF91E00E94051606
:104390002E9A18C02D9A88EC90E00E9405162F984E
:1043A0001A8309836FEFCE0101960E94671784EF8D
:1043B00091E00E9405162F9A0E940A16847884388C
:1043C000D9F3D0CF0E940A1684718431D9F388ECD6
:1043D00090E00E940516BCCF2D9A82E090E00E94EA
:1043E0001B32882331F03E9A3F9A81E08093AB01E3
:1043F00004C01092AB013E983F980E94C81A80E119
:104400008093510780E00E94BE179E012F5F3F4FAF
:104410001901AE01405F5F4F588F4F8B8FB7F894F3
:104420004091AC015091AD016091AE017091AF012E
:104430008FBF80915207942F981B892F909153071B
:10444000992331F080935407109253070C94FE2B5C
:1044500090915107891758F48F5F891710F00C94C9
:10446000FE2B81E083BF889513BE0C94FE2B81E068
:10447000809353074093520780914D0790914E07C8
:10448000019690934E0780934D0780914F0780933C
:1044900050070E940A1680934F070E94C81AE091A5
:1044A000BB078E2F90E08A30910508F02DC7FC01E4
:1044B000EA5AFF4F0C94C83220E04DE959E061E11F
:1044C00070E08DE190E00E94F51580910401882351
:1044D00079F0813009F058C010920001109201016A
:1044E00090E49093020180930301109204010CC7A1
:1044F0008091000187FD42C08091020190E02091EF
:104500000101821B910997FD019695958795D82EFB
:10451000E12CF12C40910001ED1448F58701000FCA
:10452000111F80910101B801680F711D6034710580
:104530002CF420E080E090E00E94121680910101AE
:10454000B801680F711D6F5F7F4F8091000160346B
:1045500071054CF420E0482FA0E8B0E0A81BB10999
:10456000CD010E941216BFEFEB1AFB0AD3CF47FD15
:1045700005C080910301480F409300018091000124
:1045800087FFC2C60C94122D815080930401BCC6D3
:104590001092B50180E00E94761981E00E94E51A30
:1045A00010923D0782E08093BB0780E8809306016C
:1045B0001092070180E48093080181E08093090153
:1045C0000091D0058091EE059091EF05A091F00546
:1045D000B091F105CD01BB2797FDB095AB2FE8E079
:1045E0000E9F80011124080F191F8090D105898E1C
:1045F0004091F2055091F3056091F4057091F50535
:104600006B01FF24D7FCF094EF2CB6016A5F7F4F5B
:10461000409033075090340760903507709036070C
:104620002301772457FC7094672C5E8E4D8E80900A
:10463000370790903807A0903907B0903A0720913B
:104640004407211102C038E001C03BE020E04BE903
:1046500056E039A30E94F5150E94611C0E94361D88
:104660000E94A61D0E94311880913707909138074B
:10467000A0913907B0913A0739A10097A942B10535
:1046800034F080913C07181614F40C94082C41E186
:10469000440E511C041515050CF036C6095F1F4F5A
:1046A0008D8D9E8D801791070CF02EC6098DA8E088
:1046B0000A9FC00111248C0D9D1D4501BB2497FC50
:1046C000B094AB2CA401232F30E0820E931E8815EA
:1046D00099050CF019C60896481759070CF014C62E
:1046E000DFC581E08093B50183E080934707109296
:1046F00042071092410784E08093BB071092D805CF
:104700008AE0809305018091B5010E9476198FEFB0
:104710000E94E51A85E08093BB0780914D07909138
:104720004E076CE370E00E94A032892B39F480912F
:104730000501811103C087E08093BB078091CB0105
:104740008F5F68E20E9494329093CB018091B40114
:10475000882319F081508093B4018091B30188239C
:1047600041F081508093B301811103C08FEF0E940B
:10477000E51A0E94611C8091480790914907892B96
:1047800009F004C10E9431188091430781113BC098
:104790008091D5058823B9F1009133071091340732
:1047A0002091350730913607C0903707D0903807F1
:1047B000E0903907F0903A078091440781110C94FA
:1047C0000D2CA8E08091D0054091EE055091EF05A9
:1047D0006091F0057091F10598E0899F600D711D61
:1047E00011248091D1058090F2059090F305A0905E
:1047F000F405B090F505AB01495F5F4F47385105AF
:1048000010F40C94102CF1018FE0820D11928E1394
:10481000FDCFC0903707D0903807E0903907F0906F
:104820003A076701FF24D7FCF094EF2C8091F20542
:104830009091F305A091F405B091F505CD01BB274A
:1048400097FDB095AB2FC81AD90A80913307909184
:104850003407A0913507B0913607CD01BB2797FDEE
:10486000B095AB2F4091EE055091EF056091F005AA
:104870007091F105AB01772757FD7095672F841B69
:10488000950B7C01B3E0F694E794BA95E1F7AA247E
:10489000A394AE0C12E0B12EBE0C860183E01695F7
:1048A00007958A95E1F7602F8E2D0E943E194101F0
:1048B000880E911CD4019C91911108C0482F602F43
:1048C0008E2D0E948F1B81E0F4018083602F8A2D42
:1048D0000E943E194101880E911CD4019C919111B6
:1048E00008C0482F602F8A2D0E948F1B81E0F401A1
:1048F0008083602F8B2D0E943E194101880E911CF0
:10490000D4019C91911108C0482F602F8B2D0E94DB
:104910008F1B81E0F4018083F8E0CF16D104B0F161
:104920000F5F602F8E2D0E943E196101C80ED11CB1
:10493000D6019C91911108C0482F602F8E2D0E94A6
:104940008F1B81E0F6018083602F8A2D0E943E1923
:104950007101E80EF11CD7019C91911108C0482FFC
:10496000602F8A2D0E948F1B81E0F7018083602FCA
:104970008B2D0E943E19F101E80FF11D90819111DC
:1049800005C0482F602F8B2D0E948F1B0E94361D63
:104990008091CC01882381F127E230E0281B310986
:1049A00037FF02C0295F3F4F63E0359527956A9531
:1049B000E1F78091370790913807A0913907B091BE
:1049C0003A07BD016A50710980913307909134070D
:1049D000A0913507B0913607CC24C394E22E0DE7A1
:1049E00014E04BE855E0CD0105970E945F138091DC
:1049F000CC0181508093CC010E94A61D20E04BEF9A
:104A000053E068E370E080E090E00E94F5158DE0EF
:104A100080932E0780932D0789E380932F07809141
:104A2000410790914207F10125E0220D6AE070E014
:104A30000E94A0328193CB012E13F8CF8E010A5F22
:104A40001F4FD8014E918D0150E060E070E02AE0E8
:104A500089E297E00E94DA100215130591F7209180
:104A60003F0730914007C9010197439708F019C7E4
:104A70008091CB01843108F014C700E028E04EE1BA
:104A800069E370E08CE290E00E94221C8EE5809346
:104A90002E0780932D0719E310932F078091470766
:104AA0000AE0602F0E949432492F50E060E070E0ED
:104AB0002AE089E297E00E94DA1083E780932E07CC
:104AC00080932D0710932F078091CE05602F0E94B1
:104AD0009432192F0E949432492F50E060E070E028
:104AE0002AE089E297E00E94DA10412F50E060E06E
:104AF00070E02AE089E297E00E94DA108091B40128
:104B0000882309F449C08091CB01843108F044C066
:104B10008091D005A090D7050A2C000CBB080FEFA0
:104B2000A01AB00A4091EE055091EF056091F00592
:104B30007091F105A60EB71E18E0819FA00CB11C64
:104B400011248091D1054091F2055091F3056091B7
:104B5000F4057091F5054B012DE0821A910838E0BB
:104B6000839F800C911C1124CC24C394E12C09E672
:104B700013E020E041EB53E0B401C5010E945F1354
:104B80002091D2052B5CB4016C5F7F4F4FE552E062
:104B9000C50149960E948A158091B3018823B1F11D
:104BA0008091CB01843190F53091D0058091D10571
:104BB0004091F2055091F3056091F4057091F5056F
:104BC0006D50710948E0849F600D711D1124809122
:104BD000D705082E000C990B0196C090EE05D090D9
:104BE000EF05E090F005F090F1058E0D9F1DCC24AF
:104BF000C394E12C09E613E020E045E152E0A8E08F
:104C00003A9F800D911D11240E945F138091BB0774
:104C1000863009F043C000E020E14EE567E170E036
:104C200082E190E00E94221C21E04CE569E170E005
:104C300083E190E00E94121621E04CE566E270E00C
:104C400083E190E00E94121620E04CE567E270E0FC
:104C500083E190E00E94121686E180932E078093F4
:104C60002D078CE180932F078EE092E00E94B41F05
:104C70004091B50150E060E070E02AE089E297E001
:104C80000E94DA1081E092E00E94B41F88E00E9446
:104C90002618882319F084E08093BB078091480789
:104CA00090914907009761F480914D0790914E07CC
:104CB0006FE070E00E94A032892B09F41FC61FC06C
:104CC0008230910551F0D8F084339105C0F40197FA
:104CD000909349078093480712C081E090E0909339
:104CE0004907809348078091470781508093470781
:104CF000882311F086E001C087E08093BB07809194
:104D00004307882309F400C380914D0790914E0713
:104D10006FE070E00E94A032892B09F0F5C280910B
:104D2000B2018F5F8B3018F48093B201EDC2109204
:104D3000B2018091CE058B3008F4E6C28150809399
:104D4000CE05E2C281E00E94A31600E02FE140E818
:104D500060E170E080E090E00E94221C40E06DE0A5
:104D600070E08DE090E00E94D51F40E06FE070E0C1
:104D70008FE090E00E94D51F41E061E170E081E1A9
:104D800090E00E94D51F41E06DE270E08DE290E07E
:104D90000E94D51F40E06FE270E08FE290E00E9439
:104DA000D51F40E061E370E081E390E00E94D51FF1
:104DB00020E049E651E064E170E089E190E00E9482
:104DC000F51584E280932E0780932D0783E280936C
:104DD0002F0782E691E00E94B41F809141079091D5
:104DE0004207F10125E0220D6AE070E00E94A03246
:104DF0008193CB012E13F8CF8E010A5F1F4FF8016C
:104E000042918F0150E060E070E02AE089E297E093
:104E10000E94DA100215130591F788E00E94261807
:104E2000811181C584E00E94261881117CC51092F1
:104E3000B5016AC28FEF8093240710922507109264
:104E4000260710922707109228078091410790911A
:104E500042079E8B8D8B00E010E0B12C1A821982E4
:104E60006801FBEACF0ED11CB101C6010E942A19CC
:104E700029813A818D899E892817390730F44FEBB3
:104E8000E42EF12C54E0A52E0AC0B3940B5F1F4F03
:104E900035E0832EB810E2CFBB24BA943CC0BA14DC
:104EA00010F5AA94B1018A2D0E941D176981C701CE
:104EB00003970E94AE176A81C70102970E94AE173E
:104EC0006B81C70101970E94AE178C819D81998BE0
:104ED000888BBE01605F7F4FC7010E94871725E066
:104EE000E21AF108DCCF60E0C80188559F4F0E94AC
:104EF000AE1760E0C80187559F4F0E94AE1760E073
:104F0000C80186559F4F0E94AE17BE016B5E7F4F52
:104F1000C6010E9487171FEFB101812F0E941D1744
:104F20001F5F1430C9F7B092240789E08093BB0754
:104F300080E8809306011092070180E480930801C5
:104F400081E08093090180E00E94A31600E020E444
:104F500042E560E070E087E190E00E94221C00E002
:104F600010E021E0A80168E170E08AE497E00E9487
:104F700055160F5F1F4F0034110599F700E010E040
:104F800021E0A80167E670E08AE497E00E945516E8
:104F90000F5F1F4F0034110599F720E040ED50E0FE
:104FA00066E070E08CE190E00E94F51505E110E00C
:104FB000912C96E0B92E26E0A22EA20CBE01605FD5
:104FC0007F4F892D0E941D1728894FE552E0B801B7
:104FD00083E290E00E94F51529894FE552E0B8017F
:104FE00089E290E00E94F5152A894FE552E0B80168
:104FF0008FE290E00E94F515D101EB2D1D92EA950C
:10500000E9F78B899C896101F1016AE070E00E94F7
:10501000A0328193CB01AE12F8CF89E5E82EF12CB6
:10502000D6012D916D012C5C4FE552E0B801C7010E
:105030000E94F515B5E0EB1AF108EBE3EE16F1046A
:1050400079F79394085F1F4FF5E09F12B7CF109147
:1050500024071F3F09F41BC18091B1018F5F80932A
:10506000B1018F30E8F408E0109FB00111246C5EAC
:105070007F4F20E04DEC50E08EE190E00E94F5156E
:105080006091240718E0619FB00111246C5E7F4F8E
:1050900020E04DEC50E081E690E00E94F51504C060
:1050A0008F3110F01092B101809125076091240793
:1050B00081111EC028E0629FB00111246C5E7F4FF9
:1050C00001E028E046E082E290E00E94221C60912C
:1050D000240738E0639FB00111246B5E7F4F20915D
:1050E00026074FE552E083E290E00E948A150EC049
:1050F00048E0649FB00111246B5E7F4F209126072A
:105100004FE552E083E290E00E94F515809125077B
:10511000609124078130F1F458E0659FB0011124BB
:105120006C5E7F4F01E028E046E088E290E00E945C
:10513000221C6091240788E0689FB00111246B5EF7
:105140007F4F209127074FE552E089E290E00E94CF
:105150008A150EC098E0699FB00111246B5E7F4FE5
:10516000209127074FE552E089E290E00E94F51573
:1051700080912507609124078230F1F4A8E06A9FAE
:10518000B00111246C5E7F4F01E028E046E08EE222
:1051900090E00E94221C60912407B8E06B9FB00150
:1051A00011246B5E7F4F209128074FE552E08FE27C
:1051B00090E00E948A150EC0E8E06E9FB0011124B5
:1051C0006B5E7F4F209128074FE552E08FE290E021
:1051D0000E94F5151091250780E80E942618882363
:1051E00059F0E12FF0E0EC5DF84F82818A3111F443
:1051F000128202C08F5F828380E10E94261888237A
:1052000059F0E12FF0E0EC5DF84F8281811102C08E
:1052100089E101C08150828380E20E9426188823A0
:1052200029F0112319F011501093250780E40E94F2
:105230002618882339F080912507823018F48F5F73
:105240008093250788E00E942618882309F45CC013
:1052500000912407F5E00F9F80011124609126073B
:10526000C80188559F4F0E94AE1760912707C8015B
:1052700087559F4F0E94AE1760912807C801865539
:105280009F4F0E94AE178FEF809324073DC00E946E
:105290000A1687FFA9C30E940A1684FD48C3A4C347
:1052A000809164008E7F8093640080917A00806496
:1052B00080937A0080917A0086FDFCCF009178007F
:1052C000109179000E94231120E030E0980111270D
:1052D0000027600F711F821F931F611571058105E3
:1052E000910511F00E9412328091640081608093D8
:1052F000640045EA50E066E271E08BE092E00E94D3
:10530000041883E08093BB070E94D51AF0903C07F5
:105310008F2D0F2C000C990BAA0BBB0BDC019927CE
:1053200088274C015D01BB0C8808982C54019C0116
:10533000AD01682D782D882D982D00E10E94CE3288
:10534000E22E032F142FB52FF62FE72F6C01A0E0CC
:105350000E9405337CF421503109484F5F4F6F4F55
:105360007F4F8F4F9F4FE22E032F142FB52FF62F15
:10537000E72F6C012E2D302F412F5B2F6F2F7E2FAB
:10538000C60103E10E94E732298F3A8F4B8F5C8F71
:1053900080913B07082E000C990BAA0BBB0BDC017C
:1053A000992788274C015D01BB0C8808982C540173
:1053B0009C01AD01682D782D882D982D00E10E946B
:1053C000CE32E22E032F142FB52FF62FE72F6C01CC
:1053D000A0E00E9405337CF421503109484F5F4F13
:1053E0006F4F7F4F8F4F9F4FE22E032F142FB52FFC
:1053F000F62FE72F6C012E2D302F412F5B2F6F2FB3
:105400007E2FC60103E10E94E73229013A01F7FE2F
:105410007CC00091330710913407209135073091FB
:1054200036078091EE059091EF05A091F005B091BF
:10543000F1058D8F9E8FAF8FB8A3C090F205D090ED
:10544000F305E090F405F090F50580903707909013
:105450003807A0903907B0903A07A501772757FD84
:105460007095672FC701BB2797FDB095AB2FBA0189
:10547000681B790BCB0187709927892B09F0BDC078
:105480006115710509F44FC3B3E076956795BA9538
:10549000E1F74FEF460FC901BB2797FDB095AB2F42
:1054A0008BA39CA3ADA3BEA30D8D1E8D2F8D38A104
:1054B000C901BB2797FDB095AB2F0BA11CA1081B01
:1054C000190B23E0169507952A95E1F7642F802F95
:1054D00049A30E943E190E94581749A1811123C374
:1054E000642F81E0800F0E943E190E94581749A145
:1054F000811119C3642F82E0800F0E943E190E941F
:105500005817882309F479C00EC3FF2009F494C00A
:10551000309144073AA3311102C0E8E001C0EBE04A
:1055200000913307109134072091350730913607E9
:105530004091EE055091EF056091F0057091F105F5
:105540008090F2059090F305A090F405B090F505D9
:105550008D8E9E8EAF8EB8A28091370790913807BE
:10556000A0913907B0913A07CD01BB2797FDB095BF
:10557000AB2F6501FF24D7FCF094EF2C4C018C1865
:105580009D087401EE0EF11CC70187709927892BC5
:1055900009F008C38901332717FD3095232FAB018C
:1055A000772757FD7095672F041B150B83E0F69442
:1055B000E7948A95E1F7680193E0D694C7949A95A9
:1055C000E1F76E2D8C2D0E943E190E945817811113
:1055D000C7C36E2D81E08C0D0E943E190E945817A2
:1055E0008111BEC36E2D82E08C0D0E943E190E9477
:1055F0005817882309F4D6C2B3C380913E07882385
:1056000039F0815080933E07811102C01092440707
:1056100010924507F7FE5DC2811491041CE1A106BA
:10562000B1040CF401C2811491040CE1A006B10490
:1056300009F405C20CF012C280913B0787FF65C0D8
:105640008090EE059090EF05A090F005B090F105E8
:105650008091330790913407A0913507B0913607B8
:10566000CD01BB2797FDB095AB2FA501772757FD3F
:105670007095672F841B950BC0903707D090380723
:10568000E0903907F0903A074091F2055091F30508
:105690006091F4057091F5059C0127703327232B49
:1056A00009F094C06701FF24D7FCF094EF2CAB0104
:1056B000772757FD7095672F8601041B150B23E094
:1056C000969587952A95E1F7DD24DA94D80E78012E
:1056D00033E0F694E7943A95E1F76E2D8D2D0E9414
:1056E0003E190E945817811189C007701127012B9C
:1056F00009F46CC061E06E0D8D2D0E943E190E9470
:105700005817882309F462C079C018160CF076C0C7
:105710008090EE059090EF05A090F005B090F10517
:105720008091330790913407A0913507B0913607E7
:10573000CD0141968A199B09C0903707D090380750
:10574000E0903907F0903A074091F2055091F30547
:105750006091F4057091F5059C012770332727307F
:10576000310509F0DAC36701FF24D7FCF094EF2C70
:10577000AB01772757FD7095672F8601041B150B2A
:10578000A3E096958795AA95E1F7DD24D394D80EEA
:105790007801B3E0F694E794BA95E1F76E2D8D2D7C
:1057A0000E943E190E945817811128C007701127C6
:1057B000012B09F4B2C361E06E0D8D2D0E943E19DC
:1057C0000E945817882309F4A8C318C08091330792
:1057D00090913407A0913507B0913607B7FE83C387
:1057E0000097E8E3AE07B1050CF43CC30097F8E37B
:1057F000AF07B10509F43DC30CF050C380E090E061
:10580000892B11F40C940E220E9400000C940922A2
:1058100081E0809344070C944723ABE00C94E2238F
:10582000F501B8E08B9FE00DF11D1124CF01883FF9
:10583000EFEF9E0714F40C9403248034910514F0C8
:105840000C9403248901332717FD3095232FF80189
:1058500098012F5E3F4F6217730714F00C940324D6
:10586000E417F50714F00C9403246701FF24D7FC18
:10587000F094EF2CB0E0AC0DBD1D8A179B0714F01F
:105880000C9403240896C816D90614F00C9403242B
:1058900088E78093B3011092D505109246070C94C7
:1058A000032499E390932E0790932D0790932F074D
:1058B000C9016AE070E00E94A032888BCB016AE0E7
:1058C00070E00E94A032898BCB016AE070E00E94F8
:1058D000A0328A8B8E010D5E1F4FF80142918F011D
:1058E00050E060E070E02AE089E297E00E94DA1080
:1058F0008F88988C0815190581F7C8C880913F07D3
:1059000090914007009729F001979093400780936A
:105910003F0780913F0790914007892B09F0EFC91D
:1059200010924407ECC988E08093BB0780CA80913D
:10593000B0018F5F8093B001853158F488E00E94F8
:105940002618811164C084E00E94261881115FC06E
:10595000DBCC8D3390F420E430E04901881A9108C3
:10596000C401880F93E894BD17BD91EF9093800018
:105970001092880080938A00E1CF8D33F9F610925F
:10598000B00183E884BD17BD81EF80938000109241
:10599000880010928A0081E00E94BE1780917100F9
:1059A0008D7F809371001092DD058EED95E09093D0
:1059B000DC058093DB059093DA058093D90587E1B8
:1059C00094E09093DF058093DE0584E690E0909369
:1059D000E1058093E00580E090E89093E3058093F3
:1059E000E2050E94511290CC8091B001882309F405
:1059F000A5CF83E884BD8FEF87BD81EF80938000C2
:105A00001092880010928A001092B00197CF83E81C
:105A100084BD8FEF87BD81EF809380001092880056
:105A200010928A0081E06ECC898C9A8CAB8CBC8CF5
:105A3000C814D904EA04FB040CF0ABC08AC08091FE
:105A4000FD059091FE05409709F07FC08091FB0510
:105A50009091FC05089709F078C088C0898D9A8DCF
:105A6000AB8DBC8D880D991DAA1DBB1D8130910584
:105A70002CE1A207B1054CF08093370790933807CB
:105A8000A0933907B0933A07D7CD3CE1E30EF11C60
:105A9000C818D908EA08FB08898C9A8CAB8CBC8C96
:105AA000C818D908EA08FB08C092F205D092F3059D
:105AB000E092F405F092F50500E010E02CE130E012
:105AC00000933707109338072093390730933A072C
:105AD000B3CD898D9A8DAB8DBC8DB095A0959095E9
