:100000000C943A0E0C94620E0C94620E0C94620ED8
:100010000C94620E0C94620E0C94620E0C94620EA0
:100020000C94620E0C94620E0C94C0160C94321751
:100030000C94620E0C94620E0C94620E0C94620E80
:100040000C94620E0C94620E0C94620E0C94620E70
:100050000C94620E0C94620E0C94620E0C94360F8B
:100060000C94620E0C94620E0C94620E0C94620E50
:100070000C94620E0C94620E0C94620E0C94620E40
:100080000C942E100C94620E0C94620E0C94620E62
:100090000C94620E0C94620E0C94620E0C94620E20
:1000A0000C94620E0C94620E0C94620E4B23B723D8
:1000B000CC235A246724752475241C2895282329C9
:1000C000D5F08D14A1C881CFD9F1AF20000108FF70
:1000D000480BFFFFFF3030FFFFFF00FFFFFF00F87E
:1000E000FEFF0763E3E300FFFFFF3030FFFFFF0089
:1000F000000000000E1F3FF3E3C000F8FEFF0703FF
:100100000300F8FEFF0303FFFEF800FFFFFF73FF8D
:10011000DF0E00FFFFFF333333330707070000070D
:100120000707000707070001030707060307000783
:100130000707000007070700000000000706060782
:100140000301000003070706060000030706060771
:100150000300000707070007070700070707060651
:10016000060653434F52453A004B0D00F0FCFE0E7D
:10017000C6C6C6000080F8FE0EFEF8800000FEFE37
:10018000FE7CE07CFEFEFE00FEFEFE66666666000D
:1001900000000000F0FCFE0606FEFCF0023EFEF849
:1001A00000F8FE3E0200FEFEFE6666666600FEFE8B
:1001B000FEE6FEBE1C000003070F0E0C070F000C2E
:1001C0000F0F0303030F0F0C000F0F0F0003000F9F
:1001D0000F0F000F0F0F0C0C0C0C000000000001A3
:1001E000070F0C0C0F07010000030F0F0F01000099
:1001F000000F0F0F0C0C0C0C000F0F0F000F0F0E49
:100200000020474F4F44204C55434B2120004C6564
:1002100076656C2000240F00F8FCFEFEFEFE1EEE4C
:10022000EE1EFE1EFEFE1EFE3EDEFEBEFE0EBEBE2E
:100230007EFEFE0EFEFEFEFEFCF8000003070F0F22
:100240003F1F0E0D0F0E0F0E0D0D0E0F0E0D0D0E8E
:100250000F0C0F0F0C0F0F0D0F0F0F0F07030004E4
:10026000083E09093E3F25251A1E2121123F212162
:100270001E3F2525213F0505011E21293A3F040483
:100280003F213F21001021211F3F040A313F202040
:10029000203F02023F3F02043F1E21211E3F090969
:1002A000061E21112E3F09093622252519013F017D
:1002B000011F20201F0F10201F3F10103F3B040480
:1002C0003B03043807312D2321102A2A3C3F2424E4
:1002D000181C2222141824243F1C2A2A2C043E0510
:1002E000014C52523E3F040438243D20004040441B
:1002F0003D3F081422213F20003E04043E3E0402FC
:100300003C1C22221C7E22221C1C22227E3E040235
:1003100004242A2A12021F22201E20201E0E102032
:100320001E3E10103E360808364E50503E322A26E9
:10033000221E29251E223F2000322929261221258E
:100340001A0C0A3F08172525191E252518013905FD
:10035000031A25251A0629291E002F000000200057
:10036000000229050200040400F8FCFEFFFFFFFF65
:10037000FFFFFFFFFFFFFFFFFFFFFFFFFFFFFFFF8D
:10038000FFFFFFFFFFFFFFFFFFFFFEFCF803070F6C
:100390001F3F7F3F1F1F1F1F1F1F1F1F1F1F1F1FCD
:1003A0001F1F1F1F1F1F1F1F1F1F1F1F1F1F0F0785
:1003B00003240F00F8FCFE1EEE6E5EFE3EDEDE3E07
:1003C000FEFEDE0EDEFE3EDEDE3EFEFEFEFEFEFE3D
:1003D000FEFE0EFEFCF8000003070F0E3D1D0C0F85
:1003E0000E0D0D0E0F0F0F0E0D0F0E0D0D0E0F0F2C
:1003F0000F0F0F0F0F0F0D0F0703008008FF0301F2
:10040000B9A9FDA9E901A101010101010101010150
:1004100001010101010101010101010101010101CC
:10042000010101010183EF83013149FD85D5F90502
:100430000901A10101010101010101010101010104
:1004400001010101010183EF830101C161B979C992
:10045000C9D161A161C101A1010101010101010134
:100460000183EF83010111C93DC90501A10101010A
:10047000010101010101010101010103FF0000006F
:10048000000000000000000000000000000000006C
:10049000000000000000000000000000000000005C
:1004A0000000E8FCFFFFFF7E2E00000000000000BF
:1004B000000000000000000000000000808080E0DC
:1004C000E0E080808080000000000000000000006C
:1004D0000000000000747EFFFFFF3F3F7F7FFFFFB3
:1004E000FF3F1700000000000000000000008080B7
:1004F000800000A0F0FCFCFCF8B8000080808000C8
:1005000000000000000000747EFFFFFF3F170303A0
:100510000707070100747EFFFFFF3F170000000080
:10052000000000808080000000D0F8FEFEFEFC5C31
:10053000000000808080000000000000747EFFFF4B
:10054000FF3F17000101030303000000747EFFFF5B
:10055000FF3F17000000008080800000000000E8DE
:10056000FCFFFFFF7E2E0000000000808080000066
:10057000747EFFFFFF3F1700000000000101010033
:1005800000000000747EFFFFFF3F171B10000000FB
:10059000000000000000000000000000000000005B
:1005A000000000000000000000000000000000004B
:1005B0000000004854FE5424000000000000000029
:1005C00000000000000000000000000000000080AB
:1005D000C08080000000000000000000000000005B
:1005E0000000000000242A7F2A110A1F0A242A7F03
:1005F0002A120000000000000000000000000000BF
:10060000000000002050F8509000000000000000A2
:100610000000000000000000242A7F2A12000001D0
:10062000010301000000242A7F2A120000000000BC
:100630000000000000000000000090A8FCA8480096
:1006400000000000000000000000000000242A7FDD
:100650002A120000000000010000000000242A7F90
:100660002A1200000000000000000000000000004E
:100670004854FE5424000000000000000000000068
:1006800000242A7F2A120000000000000000000061
:100690000000000000242A7F2A1200802AFAFA02B1
:1006A00002020202FAFAFAFAFA0202020202FAFA62
:1006B000FAFAFA0202020202FAFAFAFAFA00000060
:1006C000E0F8F8FC9C1C1C1C38000000FCFCFCFC46
:1006D0001C1C1CFCFCF8F00000C0FCFC7CFCFCC0FA
:1006E00000000080E0F0F8783C1C1C1C3C0000FC82
:1006F000FCFCFC1C1C1C1C1C1C000000FAFAFAFA76
:10070000FA0202020202FAFAFAFAFA0202020202F9
:10071000FAFAFAFAFA0202020202FAFAFAE0E01F20
:100720001F1F1F1FE0E0E0E0E01F1F1F1F1FE0E092
:10073000E0E0E01F1F1F1F1FE0E0E0E0E00000001E
:10074000808103070F9EFEFCF8F00000FFFFFFFF13
:100750000E0E0F0F070701E0FCFFFFEFE0EFFFFFBA
:10076000FEE0003FFFFFFFC080000000800000FFB0
:10077000FFFFFF0E0E0E0E0E0E000000E0E0E0E0A8
:10078000E01F1F1F1F1FE0E0E0E0E01F1F1F1F1FF3
:10079000E0E0E0E0E01F1F1F1F1FE0E0E00B0B08A0
:1007A000080808080B0B0B0B0B08080808080B0BB4
:1007B0000B0B0B08080808080B0B0B0B0B00402059
:1007C000432747A747A747A341008040A747A7075C
:1007D0000000000000002647A747014000400147F5
:1007E000A747260000412347274727472740000700
:1007F0002747A747A7472747274000000B0B0B0BAE
:100800000B08080808080B0B0B0B0B080808080856
:100810000B0B0B0B0B08080808080B0B0B00000058
:1008200000000000000000000000000000000000C8
:1008300000000000000000000000040A050A05088E
:1008400005080500000000040A050AE5FAFDFE1E81
:100850000F0707070F00000002F0FFFF1FFFFFF068
:1008600082000000FFFFFFFF87C7FFFF7E3C000400
:100870000800000102050A05080508050804080427
:100880000800000000000000000000000000000060
:100890000000000000000000000000000000000058
:1008A0000000000000000000000000000000000048
:1008B0000000000000000000000000000000000038
:1008C00000000000000000000000000F3565DFB0F0
:1008D00060404040E00080780F854F2B282B4F85EB
:1008E0000F788000FF05057F4343651F86E63C00C7
:1008F00000000000000000000000000000000000F8
:1009000000000000000000000000000000000000E7
:1009100000000000000000000000000000000000D7
:1009200000000000000000000000000000000000C7
:1009300000000000000000000000000000000000B7
:1009400000000000000000000000000000000001A6
:10095000010101010100010101010000000000018D
:10096000010101000101010101010101000000007C
:100970000000000000000000000000000000000077
:100980000000000000000000000000000000000067
:1009900000000000000000000000000000461E00F3
:1009A0000828A8A28E3EFEFEFEF8C00000FEFEFE55
:1009B000FEFEAE16EE30FA6C7878786CFA30E00015
:1009C00000000000000C70C03C00C020C000F020FF
:1009D000C020C000E020C000D000E04000E800C01F
:1009E000200060A00000000000020A2A28A38F1F38
:1009F0007FFEF0FFFFFFFFFFFE05C0E0F0F9198C5E
:100A0000291D18FA3C8F2308020000006091E000C5
:100A1000F021E100E1A0F900010003010000010064
:100A200001000001000001000101000000000000C1
:100A300000000000020A28A1871F7FFFFF7F01003E
:100A4000C7CFCF8F8C8AC87880A00000000000003C
:100A50000000F84808A800F800E0408040800080CE
:100A6000408010F8108040C000000000000000002E
:100A70000000000000000000000000000000020A6A
:100A800008010300000607030B0105000200000037
:100A9000000000000000000003000003000300034A
:100AA0000003000300010201000300010202000034
:100AB000000000000000000808FFFFFFFFFFFFFF2D
:100AC000FF04083E09093E3F25251A1E2121123F39
:100AD00021211E3F2525213F0505011E21293A3FE1
:100AE00004043F213F21001021211F3F040A313F10
:100AF0002020203F02023F3F02043F1E21211E3FD3
:100B00000909061E21112E3F090936222525190142
:100B10003F01011F20201F0F10201F3F10103F3BDF
:100B200004043B03043807312D2321102A2A3C3FBB
:100B30002424181C2222141824243F1C2A2A2C04A2
:100B40003E05014C52523E3F040438243D200040F3
:100B500040443D3F081422213F20003E04043E3E15
:100B600004023C1C22221C7E22221C1C22227E3ECD
:100B7000040204242A2A12021F22201E20201E0EF4
:100B800010201E3E10103E360808364E50503E32A1
:100B90002A26221E29251E223F200032292926121C
:100BA00021251A0C0A3F08172525191E252518018D
:100BB0003905031A25251A0629291E002F000000D1
:100BC00020000002290502000404000102040810AC
:100BD000204080080B00020202010009040000010D
:100BE0000202000005240010010524010101042473
:100BF00002060524060001070581031000400904D0
:100C00000100020A0000000705020240000007057B
:100C100083024000000403090412010002EF0201F4
:100C2000404123368000010102030141726475696D
:100C30006E6F204C4C430041726475696E6F204C9E
:100C4000656F6E6172646F000102040506060E088E
:100C50000102040506060E08020C0B09070D0F031E
:100C6000120C210900000B060102040506060E08FD
:100C70000102040506060E08010C0A09080D1003FE
:100C8000110C200900000C060808080808080505D2
:100C900005080808080808080808080808080808D7
:100CA00008080808080808080808080000000000EC
:100CB0000000000000000000000000000000000034
:100CC000000000000000000000000008000000001C
:100CD0000000000000000000000000000000000014
:100CE0000000000000000000000000000000000004
:100CF00000000000000000000000000000000000F4
:100D000000000000000000000000000000000000E3
:100D100000000000000000000000020202000000CD
:100D200000000000000000000000000000000000C3
:100D3000000000000000000000000000080808009B
:100D400000000000000000000000000000000000A3
:100D5000000000000000000000000000000000088B
:100D6000080000000000000000000000000000007B
:100D70000000000000000000000000000000000073
:100D8000000008000000000000000000000000005B
:100D90000000000000000000000000020000000051
:100DA0000002020408000000000000000000000033
:100DB000000000000000000000000000000800002B
:100DC0000000000909090800000000000000000000
:100DD000000000000000000000000000000000080B
:100DE00000000000000808080800000000000000E3
:100DF00000000000000000000000000000000000F3
:100E000000080000000000000808000000000000CA
:100E100000000000000000000000000000000000D2
:100E200000000008000000000000080000000000B2
:100E300000000000000000000000000000000000B2
:100E40000000000000080000000000000800000092
:100E50000000000000000000000000000000000092
:100E6000000000000000000802020000000008006E
:100E70000000000000000000000000000000000072
:100E80000000000000000000000808080200000048
:100E9000080000000000000000000000000000004A
:100EA0000000000000000000000000080808080022
:100EB000000008000000000000000000000000002A
:100EC0000000000000000000000002020408080802
:100ED0000800000008000000000000000000000002
:100EE00000000000000000000000000009090908DF
:100EF00008080803030308030303080202020202AE
:100F000002020202020202020202020202020101C3
:100F100001010101010101010101010101010101C1
:100F200001010101010101010101010101010101B1
:100F3000080808080808050505080808080808083A
:100F40000808080808080808080808080808080821
:100F50000808080000000000000000000000000079
:100F60000000000000000000000000000000000081
:100F70000000000800000000000000000000000069
:100F80000000000000000000000000000000000061
:100F90000000000000000000000000000000000051
:100FA0000000000000000000000000000000000041
:100FB0000000000000000000000000000000000031
:100FC000000002020200000000000000000000001B
:100FD0000000000000000000000000000000000011
:100FE00000000000080808000000000000000000E9
:100FF00000000000000000000000000000000000F1
:1010000000000000000000080800000000000000D0
:1010100000000000000000000000000000000000D0
:1010200000000000000000000000080000000000B8
:1010300000000000000000000000000000000000B0
:10104000000000020000000000020204080000008E
:101050000000000000000000000000000000000090
:101060000000000000080000000000090909080055
:101070000000000000000000000000000000000070
:101080000000000000000008000000000008080840
:101090000800000000000000000000000000000048
:1010A0000000000000000000000800000000000038
:1010B0000808000000000000000000000000000020
:1010C0000000000000000000000000080000000018
:1010D0000000080000000000000000000000000008
:1010E00000000000000000000000000000080000F8
:1010F00000000000080000000000000000000000E8
:1011000000000000000000000000000000000008D7
:1011100002020000000008000000000000000000C3
:1011200000000000000000000000000000000000BF
:10113000000808080200000008000000000000008D
:10114000000000000000000000000000000000009F
:101150000000000808080800000008000000000067
:10116000000000000000000000000000000000007F
:10117000000002020408080808000000080000003F
:10118000000000000000000000000000000000005F
:101190000000000009090908080808030303080300
:1011A0000303080202020202020202020202020217
:1011B0000202020202020101010101010101010119
:1011C000010101010101010101010101010101010F
:1011D00001010101010101010808080808080808C7
:1011E000080808080808080806050505060808088C
:1011F000080808080808080808080000000000009F
:1012000000000000000000000000000000000000DE
:101210000000000000000000000000000B000000C3
:1012200000000000000000000000000000000000BE
:101230000000000000000000000000000A08060690
:10124000000000000000020602000000000402028C
:10125000020202020000000000000000000A08086C
:101260000D0D00000000000006060600000000064C
:101270000606060606060000000000000000000842
:101280000808000000000000000008080800000036
:101290000A000000000000000A0000000000000634
:1012A000060606060000000A00000000000000001C
:1012B0000000080303030303030308000000000009
:1012C000000D0D0D0D0D00000008000000000000D5
:1012D00000000000080808080808080808000000C6
:1012E00000000000000000000000000800000000F6
:1012F00000000000000000000000000000000000EE
:1013000000000000000000000000000000080A00CB
:101310000000000A0A0400000000000000000000B5
:101320000000000000000000000A0A04000000089D
:10133000080A000000090909000000000000000080
:101340000A000000000A0000000E0E06060600005B
:10135000000808080000000808080000000000005D
:10136000000A080A000000080A0000060606060631
:101370000A0A04080808000000000000000000003D
:101380000A0A0408080800000008080A0A00000009
:1013900000000909090808080A040A0A0A0A0A0AD0
:1013A0000A0A0909090808080303030808080803CA
:1013B00003030303080808080808080101010101E4
:1013C00001010101080808080808010101010101E3
:1013D0000101010101010000000000000000000007
:1013E00000000000000000000000000000000000FD
:1013F00000000000000000000000000000000000ED
:1014000000000000000000000000000000000000DC
:1014100000000000000000000000000000000000CC
:1014200000000000000000000000000000000000BC
:101430000000000000000000000A0A0A0A0A0A0A66
:101440000A040A0000000303030101010101010174
:101450000101010303030002070E0702000000025E
:10146000070E070200000000000207020000000053
:101470000002070200000000110400000204020044
:101480000000000002040200000000000000020052
:101490000000000000000200000000000000000248
:1014A000070E070200000002070E070200000000FE
:1014B0000002070200000000000207020000110401
:1014C000000000000204020000000000020402000C
:1014D0000000000000000200000000000000020008
:1014E00000000303030303030303000003030303D8
:1014F0003F3F000000000000FFFF0000E0E0E0E0F0
:10150000FEFEE0E0E0E0E0E0E0E0FEFEE0E0E0E063
:101510000000FFFF0000000000003F3F0303030343
:1015200000000808000101010101010000000001A4
:101530000101011F000000000000007E00000040CB
:101540004040407C00404040404040007C404040A3
:10155000400000007E000000000000001F010101AB
:101560000100000070707FFFFFFC18C0E0FF7FFFEC
:10157000FCDC07080020201E6408000040201E2418
:10158000480018FCFFFF7F7070DCFCFF7FFFE0C0AD
:1015900007080008641E2020000048241E20400088
:1015A000087CFE7FFE6702087CFE7FFE6E04070853
:1015B0000008641E6402000008641E640400E0F079
:1015C000E0E0F0E0E007084020404060404070F874
:1015D000FEFFFFFFFFFFFFFEFEFFFFFFFAF06000D0
:1015E00000020707070200000000000207070702C9
:1015F00060F0FAFFFFFFFEFEFFFFFFFFFFFFFEF8B8
:101600007002070707020000000000020707070238
:10161000000070F8FEFFFFFFFFFFFFFEFEFFFFFF71
:10162000FAF06060F0FAFFFFFFFEFEFFFFFFFFFF32
:10163000FFFEF8700000000ECEFEF8F8F8F8F8F89B
:10164000F8F0F0E7E7E7FCFC7C70700000000000B9
:101650000E0EEEE1EF0F7F7F7F0F0F0F1F1F1F1F7B
:10166000DFDFDF1F1E1C0000000000000000000084
:101670000000000000000000000000010101000067
:1016800000000000000000000070707CFCFCE7E738
:10169000E7F0F0F8F8F8F8F8F8F8FECE0E000000E1
:1016A000000000001C1E1FDFDFDF1F1F1F1F0F0FAA
:1016B0000F7F7F7F0FEFE1EE0E0E000000000000B5
:1016C0000000010101000000000000000000000017
:1016D000000000000000000007E7F7FCFCFCFCF83D
:1016E000F8F8E0E7F7FFFCFCA00E8EBEF8F8E0008B
:1016F0000000EEEEEF8F8F7F7FFFEFEF0F07071DEC
:101700001F1FFFF8FC1F3F3F3C00000000000003CC
:1017100003030000000000000000000000010101C0
:10172000000000000000000000E0F8F8BE8E0EA0EF
:10173000FCFCFFF7E7E0F8F8F8FCFCFCFCF7E70737
:1017400000000000003C3F3F1FFCF8FF1F1F1D076B
:10175000070FEFEFFF7F7F8F8FEFEEEE00000000AF
:101760000000000001010100000000000000000076
:1017700000000303030000000000E0F8F8BE8E8EB6
:10178000E0FCFCFFC7F770F0D0F0F83CFEFEF7E39A
:10179000031C1C000000787F7F3FF1F1C70E0F0F84
:1017A0007F76778F8FEFEEEE8E80EEEEEE0000000C
:1017B0000000000000010101000000000000030320
:1017C0000300000303030000001C1C03E3F7FEFEFC
:1017D0003CF8F0D0F070F7C7FFFCFCE08E8EBEF84E
:1017E000F8E0000000EEEEEE808EEEEEEF8F8F77E9
:1017F000767F0F0F0EC7F1F13F7F7F78000000006A
:1018000000000303030000030303000000000000C6
:10181000010101000000000000000000E0E7E70710
:1018200000000E0E0E0707070000000E0E0E0070DF
:101830007077071F1C003838380ECECEC00000006D
:10184000808080000000808080000000EEEEEE00CE
:10185000000000000001010100000003030300007C
:1018600000030303030303000000001C1F0777703D
:1018700070000E0E0E0000000707070E0E0E00008F
:1018800007E7E7E0000000EEEEEE00000080808059
:10189000000000808080000000C0CECE0E383838B6
:1018A0000000000000030303030303000000030320
:1018B000030000000101010000000000110B007096
:1018C000186E1EDE1272767C186A1EDA1060000036
:1018D00000000203020000000000000002030200FA
:1018E000006010DA1E6A187C767212DE1E6E1870A6
:1018F00000000203020000000000000002030200DA
:10190000000011080070186E1E5E1272767C186A54
:101910001E5A1060000060105A1E6A187C767212FF
:101920005E1E6E1870001B12000000000480C07064
:10193000F0F090002060C080A2E0A008002000002D
:10194000000000000004004000040026000400071E
:1019500007000E020C820A020C00000000000000CA
:101960000000000000000000000000000000000077
:101970000000000000000000000000000000200047
:1019800008A0E0A280C060200090F0F070C0800449
:101990000000000000000000000C020A820C020E91
:1019A00000070700040026000400400004000000B7
:1019B0000000000000000000000000000000000027
:1019C000000000000000000000001B1200000002E8
:1019D0004060387800F090002060C280A8E0A0004D
:1019E0000400104000000000004400000004200635
:1019F0004004000707000E020098041405180000B8
:101A000000000000000001000000000000000000D5
:101A100000000000000000000000000000000000C6
:101A20004010000400A0E0A880C260200090F000F8
:101A3000783860400200000000000000180514041F
:101A40009800020E00070700044006200400000072
:101A50004400000000000000000000000000000042
:101A600000000000000000000001000000001B1248
:101A70000800000140600C1800B0900020008200B7
:101A80002860A00004001040000000000044000096
:101A90000004400600040022060006020080200028
:101AA00009300000000000000000010000000001FB
:101AB0000000000000000000000000000000000026
:101AC000000000004010000400A0602800820020F8
:101AD0000090B000180C60400100000800000000F9
:101AE00030090020800002060006220004000640A3
:101AF000040000004400000000000000000000009E
:101B000000000000000000000100000000010000D3
:101B100000001B120800020020000000040000006A
:101B2000000002000004000000000240000000006D
:101B30000044000000000000000000000000000061
:101B400000000080040000100000000000000002FF
:101B50000000010000000000010000000000000083
:101B6000000000000000000040020000000004002F
:101B70000002000000000004000000200002000835
:101B800000001000000480000000000000000000C1
:101B90000000000000000000440000000000000001
:101BA0000000000000000001000000000001000033
:101BB000020000000000080818247E42467C02044F
:101BC00018247E62667C020418247E72767C0204ED
:101BD00018247E7E7E7C020403051F111F001F0057
:101BE0001D151711151F07041F17151D1F151D01A2
:101BF000011F1F151F17151F080800000000000017
:101C000000000D9F2D970D9F2D9740404040404074
:101C10004040280404484804042840404F09ED0986
:101C20004F400502050205020502A54299B5A59996
:101C300042A55A8739D6D639875A5A8739D6D639DE
:101C4000875A825A9A42985A9A5840504060405057
:101C5000406018247E426A7C0204EEDD9D71EFDE56
:101C60009D7BFA3F001FFA1F003F5FFC00F85FF802
:101C700000FC673211241FBECFEFDAE0DEBFCDBF1C
:101C800011E0A0E0B1E0E2EAF8E602C005900D92B2
:101C9000A238B107D9F726E0A2E8B1E001C01D9251
:101CA000A738B207E1F71EE0CAE3DEE004C02197DF
:101CB000FE010E940134C933D107C9F70E94952162
:101CC0000C944F340C940000CF92DF92EF92FF926D
:101CD0000F931F93CF93DF936C017A018B01C0E0C8
:101CE000D0E0CE15DF0589F0D8016D918D01D601C8
:101CF000ED91FC910190F081E02DC6010995892BB1
:101D000011F47E0102C02196ECCFC701DF91CF9183
:101D10001F910F91FF90EF90DF90CF9008958091E9
:101D2000B605E091B405F091B505882349F0CF01DF
:101D300002969093B5058093B4058591949108958A
:101D4000CF0102969093B5058093B405808191816F
:101D500008958091820108950895089580E090E0AB
:101D600008950E944A34CF93DF9300D000D0CDB7BE
:101D7000DEB7611571058105910579F09B01AC0114
:101D800069833A834B835C830E94463329813A817D
:101D90004B815C810E946A3303C060E070E0CB013C
:101DA0000F900F900F900F90DF91CF9108953FB754
:101DB000F8948091990190919A01A0919B01B09122
:101DC0009C0126B5A89B05C02F3F19F00196A11DC7
:101DD000B11D3FBFBA2FA92F982F8827820F911DC1
:101DE000A11DB11DBC01CD0142E0660F771F881F08
:101DF000991F4A95D1F708958F929F92AF92BF9203
:101E0000CF92DF92EF92FF926B017C010E94D70E7E
:101E10004B015C01C114D104E104F104F1F00E9412
:101E2000D70EDC01CB0188199909AA09BB09883EA4
:101E30009340A105B10570F321E0C21AD108E10871
:101E4000F10888EE880E83E0981EA11CB11CC11415
:101E5000D104E104F10419F7DDCFFF90EF90DF909A
:101E6000CF90BF90AF909F908F9008951F920F9248
:101E70000FB60F9211242F933F938F939F93AF939D
:101E8000BF938091830190918401A0918501B091CD
:101E900086013091980123E0230F2D3720F401961D
:101EA000A11DB11D05C026E8230F0296A11DB11D7D
:101EB000209398018093830190938401A0938501DE
:101EC000B09386018091990190919A01A0919B0114
:101ED000B0919C010196A11DB11D80939901909331
:101EE0009A01A0939B01B0939C01BF91AF919F91E8
:101EF0008F913F912F910F900FBE0F901F901895CB
:101F0000CF92DF92EF92FF920F931F93CF93DF93C5
:101F10000E948F0E811520E8920761F48091710074
:101F20008D7F80937100109291004698479810928F
:101F300091018BC021E020939101813020E892072C
:101F400051F48091B2059091B3059093B5058093BB
:101F5000B4050E948F0E97FD05C0209190012223A9
:101F600009F43FC020918F0121113BC021E0209353
:101F70009201EC01DF77209769F481E0809393016F
:101F800046983FE9C32E3FE0D32EE12CF12CCAEF57
:101F9000D0E014C08E0120E030E060E472E48FE015
:101FA00090E0A90198010E946A3369017A0181E0F9
:101FB000C81AD108E108F10810929301E091C50513
:101FC000F091C6050995811103C081E080939301CA
:101FD000809192018823B9F180919301811133C0DE
:101FE00003C010929201C5CF46992DC0479A0E9416
:101FF0008F0E009771F09C01DE010E94BE33DC0160
:10200000CB0129E0B595A795979587952A95D1F7A6
:1020100003C08FEF9FEFDC01109290002AE0209325
:102020009100D0929900C09298008093940190936F
:102030009501A0939601B093970180917100826001
:102040008093710002C04798D2CFDF91CF911F914A
:102050000F91FF90EF90DF90CF9008951F920F9215
:102060000FB60F9211242F933F934F935F936F936B
:102070007F938F939F93AF93BF93EF93FF93809141
:10208000940190919501A0919601B0919701892BAF
:102090008A2B8B2B81F18091930181110BC098B118
:1020A00080E4892788B980919201882319F088B14A
:1020B000805888B98091940190919501A0919601E2
:1020C000B0919701181619061A061B06B4F48091F0
:1020D000940190919501A0919601B091970101977B
:1020E000A109B1098093940190939501A093960161
:1020F000B093970102C00E94800FFF91EF91BF91B2
:10210000AF919F918F917F916F915F914F913F918F
:102110002F910F900FBE0F901F9018956F927F9286
:102120008F929F92AF92BF92CF92DF92EF92FF92E7
:102130000F931F93CF93DF9300D000D0CDB7DEB7BE
:102140003A014115510509F401C2FA01F4903196A2
:102150005491F2E06F0E711CAF2CB12C211102C012
:10216000EE2069F1A52FA695A695A695B0E0E1E031
:10217000F0E0352F377011F4E0E0F0E0AE0FBF1F54
:10218000AA9EF001AB9EF00DBA9EF00D1124A3E0C3
:102190008A2EC81003C0EE0FFF1F0AC001151105DB
:1021A00039F0EE9ED001EF9EB00D11240A0F1B1FD7
:1021B0002E9FD0012F9FB00D11246A0E7B1E2FEF92
:1021C000C21208C00115110519F0CC24C39402C035
:1021D00032E0C32EDC01AA0DBB1D1A161B060CF043
:1021E000B5C1803891050CF0B1C19B01250F311D9F
:1021F000121613060CF0AAC1603471050CF0A6C1CA
:102200006114710409F4A2C1362F3770932EFB01BB
:1022100077FD379623E0F595E7952A95E1F72E2F80
:1022200077FF04C0992011F02FEF2E0F97FF05C004
:10223000EE27FF27E81BF90B02C0E0E0F0E0A03832
:10224000B1051CF030E8381B01C03F2D3E1B622F4A
:10225000022E000C770B2F3F1CF4462F409501C037
:1022600040E0B1E0A52FA77009F4B0E0569556956F
:102270005695DB2ED50E6D0D711D693071051CF064
:1022800058E0D52ED21AD41A240FDC0150E82503C9
:10229000A00DB11D1124AE0FBF1F4F9DE00DF11D0C
:1022A0001124A3014E0F5F1F81E090E07C01092CF7
:1022B00002C0EE0CFF1C0A94E2F783E0C81609F492
:1022C00004C18C15A8F091E0C91609F4B5C0E2E08C
:1022D000CE123CC18FEF8E9DB0018F9D700D1124E9
:1022E000609570957C836B837C806D2C620E2BC017
:1022F000FAEFCF1631F09BEF892EC81027C1D20E0E
:1023000087C0D20E51C0FA01E00FF11FE491EE9D9B
:102310006001EF9DD00C1124DA82C98227FD07C02D
:10232000FC01D080ED2DE623CE2AFC01C082911065
:1023300013C00F5F1F4F0196031728F32F5F4A0D3D
:102340005B1DA058BF4F261509F400C1CD018A5569
:102350009E4F00E010E0F0CF27305CF7FC01E05822
:10236000FF4FC080C7208A80C828C082E2CFFA0110
:10237000E60FF71FE491EE9D8001EF9D100D1124F3
:102380001A83098327FD04C0FC011081012B0083FF
:10239000911013C06F5F7F4F0196631740F32F5F5B
:1023A0004A0D5B1DA058BF4F2D1509F4CFC0CD01BC
:1023B0008A559E4F60E070E0F0CF27305CF78C01CB
:1023C00000581F4FF801C080FA81CF2AF801C0825F
:1023D000E1CFFA01E00FF11FE491EE9DC001EF9D06
:1023E000900D11249A83898327FD05C08095FB01F8
:1023F000908189238083911014C00F5F1F4F6F5FFE
:102400007F4F031730F32F5F4A0D5B1DA058BF4F5E
:102410002D1509F49BC0BD016A557E4F00E010E008
:10242000F0CF273054F7FB01E058FF4F8A818095A9
:10243000908189238083E1CF0E0F1F1F8D2C820E88
:10244000281509F483C0CD018A559E4F6C0160E0C8
:1024500070E0631790F5F801E60FF71FE491EE9D29
:10246000C001EF9D900D1124809590959C838B83E6
:10247000FA01E60FF71FE491EE9D3001EF9D700C1D
:1024800011247A82698227FD05C0F6019081892393
:10249000682A6082992059F027304CF4F601E05800
:1024A000FF4F90818C8189239A81892B80836F5F74
:1024B0007F4FFFEFCF1ADF0ACCCF2F5F4A0D5B1D96
:1024C0000A0D1B1DA058BF4FBBCF832F90E0E40F18
:1024D000F51FAA55BE4F60E870E0681B790BA81A7B
:1024E000B90A8501000F111F5D2D832ECF93DF9355
:1024F000ED01EF96EF962296A590C590992059F0A0
:10250000AE9C5001CE9C600127302CF4F880D09412
:10251000FD20FB28F99222233AF0FC90C094FC2085
:10252000FA28FD920C94951211963A9529F75A952E
:1025300051F0382D23951124E00FF11DA60FB11D88
:10254000C60FD11DD9CFDF91CF9111240F900F90DD
:102550000F900F90DF91CF911F910F91FF90EF900F
:10256000DF90CF90BF90AF909F908F907F906F90B3
:102570000895CF92EF920F931F933BEFC32EE12C60
:1025800000E010E00E948E101F910F91EF90CF900D
:102590000895CF92EF920F931F93CF93DF93FC0197
:1025A00096816A3031F4858184836185960F9683A4
:1025B00042C0262FEF01848161E0690F2F33A1F122
:1025C00064F42E32A1F01CF42132A9F027C090ED62
:1025D000920F9A3018F52C5F0FC02134FCF02B3588
:1025E00044F09FE9920F9A31C8F4275405C02FE3B5
:1025F00003C0215401C02EE33F81062E000C770B4F
:10260000082E000C990B313089F43AEFC32EE12CDF
:1026100000E010E041EC5AE00E948E1088858C5F4B
:102620009C81890F8C8307C020E4E6CF41EC5AE0FF
:102630000E94B912F3CF81E090E0DF91CF911F911A
:102640000F91EF90CF900895CF92EF920F931F9339
:1026500032E0C32EE12C00E010E00E948E101F91AA
:102660000F91EF90CF900895BC0180E090E00C9422
:10267000FC0E8FB18095807F669B88601C9B846078
:102680000895FC01840F911D18161906E4F5E03831
:10269000F105CCF5F7FF02C0E0E0F0E081389105EC
:1026A00014F080E890E0382F3E1BAB0177FF02C0AA
:1026B000495F5F4F83E0559547958A95E1F75695B9
:1026C000542F442757954795E40FF51FEA55FE4FC1
:1026D0006770772781E090E001C0880F6A95EAF77C
:1026E000482F222349F0213071F4315020F08081AD
:1026F000842B8193FACF08958095315020F09081FA
:1027000098239193FACF089560387105D0F440343E
:102710005105B8F4EBECFBE080E1849FD001A07898
:102720001124A60F4770E40FF11D8491AA55BE4FE6
:10273000222319F06C91862B03C080956C9186231F
:102740008C930895FC019081992359F01CF49C3FCF
:1027500034F40895913041F0993044F00895990F80
:1027600006C08FEF80830895108208959595908319
:102770000895FC0190819F3F69F01CF4983F34F468
:102780000895992349F0953054F0089597FD9F5F7F
:10279000959506C01082089581E080830895990F71
:1027A000908308958F929F92BF92CF92DF92EF9283
:1027B000FF920F931F93CF93DF931F92CDB7DEB796
:1027C000E82E21E040E860E070E080E090E00E94C8
:1027D000411380908D0190908E018401F12C00387E
:1027E000110514F584E0C82ED12C30E08F2D8170B6
:1027F000B82E932F9170B11002C019F00BC099231D
:1028000049F020E047EB5AE0B601C80139830E9445
:10281000241339813F5F88E0C80ED11C373049F757
:10282000F394085F1F4FDBCF21E040E86FE370E0D7
:1028300080E090E00E94411380910B0680FD1FC054
:10284000EE2069F081E0881A910881E888168FEF00
:10285000980654F410928E0110928D0110C08FEFE3
:10286000881A980A97FE05C090928E0180928D0179
:1028700006C080E89FEF90938E0180938D010F90AA
:10288000DF91CF911F910F91FF90EF90DF90CF904C
:10289000BF909F908F900895EF92FF920F931F9398
:1028A000CF93DF9300D0CDB7DEB78B0195E0899F42
:1028B00070011124C70188559F4F0E945433F801BD
:1028C0008083C70187559F4F0E945433F80181834D
:1028D000C70186559F4F0E945433F80182831A82A4
:1028E0001982BE016F5F7F4FC70185559F4F0E94C0
:1028F000721A89819A81F801948383830F900F90D3
:10290000DF91CF911F910F91FF90EF9008958A3042
:1029100038F4883048F4813039F0863019F404C036
:102920008C3011F080E0089581E00895EF92FF92DD
:102930000F931F93CF93DF931F92CDB7DEB77C0128
:10294000FC0100811181C80169830E9454336981AF
:10295000681719F0C8010E945C33C7010F90DF911E
:10296000CF911F910F91FF90EF900895EF92FF92FA
:102970000F931F93CF93DF9300D0CDB7DEB78C01B9
:102980007B01FB0160819A838983CE0101960E94BD
:102990009614F70161810F5F1F4F1A830983CE01DF
:1029A00001960E949614C7010F900F90DF91CF916E
:1029B0001F910F91FF90EF900895CF93DF9300D078
:1029C000CDB7DEB79A838983CE0101960E94961413
:1029D0000F900F90DF91CF9108950F931F93CF9396
:1029E000DF9300D0CDB7DEB7082F86EA90E00E94D3
:1029F0005433182F87EA90E00E945433011104C029
:102A0000133511F4833441F11A82198263E586EAA1
:102A100090E00E94DD1463E487EA90E00E94DD14F8
:102A200008EA10E060E0C8010E94DD1460E0C8011F
:102A300001960E94DD1460E0C80102960E94DD1438
:102A4000BE016F5F7F4FC80103960E94B6140B5FF3
:102A50001F4F013C110531F70F900F90DF91CF917F
:102A60001F910F910895CF93DF931F92CDB7DEB7DB
:102A70006983DC01ED91FC910280F381E02D41E05E
:102A800050E0BE016F5F7F4F09950F90DF91CF91AE
:102A9000089583E08093E9008091F200882319F083
:102AA0008AE38093E8000895FC018485958597FD6D
:102AB0000BC09FB7F89482E08093E9008091F20008
:102AC0009FBF90E0019608959FB7F89482E08093AD
:102AD000E9008091F2009FBF90E008954091A2012B
:102AE0005091A3012091A0013091A10142175307F9
:102AF000B4F49091E8009570E1F39091E80092FDB4
:102B000019C08093F1008091A2019091A3010196D8
:102B10008F739927892B19F48EEF8093E8008091A9
:102B2000A2019091A30101969093A3018093A20129
:102B300081E0089580E00895DF92EF92FF920F9375
:102B40001F93CF93DF93D82E8A017B01E40EF51EED
:102B5000EB01CE15DF0571F0D7FE03C0FE018491B5
:102B600001C088810E946E1521968111F2CF8FEFEE
:102B70009FEF01C0C801DF91CF911F910F91FF908E
:102B8000EF90DF9008958F929F92AF92BF92CF9275
:102B9000DF92EF92FF920F931F93CF93DF935C012D
:102BA0006B017A0180911501882309F45BC0809143
:102BB0007806882309F456C080919F0180FF05C0E4
:102BC0008091E00082608093E000E70110E00AEF6E
:102BD00083E0882E9AE3992E2097D9F10E946321F1
:102BE00081110AC0015009F43DC061E070E080E04D
:102BF00090E00E94FC0EF0CF282F30E0C217D307E0
:102C00000CF48C2F4FB7F8948092E9009091E80073
:102C100095FF1DC0282F30E0C21BD30BF601982F63
:102C2000915020F081918093F100FACFC20ED31E13
:102C3000112319F09092E80009C08091E80085FD09
:102C400006C09092E80011E0209709F010E04FBF15
:102C5000C3CF1111C3CF5D9884E68093A4011E14E5
:102C60001F0444F081E090E0F5019383828380E0CB
:102C700090E001C0C701DF91CF911F910F91FF90AC
:102C8000EF90DF90CF90BF90AF909F908F9008957E
:102C90000E94632190E00895CF93DF931F92CDB7F8
:102CA000DEB7FC018485958597FD05C02FEF3FEFCA
:102CB000358724870BC0CE0101960E9439210197E8
:102CC00019F4898190E002C08FEF9FEF0F90DF91A0
:102CD000CF9108950F931F93CF93DF931F92CDB79A
:102CE000DEB78C01FC018485958597FF0EC0CE016F
:102CF00001960E943921019719F4298130E002C020
:102D00002FEF3FEFF80135872487F80184859585FB
:102D10000F90DF91CF911F910F9108950F931F9303
:102D2000CF93DF931F92CDB7DEB782E0898342E471
:102D300050E063ED7BE080E80E949C150E947421C6
:102D4000DC0112960D911C9113970115110569F084
:102D5000D801ED91FC910280F381E02DBE016F5FFF
:102D60007F4FC801099597FF07C089810F90DF91B8
:102D7000CF911F910F910895F80100851185E5CF3E
:102D80001F920F920FB60F9211248F939F938091F1
:102D9000E1009091E100937F9093E10083FF0FC0E9
:102DA0001092E90091E09093EB001092EC0092E316
:102DB0009093ED001092780698E09093F00082FFD7
:102DC00020C093E09093E9009091F200992319F0CC
:102DD0009AE39093E8009091A401992339F090919F
:102DE000A40191509093A401992389F190917706C1
:102DF000992339F090917706915090937706992313
:102E000041F184FF10C08091E2008E7E816080934A
:102E1000E2008091E1008F7E8093E10080919F012C
:102E20008E7E806111C080FF16C08091E2008E7E90
:102E300080618093E2008091E1008E7E8093E100CA
:102E400080919F018E7E816080939F0104C05D9A76
:102E5000CDCF289AD6CF9F918F910F900FBE0F9014
:102E60001F9018951F920F920FB60F921124CF92B8
:102E7000DF92EF92FF920F931F932F933F934F9305
:102E80005F936F937F938F939F93AF93BF93EF93D2
:102E9000FF93CF93DF93CDB7DEB76C97DEBFCDBF87
:102EA0001092E9008091E80083FFEDC168E0CE0157
:102EB00045960E94882182EF8093E8008D8987FFE4
:102EC00005C09091E80090FFFCCF03C09EEF909367
:102ED000E800982F907609F0C6C09E892F89188D3A
:102EE00091110CC0803829F480919E018093F100EB
:102EF00002C01092F1001092F10048C1422F50E040
:102F0000512B913051F4811141C14130510509F0EB
:102F10003DC180919E018D7F0BC0933061F4811182
:102F200035C14130510509F031C180919E01826067
:102F300080939E012BC1953041F48091E80080FF81
:102F4000FCCF20682093E30021C1963009F05FC0D8
:102F5000EB8CFC8C1092E9001092A3011092A2015C
:102F6000123091F51092A1011092A0010E948E16CC
:102F700099E0BE016F5F7F4FDB01E92F1D92EA955B
:102F8000E9F799831A8391E09E8390EA98879AEFF4
:102F900099872091A2013091A301275F3F4F3C8385
:102FA0002B838D831092E9001092A3011092A2014D
:102FB000F092A101E092A00149E050E080E00E947F
:102FC0009C150E948E16E2C0F092A101E092A00131
:102FD0000E947421DC011296ED90FC901397E1148D
:102FE000F10409F4C0C0D701ED91FC910480F58192
:102FF000E02DBE016B5E7F4FC7010995009719F068
:103000000CF0C4C0C7C0F701E084F184E8CF97306A
:1030100009F4C0C0983021F481E08093F100B6C07B
:10302000993009F0B3C0837009F0B4C0E5E2F1E073
:1030300081E021E036E39081992361F08093E900FB
:103040002093EB0091919093EC003093ED008F5F13
:10305000873089F78EE78093EA001092EA008F8923
:103060008093780693C08B8D9C8D1092E90010920E
:10307000A3011092A2019093A1018093A001898DD8
:10308000811156C08E899D89913A59F4813209F097
:1030900081C047E050E06EE071E080E00E949C1546
:1030A00075C0913209F076C0833289F4888D90E042
:1030B000982F88272F89822BA0E0B0E080930A0107
:1030C00090930B01A0930C01B0930D015FC080326F
:1030D00069F48091E80082FFFCCF67E08EE091E028
:1030E0000E9488218BEF8093E80006C0823209F0AD
:1030F0004DC08F898093150180919D01882319F01F
:10310000EEEFFAE002C0E0E0F8E080910E0190916D
:103110000F01A0911001B0911101803B9440A105D5
:10312000B10509F07BC08091150180FF93C076C086
:103130000E947421DC0112960D911C9113970115C8
:10314000110541F1D801ED91FC910190F081E02D44
:10315000BE016B5E7F4FC8010995811117C0F80150
:1031600000851185ECCF113009F44EC0133091F475
:103170008F89882309F445C0823081F440E860E1FA
:1031800087E39CE00E942A32882321F08EEF80930F
:10319000E80079C081E28093EB0075C0813029F4AA
:1031A00040E86BE08BE29CE0EDCF833099F70E9422
:1031B0007421DC011296ED90FC9013978E010F5F45
:1031C0001F4F6801E114F10479F0D701ED91FC91F2
:1031D0000680F781E02DB801C7010995080F111D80
:1031E000F701E084F184EECFD8011C92F601019042
:1031F0000020E9F73197BF016C197D0940E0C60155
:10320000C1CF65E17CE002C069E17CE06115710538
:1032100009F2FB01449150E080E840CF0FB6F894EA
:10322000A895809160008861809360001092600092
:103230000FBEA895EE3F2AE0F20739F08091FE0A12
:103240009091FF0A91838083A1CF1092FF0A109280
:10325000FE0A9CCFEE3F8AE0F80731F08081918131
:103260009093FF0A8093FE0A87E797E79183808314
:103270009BE088E10FB6F894A895809360000FBE9C
:103280009093600083CF6C960FB6F894DEBF0FBEAC
:10329000CDBFDF91CF91FF91EF91BF91AF919F9102
:1032A0008F917F916F915F914F913F912F911F91DE
:1032B0000F91FF90EF90DF90CF900F900FBE0F9087
:1032C0001F9018959C01E1E7F0E090819D7F90832D
:1032D0001092B605E7EBF5E0F093B505E093B40581
:1032E000F093B305E093B2053183208382E390E04D
:1032F0009383828375836483978386835187408712
:10330000938782870C94800F20910E06282329F43E
:1033100090910D06982381E009F480E00895CF9202
:10332000EF920F931F93809104068111D6C084E021
:103330000E948419882339F09091020681E0892740
:1033400080930206CAC080910B0690910C06837090
:103350009927892B09F0C1C080910306811116C0FD
:103360000E94391385FF08C089EF95E00E94A213DF
:1033700081E08093FB050AC00E94391386FF06C0D6
:1033800089EF95E00E94B9131092FB050E94391352
:1033900083FF63C08091FB058823B9F0813079F504
:1033A0002091B1058091F5059091F605A091F70562
:1033B000B091F805BD01685F7F4FCC24C394E22E25
:1033C00006E514E148E754E114C02091B10580916D
:1033D000F5059091F605A091F705B091F805BD01AE
:1033E000685F7F4FCC24C394E22E0CE914E14EEBCE
:1033F00054E18091F3059091F4050E948E10809124
:103400000B0690910C0665E070E00E94D933892B81
:1034100031F48091B1058F5F81708093B105809107
:10342000FA05882359F024F48C3F7CF0880F0BC0F8
:10343000813031F089304CF4859505C08FEF03C0A1
:103440001092FA0502C08093FA0541E250E061E46F
:1034500070E081E290E00E94621980910B069091E9
:103460000C0687709927892BC1F50E94391383FDBB
:1034700018C08091FA058F3F71F01CF4883F3CF42E
:1034800010C0882359F0853064F4880F08C087FD88
:103490008F5F859504C01092FA0503C081E0809388
:1034A000FA050E94391385FD18C00E94391386FD64
:1034B00014C08091F905181624F489EF95E00E9454
:1034C000A2138091F90587FF08C089EF95E01F914D
:1034D0000F91EF90CF900C94B9131F910F91EF9033
:1034E000CF9008950F931F93CF93DF938C01EB013F
:1034F0000E9454338883C80101960E945433898303
:10350000CE01DF91CF911F910F910895BF92CF927D
:10351000DF92EF92FF920F931F93CF93DF9396E08A
:10352000899FF0011124EA5BFE4F90812181428145
:10353000042E000C550B660B770BBA015527442758
:103540004093C7055093C8056093C9057093CA0599
:103550004381042E000C550B660B770BBA015527DF
:1035600044274093CB055093CC056093CD057093D1
:10357000CE054481042E000C550B660B770BBA0167
:10358000552744274093F1055093F2056093F305C6
:103590007093F4054581042E000C550B660B770BD8
:1035A000BA01552744274093F5055093F6056093DB
:1035B000F7057093F8051092F9051092FA0531E0BD
:1035C0003093FB0548EC50E05093FE054093FD0519
:1035D000109201061092070610920606309302061A
:1035E00030930306109204068093CF0530E0A901C2
:1035F000D3E0440F551FDA95E1F75093D10540937E
:10360000D005892F90E0AC0113E0440F551F1A95A7
:10361000E1F75093D3054093D2053093D50520931D
:10362000D4059093D7058093D6058FEF8093A80596
:10363000A8EDB5E0ED91FD91108211821282138206
:10364000E5E0A23EBE07B1F7E091CF05F0E0EE0F56
:10365000FF1FE25CFE4FC081D181E12CB12C0E2D09
:1036600010E08091D4059091D50508171907B0F5A1
:10367000F12CEF2DF0E02091D6053091D705E2171F
:10368000F30750F5029FC001039F900D129F900D0C
:103690001124E80FF91FEC0FFD1FE491EB30D1F47A
:1036A000EB2DF0E0EE0FFF1FE953FA4FC188D288EF
:1036B000F601F082E18268E270E080E090E00E9432
:1036C000B30EDC01CB018896A11DB11DF6018283EA
:1036D0008383B394F394CDCFE394C1CFDF91CF91A3
:1036E0001F910F91FF90EF90DF90CF90BF900895C2
:1036F00080E0E6EAF1E081118FEF0024819381936D
:10370000819381930394D1F70895E6EAF1E080E094
:10371000A0E0B8E000800EBC8111012C1197A0FD43
:10372000FDCF0192B9F70DB40895CF92DF92EF92D9
:10373000FF921F93CF93DF93E091CF05F0E0E55C1C
:10374000FE4F1081C12ED12CE12CF12CC701B60106
:103750000E94B30ED62FC701B6010E94B30EC62F2A
:103760001130B1F08091A805D81306C0C701B60189
:103770000E94B30ED62FF4CF8091AB05D81308C0AA
:10378000F5CFDC1307C0C701B6010E94B30EC62FE8
:103790001130B9F72091CF0530E0220F331FF90126
:1037A000ED5CFE4F608171818D2F90E0880F991F35
:1037B000FB01E80FF91F44914093A9050196FB0115
:1037C000E80FF91FE491E093AA05D093A805F90149
:1037D000E55DFE4F408151818C2F90E0880F991F4D
:1037E000FA01E80FF91F24912093AC050196FA0124
:1037F000E80FF91FE491E093AD05C093AB0510927B
:10380000A60581E08093AE056AE070E080E090E07C
:103810000E94B30EDC01CB010A96A11DB11D80935D
:10382000A705DF91CF911F91FF90EF90DF90CF9090
:103830000895CF93DF931F92CDB7DEB74B3079F069
:1038400018F4443049F13DC083EF840F8230C8F54D
:1038500083E390E0909307068093060632C02091A0
:103860000B0630910C0623703327232B51F5A8ED5E
:10387000B5E0ED91FD91908198132CC09181961344
:1038800029C082818823E9F08091FD059091FE0591
:10389000883C910530F115C090910106992389F07B
:1038A0002091AC0530E0281B310937FF03C031956A
:1038B000219531092230310524F48091AD05861718
:1038C000D1F080910206811137C08091FA05181657
:1038D00044F132C095E0A23EB90759F6E0E0F0E0CD
:1038E000D0CF01969093FE058093FD0582818111D2
:1038F00081508283E6CF109201062091A705809126
:10390000FF0590910006820F911D90930006809311
:10391000FF0549830E94951B87E28093A501498199
:10392000D0CF842F0E948714882331F083E390E066
:1039300090930706809306060F90DF91CF9108952C
:103940008F929F92AF92BF92CF92DF92EF92FF92AF
:103950000F93CF93DF936B01EC014C01840E911C0C
:103960005B01A20EB11CC815D905ECF47601D7FE97
:1039700010C0E12CF12C0DC0E816F90694F4202FAC
:10398000A701BE0188E096E00E9484132FEFE21A9F
:10399000F20AC50121E4A216B10474F380E490E0B8
:1039A000EBCF2196E0CFDF91CF910F91FF90EF9079
:1039B000DF90CF90BF90AF909F908F9008954F92DF
:1039C0005F926F927F928F929F92AF92BF92CF92AF
:1039D000DF92EF92FF920F931F93CF93DF93E091CB
:1039E000CF05F0E0EE0FFF1FE25CFE4F40805180FC
:1039F000712CC72CD12C8091D4059091D505C81677
:103A0000D90608F0B9C0560183E0AA0CBB1C8A9500
:103A1000E1F710E0E12FF0E02091D6053091D705D5
:103A2000E217F30708F09FC08091C7059091C80581
:103A3000A091C905B091CA05EF0143E0CC0FDD1F8D
:103A40004A95E1F7CA0FDB1F4091CB055091CC0599
:103A50006091CD057091CE05CE010896883891050C
:103A600008F07FC07501E60EF71EC701089688347E
:103A7000910508F076C0C29EC001C39E900DD29EF3
:103A8000900D1124E80FF91FE40DF51D2491243049
:103A900049F02B3009F448C0222309F462C048EFF2
:103AA0005BE15BC024E048EF5BE1B701CE010E941F
:103AB000241301E027E045E0B70162507109CE010F
:103AC00002960E94A01C80917A06843108F049C0B9
:103AD0008091CF0590E0FC01E55CFE4F0081880FEE
:103AE000991FFC01E55DFE4F8080918020E081E020
:103AF000E81AF10823962017A1F1F4018491319678
:103B0000E49166246394620E181309C07E1207C004
:103B1000262D48ED5BE1B701CE010E94B912262D9A
:103B2000F2E08F0E911CE7CFA8EDB5E0ED91FD918D
:103B3000808181131AC08181871117C0828124E09E
:103B4000829FC0011124638170E00E94ED33262F13
:103B5000643008F023E046EB5BE1B701CE010E9440
:103B600024131F5F57CF739444CF85E0A23EB8075C
:103B7000E9F6E0E0F0E0E2CFDF91CF911F910F9105
:103B8000FF90EF90DF90CF90BF90AF909F908F907D
:103B90007F906F905F904F9008958F929F92AF9219
:103BA000BF92CF92EF920F931F9380910606909150
:103BB00007068632910570F48F319105B8F40097AD
:103BC00009F1489708F44EC08BEF0AE118E142E191
:103BD0005BE126C08D32910578F0C49708F042C0B1
:103BE0008BEF04E316E146E259E11AC08BEF08E7D8
:103BF00017E14EE65AE114C08BEF06ED16E14AECF0
:103C000059E10EC080910206811105C002E116E162
:103C100042E059E105C080E00EEC15E14CEB58E1C3
:103C200041155105F9F02091FB05082E000C990B68
:103C30008090F5059090F605A090F705B090F805F6
:103C4000BC016A0D7B1D8090F1059090F205A0905B
:103C5000F305B090F405CC24C394E22E8A0D9B1D8D
:103C60000E948E101F910F91EF90CF90BF90AF9058
:103C70009F908F9008952F923F924F925F926F92F4
:103C80007F928F929F92AF92BF92CF92DF92EF92EC
:103C9000FF920F931F93CF93DF93CDB7DEB7289793
:103CA0000FB6F894DEBF0FBECDBF4091A90508E066
:103CB000409FA0011124C090C705D090C805E09096
:103CC000C905F090CA05C701BB2797FDB095AB2F7A
:103CD00089839A83AB83BC832091AA0598E0299FAE
:103CE000100111248090CB059090CC05A090CD05BB
:103CF000B090CE058501332717FD3095232F0D8316
:103D00001E832F833887E0910106E11144C0898129
:103D10009A81840F951F893F1FEF9107E4F1803846
:103D20009105CCF56D817E81620D731D683F2FEF8B
:103D300072078CF16034710574F52091AE05213065
:103D4000F1F42091A605CC24C394E22E00EA15E1FB
:103D50004EEA55E10E948E1080910B0690910C0660
:103D60006FE070E00E94D933892B09F079C181E0BE
:103D70009091A605911180E08093A60571C1213034
:103D800008F087C0CC24C394E12C0EEB15E120E0B1
:103D900045EC55E17BC080917906853009F060C122
:103DA0004090F1055090F2056090F3057090F40595
:103DB0008091F5059091F605A091F705B091F80571
:103DC00060917A06643108F04BC1EE2361F04091B6
:103DD000AC0568E0469FA00111242091AD05E8E004
:103DE0002E9F1001112469817A81695F7F4F640FD2
:103DF000751F6738710508F4CFC08301332717FD9D
:103E00003095232F0D831E832F8338878D01332711
:103E100017FD3095232F09831A832B833C834C187D
:103E20005D086E087F084619570988199909AA097B
:103E3000BB09F101EA1BFB0BED80FE80FF24882704
:103E400099278E199F09481759070CF4B3C080E8C9
:103E500090E08E199F09481759070CF0BFC0F7FF73
:103E6000ECC08D81840F20E060E0A0E8B0E0AE19E6
:103E7000BF094A175B070CF0B5C070E0CC24C394AF
:103E8000E22E02EE14E142E255E190E00E948E1033
:103E9000E7C0223009F0E4C04091AF052091A605AB
:103EA0003091B005CC24C394E22E463029F402E8C8
:103EB00015E140E955E104C004E615E142E755E1AA
:103EC000830F911D37FD9A950E948E1080910B06ED
:103ED00090910C0687709927892B09F0C1C09091A9
:103EE000A9058091B005282F082E000C330B2D5FFB
:103EF0003F4F48E0949F200D311D11244091F10562
:103F00005091F2056091F3057091F405AB01485FA3
:103F10005F4FC090C705D090C805E090C905F090EC
:103F2000CA054E195F092417350789F091E02091E1
:103F3000A605211190E09093A6059091AF059630CB
:103F400011F4815001C08F5F8093B00589C081E07A
:103F5000809301061092040642E550E065EA70E0A5
:103F600087E295E028960FB6F894DEBF0FBECDBF6E
:103F7000DF91CF911F910F91FF90EF90DF90CF9045
:103F8000BF90AF909F908F907F906F905F904F9079
:103F90003F902F900C9462196D817E81620D731D8C
:103FA000683FFFEF7F070CF428CF603471050CF0F9
:103FB00024CF56C0C801992722273327281B390B45
:103FC000E217F3074CF527E060E008E310E0D801C2
:103FD000A81BB90BEA17FB076CF502C020E060E0F4
:103FE00080E043CF49815A815527AA27BB27A41BCC
:103FF000B50BEA17FB0744F521E060E088E7A8E38A
:10400000B0E08D01041B150BE017F1070CF435CF60
:1040100023E060E388E731CF28E330E0281B390B49
:10402000E217F3072CF4698164506E0F26E0CDCFC0
:1040300020E0CACF25E060E3D3CF309779F28D81BD
:10404000840F24E060E311CFA8E3B0E0A41BB50B1C
:10405000EA17FB07A4F6698164506E0F22E0CECF09
:1040600028960FB6F894DEBF0FBECDBFDF91CF917B
:104070001F910F91FF90EF90DF90CF90BF90AF9086
:104080009F908F907F906F905F904F903F902F9078
:1040900008950F931F93CF93DF938C01C0E0D0E07E
:1040A000F801EC0FFD1F6491662371F0E091E705C4
:1040B000F091E8050190F081E02D87EE95E00995FB
:1040C000892B11F02196ECCFCE01DF91CF911F917A
:1040D0000F9108958F929F92AF92BF920F931F936B
:1040E000CF93DF93CDB7DEB7A1970FB6F894DEBFBD
:1040F0000FBECDBF19A2423008F44AE08E010F5D19
:104100001F4F842E912CA12CB12CA50194010E944B
:104110009C33E62FB901CA0101501109EA3014F4A9
:10412000E05D01C0E95CD801EC93232B242B252B07
:1041300061F70115110571F0F80101900020E9F710
:104140003197AF01401B510BB80187EE95E00E94FB
:10415000640E02C080E090E0A1960FB6F894DEBF36
:104160000FBECDBFDF91CF911F910F91BF90AF9048
:104170009F908F9008954F925F926F927F928F924F
:104180009F92AF92BF92CF92DF92EF92FF920F93E6
:104190001F93CF93DF93EC018B01442ECB018C1B3B
:1041A0009D0B97FF03C091958195910955245394D8
:1041B000813891053CF4512CC80100E810E0E12C55
:1041C000F12C0FC00C171D0734F07E0180E890E041
:1041D000C0E0D0E006C078018E0180E090E0C0E849
:1041E000D0E038016E187F085C01AC1ABD0AB7FE3A
:1041F00003C0B194A194B108630177FE03C02FEF0F
:10420000C21AD20AD594C794C817D90714F08FEFF1
:1042100001C081E0882E880F99080E151F05C4F093
:10422000242D552019F0A701BE0102C0AE01B7012F
:1042300088E096E00E948413CA18DB08D7FE04C009
:10424000C80DD91DC60CD71C8FEFE81AF80AE5CFA8
:10425000DF91CF911F910F91FF90EF90DF90CF9062
:10426000BF90AF909F908F907F906F905F904F9096
:104270000895FC0180917806811103C08FEF9FEFB4
:1042800008959FB7F89482E08093E9002091F200AE
:1042900030E01216130614F421E030E02115310548
:1042A00059F0289884E6809377068091F100808306
:1042B0008091F200882319F09FBFC90108958BE611
:1042C0008093E800F9CF2FB7F89483E08093E9005A
:1042D0009091E800892F807295FF04C09091F200C0
:1042E00080E4891B2FBF089580917F0681110DC046
:1042F00082E080937B0684E080937C0610927E06A9
:1043000010927D0681E080937F068BE796E008950A
:10431000615030F02091F100FC0120830196F8CF2C
:10432000289884E6809377060895CF93DF93CDB7DE
:10433000DEB7AB970FB6F894DEBF0FBECDBF789453
:1043400084B5826084BD84B5816084BD85B582609A
:1043500085BD85B5816085BD80916E00816080934B
:104360006E001092810080918100826080938100B4
:1043700080918100816080938100809180008160C4
:104380008093800080919100826080939100809161
:104390009100816080939100809190008160809372
:1043A00090008091C10084608093C1008091C10021
:1043B00082608093C1008091C10081608093C100C0
:1043C0008091C30081608093C3008091C0008260AF
:1043D0008093C0008091C20081608093C200809170
:1043E0007A00846080937A0080917A008260809362
:1043F0007A0080917A00816080937A0080917A00BF
:10440000806880937A001092780610929E01109234
:104410009F018091D70081608093D70080EA8093CC
:10442000D80089B5806189BD89B5826089BD09B42C
:1044300000FEFDCF61E070E080E090E00E94FC0EA5
:104440008091D8008F7C80618093D8008091E000BB
:10445000807F8093E0008091E1008E7E8093E10078
:104460008DE08093E200559A209AEEEFFFE7859168
:1044700094918B3F9C4D19F481E080939D0181ECD8
:1044800080937C0085B1806F85B984B1877E84B9C3
:1044900084B1876E84B95E9A5F988AB1806D8AB95B
:1044A000769A6E9881B3806F81BB899880B38D7046
:1044B00080BB80E58CBD81E08DBD85E090E00E94F1
:1044C00034135F9A85E090E00E9434135E985C9804
:1044D000E0ECF0E08DE08E0F94919EBD00000DB4F5
:1044E00007FEFDCF31968E13F7CF5C9A81E880935B
:1044F0006400809165008160809365000E94851B47
:104500000E94391387FF15C05C9885EA8EBD0000B4
:104510000DB407FEFDCF5C9A2E982F982D988091B0
:10452000640080628093640081E083BF889513BE3D
:10453000FCCF02E010E00E94391382FF40C02D98AA
:104540000E94391384788438C1F00E943913847131
:10455000843181F52D9A88EC90E00E9434132E98D6
:104560001A83098360E0CE0101960E94961484EFBD
:1045700091E00E9434132E9A18C02D9A88EC90E096
:104580000E9434132F981A8309836FEFCE0101968E
:104590000E94961484EF91E00E9434132F9A0E9497
:1045A000391384788438D9F3D0CF0E9439138471B9
:1045B0008431D9F388EC90E00E943413BCCF2D9A5B
:1045C00082E090E00E945433882331F03E9A3F9A73
:1045D00081E08093820104C0109282013E983F984E
:1045E0000E94781B80E180930F0680E00E94ED140A
:1045F0009E012F5F3F4F388F2F8B8FB7F8944091DC
:1046000083015091840160918501709186018FBF73
:1046100080911006342F381B832F90911106992317
:1046200031F030931206109211060C94EA2D9091FD
:104630000F06391758F48F5F891710F00C94EA2D84
:1046400081E083BF889513BE0C94EA2D81E08093AE
:1046500011064093100680910B0690910C0601966E
:1046600090930C0680930B0680910D0680930E06A6
:104670000E94391380930D060E94781BE091790601
:104680008E2F90E08A30910508F0C1C7FC01EA5AEC
:10469000FF4F0C94013420E04DE959E061E170E0F6
:1046A0008DE190E00E94241380910401882379F029
:1046B000813009F058C0109200011092010190E47D
:1046C000909302018093030110920401A0C780918E
:1046D000000187FD42C08091020190E0209101011C
:1046E000821B910997FD019695958795D82EE12C0F
:1046F000F12C40910001ED1448F58701000F111FC6
:1047000080910101B801680F711D603471052CF4AE
:1047100020E080E090E00E94411380910101B80107
:10472000680F711D6F5F7F4F8091000160347105CC
:104730004CF420E0482FA0E8B0E0A81BB109CD015F
:104740000E944113BFEFEB1AFB0AD3CF47FD05C010
:1047500080910301480F409300018091000187FF81
:1047600056C70C94BC2E81508093040150C780E042
:104770000E94861A0E94951B1092FB0582E080938E
:10478000790680E8809306011092070180E4809307
:10479000080181E0809309010091A9058091C70576
:1047A0009091C805A091C905B091CA05CD01BB275C
:1047B00097FDB095AB2FE8E00E9F80011124080F04
:1047C000191F3091AA05398F4091CB055091CC0526
:1047D0006091CD057091CE056B01FF24D7FCF0945C
:1047E000EF2CB6016A5F7F4F4090F1055090F205C3
:1047F0006090F3057090F4052301772457FC7094C2
:10480000672C12018090F5059090F605A090F705B1
:10481000B090F80520910206211102C038E001C0D5
:104820003BE020E04BE956E03BA30E9424130E94AA
:10483000DF1C0E94CD1D0E943B1E0E948F1980919B
:10484000F5059091F605A091F705B091F8053BA10B
:104850000097A942B10534F08091FA05181614F4B6
:104860000C94F42D51E1450E511C041515050CF066
:10487000CEC6095F1F4F201631060CF0C8C6098D41
:1048800068E0069FC00111248C0D9D1D4501BB24CD
:1048900097FCB094AB2CA401232F30E0820E931E22
:1048A000881599050CF0B3C60896481759070CF0FF
:1048B000AEC679C681E080938C0183E080930506C3
:1048C000109200061092FF0584E080937906109202
:1048D000B1058AE08093050180918C010E94861ABF
:1048E0000E94951B85E08093790680910B0690913C
:1048F0000C066CE370E00E94D933892B39F4809167
:104900000501811103C087E08093790680917A06C2
:104910008F5F68E20E94CD3390937A0680918B017D
:10492000882319F0815080938B0180918A0188231C
:1049300039F0815080938A01811102C00E94951B39
:104940000E94DF1C8091060690910706892B09F0D2
:1049500075C10E948F198091010681113BC0809121
:10496000AE058823B9F10091F1051091F20520916F
:10497000F3053091F405C090F505D090F605E09070
:10498000F705F090F8058091020681110C94F92D3D
:10499000A8E08091A9054091C7055091C805609194
:1049A000C9057091CA0598E0899F600D711D112499
:1049B0008091AA058090CB059090CC05A090CD0564
:1049C000B090CE05AB01495F5F4F4738510510F4F9
:1049D0000C94FC2DFE0131968F89815F11928E130C
:1049E000FDCFE091CF05F0E0EE0FFF1FE25CFE4F40
:1049F000A080B1808091F5059091F605A091F70512
:104A0000B091F805AD01772757FD7095672F80911C
:104A1000CB059091CC05A091CD05B091CE05CD01EF
:104A2000BB2797FDB095AB2F1A01281A390A0091C0
:104A3000F1051091F2052091F3053091F4058901FB
:104A4000332717FD3095232F8091C7059091C80516
:104A5000A091C905B091CA05CD01BB2797FDB095BE
:104A6000AB2F081B190B33E0169507953A95E1F724
:104A700088248394800E42E0942E900E710153E0BE
:104A8000F694E7945A95E1F73701772428015524E5
:104A90008091D6059091D705689EF001699EF00D32
:104AA000789EF00D1124E40DF51DEA0DFB1D4491D7
:104AB000CC24C394D12CCC0EDD1EC40ED11CD60147
:104AC0008C91811107C06E2D802F0E94191C81E0EE
:104AD000F6018083282D30E03A8F298F8091D6050A
:104AE0009091D705689EF001699EF00D789EF00DBB
:104AF0001124E20FF31FEA0DFB1D4491CC24C39453
:104B0000D12CCC0EDD1EC40ED11CD6018C9181118E
:104B100007C06E2D882D0E94191C81E0F60180834C
:104B2000C92CD12C8091D6059091D705689EF001B3
:104B3000699EF00D789EF00D1124EC0DFD1DEA0D1F
:104B4000FB1D449166246394712C6C0E7D1E640ED3
:104B5000711CD3018C91811107C06E2D892D0E948B
:104B6000191C81E0F3018083F8E02F16310408F46A
:104B700065C0E3946E2C712C8091D6059091D70579
:104B8000689EF001699EF00D789EF00D1124E40DF1
:104B9000F51DEA0DFB1D449122242394312C2C0E8B
:104BA0003D1E240E311CD1018C91811107C06E2D48
:104BB000802F0E94191C81E0F10180838091D6052D
:104BC0009091D705689EF001699EF00D789EF00DDA
:104BD0001124098D1A8DE00FF11FEA0DFB1D449180
:104BE00001E010E00C0F1D1F040F111DD8018C9166
:104BF000811107C06E2D882D0E94191C81E0F801DB
:104C000080838091D6059091D705689EF001699EBA
:104C1000F00D789EF00D1124EC0DFD1DEA0DFB1D2D
:104C20004491E1E0F0E0EC0FFD1FE40FF11D808105
:104C3000811104C06E2D892D0E94191C0E94CD1D6A
:104C40008091A501882381F127E230E0281B3109FA
:104C500037FF02C0295F3F4F93E0359527959A951E
:104C6000E1F78091F5059091F605A091F705B091D7
:104C7000F805BD016A5071098091F1059091F20526
:104C8000A091F305B091F405CC24C394E22E0DE776
:104C900014E04BE855E0CD0105970E948E108091FD
:104CA000A50181508093A5010E943B1E20E04BEF9F
:104CB00053E068E370E080E090E00E9424138DE010
:104CC0008093EC058093EB0589E38093ED0580915B
:104CD000FF0590910006FE0131962F892B5F6AE057
:104CE00070E00E94D9338193CB012E13F8CF8E014F
:104CF0000A5F1F4FD8016E918D0170E080E090E057
:104D00004AE00E946A20EF89F88D0E171F0791F77D
:104D100019E31093EC051093EB051093ED058091CA
:104D2000FD059091FE056AE070E00E94D933082FDE
:104D3000CB016AE070E00E94D933F82ECB016AE023
:104D400070E00E94D933BC0180E090E04AE00E940C
:104D50006A206F2D70E080E090E04AE00E946A20B7
:104D6000602F70E080E090E04AE00E946A208EE5CB
:104D70008093EC058093EB051093ED05809105067B
:104D80000AE0602F0E94CD33692F70E080E090E050
:104D90004AE00E946A2083E78093EC058093EB054C
:104DA0001093ED058091A705602F0E94CD33192F38
:104DB0000E94CD33692F70E080E090E04AE00E94CD
:104DC0006A20612F70E080E090E04AE00E946A2053
:104DD00080918B01882309F449C080917A0684313F
:104DE00008F044C08091A905A090B0050A2C000CE1
:104DF000BB08FFEFAF1ABF0A4091C7055091C80525
:104E00006091C9057091CA05A60EB71E08E0809F83
:104E1000A00CB11C11248091AA054091CB055091A2
:104E2000CC056091CD057091CE054B011DE0811A36
:104E3000910828E0829F800C911C1124CC24C394FB
:104E4000E12C09E613E020E041EB53E0B401C50199
:104E50000E948E102091AB052B5CB4016C5F7F4FDC
:104E60004FE552E0C50149960E94B91280918A012E
:104E70008823B1F180917A06843190F53091A905AB
:104E80008091AA054091CB055091CC056091CD054C
:104E90007091CE056D50710948E0849F600D711DC1
:104EA00011248091B005082E000C990B0196C0903A
:104EB000C705D090C805E090C905F090CA058E0DD1
:104EC0009F1DCC24C394E12C09E613E020E045E1CA
:104ED00052E0A8E03A9F800D911D11240E948E108F
:104EE00080917906863009F041C000E020E14EE56E
:104EF00067E170E082E190E00E94A01C21E04CE5B7
:104F000069E170E083E190E00E94411321E04CE50B
:104F100066E270E083E190E00E94411320E04CE5FE
:104F200067E270E083E190E00E94411386E18093A4
:104F3000EC058093EB058CE18093ED058EE092E02B
:104F40000E94492060918C0170E080E090E04AE08E
:104F50000E946A2081E092E00E94492088E00E943D
:104F60008419882319F084E08093790680910606DD
:104F700090910706892BD9F480910B0690910C062D
:104F80006FE070E00E94D933892B89F48091FD0590
:104F90009091FE0501979093FE058093FD05892B66
:104FA00031F483E390E090930706809306068091A6
:104FB0000606909107068230910551F0D8F08433AF
:104FC0009105C0F40197909307068093060612C0DE
:104FD00081E090E090930706809306068091050695
:104FE000815080930506882311F086E001C087E098
:104FF0008093790680910106882309F408C3809183
:105000000B0690910C066FE070E00E94D933892B5B
:1050100009F0FDC2809189018F5F8B3018F4809375
:105020008901F5C21092890181E09091A705911143
:1050300080E08093A705EBC281E00E94D21300E0DC
:105040002FE140E860E170E080E090E00E94A01C69
:1050500040E06DE070E08DE090E00E94BB2040E019
:105060006FE070E08FE090E00E94BB2041E061E1E2
:1050700070E081E190E00E94BB2041E06DE270E0D1
:105080008DE290E00E94BB2040E06FE270E08FE292
:1050900090E00E94BB2040E061E370E081E390E09B
:1050A0000E94BB2020E049E651E064E170E089E124
:1050B00090E00E94241384E28093EC058093EB053A
:1050C00083E28093ED0582E691E00E944920809181
:1050D000FF0590910006FE0131962F892B5F6AE053
:1050E00070E00E94D9338193CB012E13F8CF8E014B
:1050F0000A5F1F4FF80162918F0170E080E090E03D
:105100004AE00E946A202F89388D0217130791F711
:1051100088E00E9484198111B0C584E00E9484193E
:105120008111ABC510928C0172C28FEF8093E205A2
:105130001092E3051092E4051092E5051092E60541
:105140008091FF05909100069E8B8D8B00E010E012
:10515000B12C1A82198268013BEAC30ED11CBE0130
:105160006F5F7F4FC6010E94721A29813A818D8933
:105170009E892817390730F4BFEBEB2EF12C84E021
:10518000A82E09C0B3940B5F1F4F45E0B412E1CFC6
:10519000BB24BA943EC0BA1420F5AA94BE016F5F36
:1051A0007F4F8A2D0E944C146981C70103970E948A
:1051B000DD146A81C70102970E94DD146B81C7016B
:1051C00001970E94DD148C819D81998B888BBE0193
:1051D000605F7F4FC7010E94B61455E0E51AF108E1
:1051E000DACF60E0C80188559F4F0E94DD1460E06F
:1051F000C80187559F4F0E94DD1460E0C8018655A5
:105200009F4F0E94DD14BE016B5E7F4FC6010E945E
:10521000B6141FEFBE016F5F7F4F812F0E944C14A9
:105220001F5F1430B9F7B092E20589E080937906E8
:1052300080E8809306011092070180E480930801C2
:1052400081E08093090180E00E94D21300E020E415
:1052500042E560E070E087E190E00E94A01C00E081
:1052600010E021E0A80168E170E088E096E00E948B
:1052700084130F5F1F4F0034110599F700E010E011
:1052800021E0A80167E670E088E096E00E948413C0
:105290000F5F1F4F0034110599F720E040ED50E0FB
:1052A00066E070E08CE190E00E94241305E110E0DC
:1052B000912CA6E0BA2EAF88AB0CBE01605F7F4F89
:1052C000892D0E944C1428894FE552E0B80183E2F1
:1052D00090E00E94241329894FE552E0B80189E249
:1052E00090E00E9424132A894FE552E0B8018FE232
:1052F00090E00E942413AF89B88DEB2D1D92EA95A2
:10530000E9F78B899C899E012F5F3F4F6901F90165
:105310006AE070E00E94D9338193CB01AE12F8CFDE
:10532000F9E5EF2EF12CD6012D916D012C5C4FE5A6
:1053300052E0B801C7010E942413B5E0EB1AF1084E
:10534000EBE3EE16F10479F79394085F1F4FF5E055
:105350009F12B3CF1091E2051F3F09F41BC180914A
:1053600088018F5F809388018F30E8F408E0109FF8
:10537000B00111246C5E7F4F20E04DEC50E08EE1D7
:1053800090E00E9424136091E20518E0619FB00153
:1053900011246C5E7F4F20E04DEC50E081E690E000
:1053A0000E94241304C08F3110F010928801809164
:1053B000E3056091E20581111EC028E0629FB00103
:1053C00011246C5E7F4F01E028E046E082E290E02D
:1053D0000E94A01C6091E20538E0639FB001112497
:1053E0006B5E7F4F2091E4054FE552E083E290E051
:1053F0000E94B9120EC048E0649FB00111246B5E98
:105400007F4F2091E4054FE552E083E290E00E9457
:1054100024138091E3056091E2058130F1F458E0B6
:10542000659FB00111246C5E7F4F01E028E046E0EB
:1054300088E290E00E94A01C6091E20588E0689FED
:10544000B00111246B5E7F4F2091E5054FE552E0DE
:1054500089E290E00E94B9120EC098E0699FB00105
:1054600011246B5E7F4F2091E5054FE552E089E204
:1054700090E00E9424138091E3056091E205823060
:10548000F1F4A8E06A9FB00111246C5E7F4F01E047
:1054900028E046E08EE290E00E94A01C6091E205C8
:1054A000B8E06B9FB00111246B5E7F4F2091E60541
:1054B0004FE552E08FE290E00E94B9120EC0E8E0A2
:1054C0006E9FB00111246B5E7F4F2091E6054FE582
:1054D00052E08FE290E00E9424131091E30580E8EF
:1054E0000E948419882359F0E12FF0E0EE51FA4F21
:1054F00082818A3111F4128202C08F5F828380E13F
:105500000E948419882359F0E12FF0E0EE51FA4F00
:105510008281811102C089E101C08150828380E2D1
:105520000E948419882329F0112319F01150109337
:10553000E30580E40E948419882339F08091E30513
:10554000823018F48F5F8093E30588E00E9484190D
:10555000882309F45CC00091E205F5E00F9F80010B
:1055600011246091E405C80188559F4F0E94DD1405
:105570006091E505C80187559F4F0E94DD14609139
:10558000E605C80186559F4F0E94DD148FEF80937A
:10559000E2053DC00E94391387FFD0C30E94391332
:1055A00084FD6FC3CBC3809164008E7F80936400C1
:1055B00080917A00806480937A0080917A0086FDE1
:1055C000FCCF00917800109179000E94D70E20E066
:1055D00030E0980111270027600F711F821F931F71
:1055E000611571058105910511F00E944B33809181
:1055F000640081608093640045EA50E066E271E0F7
:105600008BE092E00E94621983E0809379060E9409
:10561000851BF090FA058F2D0F2C000C990BAA0B0F
:10562000BB0BDC01992788274C015D01BB0C880866
:10563000982C54019C01AD01682D782D882D982D52
:1056400000E10E940734E22E032F142FB52FF62F0E
:10565000E72F6C01A0E00E943E347CF42150310918
:10566000484F5F4F6F4F7F4F8F4F9F4FE22E032F5B
:10567000142FB52FF62FE72F6C012E2D302F412F31
:105680005B2F6F2F7E2FC60103E10E94203449015A
:105690005A018091F905082E000C990BAA0BBB0B3F
:1056A000DC01992788272C013D01770C4408542CF4
:1056B00032019C01AD01642D742D842D942D00E1E7
:1056C0000E940734E22E032F142FB52FF62FE72F59
:1056D0006C01A0E00E943E347CF421503109484F17
:1056E0005F4F6F4F7F4F8F4F9F4FE22E032F142F2F
:1056F000B52FF62FE72F6C012E2D302F412F5B2F6A
:105700006F2F7E2FC60103E10E942034298F3A8F2C
:105710004B8F5C8FF7FE8CC0E091CF05F0E0EE0F71
:10572000FF1FE25CFE4FC080D1806091F105709157
:10573000F2058091F3059091F40568A779A78AA7EF
:105740009BA7E090C705F090C8050091C90510918E
:10575000CA054090CB055090CC056090CD05709067
:10576000CE058091F5059091F605A091F705B091D1
:10577000F8059D01552737FD5095452F2CA33DA3D6
:105780004EA35FA3A301772757FD7095672FF901FB
:10579000E41BF50B9F0127703327232B09F0DDC095
:1057A00088A599A5AAA5BBA5AD01772757FD70953A
:1057B000672F332717FD3095232F401B510B8A018C
:1057C00073E0169507957A95E1F7CF01E3E096959A
:1057D0008795EA95E1F781502091D6053091D7055C
:1057E000829F7001839FF00C1124F701E00FF11DDF
:1057F000EC0DFD1D84910E9487148111D5C081E0BC
:10580000800FF701E80FF11DEC0DFD1D84910E9442
:1058100087148111C9C00E5FF701E00FF11DEC0D77
:10582000FD1D84910E948714882309F496C0BCC092
:105830001F140CF0B9C0109102061D8F111102C087
:10584000E8E001C0EBE0A091CF05B0E0AA0FBB1FDC
:10585000A25CBE4F6D907C902090F1053090F205D7
:105860004090F3055090F4054091C7055091C8054C
:105870006091C9057091CA05C090CB05D090CC0548
:10588000E090CD05F090CE058091F5059091F6055C
:10589000A091F705B091F8058D01332717FD3095DC
:1058A000232F0CA31DA32EA33FA38701332717FD8E
:1058B0003095232F8CA19DA1801B910B9AA389A3C6
:1058C0008E0F911D9C0127703327232B09F0EAC20C
:1058D0008201332717FD3095232FAB01772757FD22
:1058E0007095672F1801241A350A210113E0569488
:1058F00047941A95E1F703E0969587950A95E1F7A5
:105900002091D6053091D705829F8001839F100D8D
:105910001124F801E40DF11DE60DF71D84910E949C
:105920008714811185C381E0840DF801E80FF11D12
:10593000E60DF71D84910E948714811179C382E0DE
:10594000840DF801E80FF11DE60DF71D84910E940A
:105950008714882309F4A6C26BC38091FC058823B1
:1059600039F081508093FC05811102C0109202062B
:1059700010920306C090F505D090F605E090F7056B
:10598000F090F80577FE56C2C114D1049CE1E906F7
:10599000F1040CF4F3C1C114D104ACE1EA06F10442
:1059A00009F4F3C10CF011C28091F90587FF80C0A2
:1059B000E091CF05F0E0EE0FFF1FE25CFE4FA0800C
:1059C000B1804090C7055090C8056090C90570909F
:1059D000CA050091F1051091F2052091F30530916F
:1059E000F4058901332717FD3095232FC301BB2709
:1059F00097FDB095AB2FF801E81BF90B0091F50569
:105A00001091F6052091F7053091F8054091CB05EE
:105A10005091CC056091CD057091CE05CF01877076
:105A20009927892B09F0BEC08901332717FD3095CE
:105A3000232FCB01BB2797FDB095AB2F7801E81A38
:105A4000F90A670123E0D694C7942A95E1F780907C
:105A5000D6059090D70533E0F695E7953A95E1F7AE
:105A6000E1500E2F10E0C89CF001C99CF00D1124EC
:105A7000E00FF11FEA0DFB1D84910E948714811134
:105A8000A9C0A7E0EA22FF24EF2809F48BC0C39441
:105A9000C89CF001C99CF00D1124E00FF11FEA0D24
:105AA000FB1D84910E948714882309F47BC092C057
:105AB00018160CF08FC0E091CF05F0E0EE0FFF1F3D
:105AC000E25CFE4FA080B1804090C7055090C805B1
:105AD0006090C9057090CA058091F1059091F2051A
