:100000000C94620D0C948A0D0C948A0D0C948A0D3C
:100010000C948A0D0C948A0D0C948A0D0C948A0D04
:100020000C948A0D0C948A0D0C94A31C0C94151D31
:100030000C948A0D0C948A0D0C948A0D0C948A0DE4
:100040000C948A0D0C948A0D0C948A0D0C948A0DD4
:100050000C948A0D0C948A0D0C948A0D0C948720B4
:100060000C948A0D0C948A0D0C948A0D0C948A0DB4
:100070000C948A0D0C948A0D0C948A0D0C948A0DA4
:100080000C94D1200C948A0D0C948A0D0C948A0D3A
:100090000C948A0D0C948A0D0C948A0D0C948A0D84
:1000A0000C948A0D0C948A0D0C948A0DC5241B2582
:1000B000842501260E269D269D26A0261927A727E2
:1000C00008080808080805050508080808080808B9
:1000D00008080808080808080808080808080808A0
:1000E00008080801010101010101010101010101EB
:1000F00001010101010101010101010101010101F0
:1001000001010108010101010101010101010101D8
:1001100001010101010101010101010101010101CF
:1001200001010101010101010101010101010101BF
:1001300001010101010101010101010101010101AF
:10014000010101010101010101010101010101019F
:10015000010102020201010101010101010101018C
:10016000010101010101010101010101010101017F
:10017000010101010808080101010101010101015A
:10018000010101010101010101010101010101015F
:100190000101010101010108080101010101010141
:1001A000010101010101010101010101010101013F
:1001B0000101010101010101010108010101010128
:1001C000010101010101010101010101010101011F
:1001D0000101010201010101010202040801010102
:1001E00001010101010101010101010101010101FF
:1001F00001010101010801010101010909090801C9
:1002000001010101010101010101010101010101DE
:1002100001010101010101080101010101080808B2
:1002200008010101010101010101010101010101B7
:1002300001010101010101010108010101010101A7
:100240000808010101010101010101010101010190
:100250000101010101010101010101080101010187
:100260000101080101010101010101010101010177
:100270000101010101010101010101010108010167
:100280000101010108010101010101010101010157
:100290000101010101010101010101010101010847
:1002A0000202010101010801010101010101010135
:1002B000010101010101010101010101010101012E
:1002C0000108080802010101080101010101010101
:1002D000010101010101010101010101010101010E
:1002E00001010108080808010101080101010101DB
:1002F00001010101010101010101010101010101EE
:1003000001010202040808080801010108010101B5
:1003100001010101010101010101010101010101CD
:10032000010101010909090808080803030308037A
:100330000303080202020202020202020202020295
:1003400002020202020200000000000000000000A1
:10035000000000000000000000000000000000009D
:100360000000000000000000080808080808050553
:100370000508080808080808080808080808080800
:100380000808080808080808080808010101010110
:10039000010101010101010101010101010101014D
:1003A0000101010101010101010101080101010136
:1003B000010101010101010101010101010101012D
:1003C000010101010101010101010101010101011D
:1003D000010101010101010101010101010101010D
:1003E00001010101010101010101010101010101FD
:1003F00001010101010101010101020202010101EA
:1004000001010101010101010101010101010101DC
:1004100001010101010101010101010108080801B7
:1004200001010101010101010101010101010101BC
:1004300001010101010101010101010101010108A5
:100440000801010101010101010101010101010195
:10045000010101010101010101010101010101018C
:100460000101080101010101010101010101010175
:10047000010101010101010101010102010101016B
:100480000102020408010101010101010101010150
:100490000101010101010101010101010108010145
:1004A000010101090909080101010101010101011D
:1004B0000101010101010101010101010101010825
:1004C0000101010101080808080101010101010100
:1004D000010101010101010101010101010101010C
:1004E00001080101010101010808010101010101E7
:1004F00001010101010101010101010101010101EC
:1005000001010108010101010101080101010101CD
:1005100001010101010101010101010101010101CB
:1005200001010101010801010101010108010101AD
:1005300001010101010101010101010101010101AB
:10054000010101010101010802020101010108018B
:10055000010101010101010101010101010101018B
:100560000101010101010101010808080201010165
:100570000801010101010101010101010101010164
:10058000010101010101010101010108080808013F
:100590000101080101010101010101010101010144
:1005A0000101010101010101010102020408080821
:1005B000080101010801010101010101010101011D
:1005C00001010101010101010101010109090908FC
:1005D00008080803030308030303080202020202D7
:1005E00002020202020202020202020202020000EF
:1005F00000000000000000000000000000000000FB
:1006000000000000000000000000000000000000EA
:10061000080808080808080808080808080808085A
:100620000605050506080808080808080808080857
:10063000080801010101010101010101010101019C
:10064000010101010101010101010101010101019A
:10065000010101010B010101010101010101010180
:10066000010101010101010101010101010101017A
:10067000010101010A08060601010101010102064A
:100680000201010101040202020202020101010150
:1006900001010101010A08080D0D0101010101011B
:1006A0000606060101010106060606060606010108
:1006B0000101010101010108080801010101010115
:1006C00001010808080101010A01010101010101FC
:1006D0000A01010101010106060606060101010ADF
:1006E00001010101010101010101080303030303E9
:1006F0000303080101010101010D0D0D0D0D0101A3
:1007000001080101010101010101010108080808B6
:1007100008080808080101010101010101010101A6
:1007200001010108010101010101010101010101B2
:1007300001010101010101010101010101010101A9
:100740000101010101080A010101010A0A04010174
:100750000101010101010101010101010101010189
:10076000010A0A0401010108080A01010109090935
:1007700001010101010101010A010101010A010157
:10078000010E0E0606060101010808080101010814
:100790000808010101010101010A080A010101081B
:1007A0000A010106060606060A0A040808080101ED
:1007B00001010101010101010A0A040808080101FF
:1007C0000108080A0A0101010101090909080808CC
:1007D0000A040A0A0A0A0A0A0A0A09090908080888
:1007E00003030308080808030303030308080808B1
:1007F00008080800000000000000000008080808C1
:1008000008080000000000000000000000000101D6
:1008100001010101010101010101010101010101C8
:1008200001010101010101010101010101010101B8
:1008300001010101010101010101010101010101A8
:100840000101010101010101010101010101010198
:100850000101010101010101010101010101010188
:100860000101010101010101010101010101010178
:10087000010A0A0A0A0A0A0A0A040A010101030310
:100880000300000000000000000000030303D5F097
:100890008D14A1C881CFD9F1AF20000108FF040851
:1008A0003E09093E3F25251A1E2121123F21211E06
:1008B0003F2525213F0505011E21293A3F04043F1C
:1008C000213F21001021211F3F040A313F20202019
:1008D0003F02023F3F02043F1E21211E3F0909063D
:1008E0001E21112E3F09093622252519013F01013C
:1008F0001F20201F0F10201F3F10103F3B04043B00
:1009000003043807312D2321102A2A3C3F242418C0
:100910001C2222141824243F1C2A2A2C043E0501E0
:100920004C52523E3F040438243D20004040443D98
:100930003F081422213F20003E04043E3E04023CB6
:100940001C22221C7E22221C1C22227E3E04020427
:10095000242A2A12021F22201E20201E0E10201ED2
:100960003E10103E360808364E50503E322A26229F
:100970001E29251E223F2000322929261221251A50
:100980000C0A3F08172525191E25251801390503CE
:100990001A25251A0629291E002F00000020000014
:1009A0000229050200040400480BFFFFFF3030FF5E
:1009B000FFFF00FFFFFF00F8FEFF0763E3E300FF18
:1009C000FFFF3030FFFFFF00000000000E1F3FF36D
:1009D000E3C000F8FEFF07030300F8FEFF0303FF78
:1009E000FEF800FFFFFF73FFDF0E00FFFFFF333352
:1009F0003333070707000007070700070707000151
:100A0000030707060307000707070000070707009B
:100A100000000000070606070301000003070706A1
:100A20000600000307060607030000070707000784
:100A30000707000707070606060653434F52453AC5
:100A4000004B0D00F0FCFE0EC6C6C6000080F8FE8E
:100A50000EFEF8800000FEFEFE7CE07CFEFEFE0046
:100A6000FEFEFE666666660000000000F0FCFE0604
:100A700006FEFCF0023EFEF800F8FE3E0200FEFE1E
:100A8000FE6666666600FEFEFEE6FEBE1C00000315
:100A9000070F0E0C070F000C0F0F0303030F0F0CB3
:100AA000000F0F0F0003000F0F0F000F0F0F0C0CA4
:100AB0000C0C000000000001070F0C0C0F070100D8
:100AC00000030F0F0F010000000F0F0F0C0C0C0C98
:100AD000000F0F0F000F0F0E00802AFAFA02020219
:100AE0000202FAFAFAFAFA0202020202FAFAFAFA2E
:100AF000FA0202020202FAFAFAFAFA000000E0F838
:100B0000F8FC9C1C1C1C38000000FCFCFCFC1C1CA1
:100B10001CFCFCF8F00000C0FCFC7CFCFCC00000ED
:100B20000080E0F0F8783C1C1C1C3C0000FCFCFC45
:100B3000FC1C1C1C1C1C1C000000FAFAFAFAFA022D
:100B400002020202FAFAFAFAFA0202020202FAFABD
:100B5000FAFAFA0202020202FAFAFAE0E01F1F1F92
:100B60001F1FE0E0E0E0E01F1F1F1F1FE0E0E0E0CC
:100B7000E01F1F1F1F1FE0E0E0E0E0000000808199
:100B800003070F9EFEFCF8F00000FFFFFFFF0E0EB4
:100B90000F0F070701E0FCFFFFEFE0EFFFFFFEE0B4
:100BA000003FFFFFFFC080000000800000FFFFFF4C
:100BB000FF0E0E0E0E0E0E000000E0E0E0E0E01F63
:100BC0001F1F1F1FE0E0E0E0E01F1F1F1F1FE0E0EE
:100BD000E0E0E01F1F1F1F1FE0E0E00B0B0808080C
:100BE00008080B0B0B0B0B08080808080B0B0B0B6A
:100BF0000B08080808080B0B0B0B0B0040204327C1
:100C000047A747A747A341008040A747A707000081
:100C1000000000002647A747014000400147A747C2
:100C2000260000412347274727472740000727473B
:100C3000A747A7472747274000000B0B0B0B0B08C4
:100C4000080808080B0B0B0B0B08080808080B0B0F
:100C50000B0B0B08080808080B0B0B00000000002A
:100C60000000000000000000000000000000000084
:100C70000000000000000000040A050A050805083D
:100C80000500000000040A050AE5FAFDFE1E0F0734
:100C900007070F00000002F0FFFF1FFFFFF08200B8
:100CA0000000FFFFFFFF87C7FFFF7E3C0004080036
:100CB000000102050A0508050805080408040800E3
:100CC0000000000000000000000000000000000024
:100CD0000000000000000000000000000000000014
:100CE0000000000000000000000000000000000004
:100CF00000000000000000000000000000000000F4
:100D00000000000000000000000F3565DFB060400B
:100D10004040E00080780F854F2B282B4F850F78BF
:100D20008000FF05057F4343651F86E63C00000009
:100D300000000000000000000000000000000000B3
:100D400000000000000000000000000000000000A3
:100D50000000000000000000000000000000000093
:100D60000000000000000000000000000000000083
:100D70000000000000000000000000000000000073
:100D80000000000000000000000000000001010160
:100D90000101010001010101000000000001010149
:100DA000010001010101010101010000000000003A
:100DB0000000000000000000000000000000000033
:100DC0000000000000000000000000000000000023
:100DD0000000000000000000000000232304145461
:100DE00051471F7FFFFFFCE00000FFFFFFFFFFFFF9
:100DF000FF0F0000000000000000000080800000E5
:100E00000000000105151451470F3FFFF8FFFFFFD9
:100E1000FFFFFF03E0F0F8FC0C46160F0F7F1F47A3
:100E200011040100000000000000000105145043FF
:100E30000F3FFFFF3F0000E3E7E7C7C645643C40C4
:100E40005000000000000000000000000010101022
:100E50009010119514909110109313119590129079
:100E60009190101010000000000000000000000031
:100E70000000000106010005060600030403000748
:100E8000020000070000000000000000010204054D
:100E900006060E080102040506060E08010C0A09E2
:100EA000080D1003110C20090C060002070E0702A2
:100EB00000000002070E0702000000000002070207
:100EC0000000000000020702000000001104000002
:100ED0000204020000000000020402000000000002
:100EE00000000200000000000000020000000000FE
:100EF00000000002070E070200000002070E0702B2
:100F000000000000000207020000000000020702CB
:100F100000001104000000000204020000000000B4
:100F200002040200000000000000020000000000B7
:100F300000000200000000000000000000000000AF
:100F400000000000000000000000000000000000A1
:100F50000000000000000000000000E8FCFFFFFFB0
:100F60007E2E0000000000000000000000000000D5
:100F70000000000000808080E0E0E0808080800051
:100F80000000000000000000000000000000747E6F
:100F9000FFFFFF3F3F7F7FFFFFFF3F170000000085
:100FA000000000000000008080800000A0F0FCFC39
:100FB000FCF8B80000808080000000000000000005
:100FC000747EFFFFFF3F1703030707070100747ECE
:100FD000FFFFFF3F1700000000000000808080003E
:100FE0000000D0F8FEFEFEFC5C0000008080800067
:100FF0000000000000747EFFFFFF3F1700010103A7
:101000000303000000747EFFFFFF3F170000000095
:101010008080800000000000E8FCFFFFFF7E2E00C3
:10102000000000008080800000747EFFFFFF3F17FB
:1010300000000000000101010000000000747EFFBC
:10104000FFFF3F171B100000000000000000000021
:101050000000000000000000000000000000000090
:101060000000000000000000000000004854FE5492
:10107000240000000000000000000000000000004C
:10108000000000000000000080C080800000000020
:101090000000000000000000000000000000242A02
:1010A0007F2A110A1F0A242A7F2A1200000000004A
:1010B000000000000000000000000000002050F8C8
:1010C0005090000000000000000000000000000040
:1010D00000242A7F2A1200000101030100000024DD
:1010E0002A7F2A120000000000000000000000001B
:1010F00000000090A8FCA8480000000000000000CC
:10110000000000000000242A7F2A120000000000D6
:10111000010000000000242A7F2A120000000000C5
:101120000000000000000000004854FE54240000AD
:1011300000000000000000000000242A7F2A1200A6
:101140000000000000000000000000000000242A51
:101150007F2A12008008FF0301B9A9FDA9E901A1B6
:10116000010101010101010101010101010101016F
:10117000010101010101010101010101010183EFEF
:1011800083013149FD85D5F9050901A1010101015D
:1011900001010101010101010101010101010183BD
:1011A000EF830101C161B979C9C9D161A161C101EF
:1011B000A101010101010101010183EF830101117D
:1011C000C93DC90501A1010101010101010101019F
:1011D0000101010103FF80E2F7FEF4F0F0F0F0F00E
:1011E000F0F0F0F0F0F0F0F0F0F0F0F0F0F0F0F0FF
:1011F000F0F0F0F0F0F4FEF7E2800023773F1F0FED
:101200000F0F0F0F0F0F0F0F0F0F0F0F0F0F0F0FEE
:101210000F0F0F0F0F0F0F0F0F1F3F772300240F1C
:101220000080A20400C020204000804040800000D8
:1012300040E04000804040800000000000000000CE
:1012400004A280000000221000030405070003042C
:101250000403000000030400030404030000000072
:10126000000000001022000020474F4F44204C5542
:10127000434B2120004C6576656C2000010204057B
:1012800006060E080102040506060E08020C0B09EC
:10129000070D0F03120C21090D060000000ECEFEF3
:1012A000F8F8F8F8F8F8F8F0F0E7E7E7FCFC7C70FD
:1012B0007000000000000E0EEEE1EF0F7F7F7F0F49
:1012C0000F0F1F1F1F1FDFDFDF1F1E1C000000008E
:1012D000000000000000000000000000000000000E
:1012E000000101010000000000000000000000708B
:1012F000707CFCFCE7E7E7F0F0F8F8F8F8F8F8F8AD
:10130000FECE0E000000000000001C1E1FDFDFDF0D
:101310001F1F1F1F0F0F0F7F7F7F0FEFE1EE0E0EBE
:1013200000000000000000000101010000000000BA
:10133000000000000000000000000000000007E7BF
:10134000F7FCFCFCFCF8F8F8E0E7F7FFFCFCA00E6B
:101350008EBEF8F8E0000000EEEEEF8F8F7F7FFF8B
:10136000EFEF0F07071D1F1FFFF8FC1F3F3F3C005B
:101370000000000000030303000000000000000064
:10138000000000010101000000000000000000E07A
:10139000F8F8BE8E0EA0FCFCFFF7E7E0F8F8F8FCCA
:1013A000FCFCFCF7E70700000000003C3F3F1FFC8F
:1013B000F8FF1F1F1D07070FEFEFFF7F7F8F8FEFD6
:1013C000EEEE00000000000000000101010000003E
:1013D0000000000000000000030303000000000004
:1013E000E0F8F8BE8E8EE0FCFCFFC7F770F0D0F09E
:1013F000F83CFEFEF7E3031C1C000000787F7F3FF3
:10140000F1F1C70E0F0F7F76778F8FEFEEEE8E80A4
:10141000EEEEEE00000000000000000101010000FF
:101420000000000003030300000303030000001C8E
:101430001C03E3F7FEFE3CF8F0D0F070F7C7FFFCAA
:10144000FCE08E8EBEF8F8E0000000EEEEEE808E3E
:10145000EEEEEF8F8F77767F0F0F0EC7F1F13F7FA4
:101460007F78000000000000030303000003030373
:101470000000000000000101010000000000000069
:101480000000E0E7E70700000E0E0E070707000068
:10149000000E0E0E00707077071F1C003838380ED3
:1014A000CECEC000000080808000000080808000E0
:1014B0000000EEEEEE00000000000001010100005F
:1014C0000003030300000003030303030300000001
:1014D000001C1F07777070000E0E0E00000007073B
:1014E000070E0E0E000007E7E7E0000000EEEEEE4C
:1014F000000000808080000000808080000000C02C
:10150000CECE0E383838000000000003030303037A
:1015100003000000030303000000010101000000BC
:10152000000070F8FEFFFFFFFFFFFFFEFEFFFFFF62
:10153000FAF06060F0FAFFFFFFFEFEFFFFFFFFFF23
:10154000FFFEF8701B12000000000480C070F0F075
:1015500090002060C080A2E0A008002000000000F1
:1015600000000004004000040026000400070700FB
:101570000E020C820A020C000000000000000000B5
:10158000000000000000000000000000000000005B
:10159000000000000000000000000000200008A083
:1015A000E0A280C060200090F0F070C080040000D5
:1015B000000000000000000C020A820C020E00076E
:1015C00007000400260004004000040000000000A2
:1015D000000000000000000000000000000000000B
:1015E00000000000000000001B120000000240602C
:1015F000387800F090002060C280A8E0A0000400CD
:1016000010400000000000440000000420064004D8
:10161000000707000E0200980414051800000000DF
:1016200000000000010000000000000000000000B9
:10163000000000000000000000000000000040105A
:10164000000400A0E0A880C260200090F00078387C
:10165000604002000000000000001805140498001B
:10166000020E0007070004400620040000004400AA
:10167000000000000000000000000000000000006A
:101680000000000000000001000000001B12080024
:10169000000140600C1800B090002000820028601B
:1016A000A0000400104000000000004400000004FE
:1016B00040060004002206000602008020000930D7
:1016C0000000000000000000010000000001000018
:1016D000000000000000000000000000000000000A
:1016E00000004010000400A060280082002000904C
:1016F000B000180C60400100000800000000300934
:1017000000208000020600062200040006400400BB
:101710000000440000000000000000000000000085
:1017200000000000000001000000000100000000B7
:101730001B1208000200200000000400000000004E
:10174000020000040000000002400000000000440D
:101750000000000000000000000000000000000089
:1017600000800400001000000000000000020000E3
:101770000100000000000100000000000000000067
:101780000000000000004002000000000400000211
:10179000000000000004000000200002000800001B
:1017A00010000004800000000000000000000000A5
:1017B00000000000000044000000000000000000E5
:1017C0000000000000010000000000010000020015
:1017D0000000000011080070186E1E5E1272767C08
:1017E000186A1E5A1060000060105A1E6A187C7633
:1017F00072125E1E6E18700003051F111F001F007D
:101800001D151711151F07041F17151D1F151D0185
:10181000011F1F151F17151F0D9F2D970D9F2D972A
:1018200000000000000000004040404040404040B8
:10183000280404484804042840404F09ED094F405B
:101840000502050205020502A54299B5A59942A522
:101850005A8739D6D639875A5A8739D6D639875AC8
:10186000825A9A42985A9A5840504060405040607C
:1018700018247E426A7C0204EEDD9D71EFDE9D7BC2
:10188000FA3F001FFA1F003F5FFC00F85FF800FC02
:101890000808FFFFFFFFFFFFFFFF0303030303032E
:1018A00003030000030303033F3F000000000000A8
:1018B000FFFF0000E0E0E0E0FEFEE0E0E0E0E0E06E
:1018C000E0E0FEFEE0E0E0E00000FFFF00000000DE
:1018D00000003F3F0303030300000808000101016B
:1018E00001010100000000010101011F00000000D2
:1018F0000000007E000000404040407C004040402E
:10190000404040007C404040400000007E0000001D
:10191000000000001F01010101000000087CFE7FA3
:10192000FE6702087CFE7FFE6E0407080008641E46
:101930006402000008641E64040004083E09093EB5
:101940003F25251A1E2121123F21211E3F25252139
:101950003F0505011E21293A3F04043F213F210094
:101960001021211F3F040A313F2020203F02023F67
:101970003F02043F1E21211E3F0909061E21112E90
:101980003F09093622252519013F01011F20201F8B
:101990000F10201F3F10103F3B04043B0304380787
:1019A000312D2321102A2A3C3F2424181C222214E2
:1019B0001824243F1C2A2A2C043E05014C52523E76
:1019C0003F040438243D20004040443D3F08142299
:1019D000213F20003E04043E3E04023C1C22221C07
:1019E0007E22221C1C22227E3E040204242A2A1269
:1019F000021F22201E20201E0E10201E3E10103E10
:101A0000360808364E50503E322A26221E29251E00
:101A1000223F2000322929261221251A0C0A3F08CC
:101A2000172525191E252518013905031A25251AFC
:101A30000629291E002F00000020000002290502AF
:101A4000000404000102040810204080080B00027A
:101A50000202010009040000010202000005240046
:101A600010010524010101042402060524060001D9
:101A70000705810310004009040100020A0000006C
:101A8000070502024000000705830240000004032E
:101A9000090412010002EF020140412336800001D7
:101AA0000102030141726475696E6F204C4C430062
:101AB00041726475696E6F204C656F6E6172646F00
:101AC0000000C02F11241FBECFEFDAE0DEBFCDBF74
:101AD00012E0A0E0B1E0E6EEF2E602C005900D9261
:101AE000AA39B107D9F727E0AAE9B2E001C01D92EF
:101AF000A937B207E1F71DE0C2E6DDE004C0219797
:101B0000FE010E942331C136D107C9F70E94082384
:101B10000C9471310C940000CF92DF92EF92FF92FF
:101B20001F93CF93DF93E0914607F0E0E75BFE4F12
:101B30001081C12ED12CE12CF12CC701B6010E94DD
:101B40007F1CD62FC701B6010E947F1CC62F113003
:101B5000B1F08091A602D81306C0C701B6010E9459
:101B60007F1CD62FF4CF8091A902D81308C0F5CFDF
:101B7000DC1307C0C701B6010E947F1CC62F1130BD
:101B8000B9F72091460730E0220F331FF901E75CD7
:101B9000FE4F608171818D2F90E0880F991FFB01AE
:101BA000E80FF91F44914093A7020196FB01E80F4B
:101BB000F91FE491E093A802D093A602F901EF5B2C
:101BC000FE4F408151818C2F90E0880F991FFA01C0
:101BD000E80FF91F24912093AA020196FA01E80F59
:101BE000F91FE491E093AB02C093A9021092A40202
:101BF0006AE070E080E090E00E947F1CDC01CB0195
:101C00000A96A11DB11D8093A502DF91CF911F916E
:101C1000FF90EF90DF90CF9008954B3049F018F48B
:101C20004430D1F008954D3081F04E3071F0089578
:101C30008091600790916107883C9105B0F501960D
:101C40009093610780936007089583E390E09093F9
:101C50005A0780935907089590915B07992329F1BA
:101C60002091AA0230E0A901481B5109CA0157FF7F
:101C700003C09195819591090297BCF48091AB02C4
:101C8000861313C010925B072091A50280915C0718
:101C900090915D07820F911D90935D0780935C0783
:101CA0000E948C0D87E28093AF020895CF92EF924D
:101CB0000F931F9380916507909166078370992712
:101CC000892B09F0B5C00E94F81685FF06C00E9456
:101CD000652181E08093570708C00E94F81686FFAF
:101CE00004C00E944B21109257070E94F81683FFF0
:101CF00063C0809157078823B9F0813079F520912E
:101D0000A2028091530790915407A0915507B0917A
:101D10005607BD01685F7F4FCC24C394E22E0AEAC8
:101D20001EE04CEC5EE014C02091A20280915307AB
:101D300090915407A0915507B0915607BD01685F77
:101D40007F4FCC24C394E22E00EF1EE042E15FE01F
:101D500080915107909152070E944D148091650720
:101D60009091660765E070E00E940F31892B31F495
:101D70008091A2028F5F81708093A20280915F07A1
:101D8000882359F024F48C3F7CF0880F0BC08130FD
:101D900031F089304CF4859505C08FEF03C0109267
:101DA0005F0702C080935F0741E250E061E470E0AA
:101DB00081E290E00E947D21809165079091660705
:101DC00087709927892BA1F50E94F81683FD18C00A
:101DD00080915F078F3F71F01CF4883F3CF410C086
:101DE000882359F0853064F4880F08C087FD8F5F21
:101DF000859504C010925F0703C081E080935F0760
:101E00000E94F81685FD14C00E94F81686FD10C0C9
:101E100080915E07181614F40E94652180915E0778
:101E200087FF06C01F910F91EF90CF900C944B212C
:101E30001F910F91EF90CF9008952F923F924F9264
:101E40005F926F927F928F929F92AF92BF92CF924A
:101E5000DF92EF92FF920F931F93CF93DF93CDB753
:101E6000DEB768970FB6F894DEBF0FBECDBF809186
:101E70006507909166076CE370E00E940F31892B33
:101E800039F480910401811103C087E08093AC0292
:101E90008091B2028F5F68E20E9403319093B20298
:101EA0008091B102882319F081508093B102809112
:101EB000590790915A078E010F5F1F4F5801892BC8
:101EC00009F08BC10E94560E80915B0781115CC0A6
:101ED000C0904F07D0905007E0905107F090520704
:101EE00040915307509154076091550770915607E0
:101EF0002091A70280913E0790913F07A091400753
:101F0000B0914107FD0118E0219FE00DF11D112462
:101F10001091A8028091420790914307A091440735
:101F2000B09145079F01295F3F4F2738310560F584
:101F3000CD0108E0109F800D911D1124883F1FEFF7
:101F4000910714F180349105FCF46701FF24D7FC5C
:101F5000F094EF2CD60101E1C00ED11CEC15FD056B
:101F60009CF4A217B30784F4AB01772757FD709553
:101F7000672F9A01485F5F4F841795072CF40896E6
:101F8000281739070CF4FBC2F5018FE08A0D119276
:101F90008E13FDCFE0914607F0E0EE0FFF1FE75EE6
:101FA000FE4FC080D18040915307509154076091FB
:101FB000550770915607AB01772757FD7095672F2E
:101FC0008091420790914307A0914407B091450743
:101FD000CD01BB2797FDB095AB2F4A01881A990A0E
:101FE00000914F07109150072091510730915207EF
:101FF0008901332717FD3095232F80913E0790915B
:102000003F07A0914007B0914107CD01BB2797FD45
:10201000B095AB2F081B190B63E0169507956A95D1
:10202000E1F744244394400E72E0572E500E7401A1
:10203000E3E0F694E794EA95E1F737017724180195
:10204000332480914D0790914E07689EF001699E60
:10205000F00D789EF00D1124E20DF31DEC0DFD1D29
:1020600044919501240F311DF901808181110BC02C
:102070006E2D802F2F8B388F0E940D0E81E02F89BF
:10208000388DF9018083242D30E03C8B2B8B80919F
:102090004D0790914E07689EF001699EF00D789E65
:1020A000F00D1124E20FF31FEC0DFD1D449195017D
:1020B000240F311DF901808181110BC06E2D842DFB
:1020C0002F8B388F0E940D0E81E02F89388DF901FA
:1020D0008083252D30E03E8B2D8B80914D07909194
:1020E0004E07689EF001699EF00D789EF00D112458
:1020F000E20FF31FEC0DFD1D44913501640E711CC0
:10210000F3018081811107C06E2D852D0E940D0E77
:1021100081E0F3018083F8E08F16910408F45DC03C
:10212000E3948E2C912C80914D0790914E07889EC0
:10213000F001899EF00D989EF00D1124E20DF31D23
:10214000EC0DFD1D44913501640E711CF30180817D
:10215000811107C06E2D802F0E940D0E81E0F301CA
:10216000808380914D0790914E07889EF001899E53
:10217000F00D989EF00D11240B891C89E00FF11FC2
:10218000EC0DFD1D44918501040F111DF8018081A6
:10219000811107C06E2D842D0E940D0E81E0F80183
:1021A000808380914D0790914E07889EF001899E13
:1021B000F00D989EF00D11240D891E89E00FF11F7E
:1021C000EC0DFD1D4491F501E40FF11D808181119D
:1021D00004C06E2D852D0E940D0E0E94D4190E9400
:1021E0000F19F090AF02FF2071F127E230E02F19B4
:1021F000310937FF02C0295F3F4F83E035952795AE
:102200008A95E1F78091530790915407A091550763
:10221000B0915607BD016A50710980914F079091A6
:102220005007A0915107B0915207CC24C394E22EDD
:1022300006E31FE044E450E1CD0105970E944D14F0
:10224000FA94F092AF020E94981720E044E551E121
:1022500068E370E080E090E00E94E3168DE08093F8
:1022600039078093380789E380933A0780915C07A8
:1022700090915D07F5010AE010E025E02A0DB80114
:102280000E940F318193CB012E13F9CF8E010A5F8B
:102290001F4FF80142918F0150E060E070E02AE0AA
:1022A00084E397E00E945A1F0A151B0591F789E302
:1022B000809339078093380780933A0780916007AD
:1022C000909161072AE030E0B9010E940F31888BBC
:1022D000CB01B9010E940F31898BCB01B9010E945A
:1022E0000F318A8B7E01F0E1EF0EF11C8E010D5E45
:1022F0001F4FF80142918F0150E060E070E02AE04A
:1023000084E397E00E945A1F0E151F0591F78EE592
:10231000809339078093380719E310933A07809127
:1023200058070AE0602F0E940331492F50E060E017
:1023300070E02AE084E397E00E945A1F83E78093CD
:1023400039078093380710933A078091A502602FD0
:102350000E940331192F0E940331492F50E060E0A1
:1023600070E02AE084E397E00E945A1F412F50E07A
:1023700060E070E02AE084E397E00E945A1F4091F9
:10238000A60250E060E070E02AE08FEC96E00E9448
:102390005A1F6FE772E08FEC96E00E94451F409154
:1023A000A90250E060E070E02AE08FEC96E00E9425
:1023B0005A1F69E872E08FEC96E00E94451F8091F9
:1023C0005B07811103C06DE772E002C06BE772E04A
:1023D0008FEC96E00E94451F67E972E08FEC96E073
:1023E0000E94451F8091B1028823E9F08091B202DA
:1023F0008431C8F4CC24C394E12C06ED11E120E033
:102400004EE152E164E170E08CE290E00E944D14F4
:102410002091A9022B5C4EE958E069E170E087E465
:1024200090E00E94E3168091AC02863009F043C030
:1024300000E020E14EE567E170E081E190E00E947C
:10244000D02121E04CE569E170E083E190E00E9459
:10245000001721E04CE566E270E083E190E00E9425
:10246000001720E04CE567E270E083E190E00E9415
:10247000001786E180933907809338078CE18093B9
:102480003A0785E792E10E941A224091A30250E0A8
:1024900060E070E02AE084E397E00E945A1F88E63B
:1024A00092E10E941A2288E00E940F22882319F0EC
:1024B00084E08093AC028091590790915A07892B50
:1024C000D9F480916507909166076FE070E00E94F3
:1024D0000F31892B89F480916007909161070197F2
:1024E0009093610780936007892B31F483E390E038
:1024F00090935A07809359078091590790915A07F2
:102500008230910551F0D8F084339105C0F40197E1
:1025100090935A078093590712C081E090E09093FE
:102520005A07809359078091580781508093580724
:10253000882311F086E001C087E08093AC0280918F
:102540005B07882359F180916507909166076FE0DA
:1025500070E00E940F31892B09F58091B0028F5FE6
:102560008B3018F48093B00219C01092B0028091A1
:10257000A502882399F081508093A5020FC081E0C5
:1025800080935B0742E550E065EA70E087E295E002
:102590000E947D2180E58093B102F6CC68960FB64B
:1025A000F894DEBF0FBECDBFDF91CF911F910F9189
:1025B000FF90EF90DF90CF90BF90AF909F908F9063
:1025C0007F906F905F904F903F902F9008958A304A
:1025D00038F4883048F4882339F0863019F404C080
:1025E0008C3011F080E0089581E00895EF92FF9221
:1025F0000F931F93CF93DF9300D0CDB7DEB78B013E
:1026000095E0899F70011124C70188559F4F0E9452
:102610008A30F8018083C70187559F4F0E948A3016
:10262000F8018183C70186559F4F0E948A30F801C7
:1026300082831A821982BE016F5F7F4FC701855561
:102640009F4F0E949F2189819A81F80194838383FF
:102650000F900F90DF91CF911F910F91FF90EF900E
:1026600008950F931F93CF93DF9300D0CDB7DEB7BC
:10267000082F86EA90E00E948A30182F87EA90E0BF
:102680000E948A30011104C0133511F4833441F1E2
:102690001A82198263E586EA90E00E94881763E453
:1026A00087EA90E00E94881708EA10E060E0C8011D
:1026B0000E94881760E0C80101960E94881760E0B8
:1026C000C80102960E948817BE016F5F7F4FC80144
:1026D00003960E9461170B5F1F4F013C110531F7F4
:1026E0000F900F90DF91CF911F910F910895EF926E
:1026F000FF920F931F93CF93DF931F92CDB7DEB757
:102700007C01FC0100811181C80169830E948A302B
:102710006981681719F0C8010E949230C7010F90B3
:10272000DF91CF911F910F91FF90EF9008958091CD
:102730009D0208950895089580E090E00895CF9255
:10274000DF92EF92FF920F931F93CF93DF930E943C
:102750003121811520E8920761F4809171008D7F0D
:102760008093710010929100469847981092B7029A
:102770008BC021E02093B702813020E8920751F40A
:102780008091CA069091CB069093CD068093CC069B
:102790000E94312197FD05C02091B602222309F441
:1027A0003FC02091B50221113BC021E02093B80227
:1027B000EC01DF77209769F481E08093B9024698B5
:1027C0003FE9C32E3FE0D32EE12CF12CCAEFD0E03D
:1027D00014C08E0120E030E060E472E48FE090E00D
:1027E000A90198010E94A03069017A0181E0C81A0C
:1027F000D108E108F1081092B902E0912D07F0919B
:102800002E070995811103C081E08093B902809160
:10281000B8028823B9F18091B902811133C003C095
:102820001092B802C5CF46992DC0479A0E94312117
:10283000009771F09C01DE010E94F430DC01CB01B5
:1028400029E0B595A795979587952A95D1F703C067
:102850008FEF9FEFDC01109290002AE0209391000F
:10286000D0929900C09298008093BA029093BB02D4
:10287000A093BC02B093BD028091710082608093EE
:10288000710002C04798D2CFDF91CF911F910F9175
:10289000FF90EF90DF90CF9008956F927F928F928C
:1028A0009F92AF92BF92CF92DF92EF92FF920F93DF
:1028B0001F93CF93DF9300D000D0CDB7DEB73A019E
:1028C0004115510509F401C2FA01F4903196549171
:1028D000F2E06F0E711CAF2CB12C211102C0EE2062
:1028E00069F1A52FA695A695A695B0E0E1E0F0E0E8
:1028F000352F377011F4E0E0F0E0AE0FBF1FAA9E55
:10290000F001AB9EF00DBA9EF00D1124A3E08A2ECB
:10291000C81003C0EE0FFF1F0AC00115110539F0E2
:10292000EE9ED001EF9EB00D11240A0F1B1F2E9FAB
:10293000D0012F9FB00D11246A0E7B1E2FEFC21203
:1029400008C00115110519F0CC24C39402C032E06F
:10295000C32EDC01AA0DBB1D1A161B060CF0B5C157
:10296000803891050CF0B1C19B01250F311D121665
:1029700013060CF0AAC1603471050CF0A6C16114F5
:10298000710409F4A2C1362F3770932EFB0177FD35
:10299000379623E0F595E7952A95E1F72E2F77FFF7
:1029A00004C0992011F02FEF2E0F97FF05C0EE27DE
:1029B000FF27E81BF90B02C0E0E0F0E0A038B1050A
:1029C0001CF030E8381B01C03F2D3E1B622F022E49
:1029D000000C770B2F3F1CF4462F409501C040E0C0
:1029E000B1E0A52FA77009F4B0E05695569556951D
:1029F000DB2ED50E6D0D711D693071051CF058E090
:102A0000D52ED21AD41A240FDC0150E82503A00DCC
:102A1000B11D1124AE0FBF1F4F9DE00DF11D1124FC
:102A2000A3014E0F5F1F81E090E07C01092C02C0E2
:102A3000EE0CFF1C0A94E2F783E0C81609F404C107
:102A40008C15A8F091E0C91609F4B5C0E2E0CE12E9
:102A50003CC18FEF8E9DB0018F9D700D112460954C
:102A600070957C836B837C806D2C620E2BC0FAEF9B
:102A7000CF1631F09BEF892EC81027C1D20E87C028
:102A8000D20E51C0FA01E00FF11FE491EE9D6001FA
:102A9000EF9DD00C1124DA82C98227FD07C0FC010A
:102AA000D080ED2DE623CE2AFC01C082911013C008
:102AB0000F5F1F4F0196031728F32F5F4A0D5B1D11
:102AC000A058BF4F261509F400C1CD0186539D4F74
:102AD00000E010E0F0CF27305CF7FC01E058FF4F3A
:102AE000C080C7208A80C828C082E2CFFA01E60FE2
:102AF000F71FE491EE9D8001EF9D100D11241A83C4
:102B0000098327FD04C0FC011081012B0083911073
:102B100013C06F5F7F4F0196631740F32F5F4A0D1D
:102B20005B1DA058BF4F2D1509F4CFC0CD018653B2
:102B30009D4F60E070E0F0CF27305CF78C010058CB
:102B40001F4FF801C080FA81CF2AF801C082E1CF7F
:102B5000FA01E00FF11FE491EE9DC001EF9D900D91
:102B600011249A83898327FD05C08095FB019081FC
:102B700089238083911014C00F5F1F4F6F5F7F4FB9
:102B8000031730F32F5F4A0D5B1DA058BF4F2D1563
:102B900009F49BC0BD0166537D4F00E010E0F0CF0B
:102BA000273054F7FB01E058FF4F8A8180959081D0
:102BB00089238083E1CF0E0F1F1F8D2C820E2815D5
:102BC00009F483C0CD0186539D4F6C0160E070E035
:102BD000631790F5F801E60FF71FE491EE9DC00131
:102BE000EF9D900D1124809590959C838B83FA0125
:102BF000E60FF71FE491EE9D3001EF9D700C11245C
:102C00007A82698227FD05C0F60190818923682AAE
:102C10006082992059F027304CF4F601E058FF4FBC
:102C200090818C8189239A81892B80836F5F7F4F6C
:102C3000FFEFCF1ADF0ACCCF2F5F4A0D5B1D0A0DC5
:102C40001B1DA058BF4FBBCF832F90E0E40FF51F93
:102C5000A653BD4F60E870E0681B790BA81AB90A4B
:102C60008501000F111F5D2D832ECF93DF93ED01A2
:102C7000EF96EF962296A590C590992059F0AE9CBC
:102C80005001CE9C600127302CF4F880D094FD20B8
:102C9000FB28F99222233AF0FC90C094FC20FA28F9
:102CA000FD920C94541611963A9529F75A9551F0C5
:102CB000382D23951124E00FF11DA60FB11DC60F6D
:102CC000D11DD9CFDF91CF9111240F900F900F908C
:102CD0000F90DF91CF911F910F91FF90EF90DF90B8
:102CE000CF90BF90AF909F908F907F906F900895FE
:102CF000CF92EF920F931F933BEFC32EE12C00E096
:102D000010E00E944D141F910F91EF90CF90089505
:102D1000CF92EF920F931F93CF93DF93FC01968195
:102D20006A3031F4858184836185960F968342C031
:102D3000262FEF01848161E0690F2F33A1F164F444
:102D40002E32A1F01CF42132A9F027C090ED920F91
:102D50009A3018F52C5F0FC02134FCF02B3544F06D
:102D60009FE9920F9A31C8F4275405C02FE303C09E
:102D7000215401C02EE33F81062E000C770B082E54
:102D8000000C990B313089F43AEFC32EE12C00E0AE
:102D900010E04AE359E10E944D1488858C5F9C81C4
:102DA000890F8C8307C020E4E6CF4AE359E10E94F3
:102DB0007816F3CF81E090E0DF91CF911F910F91D2
:102DC000EF90CF900895CF92EF920F931F9332E040
:102DD000C32EE12C00E010E00E944D141F910F91D2
:102DE000EF90CF900895BC0180E090E00C94C81F54
:102DF0008FB18095807F669B88601C9B846008955E
:102E0000FC01840F911D18161906E4F5E038F10550
:102E1000CCF5F7FF02C0E0E0F0E08138910514F056
:102E200080E890E0382F3E1BAB0177FF02C0495F7E
:102E30005F4F83E0559547958A95E1F75695542F56
:102E4000442757954795E40FF51FE653FD4F6770EC
:102E5000772781E090E001C0880F6A95EAF7482F54
:102E6000222349F0213071F4315020F08081842BED
:102E70008193FACF08958095315020F09081982366
:102E80009193FACF089560387105D0F4403451051C
:102E9000B8F4E4E4FAE180E1849FD001A078112441
:102EA000A60F4770E40FF11D8491A653BD4F222356
:102EB00019F06C91862B03C080956C9186238C93BE
:102EC0000895EF92FF920F931F93CF93DF9300D05B
:102ED000CDB7DEB78C017B01FB0160819A838983CA
:102EE000CE0101960E947713F70161810F5F1F4F9A
:102EF0001A830983CE0101960E947713C7010F90B0
:102F00000F90DF91CF911F910F91FF90EF90089557
:102F1000CF93DF9300D0CDB7DEB79A838983CE01FC
:102F200001960E9477130F900F90DF91CF91089533
:102F30002F923F924F925F926F927F928F929F92C9
:102F4000AF92BF92CF92DF92EF92FF920F931F93B7
:102F5000CF93DF93CDB7DEB728970FB6F894DEBFD7
:102F60000FBECDBF4091A70208E0409FA0011124F1
:102F700080903E0790903F07A0904007B090410797
:102F8000C501BB2797FDB095AB2F89839A83AB838F
:102F9000BC832091A80298E0299F10011124C090C1
:102FA0004207D0904307E0904407F090450787011F
:102FB000332717FD3095232F0D831E832F833887EA
:102FC000E0915B07E11134C089819A81840F951FDC
:102FD000893F1FEF910764F1803891054CF56D81B1
:102FE0007E81620D731D683F2FEF72070CF1603414
:102FF0007105F4F42091A402CC24C394E22E0CE1D8
:1030000019E14AE259E10E944D14809165079091BF
:1030100066076FE070E00E940F31892B09F0E6C06F
:1030200081E09091A402911180E08093A402DEC01F
:103030008091AC02853009F0D9C040904F07509084
:1030400050076090510770905207809153079091FC
:103050005407A0915507B09156076091B2026431B0
:1030600008F0C4C0EE2361F04091AA0238E0439F0B
:10307000A00111242091AB0268E0269F10011124C9
:1030800069817A81695F7F4F640F751F67387105A9
:1030900060F46D817E81620D731D683FEFEF7E07E6
:1030A00024F0603471050CF4A1C08301332717FDAF
:1030B0003095232F0D831E832F8338878D0133276F
:1030C00017FD3095232F09831A832B833C834818DF
:1030D00059086A087B08461957098C199D09AE09D9
:1030E000BF09F101EA1BFB0BED80FE80FF2488275E
:1030F00099278E199F0948175907B4F4C8019927D1
:1031000022273327281B390BE217F3070CF042C0A4
:1031100027E060E008E310E0D801A81BB90BEA172C
:10312000FB070CF045C00AC080E890E08E199F09AB
:10313000481759070CF43FC020E060E080E0A0E8A9
:10314000B0E0AE19BF094A175B07C4F049815A8144
:103150005527AA27BB27A41BB50BEA17FB07D4F5F5
:1031600021E060E088E7A8E3B0E08D01041B150BC7
:10317000E017F1071CF023E060E388E770E0CC245F
:10318000C394E22E0AE918E14AED58E190E00E946A
:103190004D142CC028E330E0281B390BE217F3074D
:1031A0002CF4698164506E0F26E0B4CF20E0B1CFDB
:1031B00025E060E3C3CFF7FF05C08D81840F20E0D9
:1031C00060E0BDCF309709F4B7CF8D81840F24E044
:1031D00060E3B5CFA8E3B0E0A41BB50BEA17FB078B
:1031E00014F6698164506E0F22E0BCCF28960FB6AA
:1031F000F894DEBF0FBECDBFDF91CF911F910F912D
:10320000FF90EF90DF90CF90BF90AF909F908F9006
:103210007F906F905F904F903F902F9008958F9286
:103220009F92AF92BF92CF92EF920F931F93809194
:10323000590790915A078433910598F59C01220F04
:10324000331FF901E851FE4F40815181F901E058E7
:10325000FE4F00811181FC01E45BFE4F808141152E
:103260005105F9F020915707082E000C990B80901A
:10327000530790905407A0905507B0905607BC0193
:103280006A0D7B1D80904F0790905007A0905107CA
:10329000B0905207CC24C394E22E8A0D9B1D0E944D
:1032A0004D141F910F91EF90CF90BF90AF909F90D2
:1032B0008F9008958F929F92BF92CF92DF92EF925C
:1032C000FF920F931F93CF93DF931F92CDB7DEB77B
:1032D000E82E21E040E860E070E080E090E00E94AD
:1032E00000178090B3029090B4028401F12C003852
:1032F000110514F584E0C82ED12C30E08F2D81709B
:10330000B82E932F9170B11002C019F00BC0992301
:1033100049F020E040E958E1B601C80139830E9434
:10332000E31639813F5F88E0C80ED11C373049F77A
:10333000F394085F1F4FDBCF21E040E86FE370E0BC
:1033400080E090E00E9400178091650780FD1FC01B
:10335000EE2069F081E0881A910881E888168FEFE5
:10336000980654F41092B4021092B30210C08FEF7A
:10337000881A980A97FE05C09092B4028092B30210
:1033800006C080E89FEF9093B4028093B3020F9041
:10339000DF91CF911F910F91FF90EF90DF90CF9031
:1033A000BF909F908F9008952F923F924F925F927F
:1033B0006F927F928F929F92AF92BF92CF92DF9245
:1033C000EF92FF920F931F93CF93DF93CDB7DEB7AA
:1033D00029970FB6F894DEBF0FBECDBFE091460728
:1033E000F0E0EE0FFF1FE75EFE4F408151815C83EE
:1033F0004B83D12CB8E06B2E712C8D2C912C8091AD
:103400004B0790914C078816990608F01DC11401CE
:1034100083E0220C331C8A95E1F7C12CEC2DF0E0FF
:1034200020914D0730914E07E217F30708F005C1D0
:1034300080913E0790913F07A0914007B0914107CE
:10344000AF0173E0440F551F7A95E1F7BA016A0F97
:103450007B1F7E836D838091420790914307A091EB
:103460004407B09145078B012B0178E0470E511CB2
:1034700048E84416510408F0DEC07101EA0EFB1E54
:10348000C70108968834910508F0D5C0829EC00116
:10349000839E900D929E900D1124E80FF91F6B8171
:1034A0007C81E60FF71F749179879701F7FE04C0BE
:1034B000222733272E193F0927703327C701F7FC2E
:1034C000079663E0959587956A95E1F7F7FE0AC040
:1034D0000197D301A21BB30B9D018E3FBFEF9B074A
:1034E00009F467C0598548E0549FF0011124BF01D9
:1034F000685E774E5B01DC011196B695BA2FAA275C
:10350000B795A795ED81FE81AE0FBF1FA653BD4FA6
:10351000BC017695762F6627779567956E0F7F1F8E
:1035200066537D4FA301421B530B5A8349830038D6
:1035300011050CF03EC017FF0CC00F5F1F4F5FEF6F
:10354000A51AB50A11966F5F7F4F0415150579F717
:1035500030C08F3FEFEF9E0709F471C0F501449131
:10356000E42FF0E0AF01022E02C0440F551F0A9471
:10357000E2F758874F83FB015081EF81F885E52BF7
:10358000AF01FB01408321153105B9F28730910568
:10359000A1F2F501449150E0FA01098002C0F595CD
:1035A000E7950A94E2F7F887EF835C91E52BEC93BB
:1035B000C4CF4985443009F03EC001E027E045E032
:1035C000B701625071098D819E8102960E94D021BF
:1035D0008091B202843178F58091460790E0FC0139
:1035E000E75BFE4FB080880F991FFC01EF5BFE4F39
:1035F0000081118120E051E0E51AF1084D805E80E4
:1036000063E0460E511C2B15B1F0F8018491319600
:10361000E491AA24A394A20EC81209C0DE1207C026
:103620002A2D48EF57E1B701C2010E9478162A2DD2
:103630000E5F1F4FE8CFC394F1CED394DECE211599
:10364000310509F0A6CF79CF29960FB6F894DEBFE1
:103650000FBECDBFDF91CF911F910F91FF90EF90E3
:10366000DF90CF90BF90AF909F908F907F906F90A2
:103670005F904F903F902F9008954091C5025091D8
:10368000C6022091C3023091C40242175307B4F41A
:103690009091E8009570E1F39091E80092FD19C0D7
:1036A0008093F1008091C5029091C60201968F73BC
:1036B0009927892B19F48EEF8093E8008091C50239
:1036C0009091C60201969093C6028093C50281E054
:1036D000089580E00895DF92EF92FF920F931F9379
:1036E000CF93DF93D82E8A017B01E40EF51EEB0108
:1036F000CE15DF0571F0D7FE03C0FE01849101C035
:1037000088810E943D1B21968111F2CF8FEF9FEFA0
:1037100001C0C801DF91CF911F910F91FF90EF90F1
:10372000DF900895615030F02091F100FC0120837A
:103730000196F8CF289884E68093C8020895CF9226
:10374000DF92EF92FF920F931F93CF93DF936C0161
:103750007A018B01C0E0D0E0CE15DF0589F0D801F9
:103760006D918D01D601ED91FC910190F081E02DDC
:10377000C6010995892B11F47E0102C02196ECCF78
:10378000C701DF91CF911F910F91FF90EF90DF90D4
:10379000CF900895CF93DF931F92CDB7DEB76983A3
:1037A000DC01ED91FC910280F381E02D41E050E0DD
:1037B000BE016F5F7F4F09950F90DF91CF91089504
:1037C00083E08093E9008091F200882319F08AE376
:1037D0008093E8000895FC018485958597FD0BC0D2
:1037E0009FB7F89482E08093E9008091F2009FBF38
:1037F00090E0019608959FB7F89482E08093E900E5
:103800008091F2009FBF90E008950E946C310F9369
:103810001F93CF93DF931F92CDB7DEB782E08983EA
:1038200042E450E06CE47AE180E80E946B1B0E9465
:10383000F422DC0112960D911C91139701151105CC
:1038400069F0D801ED91FC910280F381E02DBE0179
:103850006F5F7F4FC801099597FF07C089810F905F
:10386000DF91CF911F910F910895F8010085118587
:10387000E5CF0E94E32290E008950F931F93CF932A
:10388000DF931F92CDB7DEB78C01FC01848595854F
:1038900097FF0EC0CE0101960E94B922019719F43C
:1038A000298130E002C02FEF3FEFF80135872487F0
:1038B000F801848595850F90DF91CF911F910F912D
:1038C0000895CF93DF931F92CDB7DEB7FC018485B7
:1038D000958597FD05C02FEF3FEF358724870BC0F7
:1038E000CE0101960E94B922019719F4898190E0D6
:1038F00002C08FEF9FEF0F90DF91CF910895CF938C
:10390000DF9300D000D0CDB7DEB76115710581051A
:10391000910579F09B01AC0169833A834B835C8309
:103920000E947C3029813A814B815C810E94A030C9
:1039300003C060E070E0CB010F900F900F900F90EC
:10394000DF91CF9108951F920F920FB60F9211241D
:103950008F939F938091E1009091E100937F9093EA
:10396000E10083FF0FC01092E90091E09093EB001B
:103970001092EC0092E39093ED001092C90298E04F
:103980009093F00082FF20C093E09093E900909123
:10399000F200992319F09AE39093E8009091C702FE
:1039A000992339F09091C70291509093C7029923BF
:1039B00089F19091C802992339F09091C8029150F1
:1039C0009093C802992341F184FF10C08091E200D6
:1039D0008E7E81608093E2008091E1008F7E8093F3
:1039E000E10080919B028E7E806111C080FF16C035
:1039F0008091E2008E7E80618093E2008091E10000
:103A00008E7E8093E10080919B028E7E8160809308
:103A10009B0204C05D9ACDCF289AD6CF9F918F91FB
:103A20000F900FBE0F901F9018951F920F920FB618
:103A30000F921124CF92DF92EF92FF920F931F9378
:103A40002F933F934F935F936F937F938F939F93A6
:103A5000AF93BF93EF93FF93CF93DF93CDB7DEB7D1
:103A60006C97DEBFCDBF1092E9008091E80083FF24
:103A7000EDC168E0CE0145960E94921B82EF8093D3
:103A8000E8008D8987FF05C09091E80090FFFCCF8A
:103A900003C09EEF9093E800982F907609F0C6C07F
:103AA0009E892F89188D91110CC0803829F480913E
:103AB0009C028093F10002C01092F1001092F1007C
:103AC00048C1422F50E0512B913051F4811141C136
:103AD0004130510509F03DC180919C028D7F0BC0A2
:103AE000933061F4811135C14130510509F031C184
:103AF00080919C02826080939C022BC1953041F49E
:103B00008091E80080FFFCCF20682093E30021C172
:103B1000963009F05FC0EB8CFC8C1092E90010929B
:103B2000C6021092C502123091F51092C402109292
:103B3000C3020E94071C99E0BE016F5F7F4FDB014B
:103B4000E92F1D92EA95E9F799831A8391E09E8304
:103B500090EA98879AEF99872091C5023091C60222
:103B6000275F3F4F3C832B838D831092E900109297
:103B7000C6021092C502F092C402E092C30249E06C
:103B800050E080E00E946B1B0E94071CE2C0F09294
:103B9000C402E092C3020E94F422DC011296ED906E
:103BA000FC901397E114F10409F4C0C0D701ED9122
:103BB000FC910480F581E02DBE016B5E7F4FC70153
:103BC0000995009719F00CF0C4C0C7C0F701E08454
:103BD000F184E8CF973009F4C0C0983021F481E037
:103BE0008093F100B6C0993009F0B3C0837009F03A
:103BF000B4C0E1E5F2E081E021E036E39081992371
:103C000061F08093E9002093EB0091919093EC0098
:103C10003093ED008F5F873089F78EE78093EA005D
:103C20001092EA008F898093C90293C08B8D9C8D7E
:103C30001092E9001092C6021092C5029093C4023D
:103C40008093C302898D811156C08E899D89913AD6
:103C500059F4813209F081C047E050E06DE071E035
:103C600080E00E946B1B75C0913209F076C08332F0
:103C700089F4888D90E0982F88272F89822BA0E0E7
:103C8000B0E08093090190930A01A0930B01B093D7
:103C90000C015FC0803269F48091E80082FFFCCFA4
:103CA00067E08DE091E00E94921B8BEF8093E8002B
:103CB00006C0823209F04DC08F8980931401809133
:103CC0009A02882319F0EEEFFAE002C0E0E0F8E093
:103CD00080910D0190910E01A0910F01B091100102
:103CE000803B9440A105B10509F07BC0809114018F
:103CF00080FF93C076C00E94F422DC0112960D91E1
:103D00001C9113970115110541F1D801ED91FC911A
:103D10000190F081E02DBE016B5E7F4FC8010995D7
:103D2000811117C0F80100851185ECCF113009F41D
:103D30004EC0133091F48F89882309F445C0823036
:103D400081F440E860E180EB9AE10E94832F8823B0
:103D500021F08EEF8093E80079C081E28093EB0040
:103D600075C0813029F440E86BE084EA9AE1EDCF38
:103D7000833099F70E94F422DC011296ED90FC90BA
:103D800013978E010F5F1F4F6801E114F10479F062
:103D9000D701ED91FC910680F781E02DB801C701B4
:103DA0000995080F111DF701E084F184EECFD801C9
:103DB0001C92F60101900020E9F73197BF016C19C0
:103DC0007D0940E0C601C1CF6EE87AE102C062E938
:103DD0007AE16115710509F2FB01449150E080E838
:103DE00040CF0FB6F894A8958091600088618093C9
:103DF0006000109260000FBEA895EE3F2AE0F20727
:103E000039F08091FE0A9091FF0A91838083A1CFBF
:103E10001092FF0A1092FE0A9CCFEE3F8AE0F8074C
:103E200031F0808191819093FF0A8093FE0A87E7A9
:103E300097E7918380839BE088E10FB6F894A8957B
:103E4000809360000FBE9093600083CF6C960FB696
:103E5000F894DEBF0FBECDBFDF91CF91FF91EF9100
:103E6000BF91AF919F918F917F916F915F914F9192
:103E70003F912F911F910F91FF90EF90DF90CF9086
:103E80000F900FBE0F901F9018956115710579F076
:103E9000FB0101900020E9F73197AF01461B570B5A
:103EA000DC01ED91FC910280F381E02D099480E02A
:103EB00090E008954F925F926F927F92EF92FF92FF
:103EC0000F931F93CF93DF93CDB7DEB7A1970FB6B4
:103ED000F894DEBF0FBECDBF7C01FA01CB0119A261
:103EE000223008F42AE08E010F5D1F4F422E512C24
:103EF000612C712CBF01A30192010E94D230F90103
:103F0000CA01015011096A3014F4605D01C0695C96
:103F1000D8016C93232B242B252B61F7B801C70103
:103F20000E94451FA1960FB6F894DEBF0FBECDBF0D
:103F3000DF91CF911F910F91FF90EF907F906F9045
:103F40005F904F9008953FB7F8948091BF02909191
:103F5000C002A091C102B091C20226B5A89B05C0C3
:103F60002F3F19F00196A11DB11D3FBFBA2FA92FF8
:103F7000982F8827820F911DA11DB11DBC01CD0175
:103F800042E0660F771F881F991F4A95D1F7089561
:103F90008F929F92AF92BF92CF92DF92EF92FF9259
:103FA0006B017C010E94A31F4B015C01C114D10471
:103FB000E104F104F1F00E94A31FDC01CB01881998
:103FC0009909AA09BB09883E9340A105B10570F380
:103FD00021E0C21AD108E108F10888EE880E83E0DA
:103FE000981EA11CB11CC114D104E104F10419F7FD
:103FF000DDCFFF90EF90DF90CF90BF90AF909F907C
:104000008F9008958F929F92AF92BF92CF92DF923E
:10401000EF92FF920F931F93CF93DF935C016B019D
:104020007A0180911401882309F45BC08091C90250
:10403000882309F456C080919B0280FF05C08091BF
:10404000E00082608093E000E70110E00AEF83E087
:10405000882E9AE3992E2097D9F10E94E3228111AC
:104060000AC0015009F43DC061E070E080E090E0DA
:104070000E94C81FF0CF282F30E0C217D3070CF4DE
:104080008C2F4FB7F8948092E9009091E80095FF4B
:104090001DC0282F30E0C21BD30BF601982F915082
:1040A00020F081918093F100FACFC20ED31E11232C
:1040B00019F09092E80009C08091E80085FD06C0E3
:1040C0009092E80011E0209709F010E04FBFC3CFB5
:1040D0001111C3CF5D9884E68093C7021E141F049C
:1040E00044F081E090E0F5019383828380E090E0EA
:1040F00001C0C701DF91CF911F910F91FF90EF9009
:10410000DF90CF90BF90AF909F908F9008951F92B7
:104110000F920FB60F9211242F933F938F939F937B
:10412000AF93BF9380919E0290919F02A091A002B5
:10413000B091A1023091BE0223E0230F2D3720F46D
:104140000196A11DB11D05C026E8230F0296A11DF1
:10415000B11D2093BE0280939E0290939F02A09374
:10416000A002B093A1028091BF029091C002A091E1
:10417000C102B091C2020196A11DB11D8093BF0280
:104180009093C002A093C102B093C202BF91AF91BD
:104190009F918F913F912F910F900FBE0F901F9085
:1041A00018951F920F920FB60F9211242F933F93E1
:1041B0004F935F936F937F938F939F93AF93BF932F
:1041C000EF93FF938091BA029091BB02A091BC0241
:1041D000B091BD02892B8A2B8B2B81F18091B90282
:1041E00081110BC098B180E4892788B98091B80209
:1041F000882319F088B1805888B98091BA029091CB
:10420000BB02A091BC02B091BD02181619061A0695
:104210001B06B4F48091BA029091BB02A091BC023B
:10422000B091BD020197A109B1098093BA029093A0
:10423000BB02A093BC02B093BD0202C00E949F13B8
:10424000FF91EF91BF91AF919F918F917F916F916E
:104250005F914F913F912F910F900FBE0F901F9044
:1042600018958091CE06E091CC06F091CD0688237A
:1042700049F0CF0102969093CD068093CC068591AC
:1042800094910895CF0102969093CD068093CC0629
:1042900080819181089580915E078F3F69F01CF4C1
:1042A000883F34F40895882351F0853054F0089500
:1042B00087FD8F5F859506C010925E07089581E0A7
:1042C00001C0880F80935E07089580915E07882360
:1042D00059F01CF48C3F34F40895813039F0893062
:1042E00044F00895880F06C08FEF04C010925E0757
:1042F0000895859580935E0708959C01E1E7F0E0BD
:1043000090819D7F90831092CE06EFE1F7E0F093CD
:10431000CD06E093CC06F093CB06E093CA0631833A
:10432000208382E390E09383828375836483978301
:10433000868351874087938782870C949F130F93BE
:104340001F93CF93DF938C01EB010E948A30888307
:10435000C80101960E948A308983CE01DF91CF91F6
:104360001F910F91089580E0EAECF2E081118FEF48
:10437000002481938193819381930394D1F70895CD
:10438000EAECF2E080E0A0E0B8E000800EBC811131
:10439000012C1197A0FDFDCF0192B9F70DB408953E
:1043A0008F929F92AF92BF92CF92DF92EF92FF9245
:1043B0000F93CF93DF936B01EC014C01840E911CA2
:1043C0005B01A20EB11CC815D905ECF47601D7FE2D
:1043D00010C0E12CF12C0DC0E816F90694F4202F42
:1043E000A701BE0182E697E00E9443172FEFE21A71
:1043F000F20AC50121E4A216B10474F380E490E04E
:10440000EBCF2196E0CFDF91CF910F91FF90EF900E
:10441000DF90CF90BF90AF909F908F9008952091A4
:104420006807282329F490916707982381E009F40D
:1044300080E008950F931F93CF93DF938C01C0E02A
:10444000D0E0F801EC0FFD1F6491662371F0E0915C
:104450003407F09135070190F081E02D84E397E077
:104460000995892B11F02196ECCFCE01DF91CF91E8
:104470001F910F9108954F925F926F927F928F924A
:104480009F92AF92BF92CF92DF92EF92FF920F93E3
:104490001F93CF93DF93EC018B01442ECB018C1B38
:1044A0009D0B97FF03C091958195910955245394D5
:1044B000813891053CF4512CC80100E810E0E12C52
:1044C000F12C0FC00C171D0734F07E0180E890E03E
:1044D000C0E0D0E006C078018E0180E090E0C0E846
:1044E000D0E038016E187F085C01AC1ABD0AB7FE37
:1044F00003C0B194A194B108630177FE03C02FEF0C
:10450000C21AD20AD594C794C817D90714F08FEFEE
:1045100001C081E0882E880F99080E151F05C4F090
:10452000242D552019F0A701BE0102C0AE01B7012C
:1045300082E697E00E944317CA18DB08D7FE04C042
:10454000C80DD91DC60CD71C8FEFE81AF80AE5CFA5
:10455000DF91CF911F910F91FF90EF90DF90CF905F
:10456000BF90AF909F908F907F906F905F904F9093
:104570000895FC018091C902811103C08FEF9FEF64
:1045800008959FB7F89482E08093E9002091F200AB
:1045900030E01216130614F421E030E02115310545
:1045A00059F0289884E68093C8028091F1008083B6
:1045B0008091F200882319F09FBFC90108958BE60E
:1045C0008093E800F9CF2FB7F89483E08093E90057
:1045D0009091E800892F807295FF04C09091F200BD
:1045E00080E4891B2FBF08958091710781110DC050
:1045F00082E080936D0784E080936E0710927007CD
:1046000010926F0781E0809371078DE697E008951F
:10461000CF93DF93CDB7DEB76C970FB6F894DEBFBC
:104620000FBECDBF789484B5826084BD84B58160AF
:1046300084BD85B5826085BD85B5816085BD80916D
:104640006E00816080936E001092810080918100E5
:1046500082608093810080918100816080938100DD
:1046600080918000816080938000809191008260C1
:10467000809391008091910081608093910080915E
:1046800090008160809390008091C100846080934D
:10469000C1008091C10082608093C1008091C100FF
:1046A00081608093C1008091C30081608093C300CA
:1046B0008091C00082608093C0008091C2008160C0
:1046C0008093C20080917A00846080937A00809108
:1046D0007A00826080937A0080917A008160809372
:1046E0007A0080917A00806880937A001092C902E3
:1046F00010929C0210929B028091D700816080935F
:10470000D70080EA8093D80089B5806189BD89B5DA
:10471000826089BD09B400FEFDCF61E070E080E0F9
:1047200090E00E94C81F8091D8008F7C80618093A8
:10473000D8008091E000807F8093E0008091E100CC
:104740008E7E8093E1008DE08093E200559A209A5E
:10475000EEEFFFE7859194918B3F9C4D19F481E03A
:1047600080939A0281EC80937C0085B1806F85B93B
:1047700084B1877E84B984B1876E84B95E9A5F986C
:104780008AB1806D8AB9769A6E9881B3806F81BB49
:10479000899880B38D7080BB80E58CBD81E08DBD34
:1047A00085E090E00E94F3165F9A85E090E00E9419
:1047B000F3165E985C98EEE8F8E08DE08E0F949129
:1047C0009EBD00000DB407FEFDCF31968E13F7CFCE
:1047D0005C9A81E880936400809165008160809399
:1047E00065000E94C0210E94F81687FF15C05C98E2
:1047F00085EA8EBD00000DB407FEFDCF5C9A2E98B1
:104800002F982D988091640080628093640081E0ED
:1048100083BF889513BEFCCF02E010E00E94F8161B
:1048200082FF40C02D980E94F81684788438C1F029
:104830000E94F8168471843181F52D9A88EC90E0FD
:104840000E94F3162E981A83098360E0CE01019628
:104850000E94771384EF91E00E94F3162E9A18C0FD
:104860002D9A88EC90E00E94F3162F981A83098302
:104870006FEFCE0101960E94771384EF91E00E94C2
:10488000F3162F9A0E94F81684788438D9F3D0CF83
:104890000E94F81684718431D9F388EC90E00E946C
:1048A000F316BCCF2D9A82E090E00E948A308823D4
:1048B00031F03E9A3F9A81E080939D0204C01092AD
:1048C0009D023E983F980E94B32180E18093690742
:1048D00080E00E943113109200011092010180E4E7
:1048E0008093020181E080930301AE014F5F5F4F2F
:1048F0005F874E878FB7F89440919E0250919F0238
:104900006091A0027091A1028FBF80916A07942FDD
:10491000981B892F90916B07992329F080936C073E
:1049200010926B07A0C790916907891748F48F5FB1
:10493000891708F098C781E083BF889513BE93C795
:1049400081E080936B0740936A078091650790919F
:1049500066070196909366078093650780916707C5
:10496000809368070E94F816809367070E94B3211E
:10497000E091AC028E2F90E08A30910508F0CEC411
:10498000FC01EA5AFF4F0C94233120E04BED5DE02F
:104990006EE070E08EE290E00E94E31680910001EC
:1049A00087FD44C08091020190E020910101821BAB
:1049B000910997FD019695958795B82EE12CF12CDC
:1049C00030E8C32ED12C40910001EB1440F5870153
:1049D000000F111F80910101B801680F711D603433
:1049E00071052CF420E080E090E00E940017809197
:1049F0000101B801680F711D6F5F7F4F8091000149
:104A00006034710544F420E0482FD601A81BB10999
:104A1000CD010E940017BFEFEB1AFB0AD4CF47FD70
:104A200005C080910301480F40930001809100016F
:104A300087FF74C498C710923E0710923F071092E8
:104A400040071092410710924207109243071092BC
:104A500044071092450720E030E04CE150E02093FD
:104A60004F0730935007409351075093520740E04F
:104A700050E060E370E04093530750935407609315
:104A800055077093560710925E0710925F0711E06A
:104A90001093570788EC90E090936107809360072C
:104AA00010925B0710925A0710925907109246070E
:104AB00080E490E0909348078093470780E890E077
:104AC00090934A078093490788E090E090934C07C1
:104AD00080934B0780E190E090934E0780934D07C1
:104AE0008FEF8093A6020E948C0D1092570782E0F0
:104AF0008093AC0280E8809305011092060180E467
:104B000080930701109308012090A70280913E072F
:104B100090913F07A0914007B09141079D01552713
:104B200037FD5095452F288B398B4A8B5B8B38E0AE
:104B3000239E1001112448895989240E351E309175
:104B4000A80240904207509043076090440770903D
:104B500045072301772457FC7094672C80904F07FA
:104B600090905007A0905107B09052074501BB2488
:104B700097FCB094AB2C8401C0905307D09054079D
:104B8000E0905507F09056073C8F0E94560EB201F8
:104B90006A5F7F4F20E049ED5AE0888999890E9439
:104BA000E3160E94D4190E940F190E94981751E130
:104BB000850E911C3C8D281439040CF0AFC367E0BE
:104BC000260E311C021513050CF0A8C378E0379FA0
:104BD000C0011124480E591E6701FF24D7FCF09430
:104BE000EF2CC601A8E0CA0ED11C4C145D040CF0D9
:104BF00095C3B8E04B0E511C841595050CF08EC37F
:104C00003AC681E08093A30283E080935807109214
:104C10005D0710925C0784E08093AC021092A202C0
:104C20008AE0809304014091A30226E0429FF001B4
:104C30001124EF5DFE4F208131818281082E000C0E
:104C4000990BAA0BBB0BDC019927882780933E07A1
:104C500090933F07A0934007B09341078381082EAC
:104C6000000C990BAA0BBB0BDC01992788278093BA
:104C7000420790934307A0934407B093450784816C
:104C8000082E000C990BAA0BBB0BDC019927882777
:104C900080934F0790935007A0935107B09352070A
:104CA0008581082E000C990BAA0BBB0BDC01992700
:104CB00088278093530790935407A0935507B09388
:104CC000560710925E0710925F0781E080935707A6
:104CD00088EC90E0909361078093600710925B07E7
:104CE00010925A071092590740934607832F90E07D
:104CF000AC0173E0440F551F7A95E1F750934807D4
:104D00004093470730E0A901E3E0440F551FEA95BF
:104D1000E1F750934A074093490790934C078093DB
:104D20004B0730934E0720934D078FEF8093A602D9
:104D30000E948C0D85E08093AC020E941D0FEEC294
:104D400081E00E945A1900E02FE140E860E170E044
:104D500080E090E00E94D02140E06DE070E08DE0C6
:104D600090E00E943B2240E06FE070E08FE090E036
:104D70000E943B2241E061E170E081E190E00E940D
:104D80003B2241E06DE270E08DE290E00E943B2228
:104D900040E06FE270E08FE290E00E943B2240E052
:104DA00061E370E081E390E00E943B2220E041E477
:104DB0005AE064E170E089E190E00E94E31684E249
:104DC000809339078093380783E280933A078AE318
:104DD0009AE00E941A2280915C0790915D07FE0183
:104DE00031962E852B5F6AE070E00E940F3181932F
:104DF000CB012E13F8CF8E010A5F1F4FD8014E91C1
:104E00008D0150E060E070E02AE084E397E00E94CA
:104E10005A1FEE85FF850E171F0781F788E00E9455
:104E20000F2281115BC584E00E940F22811156C5BB
:104E300075C28FEF80932F071092300710923107C1
:104E4000109232071092330780915C0790915D07B2
:104E50009D878C8700E010E0B12C1A8219826801CE
:104E6000FBEACF0ED11CBE016F5F7F4FC6010E94CF
:104E70009F2129813A818C859D852817390730F437
:104E80006FEBE62EF12C74E0A72E09C0B3940B5FF4
:104E90001F4F25E0B212E1CFBB24BA943EC0BA1432
:104EA00020F5AA94BE016F5F7F4F8A2D0E94F612F3
:104EB0006981C70103970E9488176A81C701029719
:104EC0000E9488176B81C70101970E9488178C8107
:104ED0009D8198878F83BE01695F7F4FC7010E94C4
:104EE000611735E0E31AF108DACF60E0C8018855B0
:104EF0009F4F0E94881760E0C80187559F4F0E940E
:104F0000881760E0C80186559F4F0E948817BE0130
:104F1000645F7F4FC6010E9461171FEFBE016F5F84
:104F20007F4F812F0E94F6121F5F1430B9F7B092A5
:104F30002F0789E08093AC0280E8809305011092EE
:104F4000060180E48093070181E08093080180E0FE
:104F50000E945A1900E020E442E560E070E087E139
:104F600090E00E94D02100E010E021E0A80168E17B
:104F700070E082E697E00E9443170F5F1F4F0034F6
:104F8000110599F700E010E021E0A80167E670E064
:104F900082E697E00E9443170F5F1F4F0034110510
:104FA00099F720E048EA59E066E070E08CE190E093
:104FB0000E94E31605E110E0912C56E0B52EAE8478
:104FC000AB0CBE01695F7F4F892D0E94F6122F81C5
:104FD0004EE958E0B80181E290E00E94E31628858E
:104FE0004EE958E0B80187E290E00E94E316298577
:104FF0004EE958E0B8018DE290E00E94E316AE85DC
:10500000BF85EB2D1D92EA95E9F78A859B859E0168
:105010002F5F3F4F6901F9016AE070E00E940F3194
:105020008193CB01AE12F8CF49E5E42EF12CD601E5
:105030002D916D012C5C4EE958E0B801C7010E942A
:10504000E316B5E0EB1AF108EBE3EE16F10479F79D
:105050009394085F1F4FF5E09F12B3CF10912F0775
:105060001F3F09F41BC18091AE028F5F8093AE0297
:105070008832E8F428E0129FB00111246C5E7F4F63
:1050800020E04BE958E08CE190E00E94E31660914B
:105090002F0738E0639FB00111246C5E7F4F20E042
:1050A0004BE958E081E690E00E94E31604C08135A8
:1050B00010F01092AE028091300760912F0781119D
:1050C0001EC048E0649FB00111246C5E7F4F01E078
:1050D00028E046E080E290E00E94D02160912F0716
:1050E00058E0659FB00111246B5E7F4F209131071E
:1050F0004EE958E081E290E00E9478160EC088E008
:10510000689FB00111246B5E7F4F209131074EE9FB
:1051100058E081E290E00E94E316809130076091B0
:105120002F078130F1F498E0699FB00111246C5E83
:105130007F4F01E028E046E086E290E00E94D02127
:1051400060912F07A8E06A9FB00111246B5E7F4F2A
:10515000209132074EE958E087E290E00E947816ED
:105160000EC0B8E06B9FB00111246B5E7F4F2091A1
:1051700032074EE958E087E290E00E94E316809102
:10518000300760912F078230F1F4E8E06E9FB001A4
:1051900011246C5E7F4F01E028E046E08CE290E055
:1051A0000E94D02160912F07F8E06F9FB001112479
:1051B0006B5E7F4F209133074EE958E08DE290E01F
:1051C0000E9478160EC028E0629FB00111246B5E29
:1051D0007F4F209133074EE958E08DE290E00E9426
:1051E000E3161091300780E80E940F22882359F0BF
:1051F000E12FF0E0E15DF84F8281833211F41282F9
:1052000002C08F5F828380E10E940F22882359F0C1
:10521000E12FF0E0E15DF84F8281811102C083E26D
:1052200001C08150828380E20E940F22882329F0EE
:10523000112319F011501093300780E40E940F22BF
:10524000882339F080913007823018F48F5F809383
:10525000300788E00E940F22882309F45FC0009184
:105260002F0735E0039F8001112460913107C801A9
:1052700088559F4F0E94881760913207C801875553
:105280009F4F0E94881760913307C80186559F4F32
:105290000E9488178FEF80932F0740C00E94F81656
:1052A00087FF1EC30E94F81684FD36C319C38D33D1
:1052B00009F027C31092AD0283E884BD17BD81EFCA
:1052C000809380001092880010928A0081E00E94F2
:1052D0003113809171008D7F809371001092CE0602
:1052E0008FE197E09093CD068093CC069093CB0608
:1052F0008093CA0687E194E09093200780931F076C
:1053000084E690E0909322078093210780E090E864
:1053100090932407809323070E949F130E94C0212B
:10532000F0905F078F2D0F2C000C990BAA0BBB0B75
:10533000DC01992788274C015D01BB0C8808982C5B
:1053400054019C01AD01682D782D882D982D00E128
:105350000E942931E22E032F142FB52FF62FE72FAD
:105360006C01A0E00E9460317CF421503109484F6B
:105370005F4F6F4F7F4F8F4F9F4FE22E032F142FA2
:10538000B52FF62FE72F6C012E2D302F412F5B2FDD
:105390006F2F7E2FC60103E10E94423149015A015D
:1053A00050915E075C8B852F550F990BAA0BBB0B99
:1053B000DC01992788272C013D01770C4408542CE7
:1053C00032019C01AD01642D742D842D942D00E1DA
:1053D0000E942931E22E032F142FB52FF62FE72F2D
:1053E0006C01A0E00E9460317CF421503109484FEB
:1053F0005F4F6F4F7F4F8F4F9F4FE22E032F142F22
:10540000B52FF62FE72F6C012E2D302F412F5B2F5C
:105410006F2F7E2FC60103E10E944231288B398B0A
:105420004A8B5B8BF7FE8DC0E0914607F0E0EE0FF4
:10543000FF1FE75EFE4F2080318040914F07509163
:105440005007609151077091520780913E079091EB
:105450003F07A0914007B0914107888F998FAA8F8D
:10546000BB8F409053075090540760905507709041
:105470005607C0904207D0904307E0904407F09051
:105480004507C301BB2797FDB095AB2F8701332795
:1054900017FD3095232FFC01E01BF10B9F012770B6
:1054A0003327232B09F063C2AB01772757FD709593
:1054B000672F888D998DAA8DBB8D8D01332717FDA0
:1054C0003095232F401B510B9A0143E036952795C9
:1054D0004A95E1F7398F288FCF0153E0969587954C
:1054E0005A95E1F7815020914D0730914E07829FE8
:1054F0008001839F100D1124F801388DE30FF11DF9
:10550000E20DF31D84910E94E71281119DC0888DE8
:105510008F5FF801E80FF11DE20DF31D84910E94E9
:10552000E712811191C0888D8E5FF801E80FF11D9F
:10553000E20DF31D84910E94E712882309F417C23B
:1055400083C01F140CF080C0E0914607F0E0EE0F1E
:10555000FF1FE75EFE4FC080D180E0904F07F090C4
:105560005007009151071091520740913E0750910A
:105570003F0760914007709141074090530750905A
:10558000540760905507709056078091420790919C
:105590004307A0914407B0914507888F998FAA8F40
:1055A000BB8FC30108968A1B9B0B9C012770332776
:1055B000232B09F036C2332717FD3095232FAB017B
:1055C000772757FD7095672F041B150BA3E01695E1
:1055D0000795AA95E1F7B3E096958795BA95E1F717
:1055E00020914D0730914E07829F7001839FF00CF0
:1055F0001124F701E00FF11DEC0DFD1D84910E94B7
:10560000E712811121C081E0800FF701E80FF11D41
:10561000EC0DFD1D84910E94E712811115C00E5FF3
:10562000F701E00FF11DEC0DFD1D84910E94E712C2
:10563000882309F4F6C108C010925307109254074A
:1056400010925507109256077C8977FF85C0E0912C
:105650004607F0E0EE0FFF1FE75EFE4F208131812D
:105660003D8B2C8B40904F07509050076090510716
:1056700070905207C0903E07D0903F07E0904007DF
:10568000F09041078301332717FD3095232FC70181
:10569000BB2797FDB095AB2F081B190B80905307C4
:1056A00090905407A0905507B0905607409142073C
:1056B000509143076091440770914507C801877076
:1056C0009927892B09F0A1C24501BB2497FCB0940E
:1056D000AB2CCB01BB2797FDB095AB2F5401A81A7B
:1056E000B90A450123E0969487942A95E1F7209022
:1056F0004D0730904E0733E0169507953A95E1F740
:10570000015010E0829CF001839CF00D1124E00F09
:10571000F11F4C895D89E40FF51F84910E94E71207
:105720008111A1C057E0A522BB24AB2809F46DC2AA
:1057300081E0880D829DF001839DF00D1124E00F22
:10574000F11F6C897D89E60FF71F84910E94E71293
:10575000882309F45AC287C05C8915160CF083C0EF
:10576000E0914607F0E0EE0FFF1FE75EFE4F60801E
:10577000718080904F0790905007A0905107B09093
:10578000520760913E0770913F07809140079091CA
:1057900041076C8B7D8B8E8B9F8B85010F5E1F4F1E
:1057A000081B190BC0905307D0905407E090550781
:1057B000F09056074091420750914307609144078B
:1057C00070914507C80187709927079709F098C21B
:1057D0006701FF24D7FCF094EF2CCB01BB2797FD8A
:1057E000B095AB2F7601E81AF90A6701A3E0D694C9
:1057F000C794AA95E1F740904D0750904E07B3E04B
:1058000016950795BA95E1F70F5F10E0C49CF0017B
:10581000C59CF00D1124E00FF11FE60DF71D8491DA
:105820000E94E71281111FC077E0E722FF24EF28D2
:1058300009F466C2C394C49CF001C59CF00D112408
:10584000E00FF11FE60DF71D84910E94E7128823F7
:1058500009F456C208C010924F07109250071092D8
:1058600051071092520780E090E0892B09F442C85A
:105870000E9400003FC8809164008E7F8093640086
:1058800080917A00806480937A0080917A0086FD0E
:10589000FCCF00917800109179000E94A31F20E0B6
:1058A00030E0980111270027600F711F821F931F9E
:1058B000611571058105910511F00E94813080917B
:1058C000640081608093640045EA50E066E271E024
:1058D0008BE092E00E947D2183E046C088E044C0D6
:1058E0008091AD02882369F083E884BD8FEF87BD86
:1058F00081EF809380001092880010928A001092AD
:10590000AD0288E00E940F22811122C084E00E9433
:105910000F2281111DC002CD8091AD028F5F809357
:10592000AD02853170F38D3308F0C1CC20E430E056
:10593000A901481B5109CA01880F93E894BD17BDFE
:1059400091EF909380001092880080938A00D9CFC5
:1059500083E884BD8FEF87BD81EF80938000109234
:10596000880010928A0081E08093AC02D7CCF7FEC9
:1059700046C0411451044CE1640671043CF4C8145F
:10598000D904EA04FB040CF086C06FC04114510432
:105990005CE16506710479F480914D0790914E07A2
:1059A000409709F062C080914B0790914C0708978F
:1059B00009F05BC05FC0D301C201880D991DAA1D0B
:1059C000BB1D813091056CE1A607B105E4F57CE1D2
:1059D000E70EF11CC418D508E608F708C818D9085E
:1059E000EA08FB08C0924207D0924307E0924407BE
:1059F000F092450780E090E0ACE1B0E024C0882759
:105A00009927DC0188199909AA09BB09841595050C
:105A1000A605B7050CF010CE480C591C6A1C7B1C5F
:105A20001BC0411451044CE1640671040CF057C0D2
:105A3000D301C201880D991DAA1DBB1D0097ECE181
:105A4000AE07B1058CF58093530790935407A0934C
:105A50005507B0935607F8CD40925307509254071C
:105A60006092550770925607EFCDC818D908EA081A
:105A7000FB08C2C0240135013CE1630E711C4C18C7
:105A80005D086E087F084092530750925407609259
:105A900055077092560710924207109243071092D2
:105AA000440710924507D0CD80914D0790914E0745
:105AB000409709F05DC080914B0790914C07089783
:105AC00009F056C020E030E04CE150E0209353074D
:105AD000309354074093550750935607B5CD411462
