:100000000C94A10D0C94C90D0C94C90D0C94C90D40
:100010000C94C90D0C94C90D0C94C90D0C94C90D08
:100020000C94C90D0C94C90D0C94341C0C94A61C92
:100030000C94C90D0C94C90D0C94C90D0C94C90DE8
:100040000C94C90D0C94C90D0C94C90D0C94C90DD8
:100050000C94C90D0C94C90D0C94C90D0C94481145
:100060000C94C90D0C94C90D0C94C90D0C94C90DB8
:100070000C94C90D0C94C90D0C94C90D0C94C90DA8
:100080000C9440120C94C90D0C94C90D0C94C90D1C
:100090000C94C90D0C94C90D0C94C90D0C94C90D88
:1000A0000C94C90D0C94C90D0C94C90D1E268C26F8
:1000B000AC2686279327AE27F52703280328542A42
:1000C000A62ABD2AC22A442B526F636B20416E645C
:1000D00020466C79005068617261707320526576B9
:1000E000656E676500467269656E646C7920496E5D
:1000F00076616465720054686520466F726573743A
:1001000000466C6F6174696E672049736C616E6440
:100110007300476F74205370696B65733F004174BF
:100120002054686520426561636800536869707790
:100130007265636B205261727200476F6C64656E0A
:100140002041726368657300556E64657267726FF3
:10015000756E6400466972737420437573746F6DB5
:1001600065727300D5F08D14A1C881CFD9F1AF208D
:10017000000108FF480BFFFFFF3030FFFFFF00FFCB
:10018000FFFF00F8FEFF0763E3E300FFFFFF3030EF
:10019000FFFFFF00000000000E1F3FF3E3C000F868
:1001A000FEFF07030300F8FEFF0303FFFEF800FF56
:1001B000FFFF73FFDF0E00FFFFFF3333333307070B
:1001C00007000007070700070707000103070706E6
:1001D00003070007070700000707070000000000EB
:1001E00007060607030100000307070606000003D1
:1001F00007060607030000070707000707070007B1
:100200000707060606061818004000001038100000
:10021000028040B088F474F408F082878290000075
:100220000000FC02AAFAFA0253FCFCFFFFAA0192AA
:10023000B692B692B600FF0000001F20222F2F209A
:1002400025222523252220242524252425100F00BE
:10025000616C6C206C6576656C732100596F75203C
:10026000636F6D706C6574656400000000000000D1
:10027000000000000000000000000000000000007E
:10028000000000000000000000000000000000E886
:10029000FCFFFFFF7E2E00000000000000000000B9
:1002A000000000000000000000808080E0E0E080AE
:1002B00080808000000000000000000000000000BE
:1002C0000000747EFFFFFF3F3F7F7FFFFFFF3F1770
:1002D000000000000000000000000080808000009E
:1002E000A0F0FCFCFCF8B80000808080000000005A
:1002F00000000000747EFFFFFF3F1703030707079E
:100300000100747EFFFFFF3F1700000000000000A7
:10031000808080000000D0F8FEFEFEFC5C00000043
:10032000808080000000000000747EFFFFFF3F1708
:10033000000101030303000000747EFFFFFF3F176D
:10034000000000008080800000000000E8FCFFFF4B
:10035000FF7E2E00000000008080800000747EFF81
:10036000FFFF3F1700000000000101010000000036
:1003700000747EFFFFFF3F171B100000000000000D
:10038000000000000000000000000000000000006D
:10039000000000000000000000000000000000005D
:1003A0004854FE542400000000000000000000003B
:1003B00000000000000000000000000080C08080FD
:1003C000000000000000000000000000000000002D
:1003D0000000242A7F2A110A1F0A242A7F2A1200D9
:1003E000000000000000000000000000000000000D
:1003F000002050F8509000000000000000000000B5
:100400000000000000242A7F2A12000001010301DD
:10041000000000242A7F2A120000000000000000D3
:100420000000000000000090A8FCA84800000000A8
:1004300000000000000000000000242A7F2A1200B3
:1004400000000000010000000000242A7F2A1200A2
:10045000000000000000000000000000004854FE02
:100460005424000000000000000000000000242AC6
:100470007F2A1200000000000000000000000000C1
:100480000000242A7F2A1200080818247E42467C95
:10049000020418247E62667C020418247E72767C34
:1004A000020418247E7E7E7C0204540148013A0135
:1004B0002B011E0112010101F600E500D500C80064
:1004C00003051F111F001F001D151711151F07041D
:1004D0001F17151D1F151D01011F1F151F17151FA4
:1004E000080800000000000000000D9F2D970D9FE0
:1004F0002D97404040404040404028040448480474
:10050000042840404F09ED094F400502050205024D
:100510000502A54299B5A59942A5BD18814A528107
:1005200018BD5A8739D6D639875A825A9A42985A6C
:100530009A58405040604050406018247E426A7C87
:100540000204EEDD9D71EFDE9D7BFA3F001FFA1F76
:10055000003F5FFC00F85FF800FC817E006A6400E9
:100560007E81000055AA55000000817E00562600BD
:100570007E81802AFAFA0202020202FAFAFAFAFAF2
:100580000202020202FAFAFAFAFA0202020202FA7B
:10059000FAFAFAFA000000E0F8F8FC9C1C1C1C387F
:1005A000000000FCFCFCFC1C1C1CFCFCF8F0000027
:1005B000C0FCFC7CFCFCC000000080E0F0F8783C53
:1005C0001C1C1C3C0000FCFCFCFC1C1C1C1C1C1C03
:1005D000000000FAFAFAFAFA0202020202FAFAFA41
:1005E000FAFA0202020202FAFAFAFAFA0202020223
:1005F00002FAFAFAE0E01F1F1F1F1FE0E0E0E0E050
:100600001F1F1F1F1FE0E0E0E0E01F1F1F1F1FE074
:10061000E0E0E0E0000000808103070F9EFEFCF8B0
:10062000F00000FFFFFFFF0E0E0F0F070701E0FCB9
:10063000FFFFEFE0EFFFFFFEE0003FFFFFFFC080A6
:10064000000000800000FFFFFFFF0E0E0E0E0E0EDA
:10065000000000E0E0E0E0E01F1F1F1F1FE0E0E0FF
:10066000E0E01F1F1F1F1FE0E0E0E0E01F1F1F1F53
:100670001FE0E0E00B0B08080808080B0B0B0B0B46
:1006800008080808080B0B0B0B0B08080808080BD8
:100690000B0B0B0B004020432747A747A747A3415D
:1006A000008040A747A7070000000000002647A7DA
:1006B00047014000400147A7472600004123472744
:1006C000472747274000072747A747A74727472728
:1006D0004000000B0B0B0B0B08080808080B0B0B5A
:1006E0000B0B08080808080B0B0B0B0B0808080875
:1006F000080B0B0B000000000000000000000000D1
:1007000000000000000000000000000000000000E9
:1007100000040A050A050805080500000000040A8F
:10072000050AE5FAFDFE1E0F0707070F000000028D
:10073000F0FFFF1FFFFFF082000000FFFFFFFF87B9
:10074000C7FFFF7E3C00040800000102050A0508FF
:100750000508050804080408000000000000000067
:100760000000000000000000000000000000000089
:100770000000000000000000000000000000000079
:100780000000000000000000000000000000000069
:100790000000000000000000000000000000000059
:1007A00000000F3565DFB060404040E00080780F0A
:1007B000854F2B282B4F850F788000FF05057F4341
:1007C00043651F86E63C00000000000000000000BA
:1007D0000000000000000000000000000000000019
:1007E0000000000000000000000000000000000009
:1007F00000000000000000000000000000000000F9
:1008000000000000000000000000000000000000E8
:1008100000000000000000000000000000000000D8
:1008200000000000000001010101010100010101BF
:1008300001000000000001010101000101010101AE
:1008400001010100000000000000000000000000A5
:100850000000000000000000000000000000000098
:100860000000000000000000000000000000000088
:1008700000000000461E000828A8A28E3EFEFEFED4
:10088000F8C00000FEFEFEFEFEAE16EE30FA6C78FA
:1008900078786CFA30E00000000000000C70C03C7A
:1008A00000C020C000F020C020C000E020C000D068
:1008B00000E04000E800C0200060A0000000000050
:1008C000020A2A28A38F1F7FFEF0FFFFFFFFFFFE13
:1008D00005C0E0F0F9198C291D18FA3C8F23080295
:1008E0000000006091E000F021E100E1A0F90001CA
:1008F00000030100000100010000010000010001EF
:100900000100000000000000000000020A28A1878A
:100910001F7FFFFF7F0100C7CFCF8F8C8AC87880F1
:10092000A00000000000000000F84808A800F8003F
:10093000E0408040800080408010F8108040C0007F
:1009400000000000000000000000000000000000A7
:100950000000000000020A08010300000607030B64
:10096000010500020000000000000000000000037C
:100970000000030003000300030003000102010064
:10098000030001020200000000000000000049070F
:10099000FA00E006FA007D06FA00E006FA00000020
:1009A000FA00AA08FA002D08FA000000FA00E00692
:1009B000FA004907FA000000FA00B909FA002D0907
:1009C000FA000000F4017D06F4010000FA00E006E0
:1009D000FA000080BA02A600E006A6007003A60096
:1009E0000000A600BA02A6000000A6007505A60039
:1009F0003F03A6009704A6000000A6002705A60056
:100A00003F03A6002006A600BA02A600C805A6005D
:100A10007D06A600008053434F52453A004B0D001F
:100A2000F0FCFE0EC6C6C6000080F8FE0EFEF88082
:100A30000000FEFEFE7CE07CFEFEFE00FEFEFE668A
:100A40006666660000000000F0FCFE0606FEFCF094
:100A5000023EFEF800F8FE3E0200FEFEFE666666FE
:100A60006600FEFEFEE6FEBE1C000003070F0E0C35
:100A7000070F000C0F0F0303030F0F0C000F0F0FD6
:100A80000003000F0F0F000F0F0F0C0C0C0C0000D9
:100A900000000001070F0C0C0F07010000030F0FEF
:100AA0000F010000000F0F0F0C0C0C0C000F0F0FAC
:100AB000000F0F0E000808FFFFFFFFFFFFFFFF0002
:100AC000010000EC006100B500B5006100EC000021
:100AD0000000019FFFEC004BFFB50014FF61000018
:100AE000FF000014FF9FFF4BFF4BFF9FFF14FF0011
:100AF0000000FF610014FFB5004BFFEC009FFF04F6
:100B0000083E09093E3F25251A1E2121123F2121B9
:100B10001E3F2525213F0505011E21293A3F0404DA
:100B20003F213F21001021211F3F040A313F202097
:100B3000203F02023F3F02043F1E21211E3F0909C0
:100B4000061E21112E3F09093622252519013F01D4
:100B5000011F20201F0F10201F3F10103F3B0404D7
:100B60003B03043807312D2321102A2A3C3F24243B
:100B7000181C2222141824243F1C2A2A2C043E0567
:100B8000014C52523E3F040438243D200040404472
:100B90003D3F081422213F20003E04043E3E040253
:100BA0003C1C22221C7E22221C1C22227E3E04028D
:100BB00004242A2A12021F22201E20201E0E10208A
:100BC0001E3E10103E360808364E50503E322A2641
:100BD000221E29251E223F200032292926122125E6
:100BE0001A0C0A3F08172525191E25251801390555
:100BF000031A25251A0629291E002F0000002000AF
:100C0000000229050200040400010204081020402B
:100C100080060D0B051B0D1D070103020D070D1AA4
:100C20000D1F0D0103020D19071B0D040A06091003
:100C30000A1E050107120410081C03010302020921
:100C4000091A031A0C040B0C071005100B010C10E9
:100C5000081B081F0D040302090C0D1903180A1EB6
:100C60000D00070D04210703060C06050D0C051ADF
:100C70000D1C070003010D060D1B0D200D020301C5
:100C80000D1A071C0D030A0709110A1D050007119B
:100C9000040F081D030203010208091903190C03BC
:100CA0000B0B070F050F0B000C0F081A081E0D0386
:100CB0000301090B0D1803170A1D0D01070E04206F
:100CC0000704060B0674FEFCFEFFFFFFFFFFFEFCA1
:100CD000FCFCFCF8F06000000207070702000000BF
:100CE0000000020707070260F0F8FCFCFCFCFEFFB6
:100CF000FFFFFFFFFEFCFE74020707070200000073
:100D000000000207070702000074FEFCFEFFFFFF61
:100D1000FFFFFEFCFCFCFCF8F06060F0F8FCFCFC63
:100D2000FCFEFFFFFFFFFFFEFCFE740000000ECE86
:100D3000FEF8F8F8F8F8F8F8F0F0E7E7E7FCFC7CE4
:100D4000707000000000000E0EEEE1EF0F7F7F7F5D
:100D50000F0F0F1F1F1F1FDFDFDF1F1E1C000000F4
:100D60000000000000000000000000000000000083
:100D70000000010101000000000000000000000070
:100D800070707CFCFCE7E7E7F0F0F8F8F8F8F8F8AA
:100D9000F8FECE0E000000000000001C1E1FDFDF6A
:100DA000DF1F1F1F1F0F0F0F7F7F7F0FEFE1EE0E63
:100DB0000E00000000000000000101010000000022
:100DC000000000000000000000000000000000071C
:100DD000E7F7FCFCFCFCF8F8F8E0E7F7FFFCFCA008
:100DE0000E8EBEF8F8E0000000EEEEEF8F8F7F7FF2
:100DF000FFEFEF0F07071D1F1FFFF8FC1F3F3F3CD2
:100E000000000000000003030300000000000000D9
:100E100000000000010101000000000000000000CF
:100E2000E0F8F8BE8E0EA0FCFCFFF7E7E0F8F8F85B
:100E3000FCFCFCFCF7E70700000000003C3F3F1F04
:100E4000FCF8FF1F1F1D07070FEFEFFF7F7F8F8F3E
:100E5000EFEEEE00000000000000000101010000C4
:100E60000000000000000000000303030000000079
:100E700000E0F8F8BE8E8EE0FCFCFFC7F770F0D003
:100E8000F0F83CFEFEF7E3031C1C000000787F7FB7
:100E90003FF1F1C70E0F0F7F76778F8FEFEEEE8E5B
:100EA00080EEEEEE000000000000000001010100F5
:100EB0000000000000030303000003030300000020
:100EC0000000E0E7E70700000E0E0E07070700002E
:100ED000000E0E0E00707077071F1C003838380E99
:100EE000CECEC000000080808000000080808000A6
:100EF0000000EEEEEE000000000000010101000025
:100F000000030303000000030303030303000000C6
:100F100000110B0074186C1EDE1272767C186818B3
:100F2000D810600000000002030200000000000072
:100F30000002030200006010D81868187C76721254
:100F4000DE1E6C18740000020302000000000000A6
:100F50000002030200000011080074186C1E5E12EB
:100F600072767C1868185810600000601058186875
:100F7000187C7672125E1E6C1874001B1200000042
:100F8000000480C070F0F090002060C080A2E0A05B
:100F900008002000000000000000040040000400E1
:100FA000260004000707000E020C820A020C000053
:100FB0000000000000000000000000000000000031
:100FC0000000000000000000000000000000000021
:100FD000000000200008A0E0A280C060200090F087
:100FE000F070C080040000000000000000000C024F
:100FF0000A820C020E0007070004002600040040CD
:1010000000040000000000000000000000000000DC
:101010000000000000000000000000000000001BB5
:1010200012000000024060387800F090002060C29A
:1010300080A8E0A000040010400000000000440070
:1010400000000420064004000707000E0200980478
:10105000140518000000000000000001000000005E
:101060000000000000000000000000000000000080
:1010700000000000004010000400A0E0A880C26052
:10108000200090F00078386040020000000000006E
:1010900000180514049800020E000707000440061B
:1010A00020040000004400000000000000000000D8
:1010B000000000000000000000000000000001002F
:1010C0000000001B120800000140600C1800B090E6
:1010D00000200082002860A00004001040000000F2
:1010E0000000440000000440060004002206000640
:1010F0000200802000093000000000000000000114
:1011000000000000010000000000000000000000DE
:101110000000000000001B12080002002000000078
:101120000400000000000200000400000000024073
:10113000000000000044000000000000000000006B
:10114000000000000000008004000010000000000B
:10115000000000020000010000000000010000008B
:10116000000000000000000000240F00F8FCFEFE5C
:10117000FEFE1EEEEE1EFE1EFEFE1EFE3EDEDEBE6F
:10118000FE0EBEBE7EFEFE0EFEFEFEFEFCF8000063
:1011900003070F0F3F1F0E0D0F0E0F0E0D0D0E0F3D
:1011A0000E0D0D0E0F0C0F0F0C0F0F0D0F0F0F0F5D
:1011B00007030004083E09093E3F25251A1E212188
:1011C000123F21211E3F2525213F0505011E212912
:1011D0003A3F04043F213F21001021211F3F040A10
:1011E000313F2020203F02023F3F02043F1E2121C9
:1011F0001E3F0909061E21112E3F09093622252509
:1012000019013F01011F20201F0F10201F3F101048
:101210003F3B04043B03043807312D2321102A2AC5
:101220003C3F2424181C2222141824243F1C2A2A60
:101230002C043E05014C52523E3F040438243D200C
:10124000004040443D3F081422213F20003E04045A
:101250003E3E04023C1C22221C7E22221C1C222216
:101260007E3E040204242A2A12021F22201E20206D
:101270001E0E10201E3E10103E360808364E5050EE
:101280003E322A26221E29251E223F2000322929ED
:10129000261221251A0C0A3F08172525191E252577
:1012A00018013905031A25251A0629291E002F00C1
:1012B00000002000000229050200040400240F00A1
:1012C000F8FCFE1EEE6E5EFE3EDEDE3EFEFEDE0E36
:1012D000DEFE3EDEDE3EFEFEFEFEFEFEFEFE0EFEFE
:1012E000FCF8000003070F0E3D1D0C0F0E0D0D0E38
:1012F0000F0F0F0E0D0F0E0D0D0E0F0F0F0F0F0F07
:101300000F0F0D0F070300F8FCFEFFFFFFFFFFFFAD
:10131000FFFFFFFFFFFFFFFFFFFFFFFFFFFFFFFFDD
:10132000FFFFFFFFFFFFFFFFFEFCF803070F1F3F5C
:101330007F3F1F1F1F1F1F1F1F1F1F1F1F1F1F1F3D
:101340001F1F1F1F1F1F1F1F1F1F1F1F0F070324EC
:101350000F00F8FCDE0EDEFE3EDEDE3EFEFEFE1E72
:10136000EE6E5EFEFE5E5E3EFEDE0EDEFEFE3E5E6D
:101370005E3EFCF8000003070F0E3D1F0E0D0D0E24
:101380000F0F0F0E0D0D0C0F0E0D0D0C0F0F0E0D80
:101390000D0F0E0D0D0D0703000002070E070200D2
:1013A000000002070E070200000000000207020012
:1013B000000000000207020000000011040000020B
:1013C000040200000000000204020000000000000F
:1013D0000002000000000000000200000000000009
:1013E000000002070E070200000002070E070200BD
:1013F00000000000020702000000000002070200D7
:1014000000110400000000020402000000000002BD
:1014100004020000000000000002000000000000C4
:101420000002000000080B00020202010009040093
:101430000001020200000524001001052401010141
:10144000042402060524060001070581031000405C
:1014500009040100020A0000000705020240000022
:10146000070583024000000403090412010002EF93
:1014700002014041233680000101020301417264F0
:1014800075696E6F204C4C430041726475696E6FD4
:10149000204C656F6E6172646F008F8E5483D481AF
:1014A00009813A820482D10F8C04820F0B8204825C
:1014B00005A10F0B8204A181A10341A30F02A18208
:1014C000048303140F02830483038409A541A283C8
:1014D000A10482A102D403A1051884058209810513
:1014E0008C0582098105D7850582610881A10C845C
:1014F00005826121B12105820C84A4418264A58208
:10150000A741A38F8F87006F556E0F0F0F0F08A194
:1015100041A6078506A6B1A117810681058105812F
:101520001787068102C101C102810588055106F1B4
:1015300001C201C20181055104830551068101C226
:1015400001C20181055105820551068102C101C117
:101550000281055105820485048105810484048289
:101560000481088101810181018107810482048154
:10157000088101810181018107810482048108873A
:1015800007810482A141A28121412F23412181A20F
:1015900041A18F8F85006F536F620F076C0F086B2F
:1015A000412505C105C10B6B06C103C10E63D605FC
:1015B000C70E620AC201C301C20D6209CB044124F5
:1015C000036221B12106C101C701C104650365039E
:1015D0006102C101C105C101C10461D40362D30329
:1015E0006105C201C20761076206610F01620762FD
:1015F00006620D640762214124632B652141256F3A
:101600006F650069546F660F0F01A10F0F02A18172
:1016100007A109A10E1181A205110981A10E811254
:101620000581A207811109A4418105A2811205A2A9
:1016300081A3071581051281071281130C8107818F
:1016400009810F81A2058141A302A3810CA1B1A14F
:10165000811201A341811402138141A40713810364
:1016600014810981150A81078109810F8102A581F1
:10167000A981AF81A26F6F640061546F6F04610F25
:101680000DD104D10F0F0F07A441A30EC12541C1F5
:1016900004180DCA04860F0E8404A141A30F0E1571
:1016A00006A541A40D84078A0D83098806A1B1A26D
:1016B000048101810A8104810714048131813A8106
:1016C00034813784348101810A8104810781028158
:1016D0000481E181EA81E481E781E281E4006F54E1
:1016E0006F610862D3610461DA65096103D104D1D5
:1016F0000AD164412404610F056904620F0464097E
:101700006309630664096437660563086F640463EC
:101710000367D96804630F056605630F0F640EB194
:101720000E65E96A096F6BE76F6F6A006F546F0FA0
:101730000F052141230F0EC50F25412108C30F01BD
:1017400082650F0CD2816409210F04D18163098164
:10175000210F0482620A81210F0381D1820B812330
:101760004125098101D20C8909810F8106810182FD
:1017700007810D22812681238124B12181214123EA
:101780000434CFCB34E4CFCBE4008F8F53810F0FE1
:101790000F0F09240F0F6409810F0F0381214122CC
:1017A0000F0E850522B1210F23412181D405640F3D
:1017B000860F0DD5810F0F03810F048123412981ED
:1017C00021412A810631819C819B8137028F8908C2
:1017D000E38F87E9006F546901C101C101610F0DF9
:1017E000C101C101C10F0EC101C101C10CB10FC1C5
:1017F00005C102C101C105630D21C125C101C1019E
:10180000C101C10F056801C101C101C10F0DC105B1
:10181000C10F0CC125C121072141220721412668A2
:10182000076407680F0F03610F0F03612141260F43
:101830000A69AFA3254121691F1368006F536F61C7
:101840000F0F0F0F08A441AA03A741A203A31F0370
:101850001A33138F038F820451038505860882048F
:10186000510483F10F0482045104840DA20482A167
:1018700041A28105820E820487A10BA103A241A28D
:101880008204880B81038704880B8101B1018704DE
:1018900088A541A5816387A141A28F85638C006FD4
:1018A000536F610F0F0F0F0F0F0F0A41260F0C77A9
:1018B0000F0E6171610F0141250A710B25417608F8
:1018C000F1017101B1097601617161096371630A06
:1018D0006171610132713D713E713202710D710EA3
:1018E0007104710D710E7104710D710E7102E2714E
:1018F000ED71EE71E2005F510F0F0F0F0F0841A85D
:101900004103338A33008008FF0301B1A9FDA969AF
:1019100001A1010101010101010101010101010117
:1019200001010101010101010101010101010101A7
:1019300083EF83013149FD85D5F9050901A1010135
:101940000101010101010101010101010101010187
:101950000183EF830101D161B179C9C9D161A1616D
:10196000C101A101010101010101010183EF830115
:101970000111C93DC90501A10101010101010101D7
:1019800001010101010103FF1008000000001C2DEE
:10199000C80000000206090000220FADFFFFFF385B
:1019A0001CC8000006030E120000220F9DFF00005D
:1019B0003815C8000010060F11F401220F0000C8EE
:1019C000FF1825C800040C040F120000220F95FF19
:1019D000C8FF381DC800040A041E200000220FDCC6
:1019E000FFD7FF381CC800030C040F120000220FA1
:1019F000000000001D15C8000010010F1200002299
:101A00000FD9FFDFFF381CC80004050401040000E3
:101A1000220F70FFC8FF3B2DC800051004090C0001
:101A200000220FC6FFFFFF381CC8000405040F1179
:101A30000000220FB5FF0000380DC8000106050F99
:101A4000110000220F74FFE7FF381CC800051004C6
:101A50001D2000000505050505050505000707070C
:101A6000077F7F7F0000000000FFFFFF00F0F0F025
:101A7000F0FFFFFFF0F0F0F0F0F0F0F0FFFFFFF00C
:101A8000F0F0F000FFFFFF00000000007F7F7F0705
:101A9000070707000808000101010101010000001B
:101AA00000010101011F000000000000007E000095
:101AB00000404040407C00404040404040007C406E
:101AC0004040400000007E000000000000001F01B8
:101AD00001010100000040EC7E7FFE6800000C7EEA
:101AE000FF7E0000070800402C1E68000000000C6C
:101AF0007E0000000068FE7F7EEC4000007EFF7EDE
:101B00000C0007080000681E2C40000000007E0C3E
:101B10000000087CFE7FFE6702087CFE7FFE6E04EC
:101B200007080008641E6402000008641E640400C4
:101B3000E0F0E0E0F0E0E007084020404060404096
:101B4000F43311241FBECFEFDAE0DEBFCDBF11E0CA
:101B5000A0E0B1E0E4E6FDE602C005900D92AE38EB
:101B6000B107D9F728E0AEE8B1E001C01D92A83076
:101B7000B207E1F71DE0C1EADDE004C02197FE01F4
:101B80000E946236C03AD107C9F70E9469240C94BA
:101B9000B0360C940000CF92DF92EF92FF920F9339
:101BA0001F93CF93DF936C017A018B01C0E0D0E0EB
:101BB000CE15DF0589F0D8016D918D01D601ED912B
:101BC000FC910190F081E02DC6010995892B11F45B
:101BD0007E0102C02196ECCFC701DF91CF911F910A
:101BE0000F91FF90EF90DF90CF9008953FB7F8945A
:101BF0008091A7019091A801A091A901B091AA019B
:101C000026B5A89B05C02F3F19F00196A11DB11D57
:101C10003FBFBA2FA92F982F8827820F911DA11D92
:101C2000B11DBC01CD0142E0660F771F881F991FCF
:101C30004A95D1F708958091BB05E091B905F091DF
:101C4000BA05882349F0CF0102969093BA05809394
:101C5000B905859194910895CF0102969093BA05A4
:101C60008093B9058081918108956F927F928F92C0
:101C70009F92AF92BF92CF92DF92EF92FF920F931B
:101C80001F93CF93DF9300D000D0CDB7DEB73A01DA
:101C90004115510509F401C2FA01F49031965491AD
:101CA000F2E06F0E711CAF2CB12C211102C0EE209E
:101CB00069F1A52FA695A695A695B0E0E1E0F0E024
:101CC000352F377011F4E0E0F0E0AE0FBF1FAA9E91
:101CD000F001AB9EF00DBA9EF00D1124A3E08A2E08
:101CE000C81003C0EE0FFF1F0AC00115110539F01F
:101CF000EE9ED001EF9EB00D11240A0F1B1F2E9FE8
:101D0000D0012F9FB00D11246A0E7B1E2FEFC2123F
:101D100008C00115110519F0CC24C39402C032E0AB
:101D2000C32EDC01AA0DBB1D1A161B060CF0B5C193
:101D3000803891050CF0B1C19B01250F311D1216A1
:101D400013060CF0AAC1603471050CF0A6C1611431
:101D5000710409F4A2C1362F3770932EFB0177FD71
:101D6000379623E0F595E7952A95E1F72E2F77FF33
:101D700004C0992011F02FEF2E0F97FF05C0EE271A
:101D8000FF27E81BF90B02C0E0E0F0E0A038B10546
:101D90001CF030E8381B01C03F2D3E1B622F022E85
:101DA000000C770B2F3F1CF4462F409501C040E0FC
:101DB000B1E0A52FA77009F4B0E056955695569559
:101DC000DB2ED50E6D0D711D693071051CF058E0CC
:101DD000D52ED21AD41A240FDC0150E82503A00D09
:101DE000B11D1124AE0FBF1F4F9DE00DF11D112439
:101DF000A3014E0F5F1F81E090E07C01092C02C01F
:101E0000EE0CFF1C0A94E2F783E0C81609F404C143
:101E10008C15A8F091E0C91609F4B5C0E2E0CE1225
:101E20003CC18FEF8E9DB0018F9D700D1124609588
:101E300070957C836B837C806D2C620E2BC0FAEFD7
:101E4000CF1631F09BEF892EC81027C1D20E87C064
:101E5000D20E51C0FA01E00FF11FE491EE9D600136
:101E6000EF9DD00C1124DA82C98227FD07C0FC0146
:101E7000D080ED2DE623CE2AFC01C082911013C044
:101E80000F5F1F4F0196031728F32F5F4A0D5B1D4D
:101E9000A058BF4F261509F400C1CD0185559E4FAE
:101EA00000E010E0F0CF27305CF7FC01E058FF4F76
:101EB000C080C7208A80C828C082E2CFFA01E60F1E
:101EC000F71FE491EE9D8001EF9D100D11241A8300
:101ED000098327FD04C0FC011081012B00839110B0
:101EE00013C06F5F7F4F0196631740F32F5F4A0D5A
:101EF0005B1DA058BF4F2D1509F4CFC0CD018555EE
:101F00009E4F60E070E0F0CF27305CF78C01005806
:101F10001F4FF801C080FA81CF2AF801C082E1CFBB
:101F2000FA01E00FF11FE491EE9DC001EF9D900DCD
:101F300011249A83898327FD05C08095FB01908138
:101F400089238083911014C00F5F1F4F6F5F7F4FF5
:101F5000031730F32F5F4A0D5B1DA058BF4F2D159F
:101F600009F49BC0BD0165557E4F00E010E0F0CF45
:101F7000273054F7FB01E058FF4F8A81809590810C
:101F800089238083E1CF0E0F1F1F8D2C820E281511
:101F900009F483C0CD0185559E4F6C0160E070E06F
:101FA000631790F5F801E60FF71FE491EE9DC0016D
:101FB000EF9D900D1124809590959C838B83FA0161
:101FC000E60FF71FE491EE9D3001EF9D700C112498
:101FD0007A82698227FD05C0F60190818923682AEB
:101FE0006082992059F027304CF4F601E058FF4FF9
:101FF00090818C8189239A81892B80836F5F7F4FA9
:10200000FFEFCF1ADF0ACCCF2F5F4A0D5B1D0A0D01
:102010001B1DA058BF4FBBCF832F90E0E40FF51FCF
:10202000A555BE4F60E870E0681B790BA81AB90A85
:102030008501000F111F5D2D832ECF93DF93ED01DE
:10204000EF96EF962296A590C590992059F0AE9CF8
:102050005001CE9C600127302CF4F880D094FD20F4
:10206000FB28F99222233AF0FC90C094FC20FA2835
:10207000FD920C943C1011963A9529F75A9551F01F
:10208000382D23951124E00FF11DA60FB11DC60FA9
:10209000D11DD9CFDF91CF9111240F900F900F90C8
:1020A0000F90DF91CF911F910F91FF90EF90DF90F4
:1020B000CF90BF90AF909F908F907F906F9008953A
:1020C00080918E0108950895089580E090E008952C
:1020D0000E94AB36CF93DF9300D000D0CDB7DEB7F0
:1020E000611571058105910579F09B01AC0169834A
:1020F0003A834B835C830E949E3529813A814B81D0
:102100005C810E94CB3503C060E070E0CB010F9092
:102110000F900F900F90DF91CF9108954F925F92A3
:102120006F927F92EF92FF920F931F93CF93DF9363
:10213000CDB7DEB7A1970FB6F894DEBF0FBECDBF07
:102140007C01FA01CB0119A2223008F42AE08E01A9
:102150000F5D1F4F422E512C612C712CBF01A3012A
:1021600092010E94FD35F901CA01015011096A303E
:1021700014F4605D01C0695CD8016C93232B242B9F
:10218000252B61F70115110591F0F8010190002050
:10219000E9F73197AF01401B510BD701ED91FC914D
:1021A0000280F381E02DB801C701099502C080E0EB
:1021B00090E0A1960FB6F894DEBF0FBECDBFDF91C1
:1021C000CF911F910F91FF90EF907F906F905F9054
:1021D0004F900895EF92FF920F931F93CF93DF9349
:1021E0008C017B01C0E0D0E0F701EC0FFD1F649192
:1021F000662361F0D801ED91FC910190F081E02D12
:10220000C8010995892B11F02196EECFCE01DF91FF
:10221000CF911F910F91FF90EF9008958F929F9211
:10222000AF92BF92CF92DF92EF92FF926B017C014F
:102230000E94F60D4B015C01C114D104E104F104CC
:10224000F1F00E94F60DDC01CB0188199909AA0969
:10225000BB09883E9340A105B10570F321E0C21A85
:10226000D108E108F10888EE880E83E0981EA11CD1
:10227000B11CC114D104E104F10419F7DDCFFF90C2
:10228000EF90DF90CF90BF90AF909F908F90089588
:102290001F920F920FB60F9211242F933F938F939B
:1022A0009F93AF93BF9380918F0190919001A091E4
:1022B0009101B09192013091A60123E0230F2D37B7
:1022C00020F40196A11DB11D05C026E8230F02963A
:1022D000A11DB11D2093A60180938F0190939001C1
:1022E000A0939101B09392018091A7019091A801D0
:1022F000A091A901B091AA010196A11DB11D8093E1
:10230000A7019093A801A093A901B093AA01BF913E
:10231000AF919F918F913F912F910F900FBE0F9092
:102320001F901895CF92DF92EF92FF920F931F9319
:10233000CF93DF930E941B0E811520E8920761F472
:10234000809171008D7F809371001092910046986A
:10235000479810929F018BC021E020939F0181300C
:1023600020E8920751F48091B7059091B8059093B9
:10237000BA058093B9050E941B0E97FD05C02091F8
:102380009E01222309F43FC020919D0121113BC0F1
:1023900021E02093A001EC01DF77209769F481E030
:1023A0008093A10146983FE9C32E3FE0D32EE12C54
:1023B000F12CCAEFD0E014C08E0120E030E060E4E0
:1023C00072E48FE090E0A90198010E94CB35690189
:1023D0007A0181E0C81AD108E108F1081092A10140
:1023E000E091CC05F091CD050995811103C081E004
:1023F0008093A1018091A0018823B9F18091A1016E
:10240000811133C003C01092A001C5CF46992DC0E1
:10241000479A0E941B0E009771F09C01DE010E94FA
:102420001F36DC01CB0129E0B595A79597958795D7
:102430002A95D1F703C08FEF9FEFDC011092900037
:102440002AE020939100D0929900C0929800809346
:10245000A2019093A301A093A401B093A501809140
:10246000710082608093710002C04798D2CFDF91E3
:10247000CF911F910F91FF90EF90DF90CF90089533
:102480001F920F920FB60F9211242F933F934F93E9
:102490005F936F937F938F939F93AF93BF93EF93CC
:1024A000FF938091A2019091A301A091A401B0910A
:1024B000A501892B8A2B8B2B81F18091A1018111A0
:1024C0000BC098B180E4892788B98091A001882346
:1024D00019F088B1805888B98091A2019091A30128
:1024E000A091A401B091A501181619061A061B06A1
:1024F000B4F48091A2019091A301A091A401B091A4
:10250000A5010197A109B1098093A2019093A301AC
:10251000A093A401B093A50102C00E949211FF9163
:10252000EF91BF91AF919F918F917F916F915F914B
:102530004F913F912F910F900FBE0F901F901895C4
:10254000CF92EF920F931F933BEFC32EE12C00E04D
:1025500010E00E94350E1F910F91EF90CF900895DB
:10256000CF92EF920F931F93CF93DF93FC0196814D
:102570006A3031F4858184836185960F968342C0E9
:10258000262FEF01848161E0690F2F33A1F164F4FC
:102590002E32A1F01CF42132A9F027C090ED920F49
:1025A0009A3018F52C5F0FC02134FCF02B3544F025
:1025B0009FE9920F9A31C8F4275405C02FE303C056
:1025C000215401C02EE33F81062E000C770B082E0C
:1025D000000C990B313089F43AEFC32EE12C00E066
:1025E00010E04FEF5AE00E94350E88858C5F9C8189
:1025F000890F8C8307C020E4E6CF4FEF5AE00E949A
:10260000A012F3CF81E090E0DF91CF911F910F9165
:10261000EF90CF900895CF92EF920F931F9332E0F7
:10262000C32EE12C00E010E00E94350E1F910F91A7
:10263000EF90CF900895CF92EF920F931F93F901EF
:10264000202FCC24C3948F010E94350E1F910F912F
:10265000EF90CF900895BC0180E090E00C940E11B3
:102660008FB18095807F669B88601C9B84600895F5
:10267000FC01840F911D18161906E4F5E038F105E8
:10268000CCF5F7FF02C0E0E0F0E08138910514F0EE
:1026900080E890E0382F3E1BAB0177FF02C0495F16
:1026A0005F4F83E0559547958A95E1F75695542FEE
:1026B000442757954795E40FF51FE555FE4F677082
:1026C000772781E090E001C0880F6A95EAF7482FEC
:1026D000222349F0213071F4315020F08081842B85
:1026E0008193FACF08958095315020F090819823FE
:1026F0009193FACF089560387105D0F440345105B4
:10270000B8F4E9E0FCE080E1849FD001A0781124D6
:10271000A60F4770E40FF11D8491A555BE4F2223EB
:1027200019F06C91862B03C080956C9186238C9355
:102730000895FC019081992359F01CF49C3F34F4D6
:102740000895913041F0993044F00895990F06C0F2
:102750008FEF808308951082089595959083089552
:10276000FC0190819F3F69F01CF4983F34F4089578
:10277000992349F0953054F0089597FD9F5F959502
:1027800006C01082089581E080830895990F908398
:102790000895CF93DF93CEECD5E04B81042E000C4F
:1027A000550B6981062E000C770B21E086E997E036
:1027B0000E947B13249686E0CE30D80771F7DF9114
:1027C000CF9108950F931F93CF93DF938FEB9AE0F0
:1027D000AEECB5E0C0E0D0E460E070E2FC01459111
:1027E00054912D913C911197420F531F11965C9378
:1027F0004E93FC0132960591149112962D913C91C5
:102800001397200F311F13963C932E93129757FD69
:102810000DC037FD0BC00496149626E0AE30B2070B
:10282000E9F6DF91CF911F910F9108951196DC93F6
:10283000CE9313967C936E931297EDCFEEECF5E06A
:1028400020E030E480E090E2318320839383828330
:10285000349646E0EE30F407B9F781E080939301B7
:1028600008958F929F92BF92CF92DF92EF92FF9244
:102870000F931F93CF93DF931F92CDB7DEB7E82E50
:1028800021E040E860E070E080E090E00E943813D2
:1028900080909B0190909C018401F12C00381105DF
:1028A00014F584E0C82ED12C30E08F2D8170B82E25
:1028B000932F9170B11002C019F00BC0992349F009
:1028C00020E045EB5AE0B601C80139830E940B13A2
:1028D00039813F5F88E0C80ED11C373049F7F39447
:1028E000085F1F4FDBCF21E040E86FE370E080E03E
:1028F00090E00E9438138091990780FD1FC0EE2060
:1029000069F081E0881A910881E888168FEF9806AF
:1029100054F410929C0110929B0110C08FEF881A02
:10292000980A97FE05C090929C0180929B0106C078
:1029300080E89FEF90939C0180939B010F90DF9123
:10294000CF911F910F91FF90EF90DF90CF90BF90AC
:102950009F908F900895EF92FF920F931F93CF93C4
:10296000DF9300D000D01F92CDB7DEB781E00E9488
:10297000311400E02FE140E860E170E080E090E099
:102980000E94311A40E06DE070E08DE090E00E941E
:102990009A2240E06FE070E08FE090E00E949A227F
:1029A00041E061E170E081E190E00E949A2241E023
:1029B0006DE270E08DE290E00E949A2240E06FE2CA
:1029C00070E08FE290E00E949A2240E061E370E0C4
:1029D00081E390E00E949A2220E04DE15AE064E118
:1029E00070E089E190E00E940B1384E28093790704
:1029F0008093780783E280937A0766E17AE084E740
:102A000097E00E94EA1080918C0790918D078E01CB
:102A10000F5F1F4FF8012AE0E22EF12C25E0200F76
:102A2000B7010E943A368193CB012E13F9CF7E0174
:102A300086E0E80EF11CF70142917F0150E060E072
:102A400070E02AE084E797E00E948E10E016F1061D
:102A500091F788E00E945F16811105C084E00E9412
:102A60005F16882319F08CE08093BD050F900F90BE
:102A70000F900F900F90DF91CF911F910F91FF90CA
:102A8000EF9008950F931F93CF93DF93CDB7DEB7E9
:102A90002A970FB6F894DEBF0FBECDBF95E0899F91
:102AA00080011124C80188559F4F0E94B535282FF9
:102AB000C80187559F4F2A870E94B535382FC80116
:102AC00086559F4F39870E94B535482F1F821E8239
:102AD000C80185559F4F48870E94B5358E83C80130
:102AE00084559F4F0E94B5355E81682F2A853985B0
:102AF000488570E080E090E02A960FB6F894DEBF3B
:102B00000FBECDBFDF91CF911F910F9108958A30F5
:102B100028F4853048F4813029F406C08C3021F047
:102B2000803111F080E0089581E00895EF92FF92E6
:102B30000F931F93CF93DF931F92CDB7DEB77C0126
:102B4000FC0100811181C80169830E94B53569814A
:102B5000681719F0C8010E94BD35C7010F90DF91B9
:102B6000CF911F910F91FF90EF900895EF92FF92F8
:102B70000F931F93CF93DF9300D0CDB7DEB78C01B7
:102B80007B01FB0160819A838983CE0101960E94BB
:102B90009615F70161810F5F1F4F1A830983CE01DC
:102BA00001960E949615C7010F900F90DF91CF916B
:102BB0001F910F91FF90EF900895CF93DF9300D076
:102BC000CDB7DEB79A838983CE0101960E94961510
:102BD0000F900F90DF91CF9108950F931F93CF9394
:102BE000DF9300D0CDB7DEB7082F86EA90E00E94D1
:102BF000B535182F87EA90E00E94B535011104C061
:102C0000133511F4833479F18AE090E09A83898353
:102C100063E586EA90E00E94DD1563E487EA90E0D0
:102C20000E94DD1508EA10E060E0C8010E94DD1591
:102C300060E0C80101960E94DD1560E0C8010296BF
:102C40000E94DD15BE016F5F7F4FC80103960E9491
:102C5000B61589819A8102979A8389830B5F1F4FEA
:102C6000013C110509F70F900F90DF91CF911F9153
:102C70000F91089570E020911B0630911C062617D5
:102C80003707D8F040911D0650911E06282F30E0DE
:102C9000649FF001659FF00D749FF00D1124E20F09
:102CA000F31FF695E795E25FF94F80FD03C0818938
:102CB000829501C081898F70089589E008952091DF
:102CC0009C07282329F490919B07982381E009F41D
:102CD00080E00895EF920F9380919407811121C1B4
:102CE0008091BD05873091F084E00E945F168823B3
:102CF00069F080918A0790918B07892B39F0909128
:102D0000920781E08927809392070BC180919907F0
:102D100090919A0783709927892B09F002C18091BD
:102D20009307811116C00E94301385FF08C086E802
:102D300097E00E94991381E0809388070AC00E945F
:102D4000301386FF06C086E897E00E94B013109209
:102D500088070E94301383FF70C080918A0790918A
:102D60008B07892B09F469C08091880781119DC068
:102D70000091BC058091820790918307A091840700
:102D8000B0918507BD01685F7F4FE02E2FED33E1E5
:102D900041E054E180918007909181070E941B13CC
:102DA0008091990790919A0765E070E00E943A3609
:102DB000892B31F48091BC058F5F81708093BC05B5
:102DC00080918707882309F46CC00CF460C08130BF
:102DD00009F062C010928707809171008D7F809307
:102DE00071001092BB058EEB95E09093BA0580932D
:102DF000B9059093B8058093B70521E230E0309390
:102E0000BF052093BE0582E390E09093C1058093B7
:102E1000C00541E450E05093C3054093C205909330
:102E2000C5058093C4053093C7052093C6059093CC
:102E3000C9058093C8050E949211809199079091CD
:102E40009A0787709927892B81F40E94301383FF9A
:102E500006C080918A0790918B07892B31F480916D
:102E600087078F3FC1F5109287078091990790914E
:102E70009A078F709927892B09F053C00E9430134D
:102E800085FD4FC00E94301386FF39C04AC08C3F79
:102E90000CF4A2CF880F06C089300CF09DCF859529
:102EA00001C08FEF8093870797CF813009F078CFEB
:102EB0000091BC058091820790918307A0918407BF
:102EC000B0918507BD01685F7F4FE02E29E933E1AE
:102ED0004BEB53E15FCF8F3F09F034F4883F2CF286
:102EE00087FD8F5F859503C0811104C081E08093C9
:102EF0008707BBCF85300CF0B8CF880FF8CF809113
:102F00008607181624F486E897E00E9499138091AA
:102F1000860787FF06C086E897E00F91EF900C9434
:102F2000B0130F91EF9008958F929F92AF92BF923E
:102F3000CF92DF92FF920F931F93CF93DF93009175
:102F40007E0710917F072091800730918107409183
:102F50008207509183076091840770918507809163
:102F60009207811103C0A8E0FA2E02C0FBE0FF2EF9
:102F7000E091AE0580910E0690910F06A09110068B
:102F8000B0911106C8E0EC9FA00DB11D11248091F5
:102F9000AF058090120690901306A0901406B09092
:102FA00015066D01D7E0CD0ED11CE7E8CE16D10491
:102FB000A0F5E501E8E08E9FC00DD11D1124CE01E2
:102FC000C83FFFEFDF074CF1C034D10534F589016C
:102FD000332717FD3095232FE8010F5E1F4FA017F1
:102FE000B107DCF4CC15DD05C4F4AB01772757FD40
:102FF0007095672FFA012F2D30E0420F531F841771
:1030000095075CF40896E817F9073CF488E7809385
:10301000B6051092B30510929407DF91CF911F91DE
:103020000F91FF90DF90CF90BF90AF909F908F90C7
:103030000895CF92DF92EF920F93CF93DF93809119
:10304000AE05C091B5050C2E000CDD0B219640910C
:103050000E0650910F066091100670911106C60F72
:10306000D71F98E0899FC00DD11D11248091AF0515
:103070004091120650911306609114067091150646
:103080006B019DE0C91AD10898E0899FC00CD11C42
:1030900011249091900780911F07E12C00E027E018
:1030A00033E1981768F04FE453E1B601CE010E9476
:1030B0001B13DF91CF910F91EF90DF90CF90089588
:1030C0004DEB52E1B601CE010E941B132091B005D9
:1030D0002B5CB6016C5F7F4F43EB51E1CE0149960B
:1030E000DF91CF910F91EF90DF90CF900C94A012D1
:1030F000EF920F931F93CF93EBEAF5E0C3818481A6
:10310000AEE0B6E014964D915D916D917C9117976C
:103110006D50710998E0899F600D711D11248285A1
:10312000082E000C990B01960D911D912D913C914B
:10313000820F931FE12C00E027E033E149E651E1E3
:10314000E8E0CE9F800D911D11240E941B13CF91AA
:103150001F910F91EF90089540911D0650911E060A
:10316000ABE5B7E0ED91FD9192819923F9F0608193
:103170009181262F30E0949FF001959FF00D11244E
:10318000E20FF31FF695E795E25FF94F918960FD35
:1031900005C09F70813039F420E506C0907F8130F2
:1031A00011F425E001C020E0922B918B97E0AF361F
:1031B000B907C1F680932A07811105C080912607BF
:1031C0009091270702C080E090E0909329078093B8
:1031D00028070895CF93DF93D82FC62F0E943A1661
:1031E0008530A1F4CC2381F06FEF6C0F8D2F0E94FE
:1031F0003A16853039F061E06C0F8D2F0E943A1637
:10320000853011F480E10BC085E009C08F3039F4BE
:1032100080912A07813011F081E101C08FE0DF91B8
:10322000CF91089580E0EBEAF1E081118FEF002467
:1032300081938193819381930394D1F70895EBEA6D
:10324000F1E080E0A0E0B8E000800EBC8111012C2C
:103250001197A0FDFDCF0192B9F70DB408958F929B
:103260009F92AF92BF92CF92DF92EF92FF920F9315
:103270001F93CF93DF93182FC62F009121070230A1
:10328000B0F18F3F51F4602F70E080E090E00E9439
:103290006A10D62FCF3F69F403C0D82F6F3F49F58E
:1032A000602F70E080E090E00E946A10C62F1F3F00
:1032B00001F5802E912CA12CB12C8091AD05D81355
:1032C00006C0C501B4010E946A10D62FF6CF8091C6
:1032D000B005D817B1F3C02ED12CE12CF12CDC13A2
:1032E00008C0C701B6010E946A10C62FF8CFCEEF02
:1032F000D0E02091160630E0220F331FF901EE5C7A
:10330000FE4F608171818D2F90E0880F991FFB0126
:10331000E80FF91F44914093AE050196FB01E80FB9
:10332000F91FE491E093AF05D093AD05C093B005CC
:10333000CE3FB9F0F901E65EFE4F208131816C2F5E
:1033400070E0660F771FF901E60FF71F84918093F5
:10335000B1056F5F7F4FF901E60FF71FE491E0932E
:10336000B2051092AB0581E08093B30564E170E093
:1033700080E090E00E946A10DC01CB010A96A11D5A
:10338000B11D8093AC05DF91CF911F910F91FF90FC
:10339000EF90DF90CF90BF90AF909F908F90089567
:1033A000CF93DF931F92CDB7DEB74F3028F44D3067
:1033B00078F54B3049F02FC04F3069F580E04983F4
:1033C0000E94AC18498127C091E090939507209105
:1033D000990730919A0723703327232BE1F4A5E551
:1033E000B7E0ED91FD91908198131EC091819613E5
:1033F0001BC08281882379F080918A0790918B0786
:10340000209124073091250782179307A0F003C06D
:1034100083E380938F078091920781111EC0809172
:103420008707181694F019C097E0AB35B907C9F6AD
:10343000E0E0F0E0DECF019690938B0780938A075F
:103440008281811181508283E6CF842F0E9487156B
:10345000882319F083E380938F070F90DF91CF913A
:1034600008958F929F92AF92BF92CF92DF92EF9288
:10347000FF920F93CF93DF936B01EC014C01840E0D
:10348000911C5B01A20EB11CC815D905ECF47601A4
:10349000D7FE10C0E12CF12C0DC0E816F90694F40B
:1034A000202FA701BE0186E997E00E947B132FEF32
:1034B000E21AF20AC50121E4A216B10474F380E411
:1034C00090E0EBCF2196E0CFDF91CF910F91FF906D
:1034D000EF90DF90CF90BF90AF909F908F90089526
:1034E0008F929F92AF92BF92EF920F9300918807B5
:1034F00080918F07863270F48F31B8F4882311F1F0
:10350000883108F44BC000E08BEF20EC3EE046E150
:1035100051E126C08D3280F0843308F03FC08BEF3C
:103520002BE23DE04BE75FE01BC000E08BEF2FE6B6
:103530003EE043EC50E114C08BEF2DEC3DE04FE159
:1035400050E10EC080919207811105C029E03DE055
:1035500047E55FE005C080E025EC3CE041E15FE04D
:1035600041155105D9F0082E000C990B8090820767
:1035700090908307A0908407B0908507BC016A0DE6
:103580007B1D80907E0790907F07A0908007B09071
:103590008107E02E8A0D9B1D0E941B130F91EF9057
:1035A000BF90AF909F908F900895CF93DF931F921D
:1035B000CDB7DEB76983DC01ED91FC910280F38128
:1035C000E02D41E050E0BE016F5F7F4F09950F9005
:1035D000DF91CF91089583E08093E9008091F2001C
:1035E000882319F08AE38093E8000895FC0184851C
:1035F000958597FD0BC09FB7F89482E08093E90012
:103600008091F2009FBF90E0019608959FB7F894D3
:1036100082E08093E9008091F2009FBF90E00895DE
:103620008F929F92AF92BF92CF92DF92EF92FF92D2
:103630000F931F93CF93DF935C016B017A0180910D
:103640001501882309F45BC08091FA07882309F4E7
:1036500056C08091F70780FF05C08091E00082602E
:103660008093E000E70110E00AEF83E0882E9AE300
:10367000992E2097D9F10E94092481110AC0015086
:1036800009F43DC061E070E080E090E00E940E111E
:10369000F0CF282F30E0C217D3070CF48C2F4FB790
:1036A000F8948092E9009091E80095FF1DC0282FC2
:1036B00030E0C21BD30BF601982F915020F081917E
:1036C0008093F100FACFC20ED31E112319F090920D
:1036D000E80009C08091E80085FD06C09092E800EE
:1036E00011E0209709F010E04FBFC3CF1111C3CFF5
:1036F0005D9884E68093F8071E141F0444F081E06F
:1037000090E0F5019383828380E090E001C0C701DF
:10371000DF91CF911F910F91FF90EF90DF90CF90AD
:10372000BF90AF909F908F9008950E94092490E0E1
:103730000895CF93DF931F92CDB7DEB7FC01848548
:10374000958597FD05C02FEF3FEF358724870BC088
:10375000CE0101960E94DF23019719F4898190E040
:1037600002C08FEF9FEF0F90DF91CF9108950F93DD
:103770001F93CF93DF931F92CDB7DEB78C01FC016F
:103780008485958597FF0EC0CE0101960E94DF23A8
:10379000019719F4298130E002C02FEF3FEFF801C3
:1037A00035872487F801848595850F90DF91CF9127
:1037B0001F910F910895DF92EF92FF920F931F9345
:1037C000CF93DF93D82E8A017B01E40EF51EEB0127
:1037D000CE15DF0571F0D7FE03C0FE01849101C054
:1037E00088810E942E2421968111F2CF8FEF9FEFC6
:1037F00001C0C801DF91CF911F910F91FF90EF9011
:10380000DF9008950F931F93CF93DF931F92CDB74F
:10381000DEB782E0898342E450E065E274E180E84B
:103820000E94DB1B0E941A24DC0112960D911C9150
:1038300013970115110569F0D801ED91FC910280F3
:10384000F381E02DBE016F5F7F4FC801099597FF9F
:1038500007C089810F90DF91CF911F910F9108953B
:10386000F80100851185E5CF1F920F920FB60F92D8
:1038700011248F939F938091E1009091E100937FB9
:103880009093E10083FF0FC01092E90091E09093C4
:10389000EB001092EC0092E39093ED001092FA0787
:1038A00098E09093F00082FF20C093E09093E900AD
:1038B0009091F200992319F09AE39093E800909187
:1038C000F807992339F09091F80791509093F807F1
:1038D000992389F19091F907992339F09091F9078B
:1038E00091509093F907992341F184FF10C0809182
:1038F000E2008E7E81608093E2008091E1008F7E05
:103900008093E1008091F7078E7E806111C080FF77
:1039100016C08091E2008E7E80618093E2008091EB
:10392000E1008E7E8093E1008091F7078E7E8160BA
:103930008093F70704C05D9ACDCF289AD6CF9F9188
:103940008F910F900FBE0F901F9018951F920F929E
:103950000FB60F921124CF92DF92EF92FF920F9346
:103960001F932F933F934F935F936F937F938F9307
:103970009F93AF93BF93EF93FF93CF93DF93CDB715
:10398000DEB76C97DEBFCDBF1092E9008091E800F2
:1039900083FFEDC168E0CE0145960E945C2482EF72
:1039A0008093E8008D8987FF05C09091E80090FF23
:1039B000FCCF03C09EEF9093E800982F907609F01B
:1039C000C6C09E892F89188D91110CC0803829F4AA
:1039D0008091F6078093F10002C01092F1001092DE
:1039E000F10048C1422F50E0512B913051F4811128
:1039F00041C14130510509F03DC18091F6078D7FED
:103A00000BC0933061F4811135C14130510509F08B
:103A100031C18091F60782608093F6072BC1953003
:103A200041F48091E80080FFFCCF20682093E30000
:103A300021C1963009F05FC0EB8CFC8C1092E9003C
:103A40001092F4071092F307123091F51092F207DA
:103A50001092F1070E94021C99E0BE016F5F7F4F38
:103A6000DB01E92F1D92EA95E9F799831A8391E02A
:103A70009E8390EA98879AEF99872091F307309177
:103A8000F407275F3F4F3C832B838D831092E9001F
:103A90001092F4071092F307F092F207E092F10708
:103AA00049E050E080E00E94DB1B0E94021CE2C063
:103AB000F092F207E092F1070E941A24DC011296BC
:103AC000ED90FC901397E114F10409F4C0C0D70104
:103AD000ED91FC910480F581E02DBE016B5E7F4F7E
:103AE000C7010995009719F00CF0C4C0C7C0F701D1
:103AF000E084F184E8CF973009F4C0C0983021F415
:103B000081E08093F100B6C0993009F0B3C08370B2
:103B100009F0B4C0EFE6F1E081E021E036E3908106
:103B2000992361F08093E9002093EB0091919093A9
:103B3000EC003093ED008F5F873089F78EE780933C
:103B4000EA001092EA008F898093FA0793C08B8D68
:103B50009C8D1092E9001092F4071092F307909355
:103B6000F2078093F107898D811156C08E899D8956
:103B7000913A59F4813209F081C047E050E06EE09B
:103B800071E080E00E94DB1B75C0913209F076C0C5
:103B9000833289F4888D90E0982F88272F89822B93
:103BA000A0E0B0E080930A0190930B01A0930C0178
:103BB000B0930D015FC0803269F48091E80082FF0C
:103BC000FCCF67E08EE091E00E945C248BEF809355
:103BD000E80006C0823209F04DC08F89809315013C
:103BE0008091F507882319F0EEEFFAE002C0E0E0DB
:103BF000F8E080910E0190910F01A0911001B09119
:103C00001101803B9440A105B10509F07BC0809172
:103C1000150180FF93C076C00E941A24DC01129621
:103C20000D911C9113970115110541F1D801ED91EA
:103C3000FC910190F081E02DBE016B5E7F4FC801C9
:103C40000995811117C0F80100851185ECCF11305D
:103C500009F44EC0133091F48F89882309F445C0CC
:103C6000823081F440E860E189E894E10E941335F4
:103C7000882321F08EEF8093E80079C081E2809361
:103C8000EB0075C0813029F440E86BE08DE794E1EA
:103C9000EDCF833099F70E941A24DC011296ED9043
:103CA000FC9013978E010F5F1F4F6801E114F10420
:103CB00079F0D701ED91FC910680F781E02DB801F4
:103CC000C7010995080F111DF701E084F184EECFBB
:103CD000D8011C92F60101900020E9F73197BF014D
:103CE0006C197D0940E0C601C1CF67E674E102C0EE
:103CF0006BE674E16115710509F2FB01449150E036
:103D000080E840CF0FB6F894A89580916000886154
:103D100080936000109260000FBEA895EE3F2AE0ED
:103D2000F20739F08091FE0A9091FF0A9183808317
:103D3000A1CF1092FF0A1092FE0A9CCFEE3F8AE0BC
:103D4000F80731F0808191819093FF0A8093FE0AF9
:103D500087E797E7918380839BE088E10FB6F8942B
:103D6000A895809360000FBE9093600083CF6C96FF
:103D70000FB6F894DEBF0FBECDBFDF91CF91FF919C
:103D8000EF91BF91AF919F918F917F916F915F91D3
:103D90004F913F912F911F910F91FF90EF90DF90E6
:103DA000CF900F900FBE0F901F9018952F923F92BB
:103DB0004F925F926F927F928F929F92AF92BF923B
:103DC000CF92DF92EF92FF920F931F93CF93DF93E7
:103DD000CDB7DEB728970FB6F894DEBF0FBECDBFC4
:103DE0004091AE0508E0409FA0011124C0900E064E
:103DF000D0900F06E0901006F0901106C701BB2787
:103E000097FDB095AB2F89839A83AB83BC832091B8
:103E1000AF0598E0299F1001112480901206909020
:103E20001306A0901406B09015068501332717FDE0
:103E30003095232F0D831E832F833887E0919107C0
:103E4000E11140C089819A81840F951F893F1FEF3E
:103E50009107C4F180389105ACF56D817E81620DCA
:103E6000731D683F2FEF72076CF16034710554F5D4
:103E70002091B3052130E1F40091AB05E02E22E161
:103E80003BE140E25BE10E941B1380919907909116
:103E90009A076FE070E00E943A36892B09F0C4C19E
:103EA00081E09091AB05911180E08093AB05BCC19E
:103EB000213008F086C0E12C00E020E33BE147E33D
:103EC0005BE17CC08091BD05883009F0ADC1E11196
:103ED00040C140907E0750907F07609080077090AF
:103EE00081078091820790918307A0918407B09108
:103EF00085076091FB07643108F096C1EE2361F0FD
:103F00004091B10568E0469FA00111242091B205BF
:103F1000E8E02E9F1001112469817A81695F7F4F4B
:103F2000640F751F6738710508F419C183013327C1
:103F300017FD3095232F0D831E832F8338878D0126
:103F4000332717FD3095232F09831A832B833C8356
:103F50004C185D086E087F08461957098819990999
:103F6000AA09BB0991012A1B3B0BED81FE81FF27AA
:103F7000882799278E1B9F0B481759070CF4FDC003
:103F800080E890E08E1B9F0B481759070CF009C181
:103F900037FF33C18D81840F00E060E0A0E8B0E01E
:103FA0007D01EE1AFF0A4E155F050CF0FEC070E0B1
:103FB000E02E24E53AE144E95AE190E00E941B1327
:103FC00033C1223009F030C12091B4050091AB0516
:103FD000E091B505E02E263029F424EF3AE142E0E5
:103FE0005BE104C026ED3AE144EE5AE18E0F911DEB
:103FF000E7FD9A950E941B138091990790919A076B
:1040000087709927892B09F00FC19091AE05809197
:10401000B505282F082E000C330B2D5F3F4F48E0CD
:10402000949F200D311D112440917E0750917F07F0
:104030006091800770918107AB01485F5F4FC0902E
:104040000E06D0900F06E0901006F09011064E1963
:104050005F092417350789F091E02091AB05211104
:1040600090E09093AB059091B405963011F4815097
:1040700001C08F5F8093B505D7C081E08093910721
:10408000109294079091900780911F07981708F05D
:104090004BC0809171008D7F809371001092BB05A1
:1040A0008EEB95E09093BA058093B9059093B8058F
:1040B0008093B70587E295E09093BF058093BE0596
:1040C00082E390E09093C1058093C00525EA30E03B
:1040D0003093C3052093C2059093C5058093C40512
:1040E00022E530E03093C7052093C6059093C905BB
:1040F0008093C80528960FB6F894DEBF0FBECDBFDB
:10410000DF91CF911F910F91FF90EF90DF90CF90B3
:10411000BF90AF909F908F907F906F905F904F90E7
:104120003F902F900C9492118091220720912307A9
:10413000281708F4AECFE82FE695F0E0E25FF94FDC
:10414000918980FD02C09F7001C0907F918B8F5F2D
:10415000EFCF8091B0058E3F09F0BBCE65C06D8179
:104160007E81620D731D683FFFEF7F070CF4DECE8A
:10417000603471050CF0DACE57C0C8019927662764
:104180007727681B790B261737074CF507E060E0A7
:10419000A8E3B0E07D01E81AF90A2E153F05ACF559
:1041A00002C000E060E080E0F9CE49815A815527E5
:1041B000EE27FF27E41BF50B2E173F074CF501E018
:1041C00060E088E7E8E3F0E0DF01A41BB50B2A1705
:1041D0003B070CF4ECCE03E060E388E7E8CE68E34D
:1041E00070E0681B790B261737072CF4698164503F
:1041F000620F06E0CDCF00E0CACF2115310589F26C
:104200008D81840F04E060E3C9CE05E060E3CBCF8D
:10421000E8E3F0E0E41BF50B2E173F079CF66981FD
:104220006450620F02E0CDCF28960FB6F894DEBF3F
:104230000FBECDBFDF91CF911F910F91FF90EF90F7
:10424000DF90CF90BF90AF909F908F907F906F90B6
:104250005F904F903F902F9008954F925F926F9292
:104260007F928F929F92AF92BF92CF92DF92EF9206
:10427000FF920F931F93CF93DF93CDB7DEB7619774
:104280000FB6F894DEBF0FBECDBF8093160691E047
:1042900090932A0791E1899FB00111246857764EC7
:1042A00041E150E0CE0101960E94AC35298130E019
:1042B00030931E0620931D068A8190E090931C0681
:1042C00080931B0673E0220F331F7A95E1F730933A
:1042D0001A0620931906E3E0880F991FEA95E1F783
:1042E00090931806809317068B819C81092E000CF1
:1042F000AA0BBB0BDC019927882780930E069093AD
:104300000F06A0931006B09311068D819E81092E91
:10431000000CAA0BBB0BDC0199278827809312069F
:1043200090931306A0931406B09315068B85809383
:104330001F078C85809320078D85809321078E85AC
:10434000809322078F858093230789859A85909390
:10435000250780932407888999899093270780935C
:104360002607A5E5B7E0ED91FD911082118212823A
:104370001382E7E0AB35BE07B1F7E0911606F0E037
:10438000EE0FFF1FEB58FE4FA080B180C12CD12C47
:10439000612C712C55245394F5011491012F029531
:1043A0000F701F7009F463C0402E429450EF4522F5
:1043B0007601970136952795F901E25FF94F8189DA
:1043C000E0FC03C08F70842902C0807F802B818B2A
:1043D000053021F10B30C9F560911D0670911E0664
:1043E000E72DF0E0EE0FFF1FEB5AF84F8080918031
:1043F000C7010E943A36F4018083618368E270E06D
:1044000080E090E00E946A10DC01CB018896A11D3B
:10441000B11DF40182838383739417C060911D06DC
:1044200070911E066217730780F4E62DF0E0EE0F20
:10443000FF1FE55AF84F0190F081E02DC7010E945F
:104440003A368083618352826394FFEFEF1AFF0A4A
:104450008E2D8C19811708F4ACCF1150812F90E06C
:104460000196C80ED91E8FEFA81AB80A95CF61968B
:104470000FB6F894DEBF0FBECDBFDF91CF911F9175
:104480000F91FF90EF90DF90CF90BF90AF909F90F3
:104490008F907F906F905F904F900895CF93DF93B0
:1044A000CDB7DEB761970FB6F894DEBF0FBECDBFB4
:1044B0000E942D216091160681E1689FB0011124B0
:1044C0006857764E41E150E0CE0101960E94AC352E
:1044D000EEE7F7E0108611861286138A81E0848B5E
:1044E000858B168A178A118A89859A85958784878C
:1044F0008F8190E0A0E0B0E0DC01992788278083DD
:104500009183A283B383888590E0A0E0B0E0DC01D2
:104510009927882784839583A683B7838FEF809319
:10452000AD0561960FB6F894DEBF0FBECDBFDF912B
:10453000CF9108954F925F926F927F928F929F9248
:10454000AF92BF92CF92DF92EF92FF920F931F93A1
:10455000CF93DF93EC018B01442ECB018C1B9D0B81
:1045600097FF03C091958195910955245394813803
:1045700091053CF4512CC80100E810E0E12CF12C2D
:104580000FC00C171D0734F07E0180E890E0C0E0FA
:10459000D0E006C078018E0180E090E0C0E8D0E075
:1045A00038016E187F085C01AC1ABD0AB7FE03C063
:1045B000B194A194B108630177FE03C02FEFC21A32
:1045C000D20AD594C794C817D90714F08FEF01C049
:1045D00081E0882E880F99080E151F05C4F0242D40
:1045E000552019F0A701BE0102C0AE01B70186E94E
:1045F00097E00E947B13CA18DB08D7FE04C0C80DE1
:10460000D91DC60CD71C8FEFE81AF80AE5CFDF9149
:10461000CF911F910F91FF90EF90DF90CF90BF90BF
:10462000AF909F908F907F906F905F904F90089584
:10463000EF92FF920F931F93CF93DF9300D000D0A0
:104640001F92CDB7DEB720E046E059E168E370E0A5
:1046500080E090E00E940B138DE0809379078093B7
:10466000780789E380937A0780918C0790918D0772
:104670008E010F5F1F4FF8012AE0E22EF12C25E09A
:10468000200FB7010E943A368193CB012E13F9CF48
:104690007E0186E0E80EF11CF70142917F0150E0B7
:1046A00060E070E02AE084E797E00E948E10E01658
:1046B000F10691F740918A0750918B07CA01019743
:1046C000439708F051C08091FB07843108F04CC03B
:1046D00000E028E04EE169E370E08CE290E00E94A7
:1046E000311A8EE5809379078093780719E3109348
:1046F0007A0780918E070AE0602F0E942E36492F9C
:1047000050E060E070E02AE084E797E00E948E10BD
:1047100083E7809379078093780710937A078091D5
:10472000AC05602F0E942E36192F0E942E36492F7D
:1047300050E060E070E02AE084E797E00E948E108D
:10474000412F50E060E070E02AE084E797E00F90AE
:104750000F900F900F900F90DF91CF911F910F91BD
:10476000FF90EF900C948E1099E3909379079093BB
:10477000780790937A072AE030E0CA01B9010E94D5
:104780003A368983CB01B9010E943A368A83CB013C
:10479000B9010E943A368B837E01F4E0EF0EF11CE2
:1047A000F70142917F0150E060E070E02AE084E789
:1047B00097E00E948E10E016F10691F792CFFC016F
:1047C0008091FA07811103C08FEF9FEF08959FB783
:1047D000F89482E08093E9002091F20030E0121614
:1047E000130614F421E030E02115310559F0289822
:1047F00084E68093F9078091F10080838091F20034
:10480000882319F09FBFC90108958BE68093E800C3
:10481000F9CF2FB7F89483E08093E9009091E800F6
:10482000892F807295FF04C09091F20080E4891B6B
:104830002FBF08958091000881110DC082E0809300
:10484000FC0784E08093FD071092FF071092FE079B
:1048500081E0809300088CEF97E008954091F30782
:104860005091F4072091F1073091F2074217530756
:10487000B4F49091E8009570E1F39091E80092FD16
:1048800019C08093F1008091F3079091F40701968D
:104890008F739927892B19F48EEF8093E80080910C
:1048A000F3079091F40701969093F4078093F30730
:1048B00081E0089580E00895615030F02091F1008A
:1048C000FC0120830196F8CF289884E68093F907AD
:1048D0000895CF93DF93CDB7DEB7AB970FB6F894BB
:1048E000DEBF0FBECDBF789484B5826084BD84B531
:1048F000816084BD85B5826085BD85B5816085BDDB
:1049000080916E00816080936E0010928100809192
:10491000810082608093810080918100816080931A
:10492000810080918000816080938000809191005F
:1049300082608093910080919100816080939100CA
:10494000809190008160809390008091C10084608C
:104950008093C1008091C10082608093C1008091EA
:10496000C10081608093C1008091C3008160809309
:10497000C3008091C00082608093C0008091C2001B
:1049800081608093C20080917A00846080937A0075
:1049900080917A00826080937A0080917A008160B1
:1049A00080937A0080917A00806880937A001092D8
:1049B000FA071092F6071092F7078091D7008160EE
:1049C0008093D70080EA8093D80089B5806189BD43
:1049D00089B5826089BD09B400FEFDCF61E070E059
:1049E00080E090E00E940E118091D8008F7C806161
:1049F0008093D8008091E000807F8093E0008091D8
:104A0000E1008E7E8093E1008DE08093E200559A74
:104A1000209AEEEFFFE7859194918B3F9C4D19F41E
:104A200081E08093F50781EC80937C0085B1806FF5
:104A300085B984B1877E84B984B1876E84B95E9A62
:104A40005F988AB1806D8AB9769A6E9881B3806FCB
:104A500081BB899880B38D7080BB80E58CBD81E07F
:104A60008DBD85E090E00E942B135F9A85E090E079
:104A70000E942B135E985C98E4E6F1E08DE08E0FC7
:104A800094919EBD00000DB407FEFDCF31968E13AC
:104A9000F7CF5C9A81E88093640080916500816023
:104AA000809365000E941F190E94301387FF15C074
:104AB0005C9885EA8EBD00000DB407FEFDCF5C9AC0
:104AC0002E982F982D9880916400806280936400C6
:104AD00081E083BF889513BEFCCF02E010E00E9406
:104AE000301382FF40C02D980E94301384788438A0
:104AF000C1F00E9430138471843181F52D9A88ECC5
:104B000090E00E942B132E981A83098360E0CE0157
:104B100001960E94961584EF91E00E942B132E9A25
:104B200018C02D9A88EC90E00E942B132F981A83BE
:104B300009836FEFCE0101960E94961584EF91E0F4
:104B40000E942B132F9A0E94301384788438D9F353
:104B5000D0CF0E94301384718431D9F388EC90E077
:104B60000E942B13BCCF2D9A82E090E00E94B535B5
:104B7000882331F03E9A3F9A81E080938E0104C0F1
:104B800010928E013E983F980E94121980E1809306
:104B90009D0780E00E94ED159E012F5F3F4F190198
:104BA0008FB7F89440918F015091900160919101DD
:104BB000709192018FBF80919E07342F381B832FF5
:104BC00090919F07992331F03093A00710929F078F
:104BD0000C94D62F90919D07391758F48F5F891741
:104BE00010F00C94D62F81E083BF889513BE0C94EF
:104BF000D62F81E080939F0740939E07809199076D
:104C000090919A07019690939A07809399078091C3
:104C10009B0780939C070E94301380939B070E9400
:104C20001219E091BD058E2F90E08E30910508F0AD
:104C300010C7FC01EA5AFF4F0C94623620E044E7AB
:104C400058E061E170E08DE190E00E940B138091EB
:104C50000401882379F0813009F05AC010920001D4
:104C60001092010190E4909302018093030110924D
:104C70000401EFC68091000187FD44C080910201CC
:104C800090E020910101821B910997FD0196959575
:104C90008795B82EE12CF12CE0E8CE2ED12C409156
:104CA0000001EB1440F58701000F111F80910101F5
:104CB000B801680F711D603471052CF420E080E0AC
:104CC00090E00E94381380910101B801680F711DB6
:104CD0006F5F7F4F809100016034710544F420E0E4
:104CE000482FD601A81BB109CD010E943813BFEF90
:104CF000EB1AFB0AD4CF47FD05C080910301480F92
:104D0000409300018091000187FFA3C60C94673097
:104D10008150809304019DC610929A011092B605AD
:104D20001092990111E01093090180E00E944E2237
:104D30006EEF809109010E942F191092880782E07E
:104D40008093BD0580E8809305011092060180E400
:104D5000809307011093080180919A01882319F02C
:104D6000815080939A018091B605882379F0815013
:104D70008093B60581110AC081E0909109019111DB
:104D800080E0809309016EEF0E942F1920E042E736
:104D900055E067E070E080E090E00E940B138090A7
:104DA00009018A8E512C182D1F5F1EA3E52CF12CB2
:104DB00080911B0690911C06E816F90608F079C050
:104DC00033E0EE0CFF1C3A95E1F710E0970122501A
:104DD00031093F8F2E8FA701415051095BA34AA390
:104DE000C12ED12C80911D0690911E06C816D906A1
:104DF00008F05DC053E0CC0CDD1C5A95E1F7652D41
:104E0000812F0E94EA18882309F44FC0843009F0EA
:104E100045C030912107E0911606F0E0EE0FFF1F2C
:104E2000E65EFE4FA080B180412C90E0460122E07A
:104E3000820E911C360143E0640E711C431651F141
:104E4000F50184913196E49118131FC05E121DC0C4
:104E5000FA8DF4111AC024E040EE54E0B701C60107
:104E60003FA30E940B1301E027E045E06E8D7F8D8C
:104E7000C4010E94311A2EA140EC54E06AA17BA12A
:104E8000C3010E94A01291E03FA1439402E0A00E52
:104E9000B11CD4CF911109C02AE001C0282F40EEE7
:104EA00054E0B701C6010E940B131F5F99CF5394C2
:104EB0007DCF0E94701A0E94D61E0E946A168091B1
:104EC0009107811105C08091B30581110C94E02FE9
:104ED00080919A0181110E9419188091B605811163
:104EE0000E9478188091820790918307A09184078F
:104EF000B09185070097A942B1050CF4AAC580912D
:104F00008707181614F40C94E42FA3C581E080934E
:104F1000990183E080938E0710928D0710928C0781
:104F200084E08093BD05809199010E942D2180919C
:104F300071008D7F8093710081E08093BB0584EDCB
:104F400099E09093BA058093B9059093B805809342
:104F5000B7050E94921185E08093BD058091930171
:104F6000811102C00E941E140E94E2130E94C91304
:104F700000E021E14EE567E170E082E190E00E940F
:104F8000311A21E04CE569E170E083E190E00E9494
:104F9000381321E04CE566E270E083E190E00E9486
:104FA0003813809120078A5E809379078093780771
:104FB0008CE180937A07E0911606E150F0E0EE0F65
:104FC000FF1FE655FB4F6591749184E797E00E94BF
:104FD000EA1088E00E945F16882319F086E080932B
:104FE000BD0587E08093980134C51092BC0580917F
:104FF00099010E944E226FEF8FEF0E942F1980912E
:1050000098018093BD058091FB078F5F68E20E9445
:105010002E369093FB0780919A01882319F08150D6
:1050200080939A018091B605882349F0815080933E
:10503000B605811104C06FEF8FEF0E942F19809188
:10504000280790912907009751F00197909329071D
:1050500080932807892B19F481E00E94AC18712CE9
:10506000A72CB12C80911B0690911C06A816B9069E
:1050700008F0A6C013E0AA0CBB1C1A95E1F710E0DB
:10508000E12EF12C80911D0690911E06E816F9067E
:1050900008F094C093E0EE0CFF1C9A95E1F7809124
:1050A0000E0690910F06A0911006B0911106EA0E1F
:1050B000FB1E8091120690911306A0911406B091E8
:1050C00015069701285F3F4F2838310508F074C056
:1050D0006501CA0EDB1EC60108968834910508F0EA
:1050E0006BC0672D812F0E94EA18843051F08B30FD
:1050F00009F445C0882309F45FC0282F40EE54E02E
:1051000057C024E040EE54E0B601C7010E940B13E3
:1051100001E027E045E0B60162507109C70102963F
:105120000E94311A8091FB07843108F045C000913C
:105130002107E0911606F0E0EE0FFF1FE65EFE4F3E
:1051400080809180612C61E0C61AD10873E0E70E7F
:10515000F11C601689F1F40184913196E491639415
:10516000181309C07E1207C0262D40EC54E0B6018A
:10517000C7010E94A012F2E08F0E911CEACFA5E5B4
:10518000B7E0ED91FD918081811322C78181871164
:105190001FC7828104E0809FC0011124638170E0F9
:1051A0000E944E36262F643008F023E048E854E091
:1051B000B601C7010E940B131F5F62CF739450CFDB
:1051C00080918F078111D2C00E946A168091910749
:1051D000811104C08091B305811102C78091BD0582
:1051E000883009F0C3C010929507F10182E1820D69
:1051F00011928E13FDCF8091820790918307A09129
:105200008407B0918507AD01772757FD7095672F0B
:105210008091120690911306A0911406B091150684
:10522000CD01BB2797FDB095AB2F5A01A81AB90A3B
:1052300000917E0710917F072091800730918107B0
:105240008901332717FD3095232F80910E06909109
:105250000F06A0911006B0911106CD01BB2797FD56
:10526000B095AB2F081B190BF3E016950795FA952F
:10527000E1F777247394700EA2E0CA2EC00E750178
:10528000B3E0F694E794BA95E1F7DD24D394DE0C0D
:105290006E2D802F0E94EA18F101E80FF11D908118
:1052A000911105C0482F6E2D802F0E94D0196E2DB0
:1052B000872D0E94EA184101880E911CD4019C910F
:1052C000911108C0482F6E2D872D0E94D01981E0C2
:1052D000F40180836E2D8C2D0E94EA184101880E06
:1052E000911CD4019C91911108C0482F6E2D8C2DDA
:1052F0000E94D01981E0F4018083F8E0AF16B10478
:10530000A8F16D2D802F0E94EA187101E80EF11CA2
:10531000D7019C91911108C0482F6D2D802F0E94BC
:10532000D01981E0F70180836D2D872D0E94EA1846
:105330008101080F111DD8019C91911108C0482FBF
:105340006D2D872D0E94D01981E0F80180836D2D8D
:105350008C2D0E94EA18F101E80FF11D9081911146
:1053600005C0482F6D2D8C2D0E94D0198091BD0550
:10537000873021F48091FB07843110F40E94701A69
:1053800010919701112361F187E290E0811B91094F
:1053900097FD07969C0143E0359527954A95E1F7DF
:1053A0008091820790918307A0918407B09185072F
:1053B000BD016A50710980917E0790917F07A0918D
:1053C0008007B0918107E22E022F2AE632E048E7FB
:1053D00053E0CD0105970E941B13115010939701C4
:1053E0000E94D61E0E94182380919A0181110E946A
:1053F00019188091B60581110E9478188091BD0519
:10540000873041F488E00E945F16882309F421C3A5
:1054100088E099C09091950780918F07911103C002
:10542000882309F4E0C5823039F000F18433F0F4C8
:10543000815080938F071AC081E080938F078091FD
:105440008E07815080938E07882369F0809116061D
:105450000E942D2110928F0786E08093BD0587E082
:105460008093980103C08AE08093BD0580919907DD
:1054700090919A076FE070E00E943A36892B09F00C
:10548000E8C2809196018F5F8B3018F4809396016B
:10549000E0C2109296018091AC058B3008F4D9C21D
:1054A00081508093AC05D5C280919301811102C0D7
:1054B0000E941E140E94E2130E94C91300E02EE114
:1054C00042E662E170E08FE090E00E94311A21E054
:1054D00040E663E170E080E190E00E94381321E053
:1054E00040E66EE270E080E190E00E9438138BE2CB
:1054F000809379078093780788E180937A076CE539
:1055000072E084E797E00E94EA1081E380937907D4
:105510008093780782E280937A0760E572E084E7FF
:1055200097E00E94EA1020E046E052E065E170E07A
:1055300082E190E00E940B1388E00E945F168823AE
:1055400009F487C28AE08093BD0583C2809171000F
:105550008D7F8093710081E08093BB058EE899E098
:105560009093BA058093B9059093B8058093B705D9
:105570000E9492118BE08093BD050E94AB141092A3
:10558000990167C28FEF80936F0710927007109296
:105590007107109272071092730780918C07909197
:1055A0008D07998F888FF12C8F2D0E9442152983AA
:1055B0003A834B835C836D832C813D81888D998DEB
:1055C0002817390728F40FEB10E034E0E32E07C06A
:1055D000F394F5E0FF12E8CFFF24FA9445C0FE14DF
:1055E00028F5EA948E2D0E94421529833A834B8335
:1055F0005C836D83622FC80103970E94DD156A8169
:10560000C80102970E94DD156B81C80101970E94B5
:10561000DD158C819D819C8B8B8BBE016D5E7F4FD8
:10562000C8010E94B61505501109D9CF25E0F29E98
:105630008001112460E0C80188559F4F0E94DD154C
:1056400060E0C80187559F4F0E94DD1560E0C801EA
:1056500086559F4F0E94DD15BE01685E7F4FC801D1
:1056600085559F4F0E94B615F0926F078DE080938D
:10567000BD0580E8809305011092060180E48093C7
:10568000070181E08093080180E00E94311400E06E
:1056900020E442E560E070E087E190E00E94311A8A
:1056A00000E010E021E0A80168E170E086E997E001
:1056B0000E947B130F5F1F4F0034110599F700E024
:1056C00010E021E0A80167E670E086E997E00E941B
:1056D0007B130F5F1F4F0034110599F720E044E75B
:1056E00051E066E070E08CE190E00E940B1305E170
:1056F00010E0B12C96E0A92E26E0922E920C8B2D74
:105700000E9442152B8B3C8B4D8B5E8B6F8B43EB3A
:1057100051E1B80183E290E00E940B132C8943EB26
:1057200051E1B80189E290E00E940B132D8943EB0F
:1057300051E1B8018FE290E00E940B13D101EA2DF4
:105740001D92EA95E9F78E899F896101F1016AE06E
:1057500070E00E943A368193CB019E12F8CF89E522
:10576000E82EF12CD6012D916D012C5C43EB51E11B
:10577000B801C7010E940B13B5E0EB1AF108EBE387
:10578000EE16F10479F7B394085F1F4FF5E0BF12EE
:10579000B6CF10916F071F3F09F41BC1809195018F
:1057A0008F5F809395018F30E8F408E0109FB0017F
:1057B00011246C5E7F4F20E041E751E08EE190E0E4
:1057C0000E940B1360916F0718E0619FB0011124D4
:1057D0006C5E7F4F20E041E751E081E690E00E945F
:1057E0000B1304C08F3110F0109295018091700757
:1057F00060916F0781111EC028E0629FB0011124E3
:105800006C5E7F4F01E028E046E082E290E00E947B
:10581000311A60916F0738E0639FB00111246B5E0D
:105820007F4F2091710743EB51E183E290E00E94AA
:10583000A0120EC048E0649FB00111246B5E7F4F40
:105840002091710743EB51E183E290E00E940B133A
:105850008091700760916F078130F1F458E0659F87
:10586000B00111246C5E7F4F01E028E046E088E241
:1058700090E00E94311A60916F0788E0689FB00144
:1058800011246B5E7F4F2091720743EB51E189E257
:1058900090E00E94A0120EC098E0699FB001112410
:1058A0006B5E7F4F2091720743EB51E189E290E0FC
:1058B0000E940B138091700760916F078230F1F4A2
:1058C000A8E06A9FB00111246C5E7F4F01E028E0E0
:1058D00046E08EE290E00E94311A60916F07B8E0D6
:1058E0006B9FB00111246B5E7F4F2091730743EBD8
:1058F00051E18FE290E00E94A0120EC0E8E06E9F9E
:10590000B00111246B5E7F4F2091730743EB51E18F
:105910008FE290E00E940B131091700780E80E94C4
:105920005F16882359F0E12FF0E0E159F84F8281AA
:10593000893118F48F5F828301C0128280E10E9456
:105940005F16882359F0E12FF0E0E159F84F82818A
:10595000882311F0815001C089E1828380E20E9496
:105960005F16882329F0112319F011501093700746
:1059700080E40E945F16882339F08091700782309E
:1059800018F48F5F8093700788E00E945F16882369
:1059900009F45FC000916F07F5E00F9F80011124AB
:1059A00060917107C80188559F4F0E94DD15609175
:1059B0007207C80187559F4F0E94DD1560917307DC
:1059C000C80186559F4F0E94DD158FEF80936F07AA
:1059D00040C00E94301387FF37C30E94301384FDFC
:1059E0004FC332C38D3309F040C31092940183E852
:1059F00084BD17BD81EF80938000109288001092C3
:105A00008A0081E00E94ED15809171008D7F809366
:105A100071001092BB058EEB95E09093BA058093D0
:105A2000B9059093B8058093B70587E194E090930A
:105A3000BF058093BE0584E690E09093C1058093F6
:105A4000C00580E090E89093C3058093C2050E9452
:105A500092110E941F199090BD059E8E192D123033
:105A600019F0183009F0A2C2E09087078E2D0E2C95
:105A7000000C990BAA0BBB0BDC01992788274C0162
:105A80005D01BB0C8808982C54019C01AD01682D68
:105A9000782D882D982D00E10E946836F22E032F74
:105AA000142FB52FF62FE72F6C01A0E00E949F3630
:105AB0007CF421503109484F5F4F6F4F7F4F8F4F1C
:105AC0009F4FF22E032F142FB52FF62FE72F6C01C7
:105AD0002F2D302F412F5B2F6F2F7E2FC60103E11B
