:100000000C94190D0C94410D0C94410D0C94410D60
:100010000C94410D0C94410D0C94410D0C94410D28
:100020000C94410D0C94410D0C94171E0C94891ED8
:100030000C94410D0C94410D0C94410D0C94410D08
:100040000C94410D0C94410D0C94410D0C94410DF8
:100050000C94410D0C94410D0C94410D0C94150E13
:100060000C94410D0C94410D0C94410D0C94410DD8
:100070000C94410D0C94410D0C94410D0C94410DC8
:100080000C940D0F0C94410D0C94410D0C94410DEA
:100090000C94410D0C94410D0C94410D0C94410DA8
:1000A0000C94410D0C94410D0C94410D6E22DA22FA
:1000B000F12282238F239D239D23D0264627CE27FE
:1000C000D5F08D14A1C881CFD9F1AF20000108FF70
:1000D000480BFFFFFF3030FFFFFF00FFFFFF00F87E
:1000E000FEFF0763E3E300FFFFFF3030FFFFFF0089
:1000F000000000000E1F3FF3E3C000F8FEFF0703FF
:100100000300F8FEFF0303FFFEF800FFFFFF73FF8D
:10011000DF0E00FFFFFF333333330707070000070D
:100120000707000707070001030707060307000783
:100130000707000007070700000000000706060782
:100140000301000003070706060000030706060771
:100150000300000707070007070700070707060651
:10016000060653434F52453A004B0D00F0FCFE0E7D
:10017000C6C6C6000080F8FE0EFEF8800000FEFE37
:10018000FE7CE07CFEFEFE00FEFEFE66666666000D
:1001900000000000F0FCFE0606FEFCF0023EFEF849
:1001A00000F8FE3E0200FEFEFE6666666600FEFE8B
:1001B000FEE6FEBE1C000003070F0E0C070F000C2E
:1001C0000F0F0303030F0F0C000F0F0F0003000F9F
:1001D0000F0F000F0F0F0C0C0C0C000000000001A3
:1001E000070F0C0C0F07010000030F0F0F01000099
:1001F000000F0F0F0C0C0C0C000F0F0F000F0F0E49
:100200000020474F4F44204C55434B2120004C6564
:1002100076656C2000240F00F8FCFEFEFEFE1EEE4C
:10022000EE1EFE1EFEFE1EFE3EDEFEBEFE0EBEBE2E
:100230007EFEFE0EFEFEFEFEFCF8000003070F0F22
:100240003F1F0E0D0F0E0F0E0D0D0E0F0E0D0D0E8E
:100250000F0C0F0F0C0F0F0D0F0F0F0F07030004E4
:10026000083E09093E3F25251A1E2121123F212162
:100270001E3F2525213F0505011E21293A3F040483
:100280003F213F21001021211F3F040A313F202040
:10029000203F02023F3F02043F1E21211E3F090969
:1002A000061E21112E3F09093622252519013F017D
:1002B000011F20201F0F10201F3F10103F3B040480
:1002C0003B03043807312D2321102A2A3C3F2424E4
:1002D000181C2222141824243F1C2A2A2C043E0510
:1002E000014C52523E3F040438243D20004040441B
:1002F0003D3F081422213F20003E04043E3E0402FC
:100300003C1C22221C7E22221C1C22227E3E040235
:1003100004242A2A12021F22201E20201E0E102032
:100320001E3E10103E360808364E50503E322A26E9
:10033000221E29251E223F2000322929261221258E
:100340001A0C0A3F08172525191E252518013905FD
:10035000031A25251A0629291E002F000000200057
:10036000000229050200040400F8FCFEFFFFFFFF65
:10037000FFFFFFFFFFFFFFFFFFFFFFFFFFFFFFFF8D
:10038000FFFFFFFFFFFFFFFFFFFFFEFCF803070F6C
:100390001F3F7F3F1F1F1F1F1F1F1F1F1F1F1F1FCD
:1003A0001F1F1F1F1F1F1F1F1F1F1F1F1F1F0F0785
:1003B00003240F00F8FCFE1EEE6E5EFE3EDEDE3E07
:1003C000FEFEDE0EDEFE3EDEDE3EFEFEFEFEFEFE3D
:1003D000FEFE0EFEFCF8000003070F0E3D1D0C0F85
:1003E0000E0D0D0E0F0F0F0E0D0F0E0D0D0E0F0F2C
:1003F0000F0F0F0F0F0F0D0F0703008008FF0301F2
:10040000B9A9FDA9E901A101010101010101010150
:1004100001010101010101010101010101010101CC
:10042000010101010183EF83013149FD85D5F90502
:100430000901A10101010101010101010101010104
:1004400001010101010183EF830101C161B979C992
:10045000C9D161A161C101A1010101010101010134
:100460000183EF83010111C93DC90501A10101010A
:10047000010101010101010101010103FF0000006F
:10048000000000000000000000000000000000006C
:10049000000000000000000000000000000000005C
:1004A0000000E8FCFFFFFF7E2E00000000000000BF
:1004B000000000000000000000000000808080E0DC
:1004C000E0E080808080000000000000000000006C
:1004D0000000000000747EFFFFFF3F3F7F7FFFFFB3
:1004E000FF3F1700000000000000000000008080B7
:1004F000800000A0F0FCFCFCF8B8000080808000C8
:1005000000000000000000747EFFFFFF3F170303A0
:100510000707070100747EFFFFFF3F170000000080
:10052000000000808080000000D0F8FEFEFEFC5C31
:10053000000000808080000000000000747EFFFF4B
:10054000FF3F17000101030303000000747EFFFF5B
:10055000FF3F17000000008080800000000000E8DE
:10056000FCFFFFFF7E2E0000000000808080000066
:10057000747EFFFFFF3F1700000000000101010033
:1005800000000000747EFFFFFF3F171B10000000FB
:10059000000000000000000000000000000000005B
:1005A000000000000000000000000000000000004B
:1005B0000000004854FE5424000000000000000029
:1005C00000000000000000000000000000000080AB
:1005D000C08080000000000000000000000000005B
:1005E0000000000000242A7F2A110A1F0A242A7F03
:1005F0002A120000000000000000000000000000BF
:10060000000000002050F8509000000000000000A2
:100610000000000000000000242A7F2A12000001D0
:10062000010301000000242A7F2A120000000000BC
:100630000000000000000000000090A8FCA8480096
:1006400000000000000000000000000000242A7FDD
:100650002A120000000000010000000000242A7F90
:100660002A1200000000000000000000000000004E
:100670004854FE5424000000000000000000000068
:1006800000242A7F2A120000000000000000000061
:100690000000000000242A7F2A1200802AFAFA02B1
:1006A00002020202FAFAFAFAFA0202020202FAFA62
:1006B000FAFAFA0202020202FAFAFAFAFA00000060
:1006C000E0F8F8FC9C1C1C1C38000000FCFCFCFC46
:1006D0001C1C1CFCFCF8F00000C0FCFC7CFCFCC0FA
:1006E00000000080E0F0F8783C1C1C1C3C0000FC82
:1006F000FCFCFC1C1C1C1C1C1C000000FAFAFAFA76
:10070000FA0202020202FAFAFAFAFA0202020202F9
:10071000FAFAFAFAFA0202020202FAFAFAE0E01F20
:100720001F1F1F1FE0E0E0E0E01F1F1F1F1FE0E092
:10073000E0E0E01F1F1F1F1FE0E0E0E0E00000001E
:10074000808103070F9EFEFCF8F00000FFFFFFFF13
:100750000E0E0F0F070701E0FCFFFFEFE0EFFFFFBA
:10076000FEE0003FFFFFFFC080000000800000FFB0
:10077000FFFFFF0E0E0E0E0E0E000000E0E0E0E0A8
:10078000E01F1F1F1F1FE0E0E0E0E01F1F1F1F1FF3
:10079000E0E0E0E0E01F1F1F1F1FE0E0E00B0B08A0
:1007A000080808080B0B0B0B0B08080808080B0BB4
:1007B0000B0B0B08080808080B0B0B0B0B00402059
:1007C000432747A747A747A341008040A747A7075C
:1007D0000000000000002647A747014000400147F5
:1007E000A747260000412347274727472740000700
:1007F0002747A747A7472747274000000B0B0B0BAE
:100800000B08080808080B0B0B0B0B080808080856
:100810000B0B0B0B0B08080808080B0B0B00000058
:1008200000000000000000000000000000000000C8
:1008300000000000000000000000040A050A05088E
:1008400005080500000000040A050AE5FAFDFE1E81
:100850000F0707070F00000002F0FFFF1FFFFFF068
:1008600082000000FFFFFFFF87C7FFFF7E3C000400
:100870000800000102050A05080508050804080427
:100880000800000000000000000000000000000060
:100890000000000000000000000000000000000058
:1008A0000000000000000000000000000000000048
:1008B0000000000000000000000000000000000038
:1008C00000000000000000000000000F3565DFB0F0
:1008D00060404040E00080780F854F2B282B4F85EB
:1008E0000F788000FF05057F4343651F86E63C00C7
:1008F00000000000000000000000000000000000F8
:1009000000000000000000000000000000000000E7
:1009100000000000000000000000000000000000D7
:1009200000000000000000000000000000000000C7
:1009300000000000000000000000000000000000B7
:1009400000000000000000000000000000000001A6
:10095000010101010100010101010000000000018D
:10096000010101000101010101010101000000007C
:100970000000000000000000000000000000000077
:100980000000000000000000000000000000000067
:1009900000000000000000000000000000461E00F3
:1009A0000828A8A28E3EFEFEFEF8C00000FEFEFE55
:1009B000FEFEAE16EE30FA6C7878786CFA30E00015
:1009C00000000000000C70C03C00C020C000F020FF
:1009D000C020C000E020C000D000E04000E800C01F
:1009E000200060A00000000000020A2A28A38F1F38
:1009F0007FFEF0FFFFFFFFFFFE05C0E0F0F9198C5E
:100A0000291D18FA3C8F2308020000006091E000C5
:100A1000F021E100E1A0F900010003010000010064
:100A200001000001000001000101000000000000C1
:100A300000000000020A28A1871F7FFFFF7F01003E
:100A4000C7CFCF8F8C8AC87880A00000000000003C
:100A50000000F84808A800F800E0408040800080CE
:100A6000408010F8108040C000000000000000002E
:100A70000000000000000000000000000000020A6A
:100A800008010300000607030B0105000200000037
:100A9000000000000000000003000003000300034A
:100AA0000003000300010201000300010202000034
:100AB000000000000000000808FFFFFFFFFFFFFF2D
:100AC000FF04083E09093E3F25251A1E2121123F39
:100AD00021211E3F2525213F0505011E21293A3FE1
:100AE00004043F213F21001021211F3F040A313F10
:100AF0002020203F02023F3F02043F1E21211E3FD3
:100B00000909061E21112E3F090936222525190142
:100B10003F01011F20201F0F10201F3F10103F3BDF
:100B200004043B03043807312D2321102A2A3C3FBB
:100B30002424181C2222141824243F1C2A2A2C04A2
:100B40003E05014C52523E3F040438243D200040F3
:100B500040443D3F081422213F20003E04043E3E15
:100B600004023C1C22221C7E22221C1C22227E3ECD
:100B7000040204242A2A12021F22201E20201E0EF4
:100B800010201E3E10103E360808364E50503E32A1
:100B90002A26221E29251E223F200032292926121C
:100BA00021251A0C0A3F08172525191E252518018D
:100BB0003905031A25251A0629291E002F000000D1
:100BC00020000002290502000404000102040810AC
:100BD0002040800102040506060E080102040506F5
:100BE000060E080102040506060E08020C0B090792
:100BF0000D0F03120C210900000B0601020405066B
:100C0000060E080102040506060E08010204050688
:100C1000060E08010C0A09080D1003110C2009002A
:100C2000000C068888888888888888655568888840
:100C30008888888800000000000000000000000094
:100C40000000000000B000000000000000000000F4
:100C50000000000000A866000000262000042222F8
:100C600022000000000A88DD0000006660000666C1
:100C7000666600000000088800000000888000A070
:100C8000000000A00000066666000A0000000000E8
:100C9000833333338000000DDDDD000800000000E9
:100CA000008888888880000000000000080000009C
:100CB0000000000000000000000000000008A0008C
:100CC0000AA40000000000000000000AA400088A36
:100CD00000099900000000A0000A000EE666000866
:100CE000880008880000000A8A0008A0066666AA34
:100CF00048880000000000AA488800088AA0000078
:100D0000999888A4AAAAAAAA99988833388883337C
:100D10003388888881111111118888881111111167
:100D200011110000000000000000000000000000A1
:100D300000000000000000000000000000000000B3
:100D400000000000000000000000000000000000A3
:100D50000000000000000000000000000000000093
:100D60000000000000000000000000000000000083
:100D700000000000000000888888888888888865CE
:100D80005568888888888888000000000000000076
:100D9000000000000000000000B0000000000000A3
:100DA000000000000000000000A8660000002620EF
:100DB0000004222222000000000A88DD00000066F4
:100DC00060000666666600000000088800000000FB
:100DD000888000A0000000A00000066666000A00EF
:100DE00000000000833333338000000DDDDD000898
:100DF0000000000000888888888000000000000053
:100E000008000000000000000000000000000000DA
:100E10000008A0000AA40000000000000000000A72
:100E2000A400088A00099900000000A0000A000E32
:100E3000E6660008880008880000000A8A0008A00A
:100E4000066666AA48880000000000AA48880008D4
:100E50008AA00000999888A4AAAAAAAA9998883377
:100E600038888333338888888111111111888888E4
:100E7000111111111111000000000000000000000C
:100E80000000000000000000000000000000000062
:100E90000000000000000000000000000000000052
:100EA0000000000000000000000000000000000042
:100EB0000000000000000000000000000000000032
:100EC000000000000000000000000088888888887A
:100ED0008888886555688888888888880000000028
:100EE00000000000000000000000000000B0000052
:100EF00000000000000000000000000000A86600E4
:100F0000000026200004222222000000000A88DDC2
:100F10000000006660000666666600000000088843
:100F200000000000888000A0000000A0000006660D
:100F300066000A0000000000833333338000000D98
:100F4000DDDD00080000000000888888888000003F
:100F50000000000008000000000000000000000089
:100F6000000000000008A0000AA40000000000002B
:100F70000000000AA400088A00099900000000A0EF
:100F8000000A000EE6660008880008880000000AD3
:100F90008A0008A0066666AA48880000000000AA29
:100FA000488800088AA00000999888A4AAAAAAAA3A
:100FB0009998883338888333338888888111111150
:100FC0001188888811111111111100000000000012
:100FD0000000000000000000000000000000000011
:100FE0000000000000000000000000000000000001
:100FF00000000000000000000000000000000000F1
:1010000000000000000000000000000000000000E0
:101010000000000000000000000000000000008848
:1010200088888888888888655568888888888888B6
:1010300000000000000000000000000000000000B0
:1010400000B00000000000000000000000000000F0
:1010500000A86600000026200004222222000000D2
:10106000000A88DD00000066600006666666000013
:101070000000088800000000888000A0000000A098
:101080000000066666000A00000000008333333368
:101090008000000DDDDD0008000000000088888869
:1010A0008880000000000000080000000000000030
:1010B00000000000000000000008A0000AA40000DA
:1010C000000000000000000AA400088A000999003E
:1010D000000000A0000A000EE666000888000888EC
:1010E0000000000A8A0008A0066666AA4888000078
:1010F000000000AA488800088AA00000999888A4E7
:10110000AAAAAAAA9998883338888333338888880A
:10111000811111111188888811111111111100000C
:1011200000000000000000000000000000000000BF
:1011300000000000000000000000000000000000AF
:101140000000000000000000000000000000000A95
:10115000AAAAAAA4A000333111111111133300005F
:10116000000000000000000000000000000000007F
:10117000000000000000000000000000000000006F
:10118000000000000000000000000000000000005F
:10119000000000000000000000000000000070F8E7
:1011A000FEFFFFFFFFFFFFFEFEFFFFFFFAF0600004
:1011B00000020707070200000000000207070702FD
:1011C00060F0FAFFFFFFFEFEFFFFFFFFFFFFFEF8EC
:1011D000700207070702000000000002070707026D
:1011E000000070F8FEFFFFFFFFFFFFFEFEFFFFFFA6
:1011F000FAF06060F0FAFFFFFFFEFEFFFFFFFFFF67
:10120000FFFEF8700000000ECEFEF8F8F8F8F8F8CF
:10121000F8F0F0E7E7E7FCFC7C70700000000000ED
:101220000E0EEEE1EF0F7F7F7F0F0F0F1F1F1F1FAF
:10123000DFDFDF1F1E1C00000000000000000000B8
:10124000000000000000000000000001010100009B
:1012500000000000000000000070707CFCFCE7E76C
:10126000E7F0F0F8F8F8F8F8F8F8FECE0E00000015
:10127000000000001C1E1FDFDFDF1F1F1F1F0F0FDE
:101280000F7F7F7F0FEFE1EE0E0E000000000000E9
:10129000000001010100000000000000000000004B
:1012A000000000000000000007E7F7FCFCFCFCF871
:1012B000F8F8E0E7F7FFFCFCA00E8EBEF8F8E000BF
:1012C0000000EEEEEF8F8F7F7FFFEFEF0F07071D20
:1012D0001F1FFFF8FC1F3F3F3C0000000000000301
:1012E00003030000000000000000000000010101F5
:1012F000000000000000000000E0F8F8BE8E0EA024
:10130000FCFCFFF7E7E0F8F8F8FCFCFCFCF7E7076B
:1013100000000000003C3F3F1FFCF8FF1F1F1D079F
:10132000070FEFEFFF7F7F8F8FEFEEEE00000000E3
:1013300000000000010101000000000000000000AA
:1013400000000303030000000000E0F8F8BE8E8EEA
:10135000E0FCFCFFC7F770F0D0F0F83CFEFEF7E3CE
:10136000031C1C000000787F7F3FF1F1C70E0F0FB8
:101370007F76778F8FEFEEEE8E80EEEEEE00000040
:101380000000000000010101000000000000030354
:101390000300000303030000001C1C03E3F7FEFE30
:1013A0003CF8F0D0F070F7C7FFFCFCE08E8EBEF882
:1013B000F8E0000000EEEEEE808EEEEEEF8F8F771D
:1013C000767F0F0F0EC7F1F13F7F7F78000000009E
:1013D00000000303030000030303000000000000FB
:1013E000010101000000000000000000E0E7E70745
:1013F00000000E0E0E0707070000000E0E0E007014
:101400007077071F1C003838380ECECEC0000000A1
:10141000808080000000808080000000EEEEEE0002
:1014200000000000000101010000000303030000B0
:1014300000030303030303000000001C1F07777071
:1014400070000E0E0E0000000707070E0E0E0000C3
:1014500007E7E7E0000000EEEEEE0000008080808D
:10146000000000808080000000C0CECE0E383838EA
:101470000000000000030303030303000000030354
:10148000030000000101010000000000110B0070CA
:10149000186E1EDE1272767C186A1EDA106000006A
:1014A000000002030200000000000000020302002E
:1014B000006010DA1E6A187C767212DE1E6E1870DA
:1014C000000002030200000000000000020302000E
:1014D000000011080070186E1E5E1272767C186A89
:1014E0001E5A1060000060105A1E6A187C76721234
:1014F0005E1E6E1870001B12000000000480C07099
:10150000F0F090002060C080A2E0A0080020000061
:101510000000000000040040000400260004000752
:1015200007000E020C820A020C00000000000000FE
:1015300000000000000000000000000000000000AB
:10154000000000000000000000000000000020007B
:1015500008A0E0A280C060200090F0F070C080047D
:101560000000000000000000000C020A820C020EC5
:1015700000070700040026000400400004000000EB
:10158000000000000000000000000000000000005B
:10159000000000000000000000001B12000000021C
:1015A0004060387800F090002060C280A8E0A00081
:1015B0000400104000000000004400000004200669
:1015C0004004000707000E020098041405180000EC
:1015D000000000000000010000000000000000000A
:1015E00000000000000000000000000000000000FB
:1015F0004010000400A0E0A880C260200090F0002D
:101600007838604002000000000000001805140453
:101610009800020E000707000440062004000000A6
:101620004400000000000000000000000000000076
:1016300000000000000000000001000000001B127C
:101640000800000140600C1800B0900020008200EB
:101650002860A000040010400000000000440000CA
:10166000000440060004002206000602008020005C
:10167000093000000000000000000100000000012F
:10168000000000000000000000000000000000005A
:10169000000000004010000400A06028008200202C
:1016A0000090B000180C604001000008000000002D
:1016B00030090020800002060006220004000640D7
:1016C00004000000440000000000000000000000D2
:1016D0000000000000000000010000000001000008
:1016E00000001B120800020020000000040000009F
:1016F00000000200000400000000024000000000A2
:101700000044000000000000000000000000000095
:101710000000008004000010000000000000000233
:1017200000000100000000000100000000000000B7
:101730000000000000000000400200000000040063
:101740000002000000000004000000200002000869
:1017500000001000000480000000000000000000F5
:101760000000000000000000440000000000000035
:101770000000000000000001000000000001000067
:10178000020000000000080818247E42467C020483
:1017900018247E62667C020418247E72767C020421
:1017A00018247E7E7E7C020403051F111F001F008B
:1017B0001D151711151F07041F17151D1F151D01D6
:1017C000011F1F151F17151F08080000000000004B
:1017D00000000D9F2D970D9F2D97404040404040A9
:1017E0004040280404484804042840404F09ED09BB
:1017F0004F400502050205020502A54299B5A599CB
:1018000042A55A8739D6D639875A5A8739D6D63912
:10181000875A825A9A42985A9A584050406040508B
:10182000406018247E426A7C0204EEDD9D71EFDE8A
:101830009D7BFA3F001FFA1F003F5FFC00F85FF836
:1018400000FC0002070E070200000002070E07025C
:101850000000000000020702000000000002070272
:10186000000000001104000002040200000000005B
:10187000020402000000000000000200000000005E
:10188000000002000000000000000002070E070236
:1018900000000002070E070200000000000207021D
:1018A0000000000000020702000011040000000018
:1018B0000204020000000000020402000000000018
:1018C000000002000000000000000200000003030E
:1018D0000303030303030000030303033F3F00006C
:1018E00000000000FFFF0000E0E0E0E0FEFEE0E0BE
:1018F000E0E0E0E0E0E0FEFEE0E0E0E00000FFFF2E
:101900000000000000003F3F03030303000008083D
:101910000001010101010100000000010101011F9E
:10192000000000000000007E000000404040407CBD
:1019300000404040404040007C40404040000000AB
:101940007E000000000000001F01010101000000F6
:1019500070707FFFFFFC18C0E0FF7FFFFCDC070812
:101960000020201E6408000040201E24480018FCAF
:10197000FFFF7F7070DCFCFF7FFFE0C007080008FE
:10198000641E2020000048241E204000087CFE7FAA
:10199000FE6702087CFE7FFE6E0407080008641ED6
:1019A0006402000008641E640400E0F0E0E0F0E07F
:1019B000E0070840204040604040080B000202025F
:1019C00001000904000001020200000524001001CA
:1019D000052401010104240206052406000107056F
:1019E000810310004009040100020A0000000705FD
:1019F00002024000000705830240000004030904BE
:101A000012010002EF020140412336800001010271
:101A1000030141726475696E6F204C4C4300417242
:101A20006475696E6F204C656F6E6172646F000043
:101A30004F3011241FBECFEFDAE0DEBFCDBF11E083
:101A4000A0E0B1E0ECEEF4E602C005900D92A03902
:101A5000B107D9F727E0A0E9B1E001C01D92A5398F
:101A6000B207E1F71DE0C9E1DDE004C02197FE0106
:101A70000E942632C831D107C9F70E94B9200C94C0
:101A800074320C940000CF92DF92EF92FF920F938A
:101A90001F93CF93DF936C017A018B01C0E0D0E0FC
:101AA000CE15DF0589F0D8016D918D01D601ED913C
:101AB000FC910190F081E02DC6010995892B11F46C
:101AC0007E0102C02196ECCFC701DF91CF911F911B
:101AD0000F91FF90EF90DF90CF9008958091BD051A
:101AE000E091BB05F091BC05882349F0CF01029637
:101AF0009093BC058093BB05859194910895CF0187
:101B000002969093BC058093BB05808191810895D6
:101B10008091900108950895089580E090E00895DF
:101B20000E946F32CF93DF9300D000D0CDB7DEB7E5
:101B3000611571058105910579F09B01AC016983FF
:101B40003A834B835C830E946B3129813A814B81BC
:101B50005C810E948F3103C060E070E0CB010F9088
:101B60000F900F900F90DF91CF9108953FB7F894A9
:101B70008091A7019091A801A091A901B091AA011B
:101B800026B5A89B05C02F3F19F00196A11DB11DD8
:101B90003FBFBA2FA92F982F8827820F911DA11D13
:101BA000B11DBC01CD0142E0660F771F881F991F50
:101BB0004A95D1F708958F929F92AF92BF92CF929C
:101BC000DF92EF92FF926B017C010E94B60D4B01F8
:101BD0005C01C114D104E104F104F1F00E94B60DDE
:101BE000DC01CB0188199909AA09BB09883E9340F9
:101BF000A105B10570F321E0C21AD108E108F1088E
:101C000088EE880E83E0981EA11CB11CC114D1047B
:101C1000E104F10419F7DDCFFF90EF90DF90CF9052
:101C2000BF90AF909F908F9008951F920F920FB624
:101C30000F9211242F933F938F939F93AF93BF9352
:101C40008091910190919201A0919301B0919401A2
:101C50003091A60123E0230F2D3720F40196A11D1A
:101C6000B11D05C026E8230F0296A11DB11D2093CA
:101C7000A6018093910190939201A0939301B09358
:101C800094018091A7019091A801A091A901B09120
:101C9000AA010196A11DB11D8093A7019093A801EF
:101CA000A093A901B093AA01BF91AF919F918F9189
:101CB0003F912F910F900FBE0F901F901895CF92CC
:101CC000DF92EF92FF920F931F93CF93DF930E94C7
:101CD0006E0D811520E8920761F4809171008D7F6F
:101CE00080937100109291004698479810929F013E
:101CF0008BC021E020939F01813020E8920751F4AE
:101D00008091B9059091BA059093BC058093BB056D
:101D10000E946E0D97FD05C020919E01222309F4BB
:101D20003FC020919D0121113BC021E02093A001E3
:101D3000EC01DF77209769F481E08093A101469858
:101D40003FE9C32E3FE0D32EE12CF12CCAEFD0E0C7
:101D500014C08E0120E030E060E472E48FE090E097
:101D6000A90198010E948F3169017A0181E0C81AA6
:101D7000D108E108F1081092A101E091CC05F091A1
:101D8000CD050995811103C081E08093A101809167
:101D9000A0018823B9F18091A101811133C003C052
:101DA0001092A001C5CF46992DC0479A0E946E0D92
:101DB000009771F09C01DE010E94E331DC01CB0150
:101DC00029E0B595A795979587952A95D1F703C0F2
:101DD0008FEF9FEFDC01109290002AE0209391009A
:101DE000D0929900C09298008093A2019093A30191
:101DF000A093A401B093A5018091710082608093AB
:101E0000710002C04798D2CFDF91CF911F910F91FF
:101E1000FF90EF90DF90CF9008951F920F920FB632
:101E20000F9211242F933F934F935F936F937F9360
:101E30008F939F93AF93BF93EF93FF938091A201F2
:101E40009091A301A091A401B091A501892B8A2BA7
:101E50008B2B81F18091A10181110BC098B180E49D
:101E6000892788B98091A001882319F088B180580A
:101E700088B98091A2019091A301A091A401B09191
:101E8000A501181619061A061B06B4F48091A201C2
:101E90009091A301A091A401B091A5010197A1097E
:101EA000B1098093A2019093A301A093A401B093E0
:101EB000A50102C00E945F0EFF91EF91BF91AF910B
:101EC0009F918F917F916F915F914F913F912F9152
:101ED0000F900FBE0F901F9018956F927F928F9268
:101EE0009F92AF92BF92CF92DF92EF92FF920F93A9
:101EF0001F93CF93DF9300D000D0CDB7DEB73A0168
:101F00004115510509F401C2FA01F490319654913A
:101F1000F2E06F0E711CAF2CB12C211102C0EE202B
:101F200069F1A52FA695A695A695B0E0E1E0F0E0B1
:101F3000352F377011F4E0E0F0E0AE0FBF1FAA9E1E
:101F4000F001AB9EF00DBA9EF00D1124A3E08A2E95
:101F5000C81003C0EE0FFF1F0AC00115110539F0AC
:101F6000EE9ED001EF9EB00D11240A0F1B1F2E9F75
:101F7000D0012F9FB00D11246A0E7B1E2FEFC212CD
:101F800008C00115110519F0CC24C39402C032E039
:101F9000C32EDC01AA0DBB1D1A161B060CF0B5C121
:101FA000803891050CF0B1C19B01250F311D12162F
:101FB00013060CF0AAC1603471050CF0A6C16114BF
:101FC000710409F4A2C1362F3770932EFB0177FDFF
:101FD000379623E0F595E7952A95E1F72E2F77FFC1
:101FE00004C0992011F02FEF2E0F97FF05C0EE27A8
:101FF000FF27E81BF90B02C0E0E0F0E0A038B105D4
:102000001CF030E8381B01C03F2D3E1B622F022E12
:10201000000C770B2F3F1CF4462F409501C040E089
:10202000B1E0A52FA77009F4B0E0569556955695E6
:10203000DB2ED50E6D0D711D693071051CF058E059
:10204000D52ED21AD41A240FDC0150E82503A00D96
:10205000B11D1124AE0FBF1F4F9DE00DF11D1124C6
:10206000A3014E0F5F1F81E090E07C01092C02C0AC
:10207000EE0CFF1C0A94E2F783E0C81609F404C1D1
:102080008C15A8F091E0C91609F4B5C0E2E0CE12B3
:102090003CC18FEF8E9DB0018F9D700D1124609516
:1020A00070957C836B837C806D2C620E2BC0FAEF65
:1020B000CF1631F09BEF892EC81027C1D20E87C0F2
:1020C000D20E51C0FA01E00FF11FE491EE9D6001C4
:1020D000EF9DD00C1124DA82C98227FD07C0FC01D4
:1020E000D080ED2DE623CE2AFC01C082911013C0D2
:1020F0000F5F1F4F0196031728F32F5F4A0D5B1DDB
:10210000A058BF4F261509F400C1CD0183559E4F3D
:1021100000E010E0F0CF27305CF7FC01E058FF4F03
:10212000C080C7208A80C828C082E2CFFA01E60FAB
:10213000F71FE491EE9D8001EF9D100D11241A838D
:10214000098327FD04C0FC011081012B008391103D
:1021500013C06F5F7F4F0196631740F32F5F4A0DE7
:102160005B1DA058BF4F2D1509F4CFC0CD0183557D
:102170009E4F60E070E0F0CF27305CF78C01005894
:102180001F4FF801C080FA81CF2AF801C082E1CF49
:10219000FA01E00FF11FE491EE9DC001EF9D900D5B
:1021A00011249A83898327FD05C08095FB019081C6
:1021B00089238083911014C00F5F1F4F6F5F7F4F83
:1021C000031730F32F5F4A0D5B1DA058BF4F2D152D
:1021D00009F49BC0BD0163557E4F00E010E0F0CFD5
:1021E000273054F7FB01E058FF4F8A81809590819A
:1021F00089238083E1CF0E0F1F1F8D2C820E28159F
:1022000009F483C0CD0183559E4F6C0160E070E0FE
:10221000631790F5F801E60FF71FE491EE9DC001FA
:10222000EF9D900D1124809590959C838B83FA01EE
:10223000E60FF71FE491EE9D3001EF9D700C112425
:102240007A82698227FD05C0F60190818923682A78
:102250006082992059F027304CF4F601E058FF4F86
:1022600090818C8189239A81892B80836F5F7F4F36
:10227000FFEFCF1ADF0ACCCF2F5F4A0D5B1D0A0D8F
:102280001B1DA058BF4FBBCF832F90E0E40FF51F5D
:10229000A355BE4F60E870E0681B790BA81AB90A15
:1022A0008501000F111F5D2D832ECF93DF93ED016C
:1022B000EF96EF962296A590C590992059F0AE9C86
:1022C0005001CE9C600127302CF4F880D094FD2082
:1022D000FB28F99222233AF0FC90C094FC20FA28C3
:1022E000FD920C94741111963A9529F75A9551F074
:1022F000382D23951124E00FF11DA60FB11DC60F37
:10230000D11DD9CFDF91CF9111240F900F900F9055
:102310000F90DF91CF911F910F91FF90EF90DF9081
:10232000CF90BF90AF909F908F907F906F900895C7
:10233000CF92EF920F931F933BEFC32EE12C00E05F
:1023400010E00E946D0F1F910F91EF90CF900895B4
:10235000CF92EF920F931F93CF93DF93FC0196815F
:102360006A3031F4858184836185960F968342C0FB
:10237000262FEF01848161E0690F2F33A1F164F40E
:102380002E32A1F01CF42132A9F027C090ED920F5B
:102390009A3018F52C5F0FC02134FCF02B3544F037
:1023A0009FE9920F9A31C8F4275405C02FE303C068
:1023B000215401C02EE33F81062E000C770B082E1E
:1023C000000C990B313089F43AEFC32EE12C00E078
:1023D00010E041EC5AE00E946D0F88858C5F9C8173
:1023E000890F8C8307C020E4E6CF41EC5AE00E94BD
:1023F0009811F3CF81E090E0DF91CF911F910F9181
:10240000EF90CF900895CF92EF920F931F9332E009
:10241000C32EE12C00E010E00E946D0F1F910F9180
:10242000EF90CF900895BC0180E090E00C94DB0D1C
:102430008FB18095807F669B88601C9B8460089527
:10244000FC01840F911D18161906E4F5E038F1051A
:10245000CCF5F7FF02C0E0E0F0E08138910514F020
:1024600080E890E0382F3E1BAB0177FF02C0495F48
:102470005F4F83E0559547958A95E1F75695542F20
:10248000442757954795E40FF51FE355FE4F6770B6
:10249000772781E090E001C0880F6A95EAF7482F1E
:1024A000222349F0213071F4315020F08081842BB7
:1024B0008193FACF08958095315020F09081982330
:1024C0009193FACF089560387105D0F440345105E6
:1024D000B8F4EBECFBE080E1849FD001A0781124FC
:1024E000A60F4770E40FF11D8491A355BE4F222320
:1024F00019F06C91862B03C080956C9186238C9388
:102500000895FC019081992359F01CF49C3F34F408
:102510000895913041F0993044F00895990F06C024
:102520008FEF808308951082089595959083089584
:10253000FC0190819F3F69F01CF4983F34F40895AA
:10254000992349F0953054F0089597FD9F5F959534
:1025500006C01082089581E080830895990F9083CA
:1025600008958F929F92BF92CF92DF92EF92FF9247
:102570000F931F93CF93DF931F92CDB7DEB7E82E53
:1025800021E040E860E070E080E090E00E942012EE
:1025900080909B0190909C018401F12C00381105E2
:1025A00014F584E0C82ED12C30E08F2D8170B82E28
:1025B000932F9170B11002C019F00BC0992349F00C
:1025C00020E047EB5AE0B601C80139830E940312AC
:1025D00039813F5F88E0C80ED11C373049F7F3944A
:1025E000085F1F4FDBCF21E040E86FE370E080E041
:1025F00090E00E9420128091120780FD1FC0EE2003
:1026000069F081E0881A910881E888168FEF9806B2
:1026100054F410929C0110929B0110C08FEF881A05
:10262000980A97FE05C090929C0180929B0106C07B
:1026300080E89FEF90939C0180939B010F90DF9126
:10264000CF911F910F91FF90EF90DF90CF90BF90AF
:102650009F908F900895EF92FF920F931F93CF93C7
:10266000DF9300D0CDB7DEB78B0195E0899F700175
:102670001124C70188559F4F0E947931F80180834A
:10268000C70187559F4F0E947931F8018183C701A7
:1026900086559F4F0E947931F80182831A821982F0
:1026A000BE016F5F7F4FC70185559F4F0E94511537
:1026B00089819A81F801948383830F900F90DF9131
:1026C000CF911F910F91FF90EF9008958A3038F4C9
:1026D000883048F4813039F0863019F404C08C30E9
:1026E00011F080E0089581E00895EF92FF920F933A
:1026F0001F93CF93DF931F92CDB7DEB77C01FC0110
:1027000000811181C80169830E947931698168174C
:1027100019F0C8010E948131C7010F90DF91CF915C
:102720001F910F91FF90EF900895EF92FF920F93FA
:102730001F93CF93DF9300D0CDB7DEB78C017B0121
:10274000FB0160819A838983CE0101960E947513F3
:10275000F70161810F5F1F4F1A830983CE01019634
:102760000E947513C7010F900F90DF91CF911F91B9
:102770000F91FF90EF900895CF93DF9300D0CDB7E6
:10278000DEB79A838983CE0101960E9475130F905C
:102790000F90DF91CF9108950F931F93CF93DF9305
:1027A00000D0CDB7DEB7082F86EA90E00E947931DD
:1027B000182F87EA90E00E947931011104C0133587
:1027C00011F4833441F11A82198263E586EA90E0BC
:1027D0000E94BC1363E487EA90E00E94BC1308EAFD
:1027E00010E060E0C8010E94BC1360E0C8010196DF
:1027F0000E94BC1360E0C80102960E94BC13BE0197
:102800006F5F7F4FC80103960E9495130B5F1F4FA8
:10281000013C110531F70F900F90DF91CF911F917F
:102820000F910895982F969570E04091DD05509195
:10283000DE0580FD13C0892F90E0649F9001659FA5
:10284000300D749F300D11243695279582539A4F81
:10285000FC01E20FF31F838D829511C0892F90E058
:10286000649F9001659F300D749F300D1124369543
:10287000279582539A4FFC01E20FF31F838D8F70CF
:1028800008959C01E1E7F0E090819D7F9083109294
:10289000BD05EEEBF5E0F093BC05E093BB05F093CE
:1028A000BA05E093B9053183208382E390E09383F6
:1028B0008283758364839783868351874087938758
:1028C00082870C945F0E20911507282329F490919C
:1028D0001407982381E009F480E00895CF92EF92E5
:1028E0000F931F9380910B078111D6C084E00E9443
:1028F0006314882339F09091090781E08927809338
:102900000907CAC080911207909113078370992715
:10291000892B09F0C1C080910A07811116C00E945D
:10292000181285FF08C080E097E00E94811281E0C4
:10293000809302070AC00E94181286FF06C080E03A
:1029400097E00E949812109202070E94181283FFCB
:1029500063C0809102078823B9F0813079F5209116
:10296000B8058091FC069091FD06A091FE06B091FD
:10297000FF06BD01685F7F4FCC24C394E22E02E4C2
:1029800018E144E658E114C02091B8058091FC0696
:102990009091FD06A091FE06B091FF06BD01685F13
:1029A0007F4FCC24C394E22E08E818E14AEA58E1AC
:1029B0008091FA069091FB060E946D0F809112079C
:1029C0009091130765E070E00E94FE31892B31F48D
:1029D0008091B8058F5F81708093B8058091010761
:1029E000882359F024F48C3F7CF0880F0BC0813091
:1029F00031F089304CF4859505C08FEF03C01092FB
:102A0000010702C08093010741E250E061E470E0F9
:102A100081E290E00E944114809112079091130787
:102A200087709927892BC1F50E94181283FD18C061
:102A3000809101078F3F71F01CF4883F3CF410C077
:102A4000882359F0853064F4880F08C087FD8F5FB4
:102A5000859504C01092010703C081E080930107AF
:102A60000E94181285FD18C00E94181286FD14C01D
:102A700080910007181624F480E097E00E948112EC
:102A80008091000787FF08C080E097E01F910F91B9
:102A9000EF90CF900C9498121F910F91EF90CF90E0
:102AA00008950F931F93CF93DF938C01EB010E9446
:102AB00079318883C80101960E9479318983CE01DA
:102AC000DF91CF911F910F910895AF92BF92CF9256
:102AD000DF92EF92FF920F931F93CF93DF9396E0D5
:102AE000899FF0011124EA5BFE4F90812181428190
:102AF000042E000C550B660B770BBA0155274427A3
:102B00004093CE055093CF056093D0057093D105C7
:102B10004381042E000C550B660B770BBA01552729
:102B200044274093D2055093D3056093D405709306
:102B3000D5054481042E000C550B660B770BBA01AA
:102B4000552744274093F8065093F9066093FA06F8
:102B50007093FB064581042E000C550B660B770B1A
:102B6000BA01552744274093FC065093FD06609315
:102B7000FE067093FF06109200071092010731E0E5
:102B80003093020748EC50E0509305074093040748
:102B90001092080710920E0710920D073093090744
:102BA00030930A0710920B0730E0A90113E0440F9D
:102BB000551F1A95E1F75093D8054093D705492F33
:102BC00050E0BA0103E0660F771F0A95E1F77093B2
:102BD000DA056093D9053093DC052093DB0550932B
:102BE000DE054093DD058093D605AFEDB5E0ED91B0
:102BF000FD911082118212821382E5E0A93EBE0788
:102C0000B1F7E091D605F0E0EE0FFF1FE45CFE4F58
:102C100000811181C12CD12CCC2DD0E08091DB051D
:102C20009091DC05C817D90708F062C0E12C20910B
:102C3000DD053091DE058E2D90E08217930708F0B8
:102C400055C0C29FC001C39F900DD29F900D11240B
:102C5000969587959E2D9695890F90E0F801E80F3F
:102C6000F91FF490FC01E253FA4FF38E8F2D8295F9
:102C70008F708B30D1F4ED2DF0E0EE0FFF1FE2539B
:102C8000FA4FA188B288F501E082C18268E270E063
:102C900080E090E00E94920DDC01CB018896A11D9E
:102CA000B11DF50182838383D394EF2DEF70EB3058
:102CB000D1F4ED2DF0E0EE0FFF1FE253FA4FA188A3
:102CC000B288F501E082C18268E270E080E090E0C5
:102CD0000E94920DDC01CB018896A11DB11DF5016A
:102CE00082838383D394E394E394A1CFC39494CF5A
:102CF0008FEF8093AF05DF91CF911F910F91FF90E0
:102D0000EF90DF90CF90BF90AF90089580E0EDEA14
:102D1000F1E081118FEF002481938193819381935E
:102D20000394D1F70895EDEAF1E080E0A0E0B8E087
:102D300000800EBC8111012C1197A0FDFDCF0192E6
:102D4000B9F70DB40895CF92DF92EF92FF921F93DF
:102D5000CF93DF93E091D605F0E0E85CFE4F108161
:102D6000C12ED12CE12CF12CC701B6010E94920D8D
:102D7000D62FC701B6010E94920DC62F1130B1F0B7
:102D80008091AF05D81306C0C701B6010E94920D0D
:102D9000D62FF4CF8091B205D81308C0F5CFDC133D
:102DA00007C0C701B6010E94920DC62F1130B9F7B6
:102DB0002091D60530E0220F331FF901E25DFE4F6E
:102DC000608171818D2F90E0880F991FFB01E80FC2
:102DD000F91F44914093B0050196FB01E80FF91FDC
:102DE000E491E093B105D093AF05F901EC5DFE4F9E
:102DF000408151818C2F90E0880F991FFA01E80FD4
:102E0000F91F24912093B3050196FA01E80FF91FE9
:102E1000E491E093B405C093B2051092AD0581E052
:102E20008093B5056AE070E080E090E00E94920D2A
:102E3000DC01CB010A96A11DB11D8093AE05DF9187
:102E4000CF911F91FF90EF90DF90CF900895CF9397
:102E5000DF931F92CDB7DEB74B3079F018F44430D2
:102E600049F13DC083EF840F8230C8F583E390E0E1
:102E700090930E0780930D0732C020911207309176
:102E8000130723703327232B51F5AFEDB5E0ED91F8
:102E9000FD91908198132CC09181961329C0828155
:102EA0008823E9F08091040790910507883C9105FB
:102EB00030F115C090910807992389F02091B3054E
:102EC00030E0281B310937FF03C0319521953109C6
:102ED0002230310524F48091B4058617D1F0809119
:102EE0000907811137C080910107181644F132C0DB
:102EF00095E0A93EB90759F6E0E0F0E0D0CF0196A1
:102F00009093050780930407828181118150828309
:102F1000E6CF109208072091AE05809106079091A8
:102F20000707820F911D9093070780930607498337
:102F30000E94A31687E28093AC014981D0CF842FF1
:102F40000E946613882331F083E390E090930E078C
:102F500080930D070F90DF91CF9108958F929F92EC
:102F6000AF92BF92CF92DF92EF92FF920F93CF93E7
:102F7000DF936B01EC014C01840E911C5B01A20EEE
:102F8000B11CC815D905ECF47601D7FE10C0E12CB0
:102F9000F12C0DC0E816F90694F4202FA701BE010C
:102FA0008FE097E00E9463122FEFE21AF20AC50148
:102FB00021E4A216B10474F380E490E0EBCF2196F3
:102FC000E0CFDF91CF910F91FF90EF90DF90CF9006
:102FD000BF90AF909F908F9008958F929F92AF92E5
:102FE000BF92CF92DF92EF92FF920F931F93CF93F6
:102FF000DF93B12CCB2CD12C8091DB059091DC059B
:10300000C816D90608F0B1C083E0CC0CDD1C8A9547
:10301000E1F710E0C12FD0E08091DD059091DE0551
:10302000C817D90708F098C023E0CC0FDD1F2A95F8
:10303000E1F78091CE059091CF05A091D005B09198
:10304000D105CA0FDB1F8091D2059091D305A091C5
:10305000D405B091D5059E01285F3F4F2838310532
:1030600008F078C07601EA0EFB1EC7010896883486
:10307000910508F06FC06B2D812F0E9412148430CF
:1030800051F08B3009F449C0882309F463C0282F1C
:1030900048EC57E15BC024E048EC57E1B701CE01B2
:1030A0000E94031201E027E045E0B7016250710978
:1030B000CE0102960E94AE178091AB01843108F0D8
:1030C00049C02091D60530E0F901E85CFE4F00814F
:1030D000220F331FF901EC5DFE4F8080918020E0CC
:1030E00081E0E81AF10823962017A1F1F4018491F8
:1030F0003196E491AA24A394A20E181309C0BE121B
:1031000007C02A2D48EA57E1B701CE010E94981165
:103110002A2DF2E08F0E911CE7CFAFEDB5E0ED91D7
:10312000FD91808181131AC081818B1117C082812A
:1031300024E0829FC0011124638170E00E9412325A
:10314000262F643008F023E046E857E1B701CE01AE
:103150000E9403121F5F5ECFB3944CCF85E0A93E5F
:10316000B807E9F6E0E0F0E0E2CFDF91CF911F9100
:103170000F91FF90EF90DF90CF90BF90AF909F9016
:103180008F9008958F929F92AF92BF92CF92EF92BD
:103190000F931F9380910D0790910E078632910532
:1031A00070F48F319105B8F4009709F1489708F44D
:1031B0004EC08BEF0AEE13E142EE56E126C08D328F
:1031C000910578F0C49708F042C08BEF04E012E15B
:1031D00046EF54E11AC08BEF08E413E14EE356E1E9
:1031E00014C08BEF06EA12E14AE955E10EC0809166
:1031F0000907811105C002EE11E142ED54E105C05D
:1032000080E00EE911E14CE854E141155105F9F077
:1032100020910207082E000C990B8090FC069090DC
:10322000FD06A090FE06B090FF06BC016A0D7B1D56
:103230008090F8069090F906A090FA06B090FB06F0
:10324000CC24C394E22E8A0D9B1D0E946D0F1F910A
:103250000F91EF90CF90BF90AF909F908F90089577
:10326000FC0180918107811103C08FEF9FEF0895CA
:103270009FB7F89482E08093E9002091F20030E05B
:103280001216130614F421E030E02115310559F02F
:10329000289884E6809380078091F1008083809154
:1032A000F200882319F09FBFC90108958BE680932F
:1032B000E800F9CF2FB7F89483E08093E90090916C
:1032C000E800892F807295FF04C09091F20080E49D
:1032D000891B2FBF0895CF93DF931F92CDB7DEB721
:1032E0006983DC01ED91FC910280F381E02D41E0E6
:1032F00050E0BE016F5F7F4F09950F90DF91CF9136
:10330000089583E08093E9008091F200882319F00A
:103310008AE38093E80008950E945A1990E0089586
:10332000CF93DF931F92CDB7DEB7FC0184859585DF
:1033300097FD05C02FEF3FEF358724870BC0CE01E7
:1033400001960E943019019719F4898190E002C01A
:103350008FEF9FEF0F90DF91CF9108950F931F9301
:10336000CF93DF931F92CDB7DEB78C01FC0184852C
:10337000958597FF0EC0CE0101960E9430190197E6
:1033800019F4298130E002C02FEF3FEFF8013587B3
:103390002487F801848595850F90DF91CF911F9147
:1033A0000F910895FC018485958597FD0BC09FB70B
:1033B000F89482E08093E9008091F2009FBF90E052
:1033C000019608959FB7F89482E08093E900809178
:1033D000F2009FBF90E008958F929F92AF92BF92AC
:1033E000CF92DF92EF92FF920F931F93CF93DF93D1
:1033F0005C016B017A0180911B01882309F45BC099
:1034000080918107882309F456C080917F0780FF4F
:1034100005C08091E00082608093E000E70110E049
:103420000AEF83E0882E9AE3992E2097D9F10E9423
:103430005A1981110AC0015009F43DC061E070E0E1
:1034400080E090E00E94DB0DF0CF282F30E0C21723
:10345000D3070CF48C2F4FB7F8948092E900909129
:10346000E80095FF1DC0282F30E0C21BD30BF601EA
:10347000982F915020F081918093F100FACFC20EE5
:10348000D31E112319F09092E80009C08091E80042
:1034900085FD06C09092E80011E0209709F010E049
:1034A0004FBFC3CF1111C3CF5D9884E680937E07D1
:1034B0001E141F0444F081E090E0F50193838283A1
:1034C00080E090E001C0C701DF91CF911F910F9183
:1034D000FF90EF90DF90CF90BF90AF909F908F9034
:1034E00008952F923F924F925F926F927F928F92A8
:1034F0009F92AF92BF92CF92DF92EF92FF920F9383
:103500001F93CF93DF93CDB7DEB728970FB6F8940C
:10351000DEBF0FBECDBF4091B00508E0409FA001C7
:103520001124C090CE05D090CF05E090D005F0904A
:10353000D105C701BB2797FDB095AB2F89839A832F
:10354000AB83BC832091B10598E0299F1001112421
:103550008090D2059090D305A090D405B090D50569
:103560008501332717FD3095232F0D831E832F836D
:103570003887E0910807E11144C089819A81840F5E
:10358000951F893F1FEF9107E4F180389105CCF535
:103590006D817E81620D731D683F2FEF72078CF184
:1035A0006034710574F52091B5052130F1F4209156
:1035B000AD05CC24C394E22E0CE819E14AE959E1A7
:1035C0000E946D0F80911207909113076FE070E0D9
:1035D0000E94FE31892B09F079C181E09091AD05FF
:1035E000911180E08093AD0571C1213008F087C052
:1035F000CC24C394E12C0AEA19E120E041EB59E123
:103600007BC080918207853009F060C14090F80648
:103610005090F9066090FA067090FB068091FC06C7
:103620009091FD06A091FE06B091FF066091AB015E
:10363000643108F04BC1EE2361F04091B30568E0BE
:10364000469FA00111242091B405E8E02E9F1001AF
:10365000112469817A81695F7F4F640F751F673814
:10366000710508F4CFC08301332717FD3095232F50
:103670000D831E832F8338878D01332717FD3095E7
:10368000232F09831A832B833C834C185D086E0813
:103690007F084619570988199909AA09BB09F10138
:1036A000EA1BFB0BED80FE80FF24882799278E19EB
:1036B0009F09481759070CF4B3C080E890E08E19B1
:1036C0009F09481759070CF0BFC0F7FFECC08D8168
:1036D000840F20E060E0A0E8B0E0AE19BF094A170F
:1036E0005B070CF0B5C070E0CC24C394E22E0EEC66
:1036F00018E14EE059E190E00E946D0FE7C02230E2
:1037000009F0E4C04091B6052091AD053091B705B0
:10371000CC24C394E22E463029F40EE619E14CE79E
:1037200059E104C000E519E14EE559E1830F911D0F
:1037300037FD9A950E946D0F8091120790911307A3
:1037400087709927892B09F0C1C09091B0058091AD
:10375000B705282F082E000C330B2D5F3F4F48E094
:10376000949F200D311D11244091F8065091F906C7
:103770006091FA067091FB06AB01485F5F4FC09005
:10378000CE05D090CF05E090D005F090D1054E1930
:103790005F092417350789F091E02091AD052111CB
:1037A00090E09093AD059091B605963011F481505C
:1037B00001C08F5F8093B70589C081E080930807BF
:1037C00010920B0742E550E065EA70E087E295E071
:1037D00028960FB6F894DEBF0FBECDBFDF91CF9114
:1037E0001F910F91FF90EF90DF90CF90BF90AF901F
:1037F0009F908F907F906F905F904F903F902F9011
:103800000C9441146D817E81620D731D683FFFEF42
:103810007F070CF428CF603471050CF024CF56C01C
:10382000C801992722273327281B390BE217F307F2
:103830004CF527E060E008E310E0D801A81BB90BC5
:10384000EA17FB076CF502C020E060E080E043CFA0
:1038500049815A815527AA27BB27A41BB50BEA1714
:10386000FB0744F521E060E088E7A8E3B0E08D01C4
:10387000041B150BE017F1070CF435CF23E060E3D0
:1038800088E731CF28E330E0281B390BE217F30734
:103890002CF4698164506E0F26E0CDCF20E0CACFB2
:1038A00025E060E3D3CF309779F28D81840F24E057
:1038B00060E311CFA8E3B0E0A41BB50BEA17FB0748
:1038C000A4F6698164506E0F22E0CECF28960FB621
:1038D000F894DEBF0FBECDBFDF91CF911F910F9146
:1038E000FF90EF90DF90CF90BF90AF909F908F9020
:1038F0007F906F905F904F903F902F9008950F931F
:103900001F93CF93DF938C01C0E0D0E0F801EC0F60
:10391000FD1F6491662371F0E091EE06F091EF06D1
:103920000190F081E02D8EEE96E00995892B11F043
:103930002196ECCFCE01DF91CF911F910F91089589
:103940008F929F92AF92BF920F931F93CF93DF936B
:10395000CDB7DEB7A1970FB6F894DEBF0FBECDBFCF
:1039600019A2423008F44AE08E010F5D1F4F842EE9
:10397000912CA12CB12CA50194010E94C131E62FFC
:10398000B901CA0101501109EA3014F4E05D01C027
:10399000E95CD801EC93232B242B252B61F701152F
:1039A000110571F0F80101900020E9F73197AF019E
:1039B000401B510BB8018EEE96E00E94430D02C0F1
:1039C00080E090E0A1960FB6F894DEBF0FBECDBFA9
:1039D000DF91CF911F910F91BF90AF909F908F90EB
:1039E00008954F925F926F927F928F929F92AF92C3
:1039F000BF92CF92DF92EF92FF920F931F93CF93DC
:103A0000DF93EC018B01442ECB018C1B9D0B97FFA8
:103A100003C091958195910955245394813891055E
:103A20003CF4512CC80100E810E0E12CF12C0FC04F
:103A30000C171D0734F07E0180E890E0C0E0D0E074
:103A400006C078018E0180E090E0C0E8D0E0380147
:103A50006E187F085C01AC1ABD0AB7FE03C0B194B2
:103A6000A194B108630177FE03C02FEFC21AD20AF6
:103A7000D594C794C817D90714F08FEF01C081E01F
:103A8000882E880F99080E151F05C4F0242D552087
:103A900019F0A701BE0102C0AE01B7018FE097E0A7
:103AA0000E946312CA18DB08D7FE04C0C80DD91DD6
:103AB000C60CD71C8FEFE81AF80AE5CFDF91CF913B
:103AC0001F910F91FF90EF90DF90CF90BF90AF903C
:103AD0009F908F907F906F905F904F90089580910E
:103AE000870781110DC082E08093830784E0809373
:103AF0008407109286071092850781E080938707DC
:103B000083E897E00895409193075091940720919E
:103B100091073091920742175307B4F49091E8004F
:103B20009570E1F39091E80092FD19C08093F10047
:103B3000809193079091940701968F739927892B11
:103B400019F48EEF8093E800809193079091940789
:103B50000196909394078093930781E0089580E005
:103B60000895DF92EF92FF920F931F93CF93DF930D
:103B7000D82E8A017B01E40EF51EEB01CE15DF0580
:103B800071F0D7FE03C0FE01849101C088810E94BC
:103B9000831D21968111F2CF8FEF9FEF01C0C801E5
:103BA000DF91CF911F910F91FF90EF90DF900895DB
:103BB000615030F02091F100FC0120830196F8CF94
:103BC000289884E68093800708950F931F93CF93DE
:103BD000DF931F92CDB7DEB782E0898342E450E0E5
:103BE0006AEB79E180E80E94B11D0E946F1DDC0143
:103BF00012960D911C9113970115110569F0D801CA
:103C0000ED91FC910280F381E02DBE016F5F7F4F4B
:103C1000C801099597FF07C089810F90DF91CF9167
:103C20001F910F910895F80100851185E5CF1F922E
:103C30000F920FB60F9211248F939F938091E10002
:103C40009091E100937F9093E10083FF0FC0109269
:103C5000E90091E09093EB001092EC0092E39093D6
:103C6000ED001092810798E09093F00082FF20C051
:103C700093E09093E9009091F200992319F09AE370
:103C80009093E80090917E07992339F090917E07F8
:103C9000915090937E07992389F190918007992301
:103CA00039F090918007915090938007992341F1CA
:103CB00084FF10C08091E2008E7E81608093E200DC
:103CC0008091E1008F7E8093E10080917F078E7E5E
:103CD000806111C080FF16C08091E2008E7E8061FD
:103CE0008093E2008091E1008E7E8093E1008091DC
:103CF0007F078E7E816080937F0704C05D9ACDCF61
:103D0000289AD6CF9F918F910F900FBE0F901F9042
:103D100018951F920F920FB60F921124CF92DF9237
:103D2000EF92FF920F931F932F933F934F935F93C5
:103D30006F937F938F939F93AF93BF93EF93FF9373
:103D4000CF93DF93CDB7DEB76C97DEBFCDBF1092B8
:103D5000E9008091E80083FFEDC168E0CE0145965F
:103D60000E94D81D82EF8093E8008D8987FF05C0EF
:103D70009091E80090FFFCCF03C09EEF9093E80085
:103D8000982F907609F0C6C09E892F89188D9111C1
:103D90000CC0803829F4809190078093F10002C014
:103DA0001092F1001092F10048C1422F50E0512BC7
:103DB000913051F4811141C14130510509F03DC1AB
:103DC000809190078D7F0BC0933061F4811135C1D4
:103DD0004130510509F031C1809190078260809394
:103DE00090072BC1953041F48091E80080FFFCCF13
:103DF00020682093E30021C1963009F05FC0EB8C6E
:103E0000FC8C1092E90010929407109293071230E4
:103E100091F510929207109291070E94E51D99E08A
:103E2000BE016F5F7F4FDB01E92F1D92EA95E9F735
:103E300099831A8391E09E8390EA98879AEF9987F5
:103E40002091930730919407275F3F4F3C832B834A
:103E50008D831092E9001092940710929307F092CC
:103E60009207E092910749E050E080E00E94B11D86
:103E70000E94E51DE2C0F0929207E09291070E9435
:103E80006F1DDC011296ED90FC901397E114F10484
:103E900009F4C0C0D701ED91FC910480F581E02DBB
:103EA000BE016B5E7F4FC7010995009719F00CF0BA
:103EB000C4C0C7C0F701E084F184E8CF973009F4AB
:103EC000C0C0983021F481E08093F100B6C09930F1
:103ED00009F0B3C0837009F0B4C0E9E8F1E081E013
:103EE00021E036E39081992361F08093E9002093EB
:103EF000EB0091919093EC003093ED008F5F873051
:103F000089F78EE78093EA001092EA008F89809308
:103F1000810793C08B8D9C8D1092E90010929407BD
:103F2000109293079093920780939107898D811146
:103F300056C08E899D89913A59F4813209F081C029
:103F400047E050E064E171E080E00E94B11D75C07F
:103F5000913209F076C0833289F4888D90E0982FF1
:103F600088272F89822BA0E0B0E080931C019093DA
:103F70001D01A0931E01B0931F015FC0803269F440
:103F80008091E80082FFFCCF67E084E191E00E942D
:103F9000D81D8BEF8093E80006C0823209F04DC037
:103FA0008F8980931B0180918F07882319F0EEEF92
:103FB000FAE002C0E0E0F8E0809114019091150170
:103FC000A0911601B0911701803B9440A105B10565
:103FD00009F07BC080911B0180FF93C076C00E94D6
:103FE0006F1DDC0112960D911C911397011511059F
:103FF00041F1D801ED91FC910190F081E02DBE01DD
:104000006B5E7F4FC8010995811117C0F8010085CB
:104010001185ECCF113009F44EC0133091F48F8923
:10402000882309F445C0823081F440E860E18EE1E4
:104030009AE10E94E030882321F08EEF8093E8001F
:1040400079C081E28093EB0075C0813029F440E8AB
:104050006BE082E19AE1EDCF833099F70E946F1D0A
:10406000DC011296ED90FC9013978E010F5F1F4FAD
:104070006801E114F10479F0D701ED91FC9106801B
:10408000F781E02DB801C7010995080F111DF7014F
:10409000E084F184EECFD8011C92F601019000205B
:1040A000E9F73197BF016C197D0940E0C601C1CF26
:1040B0006CEF79E102C060E07AE16115710509F207
:1040C000FB01449150E080E840CF0FB6F894A895EA
:1040D00080916000886180936000109260000FBE44
:1040E000A895EE3F2AE0F20739F08091FE0A909100
:1040F000FF0A91838083A1CF1092FF0A1092FE0ADB
:104100009CCFEE3F8AE0F80731F080819181909357
:10411000FF0A8093FE0A87E797E7918380839BE0FD
:1041200088E10FB6F894A895809360000FBE909335
:10413000600083CF6C960FB6F894DEBF0FBECDBF84
:10414000DF91CF91FF91EF91BF91AF919F918F91AF
:104150007F916F915F914F913F912F911F910F919F
:10416000FF90EF90DF90CF900F900FBE0F901F90B9
:104170001895CF93DF93CDB7DEB7A5970FB6F89418
:10418000DEBF0FBECDBF789484B5826084BD84B598
:10419000816084BD85B5826085BD85B5816085BD42
:1041A00080916E00816080936E00109281008091FA
:1041B0008100826080938100809181008160809382
:1041C00081008091800081608093800080919100C7
:1041D0008260809391008091910081608093910032
:1041E000809190008160809390008091C1008460F4
:1041F0008093C1008091C10082608093C100809152
:10420000C10081608093C1008091C3008160809370
:10421000C3008091C00082608093C0008091C20082
:1042200081608093C20080917A00846080937A00DC
:1042300080917A00826080937A0080917A00816018
:1042400080937A0080917A00806880937A0010923F
:1042500081071092900710927F078091D7008160AC
:104260008093D70080EA8093D80089B5806189BDAA
:1042700089B5826089BD09B400FEFDCF61E070E0C0
:1042800080E090E00E94DB0D8091D8008F7C8061FF
:104290008093D8008091E000807F8093E00080913F
:1042A000E1008E7E8093E1008DE08093E200559ADC
:1042B000209AEEEFFFE7859194918B3F9C4D19F486
:1042C00081E080938F0781EC80937C0085B1806FC3
:1042D00085B984B1877E84B984B1876E84B95E9ACA
:1042E0005F988AB1806D8AB9769A6E9881B3806F33
:1042F00081BB899880B38D7080BB80E58CBD81E0E7
:104300008DBD85E090E00E9413125F9A85E090E0F9
:104310000E9413125E985C98E0ECF0E08DE08E0F46
:1043200094919EBD00000DB407FEFDCF31968E1313
:10433000F7CF5C9A81E8809364008091650081608A
:10434000809365000E9493160E94181287FF15C083
:104350005C9885EA8EBD00000DB407FEFDCF5C9A27
:104360002E982F982D98809164008062809364002D
:1043700081E083BF889513BEFCCF02E010E00E946D
:10438000181282FF40C02D980E9418128478843839
:10439000C1F00E9418128471843181F52D9A88EC45
:1043A00090E00E9413122E981A83098360E0CE01D8
:1043B00001960E94751384EF91E00E9413122E9AC9
:1043C00018C02D9A88EC90E00E9413122F981A833F
:1043D00009836FEFCE0101960E94751384EF91E07F
:1043E0000E9413122F9A0E94181284788438D9F3ED
:1043F000D0CF0E94181284718431D9F388EC90E0F8
:104400000E941312BCCF2D9A82E090E00E94793175
:10441000882331F03E9A3F9A81E08093900104C056
:10442000109290013E983F980E94861680E18093FA
:10443000160780E00E94CC139E012F5F3F4F1901A9
:104440008FB7F8944091910150919201609193013E
:10445000709194018FBF80911707342F381B832FE1
:1044600090911807992331F030931907109218078B
:104470000C94382C90911607391758F48F5F8917D0
:1044800010F00C94382C81E083BF889513BE0C94F7
:10449000382C81E08093180740931707809112070A
:1044A00090911307019690931307809312078091C0
:1044B0001407809315070E941812809314070E9416
:1044C0008616E09182078E2F90E08A30910508F0E1
:1044D00046C7FC01EA5AFF4F0C94263220E04DE912
:1044E00059E061E170E08DE190E00E94031280915B
:1044F0000401882379F0813009F058C0109200013E
:104500001092010190E490930201809303011092B4
:10451000040125C78091000187FD42C080910201FE
:1045200090E020910101821B910997FD01969595DC
:104530008795D82EE12CF12C40910001ED1448F51F
:104540008701000F111F80910101B801680F711DD3
:10455000603471052CF420E080E090E00E9420128D
:1045600080910101B801680F711D6F5F7F4F8091CD
:104570000001603471054CF420E0482FA0E8B0E061
:10458000A81BB109CD010E942012BFEFEB1AFB0A54
:10459000D3CF47FD05C080910301480F4093000130
:1045A0008091000187FFDBC60C940A2D8150809317
:1045B0000401D5C610929A0180E00E9465150E9400
:1045C000A3161092020782E08093820780E880930E
:1045D00006011092070180E48093080181E0809336
:1045E00009010091B0058091CE059091CF05A09171
:1045F000D005B091D105CD01BB2797FDB095AB2F6C
:10460000E8E00E9F80011124080F191F3091B105B9
:104610003F8B4091D2055091D3056091D4057091A4
:10462000D5056B01FF24D7FCF094EF2CB6016A5F2F
:104630007F4F4090F8065090F9066090FA0670900F
:10464000FB062301772457FC7094672C5C8E4B8EFD
:104650008090FC069090FD06A090FE06B090FF06AC
:1046600020910907211102C038E001C03BE020E0A1
:104670004BE956E039A30E9403120E94ED170E94F5
:10468000C2180E94711A0E946E148091FC069091CB
:10469000FD06A091FE06B091FF0639A10097A94240
:1046A000B10534F080910107181614F40C94422CD3
:1046B00051E1450E511C041515050CF050C6095F5B
:1046C0001F4F6B8D7C8D601771070CF048C60F89EA
:1046D00078E0079FC00111248C0D9D1D4501BB246E
:1046E00097FCB094AB2CA401232F30E0820E931ED4
:1046F000881599050CF033C60896481759070CF031
:104700002EC6F9C581E080939A0183E080930C075F
:10471000109207071092060784E080938207109298
:10472000B8058AE08093050180919A010E94651581
:104730000E94A31685E080938207809112079091D2
:1047400013076CE370E00E94FE31892B39F48091ED
:104750000501811103C087E0809382078091AB013E
:104760008F5F68E20E94F2319093AB0180919901D2
:10477000882319F0815080939901809198018823B2
:1047800039F0815080939801811102C00E94A316D4
:104790000E94ED1780910D0790910E07892B09F06B
:1047A00004C10E946E148091080781113BC0809162
:1047B000B5058823B9F10091F8061091F90620910A
:1047C000FA063091FB06C090FC06D090FD06E09002
:1047D000FE06F090FF068091090781110C94472C8A
:1047E000A8E08091B0054091CE055091CF05609131
:1047F000D0057091D10598E0899F600D711D11243D
:104800008091B1058090D2059090D305A090D405F9
:10481000B090D505AB01495F5F4F4738510510F4A3
:104820000C944A2CF1018FE0820D11928E13FDCF72
:10483000C090FC06D090FD06E090FE06F090FF06CA
:104840006701FF24D7FCF094EF2C8091D205909162
:10485000D305A091D405B091D505CD01BB2797FD17
:10486000B095AB2FC81AD90A8091F8069091F90635
:10487000A091FA06B091FB06CD01BB2797FDB0953C
:10488000AB2F4091CE055091CF056091D00570912E
:10489000D105AB01772757FD7095672F841B950BCA
:1048A0007C0133E0F694E7943A95E1F7AA24A394C7
:1048B000AE0C42E0B42EBE0C860153E0169507956F
:1048C0005A95E1F7602F8E2D0E9412144101880E37
:1048D000911CD4019C91911108C0482F602F8E2DFE
:1048E0000E94271781E0F4018083602F8A2D0E94A7
:1048F00012144101880E911CD4019C91911108C0A1
:10490000482F602F8A2D0E94271781E0F4018083B1
:10491000602F8B2D0E9412144101880E911CD4012E
:104920009C91911108C0482F602F8B2D0E94271752
:1049300081E0F4018083F8E0CF16D104B0F10F5F7D
:10494000602F8E2D0E9412146101C80ED11CD60159
:104950009C91911108C0482F602F8E2D0E9427171F
:1049600081E0F6018083602F8A2D0E94121471016C
:10497000E80EF11CD7019C91911108C0482F602FBF
:104980008A2D0E94271781E0F7018083602F8B2DED
:104990000E941214F101E80FF11D9081911105C0E0
:1049A000482F602F8B2D0E9427170E94C2188091DC
:1049B000AC01882381F127E230E0281B310937FF61
:1049C00002C0295F3F4FF3E035952795FA95E1F74F
:1049D0008091FC069091FD06A091FE06B091FF0625
:1049E000BD016A5071098091F8069091F906A09175
:1049F000FA06B091FB06CC24C394E22E0DE714E036
:104A00004BE855E0CD0105970E946D0F8091AC01F8
:104A100081508093AC010E94711A20E04BEF53E06B
:104A200068E370E080E090E00E9403128DE08093E4
:104A3000F3068093F20689E38093F40680910607DB
:104A400090910707F10125E0220D6AE070E00E94D5
:104A5000FE318193CB012E13F8CF8E010A5F1F4FD9
:104A6000D8016E918D0170E080E090E04AE00E94F4
:104A7000A01C02151305A1F719E31093F306109378
:104A8000F2061093F40680910407909105076AE0FE
:104A900070E00E94FE31082FCB016AE070E00E94B6
:104AA000FE31F82ECB016AE070E00E94FE31BC01BD
:104AB00080E090E04AE00E94A01C6F2D70E080E052
:104AC00090E04AE00E94A01C602F70E080E090E03F
:104AD0004AE00E94A01C8EE58093F3068093F206C4
:104AE0001093F40680910C070AE0602F0E94F231C7
:104AF000692F70E080E090E04AE00E94A01C83E70C
:104B00008093F3068093F2061093F4068091AE052D
:104B1000602F0E94F231192F0E94F231692F70E04C
:104B200080E090E04AE00E94A01C612F70E080E0ED
:104B300090E04AE00E94A01C80919901882309F42A
:104B400049C08091AB01843108F044C08091B00528
:104B5000A090B7050A2C000CBB08BFEFAB1ABB0A2C
:104B60004091CE055091CF056091D0057091D1054F
:104B7000A60EB71EE8E08E9FA00CB11C11248091F8
:104B8000B1054091D2055091D3056091D405709143
:104B9000D5054B01FDE08F1A910808E0809F800C3D
:104BA000911C1124CC24C394E12C09E613E020E0ED
:104BB00041EB53E0B401C5010E946D0F2091B20595
:104BC0002B5CB4016C5F7F4F4FE552E0C501499605
:104BD0000E949811809198018823B1F18091AB01D6
:104BE000843190F53091B0058091B1054091D205A6
:104BF0005091D3056091D4057091D5056D50710920
:104C000018E0819F600D711D11248091B705082E59
:104C1000000C990B0196C090CE05D090CF05E09086
:104C2000D005F090D1058E0D9F1DCC24C394E12CAE
:104C300009E613E020E045E152E0A8E03A9F800D4C
:104C4000911D11240E946D0F80918207863009F01A
:104C500041C000E020E14EE567E170E082E190E0D4
:104C60000E94AE1721E04CE569E170E083E190E03D
:104C70000E94201221E04CE566E270E083E190E0C2
:104C80000E94201220E04CE567E270E083E190E0B2
:104C90000E94201286E18093F3068093F2068CE155
:104CA0008093F4068EE092E00E947F1C60919A014E
:104CB00070E080E090E04AE00E94A01C81E092E079
:104CC0000E947F1C88E00E946314882319F084E00E
:104CD0008093820780910D0790910E07892BD9F45C
:104CE00080911207909113076FE070E00E94FE31EF
:104CF000892B89F48091040790910507019790937F
:104D0000050780930407892B31F483E390E09093A7
:104D10000E0780930D0780910D0790910E0782304A
:104D2000910551F0D8F084339105C0F40197909328
:104D30000E0780930D0712C081E090E090930E075C
:104D400080930D0780910C07815080930C07882376
:104D500011F086E001C087E0809382078091080708
:104D6000882309F4FCC280911207909113076FE029
:104D700070E00E94FE31892B09F0F1C28091970109
:104D80008F5F8B3018F480939701E9C210929701DE
:104D900081E09091AE05911180E08093AE05DFC275
:104DA00081E00E94B11200E02FE140E860E170E094
:104DB00080E090E00E94AE1740E06DE070E08DE092
:104DC00090E00E94F11C40E06FE070E08FE090E026
:104DD0000E94F11C41E061E170E081E190E00E94FD
:104DE000F11C41E06DE270E08DE290E00E94F11C68
:104DF00040E06FE270E08FE290E00E94F11C40E042
:104E000061E370E081E390E00E94F11C20E049E65C
:104E100051E064E170E089E190E00E94031284E2D5
:104E20008093F3068093F20683E28093F40682E691
:104E300091E00E947F1C8091060790910707F10185
:104E400025E0220D6AE070E00E94FE318193CB01E3
:104E50002E13F8CF8E010A5F1F4FF80162918F0168
:104E600070E080E090E04AE00E94A01C021513056B
:104E7000A1F788E00E94631481114DC584E00E946F
:104E80006314811148C510929A0169C28FEF809313
:104E9000E9061092EA061092EB061092EC061092C8
:104EA000ED0680910607909107079E8B8D8B00E0A1
:104EB00010E0B12C1A8219826801FBEACF0ED11CD6
:104EC000B101C6010E94511529813A818D899E89BF
:104ED0002817390730F47FEBE72EF12CE4E0AE2EF3
:104EE00009C0B3940B5F1F4F25E0B212E3CFBB2480
:104EF000BA943CC0BA1410F5AA94B1018A2D0E944C
:104F00002B136981C70103970E94BC136A81C701F3
:104F100002970E94BC136B81C70101970E94BC13CA
:104F20008C819D81998B888BBE01605F7F4FC7010B
:104F30000E94951335E0E31AF108DCCF60E0C80168
:104F400088559F4F0E94BC1360E0C80187559F4F52
:104F50000E94BC1360E0C80186559F4F0E94BC139D
:104F6000BE016B5E7F4FC6010E9495131FEFB1011A
:104F7000812F0E942B131F5F1430C9F7B092E906EE
:104F800089E08093820780E88093060110920701F0
:104F900080E48093080181E08093090180E00E9411
:104FA000B11200E020E442E560E070E087E190E0CB
:104FB0000E94AE1700E010E021E0A80168E170E077
:104FC0008FE097E00E9463120F5F1F4F00341105BE
:104FD00099F700E010E021E0A80167E670E08FE0BB
:104FE00097E00E9463120F5F1F4F0034110599F77D
:104FF00020E040ED50E066E070E08CE190E00E943F
:10500000031205E110E0912C56E0B52E66E0A62EC5
:10501000A20CBE01605F7F4F892D0E942B1328894F
:105020004FE552E0B80183E290E00E940312298923
:105030004FE552E0B80189E290E00E9403122A890C
:105040004FE552E0B8018FE290E00E940312D101D7
:10505000EB2D1D92EA95E9F78B899C896101F1019D
:105060006AE070E00E94FE318193CB01AE12F8CF6E
:1050700049E5E42EF12CD6012D916D012C5C4FE514
:1050800052E0B801C7010E940312B5E0EB1AF10823
:10509000EBE3EE16F10479F79394085F1F4FF5E008
:1050A0009F12B7CF1091E9061F3F09F41BC18091F1
:1050B00096018F5F809396018F30E8F408E0109F8F
:1050C000B00111246C5E7F4F20E04DEC50E08EE18A
:1050D00090E00E9403126091E90618E0619FB00120
:1050E00011246C5E7F4F20E04DEC50E081E690E0B3
:1050F0000E94031204C08F3110F01092960180912B
:10510000EA066091E90681111EC028E0629FB001A5
:1051100011246C5E7F4F01E028E046E082E290E0DF
:105120000E94AE176091E90638E0639FB001112438
:105130006B5E7F4F2091EB064FE552E083E290E0FB
:105140000E9498110EC048E0649FB00111246B5E6C
:105150007F4F2091EB064FE552E083E290E00E9402
:1051600003128091EA066091E9068130F1F458E07B
:10517000659FB00111246C5E7F4F01E028E046E09E
:1051800088E290E00E94AE176091E90688E0689F8F
:10519000B00111246B5E7F4F2091EC064FE552E089
:1051A00089E290E00E9498110EC098E0699FB001DA
:1051B00011246B5E7F4F2091EC064FE552E089E2AF
:1051C00090E00E9403128091EA066091E906823025
:1051D000F1F4A8E06A9FB00111246C5E7F4F01E0FA
:1051E00028E046E08EE290E00E94AE176091E9066A
:1051F000B8E06B9FB00111246B5E7F4F2091ED06EC
:105200004FE552E08FE290E00E9498110EC0E8E076
:105210006E9FB00111246B5E7F4F2091ED064FE52C
:1052200052E08FE290E00E9403121091EA0680E8BB
:105230000E946314882359F0E12FF0E0E751F94F01
:1052400082818A3111F4128202C08F5F828380E1F1
:105250000E946314882359F0E12FF0E0E751F94FE1
:105260008281811102C089E101C08150828380E284
:105270000E946314882329F0112319F01150109310
:10528000EA0680E40E946314882339F08091EA06DC
:10529000823018F48F5F8093EA0688E00E946314DE
:1052A000882309F45CC00091E906F5E00F9F8001B6
:1052B00011246091EB06C80188559F4F0E94BC13D2
:1052C0006091EC06C80187559F4F0E94BC13609106
:1052D000ED06C80186559F4F0E94BC138FEF809347
:1052E000E9063DC00E94181287FF76C30E9418127B
:1052F00084FD15C371C3809164008E7F8093640028
:1053000080917A00806480937A0080917A0086FD93
:10531000FCCF00917800109179000E94B60D20E03A
:1053200030E0980111270027600F711F821F931F23
:10533000611571058105910511F00E947031809110
:10534000640081608093640045EA50E066E271E0A9
:105350008BE092E00E94411483E0809382070E94D8
:105360009316B09001078B2D0B2C000C990BAA0BF8
:10537000BB0BDC01992788276C017D01FF0CCC0851
:10538000DC2C76019C01AD016C2D7C2D8C2D9C2D8F
:1053900000E10E942C32F22E032F142FB52FF62F8E
:1053A000E72FD82EE92EA0E00E94633284F421502A
:1053B0003109484F5F4F6F4F7F4F8F4F9F4FF22EF6
:1053C000032F142FB52FF62FE72FD82EE92E2F2DD0
:1053D000302F412F5B2F6F2F7E2F8D2D9E2D03E1C0
:1053E0000E94453269017A0180910007082E000C65
:1053F000990BAA0BBB0BDC01992788272C013D01D7
:10540000770C4408542C32019C01AD01642D742D9D
:10541000842D942D00E10E942C32A22E032F142FF4
:10542000B52FF62FE72F4C01A0E00E9463327CF4E9
:1054300021503109484F5F4F6F4F7F4F8F4F9F4F24
:10544000A22E032F142FB52FF62FE72F4C012A2D54
:10545000302F412F5B2F6F2F7E2FC40103E10E945D
:10546000453229013A01B7FE78C00091F806109143
:10547000F9062091FA063091FB066091CE057091F5
:10548000CF058091D0059091D1056F8B788F898F52
:105490009A8F8090D2059090D305A090D405B090BB
:1054A000D5058091FC069091FD06A091FE06B09175
:1054B000FF06AD01772757FD7095672FC501BB2704
:1054C00097FDB095AB2FBA01681B790BCB018770A4
:1054D0009927892B09F0C5C043E0769567954A95D1
:1054E000E1F74FEF460FC901BB2797FDB095AB2FF2
:1054F0008B8F9C8FAD8FBE8F0F89188D298D3A8D24
:10550000C901BB2797FDB095AB2F0B8D1C8D081BD8
:10551000190B73E0169507957A95E1F7642F802FA4
:1055200049A30E9412140E94661349A18111BEC0B2
:10553000642F81E0800F0E9412140E94661349A11B
:105540008111B4C0642F82E0800F0E9412140E9467
:105550006613882309F485C0A9C01B140CF0A6C0EB
:10556000109109071F8B111102C0E8E001C0EBE0A8
:105570008090F8069090F906A090FA06B090FB068D
:105580004091CE055091CF056091D0057091D10525
:105590008091D2059091D305A091D405B091D50505
:1055A0008B8F9C8FAD8FBE8F8091FC069091FD06F6
:1055B000A091FE06B091FF068D01332717FD3095AF
:1055C000232F0AA31BA32CA33DA38B8D9C8DAD8DF4
:1055D000BE8D8D01332717FD3095232FAAA1BBA1C6
:1055E000A01BB10BB8A3AF8F8D010E0F111DC80109
:1055F00087709927892B09F0A1C2C501BB2797FDA8
:10560000B095AB2FAB01772757FD7095672F5C01E5
:10561000A41AB50A83E0169507958A95E1F7450126
:1056200093E0969487949A95E1F7602F882D0E94D5
:1056300012140E946613811156C3602F81E0880DF9
:105640000E9412140E94661381114DC3602F82E0E4
:10565000880D0E9412140E946613882309F46EC2FA
:1056600042C380910307882339F081508093030758
:10567000811102C01092090710920A078091FC065E
:105680009091FD06A091FE06B091FF06B7FE1EC2E6
:1056900000971CE1A107B1050CF4BEC100972CE1F5
:1056A000A207B10509F4BFC10CF0DBC1809100076E
:1056B00087FF65C08090CE059090CF05A090D00563
:1056C000B090D1058091F8069091F906A091FA0664
:1056D000B091FB06CD01BB2797FDB095AB2FA5017F
:1056E000772757FD7095672F841B950BC090FC069C
:1056F000D090FD06E090FE06F090FF064091D205A6
:105700005091D3056091D4057091D5059C01277007
:105710003327232B09F094C06701FF24D7FCF094B2
:10572000EF2CAB01772757FD7095672F8601041B7F
:10573000150B23E0969587952A95E1F7DD24DA94F9
:10574000D80E780133E0F694E7943A95E1F76E2DA0
:105750008D2D0E9412140E946613811189C007705A
:105760001127012B09F46CC061E06E0D8D2D0E9494
:1057700012140E946613882309F462C079C01816B7
:105780000CF076C08090CE059090CF05A090D0050B
:10579000B090D1058091F8069091F906A091FA0693
:1057A000B091FB06CD0141968A199B09C090FC0679
:1057B000D090FD06E090FE06F090FF064091D205E5
:1057C0005091D3056091D4057091D5059C01277047
:1057D00033272730310509F06AC36701FF24D7FC5E
:1057E000F094EF2CAB01772757FD7095672F86015A
:1057F000041B150BA3E096958795AA95E1F7DD2488
:10580000D394D80E7801B3E0F694E794BA95E1F713
:105810006E2D8D2D0E9412140E946613811128C0D6
:1058200007701127012B09F442C361E06E0D8D2D25
:105830000E9412140E946613882309F438C318C00A
:105840008091F8069091F906A091FA06B091FB06B6
:10585000B7FE0AC30097E8E3AE07B1050CF4C3C274
:105860000097F8E3AF07B10509F4C4C20CF0D7C242
:1058700080E090E0892B11F40C9420220E9400001B
:105880000C94202281E0809309070C945823ABE00C
:105890000C94F123F501B8E08B9FE00DF11D11246C
:1058A000CF01883FEFEF9E0714F40C94122480344C
:1058B000910514F00C9412248901332717FD3095BB
:1058C000232FF80198012F5E3F4F6217730714F0E2
:1058D0000C941224E417F50714F00C9412246701B9
:1058E000FF24D7FCF094EF2CB0E0AC0DBD1D8A175F
:1058F0009B0714F00C9412240896C816D90614F0CD
:105900000C94122488E7809398011092B5051092A8
:105910000B070C94122488E080938207B4CA80910C
:1059200095018F5F80939501853158F488E00E943E
:105930006314811164C084E00E94631481115FC00C
:105940000ECD8D3390F420E430E0A901481B5109BD
:10595000CA01880F93E894BD17BD91EF9093800022
:105960001092880080938A00E1CF8D33F9F610926F
:10597000950183E884BD17BD81EF8093800010926C
:10598000880010928A0081E00E94CC1380917100FF
:105990008D7F809371001092BD058EEB95E0909302
:1059A000BC058093BB059093BA058093B90587E148
:1059B00094E09093BF058093BE0584E690E09093B9
:1059C000C1058093C00580E090E89093C305809363
:1059D000C2050E945F0EC3CC80919501882309F413
:1059E000A5CF83E884BD8FEF87BD81EF80938000D2
:1059F0001092880010928A001092950197CF83E848
:105A000084BD8FEF87BD81EF809380001092880066
:105A100010928A0081E0A1CC8C149D04AE04BF04D6
:105A20000CF076C07EC08091DD059091DE05409738
:105A300009F077C08091DB059091DC05089709F0AB
:105A400070C05CE1E50EF11CC818D908EA08FB0833
:105A5000C092FC06D092FD06E092FE06F092FF0690
:105A600057C0AC01BD014C0D5D1D6E1D7F1D413049
:105A70005105ECE16E0771054CF04093FC06509324
:105A8000FD066093FE067093FF0610CEFCE1AF0E9C
:105A9000B11C881A990AAA0ABB0A8C189D08AE087C
:105AA000BF088092D2059092D305A092D405B092FF
:105AB000D50500E010E02CE130E00093FC061093E7
:105AC000FD062093FE063093FF06F0CD44275527B0
:105AD000BA014C195D096E097F09481759076A0711
