:100000000C9456120C947E120C947E120C947E1258
:100010000C947E120C947E120C947E120C947E1220
:100020000C947E120C947E120C94AE210C9420221F
:100030000C947E120C947E120C947E120C947E1200
:100040000C947E120C947E120C947E120C947E12F0
:100050000C947E120C947E120C947E120C94071455
:100060000C947E120C947E120C947E120C947E12D0
:100070000C947E120C947E120C947E120C947E12C0
:100080000C94FF140C947E120C947E120C947E122D
:100090000C947E120C947E120C947E120C947E12A0
:1000A0000C947E120C947E120C947E122E298429BC
:1000B000EB29732A802A0F2B0F2B122BA52B332C05
:1000C00008080808080805050508080808080808B9
:1000D00008080808080808080808080808080808A0
:1000E00008080801010101010101010101010101EB
:1000F00001010101010101010101010101010101F0
:1001000001010108010101010101010101010101D8
:1001100001010101010101010101010101010101CF
:1001200001010101010101010101010101010101BF
:1001300001010101010101010101010101010101AF
:10014000010101010101010101010101010101019F
:10015000010102020201010101010101010101018C
:10016000010101010101010101010101010101017F
:10017000010101010808080101010101010101015A
:10018000010101010101010101010101010101015F
:100190000101010101010108080101010101010141
:1001A000010101010101010101010101010101013F
:1001B0000101010101010101010108010101010128
:1001C000010101010101010101010101010101011F
:1001D0000101010201010101010202040801010102
:1001E00001010101010101010101010101010101FF
:1001F00001010101010801010101010909090801C9
:1002000001010101010101010101010101010101DE
:1002100001010101010101080101010101080808B2
:1002200008010101010101010101010101010101B7
:1002300001010101010101010108010101010101A7
:100240000808010101010101010101010101010190
:100250000101010101010101010101080101010187
:100260000101080101010101010101010101010177
:100270000101010101010101010101010108010167
:100280000101010108010101010101010101010157
:100290000101010101010101010101010101010847
:1002A0000202010101010801010101010101010135
:1002B000010101010101010101010101010101012E
:1002C0000108080802010101080101010101010101
:1002D000010101010101010101010101010101010E
:1002E00001010108080808010101080101010101DB
:1002F00001010101010101010101010101010101EE
:1003000001010202040808080801010108010101B5
:1003100001010101010101010101010101010101CD
:10032000010101010909090808080803030308037A
:100330000303080202020202020202020202020295
:1003400002020202020200000000000000000000A1
:10035000000000000000000000000000000000009D
:100360000000000000000000080808080808050553
:100370000508080808080808080808080808080800
:100380000808080808080808080808010101010110
:10039000010101010101010101010101010101014D
:1003A0000101010101010101010101080101010136
:1003B000010101010101010101010101010101012D
:1003C000010101010101010101010101010101011D
:1003D000010101010101010101010101010101010D
:1003E00001010101010101010101010101010101FD
:1003F00001010101010101010101020202010101EA
:1004000001010101010101010101010101010101DC
:1004100001010101010101010101010108080801B7
:1004200001010101010101010101010101010101BC
:1004300001010101010101010101010101010108A5
:100440000801010101010101010101010101010195
:10045000010101010101010101010101010101018C
:100460000101080101010101010101010101010175
:10047000010101010101010101010102010101016B
:100480000102020408010101010101010101010150
:100490000101010101010101010101010108010145
:1004A000010101090909080101010101010101011D
:1004B0000101010101010101010101010101010825
:1004C0000101010101080808080101010101010100
:1004D000010101010101010101010101010101010C
:1004E00001080101010101010808010101010101E7
:1004F00001010101010101010101010101010101EC
:1005000001010108010101010101080101010101CD
:1005100001010101010101010101010101010101CB
:1005200001010101010801010101010108010101AD
:1005300001010101010101010101010101010101AB
:10054000010101010101010802020101010108018B
:10055000010101010101010101010101010101018B
:100560000101010101010101010808080201010165
:100570000801010101010101010101010101010164
:10058000010101010101010101010108080808013F
:100590000101080101010101010101010101010144
:1005A0000101010101010101010102020408080821
:1005B000080101010801010101010101010101011D
:1005C00001010101010101010101010109090908FC
:1005D00008080803030308030303080202020202D7
:1005E00002020202020202020202020202020000EF
:1005F00000000000000000000000000000000000FB
:1006000000000000000000000000000000000000EA
:10061000080808080808080808080808080808085A
:100620000605050506080808080808080808080857
:10063000080801010101010101010101010101019C
:10064000010101010101010101010101010101019A
:100650000101010801010101010101010101010183
:10066000010101010101010101010101010101017A
:10067000010101010A081201010101010101020643
:100680000201010101040202020202020101010150
:1006900001010101010A0808060601010101010129
:1006A0000606060101010106060606060606010108
:1006B0000101010101010108080801010101010115
:1006C00001010808080101010A01010101010101FC
:1006D0000A01010101010101010808080101010AE3
:1006E00001010101010101010101080303030303E9
:1006F00003030801010101010101010101010101DF
:1007000001080101010101010101010108080808B6
:1007100008080808080101010101010101010101A6
:1007200001010108010101010101010101010101B2
:1007300001010101010101010101010101010101A9
:100740000101010101080A010101010A0A04010174
:100750000101010101010101010101010101010189
:100760000A0A0A0401010108080A0101010909092C
:1007700001010101010101010A010101010A010157
:10078000010109090909010101080808010101081D
:100790000C08010101010101010A080A0101010817
:1007A0000A010101081008080A0A040808080101E2
:1007B00001010101010101010A0A040808080101FF
:1007C0000108080A0A0101010101090909080808CC
:1007D0000A040A0A0A0A0A0A0A0A09090908080888
:1007E000030303080808080303030303080B0808AE
:1007F000080808000000000000000000080F0808BA
:1008000008080000000000000000000000000101D6
:1008100001010101010101010101010101010101C8
:1008200001010101010101010101010101010101B8
:1008300001010101010101010101010101010101A8
:100840000101010101010101010101010101010198
:100850000101010101010101010101010101010188
:100860000101010101010101010101010101020276
:10087000020202020202020202040202020200005A
:100880000000000000000000000000000000D5F0A3
:100890008D14A1C881CFD9F1AF20000108FF040851
:1008A0003E09093E3F25251A1E2121123F21211E06
:1008B0003F2525213F0505011E21293A3F04043F1C
:1008C000213F21001021211F3F040A313F20202019
:1008D0003F02023F3F02043F1E21211E3F0909063D
:1008E0001E21112E3F09093622252519013F01013C
:1008F0001F20201F0F10201F3F10103F3B04043B00
:1009000003043807312D2321102A2A3C3F242418C0
:100910001C2222141824243F1C2A2A2C043E0501E0
:100920004C52523E3F040438243D20004040443D98
:100930003F081422213F20003E04043E3E04023CB6
:100940001C22221C7E22221C1C22227E3E04020427
:10095000242A2A12021F22201E20201E0E10201ED2
:100960003E10103E360808364E50503E322A26229F
:100970001E29251E223F2000322929261221251A50
:100980000C0A3F08172525191E25251801390503CE
:100990001A25251A0629291E002F00000020000014
:1009A000022905020004040080400000000000004D
:1009B000000000000000000000000000303030F0B7
:1009C000F0303030C0E07030303070E0C00000F007
:1009D000F0303030F0E0000000000000F0F0303087
:1009E0003070E0C00000F0F030303030F0E0000057
:1009F000F0F00010F0E0000000E0F01000F0F03047
:100A0000303030300000F0F030303030F0E00000B6
:100A1000E0F03030307060000000000000000000A6
:100A200000000000000000000000000000000000C6
:100A30000000000000000000000000000000002B8B
:100A40002B0000000B0B28202020280B0B00002B74
:100A50002B03030303010000000000002B2B2020C8
:100A600020280B0B00002B2B0303030B2920200055
:100A70002B2B000000032B282B030000002B2B2323
:100A80002323232300002B2B0303030B2920200007
:100A9000092B2323232B0A00000000000000000084
:100AA0000000000000000000000080808080808046
:100AB00080808080808080808080808082848404A8
:100AC000C404040404040404040404040404040426
:100AD00004040404040404040404040404040404D6
:100AE00004040404040404040404040404040404C6
:100AF00004040404040404040404040404040404B6
:100B000004040404040404040404040404040404A5
:100B10000404040404C4048484828080808080806F
:100B200080808080808080808080FFFDFFFDFFFDD1
:100B3000FFFDFFFDFFFDFFFDFFFDFFFDFFFDFF00D2
:100B4000FF000000000000000000000000000000A6
:100B50000000000000000000000000000000000095
:100B60000000000000000000000000000000000085
:100B70000000000000000000000000000000000075
:100B80000000000000000000000000000000000065
:100B90000000000000FF00FDFFFDFFFDFFFDFFFD69
:100BA000FFFDFFFDFFFDFFFDFFFDFDFAFDFAFDFA74
:100BB000FDFAFDFAFDFAFDFAFDFAFDFAFDFAFD0077
:100BC000FF00000000000000000000000000000026
:100BD0000000000000000000000000000000000015
:100BE0000000000000000000000000000000000005
:100BF00000000000000000000000000000000000F5
:100C000000000000000000000000000000000000E4
:100C10000000000000FF00FAFDFAFDFAFDFAFDFAFF
:100C2000FDFAFDFAFDFAFDFAFDFAD5ABD5ABD5AB71
:100C3000D5ABD5ABD5ABD5ABD5AB552B552B95009F
:100C4000FF000000000000000000000000000000A5
:100C50000000000000000000000000000000000094
:100C60000000000000000000000000000000000084
:100C70000000000000000000000000000000000074
:100C80000000000000000000000000000000000064
:100C90000000000000FF0013254B858B152BD5AB02
:100CA000D5ABD5ABD5ABD5ABD5ABFFFFFFFFFF7F4A
:100CB0007F3F9F8F47272311090404020101000091
:100CC000FF00000000000000000000000000000025
:100CD0000000000000000000000000000000000014
:100CE0000000000000000000000000000000000004
:100CF00000000000000000000000000000000000F4
:100D000000000000000000000000000000000000E3
:100D10000000000000FF00000000000001020408C5
:100D2000111327478F1F3F7F3F7F231111080402B4
:100D300002010000000000000000000000000000B0
:100D40007F808080808080808080808080808080A4
:100D50008080808080808080808080808080808093
:100D60008080808080808080808080808080808083
:100D70008080808080808080808080808080808073
:100D80008080808080808080808080808080808063
:100D900080808080807F0000000000000000000054
:100DA00000000000000101020408F9F9F9F9F9F95D
:100DB000F9F90101010101010101F9F9F9F9F9F963
:100DC000F9F90101010101010101F9F9F9F9F9F953
:100DD000F9F90101010101010101F9F9F9F9F9F943
:100DE000F9F90101010101010101F9F9F9F9F9F933
:100DF000F9F90101010101010101F9F9F9F9F9F923
:100E0000F9F90101010101010101F9F9F9F9F9F912
:100E1000F9F90101010101010101F9F9F9F9F9F902
:100E2000F9F901010101010101010707070707079E
:100E30000707F8F8F8F8F8F8F8F8070707070707BA
:100E40000707F8F8F8F8F8F8F8F8070707070707AA
:100E50000707F8F8F8F8F8F8F8F80707070707079A
:100E60000707F8F8F8F8F8F8F8F80707070707078A
:100E70000707F8F8F8F8F8F8F8F80707070707077A
:100E80000707F8F8F8F8F8F8F8F80707070707076A
:100E90000707F8F8F8F8F8F8F8F80707070707075A
:100EA0000707F8F8F8F8F8F8F8F8F8F8F8F8F8F8A4
:100EB000F8F80707070707070707F8F8F8F8F8F83A
:100EC000F8F80707070707070707F8F8F8F8F8F82A
:100ED000F8F80707070707070707F8F8F8F8F8F81A
:100EE000F8F80707070707070707F8F8F8F8F8F80A
:100EF000F8F80707070707070707F8F8F8F8F8F8FA
:100F0000F8F80707070707070707F8F8F8F8F8F8E9
:100F1000F8F80707070707070707F8F8F8F8F8F8D9
:100F2000F8F807070707070707070707070707076F
:100F30000707F8F8F8F8F8F8F8F8070707070707B9
:100F40000707F8F8F8F8F8F8F8F8070707070707A9
:100F50000707F8F8F8F8F8F8F8F807070707070799
:100F60000707F8F8F8F8F8F8F8F807070707070789
:100F70000707F8F8F8F8F8F8F8F807070707070779
:100F80000707F8F8F8F8F8F8F8F807070707070769
:100F90000707F8F8F8F8F8F8F8F807070707070759
:100FA0000707F8F8F8F8F8F8F8F8F8F8F8F8F8F8A3
:100FB000F8F80707070707070707F8F8F8F8F8F839
:100FC000F8F80707070707070707F8F8F8F8F8F829
:100FD000F8F80707070707070707F8F8F8F8F8F819
:100FE000F8F80707070707070707F8F8F8F8F8F809
:100FF000F8F80707070707070707F8F8F8F8F8F8F9
:10100000F8F80707070707070707F8F8F8F8F8F8E8
:10101000F8F80707070707070707F8F8F8F8F8F8D8
:10102000F8F807070707070707070707070707076E
:101030000707F8F8F8F8F8F8F8F8070707070707B8
:101040000707F8F8F8F8F8F8F8F8070707070707A8
:101050000707F8F8F8F8F8F8F8F807070707070798
:101060000707F8F8F8F8F8F8F8F807070707070788
:101070000707F8F8F8F8F8F8F8F807070707070778
:101080000707F8F8F8F8F8F8F8F807070707070768
:101090000707F8F8F8F8F8F8F8F807070707070758
:1010A0000707F8F8F8F8F8F8F8F8F8F8F8F8F8F8A2
:1010B000F8F80707070707070707F8F8F8F8F8F838
:1010C000F8F80707070707070707F8F8F8F8F8F828
:1010D000F8F80707070707070707F8F8F8F8F8F818
:1010E000F8F80707070707070707F8F8F8F8F8F808
:1010F000F8F80707070707070707F8F8F8F8F8F8F8
:10110000F8F80707070707070707F8F8F8F8F8F8E7
:10111000F8F80707070707070707F8F8F8F8F8F8D7
:10112000F8F807070707070707078787878787876D
:1011300087879898989898989898878787878787B7
:1011400087879898989898989898878787878787A7
:101150008787989898989898989887878787878797
:101160008787989898989898989887878787878787
:101170008787989898989898989887878787878777
:101180008787989898989898989887878787878767
:101190008787989898989898989887878787878757
:1011A0008787989898989898989853434F52453ABB
:1011B0000047414D45204F56455200FFFFFFFFFFBE
:1011C000FFFFFFFFFFFFFFFFFFFFFFFFFFFFFFFF2F
:1011D000FFFFFFFFFFFFFFFFFFFFFFFFFFFFFFFF1F
:1011E000FFFFFFFFFFFFFFFFFFFFFFFFFFFFFFFF0F
:1011F000FFFFFFFFFFFFFFFFFFFFFFFFFFFFFFFFFF
:10120000FFFFFFFFFFFFFFFFFFFFFFFFFFFFFFFFEE
:10121000FFFFFFFFFFFFFFFFFFFFFFFFFFFFFFFFDE
:10122000FFFFFFFFFFFFFFFFFFFFFFFFFFFFFFFFCE
:10123000FFFFFFFFFFFFFFFFFFFFFFFFFFFFFFFFBE
:10124000FFFFFFFFFFFFFFFFFFFFFFFFFFFFFFFFAE
:10125000FFFFFFFFFFFFFFFFFFFFFFFFFFFFFFFF9E
:10126000FFFFFFFFFFFFFFFFFFFFFFFFFFFFFFFF8E
:10127000FFFFFFFFFFFFFFFFFFFFFFFFFFFFFFFF7E
:10128000FFFFFFFFFFFFFFFFFFFFFFFFFFFFFFFF6E
:10129000FFFFFFFFFFFFFFFFFFFFFFFFFFFFFFFF5E
:1012A000FFFFFFFFFFFFFFFFFFFFFFFFFFFFFFFF4E
:1012B000FFFFFFFFFFFFFFFFFFFFFF1F1F1F1F1F9E
:1012C0001F1F1F1F1F1F1F1F1F1F1F1F1F1F1F1F2E
:1012D0001F1F1F1F1F1F1F1F1F1F9FDFFFFFFFFF5E
:1012E000FFFFFFFFFFFFFFFFFFFFFFFFFFFFFFFF0E
:1012F000FFFFFFFFFFFFFFFFFFFFFFFFFFFFFFFFFE
:10130000FFFFFFFFFFFFFFFFFFFFFFFFFFFFFFFFED
:10131000FFFFFFFFFFFFFFFFDF9F1F1F1F1F1F1F9D
:101320001F1F1F1F1F1F1F1F1F1F1F1F1F1F1F1FCD
:101330001F1F1F1F1F1F1F1F1F1F1F000000000058
:10134000000000000000000000000000000000009D
:1013500000000000000000040E1F1F1F1F1F1F1FA2
:101360000F0F0F0F0F0F1F1FFFFFFFFFFFFFFFFFED
:10137000FFFFFFFFFFFFFFFFFFFFFFFFFFFFFFFF7D
:10138000FFFFFFFFFFFFFFFFFFFFFF7F3F1F1F1F4D
:101390001F1F1F1F1F1F1F1F1F1F1F1E1C1E1C186C
:1013A000000000000000000000000000000000003D
:1013B000000000000000000000000000000000002D
:1013C000000000000000000000000000000000001D
:1013D000000000000000000000000000000000000D
:1013E00000000000000000000F3F7FFFFFFFFFFF35
:1013F000FFFFFFFFFFFFFFFFFF7F7F7FFFFFFFFF7D
:10140000FFFFFFFFFFFFFFFFFFFFFFFFFE3C0000AE
:1014100000000000000000000000000000000000CC
:1014200000000000000000000000000000000000BC
:1014300000000000000000000000000000000000AC
:10144000000000000000000000000000000000009C
:10145000000000000000000000000000000000008C
:101460000000000000000000000000000103030372
:10147000030303010303030301000000010303034B
:10148000030103030303030303030101000000003E
:10149000000000000000000000000000000000004C
:1014A000000000000000000000000000000000003C
:1014B0000000000000000000000000802AFAFA028C
:1014C00002020202FAFAFAFAFA0202020202FAFA34
:1014D000FAFAFA0202020202FAFAFAFAFA00000032
:1014E000E0F8F8FC9C1C1C1C38000000FCFCFCFC18
:1014F0001C1C1CFCFCF8F00000C0FCFC7CFCFCC0CC
:1015000000000080E0F0F8783C1C1C1C3C0000FC53
:10151000FCFCFC1C1C1C1C1C1C000000FAFAFAFA47
:10152000FA0202020202FAFAFAFAFA0202020202CB
:10153000FAFAFAFAFA0202020202FAFAFAE0E01FF2
:101540001F1F1F1FE0E0E0E0E01F1F1F1F1FE0E064
:10155000E0E0E01F1F1F1F1FE0E0E0E0E0000000F0
:10156000808103070F9EFEFCF8F00000FFFFFFFFE5
:101570000E0E0F0F070701E0FCFFFFEFE0EFFFFF8C
:10158000FEE0003FFFFFFFC080000000800000FF82
:10159000FFFFFF0E0E0E0E0E0E000000E0E0E0E07A
:1015A000E01F1F1F1F1FE0E0E0E0E01F1F1F1F1FC5
:1015B000E0E0E0E0E01F1F1F1F1FE0E0E00B0B0872
:1015C000080808080B0B0B0B0B08080808080B0B86
:1015D0000B0B0B08080808080B0B0B0B0B0040202B
:1015E000432747A747A747A341008040A747A7072E
:1015F0000000000000002647A747014000400147C7
:10160000A7472600004123472747274727400007D1
:101610002747A747A7472747274000000B0B0B0B7F
:101620000B08080808080B0B0B0B0B080808080828
:101630000B0B0B0B0B08080808080B0B0B0000002A
:10164000000000000000000000000000000000009A
:1016500000000000000000000000040A050A050860
:1016600005080500000000040A050AE5FAFDFE1E53
:101670000F0707070F00000002F0FFFF1FFFFFF03A
:1016800082000000FFFFFFFF87C7FFFF7E3C0004D2
:101690000800000102050A050805080508040804F9
:1016A0000800000000000000000000000000000032
:1016B000000000000000000000000000000000002A
:1016C000000000000000000000000000000000001A
:1016D000000000000000000000000000000000000A
:1016E00000000000000000000000000F3565DFB0C2
:1016F00060404040E00080780F854F2B282B4F85BD
:101700000F788000FF05057F4343651F86E63C0098
:1017100000000000000000000000000000000000C9
:1017200000000000000000000000000000000000B9
:1017300000000000000000000000000000000000A9
:101740000000000000000000000000000000000099
:101750000000000000000000000000000000000089
:101760000000000000000000000000000000000178
:10177000010101010100010101010000000000015F
:10178000010101000101010101010101000000004E
:101790000000000000000000000000000000000049
:1017A0000000000000000000000000000000000039
:1017B00000000000000000000000000000232304DF
:1017C000145451471F7FFFFFFCE00000FFFFFFFFA5
:1017D000FFFFFF0F000000000000000000008080FD
:1017E00000000000000105151451470F3FFFF8FFEE
:1017F000FFFFFFFFFF03E0F0F8FC0C46160F0F7F22
:101800001F47110401000000000000000001051442
:1018100050430F3FFFFF3F0000E3E7E7C7C64564C3
:101820003C405000000000000000000000000010DC
:101830001010901011951490911010931311959011
:1018400012909190101010000000000000000000A5
:101850000000000000010601000506060003040365
:101860000007020000070000000000000000000068
:10187000000ECEFEF8F8F8F8F8F8F8F0F0E7E7E731
:10188000FCFC7C707000000000000E0EEEE1EF0F1B
:101890007F7F7F0F0F0F1F1F1F1FDFDFDF1F1E1C2C
:1018A0000000000000000000000000000000000038
:1018B0000000000000010101000000000000000025
:1018C00000000070707CFCFCE7E7E7F0F0F8F8F847
:1018D000F8F8F8F8FECE0E000000000000001C1E14
:1018E0001FDFDFDF1F1F1F1F0F0F0F7F7F7F0FEF18
:1018F000E1EE0E0E000000000000000001010100FA
:1019000000000000000000000000000000000000D7
:10191000000007E7F7FCFCFCFCF8F8F8E0E7F7FF4D
:10192000FCFCA00E8EBEF8F8E0000000EEEEEF8F9B
:101930008F7F7FFFEFEF0F07071D1F1FFFF8FC1FB3
:101940003F3F3C00000000000003030300000000D4
:101950000000000000000001010100000000000084
:10196000000000E0F8F8BE8E0EA0FCFCFFF7E7E0F8
:10197000F8F8F8FCFCFCFCF7E70700000000003C6E
:101980003F3F1FFCF8FF1F1F1D07070FEFEFFF7FF3
:101990007F8F8FEFEEEE00000000000000000101DD
:1019A000010000000000000000000000030303002D
:1019B00000000000E0F8F8BE8E8EE0FCFCFFC7F7E8
:1019C00070F0D0F0F83CFEFEF7E3031C1C000000B2
:1019D000787F7F3FF1F1C70E0F0F7F76778F8FEF04
:1019E000EEEE8E80EEEEEE00000000000000000142
:1019F00001010000000000000303030000030303D3
:101A00000000001C1C03E3F7FEFE3CF8F0D0F07071
:101A1000F7C7FFFCFCE08E8EBEF8F8E0000000EE99
:101A2000EEEE808EEEEEEF8F8F77767F0F0F0EC784
:101A3000F1F13F7F7F780000000000000303030006
:101A4000000303030000000000000101010000008A
:101A5000000000000000E0E7E70700000E0E0E07A0
:101A600007070000000E0E0E00707077071F1C00A5
:101A70003838380ECECEC0000000808080000000D4
:101A8000808080000000EEEEEE000000000000010B
:101A9000010100000003030300000003030303032C
:101AA00003000000001C1F07777070000E0E0E0070
:101AB00000000707070E0E0E000007E7E7E0000032
:101AC00000EEEEEE0000008080800000008080804C
:101AD000000000C0CECE0E383838000000000003F1
:101AE00003030303030000000303030000000101DC
:101AF00001000000000070F8FEFFFFFFFFFFFFFE87
:101B0000FEFFFFFFFAF06060F0FAFFFFFFFEFEFF4E
:101B1000FFFFFFFFFFFEF8701B12000000000480B3
:101B2000C070F0F090002060C080A2E0A00800200B
:101B30000000000000000004004000040026000433
:101B4000000707000E020C820A020C0000000000D1
:101B50000000000000000000000000000000000085
:101B60000000000000000000000000000000000075
:101B7000200008A0E0A280C060200090F0F070C0BB
:101B800080040000000000000000000C020A820C2B
:101B9000020E0007070004002600040040000400B5
:101BA0000000000000000000000000000000000035
:101BB0000000000000000000000000001B120000F8
:101BC00000024060387800F090002060C280A8E0F9
:101BD000A0000400104000000000004400000004C9
:101BE00020064004000707000E02009804140518A0
:101BF00000000000000000000100000000000000E4
:101C000000000000000000000000000000000000D4
:101C100000004010000400A0E0A880C260200090F6
:101C2000F000783860400200000000000000180555
:101C300014049800020E0007070004400620040068
:101C40000000440000000000000000000000000050
:101C50000000000000000000000000010000000083
:101C60001B120800000140600C1800B0900020001A
:101C700082002860A0000400104000000000004422
:101C80000000000440060004002206000602008056
:101C900020000930000000000000000001000000EA
:101CA0000001000000000000000000000000000033
:101CB0000000000000004010000400A06028008226
:101CC00000200090B000180C6040010000080000E7
:101CD00000003009002080000206000622000400F7
:101CE0000640040000004400000000000000000066
:101CF00000000000000000000000010000000001E2
:101D0000000000001B120800020020000000040078
:101D1000000000000200000400000000024000007B
:101D2000000000440000000000000000000000006F
:101D3000000000000080040000100000000000000F
:101D4000000200000100000000000100000000008F
:101D50000000000000000000000040020000000041
:101D60000400000200000000000400000020000247
:101D700000080000100000048000000000000000C7
:101D8000000000000000000000004400000000000F
:101D90000000000000000000000100000000000141
:101DA000000002000000000011080070186E1E5EA6
:101DB0001272767C186A1E5A1060000060105A1E5B
:101DC0006A187C7672125E1E6E1870000D9F2D9739
:101DD0000D9F2D9700000000000000004040404093
:101DE000404040400A0101121201010A40404F09DF
:101DF000ED094F400502050205020502A54299B50D
:101E0000A59942A55A8739D6D639875A5A8739D6DD
:101E1000D639875A825A9A42985A9A584050406006
:101E2000405040605A830188BC01815A5A8301A402
:101E3000B429815A5A8301A4AC3D815A5A83018C3A
:101E4000883D815A5A8301ACB435815A5A8301BC0A
:101E5000A839815A5A830184B40D815A00003E0A80
:101E60000A020000FF7F3F1F0F07030110387CFEAE
:101E7000FFFF00000000000001010000FFFEFCF871
:101E8000F0E0C0800103070F1F3F7FFF0000FFFF4E
:101E9000FE7C3810000001010000000080C0E0F06E
:101EA000F8FCFEFF30383C3E3F3E3C38300808002E
:101EB0003E1E0E0602000008090010387CFE0000DD
:101EC0000000000000000000000808007C7870603E
:101ED0004000000808000002060E1E3E000809002F
:101EE0000000FE7C38100000000000000000000828
:101EF000080000406070787C0009080010181C1E63
:101F00001C1810000C1C3C7CFC7C3C1C0C090800C0
:101F10000818387838180800087CFE7FFE67020829
:101F20007CFE7FFE6E0407080008641E6402000049
:101F300008641E64040004083E09093E3F25251A72
:101F40001E2121123F21211E3F2525213F0505018C
:101F50001E21293A3F04043F213F21001021211F67
:101F60003F040A313F2020203F02023F3F02043F4E
:101F70001E21211E3F0909061E21112E3F09093687
:101F800022252519013F01011F20201F0F10201FAE
:101F90003F10103F3B04043B03043807312D23213D
:101FA000102A2A3C3F2424181C2222141824243FDF
:101FB0001C2A2A2C043E05014C52523E3F04043890
:101FC000243D20004040443D3F081422213F200092
:101FD0003E04043E3E04023C1C22221C7E22221CA3
:101FE0001C22227E3E040204242A2A12021F2220DE
:101FF0001E20201E0E10201E3E10103E36080836F1
:102000004E50503E322A26221E29251E223F2000F5
:10201000322929261221251A0C0A3F0817252519CD
:102020001E252518013905031A25251A0629291EFA
:10203000002F000000200000022905020004040017
:1020400001020408102040800102040506060E0863
:102050000102040506060E08010C0A09080D10030A
:1020600020090C060002070E070200000002070EFE
:10207000070200000000000207020000000000024A
:10208000070200000000110400000204020000002A
:102090000000020402000000000000000200000036
:1020A0000000000002000000000000000002070E17
:1020B000070200000002070E0702000000000002F5
:1020C00007020000000000020702000011040000E7
:1020D00000000204020000000000020402000000F0
:1020E00000000000020000000000000002000000EC
:1020F000FCFEFFFFFFFFFFFFFFFFFFFFFFFFFFFFF4
:10210000FFFFFFFFFFFFFFFFFFFEFC0101010101D9
:1021100001010101010101010101010101010101AF
:102120000101010101011B0900FC02E2120A6A8A95
:1021300012E202020202020202020202020202028F
:1021400002FC00000100000100000001000000008E
:102150000000000000000000000000000100FCFE84
:10216000FFFFFFFFFFFFFFFFFFFFFFFFFFFFFFFF7F
:10217000FFFFFFFFFFFFFFFFFFFFFFFFFFFFFFFF6F
:10218000FFFFFFFFFFFFFEFC010101010101010153
:10219000010101010101010101010101010101012F
:1021A000010101010101010101010101010101011F
:1021B00001012A0900FC027252FA52D202420202C2
:1021C00002020202020202020202020202020202EF
:1021D000020202020202020202020202FC000001EA
:1021E00000010101010100010000000000000000E9
:1021F00000000000000000000000000000000000DF
:1022000000000000000001000000000000000000CD
:1022100000000000000000000000000000000000BE
:1022200000000000000000000000000000E8FCFFCB
:10223000FFFF7E2E000000000000000000000000F4
:1022400000000000000000808080E0E0E0808080EE
:1022500080000000000000000000000000000000FE
:10226000747EFFFFFF3F3F7F7FFFFFFF3F170000B0
:102270000000000000000000008080800000A0F04E
:10228000FCFCFCF8B800008080800000000000002A
:102290000000747EFFFFFF3F1703030707070100DD
:1022A000747EFFFFFF3F17000000000000008080E9
:1022B00080000000D0F8FEFEFEFC5C000000808084
:1022C00080000000000000747EFFFFFF3F17000148
:1022D00001030303000000747EFFFFFF3F170000AF
:1022E00000008080800000000000E8FCFFFFFF7E0F
:1022F0002E00000000008080800000747EFFFFFF41
:102300003F17000000000001010100000000007400
:102310007EFFFFFF3F171B100000000000000000C1
:1023200000000000000000000000000000000000AD
:102330000000000000000000000000000000485401
:10234000FE54240000000000000000000000000017
:102350000000000000000000000080C0808000003D
:10236000000000000000000000000000000000006D
:10237000242A7F2A110A1F0A242A7F2A1200000019
:10238000000000000000000000000000000000202D
:1023900050F8509000000000000000000000000015
:1023A000000000242A7F2A1200000101030100001E
:1023B00000242A7F2A120000000000000000000014
:1023C000000000000090A8FCA848000000000000E9
:1023D0000000000000000000242A7F2A12000000F4
:1023E0000000010000000000242A7F2A12000000E3
:1023F00000000000000000000000004854FE5424CB
:10240000000000000000000000000000242A7F2AD5
:1024100012000000000000000000000000000000AA
:10242000242A7F2A1200204C6976657320004C65AF
:1024300076656C2000080B0002020201000904000E
:102440000001020200000524001001052401010121
:10245000042402060524060001070581031000403C
:1024600009040100020A0000000705020240000002
:10247000070583024000000403090412010002EF73
:1024800002014041233680000101020301417264D0
:1024900075696E6F204C4C430041726475696E6FB4
:1024A000204C656F6E6172646F002E3411241FBE64
:1024B000CFEFDAE0DEBFCDBF12E0A0E0B1E0E0E7B1
:1024C000FDE602C005900D92AA3BB107D9F727E0BF
:1024D000AAEBB2E001C01D92A839B207E1F712E100
:1024E000C6E5D2E104C02197FE010E949135C535B1
:1024F000D107C9F70E9471270C94B6360C940000DE
:10250000CF93DF931F92CDB7DEB76983DC01ED91E6
:10251000FC910280F381E02D41E050E0BE016F5F4D
:102520007F4F09950F90DF91CF91089583E08093BD
:10253000E9008091F200882319F08AE38093E80093
:102540000895FC018485958597FD0BC09FB7F8948D
:1025500082E08093E9008091F2009FBF90E00196B5
:1025600008959FB7F89482E08093E9008091F2008B
:102570009FBF90E008958091ED06E091EB06F09109
:10258000EC06882349F0CF0102969093EC068093E5
:10259000EB06859194910895CF0102969093EC06F5
:1025A0008093EB068081918108958091BD0208950A
:1025B0000895089580E090E008950E944C2790E0EF
:1025C0000895CF93DF931F92CDB7DEB7FC018485CA
:1025D000958597FD05C02FEF3FEF358724870BC00A
:1025E000CE0101960E942227019719F4898190E07B
:1025F00002C08FEF9FEF0F90DF91CF9108950F935F
:102600001F93CF93DF931F92CDB7DEB78C01FC01F0
:102610008485958597FF0EC0CE0101960E942227E2
:10262000019719F4298130E002C02FEF3FEFF80144
:1026300035872487F801848595850F90DF91CF91A8
:102640001F910F9108953FB7F8948091DC0290910B
:10265000DD02A091DE02B091DF0226B5A89B05C085
:102660002F3F19F00196A11DB11D3FBFBA2FA92F11
:10267000982F8827820F911DA11DB11DBC01CD018E
:1026800042E0660F771F881F991F4A95D1F708957A
:102690008F929F92AF92BF92CF92DF92EF92FF9272
:1026A0006B017C010E9423134B015C01C114D10416
:1026B000E104F104F1F00E942313DC01CB0188193D
:1026C0009909AA09BB09883E9340A105B10570F399
:1026D00021E0C21AD108E108F10888EE880E83E0F3
:1026E000981EA11CB11CC114D104E104F10419F716
:1026F000DDCFFF90EF90DF90CF90BF90AF909F9095
:102700008F9008958F929F92AF92BF92CF92DF9257
:10271000EF92FF920F931F93CF93DF935C016B01B6
:102720007A0180911401882309F45BC08091E8024A
:10273000882309F456C08091BB0280FF05C08091B8
:10274000E00082608093E000E70110E00AEF83E0A0
:10275000882E9AE3992E2097D9F10E944C27811157
:102760000AC0015009F43DC061E070E080E090E0F3
:102770000E944813F0CF282F30E0C217D3070CF483
:102780008C2F4FB7F8948092E9009091E80095FF64
:102790001DC0282F30E0C21BD30BF601982F91509B
:1027A00020F081918093F100FACFC20ED31E112345
:1027B00019F09092E80009C08091E80085FD06C0FC
:1027C0009092E80011E0209709F010E04FBFC3CFCE
:1027D0001111C3CF5D9884E68093E2021E141F049A
:1027E00044F081E090E0F5019383828380E090E003
:1027F00001C0C701DF91CF911F910F91FF90EF9022
:10280000DF90CF90BF90AF909F908F9008951F92D0
:102810000F920FB60F9211242F933F938F939F9394
:10282000AF93BF938091BE029091BF02A091C0026E
:10283000B091C1023091DB0223E0230F2D3720F449
:102840000196A11DB11D05C026E8230F0296A11D0A
:10285000B11D2093DB028093BE029093BF02A09330
:10286000C002B093C1028091DC029091DD02A09180
:10287000DE02B091DF020196A11DB11D8093DC0242
:102880009093DD02A093DE02B093DF02BF91AF917F
:102890009F918F913F912F910F900FBE0F901F909E
:1028A0001895CF92DF92EF92FF920F931F93CF93E1
:1028B000DF930E94BB12811520E8920761F480919A
:1028C00071008D7F80937100109291004698479817
:1028D0001092D4028BC021E02093D402813020E8F2
:1028E000920751F48091E9069091EA069093EC06E4
:1028F0008093EB060E94BB1297FD05C02091D30286
:10290000222309F43FC02091D20221113BC021E0D3
:102910002093D502EC01DF77209769F481E0809362
:10292000D60246983FE9C32E3FE0D32EE12CF12C8E
:10293000CAEFD0E014C08E0120E030E060E472E421
:102940008FE090E0A90198010E940E3569017A019B
:1029500081E0C81AD108E108F1081092D602E0918E
:102960004C07F0914D070995811103C081E08093D8
:10297000D6028091D5028823B9F18091D6028111C7
:1029800033C003C01092D502C5CF46992DC0479AD7
:102990000E94BB12009771F09C01DE010E9462351B
:1029A000DC01CB0129E0B595A795979587952A95E8
:1029B000D1F703C08FEF9FEFDC01109290002AE067
:1029C00020939100D0929900C09298008093D702F2
:1029D0009093D802A093D902B093DA02809171004B
:1029E00082608093710002C04798D2CFDF91CF916F
:1029F0001F910F91FF90EF90DF90CF9008951F925D
:102A00000F920FB60F9211242F933F934F935F9322
:102A10006F937F938F939F93AF93BF93EF93FF93A6
:102A20008091D7029091D802A091D902B091DA0298
:102A3000892B8A2B8B2B81F18091D60281110BC0BF
:102A400098B180E4892788B98091D502882319F04C
:102A500088B1805888B98091D7029091D802A0910E
:102A6000D902B091DA02181619061A061B06B4F438
:102A70008091D7029091D802A091D902B091DA0248
:102A80000197A109B1098093D7029093D802A0932E
:102A9000D902B093DA0202C00E945114FF91EF9163
:102AA000BF91AF919F918F917F916F915F914F9166
:102AB0003F912F910F900FBE0F901F9018956F921E
:102AC0007F928F929F92AF92BF92CF92DF92EF92BE
:102AD000FF920F931F93CF93DF9300D000D0CDB719
:102AE000DEB73A014115510509F401C2FA01F4902B
:102AF00031965491F2E06F0E711CAF2CB12C211164
:102B000002C0EE2069F1A52FA695A695A695B0E086
:102B1000E1E0F0E0352F377011F4E0E0F0E0AE0FC7
:102B2000BF1FAA9EF001AB9EF00DBA9EF00D1124BE
:102B3000A3E08A2EC81003C0EE0FFF1F0AC00115C4
:102B4000110539F0EE9ED001EF9EB00D11240A0F51
:102B50001B1F2E9FD0012F9FB00D11246A0E7B1ECC
:102B60002FEFC21208C00115110519F0CC24C3942F
:102B700002C032E0C32EDC01AA0DBB1D1A161B06D3
:102B80000CF0B5C1803891050CF0B1C19B01250F47
:102B9000311D121613060CF0AAC1603471050CF039
:102BA000A6C16114710409F4A2C1362F3770932EA7
:102BB000FB0177FD379623E0F595E7952A95E1F738
:102BC0002E2F77FF04C0992011F02FEF2E0F97FFC3
:102BD00005C0EE27FF27E81BF90B02C0E0E0F0E09C
:102BE000A038B1051CF030E8381B01C03F2D3E1B5A
:102BF000622F022E000C770B2F3F1CF4462F4095BE
:102C000001C040E0B1E0A52FA77009F4B0E05695EF
:102C100056955695DB2ED50E6D0D711D69307105DB
:102C20001CF058E0D52ED21AD41A240FDC0150E83B
:102C30002503A00DB11D1124AE0FBF1F4F9DE00D48
:102C4000F11D1124A3014E0F5F1F81E090E07C0174
:102C5000092C02C0EE0CFF1C0A94E2F783E0C816B0
:102C600009F404C18C15A8F091E0C91609F4B5C0A7
:102C7000E2E0CE123CC18FEF8E9DB0018F9D700DB2
:102C80001124609570957C836B837C806D2C620E23
:102C90002BC0FAEFCF1631F09BEF892EC81027C159
:102CA000D20E87C0D20E51C0FA01E00FF11FE4919D
:102CB000EE9D6001EF9DD00C1124DA82C98227FDC0
:102CC00007C0FC01D080ED2DE623CE2AFC01C08296
:102CD000911013C00F5F1F4F0196031728F32F5F4A
:102CE0004A0D5B1DA058BF4F261509F400C1CD0148
:102CF00087519D4F00E010E0F0CF27305CF7FC01DA
:102D0000E058FF4FC080C7208A80C828C082E2CF29
:102D1000FA01E60FF71FE491EE9D8001EF9D100D83
:102D200011241A83098327FD04C0FC011081012BA3
:102D30000083911013C06F5F7F4F0196631740F3BC
:102D40002F5F4A0D5B1DA058BF4F2D1509F4CFC052
:102D5000CD0187519D4F60E070E0F0CF27305CF7E8
:102D60008C0100581F4FF801C080FA81CF2AF8016A
:102D7000C082E1CFFA01E00FF11FE491EE9DC001A6
:102D8000EF9D900D11249A83898327FD05C08095BE
:102D9000FB01908189238083911014C00F5F1F4F26
:102DA0006F5F7F4F031730F32F5F4A0D5B1DA058F5
:102DB000BF4F2D1509F49BC0BD0167517D4F00E049
:102DC00010E0F0CF273054F7FB01E058FF4F8A8125
:102DD0008095908189238083E1CF0E0F1F1F8D2C5A
:102DE000820E281509F483C0CD0187519D4F6C01D7
:102DF00060E070E0631790F5F801E60FF71FE491CB
:102E0000EE9DC001EF9D900D1124809590959C83BF
:102E10008B83FA01E60FF71FE491EE9D3001EF9DE1
:102E2000700C11247A82698227FD05C0F601908119
:102E30008923682A6082992059F027304CF4F601E2
:102E4000E058FF4F90818C8189239A81892B808360
:102E50006F5F7F4FFFEFCF1ADF0ACCCF2F5F4A0D96
:102E60005B1D0A0D1B1DA058BF4FBBCF832F90E0E9
:102E7000E40FF51FA751BD4F60E870E0681B790BA8
:102E8000A81AB90A8501000F111F5D2D832ECF935B
:102E9000DF93ED01EF96EF962296A590C5909920CD
:102EA00059F0AE9C5001CE9C600127302CF4F88084
:102EB000D094FD20FB28F99222233AF0FC90C09494
:102EC000FC20FA28FD920C94661711963A9529F782
:102ED0005A9551F0382D23951124E00FF11DA60FBE
:102EE000B11DC60FD11DD9CFDF91CF9111240F9005
:102EF0000F900F900F90DF91CF911F910F91FF9046
:102F0000EF90DF90CF90BF90AF909F908F907F9089
:102F10006F900895CF92EF920F931F933BEFC32EC4
:102F2000E12C00E010E00E945F151F910F91EF90DF
:102F3000CF900895CF92EF920F931F93CF93DF938B
:102F4000FC0196816A3031F4858184836185960F16
:102F5000968342C0262FEF01848161E0690F2F33F1
:102F6000A1F164F42E32A1F01CF42132A9F027C0A3
:102F700090ED920F9A3018F52C5F0FC02134FCF0C1
:102F80002B3544F09FE9920F9A31C8F4275405C0BD
:102F90002FE303C0215401C02EE33F81062E000C15
:102FA000770B082E000C990B313089F43AEFC32EC1
:102FB000E12C00E010E046E35FE10E945F158885A8
:102FC0008C5F9C81890F8C8307C020E4E6CF46E3A9
:102FD0005FE10E948A17F3CF81E090E0DF91CF910B
:102FE0001F910F91EF90CF900895CF92EF920F9392
:102FF0001F9332E0C32EE12C00E010E00E945F1529
:103000001F910F91EF90CF900895BC0180E090E068
:103010000C9448138FB18095807F669B88601C9BC1
:1030200084600895FC01840F911D18161906E4F5BB
:10303000E038F105CCF5F7FF02C0E0E0F0E08138C0
:10304000910514F080E890E0382F3E1BAB0177FF2C
:1030500002C0495F5F4F83E0559547958A95E1F738
:103060005695542F442757954795E40FF51FE75180
:10307000FD4F6770772781E090E001C0880F6A9567
:10308000EAF7482F222349F0213071F4315020F023
:103090008081842B8193FACF08958095315020F060
:1030A000908198239193FACF089560387105D0F4F8
:1030B00040345105B8F4E0E4F0E280E1849FD001AF
:1030C000A0781124A60F4770E40FF11D8491A75139
:1030D000BD4F222319F06C91862B03C080956C9113
:1030E00086238C930895EF92FF920F931F93CF93B3
:1030F000DF9300D0CDB7DEB78C017B01FB0160818F
:103100009A838983CE0101960E94A920F7016181EB
:103110000F5F1F4F1A830983CE0101960E94A920D9
:10312000C7010F900F90DF91CF911F910F91FF90EA
:10313000EF900895CF93DF9300D0CDB7DEB79A8399
:103140008983CE0101960E94A9200F900F90DF91F4
:10315000CF9108954F925F926F927F928F929F923C
:10316000AF92BF92CF92DF92EF92FF920F931F9395
:10317000CF93DF93CDB7DEB72C970FB6F894DEBFB1
:103180000FBECDBF8091C70208E0809FA00111242F
:10319000C0905D07D0905E07E0905F07F0906007F9
:1031A0004090C80218E0419E20011124009161075F
:1031B000109162072091630730916407E0917A07CC
:1031C000E11133C0CA018E0D9F1D893F6FEF960735
:1031D00064F1803891054CF5B201620F731F683FAE
:1031E000AFEF7A0714F160347105FCF42091C4024A
:1031F000CC24C394E22E08E11FE146E25FE10E9485
:103200005F1580918407909185076FE070E00E94C0
:103210007D35892B39F481E09091C402911180E0D1
:103220008093C4021092D10231C18091CC028530CA
:1032300009F02CC18091D1028F5F68E20E94713544
:103240009093D102943108F021C1EE2361F0809176
:10325000CA02B8E08B9FA00111244090CB02E8E0A5
:103260004E9E2001112480916E0790916F07A091CE
:103270007007B09171074C015D018C189D08AE0874
:10328000BF088D829E82AF82B886CA01A0E0B0E0FE
:103290005C019924882489869A86AB86BC864D81F8
:1032A0005E816F817885841A950AA60AB70A898299
:1032B0009A82AB82BC82612C712C32015524442449
:1032C0008091720790917307A0917407B091750770
:1032D000801B910BA20BB30B481A590A6A0A7B0A8E
:1032E00073016201FF0CCC08DC2C76019201A30172
:1032F0006C2D7C2D8C2D9C2D00E10E946E36B42F00
:10330000A52FE62F972E49815A816B817C81770FFB
:10331000440B542FBA01A980BA80CB80DC80E42E04
:10332000F42E042F142F4B2F5A2F6E2F792D0E941D
:103330009935C901DA0189849A84AB84BC84ED8013
:10334000FE800F81188549815A816B817C818E14A2
:103350009F04A006B10684F577FF07C070956095BD
:10336000509541955F4F6F4F7F4F4F3155406105ED
:10337000710584F18130910512E0A107B1050CF0CF
:1033800074C0883D23E29207A105B1050CF046C048
:103390008A323CED93073FEFA307B3070CF045C01B
:1033A00068E30197AE4FBF4F0CF447C080E00CE7D5
:1033B0001EE149EC5EE15FC077FF07C07095609544
:1033C000509541955F4F6F4F7F4F4F31554061058D
:1033D000710534F414141504160417046CF141C07B
:1033E00081309105F2E0AF07B10534F5883D03E285
:1033F0009007A105B1053CF58A321CED91071FEF3E
:10340000A107B1073CF560E00197AE4FBF4F74F1E3
:1034100088E704E81EE143ED5EE12DC060E080E056
:1034200004E61EE14DEA5EE126C06CE180E00CE6B8
:103430001EE147EB5EE11FC068E38BE304E01FE1A0
:103440004DE05FE118C068E388E70CE91EE14FEE4C
:103450005EE111C06CE188E70CE81EE14DED5EE134
:103460000AC045284628472889F060E08BE304EA33
:103470001EE149EF5EE14115510541F070E0CC24B9
:10348000C394E12C20E090E00E945F152C960FB6CB
:10349000F894DEBF0FBECDBFDF91CF911F910F918A
:1034A000FF90EF90DF90CF90BF90AF909F908F9064
:1034B0007F906F905F904F9008958F929F92AF9200
:1034C000BF92CF92EF920F931F93809178079091C4
:1034D00079078433910598F59C01220F331FF90178
:1034E000EB52FE4F40815181F901E359FE4F0081BB
:1034F0001181FC01E75CFE4F808141155105F9F017
:1035000020917607082E000C990B809072079090FE
:103510007307A0907407B0907507BC016A0D7B1DFE
:1035200080906E0790906F07A0907007B090710721
:10353000CC24C394E22E8A0D9B1D0E945F151F911F
:103540000F91EF90CF90BF90AF909F908F90089584
:103550004F925F926F927F92BF92CF92DF92EF92E3
:10356000FF920F931F93CF93DF93E0916507F0E0F5
:10357000EE0FFF1FE75EFE4FC080D180B12CCB2D38
:10358000D0E080916A0790916B07C817D90708F0BF
:1035900052C07E0183E0EE0CFF1C8A95E1F710E03B
:1035A000E12FF0E040916C0750916D07E417F507AB
:1035B00008F03FC040905D0750905E0760905F0745
:1035C00070906007CF0123E0880F991F2A95E1F7DB
:1035D000860D971D409061075090620760906307C9
:1035E000709064079C01285F3F4F28383105F8F43C
:1035F000B701660D771D9B01285F3F4F28343105C9
:10360000B0F4C49F9001C59F300DD49F300D11249C
:10361000E20FF31FEC0DFD1D449128E0429FA00135
:1036200011244453524E08E028E00E9402251F5FF7
:10363000B7CFB394A4CFDF91CF911F910F91FF909B
:10364000EF90DF90CF90BF907F906F905F904F9002
:103650000895CF92DF92EF92FF921F93CF93DF9363
:10366000E0916507F0E0EB5BFD4F1081C12ED12C9E
:10367000E12CF12CC701B6010E948A21C62FC70197
:10368000B6010E948A21D62F113089F08091C6029E
:10369000C8130DC0C701B6010E948A21C62FF4CFFE
:1036A000CD1307C0C701B6010E948A21D62F113061
:1036B000B9F7E0916507F0E0EE0FFF1FE35CFD4F07
:1036C000408151812C2F30E0220F331FFA01E20F8D
:1036D000F31FE491E093C7022F5F3F4FFA01E20F1F
:1036E000F31F24912093C8028D2F90E0880F991F1B
:1036F000FA01E80FF91FE491E093CA020196FA017A
:10370000E80FF91FE491E093CB02D093C902C09374
:10371000C6021092C4026AE070E080E090E00E946D
:103720008A21DC01CB010A96A11DB11D8093C5023F
:10373000DF91CF911F91FF90EF90DF90CF90089590
:10374000443079F04231B1F580917F079091800744
:103750008436910578F501969093800780937F07D2
:10376000089590917A07992329F12091CA0230E0B7
:10377000A901481B5109CA0157FF03C091958195C2
:1037800091090297BCF48091CB02861313C010926A
:103790007A072091C50280917B0790917C07820F68
:1037A000911D90937C0780937B070E94291B87E2E1
:1037B0008093E0020895CF92EF920F931F93809130
:1037C00084079091850783709927892B09F0B5C0EC
:1037D0000E940A1885FF06C00E94C82481E08093D9
:1037E000760708C00E940A1886FF04C00E94AE2413
:1037F000109276070E940A1883FF63C080917607B3
:103800008823B9F0813079F52091C2028091720746
:1038100090917307A0917407B0917507BD01685F1F
:103820007F4FCC24C394E22E04E610E246E850E237
:1038300014C02091C2028091720790917307A091E9
:103840007407B0917507BD01685F7F4FCC24C394A6
:10385000E22E0AEA10E24CEC50E28091700790915F
:1038600071070E945F15809184079091850765E03C
:1038700070E00E947D35892B31F48091C2028F5F08
:1038800081708093C20280917E07882359F024F4CE
:103890008C3F7CF0880F0BC0813031F089304CF4C4
:1038A000859505C08FEF03C010927E0702C08093FC
:1038B0007E0741E250E061E470E081E290E00E9426
:1038C000E024809184079091850787709927892B40
:1038D000A1F50E940A1883FD18C080917E078F3FD2
:1038E00071F01CF4883F3CF410C0882359F08530F7
:1038F00064F4880F08C087FD8F5F859504C010921F
:103900007E0703C081E080937E070E940A1885FD30
:1039100014C00E940A1886FD10C080917D071816F9
:1039200014F40E94C82480917D0787FF06C01F9170
:103930000F91EF90CF900C94AE241F910F91EF90C8
:10394000CF9008952F923F924F925F926F927F9205
:103950008F929F92AF92BF92CF92DF92EF92FF929F
:103960000F931F93CF93DF93CDB7DEB769970FB651
:10397000F894DEBF0FBECDBF80918407909185077C
:103980006CE370E00E947D35892B39F4809104014D
:10399000811103C087E08093CC02809178079091D9
:1039A00079078E010F5F1F4F5801892B09F08BC1DA
:1039B0000E94DB1B80917A0781115CC0C0906E076A
:1039C000D0906F07E0907007F090710740917207F8
:1039D0005091730760917407709175072091C70229
:1039E00080915D0790915E07A0915F07B09160079D
:1039F000FD0118E0219FE00DF11D11241091C80276
:103A00008091610790916207A0916307B09164076C
:103A10009F01295F3F4F2738310560F5CD0108E050
:103A2000109F800D911D1124883F1FEF910714F105
:103A300080349105FCF46701FF24D7FCF094EF2C4F
:103A4000D60101E1C00ED11CEC15FD059CF4A217B6
:103A5000B30784F4AB01772757FD7095672F9A0160
:103A6000485F5F4F841795072CF40896281739078D
:103A70000CF4BCC2F50183E18A0D11928E13FDCFC7
:103A8000E0916507F0E0EE0FFF1FE75EFE4FC0809C
:103A9000D1804091720750917307609174077091C3
:103AA0007507AB01772757FD7095672F80916107E8
:103AB00090916207A0916307B0916407CD01BB2785
:103AC00097FDB095AB2F4A01881A990A00916E07AD
:103AD00010916F072091700730917107890133278A
:103AE00017FD3095232F80915D0790915E07A0917F
:103AF0005F07B0916007CD01BB2797FDB095AB2F55
:103B0000081B190B63E0169507956A95E1F72224C7
:103B10002394200E72E0372E300E7401E3E0F69409
:103B2000E794EA95E1F7370177242801552480913D
:103B30006C0790916D07689EF001699EF00D789E6C
:103B4000F00D1124E40DF51DEC0DFD1D44919501C2
:103B5000240F311DF901808181110BC06E2D802F42
:103B6000288F398F0E94A01B81E0288D398DF901A3
:103B70008083222D30E03D8B2C8B80916C079091BF
:103B80006D07689EF001699EF00D789EF00D11247E
:103B9000E20FF31FEC0DFD1D44919501240F311D23
:103BA000F901808181110BC06E2D822D288F398FF4
:103BB0000E94A01B81E0288D398DF9018083232D7F
:103BC00030E03F8B2E8B80916C0790916D07689E43
:103BD000F001699EF00D789EF00D1124E20FF31FA5
:103BE000EC0DFD1D44913501640E711CF3018081C3
:103BF000811107C06E2D832D0E94A01B81E0F3016F
:103C00008083F8E08F16910408F45DC0E3948E2C55
:103C1000912C80916C0790916D07889EF001899E90
:103C2000F00D989EF00D1124E40DF51DEC0DFD1D19
:103C300044913501640E711CF3018081811107C02C
:103C40006E2D802F0E94A01B81E0F3018083809164
:103C50006C0790916D07889EF001899EF00D989EEB
:103C6000F00D11240C891D89E00FF11FEC0DFD1DD5
:103C700044918501040F111DF8018081811107C055
:103C80006E2D822D0E94A01B81E0F801808380911F
:103C90006C0790916D07889EF001899EF00D989EAB
:103CA000F00D11240E891F89E00FF11FEC0DFD1D91
:103CB0004491F501E40FF11D8081811104C06E2D46
:103CC000832D0E94A01B0E94A81A0E945D1A0E94C8
:103CD000AA18CC24C394E12C0EE511E220E042EBBB
:103CE00051E267E370E08AE090E00E945F1587E1AF
:103CF000809358078093570789E3809359078091F1
:103D00007B0790917C07F5010AE010E025E02A0D81
:103D1000B8010E947D358193CB012E13F9CF8E011E
:103D20000A5F1F4FF80162918F0183E597E00E94BF
:103D30003D260A151B05B1F7CC24C394E12C00EFF6
:103D400010E220E046E251E267E370E08CE590E0AB
:103D50000E945F1589E6809358078093570789E38F
:103D600080935907809104012AE0622F0E947135E7
:103D7000192F0E947135692F83E597E00E943D2637
:103D8000612F83E597E00E943D2667E772E08EEEA3
:103D900096E00E945024609177078EEE96E00E9494
:103DA0003D2660E872E08EEE96E00E94502460911D
:103DB000C5028EEE96E00E943D266AE872E08EEE25
:103DC00096E00E94502440917F075091800760E068
:103DD00070E02AE08EEE96E00E94652464E972E0CD
:103DE0008EEE96E00E9450246091C6028EEE96E020
:103DF0000E943D266FE972E08EEE96E00E9450240C
:103E00006091C9028EEE96E00E943D2669EA72E05A
:103E10008EEE96E00E94502480917A07811103C0B3
:103E200065E772E002C063E772E08EEE96E00E9402
:103E3000502467EB72E08EEE96E00E945024F090E2
:103E4000E002FF2071F127E230E02F19310937FF3E
:103E500002C0295F3F4F83E0359527958A95E1F7AA
:103E60008091720790917307A0917407B0917507C4
:103E7000BD016A50710980916E0790916F07A09102
:103E80007007B0917107CC24C394E22E08E012E2CF
:103E900046E153E2CD0105970E945F15FA94F09236
:103EA000E0028091CC028630E9F500E020E14EE5A9
:103EB00068E170E082E190E00E94652621E04CE537
:103EC00069E170E083E190E00E94121821E04CE586
:103ED00067E270E083E190E00E94121886E180932F
:103EE0005807809357078DE1809359078EE294E23B
:103EF0000E9444266091C30283E597E00E943D261C
:103F000086E294E20E9444266091770783E597E079
:103F10000E943D2688E00E943226882319F084E022
:103F20008093CC028091780790917907892BD9F4FE
:103F300080918407909185076FE070E00E947D3545
:103F4000892B89F480917F07909180070197909346
:103F5000800780937F07892B31F483E390E090936F
:103F6000790780937807809178079091790782305C
:103F7000910551F0D8F084339105C0F401979093E6
:103F800079078093780712C081E090E090937907D9
:103F900080937807809177078150809377078823F3
:103FA00011F086E001C087E08093CC0280917A070F
:103FB000882341F180918407909185076FE070E03C
:103FC0000E947D35892BF1F48091E1028F5F8B3067
:103FD00018F48093E10216C01092E1028091C502AC
:103FE000882381F081508093C5020CC081E08093CA
:103FF0007A0742E550E065EA70E087E295E00E94CA
:10400000E02438CD69960FB6F894DEBF0FBECDBF61
:10401000DF91CF911F910F91FF90EF90DF90CF90A4
:10402000BF90AF909F908F907F906F905F904F90D8
:104030003F902F900895863049F018F4811104C004
:1040400005C08850823010F080E0089581E0089526
:10405000EF92FF920F931F93CF93DF9300D0CDB7D2
:10406000DEB78B0195E0899F70011124C701885547
:104070009F4F0E94F834F8018083C70187559F4FF6
:104080000E94F834F8018183C70186559F4F0E9432
:10409000F834F80182831A821982BE016F5F7F4F64
:1040A000C70185559F4F0E94012689819A81F80199
:1040B000948383830F900F90DF91CF911F910F9185
:1040C000FF90EF9008950F931F93CF93DF9300D04D
:1040D000CDB7DEB7082F86EA90E00E94F834182F9B
:1040E00087EA90E00E94F834011104C0133511F4FE
:1040F000833441F11A82198263E586EA90E00E94D6
:104100009A1863E487EA90E00E949A1808EA10E09F
:1041100060E0C8010E949A1860E0C80101960E9400
:104120009A1860E0C80102960E949A18BE016F5F5B
:104130007F4FC80103960E9473180B5F1F4F013C0D
:10414000110531F70F900F90DF91CF911F910F91D3
:104150000895EF92FF920F931F93CF93DF931F92D7
:10416000CDB7DEB77C01FC0100811181C8016983F4
:104170000E94F8346981681719F0C8010E9400355F
:10418000C7010F90DF91CF911F910F91FF90EF909A
:1041900008954091E5025091E6022091E3023091AA
:1041A000E40242175307B4F49091E8009570E1F3EC
:1041B0009091E80092FD19C08093F1008091E50292
:1041C0009091E60201968F739927892B19F48EEF4F
:1041D0008093E8008091E5029091E6020196909329
:1041E000E6028093E50281E0089580E00895DF9281
:1041F000EF92FF920F931F93CF93DF93D82E8A01F4
:104200007B01E40EF51EEB01CE15DF0571F0D7FE44
:1042100003C0FE01849101C088810E94C9202196BB
:104220008111F2CF8FEF9FEF01C0C801DF91CF91D5
:104230001F910F91FF90EF90DF900895615030F043
:104240002091F100FC0120830196F8CF289884E6A4
:104250008093E7020895CF92DF92EF92FF920F933F
:104260001F93CF93DF936C017A018B01C0E0D0E004
:10427000CE15DF0589F0D8016D918D01D601ED9144
:10428000FC910190F081E02DC6010995892B11F474
:104290007E0102C02196ECCFC701DF91CF911F9123
:1042A0000F91FF90EF90DF90CF9008950E94B1366C
:1042B0000F931F93CF93DF931F92CDB7DEB782E0AA
:1042C000898342E450E065E374E280E80E94F720CD
:1042D0000E945D27DC0112960D911C911397011528
:1042E000110569F0D801ED91FC910280F381E02D78
:1042F000BE016F5F7F4FC801099597FF07C0898195
:104300000F90DF91CF911F910F910895F8010085D3
:104310001185E5CFCF93DF9300D000D0CDB7DEB7C6
:10432000611571058105910579F09B01AC016983E7
:104330003A834B835C830E94EA3429813A814B8122
:104340005C810E940E3503C060E070E0CB010F90ED
:104350000F900F900F90DF91CF9108951F920F92C1
:104360000FB60F9211248F939F938091E10090914B
:10437000E100937F9093E10083FF0FC01092E9006A
:1043800091E09093EB001092EC0092E39093ED009B
:104390001092E80298E09093F00082FF20C093E032
:1043A0009093E9009091F200992319F09AE3909389
:1043B000E8009091E202992339F09091E202915045
:1043C0009093E202992389F19091E702992339F0C1
:1043D0009091E70291509093E702992341F184FF75
:1043E00010C08091E2008E7E81608093E200809117
:1043F000E1008F7E8093E1008091BB028E7E806120
:1044000011C080FF16C08091E2008E7E8061809393
:10441000E2008091E1008E7E8093E1008091BB02FA
:104420008E7E81608093BB0204C05D9ACDCF289AB6
:10443000D6CF9F918F910F900FBE0F901F90189520
:104440001F920F920FB60F921124CF92DF92EF922C
:10445000FF920F931F932F933F934F935F936F930D
:104460007F938F939F93AF93BF93EF93FF93CF93DC
:10447000DF93CDB7DEB76C97DEBFCDBF1092E900FA
:104480008091E80083FFEDC168E0CE0145960E946F
:104490001E2182EF8093E8008D8987FF05C09091EF
:1044A000E80090FFFCCF03C09EEF9093E800982FA8
:1044B000907609F0C6C09E892F89188D91110CC085
:1044C000803829F48091BC028093F10002C01092E0
:1044D000F1001092F10048C1422F50E0512B913071
:1044E00051F4811141C14130510509F03DC1809124
:1044F000BC028D7F0BC0933061F4811135C1413016
:10450000510509F031C18091BC0282608093BC02E8
:104510002BC1953041F48091E80080FFFCCF2068EA
:104520002093E30021C1963009F05FC0EB8CFC8C36
:104530001092E9001092E6021092E502123091F515
:104540001092E4021092E3020E94582199E0BE0109
:104550006F5F7F4FDB01E92F1D92EA95E9F79983A1
:104560001A8391E09E8390EA98879AEF9987209129
:10457000E5023091E602275F3F4F3C832B838D831A
:104580001092E9001092E6021092E502F092E40225
:10459000E092E30249E050E080E00E94F7200E94B0
:1045A0005821E2C0F092E402E092E3020E945D270B
:1045B000DC011296ED90FC901397E114F10409F4DC
:1045C000C0C0D701ED91FC910480F581E02DBE01C2
:1045D0006B5E7F4FC7010995009719F00CF0C4C0BE
:1045E000C7C0F701E084F184E8CF973009F4C0C078
:1045F000983021F481E08093F100B6C0993009F041
:10460000B3C0837009F0B4C0E9E4F2E081E021E0D6
:1046100036E39081992361F08093E9002093EB00C9
:1046200091919093EC003093ED008F5F873089F784
:104630008EE78093EA001092EA008F898093E80267
:1046400093C08B8D9C8D1092E9001092E60210921F
:10465000E5029093E4028093E302898D811156C0B4
:104660008E899D89913A59F4813209F081C047E0E1
:1046700050E06DE071E080E00E94F72075C091325B
:1046800009F076C0833289F4888D90E0982F8827CE
:104690002F89822BA0E0B0E08093090190930A015A
:1046A000A0930B01B0930C015FC0803269F480913C
:1046B000E80082FFFCCF67E08DE091E00E941E21C0
:1046C0008BEF8093E80006C0823209F04DC08F89DD
:1046D000809314018091BA02882319F0EEEFFAE07A
:1046E00002C0E0E0F8E080910D0190910E01A091F0
:1046F0000F01B0911001803B9440A105B10509F074
:104700007BC08091140180FF93C076C00E945D271A
:10471000DC0112960D911C9113970115110541F1C1
:10472000D801ED91FC910190F081E02DBE016B5E0E
:104730007F4FC8010995811117C0F80100851185C7
:10474000ECCF113009F44EC0133091F48F898823D7
:1047500009F445C0823081F440E860E189E994E2DF
:104760000E94F133882321F08EEF8093E80079C016
:1047700081E28093EB0075C0813029F440E86BE062
:104780008DE894E2EDCF833099F70E945D27DC013C
:104790001296ED90FC9013978E010F5F1F4F6801EA
:1047A000E114F10479F0D701ED91FC910680F781D5
:1047B000E02DB801C7010995080F111DF701E0842C
:1047C000F184EECFD8011C92F60101900020E9F7A8
:1047D0003197BF016C197D0940E0C601C1CF67E781
:1047E00074E202C06BE774E26115710509F2FB0126
:1047F000449150E080E840CF0FB6F894A89580919E
:104800006000886180936000109260000FBEA895E0
:10481000EE3F2AE0F20739F08091FE0A9091FF0AFC
:1048200091838083A1CF1092FF0A1092FE0A9CCF41
:10483000EE3F8AE0F80731F0808191819093FF0A82
:104840008093FE0A87E797E7918380839BE088E166
:104850000FB6F894A895809360000FBE9093600007
:1048600083CF6C960FB6F894DEBF0FBECDBFDF913D
:10487000CF91FF91EF91BF91AF919F918F917F91D8
:104880006F915F914F913F912F911F910F91FF90E9
:10489000EF90DF90CF900F900FBE0F901F90189564
:1048A0006115710579F0FB0101900020E9F731975E
:1048B000AF01461B570BDC01ED91FC910280F381A7
:1048C000E02D099480E090E008954F925F926F92FE
:1048D0007F92EF92FF920F931F93CF93DF93CDB709
:1048E000DEB7A1970FB6F894DEBF0FBECDBF7C0137
:1048F000FA01CB0119A2223008F42AE08E010F5DE3
:104900001F4F422E512C612C712CBF01A30192012B
:104910000E944035F901CA01015011096A3014F4AE
:10492000605D01C0695CD8016C93232B242B252B7F
:1049300061F7B801C7010E945024A1960FB6F89400
:10494000DEBF0FBECDBFDF91CF911F910F91FF90C2
:10495000EF907F906F905F904F90089580917D07CA
:104960008F3F69F01CF4883F34F40895882351F098
:10497000853054F0089587FD8F5F859506C01092AD
:104980007D07089581E001C0880F80937D07089519
:1049900080917D07882359F01CF48C3F34F40895EE
:1049A000813039F0893044F00895880F06C08FEFC8
:1049B00004C010927D070895859580937D07089522
:1049C0009C01E1E7F0E090819D7F90831092ED06DD
:1049D000EEE3F7E0F093EC06E093EB06F093EA06E3
:1049E000E093E9063183208382E390E0938382831E
:1049F00075836483978386835187408793878287F3
:104A00000C9451142F923F924F925F926F927F922B
:104A10008F929F92AF92BF92CF92DF92EF92FF92CE
:104A20000F931F93CF93DF93CDB7DEB728970FB6C1
:104A3000F894DEBF0FBECDBF5A01822E912C9C018F
:104A4000280D391D37FDC4C0803891050CF0C0C059
:104A50009B01200F311D37FDBBC0603471050CF088
:104A6000B7C0AB0177FF04C044275527461B570B3F
:104A7000477055279B0177FF02C0295F3F4FE3E056
:104A800035952795EA95E1F777FF08C02150310960
:104A900068E070E0DB01A41BB50BAD01602F6695EB
:104AA0006695669570E0077011F06F5F7F4FDB01D0
:104AB000A20FB31FBA83A98339017694762C66249A
:104AC00077946794680E791EE12CF12C00E010E0D9
:104AD0002301B0E84B0E511C68E070E0DB01A41B21
:104AE000B50BBC83AB8369817A812617370709F43C
:104AF0006FC02830310509F46BC02F3FBFEF3B0773
:104B00000CF45BC0B201600F711FDB01A751BD4FF8
:104B1000BE83AD83D801A60DB71DA751BD4F6C0153
:104B200060E070E0681579050CF047C0E0E8CE164B
:104B3000D10409F442C0D7FC34C02F3FFFEF3F0738
:104B400009F442C0FB01EE0DFF1DEA0DFB1DE491CF
:104B5000042E01C0EE0F0A94EAF73C90E329EC938F
:104B600041155105F1F027303105D9F0FB01EE0D6B
:104B7000FF1DEA0DFB1DE4912E2E312CF1010B805F
:104B800002C0F595E7950A94E2F7F887EF83ED8187
:104B9000FE813080EF81F885E3291F01ED81FE81E0
:104BA00020826F5F7F4FED81FE813196FE83ED8322
:104BB000FFEFCF1ADF0A1196B5CF2F5F3F4F005896
:104BC0001F4FE80CF91C8FCF4115510579F6E9CF3D
:104BD00028960FB6F894DEBF0FBECDBFDF91CF9100
:104BE0001F910F91FF90EF90DF90CF90BF90AF900B
:104BF0009F908F907F906F905F904F903F902F90FD
:104C000008950F931F93CF93DF938C01EB010E94C4
:104C1000F8348883C80101960E94F8348983CE0154
:104C2000DF91CF911F910F91089580E0E9EEF2E0BE
:104C300081118FEF00248193819381938193039459
:104C4000D1F70895E9EEF2E080E0A0E0B8E000805E
:104C50000EBC8111012C1197A0FDFDCF0192B9F777
:104C60000DB4089520918707282329F49091860791
:104C7000982381E009F480E00895462F50E060E039
:104C800070E02AE00C9465240F931F93CF93DF9379
:104C90008C01C0E0D0E0F801EC0FFD1F64916623A9
:104CA00071F0E0915307F09154070190F081E02DED
:104CB00083E597E00995892B11F02196ECCFCE0181
:104CC000DF91CF911F910F9108958F929F92AF9294
:104CD000BF92CF92DF92EF92FF920F93CF93DF9329
:104CE0006B01EC014C01840E911C5B01A20EB11C06
:104CF000C815D905ECF47601D7FE10C0E12CF12CD3
:104D00000DC0E816F90694F4202FA701BE0181E832
:104D100097E00E9455182FEFE21AF20AC50121E42C
:104D2000A216B10474F380E490E0EBCF2196E0CFBB
:104D3000DF91CF910F91FF90EF90DF90CF90BF90D8
:104D4000AF909F908F9008954F925F926F927F9255
:104D50008F929F92AF92BF92CF92DF92EF92FF928B
:104D60000F931F93CF93DF93EC018B01442ECB0164
:104D70008C1B9D0B97FF03C091958195910955243C
:104D80005394813891053CF4512CC80100E810E09F
:104D9000E12CF12C0FC00C171D0734F07E0180E8C8
:104DA00090E0C0E0D0E006C078018E0180E090E0A5
:104DB000C0E8D0E038016E187F085C01AC1ABD0A6B
:104DC000B7FE03C0B194A194B108630177FE03C09C
:104DD0002FEFC21AD20AD594C794C817D90714F076
:104DE0008FEF01C081E0882E880F99080E151F05EE
:104DF000C4F0242D552019F0A701BE0102C0AE0158
:104E0000B70181E897E00E945518CA18DB08D7FE61
:104E100004C0C80DD91DC60CD71C8FEFE81AF80ABC
:104E2000E5CFDF91CF911F910F91FF90EF90DF9031
:104E3000CF90BF90AF909F908F907F906F905F903A
:104E40004F900895FC018091E802811103C08FEF1B
:104E50009FEF08959FB7F89482E08093E900209136
:104E6000F20030E01216130614F421E030E02115B0
:104E7000310559F0289884E68093E7028091F1008B
:104E800080838091F200882319F09FBFC9010895A3
:104E90008BE68093E800F9CF2FB7F89483E08093F6
:104EA000E9009091E800892F807295FF04C09091ED
:104EB000F20080E4891B2FBF089580919007811133
:104EC0000DC082E080938C0784E080938D07109260
:104ED0008F0710928E0781E0809390078CE897E00F
:104EE0000895CF93DF93CDB7DEB76B970FB6F894E5
:104EF000DEBF0FBECDBF789484B5826084BD84B51B
:104F0000816084BD85B5826085BD85B5816085BDC4
:104F100080916E00816080936E001092810080917C
:104F20008100826080938100809181008160809304
:104F30008100809180008160809380008091910049
:104F400082608093910080919100816080939100B4
:104F5000809190008160809390008091C100846076
:104F60008093C1008091C10082608093C1008091D4
:104F7000C10081608093C1008091C30081608093F3
:104F8000C3008091C00082608093C0008091C20005
:104F900081608093C20080917A00846080937A005F
:104FA00080917A00826080937A0080917A0081609B
:104FB00080937A0080917A00806880937A001092C2
:104FC000E8021092BC021092BB028091D70081606F
:104FD0008093D70080EA8093D80089B5806189BD2D
:104FE00089B5826089BD09B400FEFDCF61E070E043
:104FF00080E090E00E9448138091D8008F7C80610F
:105000008093D8008091E000807F8093E0008091C1
:10501000E1008E7E8093E1008DE08093E200559A5E
:10502000209AEEEFFFE7859194918B3F9C4D19F408
:1050300081E08093BA0281EC80937C0085B1806F1F
:1050400085B984B1877E84B984B1876E84B95E9A4C
:105050005F988AB1806D8AB9769A6E9881B3806FB5
:1050600081BB899880B38D7080BB80E58CBD81E069
:105070008DBD85E090E00E9405185F9A85E090E084
:105080000E9405185E985C98EEE8F8E08DE08E0FBF
:1050900094919EBD00000DB407FEFDCF31968E1396
:1050A000F7CF5C9A81E8809364008091650081600D
:1050B000809365000E9422260E940A1887FF15C06F
:1050C0005C9885EA8EBD00000DB407FEFDCF5C9AAA
:1050D0002E982F982D9880916400806280936400B0
:1050E00081E083BF889513BEFCCF02E010E00E94F0
:1050F0000A1882FF40C02D980E940A1884788438CC
:10510000C1F00E940A188471843181F52D9A88ECCF
:1051100090E00E9405182E981A83098360E0CE0162
:1051200001960E94A92084EF91E00E9405182E9A12
:1051300018C02D9A88EC90E00E9405182F981A83C9
:1051400009836FEFCE0101960E94A92084EF91E0C0
:105150000E9405182F9A0E940A1884788438D9F37F
:10516000D0CF0E940A1884718431D9F388EC90E082
:105170000E940518BCCF2D9A82E090E00E94F8347E
:10518000882331F03E9A3F9A81E08093BD0204C0AB
:105190001092BD023E983F980E94152680E18093B0
:1051A000880780E00E9463201092000110920101A4
:1051B00080E48093020181E080930301AE014F5FA0
:1051C0005F4F5F874E878FB7F8944091BE02509132
:1051D000BF026091C0027091C1028FBF80918907A8
:1051E000942F981B892F90918A07992329F08093F7
:1051F0008B0710928A07ADC790918807891748F4EA
:105200008F5F891708F0A5C781E083BF889513BE1B
:10521000A0C781E080938A07409389078091840723
:1052200090918507019690938507809384078091DC
:105230008607809387070E940A18809386070E943A
:105240001526E091CC028E2F90E08A30910508F06F
:10525000C7C4FC01EA5AFF4F0C94913520E04DEB96
:1052600057E16EE070E08EE290E00E94F5178091C9
:10527000000187FD44C08091020190E0209101016E
:10528000821B910997FD019695958795B82EE12C83
:10529000F12C30E8C32ED12C40910001EB1440F5E5
:1052A0008701000F111F80910101B801680F711D66
:1052B000603471052CF420E080E090E00E94121828
:1052C00080910101B801680F711D6F5F7F4F809160
:1052D00000016034710544F420E0482FD601A81B7A
:1052E000B109CD010E941218BFEFEB1AFB0AD4CF0F
:1052F00047FD05C080910301480F40930001809154
:10530000000187FF6DC4A6C710925D0710925E076B
:1053100010925F0710926007109261071092620767
:10532000109263071092640720E030E041E150E002
:1053300020936E0730936F07409370075093710767
:1053400040E050E060E370E04093720750937307D1
:10535000609374077093750710927D0710927E0713
:1053600011E01093760784E690E090938007809395
:105370007F0710927A07109279071092780710929F
:10538000650780E490E0909367078093660780E864
:1053900090E0909369078093680788E090E090938D
:1053A0006B0780936A0780E190E090936D0780938C
:1053B0006C078FEF8093C6020E94291B82E08093C6
:1053C000CC0280E8809305011092060180E480936E
:1053D0000701109308012090C70280915D0790910A
:1053E0005E07A0915F07B09160079D01552737FDCB
:1053F0005095452F288B398B4A8B5B8B38E0239E49
:105400001001112448895989240E351EF090C802D4
:105410008091610790916207A0916307B091640742
:105420009D01552737FD5095452F2C8B3D8B4E8B7D
:105430005F8B40906E0750906F0760907007709080
:1054400071072301772457FC7094672C598E488E7E
:105450008090720790907307A0907407B0907507C2
:105460000E94DB1B0E94A81A6C897D896A5F7F4FAE
:10547000CC24C394E12C0BEB11E120E04BEB54E185
:10548000888999890E945F150E945D1A0E94AA1856
:1054900031E1430E511C241435040CF0A1C347E044
:1054A000240E311C688D798D621573050CF098C33C
:1054B00078E0F79EC0011124AC89BD898A0F9B1F3B
:1054C0004501BB2497FCB094AB2C9401B8E08B0E43
:1054D000911C881599050CF083C308962817390785
:1054E0000CF07EC33EC681E08093C30283E08093CC
:1054F000770710927C0710927B0784E08093CC02A0
:105500001092C2028AE0809304014091C30226E017
:10551000429FF0011124EF5DFE4F20813181828195
:10552000082E000C990BAA0BBB0BDC0199278827CE
:1055300080935D0790935E07A0935F07B093600729
:105540008381082E000C990BAA0BBB0BDC01992759
:1055500088278093610790936207A0936307B093B5
:1055600064078481082E000C990BAA0BBB0BDC018D
:105570009927882780936E0790936F07A0937007F1
:10558000B09371078581082E000C990BAA0BBB0BF9
:10559000DC01992788278093720790937307A09363
:1055A0007407B093750710927D0710927E0781E013
:1055B0008093760784E690E09093800780937F073E
:1055C00010927A0710927907109278074093650736
:1055D000832F90E0AC0173E0440F551F7A95E1F7FB
:1055E000509367074093660730E0A901E3E0440F5A
:1055F000551FEA95E1F75093690740936807909328
:105600006B0780936A0730936D0720936C078FEFC9
:105610008093C6020E94291B85E08093CC020E94E1
:10562000A21CDEC2E090CF02F090D00200E420E89D
:105630004AEA5DE060E070E0C7010E94022520E8D0
:105640004AEA5DE060E070E0C70180589F4F0E9429
:1056500002258091840780FD11C031E0E31AF10832
:1056600040E8E4164FEFF4062CF0F092D002E092FE
:10567000CF0204C01092D0021092CF0200E02FE1BE
:1056800040E860E170E080E090E00E94652641E043
:1056900061E170E081E190E00E94A42641E06DE2CA
:1056A00070E08DE290E00E94A42640E060E370E0AC
:1056B00080E390E00E94A42640E062E370E082E391
:1056C00090E00E94A42685E28093580780935707B4
:1056D00086E18093590781EB91E10E9444268FE196
:1056E000809358078093570782E2809359078AEA8C
:1056F00091E10E94442680917B0790917C07FE01F6
:1057000031962E852B5F6AE070E00E947D35819393
:10571000CB012E13F8CF8E010A5F1F4FD8016E9177
:105720008D0183E597E00E943D26EE85FF850E17EB
:105730001F07A1F788E00E943226811145C584E049
:105740000E943226811140C54BC28FEF80934E07D5
:1057500010924F0710925007109251071092520763
:1057600080917B0790917C079D878C8700E010E0FB
:10577000B12C1A8219826801FBEACF0ED11CBE013E
:105780006F5F7F4FC6010E94012629813A818C8577
:105790009D852817390730F46FEBE62EF12C74E065
:1057A000A72E09C0B3940B5F1F4F25E0B212E1CFC3
:1057B000BB24BA943EC0BA1420F5AA94BE016F5F10
:1057C0007F4F8A2D0E9428206981C70103970E947C
:1057D0009A186A81C70102970E949A186B81C701C3
:1057E00001970E949A188C819D8198878F83BE01B2
:1057F000695F7F4FC7010E94731835E0E31AF10813
:10580000DACF60E0C80188559F4F0E949A1860E087
:10581000C80187559F4F0E949A1860E0C8018655BD
:105820009F4F0E949A18BE01645F7F4FC6010E947D
:1058300073181FEFBE016F5F7F4F812F0E942820DA
:105840001F5F1430B9F7B0924E0789E08093CC0205
:1058500080E8809305011092060180E4809307019F
:1058600081E08093080120E048EA59E060E070E0C0
:1058700080E090E00E94F51707E110E0B12C56E0BF
:10588000A52E9E849A0CBE01695F7F4F8B2D0E94CE
:1058900028202F814EE958E0B80183E290E00E9471
:1058A000F51728854EE958E0B80189E290E00E949A
:1058B000F51729854EE958E0B8018FE290E00E9483
:1058C000F517AE85BF85EA2D1D92EA95E9F78A8521
:1058D0009B859E012F5F3F4F6901F9016AE070E0EF
:1058E0000E947D358193CB019E12F8CF4BE5E42ECB
:1058F000F12CD6012D916D012C5C4EE958E0B801D8
:10590000C7010E94F517B5E0EB1AF108EDE3EE16BA
:10591000F10479F7B394085F1F4FF5E0BF12B3CFDE
:1059200010914E071F3F09F41BC18091CE028F5F7B
:105930008093CE028832E8F428E0129FB00111244F
:105940006A5E7F4F20E04BE958E08EE190E00E94D4
:10595000F51760914E0738E0639FB00111246A5E2D
:105960007F4F20E04BE958E083E690E00E94F51776
:1059700004C0813510F01092CE0280914F076091E3
:105980004E0781111EC048E0649FB00111246A5E79
:105990007F4F01E028E046E082E290E00E94652629
:1059A00060914E0758E0659FB0011124695E7F4FFA
:1059B000209150074EE958E083E290E00E948A1758
:1059C0000EC088E0689FB0011124695E7F4F20916E
:1059D00050074EE958E083E290E00E94F51780916D
:1059E0004F0760914E078130F1F498E0699FB00154
:1059F00011246A5E7F4F01E028E046E088E290E0F3
:105A00000E94652660914E07A8E06A9FB0011124AC
:105A1000695E7F4F209151074EE958E089E290E09E
:105A20000E948A170EC0B8E06B9FB0011124695E16
:105A30007F4F209151074EE958E089E290E00E94A3
:105A4000F51780914F0760914E078230F1F4E8E03E
:105A50006E9FB00111246A5E7F4F01E028E046E0AE
:105A60008EE290E00E94652660914E07F8E06F9FFD
:105A7000B0011124695E7F4F209152074EE958E032
:105A80008FE290E00E948A170EC028E0629FB0016A
:105A90001124695E7F4F209152074EE958E08FE252
:105AA00090E00E94F51710914F0780E80E9432267F
:105AB000882359F0E12FF0E0E25BF84F82818332D6
:105AC00011F4128202C08F5F828380E10E9432262D
:105AD000882359F0E12FF0E0E25BF84F82818111D9
