:100000000C94BC0D0C94E40D0C94E40D0C94E40DD4
:100010000C94E40D0C94E40D0C94E40D0C94E40D9C
:100020000C94E40D0C94E40D0C940A1E0C94791EAF
:100030000C94E40D0C94E40D0C94E40D0C94E40D7C
:100040000C94E40D0C94E40D0C94E40D0C94E40D6C
:100050000C94E40D0C94E40D0C94E40D0C94AB2082
:100060000C94E40D0C94E40D0C94E40D0C94E40D4C
:100070000C94E40D0C94E40D0C94E40D0C94E40D3C
:100080000C94F5200C94E40D0C94E40D0C94E40D08
:100090000C94E40D0C94E40D0C94E40D0C94E40D1C
:1000A0000C94E40D0C94E40D0C94E40D526F636B0E
:1000B00020416E6420466C790050686172617073F3
:1000C00020526576656E676500467269656E646C80
:1000D0007920496E76616465720054686520466FC8
:1000E0007265737400466C6F6174696E6720497342
:1000F0006C616E647300476F74205370696B657335
:100100003F00417420546865204265616368005374
:10011000686970777265636B205261727200476F15
:100120006C64656E2041726368657300556E64652A
:100130007267726F756E64004669727374204375DE
:1001400073746F6D657273008F85738571547182DE
:10015000D4810981327101F1017133810681D10F9E
:1001600083038604820F0B8204820F0F028205A193
:100170000441A30F02A18204A181A103140F0283F1
:100180005483038409A541A283A1038303D403A15B
:1001900005188404820A81558C0581A1098105D73F
:1001A0008505820981A10C84058222B12204820C7A
:1001B00084A44182617361A482A741A38F8F8700C9
:1001C0006E7155716D0F0F0F0F08A141A6078506BF
:1001D000A1F1A4B1A11781068105810581178706C8
:1001E0008102C101C1028105880551068101C20158
:1001F000C20181055104830551068101C201C2017A
:1002000081055105820551068102C101C1028105A6
:1002100051058204850481058104840482048108D7
:1002200081018101810181078104820481088101AA
:10023000810181018107810482048108870781048B
:1002400082A141A28121412F23412181A241A18F7D
:100250008F85006E7153716F610F076C0F086B41D2
:100260002505C105C10B657606C103C10E63D60520
:10027000C70E620AC201C301C20D6209CB04412349
:10028000046221B12106C101C701C1047454627323
:1002900006C101C105C101C10471D30462D309C201
:1002A00001C2077107620F086171076206620D6380
:1002B000710762214124627125F125716371214129
:1002C000256276627D6378610069546F660F0F0165
:1002D000A10F0F02A18107A109A10E1181A2051191
:1002E0000981A10E81120581A207811109A4418112
:1002F00005A2811205A281A30715810512810712AB
:1003000081130C81078109810F81A2058141A3021C
:10031000A3810CA1B1A1811201A341811402138117
:1003200041A40713810314810981150A81078109FA
:10033000810F8102A581A981AF81A26F6F640061E5
:1003400054667A6E0461055108710DD104D10551CE
:1003500008710F0951087103A441A30D51264121D1
:100360007103180D7A04860F0E8404A141A40F0DA9
:10037000158105A541A40D8505811A810C83088A84
:1003800004A2B1A1F1A1037101710A710471068186
:100390001481037131713A71347137843471017190
:1003A0000A710471077102710471E171EA71E471FB
:1003B000E771E271E4006E7154716F0862D37104E9
:1003C00071DA65096103D104D10AD1644124046161
:1003D000210F04647504622109230664096321085E
:1003E0007322046408216437647221046303257155
:1003F00064E766710463037562D96804630F056678
:100400000421630F0E2171630925B1240921716450
:10041000E97A2107217165796A71E7716F6F690067
:100420006F546F0F0F0F0F0F0E2541210F21412326
:100430000782650FC507D2816409210F04D171635A
:100440000981210F047181620A81210F0371D18218
:100450000B81234125097101D20C892207710F817B
:10046000068101822106710D22812681238124B11A
:1004700021712141230434CFCB34E4CFCBE400817C
:1004800071817181718171817181718171817181DC
:100490007181718171817181718171817153710F6C
:1004A0000E7103710F0E7103710F0E7153710E8176
:1004B0000F0522B12109812141220F016409850F15
:1004C0000923412181D40F09860F0DD5810F0F0318
:1004D000810F01F102812341298121412A81037188
:1004E0000231819C819B813471348F89357132E373
:1004F0008F87E671E2006E7154716801C101C1011C
:10050000610F0DC101C101C10F0EC101C101C103C4
:10051000C101C10A22B12108C105C101C101C10146
:10052000C109740721C125C101C101C101C10F0564
:1005300078C105C10F0CC125C1210F0B78072141DE
:1005400022072141260F7407680F0B5106610F0B1C
:100550005106612141260821F12107510669A72191
:100560007321A6512441216917751668006F536FD6
:10057000610F0F0F0F08A441A905A641A203A31EF6
:10058000051933138E058F8104510D86088204519D
:100590000F0C8204510422F1210DA20482A141A278
:1005A0008104740D820487A10BA103A241A28204DD
:1005B000880B81038704880B8101B101870488A51A
:1005C00041A5816387A141A28F85638C006F536F22
:1005D000610F0F0F0F0F0F0F0A41260F0C770F0E31
:1005E0006171610F0141250A710B2541760A710184
:1005F000B1097601617161096371630A6171610119
:1006000032713D713E713202710D710E7104710DC6
:10061000710E7104710D710E7102E271ED71EE7166
:10062000E2005F510F0F0F0F0F0841A84103338AFB
:100630003300060D0B051B0D1D070103020D070DF1
:100640001A0D1F0D0103020D19071B0D040A0609DF
:10065000100A1E050107120410081C0301030A04F6
:1006600009091A031A0C040B0C071005100B010CD6
:1006700010081B081F0D040302090C0D1903180AAA
:100680001E0D00070D04210703060C06050D0C05C1
:100690001A0D1C070003010D060D1B0D200D020392
:1006A000010D1A071C0D030A0709110A1D05000791
:1006B00011040F081D030203090408091903190C8A
:1006C000030B0B070F050F0B000C0F081A081E0D6C
:1006D000030301090B0D1803170A1D0D01070E0472
:1006E000200704060B060808FFFFFFFFFFFFFFFFC0
:1006F00000010000EC006100B500B5006100EC00F5
:10070000000000019FFFEC004BFFB50014FF6100EB
:1007100000FF000014FF9FFF4BFF4BFF9FFF14FFE4
:10072000000000FF610014FFB5004BFFEC009FFFCD
:1007300004083E09093E3F25251A1E2121123F21AA
:10074000211E3F2525213F0505011E21293A3F0491
:10075000043F213F21001021211F3F040A313F2087
:1007600020203F02023F3F02043F1E21211E3F097D
:1007700009061E21112E3F09093622252519013FA0
:1007800001011F20201F0F10201F3F10103F3B04AE
:10079000043B03043807312D2321102A2A3C3F242F
:1007A00024181C2222141824243F1C2A2A2C043E1C
:1007B00005014C52523E3F040438243D2000404085
:1007C000443D3F081422213F20003E04043E3E04E5
:1007D000023C1C22221C7E22221C1C22227E3E0461
:1007E0000204242A2A12021F22201E20201E0E107C
:1007F000201E3E10103E360808364E50503E322A1B
:1008000026221E29251E223F2000322929261221B8
:10081000251A0C0A3F08172525191E252518013908
:1008200005031A25251A0629291E002F000000207D
:1008300000000229050200040400D5F08D14A1C8AF
:1008400081CFD9F1AF2000E8031E000000C800B03E
:10085000041E000000C8004C041E000000C8000078
:10086000800108FF480BFFFFFF3030FFFFFF00FF54
:10087000FFFF00F8FEFF0763E3E300FFFFFF3030F8
:10088000FFFFFF00000000000E1F3FF3E3C000F871
:10089000FEFF07030300F8FEFF0303FFFEF800FF5F
:1008A000FFFF73FFDF0E00FFFFFF33333333070714
:1008B00007000007070700070707000103070706EF
:1008C00003070007070700000707070000000000F4
:1008D00007060607030100000307070606000003DA
:1008E00007060607030000070707000707070007BA
:1008F00007070606060653434F52453A004B0D00C4
:10090000F0FCFE0EC6C6C6000080F8FE0EFEF880A3
:100910000000FEFEFE7CE07CFEFEFE00FEFEFE66AB
:100920006666660000000000F0FCFE0606FEFCF0B5
:10093000023EFEF800F8FE3E0200FEFEFE6666661F
:100940006600FEFEFEE6FEBE1C000003070F0E0C56
:10095000070F000C0F0F0303030F0F0C000F0F0FF7
:100960000003000F0F0F000F0F0F0C0C0C0C0000FA
:1009700000000001070F0C0C0F07010000030F0F10
:100980000F010000000F0F0F0C0C0C0C000F0F0FCD
:10099000000F0F0E00181800400000103810000261
:1009A0008040B088F474F408F082878290000000E0
:1009B00000FC02AAFAFA0253FCFCFFFFAA0192B65D
:1009C00092B692B600FF0000001F20222F2F202594
:1009D000222523252220242524252425100F0061EB
:1009E0006C6C206C6576656C732100596F752063A3
:1009F0006F6D706C657465640010002D003E0023FF
:100A0000001600190010002D0016000F0010002D18
:100A10000057000F003700050010002D003E000FAA
:100A20000010002D0016002D00370014007B000F71
:100A30000010002D003E00230010002D0041000595
:100A40000010002D0016000F0057000F00008080DE
:100A500008FF0301B1A9FDA96901A101010101017B
:100A60000101010101010101010101010101010176
:100A700001010101010101010183EF83013149FD00
:100A800085D5F9050901A10101010101010101015A
:100A90000101010101010101010183EF830101D184
:100AA00061B179C9C9D161A161C101A1010101018E
:100AB000010101010183EF83010111C93DC9050154
:100AC000A101010101010101010101010101010374
:100AD000FF00000000000000000000000000000017
:100AE0000000000000000000000000000000000006
:100AF000000000000000E8FCFFFFFF7E2E00000069
:100B000000000000000000000000000000000000E5
:100B1000808080E0E0E080808080000000000000B5
:100B2000000000000000000000747EFFFFFF3F3F58
:100B30007F7FFFFFFF3F1700000000000000000064
:100B400000008080800000A0F0FCFCFCF8B80000F1
:100B50008080800000000000000000747EFFFFFF26
:100B60003F1703030707070100747EFFFFFF3F17CE
:100B700000000000000000808080000000D0F8FE2F
:100B8000FEFEFC5C00000080808000000000000091
:100B9000747EFFFFFF3F1700010103030300000005
:100BA000747EFFFFFF3F1700000000808080000080
:100BB000000000E8FCFFFFFF7E2E00000000008028
:100BC00080800000747EFFFFFF3F170000000000E0
:100BD0000101010000000000747EFFFFFF3F171BB2
:100BE00010000000000000000000000000000000F5
:100BF00000000000000000000000000000000000F5
:100C0000000000000000004854FE542400000000D2
:100C100000000000000000000000000000000000D4
:100C200000000080C0808000000000000000000084
:100C3000000000000000000000242A7F2A110A1F83
:100C40000A242A7F2A120000000000000000000091
:100C500000000000000000002050F850900000004C
:100C6000000000000000000000000000242A7F2A8D
:100C700012000001010301000000242A7F2A120053
:100C8000000000000000000000000000000090A82C
:100C9000FCA8480000000000000000000000000068
:100CA00000242A7F2A12000000000001000000003A
:100CB00000242A7F2A12000000000000000000002B
:100CC000000000004854FE54240000000000000012
:100CD0000000000000242A7F2A120000000000000B
:100CE000000000000000000000242A7F2A120008F3
:100CF0000818247E42467C020418247E62667C0228
:100D00000418247E72767C020418247E7E7E7C0287
:100D1000040808000200000000000000000040007D
:100D20000002000000004000000000010000000080
:100D300000000038012C011E010F010201F600E540
:100D400000DA00C900B900AC00240F00F8FCFEFE78
:100D5000FEFE1EEEEE1EFE1EFEFE1EFE3EDEDEBE93
:100D6000FE0EBEBE7EFEFE0EFEFEFEFEFCF8000087
:100D700003070F0F3F1F0E0D0F0E0F0E0D0D0E0F61
:100D80000E0D0D0E0F0C0F0F0C0F0F0D0F0F0F0F81
:100D900007030003051F111F001F001D1517111564
:100DA0001F07041F17151D1F151D01011F1F151FEC
:100DB00017151F080800400000000002000D9F2DBD
:100DC000970D9F2D974040404040404040280404EC
:100DD000484804042840404F09ED094F40050205EA
:100DE0000205020502A54299B5A59942A5BD188143
:100DF0004A528118BD5A8739D6D639875A825A9AAB
:100E000042985A9A58405040604050406018247EA2
:100E1000426A7C0204EEDD9D71EFDE9D7BFA3F00AD
:100E20001FFA1F003F5FFC00F85FF800FC817E00A6
:100E30006A64007E81000055AA55000000817E0092
:100E40005626007E81472A040A050A05080508057A
:100E500000000000040A050AE5FAFDFE1E0F070760
:100E6000070F00000002F0FFFF1FFFFFF0820000ED
:100E700000FFFFFFFF87C7FFFF7E3C000408000064
:100E80000102050A05080508050804080408000011
:100E90000000000000000000000000000000000F43
:100EA0003565DFB060404040E00080780F854F2B13
:100EB000282B4F850F788000FF05057F4343651F72
:100EC00086E63C000000000000000000000000007A
:100ED0000000000000000000000000000000000012
:100EE00000000000000000000000010101010101FC
:100EF00000010101010000000000010101010001E9
:100F000001010101010101000000000000000000DA
:100F10000000000000000000000000008018FAFA45
:100F20000202020202FAFAFAFAFA0202020202FAD1
:100F3000FAFAFAFA0202020202FAFAFAFAFA0000DD
:100F400000E0F8F8FC9C1C1C1C38000000FCFCFCB9
:100F5000FC1C1C1CFCFCF8F00000C0FCFC7CFCFC35
:100F6000C000000080E0F0F8783C1C1C1C3C000035
:100F7000FCFCFCFC1C1C1C1C1C1C000000FAFAFAEB
:100F8000FAFA0202020202FAFAFAFAFA0202020279
:100F900002FAFAFAFAFA0202020202FAFAFAE0E0B5
:100FA0001F1F1F1F1FE0E0E0E0E01F1F1F1F1FE0CB
:100FB000E0E0E0E01F1F1F1F1FE0E0E0E0E00000B6
:100FC00000808103070F9EFEFCF8F00000FFFFFF8A
:100FD000FF0E0E0F0F070701E0FCFFFFEFE0EFFF32
:100FE000FFFEE0003FFFFFFFC08000000080000028
:100FF000FFFFFFFF0E0E0E0E0E0E000000E0E0E001
:10100000E0E01F1F1F1F1FE0E0E0E0E01F1F1F1FA9
:101010001FE0E0E0E0E01F1F1F1F1FE0E0E00B0B00
:1010200008080808080B0B0B0B0B08080808080B2E
:101030000B0B0B0B08080808080B0B0B0B0B0040E5
:1010400020432747A747A747A341008040A747A7BA
:10105000070000000000002647A7470140004001AC
:1010600047A7472600004123472747274727400037
:10107000072747A747A7472747274000000B0B0B29
:101080000B0B08080808080B0B0B0B0B08080808CB
:10109000080B0B0B0B0B08080808080B0B0B0208BE
:1010A000D4D205087F7F3E1C084120FE0105F1F1E6
:1010B000F111D1B1D111F151515151515151515100
:1010C00051515151510000FF00007F7F09090F0667
:1010D000007F7F19396F46007F7F494941410026D3
:1010E0006F49497B3200266F49497B32FF0000FF80
:1010F000FFFFFEFFFEFF0279CD95A5CD790111110D
:101100001101F9F901010000FF00007F7F09090FBB
:1011100006007F7F40404040007C7E0B0B7E7C00C1
:10112000070F78780F0700000000000000FF0000A4
:101130001F3F3F33333333333E36363E363E363E43
:1011400036363E36363E360000FF00003E7F4141D7
:101150007F3E007F7F0E1C7F7F00000000000000AC
:1011600000000000000000000000000000003F4000
:1011700050404040784641415959414141415959B7
:10118000414141414141414100007F000001017F57
:101190007F0101007C7E0B0B7E7C007F7F09090FA5
:1011A00006007F7F494941410000000000000049DE
:1011B00007FA00E006FA007D06FA00E006FA0000F1
:1011C00000FA00AA08FA002D08FA000000FA00E070
:1011D00006FA004907FA000000FA00B909FA002DE2
:1011E00009FA000000F4017D06F4010000FA00E0B5
:1011F00006FA000080BA02A600E006A6007003A668
:10120000000000A600BA02A6000000A6007505A610
:10121000003F03A6009704A6000000A6002705A62D
:10122000003F03A6002006A600BA02A600C805A635
:10123000007D06A6000000E8030180080B00020202
:101240000200000904000001020200000524001051
:1012500001052401010104240206052406000107FA
:1012600005810310004009040100020A0000000784
:101270000502024000000705830240000004030944
:101280000412010002EF02014041233680000101F7
:1012900002030141726475696E6F204C4C4300413A
:1012A000726475626F79001008000000001C2DC880
:1012B0000000000206090000220FADFFFFFF381CEE
:1012C000C8000406030E120000220F9DFF00003824
:1012D00015C8000310060F11F401220F0000C8FF0B
:1012E0001825C800040C040F125802220F95FFC8DD
:1012F000FF381DC800040A041E209001220FDCFFE5
:10130000D7FF381CC800030C040F120000220F0086
:101310000000001D15C8000010010F120000220F70
:10132000D9FFDFFF381CC80004050401045802225D
:101330000F70FFC8FF3B2DC800041004090C00000B
:10134000220FC6FFFFFF381CC8000405040F115808
:1013500002220FB5FF0000380DC8000406050F116A
:101360005802220F74FFE7FF381CC8000410041D48
:1013700020580205050505050505050007070707AF
:101380007F7F7F0000000000FFFFFF00F0F0F0F023
:10139000FFFFFFF0F0F0F0F0F0F0F0FFFFFFF0F0F3
:1013A000F0F000FFFFFF00000000007F7F7F0707D5
:1013B0000707000808000101010101010000000009
:1013C000010101011F000000000000007E0000007C
:1013D000404040407C00404040404040007C404015
:1013E00040400000007E000000000000001F0101DE
:1013F000010100000040EC7E7FFE6800000C7EFFD3
:101400007E0000070800402C1E68000000000C7ED3
:101410000000000068FE7F7EEC4000007EFF7E0C36
:101420000007080000681E2C40000000007E0C0031
:1014300000087CFE7FFE6702087CFE7FFE6E0407CC
:10144000080008641E6402000008641E640400E0D2
:10145000F0E0E0F0E0E007084020404060404074E9
:10146000FEFCFEFFFFFFFFFFFEFCFCFCFCF8F06053
:10147000000002070707020000000000020707073C
:101480000260F0F8FCFCFCFCFEFFFFFFFFFFFEFC2F
:10149000FE740207070702000000000002070707AA
:1014A00002000074FEFCFEFFFFFFFFFFFEFCFCFCE1
:1014B000FCF8F06060F0F8FCFCFCFCFEFFFFFFFFB6
:1014C000FFFEFCFE740000000ECEFEF8F8F8F8F8FF
:1014D000F8F8F0F0E7E7E7FCFC7C70700000000033
:1014E000000E0EEEE1EF0F7F7F7F0F0F0F1F1F1F0C
:1014F0001FDFDFDF1F1E1C000000000000000000D7
:1015000000000000000000000000000001010100D8
:101510000000000000000000000070707CFCFCE790
:10152000E7E7F0F0F8F8F8F8F8F8F8FECE0E00006B
:1015300000000000001C1E1FDFDFDF1F1F1F1F0F2A
:101540000F0F7F7F7F0FEFE1EE0E0E000000000017
:101550000000000101010000000000000000000088
:1015600000000000000000000007E7F7FCFCFCFCA6
:10157000F8F8F8E0E7F7FFFCFCA00E8EBEF8F8E004
:10158000000000EEEEEF8F8F7F7FFFEFEF0F07077A
:101590001D1F1FFFF8FC1F3F3F3C00000000000024
:1015A0000303030000000000000000000000010130
:1015B00001000000000000000000E0F8F8BE8E0E00
:1015C000A0FCFCFFF7E7E0F8F8F8FCFCFCFCF7E710
:1015D0000700000000003C3F3F1FFCF8FF1F1F1DDD
:1015E00007070FEFEFFF7F7F8F8FEFEEEE0000001A
:1015F00000000000000101010000000000000000E8
:101600000000000303030000000000E0F8F8BE8EB5
:101610008EE0FCFCFFC7F770F0D0F0F83CFEFEF760
:10162000E3031C1C000000787F7F3FF1F1C70E0F21
:101630000F7F76778F8FEFEEEE8E80EEEEEE00006E
:101640000000000000000101010000000000000394
:10165000030300000303030000000000E0E7E707C6
:1016600000000E0E0E0707070000000E0E0E0070A1
:101670007077071F1C003838380ECECEC00000002F
:10168000808080000000808080000000EEEEEE0090
:10169000000000000001010100000003030300003E
:1016A0000003030303030300000000110B00741880
:1016B0006C1EDE1272767C186818D810600000006C
:1016C000000203020000000000000002030200000C
:1016D0006010D81868187C767212DE1E6C187400C0
:1016E00000020302000000000000000203020000EC
:1016F0000011080074186C1E5E1272767C1868184F
:1017000058106000006010581868187C7672125EDD
:101710001E6C1874001B12000000000480C070F0E2
:10172000F090002060C080A2E0A00800200000002F
:101730000000000004004000040026000400070729
:10174000000E020C820A020C0000000000000000E3
:101750000000000000000000000000000000000089
:101760000000000000000000000000000020000851
:10177000A0E0A280C060200090F0F070C080040063
:1017800000000000000000000C020A820C020E00A3
:1017900007070004002600040040000400000000C9
:1017A0000000000000000000000000000000000039
:1017B0000000000000000000001B120000000240BA
:1017C00060387800F090002060C280A8E0A000049B
:1017D000001040000000000044000000042006400B
:1017E00004000707000E020098041405180000000A
:1017F00000000000000100000000000000000000E8
:101800000000000000000000000000000000004098
:1018100010000400A0E0A880C260200090F00078D2
:101820003860400200000000000000180514049811
:1018300000020E00070700044006200400000044D8
:101840000000000000000000000000000000000098
:10185000000000000000000001000000001B120852
:1018600000000140600C1800B090002000820028A9
:1018700060A00004001040000000000044000000D0
:101880000440060004002206000602008020000931
:101890003000000000000000000100000000010016
:1018A0000000000000000000000000000000000038
:1018B0001B120800020020000000040000000000CD
:1018C000020000040000000002400000000000448C
:1018D0000000000000000000000000000000000008
:1018E0000080040000100000000000000002000062
:1018F00001000000000001000000000000000000E6
:101900000000000002070E070200000002070E0799
:1019100002000000000002070200000000000207B1
:101920000200000000110400000204020000000098
:10193000000204020000000000000002000000009D
:1019400000000002000000000000000002070E0777
:101950000200000002070E0702000000000002075C
:101960000200000000000207020000110400000055
:101970000002040200000000000204020000000057
:10198000000000020000000000000002000000044F
:10199000083E09093E3F25251A1E2121123F21211B
:1019A0001E3F2525213F0505011E21293A3F04043C
:1019B0003F213F21001021211F3F040A313F2020F9
:1019C000203F02023F3F02043F1E21211E3F090922
:1019D000061E21112E3F09093622252519013F0136
:1019E000011F20201F0F10201F3F10103F3B040439
:1019F0003B03043807312D2321102A2A3C3F24249D
:101A0000181C2222141824243F1C2A2A2C043E05C8
:101A1000014C52523E3F040438243D2000404044D3
:101A20003D3F081422213F20003E04043E3E0402B4
:101A30003C1C22221C7E22221C1C22227E3E0402EE
:101A400004242A2A12021F22201E20201E0E1020EB
:101A50001E3E10103E360808364E50503E322A26A2
:101A6000221E29251E223F20003229292612212547
:101A70001A0C0A3F08172525191E252518013905B6
:101A8000031A25251A0629291E002F000000200010
:101A9000000229050200040400240F00F8FCFE1EC9
:101AA000EE6E5EFE3EDEDE3EFEFEDE0EDEFE3EDE66
:101AB000DE3EFEFEFEFEFEFEFEFE0EFEFCF800001A
:101AC00003070F0E3D1D0C0F0E0D0D0E0F0F0F0E09
:101AD0000D0F0E0D0D0E0F0F0F0F0F0F0F0F0D0F20
:101AE000070300F8FCFEFFFFFFFFFFFFFFFFFFFF04
:101AF000FFFFFFFFFFFFFFFFFFFFFFFFFFFFFFFFF6
:101B0000FFFFFFFFFEFCF803070F1F3F7F3F1F1F74
:101B10001F1F1F1F1F1F1F1F1F1F1F1F1F1F1F1FD5
:101B20001F1F1F1F1F1F1F1F0F0703240F00F8FC7D
:101B3000DE0EDEFE3EDEDE3EFEFEFE1EEE6E5EFED5
:101B4000FE5E5E3EFEDE0EDEFEFE3E5E5E3EFCF8AD
:101B5000000003070F0E3D1F0E0D0D0E0F0F0F0E91
:101B60000D0D0C0F0E0D0D0C0F0F0E0D0D0F0E0D9C
:101B70000D0D07030000892111241FBECFEFDAE00D
:101B8000DEBFCDBF11E0A0E0B1E0EEE7F9E602C0B4
:101B900005900D92AE38B107D9F728E0AEE8B1E074
:101BA00001C01D92A131B207E1F71DE0CCEBDDE0F1
:101BB00004C02197FE010E947534CB3BD107C9F7C1
:101BC0000E949E220C94BD340C9400008091E70189
:101BD00008958F929F92AF92BF92CF92DF92EF9231
:101BE000FF92CF93DF934091EE075091EF07609102
:101BF000F0077091F107C090F207D090F307E090E2
:101C0000F407F090F5078091020828E081112BE09D
:101C100080917E0690917F06A0918006B09181060A
:101C2000E091100638E0E39FF0011124EA0FFB1F5A
:101C3000DF011796A738B105D8F5809082069090FD
:101C40008306A0908406B09085068091110638E046
:101C5000839FC00111248A0D9B1D883F3FEF93078E
:101C60003CF18034910524F5AB01772757FD709541
:101C7000672FEA014F5E5F4FE417F507CCF4CA17F0
:101C8000DB07B4F46701FF24D7FCF094EF2C30E0BD
:101C90002C0D3D1D821793075CF40896C816D906D3
:101CA0003CF488E7809318061092150610920408F9
:101CB000DF91CF91FF90EF90DF90CF90BF90AF90EA
:101CC0009F908F90089520918D0630918E0645E06B
:101CD00050E5813011F040E050E0ABECB7E0ED9121
:101CE000FD919281992399F060819181929FF001F9
:101CF000939FF00D1124E60FF11DF695E795E2583C
:101D0000F94F918960FD14C09F70952B918B97E0DE
:101D1000AF3DB90721F780939A0781110CC08091DC
:101D20009607909197079093990780939807089545
:101D3000907F942BEBCF90E080E0F5CF982F70E070
:101D400020918B0630918C0626173707B0F0209132
:101D50008D0630918E06629FF001639FF00D729F99
:101D6000F00D1124E80FF11DF695E795E258F94FB3
:101D7000818990FF82958F70089589E008951F935F
:101D8000CF93DF93182FD62F0E949E0EC82F853039
:101D900091F4DD23B9F06FEF6D0F812F0E949E0E3D
:101DA000853039F061E06D0F812F0E949E0E8530E5
:101DB00049F4C0E107C08F3029F480919A0781303F
:101DC00009F0C1E18C2FDF91CF911F910895EDE0D3
:101DD000F2E0A0E0B8E000800EBC8111012C119768
:101DE000A0FDFDCF0192B9F70DB4089590910C08B4
:101DF000982329F490910B08982381E009F480E05E
:101E000008959C01480F592F511D4138510514F078
:101E100040E850E0421BCB018770992791E001C058
:101E2000990F8A95EAF7FB0183E0F595E7958A9586
:101E3000E1F7F695FE2FEE27F795E795E20FF31FF2
:101E4000E35FFD4F415030F08191DF011197892B05
:101E50008C93F8CF0895E1E0F0E00E94400F3197B5
:101E600028F068517C4F8F4F9F4FF9CFAB01FC0199
:101E70000E94400F641775078E079F07C8F30895E7
:101E8000A3EEB1E02FB7F8947D918D919C9166B54A
:101E90002FBFA89B05C06F3F18F47F5F8F4F9F4FE8
:101EA00022E0660F771F881F991F2A95D1F70895A2
:101EB000FC0180910902882311F13FB7F89482E078
:101EC0008093E9002091F200822F90E01816190605
:101ED00014F481E090E0882339F0289844E6409398
:101EE00008024091F1004083222339F02091F20052
:101EF000211103C02BE62093E8003FBF08958FEF28
:101F00009FEF08952FB7F89483E08093E9009091B4
:101F1000E800892F807295FF04C09091F20080E460
:101F2000891B2FBF08958091000281110DC082E0AE
:101F30008093FC0184E08093FD011092FF011092D8
:101F4000FE0181E0809300028CEF91E008958F9272
:101F50009F92AF92BF92CF92DF92EF92FF920F9338
:101F60001F93CF93DF936C017B018A0180910C0159
:101F7000882309F458C080910902882309F453C0CA
:101F80008091FB0180FF05C08091E000826080931A
:101F9000E000E801B12C8AEFA82E93E0892E2AE315
:101FA000922E209711F4BB20B9F10E94820F81116B
:101FB00006C0AA94AA20B9F10E942B0FF2CF8C1769
:101FC0001D0611F00CF08C2F9FB7F8948092E90059
:101FD0002091E80025FD02C09FBFE3CF282F30E00D
:101FE000C21BD30BF701815020F041914093F100C7
:101FF000FACFE20EF31EBB2021F09092E800B12C44
:10200000EBCF8091E80085FDE7CF9092E800BB24FC
:10201000B394209709F3F3CF5D9884E68093FA0197
:10202000101611063CF081E090E0F6019383828364
:1020300010E000E0C801DF91CF911F910F91FF9058
:10204000EF90DF90CF90BF90AF909F908F900895CA
:10205000CF93DF931F92CDB7DEB76983DC01ED919B
:10206000FC910280F381E02D41E050E0BE016F5F02
:102070007F4F09950F90DF91CF91089583E0809372
:10208000E9008091F200882319F08AE38093E80048
:1020900008950E94820F90E00895CF93DF931F92DE
:1020A000CDB7DEB7FC018485958597FD08C02FEF7D
:1020B0003FEF358724870F90DF91CF910895CE01B0
:1020C00001960E94580F019719F4898190E0F3CF8F
:1020D0008FEF9FEFF0CF0F931F93CF93DF931F925C
:1020E000CDB7DEB78C01FC018485958597FF0BC0C9
:1020F000CE0101960E94580F019771F4898190E0FA
:10210000F80195878487F801848595850F90DF9184
:10211000CF911F910F9108958FEF9FEFF1CFFC01A9
:102120008485958597FD0BC09FB7F89482E08093D6
:10213000E9008091F2009FBF90E0019608959FB75B
:10214000F89482E08093E9008091F2009FBF90E0D4
:1021500008954091F6015091F7012091F4013091DA
:10216000F50142175307B4F49091E8009570E1F33C
:102170009091E80092FD19C08093F1008091F601E2
:102180009091F70101968F739927892B19F48EEF9F
:102190008093E8008091F6019091F7010196909369
:1021A000F7018093F60181E0089580E00895DF92C1
:1021B000EF92FF920F931F93CF93DF93D82E8A0154
:1021C000EB017B01E40EF51ECE15DF0559F0D7FEBD
:1021D00012C0FE0184910E94A91021968111F4CFB2
:1021E0000FEF1FEFC801DF91CF911F910F91FF906B
:1021F000EF90DF9008958881EECF0F931F93CF93D8
:10220000DF931F92CDB7DEB782E0898342E450E0CE
:102210006BE372E180E80E94D7100E94930FDC010B
:1022200012960D911C910115110589F0D801ED91BF
:10223000FC910280F381E02DBE016F5F7F4FC801EA
:10224000099597FD04C0F80100851185ECCF8981BF
:102250000F90DF91CF911F910F910895615030F051
:102260002091F100FC0120830196F8CF289884E6A4
:10227000809308020895AF92BF92CF92DF92EF92BF
:10228000FF920F931F93CF93DF936C017B018B0120
:10229000040F151FEB015E01AE18BF08C017D10770
:1022A00059F06991D601ED91FC910190F081E02DFA
:1022B000C6010995892B79F7C501DF91CF911F914F
:1022C0000F91FF90EF90DF90CF90BF90AF90089567
:1022D00020911D06E0911B06F0911C06CF0102968D
:1022E00090931C0680931B06222319F085919491EC
:1022F0000895808191810895CF92DF92EF92FF92AD
:10230000CF93DF930E946811811520E8920791F422
:10231000809171008D7F809371001092910046989A
:1023200047981092DA01DF91CF91FF90EF90DF9004
:10233000CF90089521E02093DA01813020E89207C0
:1023400051F48091190690911A0690931C0680937F
:102350001B060E94681197FD05C02091D901222318
:1023600009F454C02091D801211150C021E02093DC
:10237000DB01EC01DF77209709F04BC081E080930F
:10238000DC0146983FE9C32E3FE0D32EE12CF12C2F
:10239000CAEFD0E0E0917C06F0917D0609958111AD
:1023A00003C081E08093DC018091DB01882329F068
:1023B0008091DC01882309F43FC047980E9468118E
:1023C0000097F1F19C01DE010E943234DC01CB0167
:1023D00029E0B595A795979587952A95D1F71092FD
:1023E00090002AE020939100D0929900C09298002A
:1023F0008093DD019093DE01A093DF01B093E001B3
:10240000809171008260809371008DCF1092DB010A
:10241000B0CF9E0150E040E060E472E48FE090E0D5
:102420000E94DE3369017A0181E0C81AD108E1080F
:10243000F1081092DC01AECF4699BFCF479ABECFCC
:102440008FEF9FEFDC01CBCF0F931F93DC01E1E710
:10245000F0E090819D7F908310921D06EEE6F6E0FD
:10246000F0931C06E0931B06F0931A06E0931906FE
:10247000B183A083738362835583448382E390E0B6
:102480009783868331872087138702871F910F9157
:102490000C947C119C01E1E7F0E090819D7F90839A
:1024A00081E080931D0630931C0620931B06309319
:1024B0001A06209319060C947C116F927F928F92CA
:1024C0009F92AF92BF92CF92DF92EF92FF920F93C3
:1024D0001F93CF93DF934C01DB0158017C2D4115F5
:1024E000510509F4A0C0FA016491319684914E5FC0
:1024F0005F4FC62FD0E0211102C0EE2009F1E1E0CC
:10250000F0E0982F977011F4F0E0E0E0082F0695C6
:10251000069506950E0F1F2F111D0C9FF0010D9FA4
:10252000F00D1C9FF00D1124733009F08BC0EE0FDD
:10253000FF1F2E9F80012F9F100D1124400F511F50
:1025400084010C0F1D1F101611060CF06CC0F0E872
:102550008F1691040CF067C09D01280F311D1216D3
:1025600013060CF060C0A034B1050CF05CC041153E
:10257000510509F458C03A2F3770FD01B7FD379661
:1025800093E0F595E7959A95E1F72E2FB7FF04C0F4
:10259000332311F02FEF2E0FEE27FF27E819F9094B
:1025A00097FC02C0F0E0E0E090E8981900381105CF
:1025B0000CF4962F9E1BA22F022E000CBB0B1A2F81
:1025C00010952F3F0CF010E0DD24D394082F0770F6
:1025D00009F4D12C869586958695D80EAD0DB11D42
:1025E00019971CF0A8E0DA2ED21AD11A210F00E8B0
:1025F0002003D0011124A80DB91DAE0FBF1F619F8C
:10260000E00DF11D11244E0F5F1FE32E032E000C71
:10261000FF08733009F424C108F5713009F4D6C0FD
:10262000723009F484C0DF91CF911F910F91FF9018
:10263000EF90DF90CF90BF90AF909F908F907F9062
:102640006F900895A114B10409F473CFEE9E800138
:10265000EF9E100D1124A00EB11E6BCF7A3FB1F189
:102660000D2D020F7B3FF9F62017E9F2BD01635FE4
:102670007D4FD12CC12CC91608F0A2C0FA01EC0D77
:10268000FD1DE491F0E04F010E2C02C0880C991C56
:102690000A94E2F727FD06C0FB018081182D1095F2
:1026A00081238083332361F0273054F45B01F0E809
:1026B000AF0EB11C192D1095F50180818123808307
:1026C000FFEFCF1ADF0A6F5F7F4FD5CF0D2D020FBF
:1026D000201709F4A8CFBD01635F7D4FD12CC12C19
:1026E000C91608F067C0FA01EC0DFD1DE491F0E099
:1026F0004F010E2C02C0880C991C0A94E2F727FDAA
:1027000004C0FB01808188298083332351F0273066
:1027100044F45B01F0E8AF0EB11CF501808189291A
:102720008083FFEFCF1ADF0A6F5F7F4FD9CF6FEF44
:1027300070E0032E02C0660F771F0A94E2F76095DF
:102740007095972E8D2C820E281509F46CCF8D0173
:10275000035F1D4FD12CC12CC91630F5FA01EC0DC9
:10276000FD1DE491F0E03F010E2C02C0660C771CC9
:102770000A94E2F727FD05C0F801808186238629A7
:102780008083332359F027304CF45801F0E8AF0E22
:10279000B11CF5018081892187298083FFEFCF1A41
:1027A000DF0A0F5F1F4FD8CF2F5F4C0F5D1FA05860
:1027B000BF4FCACF2F5F4C0F5D1FA058BF4F88CFB0
:1027C0002F5F4C0F5D1FA058BF4F4ECF85010E0FDE
:1027D0001F1F8D2D820F281709F425CFBD01635FC0
:1027E0007D4FD12CC12CC91698F5F801EC0DFD1DBB
:1027F000A490B12C0E2C02C0AA0CBB1C0A94E2F7C8
:10280000A094B094FA01EC0DFD1D8490912C0E2C37
:1028100002C0880C991C0A94E2F727FD08C0FB014E
:102820007080E72DEA217E2E7828FB017082332309
:1028300049F027303CF4FB01E058FF4FA080BA205C
:10284000B928B082FFEFCF1ADF0A6F5F7F4FCBCF7F
:102850002F5F4C0F5D1F0C0F1D1FA058BF4FBBCF2C
:10286000E92EF12CE40FF51FA35FBD4F60E870E087
:102870006E197F09CE19DF09AE01440F551FC1E063
:10288000D0E07E01032E01C0EE0C0A94EAF7192F66
:102890000D2D892E932ECF93DF93ED01EF96EF96BA
:1028A0002296A590C590992059F0AE9C5001CE9CDF
:1028B000600127302CF4F880D094FD20FB28F99299
:1028C00022233AF0FC90C094FC20FA28FD920C944C
:1028D0006A1411961A9529F70A9551F0182D239527
:1028E0001124E40FF11DA60FB11DC60FD11DD9CFC4
:1028F000DF91CF91112497CECF92EF920F931F9338
:102900003BEFC32EE12C10E000E00E945D121F910E
:102910000F91EF90CF900895CF92EF920F931F9366
:1029200032E0C32EE12C10E000E00E945D121F9106
:102930000F91EF90CF900895CF92EF920F931F9346
:10294000F901202FCC24C3948F010E945D121F91A6
:102950000F91EF90CF900895CF92DF92EF920F9367
:10296000CF93DF93EB016D507109209117062F5F14
:102970006C01C20ED11C27FDDA9490910008809161
:102980008F07E12C00E023EE3AE1981760F04BE26C
:102990005BE1C6010E949C14DF91CF910F91EF90F3
:1029A000DF90CF90089549E95AE1C6010E949C1436
:1029B000209112062B5CBE01695071094FE859E164
:1029C000C6014996DF91CF910F91EF90DF90CF90A4
:1029D0000C947C148F929F92AF92BF92EF920F93C0
:1029E0000091F8078091FF07863270F48F31B8F4B8
:1029F0008823B9F1883108F042C00F91EF90BF9061
:102A0000AF909F908F9008958D3208F43FC084332B
:102A1000A0F78BEF25EC34E145E157E106C000E07B
:102A20008BEF29E036E14DE558E1082E000C990BBB
:102A30008090F2079090F307A090F407B090F5070C
:102A4000BC016A0D7B1D8090EE079090EF07A0906F
:102A5000F007B090F107E02E8A0D9B1D0E949C1498
:102A6000CCCF8091020823EA34E141EF56E188237C
:102A7000E1F280E02FE534E14BEA56E1D6CF00E009
:102A80008BEF2AE536E140EB58E1CFCF8BEF27E61D
:102A900035E149EB57E1C9CF4F925F926F927F9238
:102AA0008F929F92AF92BF92CF92DF92EF92FF925E
:102AB0000F931F93CF93DF9320910108211129C019
:102AC000AC01495F5F4F4738510518F5AB01485FCE
:102AD0005F4F48345105E8F400910D06209115062A
:102AE000213009F4A6C008F49BC0223009F4BBC011
:102AF000DF91CF911F910F91FF90EF90DF90CF90DA
:102B0000BF90AF909F908F907F906F905F904F900D
:102B1000089580910C02893059F7222321F0809189
:102B200012068E3F29F380910A02843108F72111A1
:102B30001CC18091100698E0899FE001112420912A
:102B4000110688E0289FF001112400917E06109163
:102B50007F06209180063091810640908206509039
:102B600083066090840670908506A901495F5F4FD7
:102B70004C0F5D1F4738510558F4AF01460D571DE6
:102B8000483F9FEF590724F0403451050CF4B0CF73
:102B90008090EE079090EF07A090F007B090F107BB
:102BA000C501BB2797FDB095AB2FC090F207D09021
:102BB000F307E090F407F090F507A701772757FD9A
:102BC0007095672F801A910AA20AB30ACA19DB0905
:102BD000C418D508E608F708EE19FF09282F30E0D9
:102BE00000E810E06801C21AD30A31952195310935
:102BF000C217D3070CF0D2C0E42EF12C28E330E04A
:102C00002E193F09F194E194F108EE15FF050CF43B
:102C1000BEC0E217F3070CF4B1C005E030E3B2C068
:102C2000E12C00E02FE434E146E554E10E949C14DD
:102C30005FCFE02E21E334E14FE354E10E949C1486
:102C40008091090890910A086FE070E00E944D346D
:102C5000892B09F04DCF81E090910D06911180E014
:102C600080930D0645CFC09017060C2C000CDD0894
:102C70008C0D9D1D20911606E02E263009F042C0D5
:102C800023E134E141E254E10E949C14809109085F
:102C900090910A0887709927892B09F029CF809194
:102CA000100628E0829FC001112423E0C20ED11C2F
:102CB000C80ED91E8091EE079091EF07A091F00702
:102CC000B091F107CD01089640917E0650917F06A4
:102CD0006091800670918106861B970BC816D906F5
:102CE000C1F081E090910D06911180E080930D0676
:102CF0008091170690911606963049F48150809382
:102D00001706F6CE25EF33E143E054E1BDCF8F5FE8
:102D1000F6CF81E08093010810920408909100089A
:102D200080918F079817A0F09091920720919307B8
:102D3000291770F0E92FE695F0E0E258F94F818904
:102D400090FD04C08F70818B9F5FF2CF807FFBCF9F
:102D500002E310E022E530E045EA50E062E370E093
:102D600087E295E00E942412C3CE8091130698E07A
:102D7000899FE001112420911406E3CE3CEF340F2B
:102D80003E0F06E0CC15DD0504F580E00FC0E2172C
:102D9000F3070CF042CF07E030E0F4CFCC15DD05AF
:102DA000A4F4F7FF0CC08C0F00E030E0632F70E05C
:102DB000E02E23E733E143EB53E190E037CFEF2BF5
:102DC00009F18C0F04E030E3F1CF242F30E088E3E9
:102DD00090E0821B930B319521953109E217F3079F
:102DE0004CF0E817F9075CF43CEF340F3E0F02E0BB
:102DF00088E7DCCF01E030E0E817F907CCF303E027
:102E000030E3F6CF00E030E0C0CFBC0190E080E0DE
:102E1000AB01FC010E94400F41505109E109F10949
:102E200028F068517C4F8F4F9F4FF6CFAB01FC01CC
:102E30000E94400F641775078E079F07C8F3089517
:102E40008FB18095807F669B88601C9B846008950D
:102E500080389105B8F460347105A0F420E191E068
:102E600061FD94E060FD990F62FD9295687F269F59
:102E7000D0011124A80FA35FBD4F8C9140FF03C068
:102E8000892B8C93089590958923FBCF8F929F92E5
:102E9000AF92BF92CF92DF92EF92FF920F93CF93B8
:102EA000DF935B01EC014C01840E911C6B01C20E9F
:102EB000D11CC815D905D4F47501B7FE02C0F12C98
:102EC000E12CC60121E4C216D10414F080E490E0A4
:102ED000E816F9064CF4402FB701CE010E942817DE
:102EE0008FEFE81AF80AEDCF2196E3CFDF91CF916B
:102EF0000F91FF90EF90DF90CF90BF90AF909F9099
:102F00008F9008959F92AF92BF92CF92DF92EF92EF
:102F1000FF920F931F93CF93DF938C01942E6B013D
:102F2000C81AD90AD7FE03C0D194C194D1088FEF33
:102F3000061717070CF481E0C0E4D0E0F12CE12C77
:102F4000A82E880FBB08492DB801C7010E94281779
:102F5000CC19DD09D7FF04C00A0D1B1DC058DF4F77
:102F60008FEFE81AF80A81E8E816F10461F7DF91BB
:102F7000CF911F910F91FF90EF90DF90CF90BF9076
:102F8000AF909F9008950895CF92EF920F931F9363
:102F9000CF93DF93EC019E816A3071F48D818C8335
:102FA0006985960F9E8381E090E0DF91CF911F911C
:102FB0000F91EF90CF900895262F6F3389F130F560
:102FC0006E32A1F140F4613279F198859C5F8C8179
:102FD000890F8C83E8CF80ED860F2C5F8A30A8F7AD
:102FE00061E0690F062E000C770B8C81082E000C17
:102FF000990B3F813130E1F43AEFC32EE12C10E020
:1030000000E040E357E00E945D12DFCF6134E8F258
:103010006B3540F08FE9860F27548A3108F3D5CFFE
:1030200020E4DECF2154DCCF2EE3DACF2FE3D8CF5C
:1030300040E357E00E947C14C8CFEF92FF920F93B9
:103040001F93CF93DF938C017B01D0E0C0E0F701A9
:10305000EC0FFD1F6491662339F0C8010E94C4176C
:10306000892B11F02196F3CFCE01DF91CF911F91E3
:103070000F91FF90EF900895089590E080E00895FB
:10308000FC019081992361F01CF49C3F34F4089575
:10309000913049F099304CF00895990F908308953C
:1030A0008FEF80830895108208959595F7CFFC01E6
:1030B00090819F3F71F01CF4983F34F40895992358
:1030C00051F095305CF0089597FD9F5F9595908342
:1030D00008951082089581E080830895990FF7CFB5
:1030E000EF920F931F9380910408811115C0809176
:1030F0000C028830A9F084E00E94F60E882381F04B
:103100008091FA079091FB07892B51F0809102087A
:1031100091E08927809302081F910F91EF90089505
:103120008091090890910A0883709927892BA1F74B
:103130008091030881110BC00E94201785FF73C086
:1031400086EF97E00E94401881E08093F8070E9484
:10315000201783FF2EC08091FA079091FB07892BDF
:1031600041F18091F807882309F468C0813009F49F
:103170007EC08091090890910A0865E070E00E9485
:103180004D34892B31F480910B028F5F81708093D5
:103190000B0287EF97E00E94401802E310E021E263
:1031A00030E041E450E062E370E081E290E00E94B0
:1031B00024128091090890910A0887709927892B19
:1031C00071F40E94201783FF06C08091FA07909146
:1031D000FB07892B21F487EF97E00E945718809115
:1031E000090890910A088F709927892B09F094CFCC
:1031F0000E94201785FD90CF0E94201786FD8CCF5E
:103200008091F607181624F486EF97E00E94401884
:103210008091F60787FF80CF86EF97E01F910F918F
:10322000EF900C9457180E94201786FF90CF86EFDE
:1032300097E00E9457181092F80789CF00910B026F
:103240008091F2079091F307A091F407B091F507F0
:10325000BD01685F7F4FE02E29E439E14BE659E17B
:103260008091F0079091F1070E949C1482CF009109
:103270000B028091F2079091F307A091F407B091AF
:10328000F507BD01685F7F4FE02E23E039E145E29D
:1032900059E1E6CFCF93DF93C8E9D1E06B81762F78
:1032A000770F770B998141E0892F990F990B0E9435
:1032B0002817249681E0C83DD80781F7DF91CF9188
:1032C0000895CF92DF92EF92FF9280EF96E0A8E907
:1032D000B1E0C0901701D0901801E0901901F09072
:1032E0001A01FC01459154912D913C911197420F87
:1032F000531F11965C934E93FC01329625913491A5
:1033000057FD17C012964D915C911397240F351FEE
:1033100037FD0FC013963C932E9312970496149684
:1033200021E0A83DB207E9F6FF90EF90DF90CF9043
:103330000895CD92DD92ED92FC921397EFCFE8E9DC
:10334000F1E08091170190911801A0911901B091BD
:103350001A0181939193A193B19321E0E83DF20783
:10336000C1F781E08093F0010895AF92BF92CF92B0
:10337000DF92EF92FF920F931F93CF93DF93B82EBC
:1033800040E870E060E090E080E00E94010FC091B2
:103390009601D09197018E01E12C003811050CF5B2
:1033A00084E0C82ED12CF12C8E2D8170A82E8F2D6B
:1033B0008170A1100CC069F0F39488E0C80ED11C94
:1033C00087E0F812F4CFE394085F1F4FE6CF88231D
:1033D00099F320E046EE56E0B601C8010E948C1435
:1033E000EBCF40E86FE370E090E080E00E94010FD7
:1033F0008091090880FD10C0BB20C9F02197C13819
:103400008FEFD8072CF0D0939701C093960104C09A
:103410001092970110929601DF91CF911F910F9119
:10342000FF90EF90DF90CF90BF90AF9008952196DE
:10343000D7FDE9CF80E89FEF9093970180939601A5
:10344000EBCF8A3030F4853010F4813031F481E0F4
:1034500008958C30E1F38031D1F380E00895FF923C
:103460000F931F93CF93DF93F42E9EE09417E8F011
:103470009DE0491708F08CC09BE0491749F1809105
:10348000020881110CC08091F707181644F48F2DA3
:103490000E94211A882319F083E38093FF07DF91AC
:1034A000CF911F910F91FF9008958FE04813E7CFC0
:1034B00080E00E94630E00E510E025E735E043E977
:1034C00050E060E570E081E290E00E942412D7CFE6
:1034D00091E09093050820910D0130910E01232B6E
:1034E00031F428EC30E030930E0120930D019091DF
:1034F0000908937021F6E5ECF7E0C191D19198812C
:10350000891303C09981691731F097E0EB3CF90703
:10351000A1F7D0E0C0E08A818823A9F12091FA07C1
:103520003091FB07809194079091950728173907F0
:1035300050F52DE031E080910D0190910E010A9639
:1035400090930E0180930D01809171008D7F809387
:10355000710010921D0630931C0620931B063093B9
:103560001A06209319060E947C118091FA07909107
:10357000FB0701969093FB078093FA078A818111DC
:1035800081508A837CCF10920E0110920D0177CF6B
:1035900083E38093FF0773CFCF92DF92EF92FF9286
:1035A0000F931F93CF93DF93082FD62F109191077E
:1035B0001230C8F0C82F8F3F49F40E946733212F83
:1035C00030E050E040E00E94DE33C62FDF3F09F4D8
:1035D0005FC0DEEF66C00E946733A70196010E94BC
:1035E000DE33C62F65C0DEEFC0E08091860690E036
:1035F000880F991FFC01EE5AFE4F208131814C2F1C
:1036000050E0440F551FF901E40FF51FE491E093DA
:103610001006FA013196E20FF31FE491E0931106D0
:10362000C0930F06D0931206DE3FB1F0865C9E4F2A
:10363000FC01808191816D2F70E0660F771FFC0186
:10364000E60FF71FE491E0931306FB013196E80FB4
:10365000F91FE491E093140610920D0681E0809327
:1036600015060E94673324E130E040E050E00E94FC
:10367000DE33665F7F4F8F4F9F4F60930E06DF9163
:10368000CF911F910F91FF90EF90DF90CF90089511
:103690000E946733212F30E050E040E00E94DE338B
:1036A000D62FC12ED12CF12CE12C0F3F09F09DCF4C
:1036B00080910F068C1709F48ECF80911206C817DF
:1036C00009F489CFC12ED12CF12CE12CCD138DCF53
:1036D0000E946733A70196010E94DE33D62FF6CFF2
:1036E0002F923F924F925F926F927F928F929F9212
:1036F000AF92BF92CF92DF92EF92FF920F931F9300
:10370000CF93DF93CDB7DEB762970FB6F894DEBFE5
:103710000FBECDBF8093860691E090939A0791E10A
:10372000899FB001112469557D4E41E150E0CE01E1
:1037300001960E94BF33298130E030938E0620939A
:103740008D068A8190E090938C0680938B0673E0BF
:10375000220F331F7A95E1F730938A06209389066A
:10376000E3E0880F991FEA95E1F79093880680932C
:1037700087068B819C81092E000CAA0BBB0BDC01F8
:103780009927882780937E0690937F06A0938006D2
:10379000B09381068D819E81092E000CAA0BBB0B74
:1037A000DC01992788278093820690938306A09353
:1037B0008406B09385068B8580938F078C858093D4
:1037C00090078D85809391078E85809392078F85D2
:1037D0008093930789859A859093950780939407A2
:1037E000888999899093970780939607A5ECB7E00D
:1037F000ED91FD911082118212821382E7E0AB3CC1
:10380000BE07B1F7EBECF7E08FED97E0A191B19136
:1038100012961C928E179F07C9F7E0918606F0E07A
:10382000EE0FFF1FEE5DFE4F80809180D12CC12CEA
:10383000612C712C68E2262E312C412C512CF40184
:103840001491012F02950F701F7009F464C0F02FBE
:10385000F295F07FFA8B7601970136952795F9015D
:10386000E258F94F8189E0FC3AC08F709A89892B20
:10387000818B0530B9F10B3009F560918D0670919F
:103880008E06C7010E944D34E72DF0E0EE0FFF1FBA
:10389000EB53F84FA080B180F501808361830E94D3
:1038A0006733A20191010E94DE33DC01CB018896CF
:1038B000A11DB11DF5018283838373949FEFE91AE3
:1038C000F90A8E2D8C19811738F21150812F90E052
:1038D0000196C80ED91EEFEF8E1A9E0AB0CF807FD8
:1038E000802BC6CF60918D0670918E06621773078C
:1038F00028F7C7010E944D34E62DF0E0EE0FFF1FC0
:10390000E553F84F0190F081E02D8083618381E0E1
:1039100082836394D3CF62960FB6F894DEBF0FBE56
:10392000CDBFDF91CF911F910F91FF90EF90DF906E
:10393000CF90BF90AF909F908F907F906F905F904F
:103940004F903F902F900895CF93DF93CDB7DEB780
:1039500061970FB6F894DEBF0FBECDBF0E94701BFB
:103960006091860681E1689FB001112469557D4E02
:1039700041E150E0CE0101960E94BF33EEEEF7E048
:10398000108611861286138A81E0848B858B168AB5
:10399000178A118A89859A85958784878F8190E017
:1039A000B0E0A0E0DC019927882780839183A2837F
:1039B000B383888590E0B0E0A0E0DC0199278827F8
:1039C00084839583A683B7838FEF80930F066196D8
:1039D0000FB6F894DEBF0FBECDBFDF91CF91089533
:1039E0008F929F92AF92BF92EF92FF920F931F938D
:1039F000CF93DF93CDB7DEB7A1970FB6F894DEBFB4
:103A00000FBECDBF7C01262F30E050E040E019A270
:103A10008E010F5D1F4F8AE0882E912CA12CB12CB6
:103A2000CA01B901A50194010E941034605DF8013A
:103A300062938F01211531054105510589F790E009
:103A400080E0309759F0C70101900020E9F73197E5
:103A5000AF01401B510BB8010E943B11A1960FB65C
:103A6000F894DEBF0FBECDBFDF91CF911F910F91B4
:103A7000FF90EF90BF90AF909F908F9008950C941F
:103A8000C833DF92EF92FF920F931F93CF93DF9390
:103A900000D000D000D01F92CDB7DEB795E0899F4F
:103AA00080011124C80188559F4F0E943F1DD82EC8
:103AB000C80187559F4F0E943F1DE82EC8018655BB
:103AC0009F4F0E943F1DF82EC80185559F4F0E94B1
:103AD000C8338E83C80184559F4F0E94C8335E81CE
:103AE000682F2D2D3E2D4F2D70E080E090E0279621
:103AF0000FB6F894DEBF0FBECDBFDF91CF911F91FF
:103B00000F91FF90EF90DF9008951F93CF93DF9375
:103B1000EC01162F0E94C833181739F0612FCE011F
:103B2000DF91CF911F910C94D033DF91CF911F91F2
:103B30000895FF920F931F93CF93DF93EC018B01B6
:103B4000FB01F0800E94C833F81621F06F2DCE01E2
:103B50000E94D033F801F1802196CE010E94C83333
:103B6000F81621F06F2DCE010E94D033C801DF91ED
:103B7000CF911F910F91FF9008950F931F93CF93B3
:103B8000DF9300D0CDB7DEB7082F86EA90E00E9421
:103B90003F1D182F87EA90E00E943F1D011104C0CD
:103BA000133511F4833479F18AE090E09A838983A4
:103BB00063E586EA90E00E94851D63E487EA90E071
:103BC0000E94851D08EA10E060E0C8010E94851D82
:103BD00060E0C80101960E94851D60E0C801029660
:103BE0000E94851DBE016F5F7F4FC80103960E9432
:103BF000991D89819A8102979A8389830B5F1F4F50
:103C0000013C110509F70F900F90DF91CF911F91A3
:103C10000F9108951F920F920FB60F9211248F9358
:103C20009F938091E1009091E100937F9093E10058
:103C300083FF0FC01092E90091E09093EB00109287
:103C4000EC0092E39093ED001092090298E09093BB
:103C5000F00082FF22C093E09093E9009091F2007F
:103C6000992319F09AE39093E8009091FA0199232F
:103C700041F09091FA0191509093FA01911101C095
:103C80005D9A90910802992341F090910802915019
:103C900090930802911101C0289A84FF18C0809166
:103CA000E2008E7E81608093E2008091E1008F7E51
:103CB0008093E1008091FB018E7E80618093FB0107
:103CC0009F918F910F900FBE0F901F90189580FFBE
:103CD000F7CF8091E2008E7E80618093E200809138
:103CE000E1008E7E8093E1008091FB018E7E8160F9
:103CF000E5CF1F920F920FB60F921124CF92DF9251
:103D0000EF92FF920F931F932F933F934F935F93E5
:103D10006F937F938F939F93AF93BF93EF93FF9393
:103D2000CF93DF93CDB7DEB76C97DEBFCDBF1092D8
:103D3000E9008091E80083FF25C068E0CE01459648
:103D40000E942E1182EF8093E8008D8987FF39C091
:103D50009091E80090FFFCCF982F907609F034C145
:103D60009E894F89588D2F89F88C911131C08038E8
:103D700061F58091F9018093F1001092F1008EEFCE
:103D80008093E8006C960FB6F894DEBF0FBECDBFEF
:103D9000DF91CF91FF91EF91BF91AF919F918F9163
:103DA0007F916F915F914F913F912F911F910F9153
:103DB000FF90EF90DF90CF900F900FBE0F901F906D
:103DC00018959EEF9093E800C7CF1092F100D5CFE1
:103DD000913059F48111D3CF4130510581F6809152
:103DE000F9018D7F8093F901CACF933049F4811195
:103DF000C6CF4130510519F68091F9018260F2CFAA
:103E0000953041F48091E80080FFFCCF206820933A
:103E1000E300B5CF963009F0A9C00B8D1C8D22E0D0
:103E20001092E9001092F7011092F601F2122EC0E2
:103E30001092F5011092F4010E94FD101F8299E08A
:103E40009983FA8291E09E8390EA98879AEF998706
:103E50002091F6013091F701275F3F4F3C832B8380
:103E60008D831092E9001092F7011092F6011093E1
:103E7000F5010093F40149E050E0BE016F5F7F4F10
:103E800080E00E94D7100E94FD1079CF1093F501B9
:103E90000093F4010E94930FDC0112960D911C9186
:103EA0000115110509F451C1D801ED91FC9104806F
:103EB000F581E02DBE016B5E7F4FC801099500972B
:103EC00009F03EC1F80100851185EACFF3E0FF1249
:103ED0000EC08F89882309F440C0823061F440E825
:103EE00067E08FE992E10E945621811148CF81E27B
:103EF0008093EB0047CF813029F440E86BE083E901
:103F000092E1F1CF833099F70E94930FDC01129672
:103F1000ED90FC908E010F5F1F4F6801E114F104DA
:103F200079F0D701ED91FC910680F781E02DB80181
:103F3000C7010995080F111DF701E084F184EECF48
:103F4000D8011C92F60101900020E9F73197BF01DA
:103F50006C197D0940E0C601C6CF6DE772E1FB0137
:103F6000449150E080E80E94D71009CF973009F4BF
:103F7000BECF983021F481E08093F10000CF9930DA
:103F800009F0FDCE837009F0B2CFECE1F1E081E001
:103F900031E096E32191222371F08093E900309380
:103FA000EB00DF0111972C912093EC009093ED0032
:103FB0008F5F873079F78EE78093EA001092EA00EE
:103FC0008F8980930902DBCE8B8D9C8D1092E90046
:103FD0001092F7011092F6019093F5018093F4018D
:103FE000898D811192C08E899D89913A49F48132DF
:103FF00009F07DCF47E050E065E071E080E0B3CFAD
:10400000913209F074CF833269F48F89988DB0E0D2
:10401000A0E08093010190930201A0930301B0936B
:104020000401ADCE803269F48091E80082FFFCCFBC
:1040300067E085E091E00E942E118BEF8093E8000D
:104040009ECE823209F09BCE8F8980930C01EEEFD9
:10405000FFE7859194918B3F9C4D51F1E0E0F8E0B2
:104060008091050190910601A0910701B09108018E
:10407000803B9440A105B105F1F480910C0180FDD5
:104080001AC0EE3F8AE0F80789F587E797E7918342
:104090008083809160008093F80188E19BE00FB6F7
:1040A000F894A895809360000FBE9093600067CE4F
:1040B000EEEFFAE0D5CF808191818737974709F0FD
:1040C0005ECEA895809160008861809360008091A9
:1040D000F80180936000EE3F2AE0F20789F08091BA
:1040E000FE0A9091FF0A9183808349CE808191815D
:1040F0008737980751F29093FF0A8093FE0AC5CF45
:104100001092FF0A1092FE0A3ACE0E94930FDC0131
:1041100012960D911C910115110509F4E8CED801F4
:10412000ED91FC910190F081E02DBE016B5E7F4F1F
:10413000C8010995811123CEF80100851185EBCFC7
:10414000181619060CF41BCED2CEF1E0FF12BECE2B
:1041500061E872E104CF0F920FB68F939F93EF93B4
:10416000FF938091E2018D5F8D3708F08D5780932A
:10417000E201E8EEF1E080818E4F808391819F4FD4
:10418000918382818F4F828383818F4F8383E3EE7C
:10419000F1E080818F5F808381818F4F8183828175
:1041A0008F4F828383818F4F83838FB18F60669916
:1041B0001C9B88278F3681F48091E101981B9630F3
:1041C00068F0E0E0F8E087E78083818388E180930E
:1041D0006000F0936000FFCF9093E101FF91EF91B9
:1041E0009F918F910FBE0F9018951F920F920FB64F
:1041F0000F9211242F933F934F935F936F937F936D
:104200008F939F93AF93BF93EF93FF938091DD01C3
:104210009091DE01A091DF01B091E001892B8A2B02
:104220008B2B09F440C08091DC0181110BC088B157
:1042300090E4892788B98091DB01882319F088B13F
:10424000805888B98091DD019091DE01A091DF0155
:10425000B091E001181619061A061B069CF480910D
:10426000DD019091DE01A091DF01B091E0010197A5
:10427000A109B1098093DD019093DE01A093DF01D4
:10428000B093E001FF91EF91BF91AF919F918F911A
:104290007F916F915F914F913F912F910F900FBE42
:1042A0000F901F9018950E947C11ECCFEF92FF9217
:1042B0000F931F93CF93DF93F82E192FE62E042F21
:1042C00081E0860F880F0E94A91083E00E94A91048
:1042D000CF2DD12FEC0EFD2EF11CCE15DF05B9F040
:1042E00007FF13C0FE0184910E94A910182F80E0DF
:1042F0000E94A910812321968111EFCFDF91CF91E8
:104300001F910F91FF90EF9008958881EDCF81E08C
:10431000F5CF109221061092200688EE93E0A0E0DF
:10432000B0E08093220690932306A0932406B093D6
:1043300025068EE691E090931F0680931E068FEF70
:104340009FEF90932B0680932A0610920B081092F1
:104350000C0880E180930D0810920A081092090859
:1043600010920F088CE891E090930708809306085C
:1043700086EE9DE090937D0680937C0680E090E839
:1043800090937B0680937A0646983E9A47983F9A88
:104390001092EE071092EF071092F0071092F107BB
:1043A0001092F2071092F3071092F4071092F5079B
:1043B0001092F6071092F7071092F8071092F9077B
:1043C0001092FB071092FA071092FD071092FC075B
:1043D0001092FE07109201081092020881E080936B
:1043E000030810920408109205081092E707109233
:1043F000E60720E831E03093E5072093E4071092C8
:10440000ED078093EC071092E9071092EA071092EB
:10441000E8078093EB071092E0071092E1071092F3
:10442000E2071092E3079FEF9093DF0710927E065A
:1044300010927F06109280061092810610928206DA
:1044400010928306109284061092850610928806B8
:104450001092870610928A061092890610928C0696
:1044600010928B0610928E0610928D061092950770
:10447000109294071092970710929607109299073E
:104480001092980780939A078BE997E09093C6075C
:104490008093C5078FE997E09093C8078093C7077B
:1044A00083EA97E09093CA078093C90787EA97E069
:1044B0009093CC078093CB078AEA97E09093CE073E
:1044C0008093CD078DEA97E09093D0078093CF0734
:1044D00080EB97E09093D2078093D10783EB97E02E
:1044E0009093D4078093D30786EB97E09093D607F9
:1044F0008093D50789EB97E09093D8078093D707EF
:104500008CEB97E09093DA078093D9078FEB97E0D5
:104510009093DC078093DB0782EC97E09093DE07B3
:104520008093DD07EBECF7E08FED97E0A191B1917F
:1045300012961C928E179F07C9F70895CDB7DEB764
:10454000A797DEBFCDBF789483E084BD83E085BDAF
:1045500081E080936E00E1E8F0E083E08083E0E8B2
:1045600081E08083E1E983E08083E0E981E080838A
:10457000E1EC87E08083E3EC81E08083E0EC82E0A3
:104580008083E2EC81E08083EAE787E080838068D3
:104590008083109209021092F9011092FB01809120
:1045A000D70081608093D70080EA8093D80089B5D6
:1045B000806189BD89B5826089BD09B400FEFDCFE7
:1045C0000E942B0F8091D8008F7C80618093D8004F
:1045D0008091E000807F8093E0008091E1008E7EFA
:1045E0008093E1008DE08093E200559A209A81EC5F
:1045F00080937C0085B1806F85B984B1877E84B952
:1046000084B1876E84B95E9A5F988AB1806D8AB9E9
:10461000769A6E9881B3806F81BB899880B38D70D4
:1046200080BB80E58CBD81E08DBD85E090E00E947F
:1046300005175F9A85E090E00E9405175E985C98E8
:10464000EAE3F8E087E498E024912EBD00000DB481
:1046500007FEFDCF31968E179F07B1F75C9A81E870
:10466000809364008091650081608093650080E0A4
:104670000E94E70E0E94201787FF10C05C9885EA11
:104680008EBD00000DB407FEFDCF5C9A2E982F98CA
:104690002D9881E083BF889513BEFCCF0E94201720
:1046A00082FF3AC02D980E94201784788438A9F49C
:1046B0002D9A88EC90E00E9405172F986FEF82E00A
:1046C00090E00E94851D84EF91E00E9405172F9ACB
:1046D0000E94201784788438D9F30E9420178471AF
:1046E0008431A9F42D9A88EC90E00E9405172E9849
:1046F00060E082E090E00E94851D84EF91E00E94DE
:1047000005172E9A0E94201784718431D9F388EC02
:1047100090E00E940517C2CF2D9A82E090E00E949F
:104720003F1D882309F440C03E9A3F9A81E0809360
:10473000E70180E0EDE0F2E081118FEF002481934A
:104740008193819381930394D1F780E180930D0845
:1047500080E00E94BD1D8E010D5E1F4F1B8F0A8FD2
:104760009E012A5F3F4F3D8F2C8F8FB7F894409169
:10477000E8015091E9016091EA017091EB018FBF6E
:1047800080910E08342F381B832F90910F089923A6
:1047900081F03093100810920F0880E090E0892B90
:1047A00021F30E940000DCCF1092E7013E983F9871
:1047B000C0CF90910D08391740F48F5F891768F7C3
:1047C00081E083BF889513BEE8CF81E080930F0816
:1047D00040930E088091090890910A0801969093E1
:1047E0000A088093090880910B0880930C080E94A6
:1047F000201780930B08E0910C02EF3008F053C0B3
:10480000F0E0EB5FFB4D0C9475341424182457260C
:104810006D26882794279F27E427F227F2278C2BE1
:10482000DA2BE12B612CD72C81E080930C023BC06A
:1048300090910C089095892319F082E080930C02E6
:1048400020E049EA50E161E170E080E290E00E94FE
:104850008C148091090890910A0860E370E00E942E
:104860004D34883108F01DC211E18C3008F01EE192
:1048700020E042EA50E169E170E08BE590E00E94BF
:104880008C14612F70E041E084E390E00E942817CF
:1048900010FD09C020E04EE950E16CE170E08DE2CE
:1048A00090E00E948C1481E00E94E70E80910C023F
:1048B000833019F0893009F070CFB091F7078B2E53
:1048C0000B2E000C9908AA08BB08540199248824CF
:1048D00075016401FF0CCC08DC2C76019401A50164
:1048E0006C2D7C2D8C2D9C2D00E10E947B34790158
:1048F0008A01F62FE72F6C01A0E00E94B1346CF41E
:1049000021503109484F5F4F6F4F7F4F8F4F9F4F5F
:1049100079018A01F62FE72F6C019701A8016F2F0B
:104920007E2FC60103E10E94943449015A01409050
:10493000F607042C000C5508660877083201552448
:10494000442473016201FF0CCC08DC2C7601920137
:10495000A3016C2D7C2D8C2D9C2D00E10E947B34BD
:1049600079018A01F62FE72F6C01A0E00E94B13493
:104970006CF421503109484F5F4F6F4F7F4F8F4F7D
:104980009F4F79018A01F62FE72F6C019701A8014B
:104990006F2F7E2FC60103E10E9494342E8F3F8F2C
:1049A00048A359A30091EE071091EF072091F0075B
:1049B0003091F1078901332717FD3095232F40915E
:1049C0007E0650917F066091800670918106AB0152
:1049D000772757FD7095672F041B150BC090F207C2
:1049E000D090F307E090F407F090F5076701FF24FB
:1049F000D7FCF094EF2C4090820650908306609094
:104A0000840670908506A301772757FD7095672F60
:104A10001601241A350AB7FF6FC0C10187709927A4
:104A2000892B99F52114310411F40C94912FC101B3
:104A300073E0969587957A95E1F7BFEFB80FBAA323
:104A4000F801A3E0F695E795AA95E1F7FDA3ECA39D
:104A50006B2F8CA10E94BF0E0E94211A81110C9411
:104A6000912F6AA18CA18F5F0E94BF0E0E94211A14
:104A700081110C94912F6AA18CA18E5F0E94BF0EB0
:104A80000E94211A81110C94912F8091F90788239B
:104A900039F081508093F907811102C01092020809
:104AA0001092030810920E0110920D018091F207EE
:104AB0009091F307A091F407B091F50777FC02C03D
:104AC0000C946D2F0097FCE1AF07B10514F00C9426
:104AD000002F481459046A047B0414F00C94242F0A
:104AE000481859086A087B0840928206509283064B
:104AF00060928406709285068091F70718160CF074
:104B00006DC080910208882311F40C94C12F3BE002
:104B10003AA3EAA04E2C512C3101640C751CC30140
:104B200087709927892B91F5809187069091880647
:104B30006816790611F40C947E30630153E0D69424
:104B4000C7945A95E1F7780163E0F694E7946A9583
:104B5000E1F76C2D8E2D0E94BF0E0E94211A81114B
:104B60000C947E306C2D81E08E0D0E94BF0E0E9451
:104B7000211A81110C947E306C2D82E08E0D0E94E2
:104B8000BF0E0E94211A81110C947E308091F20791
:104B90009091F307A091F407B091F50700972CE1ED
:104BA000A207B10514F00C94F72FAC01BD01480D1C
:104BB000591D6A1D7B1D411551053CE163077105B7
:104BC00014F00C94C52F4093F2075093F3076093B1
:104BD000F4077093F50784E18093F9078091F60755
:104BE00087FD02C00C941432C80187709927892B65
:104BF00021F583E0169507958A95E1F7FF24FA944D
:104C0000F00E810193E0169507959A95E1F7602FD4
:104C10008F2D0E94BF0E0E94211A8111BECDB7E0D8
:104C20002B223324232849F061E0600F8F2D0E944E
:104C3000BF0E0E94211A8111B0CD80917E06909105
:104C40007F06A0918006B09181064091EE075091B9
:104C5000EF076091F0077091F107B7FD02C00C9467
:104C6000E83141155105E8E36E07710514F00C9425
:104C70006F31EE8CFF8C08A119A18E159F05A0073E
:104C8000B10714F00C94A4318E199F09A00BB10B3D
:104C900080937E0690937F06A0938006B093810652
:104CA0007CCD1FE1843208F4ECCD10E2EACD109205
:104CB000F301109218061092F20181E08093000136
:104CC00080E00E94A41C6EEF809100010E94CC1A2B
:104CD0001092F80783E080930C0240917E06509179
:104CE0007F0660918006709181068091100698E0A1
:104CF000899F40011124860E971E80918206909113
:104D00008306A0918406B091850660911106E8E0C3
:104D10006E9F300111246A0E7B1E8091F30188235F
:104D200019F081508093F30180911806882379F05F
:104D300090910001815080931806811108C081E094
:104D4000911180E0809300016EEF0E94CC1A20E068
:104D50004CE15FE067E070E090E080E00E948C143E
:104D600020E045E45EE06FE170E08DE190E00E94BC
:104D70008C143090000110E0E12EF12C80918B0614
:104D800090918C06E816F90608F07BC0E3E0EE0C83
:104D9000FF1CEA95E1F7512C9701225031093DA300
:104DA0002CA3A701415051095FA34EA3C52CD12CC0
:104DB00080918D0690918E06C816D90608F05FC0C6
:104DC00073E0CC0CDD1C7A95E1F7612F852D0E94F4
:104DD000BF0E882309F449C0843009F048C02090F0
:104DE0009107E0918606F0E0EE0FFF1FE65CFE4FB4
:104DF000A080B18090E080E0D6011296BF8FAE8F88
:104E0000F6013396FBA3EAA3281661F1F50124917C
:104E10003196E49144244394480E52121EC01E134E
:104E20001CC038121AC024E043EB5DE0B701C60194
:104E30000E948C1401E027E045E06CA17DA18E8DDD
:104E40009F8D0E944617242D43E95DE06EA17FA14E
:104E50008AA19BA10E947C1491E0F2E0AF0EB11CEC
:104E6000842DD2CF2AE0992319F053949FCF282F75
:104E700043EB5DE0B701C6010E948C14F6CF1F5FC3
:104E80007BCF0E94EA14B301C4010E944C150E941A
:104E9000701880910108811105C08091150681115B
:104EA0000E94E90D8091F301882321F0B301C40130
:104EB0000E94AC14809118068823A1F0B3016D50B4
:104EC0007109809117067401E80EF11C87FDFA94B0
:104ED000C701E12C00E023EE3AE149E45DE00196F0
:104EE0000E949C148091F2079091F307A091F4071F
:104EF000B091F5070097A942B1050CF4D4CC80918C
:104F0000F70718160CF0CFCC81E080930208CBCCC9
:104F100081E08093F20185E08093FE071092FD0707
:104F20001092FC0780930C028091F2010E94701B8A
:104F300085EF91E10E944A1286E080930C028091F5
:104F4000F001811102C00E949F190E9461190E9404
:104F50004A1900E021E14EE567E170E082E190E06E
:104F60000E9446174CE569E170E083E190E00E9401
:104F7000010F4CE566E270E083E190E00E94010FD2
:104F8000809190078A5E8093E9078093E8078CE11F
:104F90008093EA07E0918606E150F0E0EE0FFF1FF4
:104FA000ED5CF24F6591749184EE97E00E941D18BC
:104FB00088E00E94F60E882319F087E080930C02A7
:104FC00088E08093F1016FCC10920B028091F20186
:104FD0000E94A41C6FEF8FEF0E94CC1A8091F10108
:104FE00080930C0280910A028F5F68E20E94413434
:104FF00090930A0240917E0650917F066091800650
:10500000709181068091100618E0819F2001112483
:10501000460E571E8091820690918306A0918406C9
:10502000B09185062090110628E0229E10011124DF
:105030002A0E3B1E8091F301882319F08150809342
:10504000F30180911806882349F081508093180657
:10505000811104C06FEF8FEF0E94CC1A80919807E6
:1050600090919907009751F0019790939907809339
:105070009807892B19F481E00E94630E10E0A12E9D
:10508000B12C80918B0690918C06A816B90608F079
:10509000D9C0750143E0EE0CFF1C4A95E1F7FF8E85
:1050A000EE8E712C872C912C80918D0690918E061E
:1050B0008816990608F0C4C080917E0690917F06FC
:1050C000A0918006B0918106740133E0EE0CFF1CC4
:1050D0003A95E1F7EA0EFB1EC7010896883891055C
:1050E00008F04EC08091820690918306A0918406BC
:1050F000B0918506CE8CDF8CCA0EDB1EC6010896E9
:1051000088349105E8F5612F872D0E94BF0E843009
:10511000C9F18B3009F473C0282F43EB5DE0811196
:105120002BC020918B0630918C06A29EC001A39EBD
:10513000900DB29E900D1124880E991EC401039605
:105140006BE170E00E944D349C0127703327232BC4
:10515000B9F42091090830910A088226932603E0C9
:1051600080229924892861F023E0969587952A95D5
:10517000E1F7282F41E15DE0B601C7010E948C14E0
:10518000739490CF24E043EB5DE0B601C7010E9429
:105190008C1401E027E045E0B60162507109C701B7
:1051A00002960E94461780910A02843148F7609067
:1051B0009107E0918606F0E0EE0FFF1FE65CFE4FE0
:1051C0008080918000E021E0C21AD10833E0E30E34
:1051D000F11C6016A9F2F40184913196E4910F5FFD
:1051E000781209C01E1307C0202F43E95DE0B60105
:1051F000C7010E947C14F2E08F0E911CEACFA5EC4F
:10520000B7E0ED91FD918081781203C0818118177C
:1052100039F02BEC37E02A173B0799F7F0E0E0E094
:10522000828134E0839FC0011124638170E00E9479
:105230006134262F643008F023E04FEE5CE09CCF11
:105240001F5F1DCF8091FF07AE014F5F5F4F6A0167
:105250008111D7C00E94701880910108811105C08A
:105260008091150681110E94E90D80910C02893010
:1052700009F0C7C010920508F60111928A8D9B8D26
:105280008E179F07D1F74091F2075091F307609175
:10529000F4077091F507AB01772757FD7095672FDD
:1052A0008091820690918306A0918406B091850634
:1052B000CD01BB2797FDB095AB2F5A01A81AB90AAB
:1052C0008091EE079091EF07A091F007B091F10760
:1052D000CD01BB2797FDB095AB2F40917E06509135
:1052E0007F066091800670918106AB01772757FD9C
:1052F0007095672F841B950B7C01F3E0F694E7947F
:10530000FA95E1F7662463946E0CA2E07A2E7E0C87
:105310008501B3E016950795BA95E1F7602F8E2DBC
:105320000E94BF0E4601880E911CD4019C919111E0
:1053300008C0482F602F8E2D0E942F1A81E0F401A3
:105340008083602F862D0E94BF0E4601880E911C1F
:10535000D4019C91911108C0482F602F862D0E9486
:105360002F1A81E0F4018083602F872D0E94BF0EE9
:105370004601880E911CD4019C91911108C0482FC0
:10538000602F872D0E942F1A81E0F4018083F8E0BE
:10539000AF16B104B0F10F5F602F8E2D0E94BF0ECB
:1053A0005601A80EB11CD5019C91911108C0482F3F
:1053B000602F8E2D0E942F1A81E0F5018083602FCF
:1053C000862D0E94BF0E7601E80EF11CD7019C913C
:1053D000911108C0482F602F862D0E942F1A81E05E
:1053E000F7018083602F872D0E94BF0EF601E80F22
:1053F000F11D9081911105C0482F602F872D0E94CB
:105400002F1A80910C02883021F480910A02843195
:1054100010F40E94EA141091EF01112361F187E268
:1054200090E0811B910997FD07969C0103E035955B
:1054300027950A95E1F78091F2079091F307A091E3
:10544000F407B091F507BD016A5071098091EE072C
:105450009091EF07A091F007B091F107E22E022F93
:1054600021ED3AE04FED5BE0CD0105970E949C14E1
:1054700011501093EF01B101C2010E944C1520E0C0
:105480004FE45AE068E370E090E080E00E948C1402
:105490008DE08093E9078093E80789E38093EA072A
:1054A0008091FC079091FD07F6012AE030E0B901F8
:1054B0000E944D348193CB01EC8CFD8CEE16FF06DF
:1054C000B1F78E010A5F1F4FD8016E918D0184EEF6
:1054D00097E00E94F01CC016D106B1F7E090FA07E1
:1054E000F090FB07C7010197439708F065C08091D2
:1054F0000A02843108F060C000E028E04EE169E370
:1055000070E08CE290E00E9446178EE58093E907F8
:105510008093E80709E30093EA078091FE071AE009
:10552000612F0E944134692F84EE97E00E94F01CA5
:1055300083E78093E9078093E8070093EA07809167
:105540000E06612F0E944134092F0E944134692FB9
:1055500084EE97E00E94F01C602F84EE97E00E949A
:10556000F01C8091F301882321F0B101C2010E9457
:10557000AC14809118068823A1F0B1016D50710917
:1055800080911706F201E80FF11D87FDFA95CF0112
:10559000E12C00E023EE3AE149E45DE001960E944F
:1055A0009C1480910C02883091F50E94F60E88239D
:1055B00009F479C989E039C989E38093E9078093BF
:1055C000E8078093EA07C70164E670E00E944D3463
:1055D000CB010AE010E0B8010E944D34682F84EE40
:1055E00097E00E94F01CC701B8010E944D34F82ECC
:1055F000CB01B8010E944D34682F84EE97E00E94E1
:10560000F01C6F2D84EE97E00E94F01C7ECF8091FD
:10561000FF0790910508992339F18333C8F483304B
:10562000F8F4823009F452C08091090890910A0878
:105630006FE070E00E944D34892B09F034C98091ED
:10564000EE018F5F8B3008F05CC08093EE012BC9B8
:10565000833351F789EF99E00E944A128091FF0746
:1056600081508093FF07E0CF8111D7CF6091F7077A
:105670002091090830910A0867FF0CC0062E000C23
:10568000770B80EC9FEF0E946134C9010E944D347A
:10569000892B39F0C90168E170E00E944D34892BF3
:1056A00019F68091FA079091FB07009729F001976E
:1056B0009093FB078093FA078091FA079091FB077C
:1056C000892B09F0B1CF10920208AECF81E0809310
:1056D000FF078091FE0781508093FE07882369F0C1
:1056E000809186060E94701B1092FF0787E08093CE
:1056F0000C0288E08093F10197CF8BE080930C023D
:1057000093CF1092EE0180910E068B3008F4CBC837
:10571000815080930E06C7C88091F001811102C0AC
:105720000E949F190E9461190E944A1900E02EE10F
:1057300042E662E170E08FE090E00E94461740E6AA
:1057400063E170E080E190E00E94010F40E66EE2CC
:1057500070E080E190E00E94010F8BE28093E90706
:105760008093E80788E18093EA076BEE79E084EEA6
:1057700097E00E941D1881E38093E9078093E80772
:1057800082E28093EA076FED79E084EE97E00E9471
:105790001D1820E045E959E065E170E082E190E004
:1057A0000E948C1488E00E94F60E882309F47BC8BE
:1057B0008BE03BC88FEA91E10E944A128CE0809313
:1057C0000C0281E00E94B51900E02FE140E860E1A1
:1057D00070E090E080E00E94461740E06DE070E0ED
:1057E0008DE090E00E94821740E06FE070E08FE073
:1057F00090E00E94821741E061E170E081E190E079
:105800000E94821741E06DE270E08DE290E00E941C
:10581000821740E06FE270E08FE290E00E94821712
:1058200040E061E370E081E390E00E94821720E0B5
:105830004DEF58E064E170E089E190E00E948C1443
:1058400084E28093E9078093E80783E28093EA0784
:1058500066EF78E084EE97E00E941D188091FC07C7
:105860009091FD078E010F5F1F4F7801F8012AE02C
:1058700030E0B9010E944D348193CB014C8D5D8D98
:105880004E175F07B1F78E010A5F1F4FD8016E9167
:105890008D0184EE97E00E94F01CE016F106B1F74E
:1058A00088E00E94F60E811105C084E00E94F60E89
:1058B000882319F08DE080930C021092F2010C9471
:1058C00053248FEF8093DF071092E0071092E107D7
:1058D0001092E2071092E3078091FC079091FD0778
:1058E000998F888FF12C8F2D0E94411D29833A8337
:1058F0004B835C836D832C813D81888D998D281726
:10590000390758F50CEB10E0B4E0EB2EFE1460F50F
:10591000EA948E2D0E94411D29833A834B835C8338
:105920006D83622FC8010E94851D6A81C80101969E
:105930000E94851D6B81C80102960E94851D8C8185
:105940009D819C8B8B8BBE016D5E7F4FC801039642
:105950000E94991D05501109D9CFF394B5E0FB12AF
:10596000C2CFFF24FA941EC0E5E0FE9E8001112400
:1059700060E0C80188559F4F0E94851D60E0C80106
:1059800087559F4F0E94851D60E0C80186559F4F37
:105990000E94851DBE01685E7F4FC80185559F4FDF
:1059A0000E94991DF092DF078EE080930C0280E048
:1059B0000E94B51900E020E442E570E060E087E174
:1059C00090E00E94461710E000E041E0B80188E155
:1059D00090E00E9428170F5F1F4F00341105A9F7B0
:1059E00010E000E041E0B80187E690E00E9428174F
:1059F0000F5F1F4F00341105A9F720E044E658E07F
:105A000066E070E08CE190E00E948C1405E110E00B
:105A1000512CF6E04F2E9E012F5F3F4F69013E0152
:105A200037E0630E711CAAE08A2E912C852D0E940E
:105A3000411D2B8B3C8B4D8B5E8B6F8B4FE859E15F
:105A4000B80183E290E00E948C142C894FE859E160
:105A5000B80189E290E00E948C142D894FE859E149
:105A6000B8018FE290E00E948C14D601E42D1D92C3
:105A7000EA95E9F78E899F895601F601B4010E94E3
:105A80004D348193CB016E167F06C1F7E9E5EE2E0A
:105A9000F12CD5012D915D012C5C4FE859E1B80145
:105AA000C7010E948C14B5E0EB1AF108EBE3EE1687
:105AB000F10479F75394085F1F4FF5E05F12B6CFFA
:105AC0001091DF071F3F09F418C18091ED018F5F2E
:105AD0008093ED018F3008F0E5C008E0109FB00121
