:100000000C946D0C0C94950C0C94950C0C94950C14
:100010000C94950C0C94950C0C94950C0C94950CDC
:100020000C94950C0C94950C0C94380E0C94AA0E10
:100030000C94950C0C94950C0C94950C0C94950CBC
:100040000C94950C0C94950C0C94950C0C94950CAC
:100050000C94950C0C94950C0C94950C0C941C120F
:100060000C94950C0C94950C0C94950C0C94950C8C
:100070000C94950C0C94950C0C94950C0C94950C7C
:100080000C9414130C94950C0C94950C0C94950CE6
:100090000C94950C0C94950C0C94950C0C94950C5C
:1000A0000C94950C0C94950C0C94950C0102040581
:1000B00006060E0801050D020606110520020105BF
:1000C0000D02060610041D020103010101010101D8
:1000D000010303010101010101030101010101010A
:1000E00001030101010101010104040106010101F3
:1000F00001010101030301010101010303010101E8
:1001000001010103030101010101010101010103D9
:1001100001010101010101030301010101030303C5
:1001200001010101010301030101010101040401B5
:1001300001010601010101010101030301010101A6
:100140000303030101010103010103010101010195
:100150000101010101030101010101010103030189
:100160000101010303030101010103010103010175
:100170000104040101010101060101010101010164
:100180000303010101010303030101010103010153
:10019000030101010101010101010103010101014B
:1001A0000101010303010101010303030101010135
:1001B0000301010301040101010101010101010128
:1001C000010101010101010101010101010101011F
:1001D00001010101010101010808080808080505DD
:1001E0000508080808080808080808080808080892
:1001F00008080808080808080808010101010101A9
:1002000001010101010101010108080101010101D0
:1002100001010108080101010101010101010102BF
:1002200001010101010101010202040808010101AB
:1002300001010101010101010101010202040101A9
:100240000108010101010101010109090908010178
:100250000101020101010101010101010109090975
:100260000101010802010101010101010101010176
:100270000101010208020101010801010101010857
:10028000080802020408080101010101010101013D
:100290000101020204080808020101080801010125
:1002A0000101010109090908080101010101010118
:1002B00001010101090909080808080303080801E8
:1002C0000101010303030101010101010101010118
:1002D000010101010101010101010101010101010E
:1002E00001010101010101010101010101010101FE
:1002F00001010101010101010101010101010101EE
:1003000001010101010101010101010101010101DD
:1003100001010101010101010101010101010101CD
:1003200001010101010101010101010101010101BD
:1003300001010101010101010101010101010101AD
:10034000010101010101010101010101010101019D
:10035000010101010101010101010101010101018D
:10036000010101010101010101010101010101017D
:10037000010101010101010101010101010101016D
:10038000010101010101010101010101010101015D
:10039000010101010101010101010101010101014D
:1003A000010101010101010101010101010101013D
:1003B000010101010101010101010101010101012D
:1003C000010101010101010101010101010101011D
:1003D000010101010101010101010101010101010D
:1003E00001010101010101010101010101010101FD
:1003F0000101010101010101D5F08D14A1C881CFD6
:10040000D9F1AF2000F9F9F9F9F9F9F9F901010188
:100410000101010101F9F9F9F9F9F9F9F90101010C
:100420000101010101F9F9F9F9F9F9F9F9010101FC
:100430000101010101F9F9F9F9F9F9F9F9010101EC
:100440000101010101F9F9F9F9F9F9F9F9010101DC
:100450000101010101F9F9F9F9F9F9F9F9010101CC
:100460000101010101F9F9F9F9F9F9F9F9010101BC
:100470000101010101F9F9F9F9F9F9F9F9010101AC
:1004800001010101010707070707070707F8F8F847
:10049000F8F8F8F8F80707070707070707F8F8F864
:1004A000F8F8F8F8F80707070707070707F8F8F854
:1004B000F8F8F8F8F80707070707070707F8F8F844
:1004C000F8F8F8F8F80707070707070707F8F8F834
:1004D000F8F8F8F8F80707070707070707F8F8F824
:1004E000F8F8F8F8F80707070707070707F8F8F814
:1004F000F8F8F8F8F80707070707070707F8F8F804
:10050000F8F8F8F8F8F8F8F8F8F8F8F8F80707073E
:100510000707070707F8F8F8F8F8F8F8F8070707E3
:100520000707070707F8F8F8F8F8F8F8F8070707D3
:100530000707070707F8F8F8F8F8F8F8F8070707C3
:100540000707070707F8F8F8F8F8F8F8F8070707B3
:100550000707070707F8F8F8F8F8F8F8F8070707A3
:100560000707070707F8F8F8F8F8F8F8F807070793
:100570000707070707F8F8F8F8F8F8F8F807070783
:1005800007070707070707070707070707F8F8F828
:10059000F8F8F8F8F80707070707070707F8F8F863
:1005A000F8F8F8F8F80707070707070707F8F8F853
:1005B000F8F8F8F8F80707070707070707F8F8F843
:1005C000F8F8F8F8F80707070707070707F8F8F833
:1005D000F8F8F8F8F80707070707070707F8F8F823
:1005E000F8F8F8F8F80707070707070707F8F8F813
:1005F000F8F8F8F8F80707070707070707F8F8F803
:10060000F8F8F8F8F8F8F8F8F8F8F8F8F80707073D
:100610000707070707F8F8F8F8F8F8F8F8070707E2
:100620000707070707F8F8F8F8F8F8F8F8070707D2
:100630000707070707F8F8F8F8F8F8F8F8070707C2
:100640000707070707F8F8F8F8F8F8F8F8070707B2
:100650000707070707F8F8F8F8F8F8F8F8070707A2
:100660000707070707F8F8F8F8F8F8F8F807070792
:100670000707070707F8F8F8F8F8F8F8F807070782
:1006800007070707070707070707070707F8F8F827
:10069000F8F8F8F8F80707070707070707F8F8F862
:1006A000F8F8F8F8F80707070707070707F8F8F852
:1006B000F8F8F8F8F80707070707070707F8F8F842
:1006C000F8F8F8F8F80707070707070707F8F8F832
:1006D000F8F8F8F8F80707070707070707F8F8F822
:1006E000F8F8F8F8F80707070707070707F8F8F812
:1006F000F8F8F8F8F80707070707070707F8F8F802
:10070000F8F8F8F8F8F8F8F8F8F8F8F8F80707073C
:100710000707070707F8F8F8F8F8F8F8F8070707E1
:100720000707070707F8F8F8F8F8F8F8F8070707D1
:100730000707070707F8F8F8F8F8F8F8F8070707C1
:100740000707070707F8F8F8F8F8F8F8F8070707B1
:100750000707070707F8F8F8F8F8F8F8F8070707A1
:100760000707070707F8F8F8F8F8F8F8F807070791
:100770000707070707F8F8F8F8F8F8F8F807070781
:100780000707070707878787878787878798989846
:100790009898989898878787878787878798989861
:1007A0009898989898878787878787878798989851
:1007B0009898989898878787878787878798989841
:1007C0009898989898878787878787878798989831
:1007D0009898989898878787878787878798989821
:1007E0009898989898878787878787878798989811
:1007F0009898989898878787878787878798989801
:10080000989898989853434F52453A0047414D4520
:10081000204F564552000D9F2D970D9F2D9700009C
:1008200000000000000040404040404040401605AD
:1008300012041402150640404F09ED094F4005020D
:100840000502050205020709070F0709070F5A8766
:1008500039D6D639875A5A8739D6D639875A825ADD
:100860009A42985A9A582400FFFFFFFFFFFFFFFFAC
:10087000FFFFFFFFFFFFFFFFFFFFFFFFFFFFFFFF88
:10088000FFFFFFFFFFFFFFFFFFFFFFFFFFFFFFFF78
:10089000FFFFFFFFFFFFFFFFFFFFFFFFFFFFFFFF68
:1008A000FFFFFFFFFFFFFFFFFFFFFFFFFFFFFFFF58
:1008B000FFFFFFFFFFFFFFFFFFFFFFFFFFFFFFFF48
:1008C000FFFFFFFFFFFFFFFFFFFFFFFFFFFFFFFF38
:1008D000FFFFFFFFFFFFFFFFFFFFFFFFFFFFFFFF28
:1008E000FFFFFFFFFFFFFFFF010101010101010108
:1008F00001010101010101010101010101010101E8
:1009000001010101010101010101010101010101D7
:1009100001010101010101010101010101010101C7
:1009200001010101010101010101010101010101B7
:1009300001010101010101010101010101010101A7
:100940000101010101010101010101010101010197
:100950000101010101010101010101010101010187
:1009600001010101010101018009FE0101010101F3
:100970000101010101010101010101010101010167
:100980000101010101010101010101010101010157
:1009900001FE0171890535458971010101010101DE
:1009A000010101010101010101FE000D9F2D970DC3
:1009B0009F2D970D9F2D970D9F2D970D9F2D970D77
:1009C0009F2D970D9F2D970D9F2D970D9F2D970D67
:1009D0009F2D970D9F2D970D9F2D970D9F2D970D57
:1009E0009F2D970D9F2D970D9F2D0100000000005A
:1009F00000000000000000000000000000000000F7
:100A000000000000000000000000000000000000E6
:100A100000010000000101010000000000000000D2
:100A200000000000000000000001000101010101C0
:100A300001010101010101010101010101010101A6
:100A40000101010101010101010101010101010196
:100A50000101010101010101010101010101010186
:100A6000010101010101010101010002070E07025C
:100A700000000002070E070200000000000207024B
:100A80000000000000020702000000001104000046
:100A90000204020000000000020402000000000046
:100AA0000000020000000000000002000000000042
:100AB00000000002070E070200000002070E0702F6
:100AC0000000000000020702000000000002070210
:100AD00000001104000000000204020000000000F9
:100AE00002040200000000000000020000000000FC
:100AF00000000200000070F8FEFFFFFFFFFFFFFE96
:100B0000FEFFFFFFFAF06060F0FAFFFFFFFEFEFF5E
:100B1000FFFFFFFFFFFEF87011080070186E1E5EE9
:100B20001272767C186A1E5A1060000060105A1EFD
:100B30006A187C7672125E1E6E187000087CFE7F4A
:100B4000FE6702087CFE7FFE6E0407080008641E34
:100B50006402000008641E6404008080808080803D
:100B60008080808080808080808080808080808085
:100B70008080808080808080808000000000000075
:100B80000000000000000000000000000000000065
:100B90000000000000000000000000000000000055
:100BA0000000000000000000000000000000000045
:100BB00000000000000000000080808080808080B5
:100BC0008080808080808080808080808080808025
:100BD000808080808080808080803E3EC0C0C0C099
:100BE000C03E3E3E3E3EC0C0C0C0C03E3E3E3E3E19
:100BF000C0C0C0C0C03E3E3E3E3E000000387EFE4B
:100C0000FFE78787070E000000FFFFFFFF8787C70A
:100C1000FFFFFE7C0000F0FFFF1FFFFFF0800000E1
:100C2000E0F8FCFE1E0F0707070F0000FFFFFFFFA5
:100C30008787878787870000003E3E3E3E3EC0C0D4
:100C4000C0C0C03E3E3E3E3EC0C0C0C0C03E3E3EB4
:100C50003E3EC0C0C0C0C03E3E3EF8F80707070792
:100C600007F8F8F8F8F80707070707F8F8F8F8F8AA
:100C70000707070707F8F8F8F8F8000000E0E0C0F9
:100C8000C1C3E7FFFF7E3C0000FFFFFFFF0303033C
:100C900003010180F8FFFF7F3B383B7FFFFFF880B7
:100CA0000F3F7FFFF0E0C0C0C0E00000FFFFFFFF8C
:100CB000C3C3C3C3C3C3000000F8F8F8F8F80707BC
:100CC000070707F8F8F8F8F80707070707F8F8F82C
:100CD000F8F80707070707F8F8F80202020202020D
:100CE00002020202020202020202020202020202E4
:100CF000020202020202020282428050085009519E
:100D000029112911289040A050A951A981C0C0C023
:100D1000C0C0000911A911C0D0C0D0C011A91109CB
:100D200000C0D0C8D1C9D1C9D18910000109112989
:100D300051A95189510950004002020202020202E7
:100D40000202020202020202020202020202020283
:100D5000020202020202020202020000000000007F
:100D60000000000000000000000000000000000083
:100D70000000000000000001020102010201020166
:100D80000000000001020102F97E7FFF070301015C
:100D90000103000000C07CFFFF07FFFF7CE00000B4
:100DA00000FF7F7FFFE1F17FFF9F8F0001020000C6
:100DB0000000010201020102010201020102000021
:100DC0000000000000000000000000000000000023
:100DD0000000000000000000000000000000000013
:100DE0000000000000000000000000000000000003
:100DF00000000000000000000000000000000000F3
:100E00000000000000000000030D19376C5850501E
:100E1000507800605E4361130A0A0A1361435E6002
:100E2000007F41415F5050594721390F00000000B9
:100E30000000000080808080800000000000000032
:100E400000000000000000000000000000000000A2
:100E500000000000000000000000202020202020D2
:100E60002020202020202020202020202020202082
:100E70002020202020202020202020202020202072
:100E80002020202020202020202020202020202062
:100E90002020202020202020202020202020202052
:100EA0002020202020202020202020202020202042
:100EB0002020202027047604272020202020202006
:100EC0002020202020202020202020202020202022
:100ED000202020202020202020200D9F2D970D9FB6
:100EE0002D970D9F2D970D9F2D970D9F2D970D9F42
:100EF0002D970D9F2D970D9F2D970D9F2D970D9F32
:100F00002D970D9F2D970D9F2D970D9F2D970D9F21
:100F10002D970D9F2D970D9F2D970D9F2D970D9F11
:100F20002D970D9F2D970D9F2D970D9F2D970D9F01
:100F30002D970D9F2D970D9F2D970D9F2D970D9FF1
:100F40002D970D9F2D970D9F2D970D9F2D970D9FE1
:100F50002D970D9F2D970D9F2D97000000000000ED
:100F60000000000000000000000000000000000081
:100F70000000000000000000000000000000000071
:100F80000000000000000000000000000000000061
:100F90000000000000000000000000000000000051
:100FA0000000000000000000000000000000000041
:100FB0000000000000000000000000000000000031
:100FC0000000000000000000000000000000000021
:100FD0000000000000000000000000000000000011
:100FE0000000000000000000000000000000000001
:100FF00000000000000000000000000000000000F1
:1010000000000000000000000080808080808000E0
:1010100000000080808080808080800000000000D0
:1010200000000000000000000000000000000000C0
:1010300000000000000000000000000000000000B0
:1010400000000000000000000000000000000000A0
:101050000000000000000000000000000000000090
:101060000000000000000000000000000000000080
:101070000000000000000000000000000000000070
:10108000000000000000020A2AA8A38F3FFFFFFE15
:10109000F08000FFFFFFFFFFFFFF070000000000E0
:1010A0000080808080C0C000800000000000000040
:1010B0000000000000000000000000000000000030
:1010C0000000000000000000000000000000000020
:1010D0000000000000000000000000000000000010
:1010E0000000000000000000000000000000000000
:1010F00000000000000000000000000000000000F0
:1011000000000000000000000000020A0A28A38777
:101110001F7FFCFFFFFFFFFF7F01F0F8FCFE06A32F
:101120000B07073F0F23080200000000000000002B
:1011300000000000000000000000000000000000AF
:10114000000000000000000000000000000000009F
:10115000000000000000000000000000000000008F
:10116000000000000000000000000000000000007F
:10117000000000000000000000000000000000006F
:10118000000000000000000000000000000000025D
:101190000A28A1871F7FFF1F0080F1F3F3636322FA
:1011A000B21E202800000000000000000000000027
:1011B000000000000000000000000000000000002F
:1011C000000000000000000000000000000000001F
:1011D000000000000000000000000000000000000F
:1011E00000000000000000000000000000000000FF
:1011F00000000000000000000000000000000000EF
:1012000000000000000000000000000000080808C6
:10121000C808884A8A48480888498908CA48094845
:10122000C848080808000000000000000000000096
:1012300000000000000000000000000000000000AE
:10124000000000000000000000000000000000009E
:10125000000000000000000000000000000000008E
:10126000000000000000000000000000000000007E
:10127000000000000000000000000000000000006E
:10128000000000000000000000000000000000005E
:10129000000300000203030001020100030100003B
:1012A000030000000000000000000000000000003B
:1012B000000000000000000000000000000000002E
:1012C000000000000000000000000000000000001E
:1012D000000000000000000000000000000000000E
:1012E00000000000000000000000000000000000FE
:1012F00000000000000000000000000000000000EE
:1013000000000000000000000000000000000000DD
:1013100000000000000000000000000000000000CD
:1013200000000000000000000000000000000000BD
:1013300000000000000000000000000000000000AD
:10134000000000000000000000000000000000009D
:10135000000000000000000000000102040810204E
:10136000408000000000003E5B4F5B3E3E6B4F6BD9
:101370003E1C3E7C3E1C183C7E3C181C577D571C76
:101380001C5E7F5E1C00183C1800FFE7C3E7FF00EF
:1013900018241800FFE7DBE7FF30483A060E26293D
:1013A000792926407F050507407F05253F5A3CE700
:1013B0003C5A7F3E1C1C08081C1C3E7F14227F22C6
:1013C000145F5F005F5F06097F017F006689956A91
:1013D000606060606094A2FFA29408047E0408101C
:1013E000207E201008082A1C08081C2A08081E1045
:1013F0001010100C1E0C1E0C30383E3830060E3EFD
:101400000E06000000000000005F0000000700075B
:1014100000147F147F14242A7F2A12231308646285
:1014200036495620500008070300001C22410000E6
:1014300041221C002A1C7F1C2A08083E0808008044
:1014400070300008080808080000606000201008DC
:1014500004023E5149453E00427F400072494949DD
:10146000462141494D331814127F1027454545390F
:101470003C4A494931412111090736494949364613
:101480004949291E000014000000403400000008F3
:101490001422411414141414004122140802015996
:1014A00009063E415D594E7C1211127C7F49494923
:1014B000363E414141227F4141413E7F49494941B8
:1014C0007F090909013E414151737F0808087F00E7
:1014D000417F41002040413F017F081422417F406D
:1014E0004040407F021C027F7F0408107F3E414144
:1014F000413E7F090909063E4151215E7F091929B4
:1015000046264949493203017F01033F4040403F9D
:101510001F2040201F3F4038403F631408146303DE
:10152000047804036159494D43007F41414102045D
:10153000081020004141417F040201020440404064
:101540004040000307080020545478407F2844445A
:10155000383844444428384444287F385454541874
:1015600000087E090218A4A49C787F08040478006F
:10157000447D40002040403D007F10284400004151
:101580007F40007C047804787C0804047838444464
:101590004438FC1824241818242418FC7C0804045B
:1015A00008485454542404043F44243C4040207CC4
:1015B0001C2040201C3C4030403C44281028444C17
:1015C0009090907C4464544C4400083641000000E4
:1015D000770000004136080002010204023C262385
:1015E000263C1EA1A161123A4040207A385454553D
:1015F0005921555579412154547841215554784009
:1016000020545579400C1E5272123955555559398E
:101610005454545939555454580000457C410002E3
:10162000457D420001457C40F0292429F0F0282521
:1016300028F07C545545002054547C547C0A097F82
:101640004932494949323248484832324A4848309A
:101650003A4141217A3A42402078009DA0A07D394C
:10166000444444393D4040403D3C24FF2424487ECE
:101670004943662B2FFC2F2BFF0929F620C0887EBB
:10168000090320545479410000447D413048484AC0
:1016900032384040227A007A0A0A727D0D19317D73
:1016A0002629292F28262929292630484D40203847
:1016B0000808080808080808382F10C8ACBA2F1006
:1016C0002834FA00007B000008142A142222142A6D
:1016D00014089500220095AA005500AAAA55AA55FB
:1016E000AA000000FF00101010FF00141414FF00E7
:1016F0001010FF00FF1010F010F0141414FC001470
:1017000014F700FF0000FF00FF1414F404FC14148D
:1017100017101F10101F101F1414141F001010108A
:10172000F0000000001F101010101F10101010F01B
:1017300010000000FF101010101010101010FF10FB
:10174000000000FF140000FF00FF00001F10170042
:1017500000FC04F414141710171414F404F400001B
:10176000FF00F714141414141414F700F7141414CD
:10177000171410101F101F141414F4141010F0106C
:10178000F000001F101F0000001F14000000FC14D8
:101790000000F010F01010FF10FF141414FF1410CC
:1017A00010101F00000000F010FFFFFFFFFFF0F01F
:1017B000F0F0F0FFFFFF0000000000FFFF0F0F0F31
:1017C0000F0F38444438447C2A2A3E147E02020615
:1017D00006027E027E0263554941633844443C045C
:1017E000407E201E2006027E020299A5E7A5991CD4
:1017F0002A492A1C4C7201724C304A4D4D303048F7
:10180000784830BC625A463D3E494949007E010154
:10181000017E2A2A2A2A2A44445F444440514A44E9
:101820004040444A51400000FF0103E080FF0000B7
:1018300008086B6B083612362436060F090F0600AF
:101840000018180000001010003040FF0101001FB8
:1018500001011E00191D1712003C3C3C3C00000019
:101860000000080B0002020201000904000001024E
:1018700002000005240010010524010101042402D6
:101880000605240600010705810310004009040134
:1018900000020A000000070502024000000705835D
:1018A000024000000403090412010002EF0201409B
:1018B0004123368000010102030141726475696EA3
:1018C0006F204C4C430041726475696E6F204C650B
:1018D0006F6E6172646F0000A62311241FBECFEFEC
:1018E000DAE0DEBFCDBF12E0A0E0B1E0ECE6FAE462
:1018F00002C005900D92AA39B107D9F727E0AAE9ED
:10190000B2E001C01D92AD35B207E1F71CE0CDE6B3
:10191000DCE004C02197FE010E942925CC36D107C6
:10192000C9F70E949B180C9434250C940000409138
:10193000BE025091BF022091BC023091BD024217FD
:101940005307B4F49091E8009570E1F39091E800AA
:1019500092FD19C08093F1008091BE029091BF0268
:1019600001968F739927892B19F48EEF8093E800E5
:101970008091BE029091BF0201969093BF02809326
:10198000BE0281E0089580E00895CF92DF92EF9249
:10199000FF920F931F93CF93DF931F92CDB7DEB7C4
:1019A000182F062FE42E862F880F8E5F99830E94B2
:1019B000970C83E00E94970CF12EC12E9981D92EAD
:1019C0008C2D8F19801798F4F601E7FE02C08491E0
:1019D00001C080810E94970C182F80E00E94970C14
:1019E0008123FFEFCF1ADF0A8111EACF01C081E026
:1019F0000F90DF91CF911F910F91FF90EF90DF90AB
:101A0000CF900895DF92EF92FF920F931F93CF93A1
:101A1000DF93D82E8A017B01E40EF51EEB01CE1573
:101A2000DF0571F0D7FE03C0FE01849101C08881FB
:101A30000E94970C21968111F2CF8FEF9FEF01C08A
:101A4000C801DF91CF911F910F91FF90EF90DF9030
:101A50000895615030F02091F100FC01208301963F
:101A6000F8CF289884E680934F070895CF92DF92AD
:101A7000EF92FF920F931F93CF93DF936C017A0144
:101A80008B01C0E0D0E0CE15DF0589F0D8016D9163
:101A90008D01D601ED91FC910190F081E02DC60100
:101AA0000995892B11F47E0102C02196ECCFC70164
:101AB000DF91CF911F910F91FF90EF90DF90CF902A
:101AC0000895CF93DF931F92CDB7DEB76983DC0112
:101AD000ED91FC910280F381E02D41E050E0BE01E8
:101AE0006F5F7F4F09950F90DF91CF91089583E04D
:101AF0008093E9008091F200882319F08AE38093B3
:101B0000E8000895FC018485958597FD0BC09FB77B
:101B1000F89482E08093E9008091F2009FBF90E00A
:101B2000019608959FB7F89482E08093E900809130
:101B3000F2009FBF90E008958091C502E091C3023A
:101B4000F091C402882349F0CF0102969093C40219
:101B50008093C302859194910895CF01029690934A
:101B6000C4028093C30280819181089580919D0277
:101B700008950895089580E090E008950E942F252B
:101B80000F931F93CF93DF931F92CDB7DEB782E001
:101B9000898342E450E062E678E180E80E94020D29
:101BA0000E948718DC0112960D911C911397011564
:101BB000110569F0D801ED91FC910280F381E02DCF
:101BC000BE016F5F7F4FC801099597FF07C08981EC
:101BD0000F90DF91CF911F910F910895F80100852B
:101BE0001185E5CF0E94761890E00895CF93DF939A
:101BF0001F92CDB7DEB7FC018485958597FD05C0A2
:101C00002FEF3FEF358724870BC0CE0101960E944E
:101C10004C18019719F4898190E002C08FEF9FEF73
:101C20000F90DF91CF9108950F931F93CF93DF9380
:101C30001F92CDB7DEB78C01FC018485958597FF97
:101C40000EC0CE0101960E944C18019719F429810B
:101C500030E002C02FEF3FEFF80135872487F8010D
:101C6000848595850F90DF91CF911F910F910895F5
:101C70001F920F920FB60F9211248F939F93809112
:101C8000E1009091E100937F9093E10083FF0FC00A
:101C90001092E90091E09093EB001092EC0092E337
:101CA0009093ED001092500798E09093F00082FF1F
:101CB00020C093E09093E9009091F200992319F0ED
:101CC0009AE39093E8009091C002992339F09091A3
:101CD000C00291509093C002992389F190914F07CF
:101CE000992339F090914F07915090934F07992382
:101CF00041F184FF10C08091E2008E7E816080936C
:101D0000E2008091E1008F7E8093E10080919B0250
:101D10008E7E806111C080FF16C08091E2008E7EB1
:101D200080618093E2008091E1008E7E8093E100EB
:101D300080919B028E7E816080939B0204C05D9A9D
:101D4000CDCF289AD6CF9F918F910F900FBE0F9035
:101D50001F9018951F920F920FB60F921124CF92D9
:101D6000DF92EF92FF920F931F932F933F934F9326
:101D70005F936F937F938F939F93AF93BF93EF93F3
:101D8000FF93CF93DF93CDB7DEB76C97DEBFCDBFA8
:101D90001092E9008091E80083FFEDC168E0CE0178
:101DA00045960E94290D82EF8093E8008D8987FF78
:101DB00005C09091E80090FFFCCF03C09EEF909388
:101DC000E800982F907609F0C6C09E892F89188D5B
:101DD00091110CC0803829F480919C028093F1000D
:101DE00002C01092F1001092F10048C1422F50E061
:101DF000512B913051F4811141C14130510509F00D
:101E00003DC180919C028D7F0BC0933061F48111A4
:101E100035C14130510509F031C180919C02826089
:101E200080939C022BC1953041F48091E80080FFA3
:101E3000FCCF20682093E30021C1963009F05FC0F9
:101E4000EB8CFC8C1092E9001092BF021092BE0243
:101E5000123091F51092BD021092BC020E94C00D8A
:101E600099E0BE016F5F7F4FDB01E92F1D92EA957C
:101E7000E9F799831A8391E09E8390EA98879AEF15
:101E800099872091BE023091BF02275F3F4F3C836C
:101E90002B838D831092E9001092BF021092BE0234
:101EA000F092BD02E092BC0249E050E080E00E9466
:101EB000020D0E94C00DE2C0F092BD02E092BC0291
:101EC0000E948718DC011296ED90FC901397E114A4
:101ED000F10409F4C0C0D701ED91FC910480F581B3
:101EE000E02DBE016B5E7F4FC7010995009719F089
:101EF0000CF0C4C0C7C0F701E084F184E8CF97308C
:101F000009F4C0C0983021F481E08093F100B6C09C
:101F1000993009F0B3C0837009F0B4C0E6E2F1E093
:101F200081E021E036E39081992361F08093E9001C
:101F30002093EB0091919093EC003093ED008F5F34
:101F4000873089F78EE78093EA001092EA008F8944
:101F50008093500793C08B8D9C8D1092E900109256
:101F6000BF021092BE029093BD028093BC02898D85
:101F7000811156C08E899D89913A59F4813209F0B8
:101F800081C047E050E065E071E080E00E94020D12
:101F900075C0913209F076C0833289F4888D90E063
:101FA000982F88272F89822BA0E0B0E08093010131
:101FB00090930201A0930301B09304015FC08032AB
:101FC00069F48091E80082FFFCCF67E085E091E052
:101FD0000E94290D8BEF8093E80006C0823209F041
:101FE0004DC08F8980930C0180919A02882319F04B
:101FF000EEEFFAE002C0E0E0F8E080910501909198
:102000000601A0910701B0910801803B9440A10511
:10201000B10509F07BC080910C0180FF93C076C0B0
:102020000E948718DC0112960D911C9113970115DF
:10203000110541F1D801ED91FC910190F081E02D65
:10204000BE016B5E7F4FC8010995811117C0F80171
:1020500000851185ECCF113009F44EC0133091F496
:102060008F89882309F445C0823081F440E860E11B
:1020700086EC98E10E94C50C882321F08EEF8093B6
:10208000E80079C081E28093EB0075C0813029F4CB
:1020900040E86BE08AEB98E1EDCF833099F70E943E
:1020A0008718DC011296ED90FC9013978E010F5F5C
:1020B0001F4F6801E114F10479F0D701ED91FC9113
:1020C0000680F781E02DB801C7010995080F111DA1
:1020D000F701E084F184EECFD8011C92F601019063
:1020E0000020E9F73197BF016C197D0940E0C60176
:1020F000C1CF64EA78E102C068EA78E16115710550
:1021000009F2FB01449150E080E840CF0FB6F8940B
:10211000A8958091600088618093600010926000B3
:102120000FBEA895EE3F2AE0F20739F08091FE0A33
:102130009091FF0A91838083A1CF1092FF0A1092A1
:10214000FE0A9CCFEE3F8AE0F80731F08081918152
:102150009093FF0A8093FE0A87E797E79183808335
:102160009BE088E10FB6F894A895809360000FBEBD
:102170009093600083CF6C960FB6F894DEBF0FBECD
:10218000CDBFDF91CF91FF91EF91BF91AF919F9123
:102190008F917F916F915F914F913F912F911F91FF
:1021A0000F91FF90EF90DF90CF900F900FBE0F90A8
:1021B0001F9018956115710579F0FB0101900020C1
:1021C000E9F73197AF01461B570BDC01ED91FC910C
:1021D0000280F381E02D099480E090E008954F9211
:1021E0005F926F927F92EF92FF920F931F93CF9324
:1021F000DF93CDB7DEB7A1970FB6F894DEBF0FBE61
:10220000CDBF7C01FA01CB0119A2223008F42AE0EB
:102210008E010F5D1F4F422E512C612C712CBF017E
:10222000A30192010E949524F901CA0101501109EC
:102230006A3014F4605D01C0695CD8016C93232B93
:10224000242B252B61F7B801C7010E94DA10A19653
:102250000FB6F894DEBF0FBECDBFDF91CF911F91B7
:102260000F91FF90EF907F906F905F904F90089547
:102270003FB7F8948091B8029091B902A091BA0248
:10228000B091BB0226B5A89B05C02F3F19F001965F
:10229000A11DB11D3FBFBA2FA92F982F8827820FEC
:1022A000911DA11DB11DBC01CD0142E0660F771F3C
:1022B000881F991F4A95D1F708958F929F92AF92E8
:1022C000BF92CF92DF92EF92FF926B017C010E944E
:1022D00038114B015C01C114D104E104F104F1F0A7
:1022E0000E943811DC01CB0188199909AA09BB09A0
:1022F000883E9340A105B10570F321E0C21AD108D0
:10230000E108F10888EE880E83E0981EA11CB11C3C
:10231000C114D104E104F10419F7DDCFFF90EF906F
:10232000DF90CF90BF90AF909F908F9008958F9245
:102330009F92AF92BF92CF92DF92EF92FF920F9354
:102340001F93CF93DF935C016B017A0180910C01A5
:10235000882309F45BC080915007882309F456C094
:1023600080919B0280FF05C08091E0008260809395
:10237000E000E70110E00AEF83E0882E9AE3992E4F
:102380002097D9F10E94761881110AC0015009F4F2
:102390003DC061E070E080E090E00E945D11F0CF10
:1023A000282F30E0C217D3070CF48C2F4FB7F894C6
:1023B0008092E9009091E80095FF1DC0282F30E041
:1023C000C21BD30BF601982F915020F0819180937E
:1023D000F100FACFC20ED31E112319F09092E8003B
:1023E00009C08091E80085FD06C09092E80011E0E8
:1023F000209709F010E04FBFC3CF1111C3CF5D98F4
:1024000084E68093C0021E141F0444F081E090E033
:10241000F5019383828380E090E001C0C701DF91E2
:10242000CF911F910F91FF90EF90DF90CF90BF90D1
:10243000AF909F908F9008951F920F920FB60F92BA
:1024400011242F933F938F939F93AF93BF938091CA
:102450009E0290919F02A091A002B091A1023091A2
:10246000B70223E0230F2D3720F40196A11DB11DE3
:1024700005C026E8230F0296A11DB11D2093B702C7
:1024800080939E0290939F02A093A002B093A1021A
:102490008091B8029091B902A091BA02B091BB02AA
:1024A0000196A11DB11D8093B8029093B902A0932B
:1024B000BA02B093BB02BF91AF919F918F913F91B0
:1024C0002F910F900FBE0F901F901895CF92DF9213
:1024D000EF92FF920F931F93CF93DF930E949C0D77
:1024E000811520E8920761F4809171008D7F8093BF
:1024F000710010929100469847981092B0028BC0DC
:1025000021E02093B002813020E8920751F48091BD
:10251000C1029091C2029093C4028093C3020E94B0
:102520009C0D97FD05C02091AF02222309F43FC006
:102530002091AE0221113BC021E02093B102EC01B9
:10254000DF77209769F481E08093B20246983FE9F3
:10255000C32E3FE0D32EE12CF12CCAEFD0E014C003
:102560008E0120E030E060E472E48FE090E0A901A9
:1025700098010E94632469017A0181E0C81AD10898
:10258000E108F1081092B202E0912107F0912207D0
:102590000995811103C081E08093B2028091B1025C
:1025A0008823B9F18091B202811133C003C0109227
:1025B000B102C5CF46992DC0479A0E949C0D009745
:1025C00071F09C01DE010E94B724DC01CB0129E0FF
:1025D000B595A795979587952A95D1F703C08FEF65
:1025E0009FEFDC01109290002AE020939100D0929E
:1025F0009900C09298008093B3029093B402A09384
:10260000B502B093B6028091710082608093710030
:1026100002C04798D2CFDF91CF911F910F91FF90C9
:10262000EF90DF90CF9008951F920F920FB60F9208
:1026300011242F933F934F935F936F937F938F93C7
:102640009F93AF93BF93EF93FF938091B3029091C9
:10265000B402A091B502B091B602892B8A2B8B2BC4
:1026600081F18091B20281110BC098B180E4892779
:1026700088B98091B102882319F088B1805888B94F
:102680008091B3029091B402A091B502B091B602CC
:10269000181619061A061B06B4F48091B30290911D
:1026A000B402A091B502B091B6020197A109B10997
:1026B0008093B3029093B402A093B502B093B60294
:1026C00002C00E946612FF91EF91BF91AF919F915E
:1026D0008F917F916F915F914F913F912F910F90CB
:1026E0000FBE0F901F901895BC0180E090E00C94F5
:1026F0005D118FB18095807F669B88601C9B846094
:10270000089560387105D0F440345105B8F4EAE515
:10271000F3E180E1849FD001A0781124A60F4770D7
:10272000E40FF11D8491AA53BD4F222319F06C913F
:10273000862B03C080956C9186238C9308952F92ED
:102740003F924F925F926F927F928F929F92AF9241
:10275000BF92CF92DF92EF92FF920F931F93CF938E
:10276000DF93CDB7DEB729970FB6F894DEBF0FBE63
:10277000CDBFFC016A3069F425898189928938E0EE
:10278000239F800D911D1124928B818B108A1786B7
:10279000AAC06D3009F4A7C099878887F588348866
:1027A0002388618872880785108900381105C4F074
:1027B000A885B98555962C915597422F50E01F96C4
:1027C0008D919C915097B6E02B9F800D911D112407
:1027D000E885F985908B8787268921116EC083C093
:1027E000F0E46F16710424F7C80125E0F29E800D15
:1027F000911D112418161906DCF68F2D90E09C838C
:102800008B83C301A8E0FA9E800D911D1124181638
:10281000190674F6B5E06B9FB0011124FB01EE5967
:10282000FC4EFA83E98330E08885998504969E837F
:102830008D83E981FA81E490353009F4E12C43017C
:1028400088E0482EE0FC02C0532C01C0522C5110ED
:102850000BC0321009C0E6944A948B819C81880E8B
:10286000991E4110EFCF1BC068018C2D801B8F1566
:1028700090F754018A2D88198F1568F4252DA5012C
:10288000B6018D819E813F830E9481139FEFA91A1B
:10289000B90A3F81EFCFAFEFCA1ADA0AE6CF3F5F3E
:1028A000EB81FC810E0F1F1F89819A8101969A830B
:1028B0008983363009F0BDCF7BCF6AEF6403900186
:1028C000659F300D112420583F4F281739075CF4BD
:1028D000A885B985ED91FC9111970190F081E02DCB
:1028E0006AE0CD01099581E090E029960FB6F89451
:1028F000DEBF0FBECDBFDF91CF911F910F91FF9033
:10290000EF90DF90CF90BF90AF909F908F907F908F
:102910006F905F904F903F902F9008958091CF06D9
:102920008F3F69F01CF4883F34F40895882351F0F8
:10293000853054F0089587FD8F5F859506C010920D
:10294000CF06089581E001C0880F8093CF060895D7
:102950008091CF06882359F01CF48C3F34F40895FD
:10296000813039F0893044F00895880F06C08FEF28
:1029700004C01092CF06089585958093CF060895E0
:102980008091D0068F3F69F01CF4883F34F408959D
:10299000882351F0853054F0089587FD8F5F859529
:1029A00006C01092D006089581E001C0880F809380
:1029B000D00608958091D006882359F01CF48C3FEE
:1029C00034F40895813039F0893044F00895880F47
:1029D00006C08FEF04C01092D006089585958093AD
:1029E000D00608954F925F926F927F928F929F923E
:1029F000AF92BF92CF92DF92EF92FF920F931F930D
:102A0000CF93DF9300D000D0CDB7DEB7DC01411506
:102A1000510509F4F3C0FA01B490319694914E5FD8
:102A20005F4FCB2CD12C211102C0EE2039F1E92FC0
:102A3000E695E695E6958E2E912CE1E0F0E0892F63
:102A4000877011F4E0E0F0E0E80DF91DCE9E400142
:102A5000CF9E900CDE9E900C11240115110539F0CB
:102A6000E89CF001E99CF00D11240E0F1F1F289D1A
:102A7000F001299DF00D11244E0F5F1FFD01EC0D9B
:102A8000FD1D1E161F060CF0B9C0A038B1050CF0D4
:102A9000B5C09B01290F311D121613060CF0AEC0F4
:102AA000603471050CF0AAC04115510509F4A6C0A7
:102AB000262F2770522E7B0177FF03C037E0E30EED
:102AC000F11C83E0F594E7948A95E1F78E2D77FF6A
:102AD00004C0552011F08FEF8E0DB7FF05C066279B
:102AE00077276A1B7B0B02C060E070E0E038F105DD
:102AF00024F020E82A1B422E01C04B2C461AE82E57
:102B0000082E000CFF088F3F1CF4FE2DF09501C02D
:102B1000F0E0E1E0292F277009F4E0E09695969522
:102B200096959E0FE90EF11C39E0E316F10414F0BE
:102B300098E0981B9F2E980E292D30E82303A00DB6
:102B4000B11D1124A60FB71F7B01FB9DE00CF11CEA
:102B500011244E0D5F1D61E070E0052C02C0660F70
:102B6000771F0A94E2F70E0D1F1D882E890E981408
:102B700009F444C0CD018A539D4F5C01E12CF12C36
:102B8000E414A0F5F801EE0DFF1DE491E69FC001ED
:102B9000E79F900D1124809590959C838B83FA017B
:102BA000EE0DFF1DE491E69F3001E79F700C1124AC
:102BB0007A82698297FC05C0F50190818923682A91
:102BC0006082552061F0F6E0F9154CF0F501E0580F
:102BD000FF4F90818C8189239A81892B80832FEFED
:102BE000E21AF20A3FEFA31AB30ACACF93944C0D2C
:102BF0005D1D0C0D1D1DA058BF4FB9CF0F900F903C
:102C00000F900F90DF91CF911F910F91FF90EF9058
:102C1000DF90CF90BF90AF909F908F907F906F90FC
:102C20005F904F9008959C01E1E7F0E090819D7FD7
:102C300090831092C502E1E4F7E0F093C402E093C0
:102C4000C302F093C202E093C1023183208382E386
:102C500090E093838283758364839783868351870F
:102C60004087938782870C9466129C01240F311D44
:102C70001216130684F5803891056CF5FC0197FF58
:102C800002C0E0E0F0E02138310514F020E830E047
:102C90002E1BAB014770552781E090E001C0880FE3
:102CA0004A95EAF7809577FF02C0695F7F4F93E00E
:102CB000759567959A95E1F77695762F66277795BE
:102CC0006795E60FF71FEA53FD4F215020F09081E2
:102CD00098239193FACF08952F923F924F925F924B
:102CE0006F927F928F929F92AF92BF92CF92DF921C
:102CF000EF92FF920F931F93CF93DF93CDB7DEB781
:102D000028970FB6F894DEBF0FBECDBF5A01822EB2
:102D1000912C9C01280D391D37FDC4C080389105C8
:102D20000CF0C0C09B01200F311D37FDBBC06034CB
:102D300071050CF0B7C0AB0177FF04C044275527DD
:102D4000461B570B477055279B0177FF02C0295F31
:102D50003F4FE3E035952795EA95E1F777FF08C007
:102D60002150310968E070E0DB01A41BB50BAD0117
:102D7000602F66956695669570E0077011F06F5F3D
:102D80007F4FDB01A20FB31FBA83A9833901769469
:102D9000762C662477946794680E791EE12CF12CCA
:102DA00000E010E02301B0E84B0E511C68E070E039
:102DB000DB01A41BB50BBC83AB8369817A81261729
:102DC000370709F46FC02830310509F46BC02F3F75
:102DD000BFEF3B070CF45BC0B201600F711FDB015A
:102DE000AA53BD4FBE83AD83D801A60DB71DAA530C
:102DF000BD4F6C0160E070E0681579050CF047C0CC
:102E0000E0E8CE16D10409F442C0D7FC34C02F3F0D
:102E1000FFEF3F0709F442C0FB01EE0DFF1DEA0D75
:102E2000FB1DE491042E01C0EE0F0A94EAF73C90DA
:102E3000E329EC9341155105F1F027303105D9F024
:102E4000FB01EE0DFF1DEA0DFB1DE4912E2E312C32
:102E5000F1010B8002C0F595E7950A94E2F7F88737
:102E6000EF83ED81FE813080EF81F885E3291F013A
:102E7000ED81FE8120826F5F7F4FED81FE81319673
:102E8000FE83ED83FFEFCF1ADF0A1196B5CF2F5FD8
:102E90003F4F00581F4FE80CF91C8FCF41155105CB
:102EA00079F6E9CF28960FB6F894DEBF0FBECDBFF6
:102EB000DF91CF911F910F91FF90EF90DF90CF9016
:102EC000BF90AF909F908F907F906F905F904F904A
:102ED0003F902F900895CF93DF93BC0181ED96E052
:102EE0000E94DA10EC016BE571E081ED96E00E9442
:102EF000DA108C0F9D1FDF91CF910895462F50E07F
:102F000060E070E02AE00C94EF10BC0181ED96E0E7
:102F10000C94DA1080E0E6ECF2E081118FEF0024EF
:102F200081938193819381930394D1F7EAE2F7E04F
:102F3000128A118A108A17860895E6ECF2E080E082
:102F4000A0E0B8E000800EBC8111012C1197A0FD1B
:102F5000FDCF0192B9F70DB408950F931F93CF934E
:102F6000DF938C01C0E0D0E0F801EC0FFD1F64910D
:102F7000662371F0E0912A07F0912B070190F08110
:102F8000E02D8AE297E00995892B11F02196ECCF8C
:102F9000CE01DF91CF911F910F9108954F925F92D3
:102FA0006F927F928F929F92AF92BF92CF92DF9259
:102FB000EF92FF920F931F93CF93DF93EC018B015E
:102FC000442ECB018C1B9D0B97FF03C091958195DF
:102FD000910955245394813891053CF4512CC80132
:102FE00000E810E0E12CF12C0FC00C171D0734F0A5
:102FF0007E0180E890E0C0E0D0E006C078018E015C
:1030000080E090E0C0E8D0E038016E187F085C01F5
:10301000AC1ABD0AB7FE03C0B194A194B108630114
:1030200077FE03C02FEFC21AD20AD594C794C817EF
:10303000D90714F08FEF01C081E0882E880F99081E
:103040000E151F05C4F0242D552019F0A701BE014F
:1030500002C0AE01B7018EE297E00E948113CA1848
:10306000DB08D7FE04C0C80DD91DC60CD71C8FEFD6
:10307000E81AF80AE5CFDF91CF911F910F91FF90E9
:10308000EF90DF90CF90BF90AF909F908F907F9008
:103090006F905F904F900895FC01809150078111CF
:1030A00003C08FEF9FEF08959FB7F89482E080935D
:1030B000E9002091F20030E01216130614F421E02A
:1030C00030E02115310559F0289884E680934F07A8
:1030D0008091F10080838091F200882319F09FBFD6
:1030E000C90108958BE68093E800F9CF2FB7F894D3
:1030F00083E08093E9009091E800892F807295FF2A
:1031000004C09091F20080E4891B2FBF0895809144
:10311000550781110DC082E08093510784E08093B0
:103120005207109254071092530781E0809355077D
:1031300081E597E00895CF93DF93CDB7DEB764972D
:103140000FB6F894DEBF0FBECDBF789484B5826011
:1031500084BD84B5816084BD85B5826085BD85B53B
:10316000816085BD80916E00816080936E001092B9
:103170008100809181008260809381008091810034
:1031800081608093810080918000816080938000C5
:103190008091910082608093910080919100816084
:1031A0008093910080919000816080939000809145
:1031B000C10084608093C1008091C10082608093CF
:1031C000C1008091C10081608093C1008091C300E3
:1031D00081608093C3008091C00082608093C000B2
:1031E0008091C20081608093C20080917A008460E7
:1031F00080937A0080917A00826080937A00809137
:103200007A00816080937A0080917A008068809350
:103210007A001092500710929C0210929B028091AB
:10322000D70081608093D70080EA8093D80089B569
:10323000806189BD89B5826089BD09B400FEFDCF7A
:1032400061E070E080E090E00E945D118091D80024
:103250008F7C80618093D8008091E000807F809394
:10326000E0008091E1008E7E8093E1008DE080930C
:10327000E200559A209AEEEFFFE7859194918B3FFB
:103280009C4D19F481E080939A0281EC80937C003C
:1032900085B1806F85B984B1877E84B984B1876E2A
:1032A00084B95E9A5F988AB1806D8AB9769A6E9871
:1032B00081B3806F81BB899880B38D7080BB80E5BE
:1032C0008CBD81E08DBD85E090E00E9474135F9A13
:1032D00085E090E00E9474135E985C98E8EFF3E05C
:1032E0008DE08E0F94919EBD00000DB407FEFDCFC2
:1032F00031968E13F7CF5C9A81E8809364008091B9
:1033000065008160809365000E949D170E9479137B
:1033100087FF24C05C9885EA8EBD00000DB407FECF
:10332000FDCF5C9A2E982F982D9880916400806232
:103330008093640081E083BF889513BEFCCF2D98F5
:103340000E9479138478843871F00E947913847113
:10335000843129F188EC90E00E9474130E94791363
:1033600082FDEDCF38C02D9A88EC90E00E94741356
:103370002F9882E090E00E944D248F3F29F06FEF5C
:1033800082E090E00E94552484EF91E00E94741343
:103390002F9A0E94791384788438D9F3D6CF2D9A46
:1033A00088EC90E00E9474132E9882E090E00E94D6
:1033B0004D24882329F060E082E090E00E945524AB
:1033C00084EF91E00E9474132E9A0E947913847105
:1033D0008431D9F3BFCF2D9A82E090E00E944D2432
:1033E000882331F03E9A3F9A81E080939D0204C089
:1033F00010929D023E983F980E948A1780E1809328
:103400003507212C312CFFE24F2E512CAE014F5F9E
:103410005F4F3A0155E0560D5F878FB7F8944091A2
:103420009E0250919F026091A0027091A1028FBFF5
:1034300080913607942F981B892F909137079923F5
:1034400029F08093380710923707B9C79091350754
:10345000891748F48F5F891708F0B1C781E083BFEF
:10346000889513BEACC711E0109337074093360719
:1034700080913107909132070196909332078093A3
:10348000310780913307809334070E94791380932A
:1034900033070E948A178091AD02823009F44FC130
:1034A00030F4882359F0813009F458C03FC4833088
:1034B00009F489C1843009F497C338C400E420E8D2
:1034C0004AE55FE060E070E080E090E00E946C160A
:1034D000E12CF12C00E810E0D090A4024D2DB701B2
:1034E00080E090E00E943516B7016F5F7F4F4D2D51
:1034F000C8018D1991090E943516A2E0EA0EF11C4F
:10350000B0E4EB16F10441F7D7FC63C7D394D09233
:10351000A40240E050E061E170E04093C6065093A1
:10352000C7066093C8067093C9062092CA063092F7
:10353000CB064092CC065092CD06109223071092F3
:10354000260710922707109228071092290780E873
:1035500090E09093250780932407E8C380E890E0EB
:10356000909325078093240710922307C090C806E4
:10357000D12CF090CC0686E0E1E1F1E0D30101909E
:103580000D928A95E1F700E420E84AE55BE060E00F
:1035900070E080E090E00E946C162091AB02E22E79
:1035A0000CE31BE04AE45BE060E370E081E690E05E
:1035B0000E94F21480913107909132076FE070E021
:1035C0000E94D224892B39F481E09091AB029111B1
:1035D00080E08093AB022091CE066091CC0670E033
:1035E0008091C806E22E06EF1AE048E15BE090E029
:1035F0000E94F214809131079091320783709927CD
:10360000892B09F079C00E94791385FF05C00E94BB
:10361000A81481E08093CE060E94791386FF04C02F
:103620000E948E141092CE060E94791383FF44C02C
:103630008091CE06811111C02091AC026091CC0620
:1036400070E0685F7F4F8091C806E22E00EB1AE0C1
:1036500042ED5AE090E00E94F2148091CE06813053
:1036600089F42091AC026091CC0670E0685F7F4FD6
:103670008091C806E22E0AE61AE04CE85AE090E093
:103680000E94F214809131079091320765E070E05A
:103690000E94D224892B31F48091AC028F5F81701B
:1036A0008093AC020E94DA1441E250E061E470E0E1
:1036B00081E290E00E9413168091310790913207C9
:1036C00087709927892BC1F40E94791383FF0E9488
:1036D000C0140E94791385FD0FC00E94791386FDE6
:1036E0000BC08091CF06181614F40E94A814809184
:1036F000CF0687FD0E948E1429813A818B819C819F
:103700005D814E81B6016F5E7F4F261737070CF043
:103710000DC3250F311DC216D3060CF007C32F2D84
:1037200030E0B901685F7F4F861797070CF0FEC243
:10373000840F911D281739070CF0F8C251C660E0BC
:1037400070E088E390E06093C6067093C7068093AC
:10375000C8069093C9062092CA063092CB064092C2
:10376000CC065092CD061093CE061092AC0289E49E
:1037700090E09093A8028093A7028FE290E090934C
:10378000AA028093A9021092AB028CE380930001FD
:103790001092A6021092A5021093230780E090E0F9
:1037A000A0EEBFEF8093260790932707A0932807EA
:1037B000B093290780E191E0909325078093240737
:1037C00083E08093AD022091310730913207C90127
:1037D0006CE370E00E94D224892B61F49091000187
:1037E000923010F0915004C084E08093AD0294E0D8
:1037F0009093000123703327232B09F079C00E9496
:10380000791385FF05C00E94A81481E08093CE063D
:103810000E94791386FF04C00E948E141092CE0677
:103820000E94791383FF44C08091CE06811111C09C
:103830002091AC026091CC0670E0685F7F4F809170
:10384000C806E22E00EB1AE042ED5AE090E00E943A
:10385000F2148091CE06813089F42091AC026091FF
:10386000CC0670E0685F7F4F8091C806E22E0AE6C2
:103870001AE04CE85AE090E00E94F214809131077F
:103880009091320765E070E00E94D224892B31F4D8
:103890008091AC028F5F81708093AC020E94DA1439
:1038A00041E250E061E470E081E290E00E94131692
:1038B000809131079091320787709927892BC1F445
:1038C0000E94791383FF0E94C0140E94791385FD22
:1038D0000FC00E94791386FD0BC08091CF06181689
:1038E00014F40E94A8148091CF0687FD0E948E14C4
:1038F0004091C8068091CC060091260710912707B9
:1039000020912807309129076091A7027091A802A1
:10391000620F731FFB013796E738F10508F070C09E
:1039200050E02091A9023091AA02DA0151966A175B
:103930007B070CF065C04E175F070CF061C090E08C
:10394000AC01485F5F4F241735070CF059C0285F62
:103950003F4F821793070CF053C08091A5029091BE
:10396000A60202969093A6028093A502E0912307F7
:10397000F0E0E35EFE4F208130E040E050E02115B2
:1039800031054105510571F0288B398B4A8B5B8BD2
:103990000E943F24288939894A895B890E946324CF
:1039A0009B01AC01E0912307F0E0EE0FFF1FE95E01
:1039B000FE4F8081918130E0220F331FFC01E20F26
:1039C000F31FE491A8E0EA9FF0011124F093A8020C
:1039D000E093A7022F5F3F4FFC01E20FF31FE4913A
:1039E000B8E0EB9FF0011124F093AA02E093A90242
:1039F00042E550E065EA70E087E295E00E94131628
:103A0000E0912307F0E0EE0FFF1FE15EFE4F8080A4
:103A10009180E12CF12C5401C12CD12C80912607EE
:103A200090912707A0912807B0912907C6018A0F16
:103A30009B1F9C01295F3F4F2738310508F403C5C0
:103A4000E8E0CE0ED11CFFEFAF1ABF0A20E1C2168C
:103A500021E0D20619F742E2840E911C58E0E50EEF
:103A6000F11C60E4E616F104B1F641E065E370E0B4
:103A700085E390E00E94CE1740E066E370E086E3C5
:103A800090E00E94CE17E12CF12C07E310E021E03A
:103A9000A801B7018EE297E00E9481130F5F1F4FCC
:103AA00000341105A1F77FEFE71AF70A80E8E8165E
:103AB000F10459F7E12C08E618E020E048E659E067
:103AC00067E370E080E090E00E94F21482E090E012
:103AD00090933A078093390789E390E090933C07ED
:103AE00080933B0786E698E00E94AD178091A5027F
:103AF0009091A602F3016AE070E00E94D2248193C3
:103B0000CB01AF85AE13F7CF8E010A5F1F4FF801CF
:103B100062918F018AE297E00E947E1706151705D1
:103B2000B1F782E390E090933A078093390789E3F5
:103B300090E090933C0780933B07809100012AE03E
:103B4000622F0E94C624192F0E94C624692F8AE280
:103B500097E00E947E17612F8AE297E00E947E170D
:103B60002091CE066091CC0670E08091C806E22ECE
:103B700006EF1AE048E15BE090E00E94F214409109
:103B80002607509127076091280770912907809197
:103B9000A7029091A802860F971F9C01295F3F4FB3
:103BA0002738310508F0C2C02091AB026091A9020C
:103BB0007091AA02E22E0CE31BE04AE45BE00E9453
:103BC000F21480913107909132076FE070E00E940B
:103BD000D224892B09F0AAC081E09091AB02911107
:103BE00080E08093AB02A2C0E090A202F090A3021A
:103BF00000E420E845E054E060E070E0C7010E9486
:103C00006C1620E845E054E060E070E0C7018058A1
:103C10009F4F0E946C168091310780FD11C0F1E02A
:103C2000EF1AF10820E8E2162FEFF2062CF0F092DE
:103C3000A302E092A20204C01092A3021092A20278
:103C4000E12CF12C00E110E020E0A801B7018EE2A8
:103C500097E00E9481130F5F1F4F0F321105A1F7EC
:103C60004FEFE41AF40A50E8E516F10459F741E081
:103C700061E170E081E190E00E94CE1741E06DE2E9
:103C800070E08DE290E00E94CE1740E060E370E0CB
:103C900080E390E00E94CE1740E062E370E082E3B0
:103CA00090E00E94CE1785E290E090933A078093CF
:103CB000390786E190E090933C0780933B078CE0C6
:103CC00098E00E94AD178FE190E090933A078093BF
:103CD000390782E290E090933C0780933B0785E0B0
:103CE00098E00E94AD178091A5029091A602F30181
:103CF0006AE070E00E94D2248193CB016F856E133D
:103D0000F7CF8E010A5F1F4FD8016E918D018AE2B5
:103D100097E00E947E1706151705B1F780913407CA
:103D200082FD04C08091330782FD9BC30E949D17D2
:103D30008091D006082E000C990BAA0BBB0BDC015E
:103D4000992788276C017D01FF0CCC08DC2C7601BB
:103D50009C01AD016C2D7C2D8C2D9C2D00E10E94D1
:103D6000E624F22E032F142FB52FF62FE72FD82E8F
:103D7000E92EA0E00E941D2584F421503109484F0E
:103D80005F4F6F4F7F4F8F4F9F4FF22E032F142F98
:103D9000B52FF62FE72FD82EE92E2F2D302F412FBC
:103DA0005B2F6F2F7E2F8D2D9E2D03E10E94FF2410
:103DB00069017A0182E591E00E9485178091C6062B
:103DC0009091C706A091C806B091C906BD01992778
:103DD00077FD9095892F81ED96E00E947E1786E50C
:103DE00091E00E9485174091CC0650E060E070E0C1
:103DF0002AE081ED96E00E94EF106BE571E081ED25
:103E000096E00E94DA108091D00687FF9AC0E09178
:103E10002307F0E0EE0FFF1FE15EFE4F408151816E
:103E20006091C8068091260790912707A0912807E6
:103E3000B09129078090CA069090CB06A090CC063E
:103E4000B090CD068501332717FD3095232F702FB5
:103E5000777009F064C00695069506951FEF100F60
:103E600070E0CB018A1B9B0BE3E096958795EA9562
:103E7000E1F761E0680FB2E21B9F90011124F901A4
:103E8000E80FF11DE40FF51FE491E850E23088F4EB
:103E9000682F81ED96E00E947E1784E591E00E94F4
:103EA0008517612F81ED96E00E947E178EE591E0E7
:103EB00033C0F901E60FF11DE40FF51FE491E8505E
:103EC000E23080F481ED96E00E947E1784E591E077
:103ED0000E948517612F81ED96E00E947E178CE786
:103EE00091E01AC062E0680FF901E60FF11DE40FDE
:103EF000F51F44914850423090F481ED96E00E94C5
:103F00007E1784E591E00E948517612F81ED96E090
:103F10000E947E178AE991E00E946B1712C0C814B4
:103F2000D904EA04FB040CF0A0C28C0C9D1CAE1C4E
:103F3000BF1C8092CA069092CB06A092CC06B0928B
:103F4000CD068091D00618160CF0A8C0E09123078A
:103F5000F0E0EE0FFF1FE15EFE4F40815181609166
:103F6000C8068091260790912707A0912807B09155
:103F700029078090CA069090CB06A090CC06B090FE
:103F8000CD060A2D10E0085F1F4F980127703327D8
:103F9000232B09F066C033E0169507953A95E1F7B3
:103FA00070E0CB018A1B9B0B63E0969587956A9521
:103FB000E1F761E0680F72E2709F9001719F300D30
:103FC0001124F901E80FF11DE40FF51FE491E85009
:103FD000E23088F4682F81ED96E00E947E1784E538
:103FE00091E00E948517602F81ED96E00E947E1778
:103FF00088EB91E033C0F901E60FF11DE40FF51FE6
:10400000E491E850E23080F481ED96E00E947E1762
:1040100084E591E00E948517602F81ED96E00E9473
:104020007E1789ED91E01AC062E0680FF901E60F92
:10403000F11DE40FF51F44914850423090F481ED9A
:1040400096E00E947E1784E591E00E948517602F1C
:1040500081ED96E00E947E178AEF91E00E946B1737
:104060001DC040E050E067E370E04C195D096E0947
:104070007F09D501C401189684179507A607B707CD
:104080000CF0FCC1C80CD91CEA1CFB1CC092CA066F
:10409000D092CB06E092CC06F092CD061091CF06DE
:1040A000812F012E000C990BAA0BBB0BDC01992769
:1040B00088276C017D01FF0CCC08DC2C76019C016B
:1040C000AD016C2D7C2D8C2D9C2D00E10E94E624F1
:1040D0007901042FB52FF62FE72F6C01A0E00E9485
:1040E0001D2574F421503109484F5F4F6F4F7F4FAA
:1040F0008F4F9F4F7901042FB52FF62FE72F6C01BB
:104100009701402F5B2F6F2F7E2FC60103E10E9486
:10411000FF2469017A0117FF9FC0E0912307F0E0B7
:10412000EE0FFF1FE15EFE4F4081518158874F83A4
:104130002091C6063091C7064091C8065091C90625
:104140008090260790902707A0902807B090290715
:10415000642F70E06A197B09CB0187709927892B3E
:1041600009F05FC0E3E076956795EA95E1F7615065
:104170008091CA069091CB06A091CC06B091CD0655
:10418000CD01BB2797FDB095AB2F082F069506955F
:104190000695877019F011E0100F01C01FEF862FF0
:1041A00090E0FC0172E2079FE00DF11D1124AF8148
:1041B000B885EA0FFB1FE491E850E23080F481ED0E
:1041C00096E00E947E1784E591E00E948517602F9B
:1041D00081ED96E00E947E178BE192E01FC01F3FA9
:1041E00001F1FC01B2E21B9FE00DF11D11248F8152
:1041F0009885E80FF91F84918850823090F481ED02
:1042000096E00E947E1784E591E00E948517612F59
:1042100081ED96E00E947E178AE392E00E946B1780
:104220001BC0B7FE84C12115310598E3490751052C
:104230000CF02DC18C149D04AE04BF040CF042C1DF
:104240008C189D08AE08BF08809226079092270719
:10425000A0922807B09229078091CF0618160CF07B
:10426000AEC0E0912307F0E0EE0FFF1FE15EFE4FCE
:10427000608171817A8769870091C6061091C706AF
:104280002091C8063091C906809026079090270794
:10429000A0902807B0902907622F70E06A197B0967
:1042A0006F5E7F4FAB01477055274730510509F0CE
:1042B0006BC0F3E076956795FA95E1F781E0860F9C
:1042C0008C8B8091CA069091CB06A091CC06B091C0
:1042D000CD06AD01772757FD7095672F4B875C871B
:1042E0006D877E874695469546954F838B8587706B
:1042F00019F0742F7F5F01C07FEF6C89462F50E06B
:10430000FA019F8182E2989FE00DF11D1124A98599
:10431000BA85EA0FFB1FE491E850E23080F481EDAA
:1043200096E00E947E1784E591E00E9485176F81D8
:1043300081ED96E00E947E1789E592E022C07F3FE2
:1043400019F1FA01B2E27B9FE00DF11D11244985BC
:104350005A85E40FF51FE491E850E230A8F46C8927
:1043600081ED96E0788B0E947E1784E591E00E94B3
:1043700085177889672F81ED96E00E947E1789E77F
:1043800092E00E946B171BC00115110548E324073A
:1043900031050CF009C1D901C8018C0D9D1DAE1D60
:1043A000BF1D009758E3A507B1050CF0E4C080934A
:1043B000C6069093C706A093C806B093C90680E0CE
:1043C00090E0892B11F40C940D1A0E9400000C94BB
:1043D000061A80E88093A40281E08093AD0299C818
:1043E000809164008E7F8093640080917A00806465
:1043F00080937A0080917A0086FDFCCF009178004E
:10440000109179000E94381120E030E098011127C6
:104410000027600F711F821F931F611571058105B1
:10442000910511F00E944424809164008160809382
:10443000640045EA50E066E271E08BE092E00E94A1
:10444000131682E00FC0F5014491F8E04F9FA001E0
:1044500011244A5E574F08E028E0B7010E946C160D
:10446000EFCA81E08093AD0261CC1092CA0610922F
:10447000CB061092CC061092CD0663CD2092CA06D0
:104480003092CB064092CC065092CD0607CE211535
:104490003105A8E34A075105F1F48C149D04AE04DC
:1044A000BF040CF4CDCED701C601D896881999095E
:1044B000AA09BB098093C6069093C706A093C806B5
:1044C000B093C9061092260710922707109228076A
:1044D00010922907C1CEDA01C9018C0D9D1DAE1DB8
:1044E000BF1D81309105E8E3AE07B10594F5F8E30F
:1044F000AF0EB11C821A930AA40AB50A8C189D0843
:10450000AE08BF088092260790922707A09228073E
:10451000B092290740E050E068E370E04093C6069F
:104520005093C7066093C8067093C90695CE882736
:104530009927DC018C199D09AE09BF0982179307E1
:10454000A407B5077CF4DA01C9018C0D9D1DAE1DD1
:10455000BF1D8093C6069093C706A093C806B0936C
:10456000C9067ACE1092C6061092C7061092C806E7
:104570001092C90671CE80E090E0A8E3B0E0801B05
:10458000910BA20BB30B8C199D09AE09BF09809347
:10459000260790932707A0932807B093290760E088
:1045A00070E088E390E085C0809124079091250712
:1045B0000115110578E32707310509F041C0B50160
:1045C000A4014C195D096E097F0920E830E0281B21
:1045D000390B890120E030E09801112700270417EA
:1045E0001507260737074CF44093260750932707F3
:1045F0006093280770932907E2CE80589109A0E0C4
:10460000B0E0DC0199278827880E991EAA1EBB1EE0
:1046100088E3A80EB11CC80CD91CEA1CFB1CC09274
:10462000C606D092C706E092C806F092C90600936B
:104630002607109327072093280730932907BFCE1A
:1046400040E850E0481B590B60E070E0BA01552784
:104650004427C00ED11EE21EF31E84169506A60640
:10466000B70699F4C114D1049FE6E906F104A4F059
:1046700040E050E06FE670E04093C6065093C706F6
:104680006093C8067093C9069ACEC114D10451E153
:10469000E50654E0F5064CF4C092C606D092C70673
:1046A000E092C806F092C9068ACE60E070E08FEE14
:1046B00093E06093C6067093C7068093C8069093F4
:1046C000C9067DCE0F931F93CF93DF938C0181E0BA
:1046D00090E00E944D2480FF31C08AE090E00E946B
:1046E0004D249FEF980F9E3F48F522E330E0D8011C
:1046F00050963C932E931F9728E330E052963C93BC
:104700002E935197CBE0D0E0D801ED91FC91019030
:10471000F081E02D682FC8010995CE010E944D243B
:104720002196C131D10581F70E949D1788EE93E053
:10473000DF91CF911F910F910C947413DF91CF9162
:104740001F910F91089504970C946223E1EDF6E018
:104750001382128288EE93E0A0E0B0E08483958318
:10476000A683B78380E391E0918380838FEF9FEFEF
:1047700095878487EAE2F7E0138212821186128617
:1047800080E1838710861782158682E491E0918309
:10479000808380E591E095838483108A1786128A4E
:1047A000118A81E0838B148A858B168A86EB9DE0C3
:1047B000909322078093210780E090E890934E0722
:1047C00080934D0746983E9A47983F9AE3E2F7E078
:1047D00080E191E092838183138214821582168294
:1047E00008958F929F92AF92BF92CF92DF92EF92F5
:1047F000FF92CF93DF93EC01688179818A819B815D
:10480000611571058105910521F464E279ED8BE56F
:1048100097E02DE133EF41E050E00E94632449012D
:104820005A019B01AC01A7EAB1E40E9482246B010A
:104830007C01ACEEB4EFA50194010E949024DC0150
:10484000CB018C0D9D1DAE1DBF1DB7FF03C0019791
:10485000A109B04888839983AA83BB83BC01CD0199
:104860009F77DF91CF91FF90EF90DF90CF90BF9037
:10487000AF909F908F9008950E94F12308958DE04E
:1048800091E00E94F123089560930D0170930E0151
:1048900080930F01909310010895F999FECF92BD76
:1048A00081BDF89A992780B50895262FF999FECFF2
:1048B0001FBA92BD81BD20BD0FB6F894FA9AF99A3D
:1048C0000FBE01960895052E97FB1EF400940E94DA
:1048D0007A2457FD07D00E94952407FC03D04EF49C
:1048E0000C947A2450954095309521953F4F4F4F29
:1048F0005F4F089590958095709561957F4F8F4F8C
:104900009F4F08950E94B724A59F900DB49F900DCE
:10491000A49F800D911D11240895B7FF0C9482244B
:104920000E948224821B930B0895A1E21A2EAA1BD7
:10493000BB1BFD010DC0AA1FBB1FEE1FFF1FA2174F
:10494000B307E407F50720F0A21BB30BE40BF50B4C
:10495000661F771F881F991F1A9469F760957095D5
:10496000809590959B01AC01BD01CF010895A29F58
:10497000B001B39FC001A39F700D811D1124911D33
:10498000B29F700D811D1124911D0895991B79E02E
:1049900004C0991F961708F0961B881F7A95C9F7CF
:1049A00080950895AA1BBB1B51E107C0AA1FBB1F1E
:1049B000A617B70710F0A61BB70B881F991F5A95AB
:1049C000A9F780959095BC01CD0108950F9308300B
:1049D00090F0982F872F762F652F542F432F322F4B
:1049E00022270850F4CF220F331F441F551F661F84
:1049F000771F881F991F0A95B2F70F91089597FBAB
:104A000010F8169400080F93083098F00850232FE0
:104A1000342F452F562F672F782F892F902DF4CFC5
:104A20000594979587957795679557954795379509
:104A300027950A95AAF70F9108950024A7FD0094E1
:104A40002A17300540055005600570058005900562
:104A50000895EE0FFF1F0590F491E02D099481E079
:0C4A600090E0F8940C943425F894FFCFFB
:104A6C003CFFFFFFFF00E100000000000001000020
:104A7C0000610030000708BE00B400AC000D08E86F
:104A8C0002D801C80000C1808100000000000000B5
:104A9C00610D9711F20D770D820DF60D140E0000BD
:104AAC0000009F13360DBB0DBA0D6223FCFF0000F6
:104ABC00A323583A20002C593A20000D0A002C2030
:104ACC00627269636B206F72206564676520746F16
:104ADC0020746F70206F662058312E002C2062726B
:104AEC0069636B206F72206564676520746F207436
:104AFC006F70206F662058322E002C206272696312
:104B0C006B206F72206564676520746F20746F7002
:104B1C00206F662058332E002C20627269636B2044
:104B2C006F72206564676520746F20626F74746F98
:104B3C006D206F662058312E002C20627269636BD9
:104B4C00206F72206564676520746F20626F7474C7
:104B5C006F6D206F662058322E002C2062726963B4
:104B6C006B206F72206564676520746F20626F74B0
:104B7C00746F6D206F662058332E002C2062726982
:104B8C00636B206F72206564676520746F206C65A1
:104B9C006674206F662059312E002C206272696376
:104BAC006B206F72206564676520746F206C65667E
:104BBC0074206F662059322E002C20627269636B50
:104BCC00206F72204564676520746F207269676876
:104BDC0074206F662059312E002C20627269636B31
:104BEC00206F72206564676520746F207269676836
:0A4BFC0074206F662059322E00006D
:00000001FF
