:100000000C94EF030C9417040C9417040C9417042D
:100010000C9417040C9417040C9417040C941704F4
:100020000C9417040C9417040C9453070C94C507F4
:100030000C9417040C9417040C9417040C941704D4
:100040000C9417040C9417040C9417040C941704C4
:100050000C9417040C9417040C9417040C94A30A22
:100060000C9417040C9417040C9417040C941704A4
:100070000C9417040C9417040C9417040C94170494
:100080000C949B0B0C9417040C9417040C941704F9
:100090000C9417040C9417040C9417040C94170474
:1000A0000C9417040C9417040C941704F0F89C8E0D
:1000B0008783878E9CF8F00000FEFF030303030391
:1000C000070EFCF80000FEFF0303030303070EFC0A
:1000D000F80000FFFF00000000000000FFFF00002C
:1000E000FEFF8383838383C7EE7C380000F8FC0E19
:1000F00007030303070EFCF800003F7FE0C0808089
:10010000C0E07F3FFFFF01010101010101FFFF008E
:1001100000FFFF0C0C0C0C1C3E77E3C100007FFFBE
:10012000C0C0C0C0C0E0703F1F00001F3F70E0C0F3
:10013000C0C0E0703F1F00007FFFC1C1C1C1C1E36B
:10014000773E1C00001F3F70E0C0C0C0E0703F1F42
:10015000000000000001FFFF01000000D5F08D1439
:10016000A1C881CFD9F1AF20000002070E0702001D
:10017000000002070E070200000000000207020054
:10018000000000000207020000000011040000024D
:100190000402000000000002040200000000000051
:1001A000000200000000000000020000000000004B
:1001B000000002070E070200000002070E070200FF
:1001C0000000000002070200000000000207020019
:1001D0000011040000000002040200000000000200
:1001E0000402000000000000000200000000000007
:1001F0000002000000087CFE7FFE6702087CFE7F94
:10020000FE6E0407080008641E6402000008641EF5
:1002100064040070F8FEFFFFFFFFFFFFFEFEFFFF1C
:10022000FFFAF06060F0FAFFFFFFFEFEFFFFFFFF46
:10023000FFFFFEF87011080070186E1E5E127276D5
:100240007C186A1E5A1060000060105A1E6A187CE2
:100250007672125E1E6E1870003100243A00080B90
:100260000002020201000904000001020200000570
:1002700024001001052401010104240206052406BE
:1002800000010705810310004009040100020A0073
:10029000000007050202400000070583024000003D
:1002A0000403090412010002EF02014041233680D9
:1002B00000010102030141726475696E6F204C4CAC
:1002C000430041726475696E6F204C656F6E617298
:1002D000646F00010204081020408000000000004C
:1002E0003E5B4F5B3E3E6B4F6B3E1C3E7C3E1C18A4
:1002F0003C7E3C181C577D571C1C5E7F5E1C001802
:100300003C1800FFE7C3E7FF0018241800FFE7DBF5
:10031000E7FF30483A060E2629792926407F050551
:1003200007407F05253F5A3CE73C5A7F3E1C1C088E
:10033000081C1C3E7F14227F22145F5F005F5F0653
:10034000097F017F006689956A606060606094A2A1
:10035000FFA29408047E040810207E201008082ABA
:100360001C08081C2A08081E101010100C1E0C1E59
:100370000C30383E3830060E3E0E060000000000FD
:1003800000005F00000007000700147F147F1424A2
:100390002A7F2A1223130864623649562050000827
:1003A000070300001C2241000041221C002A1C7F80
:1003B0001C2A08083E080800807030000808080859
:1003C00008000060600020100804023E5149453ECC
:1003D00000427F400072494949462141494D331846
:1003E00014127F1027454545393C4A49493141217E
:1003F0001109073649494936464949291E00001462
:1004000000000040340000000814224114141414A9
:1004100014004122140802015909063E415D594E5B
:100420007C1211127C7F494949363E414141227F6D
:100430004141413E7F494949417F090909013E4106
:100440004151737F0808087F00417F4100204041EF
:100450003F017F081422417F404040407F021C0240
:100460007F7F0408107F3E4141413E7F0909090614
:100470003E4151215E7F09192946264949493203E7
:10048000017F01033F4040403F1F2040201F3F406D
:1004900038403F6314081463030478040361594926
:1004A0004D43007F41414102040810200041414179
:1004B0007F0402010204404040404000030708005E
:1004C00020545478407F28444438384444442838E1
:1004D0004444287F385454541800087E090218A454
:1004E000A49C787F0804047800447D4000204040AC
:1004F0003D007F1028440000417F40007C047804C8
:10050000787C080404783844444438FC18242418BF
:1005100018242418FC7C0804040848545454240467
:10052000043F44243C4040207C1C2040201C3C4094
:1005300030403C44281028444C9090907C446454B3
:100540004C440008364100000077000000413608A6
:100550000002010204023C2623263C1EA1A16112D6
:100560003A4040207A385454555921555579412103
:1005700054547841215554784020545579400C1EEC
:100580005272123955555559395454545939555494
:1005900054580000457C410002457D420001457CE5
:1005A00040F0292429F0F0282528F07C54554500F6
:1005B0002054547C547C0A097F49324949493232DB
:1005C00048484832324A4848303A4141217A3A4212
:1005D000402078009DA0A07D39444444393D4040EE
:1005E000403D3C24FF2424487E4943662B2FFC2FAA
:1005F0002BFF0929F620C0887E0903205454794135
:100600000000447D413048484A32384040227A0058
:100610007A0A0A727D0D19317D2629292F2826296B
:1006200029292630484D40203808080808080808BD
:1006300008382F10C8ACBA2F102834FA00007B00FD
:100640000008142A142222142A1408950022009566
:10065000AA005500AAAA55AA55AA000000FF00103A
:100660001010FF00141414FF001010FF00FF1010F2
:10067000F010F0141414FC001414F700FF0000FF35
:1006800000FF1414F404FC141417101F10101F1092
:100690001F1414141F00101010F0000000001F1091
:1006A0001010101F10101010F010000000FF10109C
:1006B00010101010101010FF10000000FF140000A8
:1006C000FF00FF00001F10170000FC04F4141417B3
:1006D00010171414F404F40000FF00F71414141499
:1006E000141414F700F7141414171410101F101F0B
:1006F000141414F4141010F010F000001F101F0058
:1007000000001F14000000FC140000F010F0101096
:10071000FF10FF141414FF141010101F000000002D
:10072000F010FFFFFFFFFFF0F0F0F0F0FFFFFF0021
:1007300000000000FFFF0F0F0F0F0F384444384434
:100740007C2A2A3E147E02020606027E027E026394
:10075000554941633844443C04407E201E20060233
:100760007E020299A5E7A5991C2A492A1C4C720110
:10077000724C304A4D4D303048784830BC625A4651
:100780003D3E494949007E0101017E2A2A2A2A2A42
:1007900044445F444440514A444040444A5140002C
:1007A00000FF0103E080FF000008086B6B083612B1
:1007B000362436060F090F06000018180000001036
:1007C00010003040FF0101001F01011E00191D171C
:1007D00012003C3C3C3C0000000000004111112490
:1007E0001FBECFEFDAE0DEBFCDBF11E0A0E0B1E089
:1007F000E4EFF5E202C005900D92A834B107D9F7F5
:1008000025E0A8E4B1E001C01D92A03FB207E1F7E6
:1008100013E0CFEED3E004C02197FE010E94ED1259
:10082000CE3ED107C9F70E94190D0C94F8120C9412
:100830000000FC0180915801811103C08FEF9FEFF0
:1008400008959FB7F89482E08093E9002091F20028
:1008500030E01216130614F421E030E021153105C2
:1008600059F0289884E6809357018091F1008083A5
:100870008091F200882319F09FBFC90108958BE68B
:100880008093E800F9CF2FB7F89483E08093E900D4
:100890009091E800892F807295FF04C09091F2003A
:1008A00080E4891B2FBF0895CF93DF931F92CDB7AC
:1008B000DEB76983DC01ED91FC910280F381E02DCC
:1008C00041E050E0BE016F5F7F4F09950F90DF91CF
:1008D000CF91089583E08093E9008091F20088230E
:1008E00019F08AE38093E80008950E94430490E0A1
:1008F0000895CF93DF931F92CDB7DEB7FC018485B7
:10090000958597FD05C02FEF3FEF358724870BC0F6
:10091000CE0101960E941904019719F4898190E093
:1009200002C08FEF9FEF0F90DF91CF9108950F934B
:100930001F93CF93DF931F92CDB7DEB78C01FC01DD
:100940008485958597FF0EC0CE0101960E941904FB
:10095000019719F4298130E002C02FEF3FEFF80131
:1009600035872487F801848595850F90DF91CF9195
:100970001F910F9108958F929F92AF92BF92CF9245
:10098000DF92EF92FF920F931F93CF93DF935C015F
:100990006B017A0180910B01882309F45BC080917F
:1009A0005801882309F456C08091560180FF05C084
:1009B0008091E00082608093E000E70110E00AEFA0
:1009C00083E0882E9AE3992E2097D9F10E94430460
:1009D00081110AC0015009F43DC061E070E080E07F
:1009E00090E00E94690AF0CF282F30E0C217D307A9
:1009F0000CF48C2F4FB7F8948092E9009091E800A6
:100A000095FF1DC0282F30E0C21BD30BF601982F95
:100A1000915020F081918093F100FACFC20ED31E45
:100A2000112319F09092E80009C08091E80085FD3B
:100A300006C09092E80011E0209709F010E04FBF47
:100A4000C3CF1111C3CF5D9884E6809355011E1466
:100A50001F0444F081E090E0F5019383828380E0FD
:100A600090E001C0C701DF91CF911F910F91FF90DE
:100A7000EF90DF90CF90BF90AF909F908F900895B0
:100A80004F925F926F927F928F929F92AF92BF929E
:100A9000CF92DF92EF92FF920F931F93CF93DF934A
:100AA00000D000D0CDB7DEB7DC014115510509F407
:100AB000F3C0FA01B490319694914E5F5F4FCB2C06
:100AC000D12C211102C0EE2039F1E92FE695E695EF
:100AD000E6958E2E912CE1E0F0E0892F877011F4DD
:100AE000E0E0F0E0E80DF91DCE9E4001CF9E900CB5
:100AF000DE9E900C11240115110539F0E89CF001DF
:100B0000E99CF00D11240E0F1F1F289DF001299D57
:100B1000F00D11244E0F5F1FFD01EC0DFD1D1E1683
:100B20001F060CF0B9C0A038B1050CF0B5C09B0190
:100B3000290F311D121613060CF0AEC0603471057A
:100B40000CF0AAC04115510509F4A6C0262F277044
:100B5000522E7B0177FF03C037E0E30EF11C83E0E8
:100B6000F594E7948A95E1F78E2D77FF04C0552020
:100B700011F08FEF8E0DB7FF05C0662777276A1B30
:100B80007B0B02C060E070E0E038F10524F020E863
:100B90002A1B422E01C04B2C461AE82E082E000CB0
:100BA000FF088F3F1CF4FE2DF09501C0F0E0E1E05E
:100BB000292F277009F4E0E09695969596959E0F5B
:100BC000E90EF11C39E0E316F10414F098E0981BEB
:100BD0009F2E980E292D30E82303A00DB11D11245E
:100BE000A60FB71F7B01FB9DE00CF11C11244E0DDD
:100BF0005F1D61E070E0052C02C0660F771F0A944C
:100C0000E2F70E0D1F1D882E890E981409F444C0BA
:100C1000CD01875A9E4F5C01E12CF12CE414A0F524
:100C2000F801EE0DFF1DE491E69FC001E79F900DD6
:100C30001124809590959C838B83FA01EE0DFF1D06
:100C4000E491E69F3001E79F700C11247A8269825B
:100C500097FC05C0F50190818923682A60825520A0
:100C600061F0F6E0F9154CF0F501E058FF4F908186
:100C70008C8189239A81892B80832FEFE21AF20AD3
:100C80003FEFA31AB30ACACF93944C0D5D1D0C0D10
:100C90001D1DA058BF4FB9CF0F900F900F900F9010
:100CA000DF91CF911F910F91FF90EF90DF90CF9048
:100CB000BF90AF909F908F907F906F905F904F907C
:100CC00008950F931F93CF93DF938C01C0E0D0E082
:100CD000F801EC0FFD1F6491662371F0E091690546
:100CE000F0916A050190F081E02D89E695E0099583
:100CF000892B11F02196ECCFCE01DF91CF911F917E
:100D00000F910895E9E5F1E0A0E0B8E000800EBCA5
:100D10008111012C1197A0FDFDCF0192B9F70DB4FF
:100D200008958091840581110DC082E08093800533
:100D300084E080938105109283051092820581E002
:100D40008093840580E895E00895FC01848595856D
:100D500097FD0BC09FB7F89482E08093E9008091E3
:100D6000F2009FBF90E0019608959FB7F89482E04B
:100D70008093E9008091F2009FBF90E00895409138
:100D8000E0055091E1052091DE053091DF05421725
:100D90005307B4F49091E8009570E1F39091E80066
:100DA00092FD19C08093F1008091E0059091E105DA
:100DB00001968F739927892B19F48EEF8093E800A1
:100DC0008091E0059091E10501969093E105809373
:100DD000E00581E0089580E00895DF92EF92FF92B0
:100DE0000F931F93CF93DF93D82E8A017B01E40EDC
:100DF000F51EEB01CE15DF0571F0D7FE03C0FE0135
:100E0000849101C088810E94BF0621968111F2CF92
:100E10008FEF9FEF01C0C801DF91CF911F910F911C
:100E2000FF90EF90DF900895615030F02091F10035
:100E3000FC0120830196F8CF289884E6809357011F
:100E400008950F931F93CF93DF931F92CDB7DEB713
:100E500082E0898342E450E06EE572E080E80E941F
:100E6000ED060E949106DC0112960D911C911397DC
:100E70000115110569F0D801ED91FC910280F38113
:100E8000E02DBE016F5F7F4FC801099597FF07C036
:100E900089810F90DF91CF911F910F910895F801F3
:100EA00000851185E5CF1F920F920FB60F92112486
:100EB0008F939F938091E1009091E100937F9093B5
:100EC000E10083FF0FC01092E90091E09093EB00E6
:100ED0001092EC0092E39093ED001092580198E08C
:100EE0009093F00082FF20C093E09093E9009091EE
:100EF000F200992319F09AE39093E800909155013C
:100F0000992339F09091550191509093550199236F
:100F100089F190915701992339F09091570191509F
:100F200090935701992341F184FF10C08091E20012
:100F30008E7E81608093E2008091E1008F7E8093BD
:100F4000E100809156018E7E806111C080FF16C045
:100F50008091E2008E7E80618093E2008091E100CA
:100F60008E7E8093E100809156018E7E8160809319
:100F7000560104C05D9ACDCF289AD6CF9F918F910C
:100F80000F900FBE0F901F9018951F920F920FB6E3
:100F90000F921124CF92DF92EF92FF920F931F9343
:100FA0002F933F934F935F936F937F938F939F9371
:100FB000AF93BF93EF93FF93CF93DF93CDB7DEB79C
:100FC0006C97DEBFCDBF1092E9008091E80083FFEF
:100FD000EDC168E0CE0145960E94140782EF809330
:100FE000E8008D8987FF05C09091E80090FFFCCF55
:100FF00003C09EEF9093E800982F907609F0C6C04A
:101000009E892F89188D91110CC0803829F4809108
:10101000DD058093F10002C01092F1001092F10002
:1010200048C1422F50E0512B913051F4811141C100
:101030004130510509F03DC18091DD058D7F0BC028
:10104000933061F4811135C14130510509F031C14E
:101050008091DD0582608093DD052BC1953041F4E0
:101060008091E80080FFFCCF20682093E30021C13D
:10107000963009F05FC0EB8CFC8C1092E900109266
:10108000E1051092E005123091F51092DF05109203
:10109000DE050E94210799E0BE016F5F7F4FDB01F3
:1010A000E92F1D92EA95E9F799831A8391E09E83CF
:1010B00090EA98879AEF99872091E0053091E105B1
:1010C000275F3F4F3C832B838D831092E900109262
:1010D000E1051092E005F092DF05E092DE0549E0BF
:1010E00050E080E00E94ED060E942107E2C0F092ED
:1010F000DF05E092DE050E949106DC011296ED907C
:10110000FC901397E114F10409F4C0C0D701ED91EC
:10111000FC910480F581E02DBE016B5E7F4FC7011D
:101120000995009719F00CF0C4C0C7C0F701E0841E
:10113000F184E8CF973009F4C0C0983021F481E001
:101140008093F100B6C0993009F0B3C0837009F004
:10115000B4C0E1E4F1E081E021E036E3908199233D
:1011600061F08093E9002093EB0091919093EC0063
:101170003093ED008F5F873089F78EE78093EA0028
:101180001092EA008F898093580193C08B8D9C8DBB
:101190001092E9001092E1051092E0059093DF05AE
:1011A0008093DE05898D811156C08E899D89913A83
:1011B00059F4813209F081C047E050E064E071E009
:1011C00080E00E94ED0675C0913209F076C083324E
:1011D00089F4888D90E0982F88272F89822BA0E0B2
:1011E000B0E080930C0190930D01A0930E01B09399
:1011F0000F015FC0803269F48091E80082FFFCCF6C
:1012000067E084E091E00E9414078BEF8093E80090
:1012100006C0823209F04DC08F8980930B01809106
:10122000DC05882319F0EEEFFAE002C0E0E0F8E018
:101230008091040190910501A0910601B0910701F0
:10124000803B9440A105B10509F07BC080910B0162
:1012500080FF93C076C00E949106DC0112960D912A
:101260001C9113970115110541F1D801ED91FC91E5
:101270000190F081E02DBE016B5E7F4FC8010995A2
:10128000811117C0F80100851185ECCF113009F4E8
:101290004EC0133091F48F89882309F445C0823001
:1012A00081F440E860E182EC92E00E9482118823A0
:1012B00021F08EEF8093E80079C081E28093EB000B
:1012C00075C0813029F440E86BE086EB92E0EDCF09
:1012D000833099F70E949106DC011296ED90FC9004
:1012E00013978E010F5F1F4F6801E114F10479F02D
:1012F000D701ED91FC910680F781E02DB801C7017F
:101300000995080F111DF701E084F184EECFD80193
:101310001C92F60101900020E9F73197BF016C198A
:101320007D0940E0C601C1CF60EA72E002C064EA14
:1013300072E06115710509F2FB01449150E080E80B
:1013400040CF0FB6F894A895809160008861809393
:101350006000109260000FBEA895EE3F2AE0F207F1
:1013600039F08091FE0A9091FF0A91838083A1CF8A
:101370001092FF0A1092FE0A9CCFEE3F8AE0F80717
:1013800031F0808191819093FF0A8093FE0A87E774
:1013900097E7918380839BE088E10FB6F894A89546
:1013A000809360000FBE9093600083CF6C960FB661
:1013B000F894DEBF0FBECDBFDF91CF91FF91EF91CB
:1013C000BF91AF919F918F917F916F915F914F915D
:1013D0003F912F911F910F91FF90EF90DF90CF9051
:1013E0000F900FBE0F901F901895CF92DF92EF9243
:1013F000FF920F931F93CF93DF936C017A018B01C0
:10140000C0E0D0E0CE15DF0589F0D8016D918D01E7
:10141000D601ED91FC910190F081E02DC601099576
:10142000892B11F47E0102C02196ECCFC701DF9118
:10143000CF911F910F91FF90EF90DF90CF90089583
:101440003FB7F8948091EC059091ED05A091EE05E1
:10145000B091EF0526B5A89B05C02F3F19F0019666
:10146000A11DB11D3FBFBA2FA92F982F8827820F2A
:10147000911DA11DB11DBC01CD0142E0660F771F7A
:10148000881F991F4A95D1F7089580915101E091E5
:101490004F01F0915001882349F0CF0102969093BB
:1014A000500180934F01859194910895CF01029648
:1014B0009093500180934F01808191810895809194
:1014C000480108950895089580E090E008950E94ED
:1014D000F3128F929F92AF92BF92CF92DF92EF92D0
:1014E000FF926B017C010E94200A4B015C01C11438
:1014F000D104E104F104F1F00E94200ADC01CB01E7
:1015000088199909AA09BB09883E9340A105B1052C
:1015100070F321E0C21AD108E108F10888EE880EC4
:1015200083E0981EA11CB11CC114D104E104F10494
:1015300019F7DDCFFF90EF90DF90CF90BF90AF9085
:101540009F908F9008951F920F920FB60F921124C3
:101550002F933F938F939F93AF93BF9380914901B4
:1015600090914A01A0914B01B0914C013091EB0553
:1015700023E0230F2D3720F40196A11DB11D05C0D6
:1015800026E8230F0296A11DB11D2093EB05809341
:10159000490190934A01A0934B01B0934C01809173
:1015A000EC059091ED05A091EE05B091EF05019647
:1015B000A11DB11D8093EC059093ED05A093EE0560
:1015C000B093EF05BF91AF919F918F913F912F9174
:1015D0000F900FBE0F901F901895CF92DF92EF9251
:1015E000FF920F931F93CF93DF930E94450A8115BB
:1015F00020E8920761F4809171008D7F80937100E3
:1016000010929100469847981092E4058BC021E013
:101610002093E405813020E8920751F480914D0138
:1016200090914E019093500180934F010E94450A82
:1016300097FD05C02091E305222309F43FC02091C6
:10164000E20521113BC021E02093E505EC01DF77A5
:10165000209769F481E08093E60546983FE9C32E20
:101660003FE0D32EE12CF12CCAEFD0E014C08E0164
:1016700020E030E060E472E48FE090E0A90198019E
:101680000E94761269017A0181E0C81AD108E10846
:10169000F1081092E605E0916705F091680509955B
:1016A000811103C081E08093E6058091E5058823E0
:1016B000B9F18091E605811133C003C01092E505B0
:1016C000C5CF46992DC0479A0E94450A009771F0F0
:1016D0009C01DE010E94CA12DC01CB0129E0B59514
:1016E000A795979587952A95D1F703C08FEF9FEF20
:1016F000DC01109290002AE020939100D092990092
:10170000C09298008093E7059093E805A093E905BF
:10171000B093EA058091710082608093710002C0ED
:101720004798D2CFDF91CF911F910F91FF90EF900B
:10173000DF90CF9008951F920F920FB60F92112451
:101740002F933F934F935F936F937F938F939F93C9
:10175000AF93BF93EF93FF938091E7059091E805D6
:10176000A091E905B091EA05892B8A2B8B2B81F199
:101770008091E60581110BC098B180E4892788B972
:101780008091E505882319F088B1805888B9809147
:10179000E7059091E805A091E905B091EA051816D2
:1017A00019061A061B06B4F48091E7059091E80526
:1017B000A091E905B091EA050197A109B1098093CB
:1017C000E7059093E805A093E905B093EA0502C008
:1017D0000E94ED0AFF91EF91BF91AF919F918F9180
:1017E0007F916F915F914F913F912F910F900FBE1D
:1017F0000F901F9018952D9A0895BC0180E090E0FD
:101800000C94690A8FB18095807F669B88601C9BD1
:10181000846008950C94601260387105D0F44034EF
:101820005105B8F4E3EDF2E080E1849FD001A078A7
:101830001124A60F4770E40FF11D8491A75ABE4FE3
:10184000222319F06C91862B03C080956C9186231E
:101850008C9308952F923F924F925F926F927F9256
:101860008F929F92AF92BF92CF92DF92EF92FF92B0
:101870000F931F93CF93DF93CDB7DEB729970FB6A2
:10188000F894DEBF0FBECDBFFC016A3069F4258934
:101890008189928938E0239F800D911D1124928BBC
:1018A000818B108A1786AAC06D3009F4A7C099876A
:1018B0008887F5883488238861887288078510892D
:1018C00000381105C4F0A885B98555962C91559717
:1018D000422F50E01F968D919C915097B6E02B9F20
:1018E000800D911D1124E885F985908B87872689C5
:1018F00021116EC083C0F0E46F16710424F7C80193
:1019000025E0F29E800D911D112418161906DCF6B3
:101910008F2D90E09C838B83C301A8E0FA9E800DFD
:10192000911D11241816190674F6B5E06B9FB001CD
:101930001124FB01E552FD4FFA83E98330E08885ED
:10194000998504969E838D83E981FA81E4903530F0
:1019500009F4E12C430188E0482EE0FC02C0532C3E
:1019600001C0522C51100BC0321009C0E6944A94A9
:101970008B819C81880E991E4110EFCF1BC068019E
:101980008C2D801B8F1590F754018A2D88198F1587
:1019900068F4252DA501B6018D819E813F830E94AB
:1019A0000C0C9FEFA91AB90A3F81EFCFAFEFCA1A0B
:1019B000DA0AE6CF3F5FEB81FC810E0F1F1F8981A2
:1019C0009A8101969A838983363009F0BDCF7BCF07
:1019D0006AEF64039001659F300D112420583F4F3A
:1019E000281739075CF4A885B985ED91FC9111970A
:1019F0000190F081E02D6AE0CD01099581E090E051
:101A000029960FB6F894DEBF0FBECDBFDF91CF9100
:101A10001F910F91FF90EF90DF90CF90BF90AF900C
:101A20009F908F907F906F905F904F903F902F90FE
:101A30000895CF93DF9300D000D000D0CDB7DEB7AC
:101A4000789484B5826084BD84B5816084BD85B599
:101A5000826085BD85B5816085BD80916E008160A5
:101A600080936E001092810080918100826080934B
:101A7000810080918100816080938100809180004D
:101A800081608093800080919100826080939100BA
:101A9000809191008160809391008091900081609D
:101AA000809390008091C10084608093C1008091F8
:101AB000C10082608093C1008091C10081608093E9
:101AC000C1008091C30081608093C3008091C000F9
:101AD00082608093C0008091C20081608093C200C8
:101AE00080917A00846080937A0080917A0082608D
:101AF00080937A0080917A00816080937A0080914F
:101B00007A00806880937A00109258011092DD0567
:101B1000109256018091D70081608093D70080EAAF
:101B20008093D80089B5806189BD89B5826089BDFF
:101B300009B400FEFDCF61E070E080E090E00E941B
:101B4000690A8091D8008F7C80618093D800809151
:101B5000E000807F8093E0008091E1008E7E8093A2
:101B6000E1008DE08093E200559A209AEEEFFFE7C6
:101B7000859194918B3F9C4D19F481E08093DC0515
:101B800081EC80937C0085B1806F85B984B1877EBC
:101B900084B984B1876E84B95E9A5F988AB1806D8A
:101BA0008AB9769A6E9881B3806F81BB899880B329
:101BB0008D7080BB80E58CBD81E08DBD85E090E0BF
:101BC0000E94FD0B5F9A85E090E00E94FD0B5E98FD
:101BD0005C98ECE5F1E08DE08E0F94919EBD0000E5
:101BE0000DB407FEFDCF31968E13F7CF5C9A81E8D6
:101BF000809364008091650081608093650080E03F
:101C00000E9482060E94020C87FF24C05C9885EA2D
:101C10008EBD00000DB407FEFDCF5C9A2E982F9864
:101C20002D988091640080628093640081E083BF7E
:101C3000889513BEFCCF2D980E94020C84788438BE
:101C400071F00E94020C8471843131F188EC90E0D3
:101C50000E94FD0B0E94020C82FDEDCF3AC00E9453
:101C6000FB0B88EC90E00E94FD0B2F9882E090E047
:101C70000E9460128F3F29F06FEF82E090E00E9497
:101C8000681284EF91E00E94FD0B2F9A0E94020CD3
:101C900084788438D9F3D5CF0E94FB0B88EC90E090
:101CA0000E94FD0B2E9882E090E00E946012882333
:101CB00029F060E082E090E00E94681284EF91E0F9
:101CC0000E94FD0B2E9A0E94020C84718431D9F37C
:101CD000BDCF0E94FB0B82E090E00E94601288233F
:101CE00031F03E9A3F9A81E08093480104C01092FF
:101CF00048013E983F9881E090E00E940A0C82FBE8
:101D0000772470F881FF8EC071102E9800EF1FEFBE
:101D100068E0A62EB12C0E94020C86FF04C02E9A09
:101D20002F9A2D9A7FC0772029F00430110511F4E5
:101D30002E9A2F9881E00E948206980117FF04C016
:101D400022273327201B310B27703327C80117FDAB
:101D5000079653E0959587955A95E1F717FF05C0CB
:101D60000197A501421B530B9A017C01F694FE2CAE
:101D7000EE24F794E79440E050E02501421A530A1C
:101D8000B70160587F4F4B018F3F7FEF970744F4B7
:101D90000196485A5F4F7401403B510589F721C0B5
:101DA000D701A351BE4F60E070E08F3FEFEF9E0779
:101DB00009F4E4C1FB01E40FF51FE455FF4FE49182
:101DC0006D01C818D908CE0CDF1CF0E01F01022EEF
:101DD00001C0220C0A94EAF7F601608026282082CE
:101DE000CDC180E00E9482068FE090E00E94FD0B52
:101DF0000F5F1F4F0931110509F08DCF772011F0CA
:101E00002F9A2D9880E991E00E94FD0B0E94FB0B18
:101E1000E0916D05F0916E050190F081E02D8DE669
:101E200095E0099582E390E00E94FD0B0E94020C70
:101E30008111F8CF80E1809374052FE2422E512C5E
:101E4000612C712C32E0232E312C8FB7F894409105
:101E5000490150914A0160914B0170914C018FBF33
:101E600080917505942F981B80917605882329F021
:101E7000909377051092760579C120917405921799
:101E800048F49F5F921708F071C181E083BF889585
:101E900013BE6CC191E09093760540937505209137
:101EA0007005309171052F5F3F4F3093710520937E
:101EB0007005E9E5F1E081118FEF002481938193B2
:101EC000819381930394D1F710927B0510927A0548
:101ED000109279051092780500E010E021E045E3CA
:101EE00050E0B8018DE695E00E940C0C0F5F1F4F8B
:101EF0000138110599F7E12CF12C07E310E021E0FE
:101F0000A801B7018DE695E00E940C0C0F5F1F4FF2
:101F100000341105A1F7FFEFEF1AFF0A20E8E216DF
:101F2000F10459F7EE24E394F12C08E310E020E0EB
:101F3000A801B7018DE695E00E940C0C0F5F1F4FC2
:101F400000341105A1F74FEFE41AF40A59E2E5163F
:101F5000F10459F7309279052092780569E370E031
:101F600070937B0560937A058BE592E00E94610691
:101F70000AE010E021E04CE150E0B8018DE695E088
:101F80000E940C0C0F5F1F4F0832110599F78AE071
:101F9000E82EF12C0EE110E021E0A801B7018DE65A
:101FA00095E00E940C0C0F5F1F4F07321105A1F73F
:101FB0007FEFE71AF70A88E2E816F10459F7E6E13D
:101FC000F0E0F0937905E09378054FE150E050930D
:101FD0007B0540937A0589E592E00E946106209195
:101FE0005401F090030180900201912C6F2D70E05C
:101FF000E22E03E112E045E352E0C4010E944005F5
:10200000809170059091710563E070E00E94D91293
:10201000892B19F4F394F09203018091030180332A
:1020200018F08FE280930301F0905301C0900101FA
:10203000D12CA0900001B12CEF2C05EF11E02F2D39
:1020400043E052E0B601C5010E9440058091700551
:10205000909171056FE070E00E94D912892B29F4EC
:1020600081E08F0D81708093530180910301482F8F
:1020700050E096E0E4E1F1E0DE01119601900D926E
:102080009A95E1F7E981FA812B813C81AD819E81AE
:10209000B4016F5E7F4FE617F70784F4EA0FF11D76
:1020A0008E169F065CF4FA0138962E173F0734F41B
:1020B000290F311D421753070CF47BC0A616B70633
:1020C00094F467E0A60EB11C8A149B0464F4CA0160
:1020D0000896C816D9063CF478E0C70ED11C4C15FA
:1020E0005D050CF46AC00E94020C85FF04C080915B
:1020F00002018111A8C00E94020C86FF05C08091D8
:1021000002018F3608F4A6C00E94020C83FF2BC088
:10211000F0900301FF2039F1809154018111A0C09A
:10212000209152016F2D70E0685F7F4F8091020116
:10213000E22E0FEA11E041ED51E090E00E944005EF
:10214000809170059091710565E070E00E94D91250
:10215000892B31F4809152018F5F817080935201FD
:10216000FA94F092030180E00E94820680E090E001
:10217000892B09F46ACE0E94000067CE2115310533
:1021800081F0FB01E40FF51FE455FF4FE491F0E00F
:10219000042C02C0F595E7950A94E2F7DC90ED294E
:1021A000EC936F5F7F4F11966835710509F0FDCD97
:1021B000EFCD81508093030181CF0E94521229E715
:1021C00030E040E050E00E947612609300010E94EF
:1021D0005212A30192010E94761260930101809134
:1021E00071008D7F809371001092510189E595E017
:1021F0009093500180934F0190934E0180934D0135
:1022000087E295E090935A058093590582E390E028
:1022100090935C0580935B0525EA30E030935E0582
:1022200020935D059093600580935F0522E530E083
:102230003093620520936105909364058093630554
:102240000E94ED0A50CF81508093020181E080937B
:10225000540151CF8F5F809302011092540154CFEB
:10226000813009F06DCF209152016F2D70E0685FD1
:102270007F4F80910201E22E09E611E04BE851E028
:102280005CCFECE8F5E01382128288EE93E0A0E0E8
:10229000B0E084839583A683B7838EE191E0918338
:1022A00080838FEF9FEF95878487E9E6F5E01382BF
:1022B00012821186128680E1838710861782158626
:1022C00080E391E0918380838EE391E09583848322
:1022D000108A1786128A118A81E0838B148A858B73
:1022E000168A8FE59AE0909368058093670580E0F1
:1022F00090E8909366058093650546983E9A4798C6
:102300003F9A0895CF92DF92EF92FF920F931F931F
:10231000CF93DF931F92CDB7DEB7182F062FE42E91
:10232000862F880F8E5F99830E94BF0683E00E94EC
:10233000BF06F12EC12E9981D92E8C2D8F198017B1
:1023400098F4F601E7FE02C0849101C080810E94EA
:10235000BF06182F80E00E94BF068123FFEFCF1A2F
:10236000DF0A8111EACF01C081E00F90DF91CF91A8
:102370001F910F91FF90EF90DF90CF9008950F93F2
:102380001F93CF93DF938C0181E090E00E940A0CB1
:1023900080FF32C08AE090E00E940A0C9FEF980F05
:1023A0009E3F50F522E330E0D80150963C932E93A7
:1023B0001F9728E330E052963C932E935197CBE041
:1023C000D0E0D801ED91FC910190F081E02D682FD3
:1023D000C8010995CE010E940A0C2196C131D10590
:1023E00081F780E00E94820688EE93E0DF91CF9132
:1023F0001F910F910C94FD0BDF91CF911F910F91C5
:10240000089504970C94BF118F929F92AF92BF9240
:10241000CF92DF92EF92FF92CF93DF93EC0168812E
:1024200079818A819B81611571058105910521F46E
:1024300064E279ED8BE597E02DE133EF41E050E088
:102440000E94761249015A019B01AC01A7EAB1E44E
:102450000E9495126B017C01ACEEB4EFA5019401D2
:102460000E94A312DC01CB018C0D9D1DAE1DBF1D72
:10247000B7FF03C00197A109B04888839983AA8355
:10248000BB83BC01CD019F77DF91CF91FF90EF908F
:10249000DF90CF90BF90AF909F908F9008950E9453
:1024A0000412089580E191E00E940412089560935F
:1024B00010017093110180931201909313010895FC
:1024C000F999FECF92BD81BDF89A992780B50895FC
:1024D000262FF999FECF1FBA92BD81BD20BD0FB640
:1024E000F894FA9AF99A0FBE01960895052E97FB73
:1024F0001EF400940E948D1257FD07D00E94A8126E
:1025000007FC03D04EF40C948D12509540953095F5
:1025100021953F4F4F4F5F4F08959095809570954F
:1025200061957F4F8F4F9F4F08950E94CA12A59FBC
:10253000900DB49F900DA49F800D911D11240895BE
:10254000B7FF0C9495120E949512821B930B08956D
:10255000A1E21A2EAA1BBB1BFD010DC0AA1FBB1FA7
:10256000EE1FFF1FA217B307E407F50720F0A21B19
:10257000B30BE40BF50B661F771F881F991F1A9486
:1025800069F760957095809590959B01AC01BD01B0
:10259000CF010895A29FB001B39FC001A39F700D0A
:1025A000811D1124911DB29F700D811D1124911D5B
:1025B0000895AA1BBB1B51E107C0AA1FBB1FA6178A
:1025C000B70710F0A61BB70B881F991F5A95A9F7DC
:1025D00080959095BC01CD010895EE0FFF1F0590E9
:1025E000F491E02D099481E090E0F8940C94F812B5
:0425F000F894FFCF8D
:1025F400492F372000E1000000000000FFFFFFFF2B
:10260400010000000A001E001E090000000054041E
:10261400BB0475046A04A50679049704000000004D
:102624002A0CF509640A630ABF11FCFF00000112B9
:0826340000C1808100000000DC
:00000001FF
