:100000000C94B80C0C94E00C0C94E00C0C94E00CE8
:100010000C94E00C0C94E00C0C94E00C0C94E00CB0
:100020000C94E00C0C94E00C0C94271A0C94991A84
:100030000C94E00C0C94E00C0C94E00C0C94E00C90
:100040000C94E00C0C94E00C0C94E00C0C94E00C80
:100050000C94E00C0C94E00C0C94E00C0C94900DBF
:100060000C94E00C0C94E00C0C94E00C0C94E00C60
:100070000C94E00C0C94E00C0C94E00C0C94E00C50
:100080000C94880E0C94E00C0C94E00C0C94E00C96
:100090000C94E00C0C94E00C0C94E00C0C94E00C30
:1000A0000C94E00C0C94E00C0C94E00C080808088C
:1000B00008080505050808080808080808080808C9
:1000C00008080808080808080808080808080801B7
:1000D0000101010101010101010101010101010110
:1000E00001010101010101010101010101010108F9
:1000F00001010101010101010101010101010101F0
:1001000001010101010101010101010101010101DF
:1001100001010101010101010101010101010101CF
:1001200001010101010101010101010101010101BF
:1001300001010101010101010101010101010202AD
:10014000020101010101010101010101010101019E
:10015000010101010101010101010101010101018F
:10016000080808010101010101010101010101016A
:10017000010101010101010101010101010101016F
:100180000101010808010101010101010101010151
:10019000010101010101010101010101010101014F
:1001A0000101010101010801010101010101010138
:1001B000010101010101010101010101010101022E
:1001C0000101010101020204080101010101010113
:1001D000010101010101010101010101010101010F
:1001E00001080101010101090909080101010101D9
:1001F00001010101010101010101010101010101EF
:1002000001010108010101010108080808010101BB
:1002100001010101010101010101010101010101CE
:1002200001010101010801010101010108080101A9
:1002300001010101010101010101010101010101AE
:100240000101010101010108010101010101080190
:10025000010101010101010101010101010101018E
:100260000101010101010101010801010101010177
:100270000801010101010101010101010101010167
:100280000101010101010101010101080202010155
:100290000101080101010101010101010101010147
:1002A0000101010101010101010101010108080829
:1002B0000201010108010101010101010101010126
:1002C0000101010101010101010101010101010817
:1002D00008080801010108010101010101010101F2
:1002E00001010101010101010101010101010202FC
:1002F00004080808080101010801010101010101C8
:1003000001010101010101010101010101010101DD
:10031000090909080808080303030803030308027E
:1003200002020202020202020202020202020202AD
:1003300002020000000000000000000000000000B9
:1003400000000000000000000000000000000000AD
:10035000000000000808080808080808080808083D
:10036000080808080605050506080808080808081A
:100370000808080808080101010101010101010143
:10038000010101010101010101010101010101015D
:100390000101010101010108010101010101010146
:1003A000010101010101010101010101010101013D
:1003B00001010101010101010A080101010101011D
:1003C000010102060201010101040202020202020D
:1003D0000101010101010101010A080801010101F6
:1003E00001010101060606010101010606060606D5
:1003F00006060101010101010101010808080101CE
:100400000101010101010808080101010A010101BE
:10041000010101010A0101010101010101080808AE
:100420000101010A010101010101010101010803AA
:100430000303030303030801010101010101010199
:100440000101010101080101010101010101010195
:10045000080808080808080808010101010101014D
:100460000101010101010108010101010101010175
:10047000010101010101010101010101010101016C
:10048000010101010101010101080A010101010A43
:100490000A04010101010101010101010101010140
:1004A000010101010A0A0A0401010108080A010107
:1004B0000109090901010101010101010A0101010B
:1004C000010A0101010109090909010101080808DE
:1004D000010101080C08010101010101010A080ADA
:1004E000010101080A010101081008080A0A0408AC
:1004F0000808010101010101010101010A0A0408C2
:10050000080801010108080A0A010101010109099D
:10051000090808080A040A0A0A0A0A0A0A0A09094A
:100520000908080803030308080808030303030372
:10053000080B080808080800000000000000000080
:10054000080F080808080000000000000000000074
:10055000000001010101010101010101010101018D
:10056000010101010101010101010101010101017B
:10057000010101010101010101010101010101016B
:10058000010101010101010101010101010101015B
:10059000010101010101010101010101010101014B
:1005A000010101010101010101010101010101013B
:1005B000010102020202020202020202020402021B
:1005C0000202000000000000000000000000000027
:1005D0000000D5F08D14A1C881CFD9F1AF2000F96A
:1005E000F9F9F9F9F9F9F90101010101010101F93B
:1005F000F9F9F9F9F9F9F90101010101010101F92B
:10060000F9F9F9F9F9F9F90101010101010101F91A
:10061000F9F9F9F9F9F9F90101010101010101F90A
:10062000F9F9F9F9F9F9F90101010101010101F9FA
:10063000F9F9F9F9F9F9F90101010101010101F9EA
:10064000F9F9F9F9F9F9F90101010101010101F9DA
:10065000F9F9F9F9F9F9F9010101010101010107BC
:1006600007070707070707F8F8F8F8F8F8F8F80792
:1006700007070707070707F8F8F8F8F8F8F8F80782
:1006800007070707070707F8F8F8F8F8F8F8F80772
:1006900007070707070707F8F8F8F8F8F8F8F80762
:1006A00007070707070707F8F8F8F8F8F8F8F80752
:1006B00007070707070707F8F8F8F8F8F8F8F80742
:1006C00007070707070707F8F8F8F8F8F8F8F80732
:1006D00007070707070707F8F8F8F8F8F8F8F8F831
:1006E000F8F8F8F8F8F8F80707070707070707F812
:1006F000F8F8F8F8F8F8F80707070707070707F802
:10070000F8F8F8F8F8F8F80707070707070707F8F1
:10071000F8F8F8F8F8F8F80707070707070707F8E1
:10072000F8F8F8F8F8F8F80707070707070707F8D1
:10073000F8F8F8F8F8F8F80707070707070707F8C1
:10074000F8F8F8F8F8F8F80707070707070707F8B1
:10075000F8F8F8F8F8F8F807070707070707070792
:1007600007070707070707F8F8F8F8F8F8F8F80791
:1007700007070707070707F8F8F8F8F8F8F8F80781
:1007800007070707070707F8F8F8F8F8F8F8F80771
:1007900007070707070707F8F8F8F8F8F8F8F80761
:1007A00007070707070707F8F8F8F8F8F8F8F80751
:1007B00007070707070707F8F8F8F8F8F8F8F80741
:1007C00007070707070707F8F8F8F8F8F8F8F80731
:1007D00007070707070707F8F8F8F8F8F8F8F8F830
:1007E000F8F8F8F8F8F8F80707070707070707F811
:1007F000F8F8F8F8F8F8F80707070707070707F801
:10080000F8F8F8F8F8F8F80707070707070707F8F0
:10081000F8F8F8F8F8F8F80707070707070707F8E0
:10082000F8F8F8F8F8F8F80707070707070707F8D0
:10083000F8F8F8F8F8F8F80707070707070707F8C0
:10084000F8F8F8F8F8F8F80707070707070707F8B0
:10085000F8F8F8F8F8F8F807070707070707070791
:1008600007070707070707F8F8F8F8F8F8F8F80790
:1008700007070707070707F8F8F8F8F8F8F8F80780
:1008800007070707070707F8F8F8F8F8F8F8F80770
:1008900007070707070707F8F8F8F8F8F8F8F80760
:1008A00007070707070707F8F8F8F8F8F8F8F80750
:1008B00007070707070707F8F8F8F8F8F8F8F80740
:1008C00007070707070707F8F8F8F8F8F8F8F80730
:1008D00007070707070707F8F8F8F8F8F8F8F8F82F
:1008E000F8F8F8F8F8F8F80707070707070707F810
:1008F000F8F8F8F8F8F8F80707070707070707F800
:10090000F8F8F8F8F8F8F80707070707070707F8EF
:10091000F8F8F8F8F8F8F80707070707070707F8DF
:10092000F8F8F8F8F8F8F80707070707070707F8CF
:10093000F8F8F8F8F8F8F80707070707070707F8BF
:10094000F8F8F8F8F8F8F80707070707070707F8AF
:10095000F8F8F8F8F8F8F807070707070707078710
:10096000878787878787879898989898989898878F
:10097000878787878787879898989898989898877F
:10098000878787878787879898989898989898876F
:10099000878787878787879898989898989898875F
:1009A000878787878787879898989898989898874F
:1009B000878787878787879898989898989898873F
:1009C000878787878787879898989898989898872F
:1009D0008787878787878798989898989898985353
:1009E000434F52453A0047414D45204F564552002E
:1009F000FEFFFFFFFFFFFFFFFFFFFFFFFFFFFFFF08
:100A0000FFFFFFFFFFFFFFFFFFFFFFFFFFFFFFFFF6
:100A1000FFFFFFFFFFFFFFFEFFFFFFFFFFFFFFFFE7
:100A2000FFFFFFFFFFFFFFFFFFFFFFFFFFFFFFFED7
:100A3000FC0303030303030303030303030303038D
:100A40000303030303030303030303030303030376
:100A50000303030303030303030303030303030366
:100A60000303030303030303030303030303030356
:100A70000303410AFC027252FA52D20242020202FB
:100A80000202020202020202020202020202020246
:100A90000202020202020202020202FC02E2120A44
:100AA0006A8A12E202020202020202020202020246
:100AB000020202FC00030001010301010001000029
:100AC0000000000000000000000000000000000026
:100AD0000000000000000000000000000300000112
:100AE00002020201000000000000000000000000FF
:100AF000000000000300FFFFFFFFFFFFFFFFFFFFFD
:100B0000FFFFFFFFFFFFFFFFFFFFFFFFFFFFFFFFF5
:100B1000FFFFFFFFFFFFFFFFFFFFFFFFFFFFFFFFE5
:100B2000FFFFFFFFFFFFFFFFFFFFFFFFFFFFFFFFD5
:100B3000FFFFFFFFFFFFFFFFFFFFFFFFFFFFFFFFC5
:100B4000FFFFFFFFFFFFFFFFFFFFFFFFFFFFFFFFB5
:100B5000FFFFFFFFFFFFFFFFFFFFFFFFFFFFFFFFA5
:100B6000FFFFFFFFFFFFFFFFFFFFFFFFFFFFFFFF95
:100B7000FFFFFFFFFFFFFFFFFFFFFFFFFFFFFFFF85
:100B8000FFFFFFFFFFFFFFFFFFFFFFFFFFFFFFFF75
:100B9000FFFFFFFFFFFFFFFFFFFFFFFFFFFFFFFF65
:100BA000FFFFFFFFFFFFFFFFFFFFFFFFFFFFFFFF55
:100BB000FFFFFFFFFFFFFFFFFFFFFFFFFFFFFFFF45
:100BC000FFFFFFFFFFFFFFFFFFFFFFFFFFFFFFFF35
:100BD000FFFFFFFFFFFFFFFFFFFFFFFFFFFFFFFF25
:100BE000FFFFFFFFFFFFFFFFFFFFFFFFFFFFFFFF15
:100BF000FFFFFFFFFFFF1F1F1F1F1F1F1F1F1F1FC5
:100C00001F1F1F1F1F1F1F1F1F1F1F1F1F1F1F1FF4
:100C10001F1F1F1F1F9FDFFFFFFFFFFFFFFFFFFFC4
:100C2000FFFFFFFFFFFFFFFFFFFFFFFFFFFFFFFFD4
:100C3000FFFFFFFFFFFFFFFFFFFFFFFFFFFFFFFFC4
:100C4000FFFFFFFFFFFFFFFFFFFFFFFFFFFFFFFFB4
:100C5000FFFFFFDF9F1F1F1F1F1F1F1F1F1F1F1FC4
:100C60001F1F1F1F1F1F1F1F1F1F1F1F1F1F1F1F94
:100C70001F1F1F1F1F1F00000000000000000000BA
:100C80000000000000000000000000000000000064
:100C90000000040E1F1F1F1F1F1F1F0F0F0F0F0F1E
:100CA0000F1F1FFFFFFFFFFFFFFFFFFFFFFFFFFF04
:100CB000FFFFFFFFFFFFFFFFFFFFFFFFFFFFFFFF44
:100CC000FFFFFFFFFFFF7F3F1F1F1F1F1F1F1F1F74
:100CD0001F1F1F1F1F1F1E1C1E1C180000000000CE
:100CE0000000000000000000000000000000000004
:100CF00000000000000000000000000000000000F4
:100D000000000000000000000000000000000000E3
:100D100000000000000000000000000000000000D3
:100D20000000000F3F7FFFFFFFFFFFFFFFFFFFFF00
:100D3000FFFFFFFF7F7F7FFFFFFFFFFFFFFFFFFF43
:100D4000FFFFFFFFFFFFFFFE3C0000000000000070
:100D50000000000000000000000000000000000093
:100D60000000000000000000000000000000000083
:100D70000000000000000000000000000000000073
:100D80000000000000000000000000000000000063
:100D90000000000000000000000000000000000053
:100DA000000000000000000103030303030301032C
:100DB0000303030100000001030303030103030312
:100DC0000303030303010100000000000000000012
:100DD0000000000000000000000000000000000013
:100DE0000000000000000000000000000000000003
:100DF000000000000000802AFAFA0202020202FA51
:100E0000FAFAFAFA0202020202FAFAFAFAFA02020A
:100E1000020202FAFAFAFAFA000000E0F8F8FC9C82
:100E20001C1C1C38000000FCFCFCFC1C1C1CFCFCFA
:100E3000F8F00000C0FCFC7CFCFCC000000080E07E
:100E4000F0F8783C1C1C1C3C0000FCFCFCFC1C1C4E
:100E50001C1C1C1C000000FAFAFAFAFA0202020238
:100E600002FAFAFAFAFA0202020202FAFAFAFAFAB2
:100E70000202020202FAFAFAE0E01F1F1F1F1FE03F
:100E8000E0E0E0E01F1F1F1F1FE0E0E0E0E01F1FA9
:100E90001F1F1FE0E0E0E0E0000000808103070F7B
:100EA0009EFEFCF8F00000FFFFFFFF0E0E0F0F0785
:100EB0000701E0FCFFFFEFE0EFFFFFFEE0003FFF78
:100EC000FFFFC080000000800000FFFFFFFF0E0E4C
:100ED0000E0E0E0E000000E0E0E0E0E01F1F1F1FFE
:100EE0001FE0E0E0E0E01F1F1F1F1FE0E0E0E0E088
:100EF0001F1F1F1F1FE0E0E00B0B08080808080B6E
:100F00000B0B0B0B08080808080B0B0B0B0B080846
:100F10000808080B0B0B0B0B004020432747A74783
:100F2000A747A341008040A747A707000000000093
:100F3000002647A747014000400147A74726000079
:100F400041234727472747274000072747A747A7A9
:100F5000472747274000000B0B0B0B0B080808081E
:100F6000080B0B0B0B0B08080808080B0B0B0B0BE3
:100F700008080808080B0B0B000000000000000028
:100F80000000000000000000000000000000000061
:100F90000000000000040A050A0508050805000015
:100FA0000000040A050AE5FAFDFE1E0F0707070FF9
:100FB00000000002F0FFFF1FFFFFF082000000FFB3
:100FC000FFFFFF87C7FFFF7E3C000408000001020F
:100FD000050A0508050805080408040800000000C3
:100FE0000000000000000000000000000000000001
:100FF00000000000000000000000000000000000F1
:1010000000000000000000000000000000000000E0
:1010100000000000000000000000000000000000D0
:101020000000000000000F3565DFB060404040E088
:101030000080780F854F2B282B4F850F788000FF7D
:1010400005057F4343651F86E63C00000000000065
:101050000000000000000000000000000000000090
:101060000000000000000000000000000000000080
:101070000000000000000000000000000000000070
:101080000000000000000000000000000000000060
:101090000000000000000000000000000000000050
:1010A000000000000000000000000101010101013A
:1010B0000001010101000000000001010101000127
:1010C0000101010101010100000000000000000019
:1010D0000000000000000000000000000000000010
:1010E0000000000000000000000000000000000000
:1010F0000000000000000000232304145451471F87
:101100007FFFFFFCE00000FFFFFFFFFFFFFF0F007E
:1011100000000000000000000080800000000000CF
:101120000105151451470F3FFFF8FFFFFFFFFFFFB9
:1011300003E0F0F8FC0C46160F0F7F1F4711040167
:10114000000000000000000001051450430F3FFFA5
:10115000FF3F0000E3E7E7C7C645643C405000009E
:10116000000000000000000000001010109010119E
:1011700095149091101093131195901290919010D6
:10118000101000000000000000000000000000003F
:101190000106010005060600030403000702000023
:1011A0000700000000000000000102040506060E12
:1011B00008010C0A09080D100320090C060002079B
:1011C0000E070200000002070E07020000000000E8
:1011D00002070200000000000207020000000011E8
:1011E00004000002040200000000000204020000EB
:1011F00000000000000200000000000000020000EB
:1012000000000000000002070E07020000000207B5
:101210000E070200000000000207020000000000AC
:101220000207020000110400000000020402000096
:1012300000000002040200000000000000020000A4
:101240000000000000020000000D9F2D970D9F2D53
:101250009700000000000000004040404040404037
:10126000400A0101121201010A40404F09ED094FE5
:10127000400502050205020502A54299B5A599425D
:10128000A55A8739D6D639875A5A8739D6D6398753
:101290005A825A9A42985A9A584050406040504058
:1012A000605A830188BC01815A5A8301A4B4298100
:1012B0005A5A8301A4AC3D815A5A83018C883D81DE
:1012C0005A5A8301ACB435815A5A8301BCA839817A
:1012D0005A5A830184B40D815A70F8FEFFFFFFFF54
:1012E000FFFFFEFEFFFFFFFAF06060F0FAFFFFFF76
:1012F000FEFEFFFFFFFFFFFFFEF8701108007018F1
:101300006E1E5E1272767C186A1E5A1060000060B3
:10131000105A1E6A187C7672125E1E6E18700001DA
:1013200003070F1F3F7FFF0808000002060E1E3E46
:10133000000000FFFFFE7C381000000101000000EB
:10134000000809000000FE7C3810000000000000CA
:1013500000000080C0E0F0F8FCFEFF08080000403C
:101360006070787C00FFFEFCF8F0E0C080080800A8
:101370007C78706040000010387CFEFFFF000000A9
:101380000000000101000008090010387CFE000088
:10139000000000000000000000FF7F3F1F0F070358
:1013A000010808003E1E0E0602000030383C3E3F99
:1013B0003E3C383009080010181C1E1C1810000C88
:1013C0001C3C7CFC7C3C1C0C090800081838783854
:1013D000180800087CFE7FFE6702087CFE7FFE6E18
:1013E0000407080008641E6402000008641E640408
:1013F00000010204081020408000000000003E5B55
:101400004F5B3E3E6B4F6B3E1C3E7C3E1C183C7E51
:101410003C181C577D571C1C5E7F5E1C00183C1836
:1014200000FFE7C3E7FF0018241800FFE7DBE7FF32
:1014300030483A060E2629792926407F05050740BF
:101440007F05253F5A3CE73C5A7F3E1C1C08081C80
:101450001C3E7F14227F22145F5F005F5F06097FBE
:10146000017F006689956A606060606094A2FFA257
:101470009408047E040810207E201008082A1C0806
:10148000081C2A08081E101010100C1E0C1E0C3010
:10149000383E3830060E3E0E060000000000000008
:1014A0005F00000007000700147F147F14242A7FC8
:1014B0002A12231308646236495620500008070395
:1014C00000001C2241000041221C002A1C7F1C2A13
:1014D00008083E0808008070300008080808080066
:1014E0000060600020100804023E5149453E004261
:1014F0007F400072494949462141494D3318141231
:101500007F1027454545393C4A4949314121110958
:10151000073649494936464949291E00001400004A
:101520000040340000000814224114141414140064
:101530004122140802015909063E415D594E7C12B0
:1015400011127C7F494949363E414141227F414148
:10155000413E7F494949417F090909013E414151C5
:10156000737F0808087F00417F41002040413F0110
:101570007F081422417F404040407F021C027F7F51
:101580000408107F3E4141413E7F090909063E4162
:1015900051215E7F09192946264949493203017FB5
:1015A00001033F4040403F1F2040201F3F40384044
:1015B0003F631408146303047804036159494D43DD
:1015C000007F4141410204081020004141417F0455
:1015D000020102044040404040000307080020543C
:1015E0005478407F2844443838444444283844449C
:1015F000287F385454541800087E090218A4A49C6B
:10160000787F0804047800447D40002040403D007D
:101610007F1028440000417F40007C047804787CDF
:10162000080404783844444438FC18242418182446
:101630002418FC7C08040408485454542404043F2F
:1016400044243C4040207C1C2040201C3C40304036
:101650003C44281028444C9090907C4464544C4462
:101660000008364100000077000000413608000203
:10167000010204023C2623263C1EA1A161123A402D
:1016800040207A38545455592155557941215454A4
:101690007841215554784020545579400C1E52729F
:1016A000123955555559395454545939555454587B
:1016B0000000457C410002457D420001457C40F030
:1016C000292429F0F0282528F07C54554500205481
:1016D000547C547C0A097F4932494949323248488E
:1016E0004832324A4848303A4141217A3A42402011
:1016F00078009DA0A07D39444444393D4040403DA0
:101700003C24FF2424487E4943662B2FFC2F2BFFCB
:101710000929F620C0887E0903205454794100002D
:10172000447D413048484A32384040227A007A0AA3
:101730000A727D0D19317D2629292F28262929296C
:101740002630484D4020380808080808080808389E
:101750002F10C8ACBA2F102834FA00007B00000804
:10176000142A142222142A14089500220095AA0093
:101770005500AAAA55AA55AA000000FF0010101093
:10178000FF00141414FF001010FF00FF1010F010E1
:10179000F0141414FC001414F700FF0000FF00FF05
:1017A0001414F404FC141417101F10101F101F142D
:1017B00014141F00101010F0000000001F10101073
:1017C000101F10101010F010000000FF101010106B
:1017D0001010101010FF10000000FF140000FF0098
:1017E000FF00001F10170000FC04F414141710175A
:1017F0001414F404F40000FF00F714141414141467
:1018000014F700F7141414171410101F101F1414D9
:1018100014F4141010F010F000001F101F0000004E
:101820001F14000000FC140000F010F01010FF1056
:10183000FF141414FF141010101F00000000F0100B
:10184000FFFFFFFFFFF0F0F0F0F0FFFFFF000000F0
:101850000000FFFF0F0F0F0F0F38444438447C2A5D
:101860002A3E147E02020606027E027E026355496B
:1018700041633844443C04407E201E2006027E0220
:101880000299A5E7A5991C2A492A1C4C7201724CA1
:10189000304A4D4D303048784830BC625A463D3E63
:1018A000494949007E0101017E2A2A2A2A2A444404
:1018B0005F444440514A444040444A51400000FF84
:1018C0000103E080FF000008086B6B083612362425
:1018D00036060F090F06000018180000001010004F
:1018E0003040FF0101001F01011E00191D171200E9
:1018F0003C3C3C3C0000000000080B0002020201DE
:101900000009040000010202000005240010010586
:1019100024010101042402060524060001070581B3
:101920000310004009040100020A0000000705023C
:10193000024000000705830240000004030904126E
:10194000010002EF02014041233680000101020341
:101950000141726475696E6F204C4C4300417264A2
:1019600075696E6F204C656F6E6172646F007626CC
:1019700011241FBECFEFDAE0DEBFCDBF11E0A0E043
:10198000B1E0EAECF1E502C005900D92AE34B1078A
:10199000D9F726E0AEE4B1E001C01D92AD31B20747
:1019A000E1F71CE0C8EBDCE004C02197FE010E94D7
:1019B000D828C73BD107C9F70E94C91C0C94E3285B
:1019C0000C940000CF92DF92EF92FF920F931F933F
:1019D000CF93DF936C017A018B01C0E0D0E0CE158C
:1019E000DF0589F0D8016D918D01D601ED91FC9153
:1019F0000190F081E02DC6010995892B11F47E013B
:101A000002C02196ECCFC701DF91CF911F910F91BA
:101A1000FF90EF90DF90CF90089580917705E0914F
:101A20007505F0917605882349F0CF0102969093D1
:101A3000760580937505859194910895CF0102965E
:101A400090937605809375058081918108958091AA
:101A50004E0108950895089580E090E008950E9451
:101A6000DE283FB7F89480916B0190916C01A091B2
:101A70006D01B0916E0126B5A89B05C02F3F19F0EE
:101A80000196A11DB11D3FBFBA2FA92F982F8827FE
:101A9000820F911DA11DB11DBC01CD0142E0660F59
:101AA000771F881F991F4A95D1F708958F929F92AB
:101AB000AF92BF92CF92DF92EF92FF926B017C01C7
:101AC0000E94310D4B015C01C114D104E104F10409
:101AD000F1F00E94310DDC01CB0188199909AA09A6
:101AE000BB09883E9340A105B10570F321E0C21AFD
:101AF000D108E108F10888EE880E83E0981EA11C49
:101B0000B11CC114D104E104F10419F7DDCFFF9039
:101B1000EF90DF90CF90BF90AF909F908F900895FF
:101B20001F920F920FB60F9211242F933F938F9312
:101B30009F93AF93BF9380914F0190915001A091DB
:101B40005101B091520130916A0123E0230F2D37EA
:101B500020F40196A11DB11D05C026E8230F0296B1
:101B6000A11DB11D20936A0180934F0190935001F4
:101B7000A0935101B093520180916B0190916C013F
:101B8000A0916D01B0916E010196A11DB11D8093D0
:101B90006B0190936C01A0936D01B0936E01BF91A6
:101BA000AF919F918F913F912F910F900FBE0F900A
:101BB0001F901895CF92DF92EF92FF920F931F9391
:101BC000CF93DF930E940D0D811520E8920761F4F9
:101BD000809171008D7F80937100109291004698E2
:101BE0004798109263018BC021E0209363018130FC
:101BF00020E8920751F480917305909174059093B9
:101C00007605809375050E940D0D97FD05C0209106
:101C10006201222309F43FC02091610121113BC0E0
:101C200021E020936401EC01DF77209769F481E0E3
:101C30008093650146983FE9C32E3FE0D32EE12C07
:101C4000F12CCAEFD0E014C08E0120E030E060E457
:101C500072E48FE090E0A90198010E943B2769019E
:101C60007A0181E0C81AD108E108F10810926501F3
:101C7000E0918305F09184050995811103C081E00D
:101C800080936501809164018823B9F18091650199
:101C9000811133C003C010926401C5CF46992DC095
:101CA000479A0E940D0D009771F09C01DE010E9481
:101CB0008F27DC01CB0129E0B595A79597958795EE
:101CC0002A95D1F703C08FEF9FEFDC0110929000AF
:101CD0002AE020939100D0929900C09298008093BE
:101CE000660190936701A0936801B09369018091A8
:101CF000710082608093710002C04798D2CFDF915B
:101D0000CF911F910F91FF90EF90DF90CF900895AA
:101D10001F920F920FB60F9211242F933F934F9360
:101D20005F936F937F938F939F93AF93BF93EF9343
:101D3000FF938091660190916701A0916801B09135
:101D40006901892B8A2B8B2B81F18091650181118F
:101D50000BC098B180E4892788B9809164018823F9
:101D600019F088B1805888B9809166019091670117
:101D7000A0916801B0916901181619061A061B0690
:101D8000B4F48091660190916701A0916801B091CF
:101D900069010197A109B1098093660190936701D8
:101DA000A0936801B093690102C00E94DA0DFF910F
:101DB000EF91BF91AF919F918F917F916F915F91C3
:101DC0004F913F912F910F900FBE0F901F9018953C
:101DD0004F925F927F928F929F92AF92BF92CF92DB
:101DE000DF92EF92FF920F931F93CF93DF9300D078
:101DF00000D0CDB7DEB729011C2DA02EB12C9C013F
:101E00002A0D3B1D121613060CF0B3C18038910544
:101E10000CF0AFC1FB01EE0DF11D1E161F060CF0FC
:101E2000A8C1603471050CF0A4C14115510509F435
:101E3000A0C1E62FE770FE2EFB0177FD3796A3E0E9
:101E4000F595E795AA95E1F7AE2F77FF04C0FF203F
:101E500011F0AFEFAE0F97FF05C0EE27FF27E81B8D
:101E6000F90B02C0E0E0F0E02038310524F020E872
:101E7000722E781A01C0702E7E1A6A2F0A2E000C5C
:101E8000770BAF3F1CF4D62ED09401C0D12C21E0AB
:101E90003E2D377009F420E0E694E694E694E20ED5
:101EA0006E0D711D693071051CF028E0E22EEA1AF2
:101EB000ED183D2D3A0FDC0120E83203A00DB11DD5
:101EC0001124AE0FBF1FD09EE00DF11D11244E0F47
:101ED0005F1F81E090E04C010F2C02C0880C991C20
:101EE0000A94E2F7133009F403C1A0F4113009F4A5
:101EF000B5C0123009F03DC18FEF889DB001899DBA
:101F0000700D1124609570957C836B835C802E2D01
:101F1000230F2BC01A3F31F01B3F09F02AC12E2D91
:101F2000230F88C02E2D230F51C0FA01E00FF11F9F
:101F3000E491E89D6001E99DD00C1124DA82C98208
:101F400037FD07C0FC01E080EE2DE623CE2AFC0120
:101F5000C082F11013C00F5F1F4F0196071528F3C1
:101F60003F5F4A0D5B1DA058BF4F321709F401C1F6
:101F7000CD018D589E4F00E010E0F0CF37305CF778
:101F8000FC01E058FF4FD080D520CA80DC28D082E9
:101F9000E2CFFA01E60FF71FE491E89D8001E99D89
:101FA000100D11241A83098337FD04C0FC01108130
:101FB000012B0083F11013C06F5F7F4F01966715EF
:101FC00040F33F5F4A0D5B1DA058BF4F321709F425
:101FD000D0C0CD018D589E4F60E070E0F0CF37301B
:101FE0005CF78C0100581F4FF801E080EA81EE2A6F
:101FF000F801E082E1CFFA01E00FF11FE491E89DE2
:10200000C001E99D900D11249A83898337FD05C095
:102010008095FB01908189238083F11014C00F5FAC
:102020001F4F6F5F7F4F071530F33F5F4A0D5B1DFA
:10203000A058BF4F321709F49CC0BD016D587E4FA8
:1020400000E010E0F0CF373054F7FB01E058FF4FCD
:102050008A818095908189238083E1CFC2018E0F90
:102060009F1F2E2D230F321709F483C0BD016D5819
:102070007E4F6B0100E010E0071590F5FC01E00FCA
:10208000F11FE491E89DB001E99D700D1124609568
:1020900070957C836B83FA01E00FF11FE491E89D5A
:1020A0002001E99D500C11245A82498237FD05C058
:1020B000F60170816723462A4082FF2059F03730AD
:1020C0004CF4F601E058FF4F70816C8167237A81F0
:1020D000672B60830F5F1F4FFFEFCF1ADF0ACCCF54
:1020E0003F5F4A0D5B1D8A0D9B1DA058BF4FBBCFA4
:1020F000C72CD12CE40FF51FAD58BE4F60E870E03F
:102100006C197D09AC18BD088501000F111F572DF2
:102110002E2DCF93DF93ED01EF96EF962296A590AB
:10212000C590FF2059F0A89C5001C89C6001373031
:102130002CF4E880D094ED20EB28E99233233AF098
:10214000EC90C094EC20EA28ED920C94A810119623
:102150005A9529F72A9551F0572D33951124E00F00
:10216000F11DA60FB11DC60FD11DD9CFDF91CF91A3
:1021700011240F900F900F900F90DF91CF911F912E
:102180000F91FF90EF90DF90CF90BF90AF909F9016
:102190008F907F905F904F900895CF92DF92EF9253
:1021A0000F931F93CF93DF93EC014115510509F471
:1021B0003AC0FA011491319694914E5F5F4F01112C
:1021C00002C0EE2049F1C12ED12CA92FA695A695CB
:1021D000A695EA2FF0E0A1E0B0E0892F877011F416
:1021E000A0E0B0E0AE0FBF1FCA9EF001CB9EF00D85
:1021F000DA9EF00D11242115310539F0EE9ED00143
:10220000EF9EB00D11242A0F3B1F0E9FD0010F9F90
:10221000B00D11244A0F5B1FCC24C394E92E012F6B
:10222000CE010E94E80EDF91CF911F910F91EF90A8
:10223000DF90CF900895BC0180E090E00C94560DA3
:102240008FB18095807F669B88601C9B8460089519
:1022500060387105D0F440345105B8F4E1EFF3E192
:1022600080E1849FD001A0781124A60F4770E40F6D
:10227000F11D8491AD58BE4F222319F06C91862B2D
:1022800003C080956C9186238C9308952F923F9282
:102290004F925F926F927F928F929F92AF92BF9276
:1022A000CF92DF92EF92FF920F931F93CF93DF9322
:1022B000CDB7DEB729970FB6F894DEBF0FBECDBFFE
:1022C000FC016A3069F425898189928938E0239F6D
:1022D000800D911D1124928B818B108A1786AAC0C4
:1022E0006D3009F4A7C099878887F58834882388DA
:1022F000618872880785108900381105C4F0A885A7
:10230000B98555962C915597422F50E01F968D9187
:102310009C915097B6E02B9F800D911D1124E8856C
:10232000F985908B8787268921116EC083C0F0E4E0
:102330006F16710424F7C80125E0F29E800D911DEF
:10234000112418161906DCF68F2D90E09C838B83E0
:10235000C301A8E0FA9E800D911D112418161906DC
:1023600074F6B5E06B9FB0011124FB01E750FC4E01
:10237000FA83E98330E08885998504969E838D836E
:10238000E981FA81E490353009F4E12C430188E0D9
:10239000482EE0FC02C0532C01C0522C51100BC03F
:1023A000321009C0E6944A948B819C81880E991E54
:1023B0004110EFCF1BC068018C2D801B8F1590F74B
:1023C00054018A2D88198F1568F4252DA501B601B1
:1023D0008D819E813F830E9428119FEFA91AB90A1F
:1023E0003F81EFCFAFEFCA1ADA0AE6CF3F5FEB814A
:1023F000FC810E0F1F1F89819A8101969A83898320
:10240000363009F0BDCF7BCF6AEF64039001659F42
:10241000300D112420583F4F281739075CF4A88548
:10242000B985ED91FC9111970190F081E02D6AE062
:10243000CD01099581E090E029960FB6F894DEBFB2
:102440000FBECDBFDF91CF911F910F91FF90EF9005
:10245000DF90CF90BF90AF909F908F907F906F90C4
:102460005F904F903F902F9008954F925F926F92A0
:102470007F928F929F92AF92BF92CF92DF92EF9214
:10248000FF920F931F9340905301509054018091FD
:10249000850590918605A0918705B0918805F20188
:1024A000EA0FFB1F8091890590918A05A0918B0509
:1024B000B0918C05C0905501D0905601CA0EDB1E1C
:1024C000CF0107968738910540F528EFC2162FEF08
:1024D000D2061CF180E4C816D104FCF40091570127
:1024E000E02E23ED33E141EE53E1B601CF010E942E
:1024F000CD1080919D0590919E056FE070E00E9447
:10250000AA27892B39F481E090915701911180E03D
:10251000809357011092600121C1809160018F5F0B
:1025200068E20E949E2790936001943108F016C1E2
:10253000009178051091790520917A0530917B05FD
:10254000612C712C3201552444240D2C000CEE0812
:10255000FF08B0907E05CF01FF0FAA0BBB0BA901AE
:10256000772757FD7095672FCB18D108E108F10840
:102570007601DD24CC24841B9109A109B109401600
:102580005106620673060CF082C03C0155244424B7
:102590004114510461047104F1F41C141D041E045F
:1025A0001F044CF4E12C00E02FEB33E148EC53E145
:1025B0006FE270E00DC0CD28CE28CF2809F4CEC040
:1025C000E12C00E02BEA33E144EB53E160E070E002
:1025D0008BE390E0C1C046015701BB0C8808982CE2
:1025E00054019601A701682D782D882D982D00E1C2
:1025F0000E949528B42FA52FF62FE72FB301A20133
:10260000770F440B542FBA0152016301E42EF42ECC
:10261000042F142F4B2F5A2F6F2F7E2F0E94C0276D
:10262000C901DA018130910522E0A207B10544F623
:10263000893B2EE19207A105B1054CF0E12C00E0A9
:1026400029E933E141EA53E160E070E01DC08934DB
:1026500021EE92072FEFA207B2074CF0E12C00E029
:1026600027E733E147E853E16CE170E00DC00197E3
:10267000AE4FBF4F0CF496CFE12C00E025E633E1DE
:102680004DE653E16FE270E080E090E065C03C0110
:1026900055244424411451046104710409F47DCF8C
:1026A00046015701BB0C8808982C54019601A701DC
:1026B000682D782D882D982D00E10E949528B42F43
:1026C000A52FF62FE72FB301A201770F440B542F4C
:1026D000BA0152016301E42EF42E042F142F4B2F64
:1026E0005A2F6F2F7E2F0E94C027C901DA01813037
:1026F000910522E0A207B1050CF054CF893B2EE1F1
:102700009207A105B1054CF0E12C00E023E533E18F
:102710004BE553E16FE270E01DC0893421EE920772
:102720002FEFA207B2074CF0E12C00E021E333E1E8
:1027300041E453E16CE170E00DC00197AE4FBF4F33
:102740000CF43ECFE12C00E02FE133E147E253E10E
:1027500060E070E088E790E00E94CD101F910F913B
:10276000FF90EF90DF90CF90BF90AF909F908F90B1
:102770007F906F905F904F900895EF920F93E8E7EE
:10278000F5E00085668170E08281E02E29ED32E17E
:102790004BEF52E190E00E94CD100F91EF90089521
:1027A0004F925F926F927F92BF92CF92DF92EF92A1
:1027B000FF920F931F93CF93DF93E0918D05F0E08D
:1027C000EE0FFF1FEF5EFE4FC080D180B12CCB2DEE
:1027D000D0E08091920590919305C817D90708F031
:1027E00052C07E0183E0EE0CFF1C8A95E1F710E0F9
:1027F000E12FF0E04091940550919505E417F5071D
:1028000008F03FC040908505509086056090870590
:1028100070908805CF0123E0880F991F2A95E1F772
:10282000860D971D4090890550908A0560908B0514
:1028300070908C059C01285F3F4F28383105F8F4D3
:10284000B701660D771D9B01285F3F4F2834310586
:10285000B0F4C49F9001C59F300DD49F300D11245A
:10286000E20FF31FEC0DFD1D449128E0429FA001F3
:102870001124475B5D4E08E028E00E94AA161F5F06
:10288000B7CFB394A4CFDF91CF911F910F91FF9059
:10289000EF90DF90CF90BF907F906F905F904F90C0
:1028A0000895863049F018F4811104C005C088509D
:1028B000823010F080E0089581E00895CF93DF9397
:1028C00000D000D0CDB7DEB7E0918D05F0E0E35E3B
:1028D000FE4F208130E040E050E0211531054105F8
:1028E000510571F029833A834B835C830E9417273B
:1028F00029813A814B815C810E943B279B01AC017D
:10290000E0918D05F0E0EE0FFF1FE95EFE4F608164
:10291000718130E0220F331FFB01E20FF31F84911E
:1029200048E0849FC0011124909354018093530187
:102930002F5F3F4FFB01E20FF31FE49188E0E89F18
:10294000F0011124F0935601E093550110925701C4
:102950000F900F900F900F90DF91CF910895EF920D
:102960000F9380919D0590919E0583709927892BE7
:1029700009F0A7C00E94201185FF05C00E943916EA
:1029800081E0809380050E94201186FF04C00E9490
:102990001F16109280050E94201183FF58C080915D
:1029A0008005811111C00091580160917E0570E091
:1029B000685F7F4F80917A05E02E23E032E145E2A7
:1029C00052E190E00E94CD1080918005813089F421
:1029D0000091580160917E0570E0685F7F4F8091A3
:1029E0007A05E02E2DEB31E14FED51E190E00E94B0
:1029F000CD1080919D0590919E0565E070E00E944C
:102A0000AA27892B31F4809158018F5F81708093C0
:102A1000580180918205882359F024F48C3F7CF082
:102A2000880F0BC0813031F089304CF4859505C09A
:102A30008FEF03C01092820502C08093820541E2AD
:102A400050E061E470E081E290E00E9451168091D4
:102A50009D0590919E0587709927892B91F50E947D
:102A6000201183FD18C0809182058F3F71F01CF406
:102A7000883F3CF410C0882359F0853064F4880FF7
:102A800008C087FD8F5F859504C01092820503C042
:102A900081E0809382050E94201185FD12C00E9472
:102AA000201186FD0EC080918105181614F40E9435
:102AB00039168091810587FF04C00F91EF900C9427
:102AC0001F160F91EF9008952FB7F89483E080932D
:102AD000E9009091E800892F807295FF04C09091E1
:102AE000F20080E4891B2FBF0895CF93DF931F92DC
:102AF000CDB7DEB76983DC01ED91FC910280F381F3
:102B0000E02D41E050E0BE016F5F7F4F09950F90CF
:102B1000DF91CF91089583E08093E9008091F200E6
:102B2000882319F08AE38093E80008950E946415D1
:102B300090E008958F929F92AF92BF92CF92DF92D2
:102B4000EF92FF920F931F93CF93DF935C016B0182
:102B50007A0180910801882309F45BC08091720199
:102B6000882309F456C08091700180FF05C08091D0
:102B7000E00082608093E000E70110E00AEF83E06C
:102B8000882E9AE3992E2097D9F10E94641581111D
:102B90000AC0015009F43DC061E070E080E090E0BF
:102BA0000E94560DF0CF282F30E0C217D3070CF447
:102BB0008C2F4FB7F8948092E9009091E80095FF30
:102BC0001DC0282F30E0C21BD30BF601982F915067
:102BD00020F081918093F100FACFC20ED31E112311
:102BE00019F09092E80009C08091E80085FD06C0C8
:102BF0009092E80011E0209709F010E04FBFC3CF9A
:102C00001111C3CF5D9884E680936F011E141F04D9
:102C100044F081E090E0F5019383828380E090E0CE
:102C200001C0C701DF91CF911F910F91FF90EF90ED
:102C3000DF90CF90BF90AF909F908F90089580913C
:102C400081058F3F69F01CF4883F34F40895882390
:102C500051F0853054F0089587FD8F5F859506C04B
:102C600010928105089581E001C0880F809381054D
:102C7000089580918105882359F01CF48C3F34F429
:102C80000895813039F0893044F00895880F06C0E6
:102C90008FEF04C01092810508958595809381057A
:102CA00008959C01E1E7F0E090819D7F9083109270
:102CB0007705E9E0F6E0F0937605E0937505F0938B
:102CC0007405E09373053183208382E390E093835E
:102CD0008283758364839783868351874087938734
:102CE00082870C94DA0D9C01240F311D12161306F5
:102CF00084F5803891056CF5FC0197FF02C0E0E097
:102D0000F0E02138310514F020E830E02E1BAB0153
:102D10004770552781E090E001C0880F4A95EAF797
:102D2000809577FF02C0695F7F4F93E07595679547
:102D30009A95E1F77695762F662777956795E60F52
:102D4000F71FED58FE4F215020F09081982391936A
:102D5000FACF08952F923F924F925F926F927F9297
:102D60008F929F92AF92BF92CF92DF92EF92FF929B
:102D70000F931F93CF93DF93CDB7DEB728970FB68E
:102D8000F894DEBF0FBECDBF5A01822E912C9C015C
:102D9000280D391D37FDC4C0803891050CF0C0C026
:102DA0009B01200F311D37FDBBC0603471050CF055
:102DB000B7C0AB0177FF04C044275527461B570B0C
:102DC000477055279B0177FF02C0295F3F4FE3E023
:102DD00035952795EA95E1F777FF08C0215031092D
:102DE00068E070E0DB01A41BB50BAD01602F6695B8
:102DF0006695669570E0077011F06F5F7F4FDB019D
:102E0000A20FB31FBA83A98339017694762C662466
:102E100077946794680E791EE12CF12C00E010E0A5
:102E20002301B0E84B0E511C68E070E0DB01A41BED
:102E3000B50BBC83AB8369817A812617370709F408
:102E40006FC02830310509F46BC02F3FBFEF3B073F
:102E50000CF45BC0B201600F711FDB01AD58BE4FB7
:102E6000BE83AD83D801A60DB71DAD58BE4F6C0112
:102E700060E070E0681579050CF047C0E0E8CE1618
:102E8000D10409F442C0D7FC34C02F3FFFEF3F0705
:102E900009F442C0FB01EE0DFF1DEA0DFB1DE4919C
:102EA000042E01C0EE0F0A94EAF73C90E329EC935C
:102EB00041155105F1F027303105D9F0FB01EE0D38
:102EC000FF1DEA0DFB1DE4912E2E312CF1010B802C
:102ED00002C0F595E7950A94E2F7F887EF83ED8154
:102EE000FE813080EF81F885E3291F01ED81FE81AD
:102EF00020826F5F7F4FED81FE813196FE83ED83EF
:102F0000FFEFCF1ADF0A1196B5CF2F5F3F4F005862
:102F10001F4FE80CF91C8FCF4115510579F6E9CF09
:102F200028960FB6F894DEBF0FBECDBFDF91CF91CC
:102F30001F910F91FF90EF90DF90CF90BF90AF90D7
:102F40009F908F907F906F905F904F903F902F90C9
:102F5000089580E0E3E7F1E081118FEF0024819391
:102F60008193819381930394D1F7E6E9F5E0128A86
:102F7000118A108A17860895E3E7F1E080E0A0E067
:102F8000B8E000800EBC8111012C1197A0FDFDCF8F
:102F90000192B9F70DB408958F929F92AF92BF92AC
:102FA0000F931F93CF93DF93CDB7DEB7A1970FB6E3
:102FB000F894DEBF0FBECDBF19A2423008F44AE03C
:102FC0008E010F5D1F4F842E912CA12CB12CA501D9
:102FD00094010E946D27E62FB901CA010150110921
:102FE000EA3014F4E05D01C0E95CD801EC93232BD6
:102FF000242B252B61F70115110571F0F8010190C3
:103000000020E9F73197AF01401B510BB80186E969
:1030100095E00E94E20C02C080E090E0A1960FB61D
:10302000F894DEBF0FBECDBFDF91CF911F910F91FE
:10303000BF90AF909F908F9008950F931F93CF9361
:10304000DF938C01C0E0D0E0F801EC0FFD1F64912C
:10305000662371F0E0919605F09197050190F0815B
:10306000E02D86E995E00995892B11F02196ECCFAA
:10307000CE01DF91CF911F910F9108954F925F92F2
:103080006F927F928F929F92AF92BF92CF92DF9278
:10309000EF92FF920F931F93CF93DF93EC018B017D
:1030A000442ECB018C1B9D0B97FF03C091958195FE
:1030B000910955245394813891053CF4512CC80151
:1030C00000E810E0E12CF12C0FC00C171D0734F0C4
:1030D0007E0180E890E0C0E0D0E006C078018E017B
:1030E00080E090E0C0E8D0E038016E187F085C0115
:1030F000AC1ABD0AB7FE03C0B194A194B108630134
:1031000077FE03C02FEFC21AD20AD594C794C8170E
:10311000D90714F08FEF01C081E0882E880F99083D
:103120000E151F05C4F0242D552019F0A701BE016E
:1031300002C0AE01B7018AE995E00E942811CA18C1
:10314000DB08D7FE04C0C80DD91DC60CD71C8FEFF5
:10315000E81AF80AE5CFDF91CF911F910F91FF9008
:10316000EF90DF90CF90BF90AF909F908F907F9027
:103170006F905F904F900895FC01809172018111D2
:1031800003C08FEF9FEF08959FB7F89482E080937C
:10319000E9002091F20030E01216130614F421E049
:1031A00030E02115310559F0289884E680937101AB
:1031B0008091F10080838091F200882319F09FBFF5
:1031C000C90108958BE68093E800F9CFCF93DF9390
:1031D0001F92CDB7DEB7FC018485958597FD05C0AC
:1031E0002FEF3FEF358724870BC0CE0101960E9459
:1031F000BC18019719F4898190E002C08FEF9FEF0E
:103200000F90DF91CF9108958091B10581110DC08C
:1032100082E08093AD0584E08093AE051092B00506
:103220001092AF0581E08093B1058DEA95E0089595
:10323000FC018485958597FD0BC09FB7F89482E0CB
:103240008093E9008091F2009FBF90E0019608957D
:103250009FB7F89482E08093E9008091F2009FBFCD
:1032600090E0089540911B0650911C06209119068C
:1032700030911A0642175307B4F49091E800957004
:10328000E1F39091E80092FD19C08093F1008091E4
:103290001B0690911C0601968F739927892B19F4B0
:1032A0008EEF8093E80080911B0690911C0601969A
:1032B00090931C0680931B0681E0089580E008959A
:1032C000CF92DF92EF92FF920F931F93CF93DF93F2
:1032D0001F92CDB7DEB7182F062FE42E862F880F4A
:1032E0008E5F99830E94321983E00E943219F12E79
:1032F000C12E9981D92E8C2D8F19801798F4F60143
:10330000E7FE02C0849101C080810E943219182F0B
:1033100080E00E9432198123FFEFCF1ADF0A81116A
:10332000EACF01C081E00F90DF91CF911F910F9103
:10333000FF90EF90DF90CF900895DF92EF92FF9291
:103340000F931F93CF93DF93D82E8A017B01E40E56
:10335000F51EEB01CE15DF0571F0D7FE03C0FE01AF
:10336000849101C088810E94321921968111F2CF87
:103370008FEF9FEF01C0C801DF91CF911F910F9197
:10338000FF90EF90DF900895615030F02091F100B0
:10339000FC0120830196F8CF289884E68093710180
:1033A00008950F931F93CF93DF931F92CDB7DEB78E
:1033B0008C01FC018485958597FF0EC0CE01019696
:1033C0000E94BC18019719F4298130E002C02FEF48
:1033D0003FEFF80135872487F801848595850F90A4
:1033E000DF91CF911F910F9108950F931F93CF936A
:1033F000DF931F92CDB7DEB782E0898342E450E0CD
:1034000069EF78E180E80E949D190E940419DC01AF
:1034100012960D911C9113970115110569F0D801B1
:10342000ED91FC910280F381E02DBE016F5F7F4F33
:10343000C801099597FF07C089810F90DF91CF914F
:103440001F910F910895F80100851185E5CF1F9216
:103450000F920FB60F9211248F939F938091E100EA
:103460009091E100937F9093E10083FF0FC0109251
:10347000E90091E09093EB001092EC0092E39093BE
:10348000ED001092720198E09093F00082FF20C04E
:1034900093E09093E9009091F200992319F09AE358
:1034A0009093E80090916F01992339F090916F010A
:1034B000915090936F01992389F190917101992313
:1034C00039F090917101915090937101992341F1DC
:1034D00084FF10C08091E2008E7E81608093E200C4
:1034E0008091E1008F7E8093E100809170018E7E5B
:1034F000806111C080FF16C08091E2008E7E8061E5
:103500008093E2008091E1008E7E8093E1008091C3
:1035100070018E7E81608093700104C05D9ACDCF72
:10352000289AD6CF9F918F910F900FBE0F901F902A
:1035300018951F920F920FB60F921124CF92DF921F
:10354000EF92FF920F931F932F933F934F935F93AD
:103550006F937F938F939F93AF93BF93EF93FF935B
:10356000CF93DF93CDB7DEB76C97DEBFCDBF1092A0
:10357000E9008091E80083FFEDC168E0CE01459647
:103580000E94C41982EF8093E8008D8987FF05C0EF
:103590009091E80090FFFCCF03C09EEF9093E8006D
:1035A000982F907609F0C6C09E892F89188D9111A9
:1035B0000CC0803829F4809118068093F10002C075
:1035C0001092F1001092F10048C1422F50E0512BAF
:1035D000913051F4811141C14130510509F03DC193
:1035E000809118068D7F0BC0933061F4811135C135
:1035F0004130510509F031C18091180682608093F5
:1036000018062BC1953041F48091E80080FFFCCF73
:1036100020682093E30021C1963009F05FC0EB8C55
:10362000FC8C1092E90010921C0610921B061230BE
:1036300091F510921A06109219060E94F51999E058
:10364000BE016F5F7F4FDB01E92F1D92EA95E9F71D
:1036500099831A8391E09E8390EA98879AEF9987DD
:1036600020911B0630911C06275F3F4F3C832B8324
:103670008D831092E90010921C0610921B06F092A6
:103680001A06E092190649E050E080E00E949D1978
:103690000E94F519E2C0F0921A06E09219060E9403
:1036A0000419DC011296ED90FC901397E114F104DB
:1036B00009F4C0C0D701ED91FC910480F581E02DA3
:1036C000BE016B5E7F4FC7010995009719F00CF0A2
:1036D000C4C0C7C0F701E084F184E8CF973009F493
:1036E000C0C0983021F481E08093F100B6C09930D9
:1036F00009F0B3C0837009F0B4C0E7E4F1E081E001
:1037000021E036E39081992361F08093E9002093D2
:10371000EB0091919093EC003093ED008F5F873038
:1037200089F78EE78093EA001092EA008F898093F0
:10373000720193C08B8D9C8D1092E90010921C0633
:1037400010921B0690931A0680931906898D811199
:1037500056C08E899D89913A59F4813209F081C011
:1037600047E050E061E071E080E00E949D1975C083
:10377000913209F076C0833289F4888D90E0982FD9
:1037800088272F89822BA0E0B0E0809309019093D5
:103790000A01A0930B01B0930C015FC0803269F461
:1037A0008091E80082FFFCCF67E081E091E00E9419
:1037B000C4198BEF8093E80006C0823209F04DC037
:1037C0008F898093080180911706882319F0EEEF06
:1037D000FAE002C0E0E0F8E080910101909102017E
:1037E000A0910301B0910401803B9440A105B10573
:1037F00009F07BC08091080180FF93C076C00E94D1
:103800000419DC0112960D911C91139701151105F5
:1038100041F1D801ED91FC910190F081E02DBE01C4
:103820006B5E7F4FC8010995811117C0F8010085B3
:103830001185ECCF113009F44EC0133091F48F890B
:10384000882309F445C0823081F440E860E18DE5C9
:1038500099E10E946019882321F08EEF8093E8009F
:1038600079C081E28093EB0075C0813029F440E893
:103870006BE081E599E1EDCF833099F70E9404195F
:10388000DC011296ED90FC9013978E010F5F1F4F95
:103890006801E114F10479F0D701ED91FC91068003
:1038A000F781E02DB801C7010995080F111DF70137
:1038B000E084F184EECFD8011C92F6010190002043
:1038C000E9F73197BF016C197D0940E0C601C1CF0E
:1038D0006BE379E102C06FE379E16115710509F2EB
:1038E000FB01449150E080E840CF0FB6F894A895D2
:1038F00080916000886180936000109260000FBE2C
:10390000A895EE3F2AE0F20739F08091FE0A9091E7
:10391000FF0A91838083A1CF1092FF0A1092FE0AC2
:103920009CCFEE3F8AE0F80731F08081918190933F
:10393000FF0A8093FE0A87E797E7918380839BE0E5
:1039400088E10FB6F894A895809360000FBE90931D
:10395000600083CF6C960FB6F894DEBF0FBECDBF6C
:10396000DF91CF91FF91EF91BF91AF919F918F9197
:103970007F916F915F914F913F912F911F910F9187
:10398000FF90EF90DF90CF900F900FBE0F901F90A1
:103990001895CF93DF93CDB7DEB762970FB6F89443
:1039A000DEBF0FBECDBF789484B5826084BD84B580
:1039B000816084BD85B5826085BD85B5816085BD2A
:1039C00080916E00816080936E00109281008091E2
:1039D000810082608093810080918100816080936A
:1039E00081008091800081608093800080919100AF
:1039F000826080939100809191008160809391001A
:103A0000809190008160809390008091C1008460DB
:103A10008093C1008091C10082608093C100809139
:103A2000C10081608093C1008091C3008160809358
:103A3000C3008091C00082608093C0008091C2006A
:103A400081608093C20080917A00846080937A00C4
:103A500080917A00826080937A0080917A00816000
:103A600080937A0080917A00806880937A00109227
:103A7000720110921806109270018091D700816037
:103A80008093D70080EA8093D80089B5806189BD92
:103A900089B5826089BD09B400FEFDCF61E070E0A8
:103AA00080E090E00E94560D8091D8008F7C80616C
:103AB0008093D8008091E000807F8093E000809127
:103AC000E1008E7E8093E1008DE08093E200559AC4
:103AD000209AEEEFFFE7859194918B3F9C4D19F46E
:103AE00081E08093170681EC80937C0085B1806F24
:103AF00085B984B1877E84B984B1876E84B95E9AB2
:103B00005F988AB1806D8AB9769A6E9881B3806F1A
:103B100081BB899880B38D7080BB80E58CBD81E0CE
:103B20008DBD85E090E00E941B115F9A85E090E0DA
:103B30000E941B115E985C98E2EDF5E08DE08E0F1F
:103B400094919EBD00000DB407FEFDCF31968E13FB
:103B5000F7CF5C9A81E88093640080916500816072
:103B6000809365000E94BC170E94201187FF24C02B
:103B70005C9885EA8EBD00000DB407FEFDCF5C9A0F
:103B80002E982F982D988091640080628093640015
:103B900081E083BF889513BEFCCF2D980E94201131
:103BA0008478843871F00E9420118471843129F165
:103BB00088EC90E00E941B110E94201182FDEDCF45
:103BC00038C02D9A88EC90E00E941B112F9882E05B
:103BD00090E00E9425278F3F29F06FEF82E090E070
:103BE0000E942D2784EF91E00E941B112F9A0E94C2
:103BF000201184788438D9F3D6CF2D9A88EC90E0C0
:103C00000E941B112E9882E090E00E9425278823B5
:103C100029F060E082E090E00E942D2784EF91E09F
:103C20000E941B112E9A0E94201184718431D9F3B5
:103C3000BFCF2D9A82E090E00E942527882331F0A3
:103C40003E9A3F9A81E080934E0104C010924E014B
:103C50003E983F980E94A91780E18093A1059E019C
:103C60002F5F3F4F3F832E832B5F2A8B8FB7F894B4
:103C700040914F015091500160915101709152015A
:103C80008FBF8091A205342F381B832F9091A305FD
:103C9000992329F03093A4051092A30566C590914D
:103CA000A105391748F48F5F891708F05EC581E0D8
:103CB00083BF889513BE59C511E01093A3054093A7
:103CC000A20580919D0590919E05019690939E0579
:103CD00080939D0580919F058093A0050E942011EF
:103CE00080939F050E94A91780915F01823009F49B
:103CF0008CC008F04EC0882309F454C0813009F00C
:103D0000A4C2109285051092860510928705109224
:103D100088051092890510928A0510928B051092E1
:103D20008C0500E010E021E130E00093780510936D
:103D3000790520937A0530937B0520E030E04FE24F
:103D400050E020937C0530937D0540937E05509391
:103D50007F058093800510928D0580E490E090931C
:103D60008F0580938E0580E890E090939105809375
:103D7000900588E090E0909393058093920540E150
:103D800050E0509395054093940582E080935F0145
:103D90003CC0843009F4F5C008F49BC0853009F4B8
:103DA000ADC153C2E8EFF0E10491E9EFF0E1E49036
:103DB00082E0C82E20E030E04AEF50E16EE070E093
:103DC0008EE290E00E94E80E00E010E090E8E92E1C
:103DD000F12CD0905B014D2DB80180E090E00E9465
:103DE0007316B8016F5F7F4F4D2DC7018D19910973
:103DF0000E9473160E5F1F4F0034110551F7D7FC58
:103E0000BCC4D394D0925B0120C28091850590916F
:103E10008605A0918705B09188058D01332717FD90
:103E20003095232F088719872A873B87C090530135
:103E3000D0905401C00ED11E809055019090560133
:103E40004090890550908A0560908B0570908C0594
:103E50002301772457FC7094672C0E945E14A09075
:103E60007A05B12C10917E050E94AF140E94D013E8
:103E7000B2016A5F7F4FE12C00E026EF3AE046EFA7
:103E80005DE0888599850E94CD100E94BD130E9437
:103E90003512C5014196C816D9060CF0D6C127E0E7
:103EA000C20ED11CAC14BD040CF0CFC1480C591C7F
:103EB000812F90E09C01285F3F4F421653060CF083
:103EC000C4C138E0430E511C841595050CF0BDC1EA
:103ED0005BC4109258018CE38093000110925E0144
:103EE00010925D0110935C0180E090E0A8ECBFEFC0
:103EF0008093850590938605A0938705B0938805E8
:103F00008093890590938A05A0938B05B0938C05C7
:103F100020E030E048E250E02093780530937905C6
:103F200040937A0550937B0580E090E0AFE2B0E0EB
:103F300080937C0590937D05A0937E05B0937F05CB
:103F40001093800510938D0588E790E090938F057E
:103F500080938E0580E191E0909391058093900588
:103F60008FE090E0909393058093920582E290E039
:103F700090939505809394050E945E1484E080934D
:103F80005F0180919D0590919E056CE370E00E9419
:103F9000AA27892B71F480910001882319F08150A0
:103FA0008093000180910001811103C085E080931E
:103FB0005F010E94AF1440917A0520917E058091A7
:103FC000850590918605A0918705B091880560913F
:103FD0005301709154016A0F7B1F8091550190919C
:103FE0005601C0908905D0908A05E0908B05F0902D
:103FF0008C05FB013796E738F105F0F48E0D9F1D17
:10400000883FAFEF9A07C4F080349105ACF450E0DC
:10401000DA0151966A177B077CF44E175F0764F448
:1040200030E0A901485F5F4F841795072CF408968C
:10403000281739070CF4DBC30E94D0130E943512F5
:10404000E12C00E020EF39E042E75AE066E370E05F
:1040500080E090E00E94CD1088E090E09093A6056B
:104060008093A50589E390E09093A8058093A70528
:1040700080915D0190915E01FE0131966AE070E0F1
:104080000E94AA278193CB011A891E13F7CF8E01B4
:104090000A5F1F4FD8016E918D0170E080E090E0C3
:1040A0004AE00E94CC17EE81FF810E171F0791F79F
:1040B00082E390E09093A6058093A50589E390E0C4
:1040C0009093A8058093A705809100012AE0622FB4
:1040D0000E949E27192F0E949E27692F70E080E082
:1040E00090E04AE00E94CC17612F70E080E090E001
:1040F0004AE00E94CC170E94BD13A7C0E09059016E
:10410000F0905A0100E420E84FED55E060E070E0E7
:10411000C7010E94AA1620E84FED55E060E070E06C
:10412000C70180589F4F0E94AA1680919D0580FD6F
:1041300011C0F1E0EF1AF10800E8E0160FEFF00609
:104140002CF0F0925A01E092590104C010925A01E9
:1041500010925901E12CF12C00E110E020E0A801BF
:10416000B7018AE995E00E9428110F5F1F4F0F32B7
:104170001105A1F71FEFE11AF10A20E8E216F10498
:1041800059F741E061E170E081E190E00E943E1862
:1041900041E06DE270E08DE290E00E943E1840E068
:1041A00060E370E080E390E00E943E1840E062E34C
:1041B00070E082E390E00E943E1885E290E09093E8
:1041C000A6058093A50586E190E09093A8058093CD
:1041D000A70586EE99E00E941D188FE190E090936C
:1041E000A6058093A50582E290E09093A8058093B0
:1041F000A7058FED99E00E941D1880915D019091B7
:104200005E01FE0131966AE070E00E94AA27819368
:10421000CB011A891E13F7CF8E010A5F1F4FD801F9
:104220006E918D0170E080E090E04AE00E94CC1732
:10423000EE81FF810E171F0791F78091A00582FD87
:1042400004C080919F0582FD9BC20E94BC17109103
:104250008205812F012E000C990BAA0BBB0BDC01F0
:10426000992788276C017D01FF0CCC08DC2C760196
:104270009C01AD016C2D7C2D8C2D9C2D00E10E94AC
:1042800095287901042FB52FF62FE72F6C01A0E0B8
:104290000E94CC2874F421503109484F5F4F6F4F72
:1042A0007F4F8F4F9F4F7901042FB52FF62FE72FA8
:1042B0006C019701402F5B2F6F2F7E2FC60103E10A
:1042C0000E94AE2869017A01F0918105FC878F2F49
:1042D000FF0F990BAA0BBB0BDC01992788274C0118
:1042E0005D01BB0C8808982C54019C01AD01682D20
:1042F000782D882D982D00E10E9495285901042FD2
:10430000B52FF62FE72F4C01A0E00E94CC2874F4C3
:1043100021503109484F5F4F6F4F7F4F8F4F9F4F55
:104320005901042FB52FF62FE72F4C019501402F8F
:104330005B2F6F2F7E2FC40103E10E94AE282887D8
:1043400039874A875B8717FF6FC0E0918D05F0E0E2
:10435000EE0FFF1FEF5EFE4F00811181198B088B5E
:1043600000917A05409185055091860560918705F9
:104370007091880540907C0550907D0560907E0589
:1043800070907F058090890590908A05A0908B059C
:10439000B0908C05862D90E08A199B099C012770AE
:1043A0003327232B09F0B2C010E0061B170B23E0C4
:1043B000169507952A95E1F733E0969587953A95F6
:1043C000E1F781502091940530919505829F10016D
:1043D000839F300C1124F101E00FF11D28893989E8
:1043E000E20FF31F84910E9451148111AAC081E051
:1043F000800FF101E80FF11D48895989E40FF51F7D
:1044000084910E94511481119CC00E5FF101E00F54
:10441000F11D08891989E00FF11F84910E94511440
:10442000882309F473C08DC011160CF08AC0E09186
:104430008D05F0E0EE0FFF1FEF5EFE4F0081118152
:10444000198B088B00917A0540918505509186055E
:10445000609187057091880580907C0590907D051E
:10446000A0907E05B0907F054090890550908A0508
:1044700060908B0570908C058A2D90E086199709C5
:1044800008969C0127703327232B09F030C210E0D7
:10449000061B170BF3E016950795FA95E1F7A3E0D5
:1044A00096958795AA95E1F7209194053091950509
:1044B000829F1001839F300C1124F101E00FF11D48
:1044C00028893989E20FF31F84910E9451148111C8
:1044D00038C081E0800FF101E80FF11D488959894A
:1044E000E40FF51F84910E94511481112AC00E5FC0
:1044F000F101E00FF11D08891989E00FF11F849186
:104500000E945114882309F4F2C11BC0B7FECCC12C
:10451000411451041CE1610671040CF07CC18C143F
:104520009D04AE04BF040CF091C18C189D08AE0828
:10453000BF088092890590928A05A0928B05B0925F
:104540008C051C8517FF76C0E0918D05F0E0EE0F1D
:10455000FF1FEF5EFE4F2080318040907805509025
:10456000790560907A0570907B05C0908505D090A4
:104570008605E0908705F0908805062D10E00E195D
:104580001F0940917C0550917D0560917E057091D9
:104590007F058090890590908A05A0908B05B0904A
:1045A0008C05C80187709927892B09F0BFC0CB0102
:1045B000BB2797FDB095AB2F8C879D87AE87BF87B4
:1045C000AC858A2F90E08A199B094C0193E0969460
:1045D00087949A95E1F7A0909405B090950523E013
:1045E000169507952A95E1F7015010E08A9CF00195
:1045F0008B9CF00D1124E00FF11FE20DF31D84914F
:104600000E9451148111B1C08C85877009F48EC04D
:1046100081E0880D8A9DF0018B9DF00D1124E00F43
:10462000F11FE20DF31D84910E945114882309F4B7
:104630007DC09BC01C8511160CF097C0E0918D05C4
:10464000F0E0EE0FFF1FEF5EFE4F20803180C09044
:104650007805D0907905E0907A05F0907B05409040
:1046600085055090860560908705709088050E2D11
:1046700010E0061917090F5E1F4F40917C055091FD
:104680007D0560917E0570917F05809089059090F1
:104690008A05A0908B05B0908C05C801877099277A
:1046A000079709F02DC2CB01BB2797FDB095AB2F23
:1046B0008C879D87AE87BF87AC858A2F90E08A194B
:1046C0009B094C01A3E096948794AA95E1F7A090EA
:1046D0009405B0909505B3E016950795BA95E1F766
:1046E0000F5F10E08A9CF0018B9CF00D1124E00F0D
:1046F000F11FE20DF31D84910E945114811135C008
:104700008C85877009F4FCC181E0880D8A9DF001D9
:104710008B9DF00D1124E00FF11FE20DF31D84912C
:104720000E945114882309F4EBC11FC0F7FEC6C1D3
:1047300041145104B8E36B0671040CF06DC1288577
:1047400039854A855B85C216D306E406F5060CF06A
:1047500085C1C21AD30AE40AF50AC0928505D0922F
:104760008605E0928705F092880580E090E0892B2D
:1047700009F47CCA0E94000072CA80E880935B0141
:1047800081E080935F0161CD809164008E7F809392
:10479000640080917A00806480937A0080917A002E
:1047A00086FDFCCF00917800109179000E94310DB8
:1047B00020E030E0980111270027600F711F821F51
:1047C000931F611571058105910511F00E941C2749
:1047D0008091640081608093640045EA50E066E265
:1047E00071E08BE092E00E94511683E0CACF809185
:1047F0005D0190915E01029690935E0180935D0150
:104800000E945E1442E550E065EA70E087E295E0C0
:104810000E94511611CC411451042CE1620671041E
:10482000F1F48C149D04AE04BF040CF47ECE3CE184
:10483000E30EF11CC818D908EA08FB08C0927C05F1
:10484000D0927D05E0927E05F0927F051092890559
:1048500010928A0510928B0510928C0572CED301AE
:10486000C2018C0D9D1DAE1DBF1D813091054CE117
:10487000A407B1050CF056C05CE1A50EB11C84186C
:104880009508A608B7088C189D08AE08BF08809246
:10489000890590928A05A0928B05B0928C0580E0E4
:1048A00090E0ACE1B0E03EC088279927DC018C198C
:1048B0009D09AE09BF0984159505A605B7052CF419
:1048C000C40CD51CE61CF71C09C010927C05109284
:1048D0007D0510927E0510927F0533CEC0927C0537
:1048E000D0927D05E0927E05F0927F052ACE81145C
:1048F00091041CE1A106B104F4F0811491043CE19F
:10490000A306B10409F443C0C80CD91CEA1CFB1C63
:10491000C114D10458E3E506F10404F380E090E00B
:10492000A8E3B0E080937C0590937D05A0937E057D
:10493000B0937F0506CED501C4018C0D9D1DAE1D23
:10494000BF1D00971CE1A107B10564F380E090E072
:10495000ACE1B0E088199909AA09BB098C199D0935
:10496000AE09BF098093890590938A05A0938B05B2
:10497000B0938C0520E030E04CE150E020937C05C2
:1049800030937D0540937E0550937F05DACD80916D
:104990008E0590918F05B301A2014C195D096E0936
:1049A0007F0920E430E0281B390B890120E030E04A
:1049B00098011127002704171507260737074CF41D
:1049C0004093890550938A0560938B0570938C05FD
:1049D000B8CD80549109A0E0B0E0DC019927882788
:1049E000480E591E6A1E7B1E4CE1640E711C4C0C55
:1049F0005D1C6E1C7F1C40927C0550927D05609270
:104A00007E0570927F050093890510938A05209397
:104A10008B0530938C0595CD4114510438E3630622
:104A2000710429F5288539854A855B85C216D30628
:104A3000E406F5060CF48DCE488559856A857B859C
:104A4000685C7F4F4C195D096E097F0940937805BA
:104A50005093790560937A0570937B0510928505D4
:104A60001092860510928705109288057ECE888563
:104A70009985AA85BB85840D951DA61DB71D81301E
:104A8000910538E3A307B1050CF069C048E3E40ED3
:104A9000F11CC418D508E608F708288539854A8529
:104AA0005B85C21AD30AE40AF50AC0928505D09242
:104AB0008605E0928705F09288054DC08885998526
:104AC000AA85BB85B095A095909581959F4FAF4FD6
:104AD000BF4F84159505A605B7054CF44885598543
:104AE0006A857B85440D551D661D771D41C010925A
:104AF00078051092790510927A0510927B0535CED3
:104B0000C114D10428E3E206F104DCF58885998517
:104B1000AA85BB858C0D9D1DAE1DBF1D0097E8E3CA
:104B2000AE07B105E4F080E090E0A8E3B0E08C19B6
:104B30009D09AE09BF09288539854A855B85821B99
:104B4000930BA40BB50B8093850590938605A093DA
:104B50008705B093880580E090E0A8E3B0E08093FB
:104B6000780590937905A0937A05B0937B05FDCDE8
:104B7000409378055093790560937A0570937B058F
:104B8000F4CDC114D10498E3E906F10409F04EC054
:104B90008091900590919105B301A2010885198536
:104BA0002A853B85401B510B620B730B20E830E0DC
:104BB000281B390B890120E030E0980111270027DC
:104BC00004171507260737074CF4409385055093C3
:104BD00086056093870570938805C7CD8058910935
:104BE000A0E0B0E0DC0199278827AC01BD01440DAD
:104BF000551D661D771D685C7F4F88859985AA8540
:104C0000BB85480F591F6A1F7B1F4093780550933F
:104C1000790560937A0570937B0500938505109361
:104C2000860520938705309388059FCD4885598553
:104C30006A857B854C0D5D1D6E1D7F1D41155105DF
:104C40009FE6690771050CF493CF00E010E02FE6B2
:104C500030E0009378051093790520937A0530931E
:104C60007B0583CD0F931F93CF93DF938C0181E05E
:104C700090E00E94252780FF31C08AE090E00E94EA
:104C800025279FEF980F9E3F48F522E330E0D8019B
:104C900050963C932E931F9728E330E052963C9316
:104CA0002E935197CBE0D0E0D801ED91FC9101908B
:104CB000F081E02D682FC8010995CE010E942527BB
:104CC0002196C131D10581F70E94BC1788EE93E08F
:104CD000DF91CF911F910F910C941B11DF91CF9118
:104CE0001F910F91089504970C943226E9EBF5E09B
:104CF0001382128288EE93E0A0E0B0E08483958373
:104D0000A683B78384E291E0918380838FEF9FEF46
:104D100095878487E6E9F5E0138212821186128670
:104D200080E1838710861782158686E391E0918360
:104D3000808384E491E095838483108A1786128AA5
:104D4000118A81E0838B148A858B168A87E29DE025
:104D5000909384058093830580E090E890931606F5
:104D60008093150646983E9A47983F9AE5E8F5E005
:104D70001082118212821382148215821682178287
:104D8000128611861486138616861586108A178653
:104D900008958F929F92AF92BF92CF92DF92EF923F
:104DA000FF92CF93DF93EC01688179818A819B81A7
:104DB000611571058105910521F464E279ED8BE5BA
:104DC00097E02DE133EF41E050E00E943B2749019D
:104DD0005A019B01AC01A7EAB1E40E945A276B017A
:104DE0007C01ACEEB4EFA50194010E946827DC01C0
:104DF000CB018C0D9D1DAE1DBF1DB7FF03C00197DC
:104E0000A109B04888839983AA83BB83BC01CD01E3
:104E10009F77DF91CF91FF90EF90DF90CF90BF9081
:104E2000AF909F908F9008950E94C92608958DE0BD
:104E300091E00E94C926089560930D0170930E01C0
:104E400080930F01909310010895F999FECF92BDC0
:104E500081BDF89A992780B50895262FF999FECF3C
:104E60001FBA92BD81BD20BD0FB6F894FA9AF99A87
:104E70000FBE01960895052E97FB1EF400940E9424
:104E8000522757FD07D00E946D2707FC03D04EF430
:104E90000C94522750954095309521953F4F4F4F98
:104EA0005F4F089590958095709561957F4F8F4FD6
:104EB0009F4F08950E948F27A59F900DB49F900D3E
:104EC000A49F800D911D11240895B7FF0C945A27BB
:104ED0000E945A27821B930B0895A1E21A2EAA1B47
:104EE000BB1BFD010DC0AA1FBB1FEE1FFF1FA2179A
:104EF000B307E407F50720F0A21BB30BE40BF50B97
:104F0000661F771F881F991F1A9469F7609570951F
:104F1000809590959B01AC01BD01CF010895A29FA2
:104F2000B001B39FC001A39F700D811D1124911D7D
:104F3000B29F700D811D1124911D0895991B79E078
:104F400004C0991F961708F0961B881F7A95C9F719
:104F500080950895AA1BBB1B51E107C0AA1FBB1F68
:104F6000A617B70710F0A61BB70B881F991F5A95F5
:104F7000A9F780959095BC01CD010895689401C072
:104F8000E894F92FF12B12F00C94F227A0E0B0E096
:104F9000ECECF7E20C946428092E059422F40E94AC
:104FA0004E28112392F4F0E80F26FFEFE094F094DE
:104FB00000951095B094C094D094A194BF0ACF0AE4
:104FC000DF0AEF0AFF0A0F0B1F0B0E94FD2707FCE9
:104FD0000E944E28CDB7DEB7ECE00C948028689490
:104FE00001C0E8948F929F92CF93DF930E94FD2798
:104FF000DF91CF919F908F90089588249924F40198
:10500000E401B0E49F93AA279A158B049C04ED0554
:10501000FE05CF05D007A10798F4AD2FDC2FCF2FC9
:10502000FE2FE92D982C892E982F872F762F652F0C
:10503000542F432F322F2227B85031F7BF9127C06A
:105040001B2EBF91BB27220F331F441F551F661F06
:10505000771F881F991F881C991CEE1FFF1FCC1FEC
:10506000DD1FAA1FBB1F8A149B04EC05FD05CE059E
:10507000DF05A007B10748F08A189B08EC09FD0975
:10508000CE09DF09A00BB10B21601A94E1F62EF4D2
:105090009401AF01BE01CD01000C0895609570959B
:1050A0008095909530954095509521953F4F4F4F65
:1050B0005F4F6F4F7F4F8F4F9F4F08952F923F92BB
:1050C0004F925F926F927F928F929F92AF92BF9218
:1050D000CF92DF92EF92FF920F931F93CF93DF93C4
:1050E000CDB7DEB7CA1BDB0B0FB6F894DEBF0FBE21
:1050F000CDBF09942A88398848885F846E847D846E
:105100008C849B84AA84B984C884DF80EE80FD806F
:105110000C811B81AA81B981CE0FD11D0FB6F894E5
:10512000DEBF0FBECDBFED0108950F93083090F0A4
:10513000982F872F762F652F542F432F322F22271A
:105140000850F4CF220F331F441F551F661F771FCF
:10515000881F991F0A95B2F70F91089597FB10F8D1
:10516000169400080F93083098F00850232F342F1E
:10517000452F562F672F782F892F902DF4CF059428
:10518000979587957795679557954795379527957F
:105190000A95AAF70F9108950024A7FD00942A17F5
:1051A000300540055005600570058005900508959F
:1051B000EE0FFF1F0590F491E02D099481E090E03F
:0A51C000F8940C94E328F894FFCF54
:1051CA003C00E1000000000000FFFFFFFF010000BB
:1051DA000052055403AC00BB11B111A91101050419
:1051EA000000000075159A1596158B151819E61802
:1051FA00D119000000004611E20C2C0D2B0D3226AD
:0E520A00FCFF0000732600C180810000000040
:00000001FF
