:100000000C94610E0C94890E0C94890E0C94890E3C
:100010000C94890E0C94890E0C94890E0C94890E04
:100020000C94890E0C94890E0C9441160C94B31602
:100030000C94890E0C94890E0C94890E0C94890EE4
:100040000C94890E0C94890E0C94890E0C94890ED4
:100050000C94890E0C94890E0C94890E0C94251A1C
:100060000C94890E0C94890E0C94890E0C94890EB4
:100070000C94890E0C94890E0C94890E0C94890EA4
:100080000C946F1A0C94890E0C94890E0C94890EA2
:100090000C94890E0C94890E0C94890E0C94890E84
:1000A0000C94890E0C94890E0C94890E080808088B
:1000B00008080505050808080808080808080808C9
:1000C00008080808080808080808080808080801B7
:1000D0000101010101010101010101010101010110
:1000E00001010101010101010101010101010108F9
:1000F00001010101010101010101010101010101F0
:1001000001010101010101010101010101010101DF
:1001100001010101010101010101010101010101CF
:1001200001010101010101010101010101010101BF
:1001300001010101010101010101010101010202AD
:10014000020101010101010101010101010101019E
:10015000010101010101010101010101010101018F
:10016000080808010101010101010101010101016A
:10017000010101010101010101010101010101016F
:100180000101010808010101010101010101010151
:10019000010101010101010101010101010101014F
:1001A0000101010101010801010101010101010138
:1001B000010101010101010101010101010101022E
:1001C0000101010101020204080101010101010113
:1001D000010101010101010101010101010101010F
:1001E00001080101010101090909080101010101D9
:1001F00001010101010101010101010101010101EF
:1002000001010108010101010108080808010101BB
:1002100001010101010101010101010101010101CE
:1002200001010101010801010101010108080101A9
:1002300001010101010101010101010101010101AE
:100240000101010101010108010101010101080190
:10025000010101010101010101010101010101018E
:100260000101010101010101010801010101010177
:100270000801010101010101010101010101010167
:100280000101010101010101010101080202010155
:100290000101080101010101010101010101010147
:1002A0000101010101010101010101010108080829
:1002B0000201010108010101010101010101010126
:1002C0000101010101010101010101010101010817
:1002D00008080801010108010101010101010101F2
:1002E00001010101010101010101010101010202FC
:1002F00004080808080101010801010101010101C8
:1003000001010101010101010101010101010101DD
:10031000090909080808080303030803030308027E
:1003200002020202020202020202020202020202AD
:1003300002020000000000000000000000000000B9
:1003400000000000000000000000000000000000AD
:100350000000000008080808080805050508080846
:10036000080808080808080808080808080808080D
:10037000080808080808010101010808010101082E
:10038000080101010101010108010101010101014F
:100390000101010101010108010101010101010146
:1003A0000101010101010101010108010101010136
:1003B0000101010101010101020801010101010125
:1003C000010101010101010101020204080202040C
:1003D00001010101010101010102080801010101FE
:1003E00001010101010101010101010909090809D6
:1003F00009090101010101010101010808080101C8
:1004000001010101010101010101010101080D08C2
:1004100008080E0801010101010101010108080895
:100420000101010A010101010101010101010101B3
:1004300001010101010101010101010101010101AC
:100440000101010101080101010101010101010195
:10045000010101010101010101010101010101018C
:100460000101010101010108010101010101010175
:10047000010101010101010101010101010101016C
:10048000010101010101010101080A01010101024B
:100490000204010101010101010101010101010148
:1004A000010101010202020401010108080A01011F
:1004B0000109090901010101010101010A0101010B
:1004C000010A0101010109090909010101080808DE
:1004D000010101080C08010101010101010A080ADA
:1004E000010101080A0101010810080802020408BC
:1004F00008080A01010101010101010102020408C9
:1005000008080101010808010101010101010909AF
:1005100009080808080A0A0A0A0A0A0A0A0A090946
:100520000908080803030308080A0A0A000303036A
:10053000080B0800000000000000000000000000A0
:10054000080F080808080000000000000000000074
:10055000000001010101010101010101010101018D
:10056000010101010101010101010101010101017B
:10057000010101010101010101010101010101016B
:10058000010101010101010101010101010101015B
:10059000010101010101010101010101010101014B
:1005A000010101010101010101010101010101013B
:1005B000010102020202020202020202020402021B
:1005C0000202000000000000000000000000000027
:1005D0000000D5F08D14A1C881CFD9F1AF2000F96A
:1005E000F9F9F9F9F9F9F90101010101010101F93B
:1005F000F9F9F9F9F9F9F90101010101010101F92B
:10060000F9F9F9F9F9F9F90101010101010101F91A
:10061000F9F9F9F9F9F9F90101010101010101F90A
:10062000F9F9F9F9F9F9F90101010101010101F9FA
:10063000F9F9F9F9F9F9F90101010101010101F9EA
:10064000F9F9F9F9F9F9F90101010101010101F9DA
:10065000F9F9F9F9F9F9F9010101010101010107BC
:1006600007070707070707F8F8F8F8F8F8F8F80792
:1006700007070707070707F8F8F8F8F8F8F8F80782
:1006800007070707070707F8F8F8F8F8F8F8F80772
:1006900007070707070707F8F8F8F8F8F8F8F80762
:1006A00007070707070707F8F8F8F8F8F8F8F80752
:1006B00007070707070707F8F8F8F8F8F8F8F80742
:1006C00007070707070707F8F8F8F8F8F8F8F80732
:1006D00007070707070707F8F8F8F8F8F8F8F8F831
:1006E000F8F8F8F8F8F8F80707070707070707F812
:1006F000F8F8F8F8F8F8F80707070707070707F802
:10070000F8F8F8F8F8F8F80707070707070707F8F1
:10071000F8F8F8F8F8F8F80707070707070707F8E1
:10072000F8F8F8F8F8F8F80707070707070707F8D1
:10073000F8F8F8F8F8F8F80707070707070707F8C1
:10074000F8F8F8F8F8F8F80707070707070707F8B1
:10075000F8F8F8F8F8F8F807070707070707070792
:1007600007070707070707F8F8F8F8F8F8F8F80791
:1007700007070707070707F8F8F8F8F8F8F8F80781
:1007800007070707070707F8F8F8F8F8F8F8F80771
:1007900007070707070707F8F8F8F8F8F8F8F80761
:1007A00007070707070707F8F8F8F8F8F8F8F80751
:1007B00007070707070707F8F8F8F8F8F8F8F80741
:1007C00007070707070707F8F8F8F8F8F8F8F80731
:1007D00007070707070707F8F8F8F8F8F8F8F8F830
:1007E000F8F8F8F8F8F8F80707070707070707F811
:1007F000F8F8F8F8F8F8F80707070707070707F801
:10080000F8F8F8F8F8F8F80707070707070707F8F0
:10081000F8F8F8F8F8F8F80707070707070707F8E0
:10082000F8F8F8F8F8F8F80707070707070707F8D0
:10083000F8F8F8F8F8F8F80707070707070707F8C0
:10084000F8F8F8F8F8F8F80707070707070707F8B0
:10085000F8F8F8F8F8F8F807070707070707070791
:1008600007070707070707F8F8F8F8F8F8F8F80790
:1008700007070707070707F8F8F8F8F8F8F8F80780
:1008800007070707070707F8F8F8F8F8F8F8F80770
:1008900007070707070707F8F8F8F8F8F8F8F80760
:1008A00007070707070707F8F8F8F8F8F8F8F80750
:1008B00007070707070707F8F8F8F8F8F8F8F80740
:1008C00007070707070707F8F8F8F8F8F8F8F80730
:1008D00007070707070707F8F8F8F8F8F8F8F8F82F
:1008E000F8F8F8F8F8F8F80707070707070707F810
:1008F000F8F8F8F8F8F8F80707070707070707F800
:10090000F8F8F8F8F8F8F80707070707070707F8EF
:10091000F8F8F8F8F8F8F80707070707070707F8DF
:10092000F8F8F8F8F8F8F80707070707070707F8CF
:10093000F8F8F8F8F8F8F80707070707070707F8BF
:10094000F8F8F8F8F8F8F80707070707070707F8AF
:10095000F8F8F8F8F8F8F807070707070707078710
:10096000878787878787879898989898989898878F
:10097000878787878787879898989898989898877F
:10098000878787878787879898989898989898876F
:10099000878787878787879898989898989898875F
:1009A000878787878787879898989898989898874F
:1009B000878787878787879898989898989898873F
:1009C000878787878787879898989898989898872F
:1009D0008787878787878798989898989898985353
:1009E000434F52453A0047414D45204F564552002E
:1009F000FEFFFFFFFFFFFFFFFFFFFFFFFFFFFFFF08
:100A0000FFFFFFFFFFFFFFFFFFFFFFFFFFFFFFFFF6
:100A1000FFFFFFFFFFFFFFFEFFFFFFFFFFFFFFFFE7
:100A2000FFFFFFFFFFFFFFFFFFFFFFFFFFFFFFFED7
:100A3000FC0303030303030303030303030303038D
:100A40000303030303030303030303030303030376
:100A50000303030303030303030303030303030366
:100A60000303030303030303030303030303030356
:100A70000303410AFC027252FA52D20242020202FB
:100A80000202020202020202020202020202020246
:100A90000202020202020202020202FC02E2120A44
:100AA0006A8A12E202020202020202020202020246
:100AB000020202FC00030001010301010001000029
:100AC0000000000000000000000000000000000026
:100AD0000000000000000000000000000300000112
:100AE00002020201000000000000000000000000FF
:100AF000000000000300FFFFFFFFFFFFFFFFFFFFFD
:100B0000FFFFFFFFFFFFFFFFFFFFFFFFFFFFFFFFF5
:100B1000FFFFFFFFFFFFFFFFFFFFFFFFFFFFFFFFE5
:100B2000FFFFFFFFFFFFFFFFFFFFFFFFFFFFFFFFD5
:100B3000FFFFFFFFFFFFFFFFFFFFFFFFFFFFFFFFC5
:100B4000FFFFFFFFFFFFFFFFFFFFFFFFFFFFFFFFB5
:100B5000FFFFFFFFFFFFFFFFFFFFFFFFFFFFFFFFA5
:100B6000FFFFFFFFFFFFFFFFFFFFFFFFFFFFFFFF95
:100B7000FFFFFFFFFFFFFFFFFFFFFFFFFFFFFFFF85
:100B8000FFFFFFFFFFFFFFFFFFFFFFFFFFFFFFFF75
:100B9000FFFFFFFFFFFFFFFFFFFFFFFFFFFFFFFF65
:100BA000FFFFFFFFFFFFFFFFFFFFFFFFFFFFFFFF55
:100BB000FFFFFFFFFFFFFFFFFFFFFFFFFFFFFFFF45
:100BC000FFFFFFFFFFFFFFFFFFFFFFFFFFFFFFFF35
:100BD000FFFFFFFFFFFFFFFFFFFFFFFFFFFFFFFF25
:100BE000FFFFFFFFFFFFFFFFFFFFFFFFFFFFFFFF15
:100BF000FFFFFFFFFFFF1F1F1F1F1F1F1F1F1F1FC5
:100C00001F1F1F1F1F1F1F1F1F1F1F1F1F1F1F1FF4
:100C10001F1F1F1F1F9FDFFFFFFFFFFFFFFFFFFFC4
:100C2000FFFFFFFFFFFFFFFFFFFFFFFFFFFFFFFFD4
:100C3000FFFFFFFFFFFFFFFFFFFFFFFFFFFFFFFFC4
:100C4000FFFFFFFFFFFFFFFFFFFFFFFFFFFFFFFFB4
:100C5000FFFFFFDF9F1F1F1F1F1F1F1F1F1F1F1FC4
:100C60001F1F1F1F1F1F1F1F1F1F1F1F1F1F1F1F94
:100C70001F1F1F1F1F1F00000000000000000000BA
:100C80000000000000000000000000000000000064
:100C90000000040E1F1F1F1F1F1F1F0F0F0F0F0F1E
:100CA0000F1F1FFFFFFFFFFFFFFFFFFFFFFFFFFF04
:100CB000FFFFFFFFFFFFFFFFFFFFFFFFFFFFFFFF44
:100CC000FFFFFFFFFFFF7F3F1F1F1F1F1F1F1F1F74
:100CD0001F1F1F1F1F1F1E1C1E1C180000000000CE
:100CE0000000000000000000000000000000000004
:100CF00000000000000000000000000000000000F4
:100D000000000000000000000000000000000000E3
:100D100000000000000000000000000000000000D3
:100D20000000000F3F7FFFFFFFFFFFFFFFFFFFFF00
:100D3000FFFFFFFF7F7F7FFFFFFFFFFFFFFFFFFF43
:100D4000FFFFFFFFFFFFFFFE3C0000000000000070
:100D50000000000000000000000000000000000093
:100D60000000000000000000000000000000000083
:100D70000000000000000000000000000000000073
:100D80000000000000000000000000000000000063
:100D90000000000000000000000000000000000053
:100DA000000000000000000103030303030301032C
:100DB0000303030100000001030303030103030312
:100DC0000303030303010100000000000000000012
:100DD0000000000000000000000000000000000013
:100DE0000000000000000000000000000000000003
:100DF000000000000000802AFAFA0202020202FA51
:100E0000FAFAFAFA0202020202FAFAFAFAFA02020A
:100E1000020202FAFAFAFAFA000000E0F8F8FC9C82
:100E20001C1C1C38000000FCFCFCFC1C1C1CFCFCFA
:100E3000F8F00000C0FCFC7CFCFCC000000080E07E
:100E4000F0F8783C1C1C1C3C0000FCFCFCFC1C1C4E
:100E50001C1C1C1C000000FAFAFAFAFA0202020238
:100E600002FAFAFAFAFA0202020202FAFAFAFAFAB2
:100E70000202020202FAFAFAE0E01F1F1F1F1FE03F
:100E8000E0E0E0E01F1F1F1F1FE0E0E0E0E01F1FA9
:100E90001F1F1FE0E0E0E0E0000000808103070F7B
:100EA0009EFEFCF8F00000FFFFFFFF0E0E0F0F0785
:100EB0000701E0FCFFFFEFE0EFFFFFFEE0003FFF78
:100EC000FFFFC080000000800000FFFFFFFF0E0E4C
:100ED0000E0E0E0E000000E0E0E0E0E01F1F1F1FFE
:100EE0001FE0E0E0E0E01F1F1F1F1FE0E0E0E0E088
:100EF0001F1F1F1F1FE0E0E00B0B08080808080B6E
:100F00000B0B0B0B08080808080B0B0B0B0B080846
:100F10000808080B0B0B0B0B004020432747A74783
:100F2000A747A341008040A747A707000000000093
:100F3000002647A747014000400147A74726000079
:100F400041234727472747274000072747A747A7A9
:100F5000472747274000000B0B0B0B0B080808081E
:100F6000080B0B0B0B0B08080808080B0B0B0B0BE3
:100F700008080808080B0B0B000000000000000028
:100F80000000000000000000000000000000000061
:100F90000000000000040A050A0508050805000015
:100FA0000000040A050AE5FAFDFE1E0F0707070FF9
:100FB00000000002F0FFFF1FFFFFF082000000FFB3
:100FC000FFFFFF87C7FFFF7E3C000408000001020F
:100FD000050A0508050805080408040800000000C3
:100FE0000000000000000000000000000000000001
:100FF00000000000000000000000000000000000F1
:1010000000000000000000000000000000000000E0
:1010100000000000000000000000000000000000D0
:101020000000000000000F3565DFB060404040E088
:101030000080780F854F2B282B4F850F788000FF7D
:1010400005057F4343651F86E63C00000000000065
:101050000000000000000000000000000000000090
:101060000000000000000000000000000000000080
:101070000000000000000000000000000000000070
:101080000000000000000000000000000000000060
:101090000000000000000000000000000000000050
:1010A000000000000000000000000101010101013A
:1010B0000001010101000000000001010101000127
:1010C0000101010101010100000000000000000019
:1010D0000000000000000000000000000000000010
:1010E0000000000000000000000000000000000000
:1010F00000000000000000000000000000000000F0
:1011000000000000000000000000000000000000DF
:1011100000000000000000000000000000000000CF
:1011200000000000000000000000000000000000BF
:1011300000000000000000000000000000000000AF
:10114000000000000000000000000000000000009F
:10115000000000000000000000000000000000008F
:10116000000000000000000000000000000000007F
:10117000000000000000000000000000000000006F
:10118000000000000000000000000000000000005F
:10119000000000000000000000000000000000004F
:1011A000000000000000008080808080800000003F
:1011B000008080808080808080000000000000002F
:1011C000000000000000000000000000000000001F
:1011D000000000000000000000000000000000000F
:1011E00000000000000000000000000000000000FF
:1011F00000000000000000000000000000000000EF
:1012000000000000000000000000000000000000DE
:1012100000000000000000000000000000000000CE
:1012200000000000020A2AA8A38F3FFFFFFEF08003
:1012300000FFFFFFFFFFFFFF07000000000000802E
:10124000808080C0C000800000000000000000001E
:10125000000000000000000000000000000000008E
:10126000000000000000000000000000000000007E
:10127000000000000000000000000000000000006E
:10128000000000000000000000000000000000005E
:10129000000000000000000000000000000000004E
:1012A0000000000000000000020A0A28A3871F7F38
:1012B000FCFFFFFFFFFF7F01F0F8FCFE06A30B071A
:1012C000073F0F230802000000000000000000009C
:1012D000000000000000000000000000000000000E
:1012E00000000000000000000000000000000000FE
:1012F00000000000000000000000000000000000EE
:1013000000000000000000000000000000000000DD
:1013100000000000000000000000000000000000CD
:1013200000000000000000000000000000020A2889
:10133000A1871F7FFF1F0080F1F3F3636322B21EBA
:101340002028000000000000000000000000000055
:10135000000000000000000000000000000000008D
:10136000000000000000000000000000000000007D
:10137000000000000000000000000000000000006D
:10138000000000000000000000000000000000005D
:10139000000000000000000000000000000000004D
:1013A0000000000000000000000000080808C80855
:1013B000884A8A48480888498908CA480948C84864
:1013C0000808080000000000000000000000000005
:1013D000000000000000000000000000000000000D
:1013E00000000000000000000000000000000000FD
:1013F00000000000000000000000000000000000ED
:1014000000000000000000000000000000000000DC
:1014100000000000000000000000000000000000CC
:1014200000000000000000000000000000000003B9
:101430000000020303000102010003010000030099
:10144000000000000000000000000000000000009C
:10145000000000000000000000000000000000008C
:10146000000000000000000000000000000000007C
:10147000000000000000000000000000000000006C
:10148000000000000000000000000000000000005C
:10149000000000000000000000000000000000004C
:1014A000000000000000000000000000000000003C
:1014B000000000000000000000000000000000002C
:1014C000000000000000000000000000000000001C
:1014D000000000000000000000000000000000000C
:1014E00000000000000000000000000000000000FC
:1014F00000000000000000000102040506060E08BE
:10150000010C0A09080D1003140320090C0600023F
:10151000070E070200000002070E0702000000008D
:1015200000020702000000000002070200000000A5
:101530001104000002040200000000000204020086
:101540000000000000000200000000000000020097
:101550000000000000000002070E07020000000269
:10156000070E070200000000000207020000000052
:101570000002070200001104000000000204020043
:101580000000000002040200000000000000020051
:10159000000000000000020000000D9F2D970D9F2D
:1015A0002D970000000000000000404040404040F7
:1015B0004040160512041402150640404F09ED097B
:1015C0004F4005020502050205020709070F07093A
:1015D000070F5A8739D6D639875A5A8739D6D63916
:1015E000875A825A9A42985A9A58405040604050BE
:1015F00040605A830188BC01815A5A8301A4B429EE
:10160000815A5A8301A4AC3D815A5A83018C883D8A
:10161000815A5A8301ACB435815A5A8301BCA83926
:10162000815A5A830184B40D815A70F8FEFFFFFF7E
:10163000FFFFFFFEFEFFFFFFFAF06060F0FAFFFF22
:10164000FFFEFEFFFFFFFFFFFFFEF87011080070B6
:10165000186E1E5E1272767C186A1E5A10600000A8
:1016600060105A1E6A187C7672125E1E6E18700028
:101670000103070F1F3F7FFF0808000002060E1E30
:101680003E000000FFFFFE7C38100000010100005A
:1016900000000809000000FE7C3810000000000077
:1016A0000000000080C0E0F0F8FCFEFF0808000029
:1016B000406070787C00FFFEFCF8F0E0C080080815
:1016C000007C78706040000010387CFEFFFF000056
:1016D000000000000101000008090010387CFE0035
:1016E00000000000000000000000FF7F3F1F0F0708
:1016F00003010808003E1E0E0602000030383C3E82
:101700003F3E3C383009080010181C1E1C18100001
:101710000C1C3C7CFC7C3C1C0C090800081838782C
:1017200038180800087CFE7FFE6702087CFE7FFEFA
:101730006E0407080008641E6402000008641E644A
:101740000400010204081020408000000000003E58
:101750005B4F5B3E3E6B4F6B3E1C3E7C3E1C183C21
:101760007E3C181C577D571C1C5E7F5E1C00183C7D
:101770001800FFE7C3E7FF0018241800FFE7DBE7C6
:10178000FF30483A060E2629792926407F050507AD
:10179000407F05253F5A3CE73C5A7F3E1C1C080809
:1017A0001C1C3E7F14227F22145F5F005F5F0609CE
:1017B0007F017F006689956A606060606094A2FF27
:1017C000A29408047E040810207E201008082A1C19
:1017D00008081C2A08081E101010100C1E0C1E0CE5
:1017E00030383E3830060E3E0E0600000000000085
:1017F000005F00000007000700147F147F14242AF4
:101800007F2A1223130864623649562050000807C5
:101810000300001C2241000041221C002A1C7F1CE6
:101820002A08083E080800807030000808080808E8
:10183000000060600020100804023E5149453E004F
:10184000427F400072494949462141494D331814AD
:10185000127F1027454545393C4A494931412111FC
:1018600009073649494936464949291E00001400EE
:101870000000403400000008142241141414141411
:10188000004122140802015909063E415D594E7C6F
:101890001211127C7F494949363E414141227F4124
:1018A00041413E7F494949417F090909013E414182
:1018B00051737F0808087F00417F41002040413F6D
:1018C000017F081422417F404040407F021C027F7C
:1018D0007F0408107F3E4141413E7F090909063ED1
:1018E0004151215E7F0919294626494949320301A0
:1018F0007F01033F4040403F1F2040201F3F4038B2
:10190000403F631408146303047804036159494D8C
:1019100043007F4141410204081020004141417FC2
:101920000402010204404040404000030708002038
:10193000545478407F284444383844444428384438
:1019400044287F385454541800087E090218A4A46F
:101950009C787F0804047800447D40002040403D8E
:10196000007F1028440000417F40007C0478047808
:101970007C080404783844444438FC18242418189B
:10198000242418FC7C0804040848545454240404F7
:101990003F44243C4040207C1C2040201C3C4030E4
:1019A000403C44281028444C9090907C4464544C13
:1019B000440008364100000077000000413608006E
:1019C00002010204023C2623263C1EA1A161123A18
:1019D0004040207A38545455592155557941215465
:1019E000547841215554784020545579400C1E526A
:1019F000721239555555593954545459395554540E
:101A0000580000457C410002457D420001457C4074
:101A1000F0292429F0F0282528F07C545545002091
:101A200054547C547C0A097F49324949493232482E
:101A3000484832324A4848303A4141217A3A424095
:101A40002078009DA0A07D39444444393D40404069
:101A50003D3C24FF2424487E4943662B2FFC2F2B3A
:101A6000FF0929F620C0887E0903205454794100DB
:101A700000447D413048484A32384040227A007A5A
:101A80000A0A727D0D19317D2629292F2826292938
:101A9000292630484D40203808080808080808085A
:101AA000382F10C8ACBA2F102834FA00007B000081
:101AB00008142A142222142A14089500220095AA38
:101AC000005500AAAA55AA55AA000000FF00101050
:101AD00010FF00141414FF001010FF00FF1010F08E
:101AE00010F0141414FC001414F700FF0000FF00A1
:101AF000FF1414F404FC141417101F10101F101FEF
:101B00001414141F00101010F0000000001F10101B
:101B100010101F10101010F010000000FF10101017
:101B2000101010101010FF10000000FF140000FF34
:101B300000FF00001F10170000FC04F4141417101D
:101B4000171414F404F40000FF00F7141414141410
:101B50001414F700F7141414171410101F101F1486
:101B60001414F4141010F010F000001F101F0000E7
:101B7000001F14000000FC140000F010F01010FF13
:101B800010FF141414FF141010101F00000000F0B8
:101B900010FFFFFFFFFFF0F0F0F0F0FFFFFF00008D
:101BA000000000FFFF0F0F0F0F0F38444438447C34
:101BB0002A2A3E147E02020606027E027E02635537
:101BC0004941633844443C04407E201E2006027E86
:101BD000020299A5E7A5991C2A492A1C4C72017298
:101BE0004C304A4D4D303048784830BC625A463D02
:101BF0003E494949007E0101017E2A2A2A2A2A44B7
:101C0000445F444440514A444040444A51400000EB
:101C1000FF0103E080FF000008086B6B08361236F6
:101C20002436060F090F06000018180000001010D7
:101C3000003040FF0101001F01011E00191D171295
:101C4000003C3C3C3C0000000000080B000202028B
:101C50000100090400000102020000052400100137
:101C600005240101010424020605240600010705DC
:101C7000810310004009040100020A00000007056A
:101C8000020240000007058302400000040309042B
:101C900012010002EF0201404123368000010102DF
:101CA000030141726475696E6F204C4C43004172B0
:101CB0006475696E6F204C656F6E6172646F0000B1
:101CC000D62711241FBECFEFDAE0DEBFCDBF11E073
:101CD000A0E0B1E0EAE9F4E502C005900D92A2357A
:101CE000B107D9F726E0A2E5B1E001C01D92A1320B
:101CF000B207E1F71EE0C1E6DEE004C02197FE0175
:101D00000E94402AC036D107C9F70E946A1D0C9470
:101D10004B2A0C94000080918105E0917F05F091A1
:101D20008005882349F0CF01029690938005809327
:101D30007F05859194910895CF0102969093800537
:101D400080937F0580819181089580915501089548
:101D50000895089580E090E00895CF92DF92EF9289
:101D6000FF920F931F93CF93DF930E948B0E8115E9
:101D700020E8920761F4809171008D7F809371005B
:101D8000109291004698479810926A018BC021E00A
:101D900020936A01813020E8920751F480917D05FB
:101DA00090917E059093800580937F050E948B0E15
:101DB00097FD05C020916901222309F43FC02091BD
:101DC000680121113BC021E020936B01EC01DF771A
:101DD000209769F481E080936C0146983FE9C32E17
:101DE0003FE0D32EE12CF12CCAEFD0E014C08E01DD
:101DF00020E030E060E472E48FE090E0A901980117
:101E00000E94A32869017A0181E0C81AD108E1087B
:101E1000F10810926C01E091DD05F091DE05099565
:101E2000811103C081E080936C0180916B01882354
:101E3000B9F180916C01811133C003C010926B0124
:101E4000C5CF46992DC0479A0E948B0E009771F01E
:101E50009C01DE010E94F728DC01CB0129E0B59549
:101E6000A795979587952A95D1F703C08FEF9FEF98
:101E7000DC01109290002AE020939100D09299000A
:101E8000C092980080936D0190936E01A0936F01B2
:101E9000B09370018091710082608093710002C0E4
:101EA0004798D2CFDF91CF911F910F91FF90EF9084
:101EB000DF90CF9008954F925F926F927F928F92B2
:101EC0009F92AF92BF92CF92DF92EF92FF920F93C9
:101ED0001F93CF93DF9300D000D0CDB7DEB7DC01E6
:101EE0005B014115510509F4F3C0FA018490319664
:101EF00094914E5F5F4FC82CD12C011102C0EE208F
:101F000039F1692F669566956695E62FF0E061E0F8
:101F100070E0892F877011F460E070E06E0F7F1F12
:101F2000C69EF001C79EF00DD69EF00D112421151E
:101F3000310539F0EE9EB001EF9E700D1124260F91
:101F4000371F0E9FB0010F9F700D1124460F571FB2
:101F5000FD01EC0DFD1D1E161F060CF0B9C0A038CA
:101F6000B1050CF0B5C0B501690F711D1616170645
:101F70000CF0AEC060E4A616B1040CF0A9C0411587
:101F8000510509F4A5C07A2D7770572E8501B7FE4B
:101F900002C0095F1F4F83E0159507958A95E1F709
:101FA000802FB7FE04C0552011F08FEF800FB7FFD0
:101FB00005C0002711270A1B1B0B02C000E010E020
:101FC000E038F10524F060E86A1B462E01C0482C79
:101FD000401AE82E082E000CFF088F3F1CF4FE2D3F
:101FE000F09501C0F0E0E1E0692F677009F4E0E0EE
:101FF0009695969596959E0FE90EF11C79E0E71659
:10200000F10414F098E0981B9F2E980E692D70E84B
:102010006703A00DB11D1124A00FB11F7801F89D19
:10202000E00CF11C11244E0D5F1D01E010E0052CA9
:1020300002C0000F111F0A94E2F72E0D3F1D882EDB
:10204000890E981409F444C0CD0183589E4F5C0159
:10205000E12CF12CE414A0F5F901EE0DFF1DE49143
:10206000E09FC001E19F900D1124809590959C8385
:102070008B83FA01EE0DFF1DE491E09F3001E19F9B
:10208000700C11247A82698297FC05C0F501908159
:102090008923682A6082552061F0F6E0F9154CF03A
:1020A000F501E058FF4F90818C8189239A81892B1B
:1020B00080836FEFE61AF60A7FEFA71AB70ACACF36
:1020C00093944C0D5D1D2C0D3D1DA058BF4FB9CFF5
:1020D0000F900F900F900F90DF91CF911F910F9164
:1020E000FF90EF90DF90CF90BF90AF909F908F9038
:1020F0007F906F905F904F900895BC0180E090E0DA
:102100000C9466198FB18095807F669B88601C9BBC
:102110008460089560387105D0F440345105B8F4F6
:10212000E2E4F7E180E1849FD001A0781124A60FBA
:102130004770E40FF11D8491A358BE4F222319F07C
:102140006C91862B03C080956C9186238C930895A7
:102150002F923F924F925F926F927F928F929F92B7
:10216000AF92BF92CF92DF92EF92FF920F931F93A5
:10217000CF93DF93CDB7DEB729970FB6F894DEBFC4
:102180000FBECDBFFC016A3069F42589818992892F
:1021900038E0239F800D911D1124928B818B108A32
:1021A0001786AAC06D3009F4A7C099878887F5887B
:1021B0003488238861887288078510890038110562
:1021C000C4F0A885B98555962C915597422F50E0BB
:1021D0001F968D919C915097B6E02B9F800D911D7D
:1021E0001124E885F985908B8787268921116EC097
:1021F00083C0F0E46F16710424F7C80125E0F29E55
:10220000800D911D112418161906DCF68F2D90E013
:102210009C838B83C301A8E0FA9E800D911D11243D
:102220001816190674F6B5E06B9FB0011124FB0176
:10223000E65BF84EFA83E98330E088859985049659
:102240009E838D83E981FA81E490353009F4E12C95
:10225000430188E0482EE0FC02C0532C01C0522C00
:1022600051100BC0321009C0E6944A948B819C81B6
:10227000880E991E4110EFCF1BC068018C2D801B6A
:102280008F1590F754018A2D88198F1568F4252D24
:10229000A501B6018D819E813F830E948A109FEF28
:1022A000A91AB90A3F81EFCFAFEFCA1ADA0AE6CF0F
:1022B0003F5FEB81FC810E0F1F1F89819A81019680
:1022C0009A838983363009F0BDCF7BCF6AEF6403F0
:1022D0009001659F300D112420583F4F2817390772
:1022E0005CF4A885B985ED91FC9111970190F0817E
:1022F000E02D6AE0CD01099581E090E029960FB6C6
:10230000F894DEBF0FBECDBFDF91CF911F910F912B
:10231000FF90EF90DF90CF90BF90AF909F908F9005
:102320007F906F905F904F903F902F9008954F92C5
:102330005F926F927F928F929F92AF92BF92CF9255
:10234000DF92EF92FF920F931F9340905A015090AB
:102350005B018091DF059091E005A091E105B091CE
:10236000E205F201EA0FFB1F8091E3059091E4057D
:10237000A091E505B091E605C0905C01D0905D01AB
:10238000CA0EDB1ECF0107968738910540F528EF6E
:10239000C2162FEFD2061CF187E3C816D104FCF455
:1023A00000915E01E02E24E237E142E357E1B601FD
:1023B000CF010E945B0F8091F7059091F8056FE0C7
:1023C00070E00E941229892B39F481E090915E011E
:1023D000911180E080935E011092670121C180918C
:1023E00067018F5F68E20E9406299093670194312C
:1023F00008F016C100918205109183052091840593
:1024000030918505612C712C3201552444240D2C0A
:10241000000CEE08FF08B0908805CF01FF0FAA0B53
:10242000BB0BA901772757FD7095672FCB18D108F3
:10243000E108F1087601DD24CC24841B9109A1096F
:10244000B10940165106620673060CF082C03C01C9
:10245000552444244114510461047104F1F41C1402
:102460001D041E041F044CF4E12C00E020E137E1C0
:1024700049E157E16FE270E00DC0CD28CE28CF28AA
:1024800009F4CEC0E12C00E02CEF36E145E057E145
:1024900060E070E08BE390E0C1C046015701BB0CE7
:1024A0008808982C54019601A701682D782D882D55
:1024B000982D00E10E94FD29B42FA52FF62FE72FBC
:1024C000B301A201770F440B542FBA0152016301EB
:1024D000E42EF42E042F142F4B2F5A2F6F2F7E2F04
:1024E0000E942829C901DA018130910522E0A20762
:1024F000B10544F6893B2EE19207A105B1054CF0E8
:10250000E12C00E02AEE36E142EF56E160E070E0B7
:102510001DC0893421EE92072FEFA207B2074CF0BD
:10252000E12C00E028EC36E148ED56E16CE170E08A
:102530000DC00197AE4FBF4F0CF496CFE12C00E0D9
:1025400026EB36E14EEB56E16FE270E080E090E082
:1025500065C03C01552444244114510461047104B4
:1025600009F47DCF46015701BB0C8808982C540113
:102570009601A701682D782D882D982D00E10E94E5
:10258000FD29B42FA52FF62FE72FB301A201770F56
:10259000440B542FBA0152016301E42EF42E042F90
:1025A000142F4B2F5A2F6F2F7E2F0E942829C901DD
:1025B000DA018130910522E0A207B1050CF054CF79
:1025C000893B2EE19207A105B1054CF0E12C00E01A
:1025D00024EA36E14CEA56E16FE270E01DC089342E
:1025E00021EE92072FEFA207B2074CF0E12C00E09A
:1025F00022E836E142E956E16CE170E00DC0019756
:10260000AE4FBF4F0CF43ECFE12C00E020E736E1A7
:1026100048E756E160E070E088E790E00E945B0FD9
:102620001F910F91FF90EF90DF90CF90BF90AF90F0
:102630009F908F907F906F905F904F900895EF9252
:102640000F93E2E8F5E00085668170E08281E02E7C
:102650002AE236E14CE456E190E00E945B0F0F91D4
:10266000EF9008954F925F926F927F92BF92CF92B8
:10267000DF92EF92FF920F931F93CF93DF93E0913E
:10268000E705F0E0EE0FFF1FEF5EFE4FC080D18048
:10269000B12CCB2DD0E08091EC059091ED05C817C1
:1026A000D90708F052C07E0183E0EE0CFF1C8A952A
:1026B000E1F710E0E12FF0E04091EE055091EF05D9
:1026C000E417F50708F03FC04090DF055090E005A3
:1026D0006090E1057090E205CF0123E0880F991F1B
:1026E0002A95E1F7860D971D4090E3055090E4058B
:1026F0006090E5057090E6059C01285F3F4F283803
:102700003105F8F4B701660D771D9B01285F3F4F37
:1027100028343105B0F4C49F9001C59F300DD49F7B
:10272000300D1124E20FF31FEC0DFD1D449128E044
:10273000429FA001112446565A4E08E028E00E940C
:102740005A1B1F5FB7CFB394A4CFDF91CF911F91D6
:102750000F91FF90EF90DF90CF90BF907F906F90A0
:102760005F904F900895882329F08850823010F0B0
:1027700080E0089581E00895CF93DF9300D000D0EA
:10278000CDB7DEB7E091E705F0E0E35EFE4F2081D4
:1027900030E040E050E0211531054105510571F070
:1027A00029833A834B835C830E947F2829813A8165
:1027B0004B815C810E94A3289B01AC01E091E7055D
:1027C000F0E0EE0FFF1FE95EFE4F6081718130E0A7
:1027D000220F331FFB01E20FF31F849148E0849F17
:1027E000C001112490935B0180935A012F5F3F4FEA
:1027F000FB01E20FF31FE49188E0E89FF001112450
:10280000F0935D01E0935C0110925E010F900F90D8
:102810000F900F90DF91CF910895EF920F938091D9
:10282000F7059091F80583709927892B09F0A7C0C7
:102830000E94821085FF05C00E94E91A81E0809302
:102840008A050E94821086FF04C00E94CF1A10924F
:102850008A050E94821083FF58C080918A058111E9
:1028600011C000915F016091880570E0685F7F4F43
:1028700080918405E02E24E535E146E755E190E0BE
:102880000E945B0F80918A05813089F400915F017D
:102890006091880570E0685F7F4F80918405E02E2D
:1028A0002EE035E140E355E190E00E945B0F80911E
:1028B000F7059091F80565E070E00E941229892BD8
:1028C00031F480915F018F5F817080935F0180910F
:1028D0008C05882359F024F48C3F7CF0880F0BC0C2
:1028E000813031F089304CF4859505C08FEF03C0FD
:1028F00010928C0502C080938C0541E250E061E4A7
:1029000070E081E290E00E94011B8091F7059091B8
:10291000F80587709927892B91F50E94821083FD15
:1029200018C080918C058F3F71F01CF4883F3CF4F7
:1029300010C0882359F0853064F4880F08C087FDE3
:102940008F5F859504C010928C0503C081E0809351
:102950008C050E94821085FD12C00E94821086FDA7
:102960000EC080918B05181614F40E94E91A80910C
:102970008B0587FF04C00F91EF900C94CF1A0F9135
:10298000EF9008954091780150917901209176015E
:102990003091770142175307B4F49091E800957095
:1029A000E1F39091E80092FD19C08093F1008091CD
:1029B00078019091790101968F739927892B19F4E9
:1029C0008EEF8093E80080917801909179010196D3
:1029D000909379018093780181E0089580E00895D3
:1029E000CF92DF92EF92FF920F931F93CF93DF93DB
:1029F0001F92CDB7DEB7182F062FE42E862F880F33
:102A00008E5F99830E94C21483E00E94C214F12E4B
:102A1000C12E9981D92E8C2D8F19801798F4F6012B
:102A2000E7FE02C0849101C080810E94C214182F69
:102A300080E00E94C2148123FFEFCF1ADF0A8111C8
:102A4000EACF01C081E00F90DF91CF911F910F91EC
:102A5000FF90EF90DF90CF900895DF92EF92FF927A
:102A60000F931F93CF93DF93D82E8A017B01E40E3F
:102A7000F51EEB01CE15DF0571F0D7FE03C0FE0198
:102A8000849101C088810E94C21421968111F2CFE5
:102A90008FEF9FEF01C0C801DF91CF911F910F9180
:102AA000FF90EF90DF900895615030F02091F10099
:102AB000FC0120830196F8CF289884E680937B015F
:102AC0000895CF92DF92EF92FF920F931F93CF93CF
:102AD000DF936C017A018B01C0E0D0E0CE15DF05F9
:102AE00089F0D8016D918D01D601ED91FC91019095
:102AF000F081E02DC6010995892B11F47E0102C0F9
:102B00002196ECCFC701DF91CF911F910F91FF90DC
:102B1000EF90DF90CF900895CF93DF931F92CDB7C2
:102B2000DEB76983DC01ED91FC910280F381E02D39
:102B300041E050E0BE016F5F7F4F09950F90DF913C
:102B4000CF91089583E08093E9008091F20088237B
:102B500019F08AE38093E8000895FC018485958547
:102B600097FD0BC09FB7F89482E08093E9008091B5
:102B7000F2009FBF90E0019608959FB7F89482E01D
:102B80008093E9008091F2009FBF90E008950E9439
:102B9000462A0F931F93CF93DF931F92CDB7DEB7D3
:102BA00082E0898342E450E06AE47CE180E80E94AC
:102BB0002D150E94561DDC0112960D911C91139744
:102BC0000115110569F0D801ED91FC910280F381A6
:102BD000E02DBE016F5F7F4FC801099597FF07C0C9
:102BE00089810F90DF91CF911F910F910895F80186
:102BF00000851185E5CF0E94451D90E00895CF9393
:102C0000DF931F92CDB7DEB7FC018485958597FDD4
:102C100005C02FEF3FEF358724870BC0CE0101960B
:102C20000E941B1D019719F4898190E002C08FEF6B
:102C30009FEF0F90DF91CF9108950F931F93CF9344
:102C4000DF931F92CDB7DEB78C01FC01848595859B
:102C500097FF0EC0CE0101960E941B1D019719F42B
:102C6000298130E002C02FEF3FEFF801358724873C
:102C7000F801848595850F90DF91CF911F910F9179
:102C800008951F920F920FB60F9211248F939F9366
:102C90008091E1009091E100937F9093E10083FFA8
:102CA0000FC01092E90091E09093EB001092EC00BD
:102CB00092E39093ED0010927C0198E09093F000E5
:102CC00082FF20C093E09093E9009091F200992355
:102CD00019F09AE39093E80090917A01992339F0E2
:102CE00090917A01915090937A01992389F1909172
:102CF0007B01992339F090917B01915090937B0156
:102D0000992341F184FF10C08091E2008E7E8160A2
:102D10008093E2008091E1008F7E8093E1008091BA
:102D200053018E7E806111C080FF16C08091E20049
:102D30008E7E80618093E2008091E1008E7E8093A0
:102D4000E100809153018E7E81608093530104C025
:102D50005D9ACDCF289AD6CF9F918F910F900FBEBD
:102D60000F901F9018951F920F920FB60F9211247B
:102D7000CF92DF92EF92FF920F931F932F933F9387
:102D80004F935F936F937F938F939F93AF93BF9373
:102D9000EF93FF93CF93DF93CDB7DEB76C97DEBF92
:102DA000CDBF1092E9008091E80083FFEDC168E09B
:102DB000CE0145960E94541582EF8093E8008D89DC
:102DC00087FF05C09091E80090FFFCCF03C09EEF05
:102DD0009093E800982F907609F0C6C09E892F89BD
:102DE000188D91110CC0803829F480915401809382
:102DF000F10002C01092F1001092F10048C1422F80
:102E000050E0512B913051F4811141C141305105B5
:102E100009F03DC1809154018D7F0BC0933061F466
:102E2000811135C14130510509F031C18091540102
:102E30008260809354012BC1953041F48091E80069
:102E400080FFFCCF20682093E30021C1963009F079
:102E50005FC0EB8CFC8C1092E9001092790110920B
:102E60007801123091F510927701109276010E944C
:102E7000C91599E0BE016F5F7F4FDB01E92F1D92FD
:102E8000EA95E9F799831A8391E09E8390EA9887FF
:102E90009AEF99872091780130917901275F3F4F10
:102EA0003C832B838D831092E9001092790110925C
:102EB0007801F0927701E092760149E050E080E0FD
:102EC0000E942D150E94C915E2C0F0927701E09290
:102ED00076010E94561DDC011296ED90FC9013972E
:102EE000E114F10409F4C0C0D701ED91FC91048014
:102EF000F581E02DBE016B5E7F4FC70109950097FC
:102F000019F00CF0C4C0C7C0F701E084F184E8CF29
:102F1000973009F4C0C0983021F481E08093F1002B
:102F2000B6C0993009F0B3C0837009F0B4C0E1E2D3
:102F3000F1E081E021E036E39081992361F0809314
:102F4000E9002093EB0091919093EC003093ED0019
:102F50008F5F873089F78EE78093EA001092EA004E
:102F60008F8980937C0193C08B8D9C8D1092E9009A
:102F700010927901109278019093770180937601F5
:102F8000898D811156C08E899D89913A59F481327B
:102F900009F081C047E050E065E071E080E00E9408
:102FA0002D1575C0913209F076C0833289F4888D71
:102FB00090E0982F88272F89822BA0E0B0E08093A3
:102FC000010190930201A0930301B09304015FC03B
:102FD000803269F48091E80082FFFCCF67E085E0F1
:102FE00091E00E9454158BEF8093E80006C0823276
:102FF00009F04DC08F8980930C0180915201882384
:1030000019F0EEEFFAE002C0E0E0F8E0809105018F
:1030100090910601A0910701B0910801803B944076
:10302000A105B10509F07BC080910C0180FF93C020
:1030300076C00E94561DDC0112960D911C911397CB
:103040000115110541F1D801ED91FC910190F0813C
:10305000E02DBE016B5E7F4FC8010995811117C03D
:10306000F80100851185ECCF113009F44EC0133002
:1030700091F48F89882309F445C0823081F440E8B7
:1030800060E18EEA9CE10E94F014882321F08EEF2B
:103090008093E80079C081E28093EB0075C08130B5
:1030A00029F440E86BE082EA9CE1EDCF833099F7A8
:1030B0000E94561DDC011296ED90FC9013978E0134
:1030C0000F5F1F4F6801E114F10479F0D701ED9112
:1030D000FC910680F781E02DB801C7010995080F22
:1030E000111DF701E084F184EECFD8011C92F601A6
:1030F00001900020E9F73197BF016C197D0940E08C
:10310000C601C1CF6CE87CE102C060E97CE16115D9
:10311000710509F2FB01449150E080E840CF0FB601
:10312000F894A89580916000886180936000109267
:1031300060000FBEA895EE3F2AE0F20739F08091BB
:10314000FE0A9091FF0A91838083A1CF1092FF0A1B
:103150001092FE0A9CCFEE3F8AE0F80731F08081A2
:1031600091819093FF0A8093FE0A87E797E7918306
:1031700080839BE088E10FB6F894A8958093600067
:103180000FBE9093600083CF6C960FB6F894DEBFAD
:103190000FBECDBFDF91CF91FF91EF91BF91AF9166
:1031A0009F918F917F916F915F914F913F912F915F
:1031B0001F910F91FF90EF90DF90CF900F900FBE77
:1031C0000F901F9018956115710579F0FB01019022
:1031D0000020E9F73197AF01461B570BDC01ED9159
:1031E000FC910280F381E02D099480E090E0089545
:1031F0004F925F926F927F92EF92FF920F931F9385
:10320000CF93DF93CDB7DEB7A1970FB6F894DEBFAB
:103210000FBECDBF7C01FA01CB0119A2223008F408
:103220002AE08E010F5D1F4F422E512C612C712C14
:10323000BF01A30192010E94D528F901CA010150E2
:1032400011096A3014F4605D01C0695CD8016C93A7
:10325000232B242B252B61F7B801C7010E94E3180B
:10326000A1960FB6F894DEBF0FBECDBFDF91CF9110
:103270001F910F91FF90EF907F906F905F904F9014
:1032800008953FB7F8948091720190917301A091D5
:103290007401B091750126B5A89B05C02F3F19F0A8
:1032A0000196A11DB11D3FBFBA2FA92F982F8827C6
:1032B000820F911DA11DB11DBC01CD0142E0660F21
:1032C000771F881F991F4A95D1F708958F929F9273
:1032D000AF92BF92CF92DF92EF92FF926B017C018F
:1032E0000E9441194B015C01C114D104E104F104B5
:1032F000F1F00E944119DC01CB0188199909AA0952
:10330000BB09883E9340A105B10570F321E0C21AC4
:10331000D108E108F10888EE880E83E0981EA11C10
:10332000B11CC114D104E104F10419F7DDCFFF9001
:10333000EF90DF90CF90BF90AF909F908F900895C7
:103340008F929F92AF92BF92CF92DF92EF92FF92B5
:103350000F931F93CF93DF935C016B017A018091F0
:103360000C01882309F45BC080917C01882309F457
:1033700056C08091530180FF05C08091E0008260BB
:103380008093E000E70110E00AEF83E0882E9AE3E3
:10339000992E2097D9F10E94451D81110AC0015034
:1033A00009F43DC061E070E080E090E00E946619A1
:1033B000F0CF282F30E0C217D3070CF48C2F4FB773
:1033C000F8948092E9009091E80095FF1DC0282FA5
:1033D00030E0C21BD30BF601982F915020F0819161
:1033E0008093F100FACFC20ED31E112319F09092F0
:1033F000E80009C08091E80085FD06C09092E800D1
:1034000011E0209709F010E04FBFC3CF1111C3CFD7
:103410005D9884E680937A011E141F0444F081E0D5
:1034200090E0F5019383828380E090E001C0C701C2
:10343000DF91CF911F910F91FF90EF90DF90CF9090
:10344000BF90AF909F908F9008951F920F920FB6EC
:103450000F9211242F933F938F939F93AF93BF931A
:103460008091560190915701A0915801B091590156
:103470003091710123E0230F2D3720F40196A11D17
:10348000B11D05C026E8230F0296A11DB11D209392
:1034900071018093560190935701A0935801B09306
:1034A00059018091720190917301A0917401B091C2
:1034B00075010196A11DB11D809372019093730156
:1034C000A0937401B0937501BF91AF919F918F91BB
:1034D0003F912F910F900FBE0F901F9018951F9244
:1034E0000F920FB60F9211242F933F934F935F9338
:1034F0006F937F938F939F93AF93BF93EF93FF93BC
:1035000080916D0190916E01A0916F01B091700159
:10351000892B8A2B8B2B81F180916C0181110BC03F
:1035200098B180E4892788B980916B01882319F0CC
:1035300088B1805888B980916D0190916E01A091F9
:103540006F01B0917001181619061A061B06B4F423
:1035500080916D0190916E01A0916F01B091700109
:103560000197A109B10980936D0190936E01A09319
:103570006F01B093700102C00E94AD0EFF91EF91F8
:10358000BF91AF919F918F917F916F915F914F917B
:103590003F912F910F900FBE0F901F901895809123
:1035A0008B058F3F69F01CF4883F34F4089588231D
:1035B00051F0853054F0089587FD8F5F859506C0E2
:1035C00010928B05089581E001C0880F80938B05D0
:1035D000089580918B05882359F01CF48C3F34F4B6
:1035E0000895813039F0893044F00895880F06C07D
:1035F0008FEF04C010928B050895859580938B05FD
:1036000008959C01E1E7F0E090819D7F9083109206
:103610008105E3E1F6E0F0938005E0937F05F09308
:103620007E05E0937D053183208382E390E09383E0
:1036300082837583648397838683518740879387CA
:1036400082870C94AD0E9C01240F311D12161306B7
:1036500084F5803891056CF5FC0197FF02C0E0E02D
:10366000F0E02138310514F020E830E02E1BAB01EA
:103670004770552781E090E001C0880F4A95EAF72E
:10368000809577FF02C0695F7F4F93E075956795DE
:103690009A95E1F77695762F662777956795E60FE9
:1036A000F71FE358FE4F215020F09081982391930B
:1036B000FACF08952F923F924F925F926F927F922E
:1036C0008F929F92AF92BF92CF92DF92EF92FF9232
:1036D0000F931F93CF93DF93CDB7DEB728970FB625
:1036E000F894DEBF0FBECDBF5A01822E912C9C01F3
:1036F000280D391D37FDC4C0803891050CF0C0C0BD
:103700009B01200F311D37FDBBC0603471050CF0EB
:10371000B7C0AB0177FF04C044275527461B570BA2
:10372000477055279B0177FF02C0295F3F4FE3E0B9
:1037300035952795EA95E1F777FF08C021503109C3
:1037400068E070E0DB01A41BB50BAD01602F66954E
:103750006695669570E0077011F06F5F7F4FDB0133
:10376000A20FB31FBA83A98339017694762C6624FD
:1037700077946794680E791EE12CF12C00E010E03C
:103780002301B0E84B0E511C68E070E0DB01A41B84
:10379000B50BBC83AB8369817A812617370709F49F
:1037A0006FC02830310509F46BC02F3FBFEF3B07D6
:1037B0000CF45BC0B201600F711FDB01A358BE4F58
:1037C000BE83AD83D801A60DB71DA358BE4F6C01B3
:1037D00060E070E0681579050CF047C0E0E8CE16AF
:1037E000D10409F442C0D7FC34C02F3FFFEF3F079C
:1037F00009F442C0FB01EE0DFF1DEA0DFB1DE49133
:10380000042E01C0EE0F0A94EAF73C90E329EC93F2
:1038100041155105F1F027303105D9F0FB01EE0DCE
:10382000FF1DEA0DFB1DE4912E2E312CF1010B80C2
:1038300002C0F595E7950A94E2F7F887EF83ED81EA
:10384000FE813080EF81F885E3291F01ED81FE8143
:1038500020826F5F7F4FED81FE813196FE83ED8385
:10386000FFEFCF1ADF0A1196B5CF2F5F3F4F0058F9
:103870001F4FE80CF91C8FCF4115510579F6E9CFA0
:1038800028960FB6F894DEBF0FBECDBFDF91CF9163
:103890001F910F91FF90EF90DF90CF90BF90AF906E
:1038A0009F908F907F906F905F904F903F902F9060
:1038B000089580E0EDE7F1E081118FEF002481931E
:1038C0008193819381930394D1F7E0EFF5E0128A1D
:1038D000118A108A17860895EDE7F1E080E0A0E0F4
:1038E000B8E000800EBC8111012C1197A0FDFDCF26
:1038F0000192B9F70DB408950F931F93CF93DF93FF
:103900008C01C0E0D0E0F801EC0FFD1F649166234C
:1039100071F0E091F005F091F1050190F081E02D5A
:1039200080EF95E00995892B11F02196ECCFCE011F
:10393000DF91CF911F910F9108954F925F926F92F7
:103940007F928F929F92AF92BF92CF92DF92EF922F
:10395000FF920F931F93CF93DF93EC018B01442EC3
:10396000CB018C1B9D0B97FF03C09195819591090D
:1039700055245394813891053CF4512CC80100E83A
:1039800010E0E12CF12C0FC00C171D0734F07E0164
:1039900080E890E0C0E0D0E006C078018E0180E0D1
:1039A00090E0C0E8D0E038016E187F085C01AC1AE6
:1039B000BD0AB7FE03C0B194A194B108630177FEBC
:1039C00003C02FEFC21AD20AD594C794C817D907DB
:1039D00014F08FEF01C081E0882E880F99080E1532
:1039E0001F05C4F0242D552019F0A701BE0102C007
:1039F000AE01B70184EF95E00E948A10CA18DB0877
:103A0000D7FE04C0C80DD91DC60CD71C8FEFE81A0D
:103A1000F80AE5CFDF91CF911F910F91FF90EF90C2
:103A2000DF90CF90BF90AF909F908F907F906F90DE
:103A30005F904F900895FC0180917C01811103C03B
:103A40008FEF9FEF08959FB7F89482E08093E9008D
:103A50002091F20030E01216130614F421E030E059
:103A60002115310559F0289884E680937B018091D7
:103A7000F10080838091F200882319F09FBFC90173
:103A800008958BE68093E800F9CF2FB7F89483E090
:103A90008093E9009091E800892F807295FF04C01F
:103AA0009091F20080E4891B2FBF089580910B064E
:103AB00081110DC082E08093070684E080930806A0
:103AC00010920A061092090681E080930B0687E0A7
:103AD00096E00895CF93DF93CDB7DEB764970FB626
:103AE000F894DEBF0FBECDBF789484B5826084BDEC
:103AF00084B5816084BD85B5826085BD85B58160F2
:103B000085BD80916E00816080936E00109281006F
:103B1000809181008260809381008091810081602A
:103B200080938100809180008160809380008091EB
:103B300091008260809391008091910081608093D8
:103B40009100809190008160809390008091C100ED
:103B500084608093C1008091C10082608093C10025
:103B60008091C10081608093C1008091C300816019
:103B70008093C3008091C00082608093C0008091D8
:103B8000C20081608093C20080917A00846080933B
:103B90007A0080917A00826080937A0080917A0026
:103BA000816080937A0080917A00806880937A00A7
:103BB00010927C0110925401109253018091D70011
:103BC00081608093D70080EA8093D80089B58061B6
:103BD00089BD89B5826089BD09B400FEFDCF61E071
:103BE00070E080E090E00E9466198091D8008F7CA0
:103BF00080618093D8008091E000807F8093E00016
:103C00008091E1008E7E8093E1008DE08093E20060
:103C1000559A209AEEEFFFE7859194918B3F9C4D4A
:103C200019F481E08093520181EC80937C0085B18E
:103C3000806F85B984B1877E84B984B1876E84B979
:103C40005E9A5F988AB1806D8AB9769A6E9881B3D0
:103C5000806F81BB899880B38D7080BB80E58CBDFF
:103C600081E08DBD85E090E00E947D105F9A85E047
:103C700090E00E947D105E985C98E2EDF5E08DE0AA
:103C80008E0F94919EBD00000DB407FEFDCF3196BE
:103C90008E13F7CF5C9A81E8809364008091650071
:103CA0008160809365000E946C1C0E94821087FFD7
:103CB00024C05C9885EA8EBD00000DB407FEFDCFE0
:103CC0005C9A2E982F982D98809164008062809342
:103CD000640081E083BF889513BEFCCF2D980E94BD
:103CE00082108478843871F00E948210847184314B
:103CF00029F188EC90E00E947D100E94821082FDE4
:103D0000EDCF38C02D9A88EC90E00E947D102F985E
:103D100082E090E00E948D288F3F29F06FEF82E0D3
:103D200090E00E94952884EF91E00E947D102F9AE8
:103D30000E94821084788438D9F3D6CF2D9A88ECEB
:103D400090E00E947D102E9882E090E00E948D28E5
:103D5000882329F060E082E090E00E94952884EFBB
:103D600091E00E947D102E9A0E948210847184310D
:103D7000D9F3BFCF2D9A82E090E00E948D2888234E
:103D800031F03E9A3F9A81E08093550104C0109231
:103D900055013E983F980E94591C80E18093FB0595
:103DA0009E012F5F3F4F3F832E832B5F288B8FB762
:103DB000F8944091560150915701609158017091CB
:103DC00059018FBF8091FC05342F381B832F9091B0
:103DD000FD05992329F03093FE051092FD05C5C518
:103DE0009091FB05391748F48F5F891708F0BDC51E
:103DF00081E083BF889513BEB8C511E01093FD051F
:103E00004093FC058091F7059091F80501969093F9
:103E1000F8058093F7058091F9058093FA050E94D3
:103E200082108093F9050E94591C809166018230AE
:103E300009F485C008F04EC0882309F454C08130CD
:103E400009F0A4C21092DF051092E0051092E1057E
:103E50001092E2051092E3051092E4051092E50538
:103E60001092E60500E010E021E130E000938205C9
:103E700010938305209384053093850520E030E07E
:103E80004FE250E0209386053093870540938805E4
:103E90005093890580938A051092E70580E490E0AD
:103EA0009093E9058093E80580E890E09093EB0516
:103EB0008093EA0588E090E09093ED058093EC050F
:103EC00080E190E09093EF058093EE0582E080938F
:103ED000660135C0843009F4EEC008F494C0853022
:103EE00009F4ABC153C200E420E848EF50E160E0C0
:103EF00070E080E090E00E945A1BE12CF12C00E879
:103F000010E0D09062014D2DB70180E090E00E945A
:103F1000231BB7016F5F7F4F4D2DC8018D1991098C
:103F20000E94231B42E0E40EF11C50E4E516F1046C
:103F300041F7D7FC22C5D394D092620127C2809169
:103F4000DF059091E005A091E105B091E2058D01BA
:103F5000332717FD3095232F088719872A873B873A
:103F6000C0905A01D0905B01C00ED11E80905C01C0
:103F700090905D014090E3055090E4056090E50568
:103F80007090E6052301772457FC7094672C0E94FB
:103F9000BC13A0908405B12C109188050E940D14CB
:103FA0000E943213B2016A5F7F4FE12C00E026EFDE
:103FB0003AE046EF5DE0888599850E945B0F0E949C
:103FC0001F130E949711C5014196C816D9060CF01F
:103FD000DDC127E0C20ED11CAC14BD040CF0D6C16B
:103FE000480C591C812F90E09C01285F3F4F4216DE
:103FF00053060CF0CBC138E0430E511C84159505D7
:104000000CF0C4C1C1C410925F018CE38093000125
:1040100010926501109264011093630180E090E0BA
:10402000A0EEBFEF8093DF059093E005A093E1053C
:10403000B093E2058093E3059093E405A093E50532
:10404000B093E60520E030E048E350E0209382059D
:1040500030938305409384055093850580E090E07C
:10406000AFE2B0E08093860590938705A093880522
:10407000B093890510938A051093E70588E790E0CF
:104080009093E9058093E80580E191E09093EB053A
:104090008093EA058FE090E09093ED058093EC0526
:1040A00082E290E09093EF058093EE050E94BC13AE
:1040B00084E0809366018091F7059091F8056CE3A8
:1040C00070E00E941229892B71F4809100018823ED
:1040D00019F081508093000180910001811103C08B
:1040E00085E0809366010E940D1440918405209123
:1040F00088058091DF059091E005A091E105B091E0
:10410000E20560915A0170915B016A0F7B1F8091FB
:104110005C0190915D01C090E305D090E405E090D2
:10412000E505F090E605FB013796E738F105F0F478
:104130008E0D9F1D883FAFEF9A07C4F0873391051E
:10414000ACF450E0DA0151966A177B077CF44E1705
:104150005F0764F430E0A901485F5F4F841795075B
:104160002CF40896281739070CF441C40E94321326
:10417000E12C00E020EF39E042E75AE066E370E02E
:1041800080E090E00E945B0F88E090E09093000652
:104190008093FF0589E390E09093020680930106E7
:1041A0008091640190916501FE0131966AE070E0B2
:1041B0000E9412298193CB0118891E13F7CF8E011B
:1041C0000A5F1F4FD8014E918D0150E060E070E012
:1041D0002AE080EF95E00E94F818EE81FF810E172B
:1041E0001F0781F782E390E0909300068093FF051C
:1041F00089E390E09093020680930106809100018C
:104200002AE0622F0E940629192F0E940629492FB1
:1042100050E060E070E080EF95E00E94F818412FD8
:1042200050E060E070E02AE080EF95E00E94F8182E
:104230000E941F130E949711A9C0E0906001F090A6
:10424000610100E420E84FED55E060E070E0C70157
:104250000E945A1B20E84FED55E060E070E0C70176
:1042600080589F4F0E945A1B8091F70580FD11C016
:10427000F1E0EF1AF10800E8E0160FEFF0062CF07D
:10428000F0926101E092600104C01092610110920D
:104290006001E12CF12C00E110E020E0A801B70161
:1042A00084EF95E00E948A100F5F1F4F0F321105B7
:1042B000A1F71FEFE11AF10A20E8E216F10459F71D
:1042C00041E061E170E081E190E00E949D1C41E0ED
:1042D0006DE270E08DE290E00E949D1C40E060E3A2
:1042E00070E080E390E00E949D1C40E062E370E09B
:1042F00082E390E00E949D1C85E290E0909300068E
:104300008093FF0586E190E090930206809301067A
:1043100086EE99E00E947C1C8FE190E0909300066D
:104320008093FF0582E290E090930206809301065D
:104330008FED99E00E947C1C809164019091650151
:10434000FE0131966AE070E00E9412298193CB0150
:1043500018891E13F7CF8E010A5F1F4FD8014E91A7
:104360008D0150E060E070E02AE080EF95E00E946F
:10437000F818EE81FF810E171F0781F78091FA056B
:1043800082FD04C08091F90582FDFAC20E946C1C76
:10439000F0908C058F2D0F2C000C990BAA0BBB0BEA
:1043A000DC01992788274C015D01BB0C8808982CFB
:1043B00054019C01AD01682D782D882D982D00E1C8
:1043C0000E94FD29E22E032F142FB52FF62FE72F81
:1043D0006C01A0E00E94342A7CF421503109484F3E
:1043E0005F4F6F4F7F4F8F4F9F4FE22E032F142F42
:1043F000B52FF62FE72F6C012E2D302F412F5B2F7D
:104400006F2F7E2FC60103E10E94162A2887398765
:104410004A875B8780918B05082E000C990BAA0BAD
:10442000BB0BDC01992788274C015D01BB0C880878
:10443000982C54019C01AD01682D782D882D982D64
:1044400000E10E94FD29E22E032F142FB52FF62F35
:10445000E72F6C01A0E00E94342A7CF4215031093E
:10446000484F5F4F6F4F7F4F8F4F9F4FE22E032F6D
:10447000142FB52FF62FE72F6C012E2D302F412F43
:104480005B2F6F2F7E2FC60103E10E94162A490180
:104490005A01F7FE6CC0E091E705F0E0EE0FFF1F58
:1044A000EF5EFE4F20803180009184054091DF0552
:1044B0005091E0056091E1057091E205409086051C
:1044C000509087056090880570908905C090E3053D
:1044D000D090E405E090E505F090E605862D90E0AB
:1044E0008E199F099C0127703327232B09F093C253
:1044F00010E0061B170B980143E0369527954A9567
:10450000E1F73D872C8753E0969587955A95E1F71B
:1045100081502091EE053091EF05829F8001839FAD
:10452000100D1124F8013C85E30FF11DE20DF31D80
:1045300084910E94B3138111F8C08C858F5FF801BC
:10454000E80FF11DE20DF31D84910E94B313811158
:10455000ECC08C858E5FF801E80FF11DE20DF31DB4
:1045600084910E94B313882309F455C2DEC01F143E
:104570000CF0DBC0E091E705F0E0EE0FFF1FEF5E0F
:10458000FE4FC080D180009184058091DF0590911D
:10459000E005A091E105B091E2058C879D87AE878B
:1045A000BF8740918605509187056091880570917D
:1045B0008905AB01772757FD7095672FE42EF12C05
:1045C0008091E3059091E405A091E505B091E605A1
:1045D000EA1AFB0A98E0E90EF11C552766277727AF
:1045E0002AE08DE895E00E94F8186DE471E08DE80E
:1045F00095E00E94E3188091E3059091E405A09175
:10460000E505B091E6052D01BB0F6608770877FE3A
:1046100014C0E0918D05F0918E050190F081E02DA0
:104620006DE28DE895E0099544275527BA014419B4
:104630005509660977092AE003C02AE0B301A201FF
:104640008DE895E00E94F8186DE471E08DE895E042
:104650000E94E318A70160E070E02AE08DE895E091
:104660000E94F8186FE471E08DE895E00E94E3186D
:10467000C70187709927892B09F060C210E0AE85C9
:10468000BF850A1B1B0BB3E016950795BA95E1F79A
:10469000970113E0369527951A95E1F78091EE057D
:1046A0009091EF05289F7001299FF00C1124F701CC
:1046B000E00FF11DEC0DFD1D84910E94B3138111DB
:1046C00034C081E0800FF701E80FF11DEC0DFD1DF6
:1046D00084910E94B313811128C00E5FF701E00F8F
:1046E000F11DEC0DFD1D84910E94B313882309F484
:1046F00025C21BC0488459846A847B841CE1610EF6
:10470000711C4C185D086E087F0840928605509217
:10471000870560928805709289051092E3051092D2
:10472000E4051092E5051092E60580918B0587FF60
:104730007EC0E091E705F0E0EE0FFF1FEF5EFE4F59
:1047400020803180409082055090830560908405E0
:1047500070908505C090DF05D090E005E090E10500
:10476000F090E205062D10E0F801EE19FF098091A6
:10477000860590918705A0918805B09189054091A3
:10478000E3055091E4056091E5057091E6059F0110
:1047900027703327232B09F0CDC08D01332717FD58
:1047A0003095232F088719872A873B87802F90E031
:1047B000861B970BAC0133E0569547953A95E1F788
:1047C0002091EE053091EF058F0163E01695079576
:1047D0006A95E1F7015010E0429FF001439FF00D10
:1047E0001124E00FF11FE20DF31D84912B8B3C8B04
:1047F000498B5A8B0E94B3132B893C8949898111BB
:10480000B4C08885877009F495C081E0840F829FC9
:10481000F001839FF00D1124E00FF11FE20DF31D55
:1048200084910E94B313882309F484C09EC0181693
:104830000CF09BC0E091E705F0E0EE0FFF1FEF5E8C
:10484000FE4F20803180C0908205D0908305E0909B
:104850008405F09085054090DF055090E00560905C
:10486000E1057090E2050E2D10E006191709F80118
:1048700071968091860590918705A0918805B091E9
:1048800089054091E3055091E4056091E50570913B
:10489000E6059F01277033272730310509F08DC2C7
:1048A0008D01332717FD3095232F088719872A8715
:1048B0003B87802F90E0861B970BAC0103E0569559
:1048C00047950A95E1F72091EE053091EF058F01AC
:1048D00083E0169507958A95E1F70F5F10E0429FF8
:1048E000F001439FF00D1124E00FF11FE20DF31DC5
:1048F00084912B8B3C8B498B5A8B0E94B3132B8951
:104900003C894989811131C08885877009F455C275
:1049100081E0840F829FF001839FF00D1124E00F4E
:10492000F11FE20DF31D84910E94B313882309F453
:1049300044C21BC0F7FE13C24114510418E36106C0
:1049400071040CF0C3C1C814D904EA04FB040CF0D0
:10495000D9C1C818D908EA08FB08C092DF05D0926F
:10496000E005E092E105F092E20580E090E0892B1D
:1049700009F41DCA0E94000013CA80E880936201F6
:1049800081E08093660102CD809164008E7F8093E8
:10499000640080917A00806480937A0080917A002C
:1049A00086FDFCCF00917800109179000E9441199A
:1049B00020E030E0980111270027600F711F821F4F
:1049C000931F611571058105910511F00E948428DE
:1049D0008091640081608093640045EA50E066E263
:1049E00071E08BE092E00E94011B83E0CACF8091CE
:1049F0006401909165010296909365018093640132
:104A00000E94BC1342E550E065EA70E087E295E061
:104A10000E94011BABCBF7FE5DC0411451044CE179
:104A2000640671047CF488859985AA85BB85C816BF
:104A3000D906EA06FB060CF070CEC81AD90AEA0AB3
:104A4000FB0A73C0411451049CE16906710479F4B6
:104A5000088519852A853B85C016D106E206F3062E
:104A60000CF048CEC01AD10AE20AF30A5EC088856B
:104A70009985AA85BB85840D951DA61DB71D81301E
:104A800091052CE1A207B1050CF046C03CE1E30E14
:104A9000F11CC418D508E608F70888859985AA8509
:104AA000BB85C81AD90AEA0AFB0AC092E305D0926C
:104AB000E405E092E505F092E60500E010E02CE167
:104AC00030E0009386051093870520938805309386
:104AD00089052BCE88859985AA85BB85B095A0953B
:104AE000909581959F4FAF4FBF4F84159505A605B3
:104AF000B7054CF4288539854A855B85420E531EDF
:104B0000641E751E5CC01092860510928705109277
:104B100088051092890509CE8093860590938705B4
:104B2000A0938805B093890500CEC092E305D0928A
:104B3000E405E092E505F092E605F7CD40908605A4
:104B40005090870560908805709089054114510444
:104B50003CE163067104E4F14091E3055091E40502
:104B60006091E5057091E6058091E8059091E90571
:104B7000411451043CE16306710409F454C027E375
:104B800030E0D901A81BB90BCD01A0E0B0E0DC01F9
:104B900099278827088519852A853B85400E511E4F
:104BA000621E731E481759076A077B0709F07AC00F
:104BB0004114510416E2610671040CF07AC040926F
:104BC0008605509287056092880570928905ADCD63
:104BD00088859985AA85BB85840D951DA61DB71D61
:104BE0000097ECE1AE07B1050CF496CF80E090E0C1
:104BF000ACE1B0E084199509A609B70908851985C3
:104C00002A853B85801B910BA20BB30B8093E30598
:104C10009093E405A093E505B093E60520E030E02D
:104C20004CE150E04AC06A017B01088519852A855C
:104C30003B85C01AD10AE20AF30A27E330E0281BB9
:104C4000390B890120E030E09801112700270C156D
:104C50001D052E053F050CF468CFC797A0E0B0E016
:104C6000DC0199278827480F591F6A1F7B1F645E44
:104C70007F4F88859985AA85BB85480F591F6A1F74
:104C80007B1F40938605509387056093880570933A
:104C900089050093E3051093E4052093E50530931F
:104CA000E60543CD4114510438E4630671040CF465
:104CB00086CF20E030E046E250E020938605309336
:104CC000870540938805509389052FCD41145104E1
:104CD00028E362067104F9F4C814D904EA04FB0459
:104CE0000CF437CEB501A401685C7F4F4C195D0907
:104CF0006E097F0940938205509383056093840574
:104D0000709385051092DF051092E0051092E10581
:104D10001092E2052ACED301C201880D991DAA1D69
:104D2000BB1D8130910538E3A307B105A4F548E325
:104D3000E40EF11CC418D508E608F708C818D9080D
:104D4000EA08FB08C092DF05D092E005E092E10599
:104D5000F092E20580E090E0A8E3B0E01CC0882774
:104D60009927DC0188199909AA09BB0984159505B9
:104D7000A605B7053CF4B301A201480D591D6A1DF3
:104D80007B1D12C01092820510928305109284053B
:104D900010928505EACD8093820590938305A093B8
:104DA0008405B0938505E1CD40938205509383053A
:104DB0006093840570938505D8CDC114D10448E370
:104DC000E406F10424F5D701C601880D991DAA1D3A
:104DD000BB1D009718E3A107B105ECF280E090E05D
:104DE000A8E3B0E08C199D09AE09BF09881999099B
:104DF000AA09BB098093DF059093E005A093E10524
:104E0000B093E20520E030E048E350E082C08091BA
:104E1000EA059091EB05C114D10438E3E306F104EF
:104E200009F042C0B301A201481959096A097B0976
:104E300020E830E0281B390B890120E030E09801A0
:104E40001127002704171507260737074CF440934E
:104E5000DF055093E0056093E1057093E20585CD91
:104E600080589109A0E0B0E0DC0199278827AC01C7
:104E7000BD01440D551D661D771D685C7F4F480DB3
:104E8000591D6A1D7B1D40938205509383056093D5
:104E90008405709385050093DF051093E00520934A
:104EA000E1053093E20561CD20E830E08901081B7F
:104EB000190B20E030E0980111270027B701A60167
:104EC000480D591D6A1D7B1D40165106620673066A
:104ED000A1F4411551058FE6680771050CF464CF04
:104EE00000E010E02FE630E0009382051093830588
:104EF000209384053093850538CD4115510511E186
:104F0000610714E071070CF44FCF20E030E04FEE62
:104F100053E020938205309383054093840550939A
:104F2000850523CD0F931F93CF93DF938C0181E0F1
:104F300090E00E948D2880FF31C08AE090E00E94BE
:104F40008D289FEF980F9E3F48F522E330E0D8016F
:104F500050963C932E931F9728E330E052963C9353
:104F60002E935197CBE0D0E0D801ED91FC910190C8
:104F7000F081E02D682FC8010995CE010E948D288F
:104F80002196C131D10581F70E946C1C88EE93E017
:104F9000DF91CF911F910F910C947D10DF91CF91F4
:104FA0001F910F91089504970C949227EDE8F5E076
:104FB0001382128288EE93E0A0E0B0E084839583B0
:104FC000A683B7838BE291E0918380838FEF9FEF7D
:104FD00095878487E0EFF5E01382128211861286AE
:104FE00080E183871086178215868DE391E0918397
:104FF00080838BE491E095838483108A1786128ADC
:10500000118A81E0838B148A858B168A85EA9EE05B
:105010009093DE058093DD0580E090E89093200674
:1050200080931F0646983E9A47983F9AEFEDF5E029
:1050300010821182128213821482158216821782C4
:1050400088E790E09287818780E191E09487838769
:105050008FE090E09687858782E290E0908B87874B
:1050600008958F929F92AF92BF92CF92DF92EF926C
:10507000FF92CF93DF93EC01688179818A819B81D4
:10508000611571058105910521F464E279ED8BE5E7
:1050900097E02DE133EF41E050E00E94A328490161
:1050A0005A019B01AC01A7EAB1E40E94C2286B013E
:1050B0007C01ACEEB4EFA50194010E94D028DC0184
:1050C000CB018C0D9D1DAE1DBF1DB7FF03C0019709
:1050D000A109B04888839983AA83BB83BC01CD0111
:1050E0009F77DF91CF91FF90EF90DF90CF90BF90AF
:1050F000AF909F908F9008950E94312808958DE081
:1051000091E00E943128089560930D0170930E0183
:1051100080930F01909310010895F999FECF92BDED
:1051200081BDF89A992780B50895262FF999FECF69
:105130001FBA92BD81BD20BD0FB6F894FA9AF99AB4
:105140000FBE01960895052E97FB1EF400940E9451
:10515000BA2857FD07D00E94D52807FC03D04EF48B
:105160000C94BA2850954095309521953F4F4F4F5C
:105170005F4F089590958095709561957F4F8F4F03
:105180009F4F08950E94F728A59F900DB49F900D02
:10519000A49F800D911D11240895B7FF0C94C2287F
:1051A0000E94C228821B930B0895A1E21A2EAA1B0B
:1051B000BB1BFD010DC0AA1FBB1FEE1FFF1FA217C7
:1051C000B307E407F50720F0A21BB30BE40BF50BC4
:1051D000661F771F881F991F1A9469F7609570954D
:1051E000809590959B01AC01BD01CF010895A29FD0
:1051F000B001B39FC001A39F700D811D1124911DAB
:10520000B29F700D811D1124911D0895991B79E0A5
:1052100004C0991F961708F0961B881F7A95C9F746
:1052200080950895AA1BBB1B51E107C0AA1FBB1F95
:10523000A617B70710F0A61BB70B881F991F5A9522
:10524000A9F780959095BC01CD010895689401C09F
:10525000E894F92FF12B12F00C945A29A0E0B0E059
:10526000E4E3F9E20C94CC29092E059422F40E947F
:10527000B629112392F4F0E80F26FFEFE094F094A2
:1052800000951095B094C094D094A194BF0ACF0A11
:10529000DF0AEF0AFF0A0F0B1F0B0E94652907FCAC
:1052A0000E94B629CDB7DEB7ECE00C94E8296894EB
:1052B00001C0E8948F929F92CF93DF930E9465295B
:1052C000DF91CF919F908F90089588249924F401C5
:1052D000E401B0E49F93AA279A158B049C04ED0582
:1052E000FE05CF05D007A10798F4AD2FDC2FCF2FF7
:1052F000FE2FE92D982C892E982F872F762F652F3A
:10530000542F432F322F2227B85031F7BF9127C097
:105310001B2EBF91BB27220F331F441F551F661F33
:10532000771F881F991F881C991CEE1FFF1FCC1F19
:10533000DD1FAA1FBB1F8A149B04EC05FD05CE05CB
:10534000DF05A007B10748F08A189B08EC09FD09A2
:10535000CE09DF09A00BB10B21601A94E1F62EF4FF
:105360009401AF01BE01CD01000C089560957095C8
:105370008095909530954095509521953F4F4F4F92
:105380005F4F6F4F7F4F8F4F9F4F08952F923F92E8
:105390004F925F926F927F928F929F92AF92BF9245
:1053A000CF92DF92EF92FF920F931F93CF93DF93F1
:1053B000CDB7DEB7CA1BDB0B0FB6F894DEBF0FBE4E
:1053C000CDBF09942A88398848885F846E847D849B
:1053D0008C849B84AA84B984C884DF80EE80FD809D
:1053E0000C811B81AA81B981CE0FD11D0FB6F89413
:1053F000DEBF0FBECDBFED0108950F93083090F0D2
:10540000982F872F762F652F542F432F322F222747
:105410000850F4CF220F331F441F551F661F771FFC
:10542000881F991F0A95B2F70F91089597FB10F8FE
:10543000169400080F93083098F00850232F342F4B
:10544000452F562F672F782F892F902DF4CF059455
:1054500097958795779567955795479537952795AC
:105460000A95AAF70F9108950024A7FD00942A1722
:1054700030054005500560057005800590050895CC
:10548000EE0FFF1F0590F491E02D099481E090E06C
:0A549000F8940C944B2AF894FFCF17
:10549A003CFFFFFFFF00E1000000000000010000E8
:1054AA000052055403AC000C150015F8140106044B
:1054BA0000C18081000000000000008C15A019FBCB
:1054CA0015A215AD15FF151D1600000000A81061E4
:1054DA0015AA0EA90E9227FCFF0000D32720000D63
:0254EA000A00B6
:00000001FF
