:100000000C94BF0A0C94E70A0C94E70A0C94E70AD4
:100010000C94E70A0C94E70A0C94E70A0C94E70A9C
:100020000C94E70A0C94E70A0C94E4100C94561113
:100030000C94E70A0C94E70A0C94E70A0C94E70A7C
:100040000C94E70A0C94E70A0C94E70A0C94E70A6C
:100050000C94E70A0C94E70A0C94E70A0C94341405
:100060000C94E70A0C94E70A0C94E70A0C94E70A4C
:100070000C94E70A0C94E70A0C94E70A0C94E70A3C
:100080000C942C150C94E70A0C94E70A0C94E70ADC
:100090000C94E70A0C94E70A0C94E70A0C94E70A1C
:1000A0000C94E70A0C94E70A0C94E70AD5F08D1437
:1000B000A1C881CFD9F1AF2000F9F9F9F9F9F9F91F
:1000C000F90101010101010101F9F9F9F9F9F9F960
:1000D000F90101010101010101F9F9F9F9F9F9F950
:1000E000F90101010101010101F9F9F9F9F9F9F940
:1000F000F90101010101010101F9F9F9F9F9F9F930
:10010000F90101010101010101F9F9F9F9F9F9F91F
:10011000F90101010101010101F9F9F9F9F9F9F90F
:10012000F90101010101010101F9F9F9F9F9F9F9FF
:10013000F90101010101010101070707070707078D
:1001400007F8F8F8F8F8F8F8F807070707070707B7
:1001500007F8F8F8F8F8F8F8F807070707070707A7
:1001600007F8F8F8F8F8F8F8F80707070707070797
:1001700007F8F8F8F8F8F8F8F80707070707070787
:1001800007F8F8F8F8F8F8F8F80707070707070777
:1001900007F8F8F8F8F8F8F8F80707070707070767
:1001A00007F8F8F8F8F8F8F8F80707070707070757
:1001B00007F8F8F8F8F8F8F8F8F8F8F8F8F8F8F8B0
:1001C000F80707070707070707F8F8F8F8F8F8F837
:1001D000F80707070707070707F8F8F8F8F8F8F827
:1001E000F80707070707070707F8F8F8F8F8F8F817
:1001F000F80707070707070707F8F8F8F8F8F8F807
:10020000F80707070707070707F8F8F8F8F8F8F8F6
:10021000F80707070707070707F8F8F8F8F8F8F8E6
:10022000F80707070707070707F8F8F8F8F8F8F8D6
:10023000F80707070707070707070707070707075D
:1002400007F8F8F8F8F8F8F8F807070707070707B6
:1002500007F8F8F8F8F8F8F8F807070707070707A6
:1002600007F8F8F8F8F8F8F8F80707070707070796
:1002700007F8F8F8F8F8F8F8F80707070707070786
:1002800007F8F8F8F8F8F8F8F80707070707070776
:1002900007F8F8F8F8F8F8F8F80707070707070766
:1002A00007F8F8F8F8F8F8F8F80707070707070756
:1002B00007F8F8F8F8F8F8F8F8F8F8F8F8F8F8F8AF
:1002C000F80707070707070707F8F8F8F8F8F8F836
:1002D000F80707070707070707F8F8F8F8F8F8F826
:1002E000F80707070707070707F8F8F8F8F8F8F816
:1002F000F80707070707070707F8F8F8F8F8F8F806
:10030000F80707070707070707F8F8F8F8F8F8F8F5
:10031000F80707070707070707F8F8F8F8F8F8F8E5
:10032000F80707070707070707F8F8F8F8F8F8F8D5
:10033000F80707070707070707070707070707075C
:1003400007F8F8F8F8F8F8F8F807070707070707B5
:1003500007F8F8F8F8F8F8F8F807070707070707A5
:1003600007F8F8F8F8F8F8F8F80707070707070795
:1003700007F8F8F8F8F8F8F8F80707070707070785
:1003800007F8F8F8F8F8F8F8F80707070707070775
:1003900007F8F8F8F8F8F8F8F80707070707070765
:1003A00007F8F8F8F8F8F8F8F80707070707070755
:1003B00007F8F8F8F8F8F8F8F8F8F8F8F8F8F8F8AE
:1003C000F80707070707070707F8F8F8F8F8F8F835
:1003D000F80707070707070707F8F8F8F8F8F8F825
:1003E000F80707070707070707F8F8F8F8F8F8F815
:1003F000F80707070707070707F8F8F8F8F8F8F805
:10040000F80707070707070707F8F8F8F8F8F8F8F4
:10041000F80707070707070707F8F8F8F8F8F8F8E4
:10042000F80707070707070707F8F8F8F8F8F8F8D4
:10043000F8070707070707070787878787878787DB
:1004400087989898989898989887878787878787B4
:1004500087989898989898989887878787878787A4
:100460008798989898989898988787878787878794
:100470008798989898989898988787878787878784
:100480008798989898989898988787878787878774
:100490008798989898989898988787878787878764
:1004A0008798989898989898988787878787878754
:1004B00087989898989898989853434F52453A003F
:1004C00047414D45204F564552002400FFFFFFFF96
:1004D000FFFFFFFFFFFFFFFFFFFFFFFFFFFFFFFF2C
:1004E000FFFFFFFFFFFFFFFFFFFFFFFFFFFFFFFF1C
:1004F000FFFFFFFFFFFFFFFFFFFFFFFFFFFFFFFF0C
:10050000FFFFFFFFFFFFFFFFFFFFFFFFFFFFFFFFFB
:10051000FFFFFFFFFFFFFFFFFFFFFFFFFFFFFFFFEB
:10052000FFFFFFFFFFFFFFFFFFFFFFFFFFFFFFFFDB
:10053000FFFFFFFFFFFFFFFFFFFFFFFFFFFFFFFFCB
:10054000FFFFFFFFFFFFFFFFFFFFFFFF01010101B3
:10055000010101010101010101010101010101018B
:10056000010101010101010101010101010101017B
:10057000010101010101010101010101010101016B
:10058000010101010101010101010101010101015B
:10059000010101010101010101010101010101014B
:1005A000010101010101010101010101010101013B
:1005B000010101010101010101010101010101012B
:1005C0000101010101010101010101018009FE0197
:1005D000010101010101010101010101010101010B
:1005E00001010101010101010101010101010101FB
:1005F0000101010101FE01010101010101010101EE
:1006000001010101010101010101010101FE000DD2
:100610009F2D970D9F2D970D9F2D970D9F2D970D1A
:100620009F2D970D9F2D970D9F2D970D9F2D970D0A
:100630009F2D970D9F2D970D9F2D970D9F2D970DFA
:100640009F2D970D9F2D970D9F2D970D9F2D01008D
:10065000000000000000000000000000000000009A
:10066000000000000000000000000000000000008A
:100670000000000000010000000000000000000079
:100680000000000000000000000000000001000168
:10069000010101010101010101010101010101014A
:1006A000010101010101010101010101010101013A
:1006B000010101010101010101010101010101012A
:1006C00001010101010101010101010101010D9F70
:1006D0002D970D9F2D970000000000000000404066
:1006E00040404040404016051204140215064040A8
:1006F0004F09ED094F4005020502050205020709F1
:10070000070F0709070F003844829AA244380002F5
:10071000070E070200000002070E0702000000009B
:1007200000020702000000000002070200000000B3
:100730001104000002040200000000000204020094
:1007400000000000000002000000000000000200A5
:100750000000000000000002070E07020000000277
:10076000070E070200000000000207020000000060
:100770000002070200001104000000000204020051
:10078000000000000204020000000000000002005F
:100790000000000000000200000070F8FEFFFFFFF4
:1007A000FFFFFFFEFEFFFFFFFAF06060F0FAFFFFC1
:1007B000FFFEFEFFFFFFFFFFFFFEF8701108007055
:1007C000186E1E5E1272767C186A1E5A1060000047
:1007D00060105A1E6A187C7672125E1E6E187000C7
:1007E000087CFE7FFE6702087CFE7FFE6E04070821
:1007F0000008641E6402000008641E640400808017
:1008000080808080808080808080808080808080E8
:1008100080808080808080808080808080800000D8
:1008200000000000000000000000000000000000C8
:1008300000000000000000000000000000000000B8
:1008400000000000000000000000000000000000A8
:100850000000000000000000000000000080808018
:100860008080808080808080808080808080808088
:1008700080808080808080808080808080803E3EFC
:10088000C0C0C0C0C03E3E3E3E3EC0C0C0C0C03E74
:100890003E3E3E3EC0C0C0C0C03E3E3E3E3E00006A
:1008A00000387EFEFFE78787070E000000FFFFFF8E
:1008B000FF8787C7FFFFFE7C0000F0FFFF1FFFFFE1
:1008C000F0800000E0F8FCFE1E0F0707070F000095
:1008D000FFFFFFFF8787878787870000003E3E3E38
:1008E0003E3EC0C0C0C0C03E3E3E3E3EC0C0C0C096
:1008F000C03E3E3E3E3EC0C0C0C0C03E3E3EF8F898
:100900000707070707F8F8F8F8F80707070707F8D1
:10091000F8F8F8F80707070707F8F8F8F8F80000FC
:1009200000E0E0C0C1C3E7FFFF7E3C0000FFFFFF27
:10093000FF03030303010180F8FFFF7F3B383B7F88
:10094000FFFFF8800F3F7FFFF0E0C0C0C0E0000075
:10095000FFFFFFFFC3C3C3C3C3C3000000F8F8F821
:10096000F8F80707070707F8F8F8F8F80707070780
:1009700007F8F8F8F8F80707070707F8F8F8020289
:100980000202020202020202020202020202020247
:1009900002020202020202020202020282428050AB
:1009A0000850095129112911289040A050A951A996
:1009B00081C0C0C0C0C0000911A911C0D0C0D0C042
:1009C00011A9110900C0D0C8D1C9D1C9D18910005D
:1009D0000109112951A9518951095000400202020F
:1009E00002020202020202020202020202020202E7
:1009F00002020202020202020202020202020000DB
:100A000000000000000000000000000000000000E6
:100A100000000000000000000000000102010201CF
:100A2000020102010000000001020102F97E7FFFC5
:100A3000070301010103000000C07CFFFF07FFFF67
:100A40007CE0000000FF7F7FFFE1F17FFF9F8F00D0
:100A50000102000000000102010201020102010284
:100A60000102000000000000000000000000000083
:100A70000000000000000000000000000000000076
:100A80000000000000000000000000000000000066
:100A90000000000000000000000000000000000056
:100AA000000000000000000000000000030D1937E6
:100AB0006C585050507800605E4361130A0A0A1364
:100AC00061435E60007F41415F5050594721390FBB
:100AD0000000000000000000808080808000000096
:100AE0000000000000000000000000000000000006
:100AF00000000000000000000000000000002020B6
:100B000020202020202020202020202020202020E5
:100B100020202020202020202020202020202020D5
:100B200020202020202020202020202020202020C5
:100B300020202020202020202020202020202020B5
:100B400020202020202020202020202020202020A5
:100B50002020202020202020270476042720202069
:100B60002020202020202020202020202020202085
:100B700020202020202020202020202020200D9F09
:100B80002D970D9F2D970D9F2D970D9F2D970D9FA5
:100B90002D970D9F2D970D9F2D970D9F2D970D9F95
:100BA0002D970D9F2D970D9F2D970D9F2D970D9F85
:100BB0002D970D9F2D970D9F2D970D9F2D970D9F75
:100BC0002D970D9F2D970D9F2D970D9F2D970D9F65
:100BD0002D970D9F2D970D9F2D970D9F2D970D9F55
:100BE0002D970D9F2D970D9F2D970D9F2D970D9F45
:100BF0002D970D9F2D970D9F2D970D9F2D970000E1
:100C000000000000000000000000000000000000E4
:100C100000000000000000000000000000000000D4
:100C200000000000000000000000000000000000C4
:100C300000000000000000000000000000000000B4
:100C400000000000000000000000000000000000A4
:100C50000000000000000000000000000000000094
:100C60000000000000000000000000000000000084
:100C70000000000000000000000000000000000074
:100C80000000000000000000000000000000000064
:100C90000000000000000000000000000000000054
:100CA00000000000000000000000000000808080C4
:100CB00080808000000000808080808080808000B4
:100CC0000000000000000000000000000000000024
:100CD0000000000000000000000000000000000014
:100CE0000000000000000000000000000000000004
:100CF00000000000000000000000000000000000F4
:100D000000000000000000000000000000000000E3
:100D100000000000000000000000000000000000D3
:100D200000000000000000000000020A2AA8A38FB3
:100D30003FFFFFFEF08000FFFFFFFFFFFFFF070008
:100D4000000000000080808080C0C00080000000A3
:100D50000000000000000000000000000000000093
:100D60000000000000000000000000000000000083
:100D70000000000000000000000000000000000073
:100D80000000000000000000000000000000000063
:100D90000000000000000000000000000000000053
:100DA0000000000000000000000000000000020A37
:100DB0000A28A3871F7FFCFFFFFFFFFF7F01F0F8DA
:100DC000FCFE06A30B07073F0F23080200000000EC
:100DD0000000000000000000000000000000000013
:100DE0000000000000000000000000000000000003
:100DF00000000000000000000000000000000000F3
:100E000000000000000000000000000000000000E2
:100E100000000000000000000000000000000000D2
:100E200000000000000000000000000000000000C2
:100E3000000000020A28A1871F7FFF1F0080F1F336
:100E4000F3636322B21E20280000000000000000AF
:100E50000000000000000000000000000000000092
:100E60000000000000000000000000000000000082
:100E70000000000000000000000000000000000072
:100E80000000000000000000000000000000000062
:100E90000000000000000000000000000000000052
:100EA0000000000000000000000000000000000042
:100EB00000080808C808884A8A48480888498908F4
:100EC000CA480948C8480808080000000000000097
:100ED0000000000000000000000000000000000012
:100EE0000000000000000000000000000000000002
:100EF00000000000000000000000000000000000F2
:100F000000000000000000000000000000000000E1
:100F100000000000000000000000000000000000D1
:100F200000000000000000000000000000000000C1
:100F300000000000000300000203030001020100A2
:100F4000030100000300000000000000000000009A
:100F50000000000000000000000000000000000091
:100F60000000000000000000000000000000000081
:100F70000000000000000000000000000000000071
:100F80000000000000000000000000000000000061
:100F90000000000000000000000000000000000051
:100FA0000000000000000000000000000000000041
:100FB0000000000000000000000000000000000031
:100FC0000000000000000000000000000000000021
:100FD0000000000000000000000000000000000011
:100FE0000000000000000000000000000000000001
:100FF0000000000000000000000000000000080BDE
:1010000000020202010009040000010202000005C2
:101010002400100105240101010424020605240610
:1010200000010705810310004009040100020A00C5
:10103000000007050202400000070583024000008F
:101040000403090412010002EF020140412336802B
:1010500000010102030141726475696E6F204C4CFE
:10106000430041726475696E6F204C656F6E6172EA
:10107000646F00010204081020408000000000009E
:101080003E5B4F5B3E3E6B4F6B3E1C3E7C3E1C18F6
:101090003C7E3C181C577D571C1C5E7F5E1C001854
:1010A0003C1800FFE7C3E7FF0018241800FFE7DB48
:1010B000E7FF30483A060E2629792926407F0505A4
:1010C00007407F05253F5A3CE73C5A7F3E1C1C08E1
:1010D000081C1C3E7F14227F22145F5F005F5F06A6
:1010E000097F017F006689956A606060606094A2F4
:1010F000FFA29408047E040810207E201008082A0D
:101100001C08081C2A08081E101010100C1E0C1EAB
:101110000C30383E3830060E3E0E0600000000004F
:1011200000005F00000007000700147F147F1424F4
:101130002A7F2A1223130864623649562050000879
:10114000070300001C2241000041221C002A1C7FD2
:101150001C2A08083E0808008070300008080808AB
:1011600008000060600020100804023E5149453E1E
:1011700000427F400072494949462141494D331898
:1011800014127F1027454545393C4A4949314121D0
:101190001109073649494936464949291E000014B4
:1011A00000000040340000000814224114141414FC
:1011B00014004122140802015909063E415D594EAE
:1011C0007C1211127C7F494949363E414141227FC0
:1011D0004141413E7F494949417F090909013E4159
:1011E0004151737F0808087F00417F410020404142
:1011F0003F017F081422417F404040407F021C0293
:101200007F7F0408107F3E4141413E7F0909090666
:101210003E4151215E7F0919294626494949320339
:10122000017F01033F4040403F1F2040201F3F40BF
:1012300038403F6314081463030478040361594978
:101240004D43007F414141020408102000414141CB
:101250007F040201020440404040400003070800B0
:1012600020545478407F2844443838444444283833
:101270004444287F385454541800087E090218A4A6
:10128000A49C787F0804047800447D4000204040FE
:101290003D007F1028440000417F40007C0478041A
:1012A000787C080404783844444438FC1824241812
:1012B00018242418FC7C08040408485454542404BA
:1012C000043F44243C4040207C1C2040201C3C40E7
:1012D00030403C44281028444C9090907C44645406
:1012E0004C440008364100000077000000413608F9
:1012F0000002010204023C2623263C1EA1A1611229
:101300003A4040207A385454555921555579412155
:1013100054547841215554784020545579400C1E3E
:1013200052721239555555593954545459395554E6
:1013300054580000457C410002457D420001457C37
:1013400040F0292429F0F0282528F07C5455450048
:101350002054547C547C0A097F493249494932322D
:1013600048484832324A4848303A4141217A3A4264
:10137000402078009DA0A07D39444444393D404040
:10138000403D3C24FF2424487E4943662B2FFC2FFC
:101390002BFF0929F620C0887E0903205454794187
:1013A0000000447D413048484A32384040227A00AB
:1013B0007A0A0A727D0D19317D2629292F282629BE
:1013C00029292630484D4020380808080808080810
:1013D00008382F10C8ACBA2F102834FA00007B0050
:1013E0000008142A142222142A14089500220095B9
:1013F000AA005500AAAA55AA55AA000000FF00108D
:101400001010FF00141414FF001010FF00FF101044
:10141000F010F0141414FC001414F700FF0000FF87
:1014200000FF1414F404FC141417101F10101F10E4
:101430001F1414141F00101010F0000000001F10E3
:101440001010101F10101010F010000000FF1010EE
:1014500010101010101010FF10000000FF140000FA
:10146000FF00FF00001F10170000FC04F414141705
:1014700010171414F404F40000FF00F714141414EB
:10148000141414F700F7141414171410101F101F5D
:10149000141414F4141010F010F000001F101F00AA
:1014A00000001F14000000FC140000F010F01010E9
:1014B000FF10FF141414FF141010101F0000000080
:1014C000F010FFFFFFFFFFF0F0F0F0F0FFFFFF0074
:1014D00000000000FFFF0F0F0F0F0F384444384487
:1014E0007C2A2A3E147E02020606027E027E0263E7
:1014F000554941633844443C04407E201E20060286
:101500007E020299A5E7A5991C2A492A1C4C720162
:10151000724C304A4D4D303048784830BC625A46A3
:101520003D3E494949007E0101017E2A2A2A2A2A94
:1015300044445F444440514A444040444A5140007E
:1015400000FF0103E080FF000008086B6B08361203
:10155000362436060F090F06000018180000001088
:1015600010003040FF0101001F01011E00191D176E
:1015700012003C3C3C3C0000000000007F1C112499
:101580001FBECFEFDAE0DEBFCDBF12E0A0E0B1E0DA
:10159000E4EFFBE302C005900D92A236B107D9F744
:1015A00027E0A2E6B2E001C01D92A031B207E1F748
:1015B0001AE0CFEBDAE004C02197FE010E94ED1D96
:1015C000CE3BD107C9F70E94A6160C94F81D0C94C7
:1015D00000004F925F926F927F928F929F92AF9294
:1015E000BF92CF92DF92EF92FF920F931F93CF9310
:1015F000DF9300D000D0CDB7DEB7DC014115510537
:1016000009F4F3C0FA01B490319694914E5F5F4FA4
:10161000CB2CD12C211102C0EE2039F1E92FE69517
:10162000E695E6958E2E912CE1E0F0E0892F87700B
:1016300011F4E0E0F0E0E80DF91DCE9E4001CF9EF0
:10164000900CDE9E900C11240115110539F0E89CD8
:10165000F001E99CF00D11240E0F1F1F289DF001D1
:10166000299DF00D11244E0F5F1FFD01EC0DFD1D96
:101670001E161F060CF0B9C0A038B1050CF0B5C09D
:101680009B01290F311D121613060CF0AEC06034F9
:1016900071050CF0AAC04115510509F4A6C0262F0A
:1016A0002770522E7B0177FF03C037E0E30EF11C59
:1016B00083E0F594E7948A95E1F78E2D77FF04C0D7
:1016C000552011F08FEF8E0DB7FF05C066277727E5
:1016D0006A1B7B0B02C060E070E0E038F10524F08B
:1016E00020E82A1B422E01C04B2C461AE82E082E59
:1016F000000CFF088F3F1CF4FE2DF09501C0F0E0B8
:10170000E1E0292F277009F4E0E0969596959695EB
:101710009E0FE90EF11C39E0E316F10414F098E095
:10172000981B9F2E980E292D30E82303A00DB11D84
:101730001124A60FB71F7B01FB9DE00CF11C1124A7
:101740004E0D5F1D61E070E0052C02C0660F771F33
:101750000A94E2F70E0D1F1D882E890E981409F4C5
:1017600044C0CD0187589D4F5C01E12CF12CE4145D
:10177000A0F5F801EE0DFF1DE491E69FC001E79F83
:10178000900D1124809590959C838B83FA01EE0D2A
:10179000FF1DE491E69F3001E79F700C11247A82CF
:1017A000698297FC05C0F50190818923682A6082CF
:1017B000552061F0F6E0F9154CF0F501E058FF4FC7
:1017C00090818C8189239A81892B80832FEFE21A63
:1017D000F20A3FEFA31AB30ACACF93944C0D5D1DD2
:1017E0000C0D1D1DA058BF4FB9CF0F900F900F903B
:1017F0000F90DF91CF911F910F91FF90EF90DF90AD
:10180000CF90BF90AF909F908F907F906F905F90A0
:101810004F9008952F923F924F925F926F927F92D6
:101820008F929F92AF92BF92CF92DF92EF92FF92F0
:101830000F931F93CF93DF93CDB7DEB728970FB6E3
:10184000F894DEBF0FBECDBF5A01822E912C9C01B1
:10185000280D391D37FDC4C0803891050CF0C0C07B
:101860009B01200F311D37FDBBC0603471050CF0AA
:10187000B7C0AB0177FF04C044275527461B570B61
:10188000477055279B0177FF02C0295F3F4FE3E078
:1018900035952795EA95E1F777FF08C02150310982
:1018A00068E070E0DB01A41BB50BAD01602F66950D
:1018B0006695669570E0077011F06F5F7F4FDB01F2
:1018C000A20FB31FBA83A98339017694762C6624BC
:1018D00077946794680E791EE12CF12C00E010E0FB
:1018E0002301B0E84B0E511C68E070E0DB01A41B43
:1018F000B50BBC83AB8369817A812617370709F45E
:101900006FC02830310509F46BC02F3FBFEF3B0794
:101910000CF45BC0B201600F711FDB01A758BD4F13
:10192000BE83AD83D801A60DB71DA758BD4F6C016E
:1019300060E070E0681579050CF047C0E0E8CE166D
:10194000D10409F442C0D7FC34C02F3FFFEF3F075A
:1019500009F442C0FB01EE0DFF1DEA0DFB1DE491F1
:10196000042E01C0EE0F0A94EAF73C90E329EC93B1
:1019700041155105F1F027303105D9F0FB01EE0D8D
:10198000FF1DEA0DFB1DE4912E2E312CF1010B8081
:1019900002C0F595E7950A94E2F7F887EF83ED81A9
:1019A000FE813080EF81F885E3291F01ED81FE8102
:1019B00020826F5F7F4FED81FE813196FE83ED8344
:1019C000FFEFCF1ADF0A1196B5CF2F5F3F4F0058B8
:1019D0001F4FE80CF91C8FCF4115510579F6E9CF5F
:1019E00028960FB6F894DEBF0FBECDBFDF91CF9122
:1019F0001F910F91FF90EF90DF90CF90BF90AF902D
:101A00009F908F907F906F905F904F903F902F901E
:101A100008959C01240F311D1216130684F5803899
:101A200091056CF5FC0197FF02C0E0E0F0E0213881
:101A3000310514F020E830E02E1BAB01477055272C
:101A400081E090E001C0880F4A95EAF7809577FF22
:101A500002C0695F7F4F93E0759567959A95E1F7AE
:101A60007695762F662777956795E60FF71FE758E7
:101A7000FD4F215020F0908198239193FACF089543
:101A80009C01E1E7F0E090819D7F908310927802C5
:101A9000EEEEF6E0F0937702E0937602F0937502B3
:101AA000E09374023183208382E390E09383828306
:101AB0007583648397838683518740879387828762
:101AC0000C947E148F929F92AF92BF920F931F93AC
:101AD000CF93DF93CDB7DEB7A1970FB6F894DEBFF3
:101AE0000FBECDBF19A2423008F44AE08E010F5D4F
:101AF0001F4F842E912CA12CB12CA50194010E9482
:101B0000A81DE62FB901CA0101501109EA3014F4E9
:101B1000E05D01C0E95CD801EC93232B242B252B3D
:101B200061F70115110571F0F80101900020E9F746
:101B30003197AF01401B510BB8018BE796E00E9433
:101B4000861302C080E090E0A1960FB6F894DEBF45
:101B50000FBECDBFDF91CF911F910F91BF90AF907E
:101B60009F908F9008950F931F93CF93DF938C01D5
:101B7000C0E0D0E0F801EC0FFD1F6491662371F026
:101B8000E0917B06F0917C060190F081E02D8BE7DF
:101B900096E00995892B11F02196ECCFCE01DF91CB
:101BA000CF911F910F9108954F925F926F927F9204
:101BB0008F929F92AF92BF92CF92DF92EF92FF925D
:101BC0000F931F93CF93DF93EC018B01442ECB0136
:101BD0008C1B9D0B97FF03C091958195910955240E
:101BE0005394813891053CF4512CC80100E810E071
:101BF000E12CF12C0FC00C171D0734F07E0180E89A
:101C000090E0C0E0D0E006C078018E0180E090E076
:101C1000C0E8D0E038016E187F085C01AC1ABD0A3C
:101C2000B7FE03C0B194A194B108630177FE03C06D
:101C30002FEFC21AD20AD594C794C817D90714F047
:101C40008FEF01C081E0882E880F99080E151F05BF
:101C5000C4F0242D552019F0A701BE0102C0AE0129
:101C6000B7018FE796E00E949915CA18DB08D7FEE6
:101C700004C0C80DD91DC60CD71C8FEFE81AF80A8E
:101C8000E5CFDF91CF911F910F91FF90EF90DF9003
:101C9000CF90BF90AF909F908F907F906F905F900C
:101CA0004F900895EF92FF920F931F93CF93DF937E
:101CB000CDB7DEB72C970FB6F894DEBF0FBECDBF01
:101CC00049835A836B837C839E83EF82F8860987DE
:101CD0001A872B873C87E981FA816B817C814F8150
:101CE000588529853A85DF01A80FB11D4A175B0782
:101CF000A4F48B85480F511DE417F50774F48E8109
:101D0000AB01480F511D241735073CF48C85280F73
:101D1000311D81E0621773070CF080E02C960FB63E
:101D2000F894DEBF0FBECDBFDF91CF911F910F9111
:101D3000FF90EF90089580E0E9E7F2E081118FEFE6
:101D4000002481938193819381930394D1F7EBE7EE
:101D5000F6E0128A118A108A17860895E9E7F2E000
:101D600080E0A0E0B8E000800EBC8111012C11974A
:101D7000A0FDFDCF0192B9F70DB40895FC0180914B
:101D80007302811103C08FEF9FEF08959FB7F894FE
:101D900082E08093E9002091F20030E012161306F1
:101DA00014F421E030E02115310559F0289884E63B
:101DB000809372028091F10080838091F2008823E9
:101DC00019F09FBFC90108958BE68093E800F9CF11
:101DD0002FB7F89483E08093E9009091E800892F71
:101DE000807295FF04C09091F20080E4891B2FBFA0
:101DF00008958F929F92AF92BF92CF92DF92EF920F
:101E0000FF920F931F93CF93DF935C016B017A01D5
:101E100080910D01882309F45BC0809173028823AF
:101E200009F456C08091710280FF05C08091E000E6
:101E300082608093E000E70110E00AEF83E0882EE3
:101E40009AE3992E2097D9F10E94E80E81110AC0D9
:101E5000015009F43DC061E070E080E090E00E9434
:101E6000FA13F0CF282F30E0C217D3070CF48C2FD1
:101E70004FB7F8948092E9009091E80095FF1DC05B
:101E8000282F30E0C21BD30BF601982F915020F081
:101E900081918093F100FACFC20ED31E112319F065
:101EA0009092E80009C08091E80085FD06C09092FC
:101EB000E80011E0209709F010E04FBFC3CF1111E7
:101EC000C3CF5D9884E6809370021E141F0444F013
:101ED00081E090E0F5019383828380E090E001C08F
:101EE000C701DF91CF911F910F91FF90EF90DF908D
:101EF000CF90BF90AF909F908F900895809196065D
:101F000081110DC082E08093920684E08093930655
:101F1000109295061092940681E08093960682E9CD
:101F200096E00895CF93DF931F92CDB7DEB7698314
:101F3000DC01ED91FC910280F381E02D41E050E065
:101F4000BE016F5F7F4F09950F90DF91CF9108958C
:101F500083E08093E9008091F200882319F08AE3FE
:101F60008093E8000895FC018485958597FD0BC05A
:101F70009FB7F89482E08093E9008091F2009FBFC0
:101F800090E0019608959FB7F89482E08093E9006D
:101F90008091F2009FBF90E008954091000750911A
:101FA00001072091FE063091FF0642175307B4F453
:101FB0009091E8009570E1F39091E80092FD19C0CE
:101FC0008093F100809100079091010701968F7333
:101FD0009927892B19F48EEF8093E80080910007F0
:101FE000909101070196909301078093000781E08B
:101FF000089580E00895CF92DF92EF92FF920F93C1
:102000001F93CF93DF931F92CDB7DEB7182F062F04
:10201000E42E862F880F8E5F99830E94CD0F83E078
:102020000E94CD0FF12EC12E9981D92E8C2D8F19A2
:10203000801798F4F601E7FE02C0849101C0808108
:102040000E94CD0F182F80E00E94CD0F8123FFEF5B
:10205000CF1ADF0A8111EACF01C081E00F90DF9132
:10206000CF911F910F91FF90EF90DF90CF90089547
:10207000DF92EF92FF920F931F93CF93DF93D82EAF
:102080008A017B01E40EF51EEB01CE15DF0571F030
:10209000D7FE03C0FE01849101C088810E94CD0F4C
:1020A00021968111F2CF8FEF9FEF01C0C801DF9120
:1020B000CF911F910F91FF90EF90DF9008956150A5
:1020C00030F02091F100FC0120830196F8CF289890
:1020D00084E68093720208950E94E80E90E00895CD
:1020E0000F931F93CF93DF931F92CDB7DEB78C0171
:1020F000FC018485958597FF0EC0CE0101960E9454
:10210000BE0E019719F4298130E002C02FEF3FEF96
:10211000F80135872487F801848595850F90DF9134
:10212000CF911F910F910895CF93DF931F92CDB759
:10213000DEB7FC018485958597FD05C02FEF3FEF45
:10214000358724870BC0CE0101960E94BE0E0197F1
:1021500019F4898190E002C08FEF9FEF0F90DF911B
:10216000CF9108950F931F93CF93DF931F92CDB715
:10217000DEB782E0898342E450E06EEF7FE080E8E2
:102180000E9438100E947E0FDC0112960D911C9166
:1021900013970115110569F0D801ED91FC910280AA
:1021A000F381E02DBE016F5F7F4FC801099597FF56
:1021B00007C089810F90DF91CF911F910F910895F2
:1021C000F80100851185E5CF1F920F920FB60F928F
:1021D00011248F939F938091E1009091E100937F70
:1021E0009093E10083FF0FC01092E90091E090937B
:1021F000EB001092EC0092E39093ED0010927302CA
:1022000098E09093F00082FF20C093E09093E90063
:102210009091F200992319F09AE39093E80090913D
:102220007002992339F0909170029150909370024E
:10223000992389F190917202992339F09091720259
:10224000915090937202992341F184FF10C08091C4
:10225000E2008E7E81608093E2008091E1008F7EBB
:102260008093E100809171028E7E806111C080FFB9
:1022700016C08091E2008E7E80618093E2008091A2
:10228000E1008E7E8093E100809171028E7E8160FC
:102290008093710204C05D9ACDCF289AD6CF9F91CA
:1022A0008F910F900FBE0F901F9018951F920F9255
:1022B0000FB60F921124CF92DF92EF92FF920F93FD
:1022C0001F932F933F934F935F936F937F938F93BE
:1022D0009F93AF93BF93EF93FF93CF93DF93CDB7CC
:1022E000DEB76C97DEBFCDBF1092E9008091E800A9
:1022F00083FFEDC168E0CE0145960E945F1082EF3A
:102300008093E8008D8987FF05C09091E80090FFD9
:10231000FCCF03C09EEF9093E800982F907609F0D1
:10232000C6C09E892F89188D91110CC0803829F460
:102330008091FD068093F10002C01092F10010928E
:10234000F10048C1422F50E0512B913051F48111DE
:1023500041C14130510509F03DC18091FD068D7F9D
:102360000BC0933061F4811135C14130510509F042
:1023700031C18091FD0682608093FD062BC19530AE
:1023800041F48091E80080FFFCCF20682093E300B7
:1023900021C1963009F05FC0EB8CFC8C1092E900F3
:1023A0001092010710920007123091F51092FF066B
:1023B0001092FE060E94B21099E0BE016F5F7F4F3F
:1023C000DB01E92F1D92EA95E9F799831A8391E0E1
:1023D0009E8390EA98879AEF998720910007309121
:1023E0000107275F3F4F3C832B838D831092E900C9
:1023F0001092010710920007F092FF06E092FE068D
:1024000049E050E080E00E9438100E94B210E2C023
:10241000F092FF06E092FE060E947E0FDC0112960B
:10242000ED90FC901397E114F10409F4C0C0D701BA
:10243000ED91FC910480F581E02DBE016B5E7F4F34
:10244000C7010995009719F00CF0C4C0C7C0F70187
:10245000E084F184E8CF973009F4C0C0983021F4CB
:1024600081E08093F100B6C0993009F0B3C0837069
:1024700009F0B4C0EBE5F2E081E021E036E39081C1
:10248000992361F08093E9002093EB009191909360
:10249000EC003093ED008F5F873089F78EE78093F3
:1024A000EA001092EA008F898093730293C08B8DAB
:1024B0009C8D1092E90010920107109200079093F2
:1024C000FF068093FE06898D811156C08E899D89F5
:1024D000913A59F4813209F081C047E050E066E05A
:1024E00071E080E00E94381075C0913209F076C02A
:1024F000833289F4888D90E0982F88272F89822B4A
:10250000A0E0B0E080930E0190930F01A093100122
:10251000B09311015FC0803269F48091E80082FFBE
:10252000FCCF67E086E091E00E945F108BEF809324
:10253000E80006C0823209F04DC08F8980930D01FA
:102540008091FC06882319F0EEEFFAE002C0E0E08B
:10255000F8E08091060190910701A0910801B091E7
:102560000901803B9440A105B10509F07BC0809131
:102570000D0180FF93C076C00E947E0FDC01129691
:102580000D911C9113970115110541F1D801ED91A1
:10259000FC910190F081E02DBE016B5E7F4FC80180
:1025A0000995811117C0F80100851185ECCF113014
:1025B00009F44EC0133091F48F89882309F445C083
:1025C000823081F440E860E182E690E10E94FB0FF6
:1025D000882321F08EEF8093E80079C081E2809318
:1025E000EB0075C0813029F440E86BE086E590E1AE
:1025F000EDCF833099F70E947E0FDC011296ED90AB
:10260000FC9013978E010F5F1F4F6801E114F104D6
:1026100079F0D701ED91FC910680F781E02DB801AA
:10262000C7010995080F111DF701E084F184EECF71
:10263000D8011C92F60101900020E9F73197BF0103
:102640006C197D0940E0C601C1CF60E470E102C0B1
:1026500064E470E16115710509F2FB01449150E0F9
:1026600080E840CF0FB6F894A8958091600088610B
:1026700080936000109260000FBEA895EE3F2AE0A4
:10268000F20739F08091FE0A9091FF0A91838083CE
:10269000A1CF1092FF0A1092FE0A9CCFEE3F8AE073
:1026A000F80731F0808191819093FF0A8093FE0AB0
:1026B00087E797E7918380839BE088E10FB6F894E2
:1026C000A895809360000FBE9093600083CF6C96B6
:1026D0000FB6F894DEBF0FBECDBFDF91CF91FF9153
:1026E000EF91BF91AF919F918F917F916F915F918A
:1026F0004F913F912F911F910F91FF90EF90DF909D
:10270000CF900F900FBE0F901F901895CF92DF9231
:10271000EF92FF920F931F93CF93DF936C017A0197
:102720008B01C0E0D0E0CE15DF0589F0D8016D91B6
:102730008D01D601ED91FC910190F081E02DC60153
:102740000995892B11F47E0102C02196ECCFC701B7
:10275000DF91CF911F910F91FF90EF90DF90CF907D
:10276000089580917802E0917602F09177028823B3
:1027700049F0CF010296909377028093760285917B
:1027800094910895CF0102969093770280937602F8
:10279000808191810895809162020895089508953D
:1027A00080E090E008950E94F31D3FB7F894809177
:1027B0000C0790910D07A0910E07B0910F0726B559
:1027C000A89B05C02F3F19F00196A11DB11D3FBF69
:1027D000BA2FA92F982F8827820F911DA11DB11DF7
:1027E000BC01CD0142E0660F771F881F991F4A95F3
:1027F000D1F708958F929F92AF92BF92CF92DF92BE
:10280000EF92FF926B017C010E94D5134B015C019A
:10281000C114D104E104F104F1F00E94D513DC01EC
:10282000CB0188199909AA09BB09883E9340A105E3
:10283000B10570F321E0C21AD108E108F10888EE71
:10284000880E83E0981EA11CB11CC114D104E104C0
:10285000F10419F7DDCFFF90EF90DF90CF90BF909C
:10286000AF909F908F9008951F920F920FB60F9286
:1028700011242F933F938F939F93AF93BF93809196
:10288000630290916402A0916502B091660230915A
:102890000B0723E0230F2D3720F40196A11DB11D56
:1028A00005C026E8230F0296A11DB11D20930B073A
:1028B0008093630290936402A0936502B0936602D2
:1028C00080910C0790910D07A0910E07B0910F0712
:1028D0000196A11DB11D80930C0790930D07A09345
:1028E0000E07B0930F07BF91AF919F918F913F91CA
:1028F0002F910F900FBE0F901F901895CF92DF92DF
:10290000EF92FF920F931F93CF93DF930E94B11327
:10291000811520E8920761F4809171008D7F80938A
:1029200071001092910046984798109204078BC04E
:1029300021E020930407813020E8920751F4809130
:1029400074029091750290937702809376020E94B0
:10295000B11397FD05C020910307222309F43FC05E
:102960002091020721113BC021E020930507EC01D3
:10297000DF77209769F481E08093060746983FE966
:10298000C32E3FE0D32EE12CF12CCAEFD0E014C0CF
:102990008E0120E030E060E472E48FE090E0A90175
:1029A00098010E94761D69017A0181E0C81AD10858
:1029B000E108F10810920607E0917906F0917A0695
:1029C0000995811103C081E0809306078091050776
:1029D0008823B9F180910607811133C003C010929A
:1029E0000507C5CF46992DC0479A0E94B11300979D
:1029F00071F09C01DE010E94CA1DDC01CB0129E0BF
:102A0000B595A795979587952A95D1F703C08FEF30
:102A10009FEFDC01109290002AE020939100D09269
:102A20009900C09298008093070790930807A0939D
:102A30000907B0930A07809171008260809371004A
:102A400002C04798D2CFDF91CF911F910F91FF9095
:102A5000EF90DF90CF9008951F920F920FB60F92D4
:102A600011242F933F934F935F936F937F938F9393
:102A70009F93AF93BF93EF93FF938091070790913C
:102A80000807A0910907B0910A07892B8A2B8B2B85
:102A900081F18091060781110BC098B180E48927EC
:102AA00088B980910507882319F088B1805888B9C2
:102AB0008091070790910807A0910907B0910A0734
:102AC000181619061A061B06B4F480910707909190
:102AD0000807A0910907B0910A070197A109B10958
:102AE0008093070790930807A0930907B0930A07FC
:102AF00002C00E947E14FF91EF91BF91AF919F9110
:102B00008F917F916F915F914F913F912F910F9096
:102B10000FBE0F901F901895BC0180E090E00C94C0
:102B2000FA138FB18095807F669B88601C9B8460C0
:102B3000089560387105D0F440345105B8F4E3E7E6
:102B4000F0E180E1849FD001A0781124A60F4770A6
:102B5000E40FF11D8491A758BD4F222319F06C9109
:102B6000862B03C080956C9186238C9308952F92B9
:102B70003F924F925F926F927F928F929F92AF920D
:102B8000BF92CF92DF92EF92FF920F931F93CF935A
:102B9000DF93CDB7DEB729970FB6F894DEBF0FBE2F
:102BA000CDBFFC016A3069F425898189928938E0BA
:102BB000239F800D911D1124928B818B108A178683
:102BC000AAC06D3009F4A7C099878887F588348832
:102BD0002388618872880785108900381105C4F040
:102BE000A885B98555962C915597422F50E01F9690
:102BF0008D919C915097B6E02B9F800D911D1124D3
:102C0000E885F985908B8787268921116EC083C05E
:102C1000F0E46F16710424F7C80125E0F29E800DE0
:102C2000911D112418161906DCF68F2D90E09C8357
:102C30008B83C301A8E0FA9E800D911D1124181604
:102C4000190674F6B5E06B9FB0011124FB01E5583D
:102C5000FF4EFA83E98330E08885998504969E8348
:102C60008D83E981FA81E490353009F4E12C430148
:102C700088E0482EE0FC02C0532C01C0522C5110B9
:102C80000BC0321009C0E6944A948B819C81880E57
:102C9000991E4110EFCF1BC068018C2D801B8F1532
:102CA00090F754018A2D88198F1568F4252DA501F8
:102CB000B6018D819E813F830E9499159FEFA91ACD
:102CC000B90A3F81EFCFAFEFCA1ADA0AE6CF3F5F0A
:102CD000EB81FC810E0F1F1F89819A8101969A83D7
:102CE0008983363009F0BDCF7BCF6AEF6403900152
:102CF000659F300D112420583F4F281739075CF489
:102D0000A885B985ED91FC9111970190F081E02D96
:102D10006AE0CD01099581E090E029960FB6F8941C
:102D2000DEBF0FBECDBFDF91CF911F910F91FF90FE
:102D3000EF90DF90CF90BF90AF909F908F907F905B
:102D40006F905F904F903F902F900895CF93DF93B7
:102D5000CDB7DEB7A8970FB6F894DEBF0FBECDBFD4
:102D6000789484B5826084BD84B5816084BD85B566
:102D7000826085BD85B5816085BD80916E00816072
:102D800080936E0010928100809181008260809318
:102D9000810080918100816080938100809180001A
:102DA0008160809380008091910082608093910087
:102DB000809191008160809391008091900081606A
:102DC000809390008091C10084608093C1008091C5
:102DD000C10082608093C1008091C10081608093B6
:102DE000C1008091C30081608093C3008091C000C6
:102DF00082608093C0008091C20081608093C20095
:102E000080917A00846080937A0080917A00826059
:102E100080937A0080917A00816080937A0080911B
:102E20007A00806880937A00109273021092FD06F7
:102E3000109271028091D70081608093D70080EA60
:102E40008093D80089B5806189BD89B5826089BDCC
:102E500009B400FEFDCF61E070E080E090E00E94E8
:102E6000FA138091D8008F7C80618093D800809184
:102E7000E000807F8093E0008091E1008E7E80936F
:102E8000E1008DE08093E200559A209AEEEFFFE793
:102E9000859194918B3F9C4D19F481E08093FC06C1
:102EA00081EC80937C0085B1806F85B984B1877E89
:102EB00084B984B1876E84B95E9A5F988AB1806D57
:102EC0008AB9769A6E9881B3806F81BB899880B3F6
:102ED0008D7080BB80E58CBD81E08DBD85E090E08C
:102EE0000E948C155F9A85E090E00E948C155E9898
:102EF0005C98ECEAF0E08DE08E0F94919EBD0000AE
:102F00000DB407FEFDCF31968E13F7CF5C9A81E8A2
:102F100080936400809165008160809365000E94C9
:102F2000AE0E0E94911587FF24C05C9885EA8EBD85
:102F300000000DB407FEFDCF5C9A2E982F982D98B7
:102F40008091640080628093640081E083BF8895F3
:102F500013BEFCCF2D980E9491158478843871F0AF
:102F60000E9491158471843129F188EC90E00E94CF
:102F70008C150E94911582FDEDCF38C02D9A88ECFA
:102F800090E00E948C152F9882E090E00E94601DD6
:102F90008F3F29F06FEF82E090E00E94681D84EF80
:102FA00091E00E948C152F9A0E94911584788438A4
:102FB000D9F3D6CF2D9A88EC90E00E948C152E98EC
:102FC00082E090E00E94601D882329F060E082E0AA
:102FD00090E00E94681D84EF91E00E948C152E9A6B
:102FE0000E94911584718431D9F3BFCF2D9A82E06C
:102FF00090E00E94601D882331F03E9A3F9A81E064
:103000008093620204C0109262023E983F980E9430
:103010009B0E80E180938606CE014F969EA38DA3E2
:10302000DE015996B8A7AFA355E0452E512C612C6F
:10303000712C60E8262E312C8FB7F89440916302F2
:103040005091640260916502709166028FBF809119
:103050008706B42FB81B8B2F90918806992329F0EF
:10306000B093890610928806CFC390918606B9174F
:1030700048F48F5F891708F0C7C381E083BF889544
:1030800013BEC2C381E08093880640938706809177
:103090008206909183060196909383068093820620
:1030A00080918406809385060E9491158093840602
:1030B0000E949B0E80916F0281112AC000E420E8DB
:1030C0004EEF5BE060E070E080E090E00E940A0C70
:1030D000C12CD12CF0906E024F2DB60180E090E013
:1030E0000E94090DB6016F5F7F4F4F2DC1018F19EF
:1030F00091090E94090DE2E0CE0ED11CF0E4CF163A
:10310000D10441F7F7FC88C3F394F0926E027AC3BE
:10311000813009F00DC186E0FE013796DF01282FCE
:103120001D922A95E9F791E19B8798E09C87909002
:103130000501C92CD12CD886CF8280900401A82CFF
:10314000B12CBA86A986E6E1F1E0DE011196019084
:103150000D928A95E1F700E420E84EEF57E060E039
:1031600070E080E090E00E940A0CF0906D02EF2C7D
:1031700000EE17E02F2D4EEE57E060E370E081E6A1
:1031800090E00E94E90A80918206909183066FE0A8
:1031900070E00E94D91D892B29F481E08F0D817088
:1031A00080936D0220916C02E22E0AE917E04CEB4D
:1031B00057E0B501C6010E94E90A8091820690910C
:1031C000830663E070E00E94D91D892B19F4839473
:1031D0008092040180910401803318F08FE2809383
:1031E00004010E94911585FF02C0911019C30E942D
:1031F000911586FF05C0809105018F3608F417C32D
:103200000E94911583FF33C0F0900401FF2079F1F3
:1032100080916C02811111C320916B026F2D70E0BF
:10322000685F7F4F80910501E22E04E517E046E7D5
:1032300057E090E00E94E90A80918206909183060F
:1032400065E070E00E94D91D892B31F480916B02FA
:103250008F5F817080936B02FA94F092040141E2D7
:1032600050E061E470E081E290E00E94400DE9806E
:10327000FA800B811C812D813E814F8158856985A3
:103280007A858B859C850E94520E882309F4BAC2E8
:10329000809164008E7F8093640080917A008064C6
:1032A00080937A0080917A0086FDFCCFE0907800D0
:1032B000F09079000E94D513870120E030E098015A
:1032C00011270027600F711F821F931F6115710561
:1032D0008105910511F00E94571D80916400816065
:1032E0008093640081E1809305018FE28093040163
:1032F00091E090936C0210926B0299E49093030119
:103300008093020110926D0285E0809301018CE3AD
:103310008093000110926A021092690245EA50E01F
:1033200066E271E08BE092E00E94400D82E0E4C230
:10333000823009F0D4C141E065E370E085E390E0BC
:103340000E94D40DE12CF12C07E310E021E0A8014C
:10335000B7018FE796E00E9499150F5F1F4F003469
:103360001105A1F78FEFE81AF80A90E8E916F104C1
:1033700059F7E12C0CEC14E020E04CEC55E067E34D
:1033800070E080E090E00E94E90AA2E0B0E0B09333
:103390008B06A0938A0609E310E010938D06009334
:1033A0008C068AEC94E00E94B30D609169027091E2
:1033B0006A0280E090E04AE00E94620D82E390E0C1
:1033C00090938B0680938A0610938D0600938C064B
:1033D0006091000170E080E090E04AE00E94620DA0
:1033E00094E3E92E91E0F92EA12CB12C812C912CA3
:1033F000C12CD12CF701EC0DFD1D4081518183E0E2
:10340000440F551F8A95E1F74253594F08E028E0D1
:10341000B501C4010E940A0CB2E0CB0ED11CE8E059
:103420008E0E911CF0E2CF16D10421F720E2E20EBD
:10343000F11C88E0A80EB11C90E4A916B104B1F605
:1034400020916C02F090040180900501912C6F2D69
:1034500070E0E22E0AE917E04CEB57E0C4010E944D
:10346000E90A809182069091830663E070E00E94F1
:10347000D91D892B19F4F394F09204018091040171
:10348000803318F08FE280930401F0906D02C090B9
:103490000201D12CA0900301B12CEF2C00EE17E01B
:1034A0002F2D4EEE57E0B601C5010E94E90A80912A
:1034B0008206909183066FE070E00E94D91D892BEF
:1034C00029F481E08F0D817080936D0286E0ADA1BB
:1034D000BEA1E82F1D92EA95E9F791E19BA398E040
:1034E0009CA398A28F8E90900401292D30E03AA3DE
:1034F00029A3AFA1B8A5E82F1D92EA95E9F727E027
:103500002D8F9E8FBA8EA98EDC8ECB8EECE1F1E0F2
:10351000DE015396982F01900D929A95E1F7E2E221
:10352000F1E0DE011D96982F01900D929A95E1F73A
:10353000E8E2F1E0DE011796982F01900D929A953E
:10354000E1F7EEE2F1E0DE01119601900D928A952D
:10355000E1F7EB88FC880D891E892F89388D4F8D06
:1035600058A169A17AA18BA19CA10E94520E882327
:1035700019F09A9490920401ED84FE840F851889C5
:1035800029893A894F8D58A169A17AA18BA19CA163
:103590000E94520E882329F080910401815080936B
:1035A0000401EF80F88409851A852B853C854F8DB1
:1035B00058A169A17AA18BA19CA10E94520E8823D7
:1035C00029F080910401815080930401E980FA8000
:1035D0000B811C812D813E814F8D58A169A17AA15B
:1035E0008BA19CA10E94520E882329F08091040196
:1035F000815080930401E98CFA8C0B8D1C8D2D8DEC
:103600003E8D4F8D58A169A17AA18BA19CA10E94EA
:10361000520E8823A9F18091690290916A02029664
:1036200090936A02809369020E94521DA301920145
:103630000E94761D60930101613021F460930301C3
:1036400080E214C0623029F484E18093030188E0B1
:103650000DC0633029F481E38093030188E106C043
:10366000643031F482E68093030180E180930201AB
:1036700042E550E065EA70E087E295E00E94400D87
:1036800080918206909183066CE370E00E94D91DC0
:10369000892B59F480910001823010F0815003C0D1
:1036A00083E080936F02809300010E94911585FF53
:1036B00004C0809105018111D1C00E94911586FF3F
:1036C00005C0809105018F3608F4CFC00E94911586
:1036D00083FF98C0F0900401F110CDC093C08330F7
:1036E00009F090C0E0906702F090680200E420E8E2
:1036F00049EB50E060E070E0C7010E940A0C20E84E
:1037000049EB50E060E070E0C70180589F4F0E9495
:103710000A0C8091820680FD11C0F1E0EF1AF108D9
:1037200020E8E2162FEFF2062CF0F0926802E09209
:10373000670204C01092680210926702E12CF12C1B
:1037400000E110E020E0A801B7018FE796E00E94B9
:1037500099150F5F1F4F0F321105A1F78FEFE81A70
:10376000F80A90E8E916F10459F741E061E170E0E8
:1037700081E190E00E94D40D41E06DE270E08DE2C5
:1037800090E00E94D40D40E060E370E080E390E0C0
:103790000E94D40D40E062E370E082E390E00E947A
:1037A000D40DA5E2B0E0B0938B06A0938A06E6E1C3
:1037B000F0E0F0938D06E0938C0680EC94E00E949C
:1037C000B30D88E290E090938B0680938A06A2E284
:1037D000B0E0B0938D06A0938C0689EB94E00E9434
:1037E000B30D6091690270916A0280E090E04AE056
:1037F0000E94620D8091850682FD04C0809184063E
:1038000082FD79C00E94AE0E80E090E0892B09F421
:1038100013CC0E94000010CC80E880936E026BC035
:103820009A949092050181E080936C02E0CC8F5FC6
:103830008093050110926C02E3CC813009F0FCCC3E
:1038400020916B026F2D70E0685F7F4F80910501C2
:10385000E22E0EE017E040E357E0EBCC815080937E
:10386000050181E080936C0228CF8F5F8093050172
:1038700010926C022BCF80916C0281110EC02091AE
:103880006B026F2D70E0685F7F4F80910501E22E23
:1038900004E517E046E757E00FC0813081F420913E
:1038A0006B026F2D70E0685F7F4F80910501E22E03
:1038B0000EE017E040E357E090E00E94E90A8091B3
:1038C00082069091830665E070E00E94D91D892BE5
:1038D00031F480916B028F5F817080936B02FA9458
:1038E000F092040141E250E061E470E081E290E096
:1038F0000E94400D87CF81E080936F0283CFEEE975
:10390000F6E01382128288EE93E0A0E0B0E08483B8
:103910009583A683B78388E392E0918380838FEFBA
:103920009FEF95878487EBE7F6E01382128211867A
:10393000128680E183871086178215868AE492E0DA
:103940009183808388E592E095838483108A17862B
:10395000128A118A81E0838B148A858B168A8BECFC
:1039600093E190937A068093790680E090E89093B3
:10397000FB068093FA0646983E9A47983F9A089528
:103980000F931F93CF93DF938C0181E090E00E940F
:10399000601D80FF31C08AE090E00E94601D9FEFB3
:1039A000980F9E3F48F522E330E0D80150963C93B3
:1039B0002E931F9728E330E052963C932E93519715
:1039C000CBE0D0E0D801ED91FC910190F081E02DA9
:1039D000682FC8010995CE010E94601D2196C13152
:1039E000D10581F70E94AE0E88EE93E0DF91CF9172
:1039F0001F910F910C948C15DF91CF911F910F9116
:103A0000089504970C94C01C8F929F92AF92BF921E
:103A1000CF92DF92EF92FF92CF93DF93EC01688118
:103A200079818A819B81611571058105910521F458
:103A300064E279ED8BE597E02DE133EF41E050E072
:103A40000E94761D49015A019B01AC01A7EAB1E42D
:103A50000E94951D6B017C01ACEEB4EFA5019401B1
:103A60000E94A31DDC01CB018C0D9D1DAE1DBF1D51
:103A7000B7FF03C00197A109B04888839983AA833F
:103A8000BB83BC01CD019F77DF91CF91FF90EF9079
:103A9000DF90CF90BF90AF909F908F9008950E943D
:103AA000041D089582E191E00E94041D0895609331
:103AB00012017093130180931401909315010895DE
:103AC000F999FECF92BD81BDF89A992780B50895E6
:103AD000262FF999FECF1FBA92BD81BD20BD0FB62A
:103AE000F894FA9AF99A0FBE01960895052E97FB5D
:103AF0001EF400940E948D1D57FD07D00E94A81D42
:103B000007FC03D04EF40C948D1D509540953095D4
:103B100021953F4F4F4F5F4F089590958095709539
:103B200061957F4F8F4F9F4F08950E94CA1DA59F9B
:103B3000900DB49F900DA49F800D911D11240895A8
:103B4000B7FF0C94951D0E94951D821B930B089541
:103B5000A1E21A2EAA1BBB1BFD010DC0AA1FBB1F91
:103B6000EE1FFF1FA217B307E407F50720F0A21B03
:103B7000B30BE40BF50B661F771F881F991F1A9470
:103B800069F760957095809590959B01AC01BD019A
:103B9000CF010895A29FB001B39FC001A39F700DF4
:103BA000811D1124911DB29F700D811D1124911D45
:103BB0000895AA1BBB1B51E107C0AA1FBB1FA61774
:103BC000B70710F0A61BB70B881F991F5A95A9F7C6
:103BD00080959095BC01CD010895EE0FFF1F0590D3
:103BE000F491E02D099481E090E0F8940C94F81D94
:043BF000F894FFCF77
:103BF4003C052F492F1100E1000000000000FFFFE9
:103C0400FFFF0100000061003000070800002700EA
:103C1400100811001000180831002000100861007D
:103C24001800180806000600060006000600060034
:103C34000600060006000500050005000600060053
:103C4400060006000100010002000200020001005B
:103C54000100010001000100010001000100010058
:103C6400010001000100010000000000000001004B
:103C74000100010001000100010001000200020036
:103C84000400010001000100010001000100010025
:103C94000200020001000100010001000000000018
:103CA4000000010002000400010001000100010005
:103CB40000000000010001000100010001000100FA
:103CC40001000100000000000100010001000100EA
:103CD40001000100010001000100010001000100D8
:103CE40001000100010001000100010001000100C8
:103CF40001000100010001000100010001000100B8
:103D040001000100010001000100010001000700A1
:103D14000100010001000100010001000100010097
:103D24000100010000000000920FF90E6C10A80FB2
:103D3400B30F9410701000000000B7158613D01351
:103D4400CF13C01CFCFF0000011D00C180810000D6
:023D540000006D
:00000001FF
