:100000000C94710C0C94990C0C94990C0C94990C04
:100010000C94990C0C94990C0C94990C0C94990CCC
:100020000C94990C0C94990C0C943C0E0C94AE0E00
:100030000C94990C0C94990C0C94990C0C94990CAC
:100040000C94990C0C94990C0C94990C0C94990C9C
:100050000C94990C0C94990C0C94990C0C94D71149
:100060000C94990C0C94990C0C94990C0C94990C7C
:100070000C94990C0C94990C0C94990C0C94990C6C
:100080000C94CF120C94990C0C94990C0C94990C20
:100090000C94990C0C94990C0C94990C0C94990C4C
:1000A0000C94990C0C94990C0C94990C0102040575
:1000B00006060E08030107030D0210041D020301CA
:1000C00007030D0210041D020103010101010101DA
:1000D000010303010101010101030101010101010A
:1000E00001030101010101010104040106010101F3
:1000F00001010101030301010101010303010101E8
:1001000001010103030101010101010101010103D9
:1001100001010101010101030301010101030303C5
:1001200001010101010301030101010101040401B5
:1001300001010601010101010101030301010101A6
:100140000303030101010103010103010101010195
:100150000101010101030101010101010103030189
:100160000101010303030101010103010103010175
:100170000104040101010101060101010101010164
:100180000303010101010303030101010103010153
:10019000030101010101010101010103010101014B
:1001A0000101010303010101010303030101010135
:1001B0000301010301040101010101010101010128
:1001C000010101010101010101010101010101011F
:1001D00001010101010101010606060606060606E7
:1001E00006060505050606060606060606060606B2
:1001F00006060606060606060606010102020201BA
:1002000001010101010101010101010102020201DB
:1002100001010101010101010101010101010909BE
:1002200009010101010101010202040101010909A1
:1002300009010101010101010202040101010101A1
:100240000101010102020101010109090901010184
:100250000101010102020101010109090901010174
:10026000020401010101090901010101010101016A
:10027000020401010101090901010101010101015A
:10028000010109090101010101010101010101014E
:10029000010109090101010101010101010101013E
:1002A000010101010101010101010101010101013E
:1002B000010101010101010101010101010101012E
:1002C000010000030303010101010101010101011A
:1002D000010101010101010101010101010101010E
:1002E00001010101010101010101010101010101FE
:1002F00001010101010101010101010101010101EE
:1003000001010101010101010101010101010101DD
:1003100001010101010101010101010101010101CD
:1003200001010101010101010101010101010101BD
:1003300001010101010101010101010101010101AD
:10034000010101010101010101010101010101019D
:10035000010101010101010101010101010101018D
:10036000010101010101010101010101010101017D
:10037000010101010101010101010101010101016D
:10038000010101010101010101010101010101015D
:10039000010101010101010101010101010101014D
:1003A000010101010101010101010101010101013D
:1003B000010101010101010101010101010101012D
:1003C000010101010101010101010101010101011D
:1003D000010101010101010101010101010101010D
:1003E00001010101010101010101010101010101FD
:1003F0000101010101010101D5F08D14A1C881CFD6
:10040000D9F1AF2000F9F9F9F9F9F9F9F901010188
:100410000101010101F9F9F9F9F9F9F9F90101010C
:100420000101010101F9F9F9F9F9F9F9F9010101FC
:100430000101010101F9F9F9F9F9F9F9F9010101EC
:100440000101010101F9F9F9F9F9F9F9F9010101DC
:100450000101010101F9F9F9F9F9F9F9F9010101CC
:100460000101010101F9F9F9F9F9F9F9F9010101BC
:100470000101010101F9F9F9F9F9F9F9F9010101AC
:1004800001010101010707070707070707F8F8F847
:10049000F8F8F8F8F80707070707070707F8F8F864
:1004A000F8F8F8F8F80707070707070707F8F8F854
:1004B000F8F8F8F8F80707070707070707F8F8F844
:1004C000F8F8F8F8F80707070707070707F8F8F834
:1004D000F8F8F8F8F80707070707070707F8F8F824
:1004E000F8F8F8F8F80707070707070707F8F8F814
:1004F000F8F8F8F8F80707070707070707F8F8F804
:10050000F8F8F8F8F8F8F8F8F8F8F8F8F80707073E
:100510000707070707F8F8F8F8F8F8F8F8070707E3
:100520000707070707F8F8F8F8F8F8F8F8070707D3
:100530000707070707F8F8F8F8F8F8F8F8070707C3
:100540000707070707F8F8F8F8F8F8F8F8070707B3
:100550000707070707F8F8F8F8F8F8F8F8070707A3
:100560000707070707F8F8F8F8F8F8F8F807070793
:100570000707070707F8F8F8F8F8F8F8F807070783
:1005800007070707070707070707070707F8F8F828
:10059000F8F8F8F8F80707070707070707F8F8F863
:1005A000F8F8F8F8F80707070707070707F8F8F853
:1005B000F8F8F8F8F80707070707070707F8F8F843
:1005C000F8F8F8F8F80707070707070707F8F8F833
:1005D000F8F8F8F8F80707070707070707F8F8F823
:1005E000F8F8F8F8F80707070707070707F8F8F813
:1005F000F8F8F8F8F80707070707070707F8F8F803
:10060000F8F8F8F8F8F8F8F8F8F8F8F8F80707073D
:100610000707070707F8F8F8F8F8F8F8F8070707E2
:100620000707070707F8F8F8F8F8F8F8F8070707D2
:100630000707070707F8F8F8F8F8F8F8F8070707C2
:100640000707070707F8F8F8F8F8F8F8F8070707B2
:100650000707070707F8F8F8F8F8F8F8F8070707A2
:100660000707070707F8F8F8F8F8F8F8F807070792
:100670000707070707F8F8F8F8F8F8F8F807070782
:1006800007070707070707070707070707F8F8F827
:10069000F8F8F8F8F80707070707070707F8F8F862
:1006A000F8F8F8F8F80707070707070707F8F8F852
:1006B000F8F8F8F8F80707070707070707F8F8F842
:1006C000F8F8F8F8F80707070707070707F8F8F832
:1006D000F8F8F8F8F80707070707070707F8F8F822
:1006E000F8F8F8F8F80707070707070707F8F8F812
:1006F000F8F8F8F8F80707070707070707F8F8F802
:10070000F8F8F8F8F8F8F8F8F8F8F8F8F80707073C
:100710000707070707F8F8F8F8F8F8F8F8070707E1
:100720000707070707F8F8F8F8F8F8F8F8070707D1
:100730000707070707F8F8F8F8F8F8F8F8070707C1
:100740000707070707F8F8F8F8F8F8F8F8070707B1
:100750000707070707F8F8F8F8F8F8F8F8070707A1
:100760000707070707F8F8F8F8F8F8F8F807070791
:100770000707070707F8F8F8F8F8F8F8F807070781
:100780000707070707878787878787878798989846
:100790009898989898878787878787878798989861
:1007A0009898989898878787878787878798989851
:1007B0009898989898878787878787878798989841
:1007C0009898989898878787878787878798989831
:1007D0009898989898878787878787878798989821
:1007E0009898989898878787878787878798989811
:1007F0009898989898878787878787878798989801
:10080000989898989853434F52453A0047414D4520
:10081000204F564552000D9F2D970D9F2D9700009C
:1008200000000000000040404040404040401605AD
:1008300012041402150640404F09ED094F4005020D
:100840000502050205020709070F0709070F00380F
:1008500044829AA244380922092209220922825A92
:100860009A42985A9A58003844829AA244382400EE
:10087000FFFFFFFFFFFFFFFFFFFFFFFFFFFFFFFF88
:10088000FFFFFFFFFFFFFFFFFFFFFFFFFFFFFFFF78
:10089000FFFFFFFFFFFFFFFFFFFFFFFFFFFFFFFF68
:1008A000FFFFFFFFFFFFFFFFFFFFFFFFFFFFFFFF58
:1008B000FFFFFFFFFFFFFFFFFFFFFFFFFFFFFFFF48
:1008C000FFFFFFFFFFFFFFFFFFFFFFFFFFFFFFFF38
:1008D000FFFFFFFFFFFFFFFFFFFFFFFFFFFFFFFF28
:1008E000FFFFFFFFFFFFFFFFFFFFFFFFFFFFFFFF18
:1008F00001010101010101010101010101010101E8
:1009000001010101010101010101010101010101D7
:1009100001010101010101010101010101010101C7
:1009200001010101010101010101010101010101B7
:1009300001010101010101010101010101010101A7
:100940000101010101010101010101010101010197
:100950000101010101010101010101010101010187
:100960000101010101010101010101010101010177
:100970008009FE01010101010101010101010101E3
:100980000101010101010101010101010101010157
:10099000010101010101010101FE0101010101014A
:1009A0000101010101010101010101010101010137
:1009B00001FE000D9F2D970D9F2D970D9F2D970DDB
:1009C0009F2D970D9F2D970D9F2D970D9F2D970D67
:1009D0009F2D970D9F2D970D9F2D970D9F2D970D57
:1009E0009F2D970D9F2D970D9F2D970D9F2D970D47
:1009F0009F2D01000000000000000000000000002A
:100A000000000000000000000000000000000000E6
:100A100000000000000000000001000000000000D5
:100A200000000000000000000000000000000000C6
:100A300000010001010101010101010101010101A8
:100A40000101010101010101010101010101010196
:100A50000101010101010101010101010101010186
:100A60000101010101010101010101010101010176
:100A700001010002070E070200000002070E070234
:100A80000000000000020702000000000002070250
:100A90000000000011040000020402000000000039
:100AA000020402000000000000000200000000003C
:100AB000000002000000000000000002070E070214
:100AC00000000002070E07020000000000020702FB
:100AD00000000000000207020000110400000000F6
:100AE00002040200000000000204020000000000F6
:100AF000000002000000000000000200000070F88A
:100B0000FEFFFFFFFFFFFFFEFEFFFFFFFAF060604A
:100B1000F0FAFFFFFFFEFEFFFFFFFFFFFFFEF87092
:100B200011080070186E1E5E1272767C186A1E5ACA
:100B30001060000060105A1E6A187C7672125E1EE9
:100B40006E187000087CFE7FFE6702087CFE7FFE48
:100B50006E0407080008641E6402000008641E6436
:100B60000400808080808080808080808080808081
:100B70008080808080808080808080808080808075
:100B80008080000000000000000000000000000065
:100B90000000000000000000000000000000000055
:100BA0000000000000000000000000000000000045
:100BB0000000000000000000000000000000000035
:100BC00000808080808080808080808080808080A5
:100BD0008080808080808080808080808080808015
:100BE00080803E3EC0C0C0C0C03E3E3E3E3EC0C013
:100BF000C0C0C03E3E3E3E3EC0C0C0C0C03E3E3E05
:100C00003E3E000000387EFEFFE78787070E0000AB
:100C100000FFFFFFFF8787C7FFFFFE7C0000F0FF9C
:100C2000FF1FFFFFF0800000E0F8FCFE1E0F07072B
:100C3000070F0000FFFFFFFF878787878787000078
:100C4000003E3E3E3E3EC0C0C0C0C03E3E3E3E3E78
:100C5000C0C0C0C0C03E3E3E3E3EC0C0C0C0C03EA0
:100C60003E3EF8F80707070707F8F8F8F8F807070F
:100C7000070707F8F8F8F8F80707070707F8F8F87C
:100C8000F8F8000000E0E0C0C1C3E7FFFF7E3C00D1
:100C900000FFFFFFFF03030303010180F8FFFF7F55
:100CA0003B383B7FFFFFF8800F3F7FFFF0E0C0C085
:100CB000C0E00000FFFFFFFFC3C3C3C3C3C3000006
:100CC00000F8F8F8F8F80707070707F8F8F8F8F851
:100CD0000707070707F8F8F8F8F80707070707F8FE
:100CE000F8F80202020202020202020202020202F8
:100CF00002020202020202020202020202020202D4
:100D0000824280500850095129112911289040A091
:100D100050A951A981C0C0C0C0C0000911A911C00B
:100D2000D0C0D0C011A9110900C0D0C8D1C9D1C943
:100D3000D18910000109112951A951895109500087
:100D40004002020202020202020202020202020245
:100D50000202020202020202020202020202020273
:100D6000020200000000000000000000000000007F
:100D70000000000000000000000000000000000172
:100D80000201020102010201000000000102010251
:100D9000F97E7FFF070301010103000000C07CFF13
:100DA000FF07FFFF7CE0000000FF7F7FFFE1F17F96
:100DB000FF9F8F00010200000000010201020102FA
:100DC000010201020102000000000000000000001A
:100DD0000000000000000000000000000000000013
:100DE0000000000000000000000000000000000003
:100DF00000000000000000000000000000000000F3
:100E000000000000000000000000000000000000E2
:100E1000030D19376C585050507800605E436113D1
:100E20000A0A0A1361435E60007F41415F505059D6
:100E30004721390F00000000000000008080808002
:100E40008000000000000000000000000000000022
:100E50000000000000000000000000000000000092
:100E600000002020202020202020202020202020C2
:100E70002020202020202020202020202020202072
:100E80002020202020202020202020202020202062
:100E90002020202020202020202020202020202052
:100EA0002020202020202020202020202020202042
:100EB000202020202020202020202020270476040D
:100EC000272020202020202020202020202020201B
:100ED0002020202020202020202020202020202012
:100EE00020200D9F2D970D9F2D970D9F2D970D9FC6
:100EF0002D970D9F2D970D9F2D970D9F2D970D9F32
:100F00002D970D9F2D970D9F2D970D9F2D970D9F21
:100F10002D970D9F2D970D9F2D970D9F2D970D9F11
:100F20002D970D9F2D970D9F2D970D9F2D970D9F01
:100F30002D970D9F2D970D9F2D970D9F2D970D9FF1
:100F40002D970D9F2D970D9F2D970D9F2D970D9FE1
:100F50002D970D9F2D970D9F2D970D9F2D970D9FD1
:100F60002D970000000000000000000000000000BD
:100F70000000000000000000000000000000000071
:100F80000000000000000000000000000000000061
:100F90000000000000000000000000000000000051
:100FA0000000000000000000000000000000000041
:100FB0000000000000000000000000000000000031
:100FC0000000000000000000000000000000000021
:100FD0000000000000000000000000000000000011
:100FE0000000000000000000000000000000000001
:100FF00000000000000000000000000000000000F1
:1010000000000000000000000000000000000000E0
:101010000080808080808000000000808080808050
:101020008080800000000000000000000000000040
:1010300000000000000000000000000000000000B0
:1010400000000000000000000000000000000000A0
:101050000000000000000000000000000000000090
:101060000000000000000000000000000000000080
:101070000000000000000000000000000000000070
:101080000000000000000000000000000000020A54
:101090002AA8A38F3FFFFFFEF08000FFFFFFFFFFA6
:1010A000FFFF0700000000000080808080C0C000BB
:1010B00080000000000000000000000000000000B0
:1010C0000000000000000000000000000000000020
:1010D0000000000000000000000000000000000010
:1010E0000000000000000000000000000000000000
:1010F00000000000000000000000000000000000F0
:1011000000000000000000000000000000000000DF
:101110000000020A0A28A3871F7FFCFFFFFFFFFFD2
:101120007F01F0F8FCFE06A30B07073F0F23080220
:1011300000000000000000000000000000000000AF
:10114000000000000000000000000000000000009F
:10115000000000000000000000000000000000008F
:10116000000000000000000000000000000000007F
:10117000000000000000000000000000000000006F
:10118000000000000000000000000000000000005F
:1011900000000000000000020A28A1871F7FFF1F37
:1011A0000080F1F3F3636322B21E202800000000E8
:1011B000000000000000000000000000000000002F
:1011C000000000000000000000000000000000001F
:1011D000000000000000000000000000000000000F
:1011E00000000000000000000000000000000000FF
:1011F00000000000000000000000000000000000EF
:1012000000000000000000000000000000000000DE
:101210000000000000080808C808884A8A484808F2
:1012200088498908CA480948C848080808000000D1
:1012300000000000000000000000000000000000AE
:10124000000000000000000000000000000000009E
:10125000000000000000000000000000000000008E
:10126000000000000000000000000000000000007E
:10127000000000000000000000000000000000006E
:10128000000000000000000000000000000000005E
:101290000000000000000000000300000203030043
:1012A0000102010003010000030000000000000033
:1012B000000000000000000000000000000000002E
:1012C000000000000000000000000000000000001E
:1012D000000000000000000000000000000000000E
:1012E00000000000000000000000000000000000FE
:1012F00000000000000000000000000000000000EE
:1013000000000000000000000000000000000000DD
:1013100000000000000000000000000000000000CD
:1013200000000000000000000000000000000000BD
:1013300000000000000000000000000000000000AD
:10134000000000000000000000000000000000009D
:10135000000000000000000000000000000000008D
:101360000000010204081020408000000000003E40
:101370005B4F5B3E3E6B4F6B3E1C3E7C3E1C183C05
:101380007E3C181C577D571C1C5E7F5E1C00183C61
:101390001800FFE7C3E7FF0018241800FFE7DBE7AA
:1013A000FF30483A060E2629792926407F05050791
:1013B000407F05253F5A3CE73C5A7F3E1C1C0808ED
:1013C0001C1C3E7F14227F22145F5F005F5F0609B2
:1013D0007F017F006689956A606060606094A2FF0B
:1013E000A29408047E040810207E201008082A1CFD
:1013F00008081C2A08081E101010100C1E0C1E0CC9
:1014000030383E3830060E3E0E0600000000000068
:10141000005F00000007000700147F147F14242AD7
:101420007F2A1223130864623649562050000807A9
:101430000300001C2241000041221C002A1C7F1CCA
:101440002A08083E080800807030000808080808CC
:10145000000060600020100804023E5149453E0033
:10146000427F400072494949462141494D33181491
:10147000127F1027454545393C4A494931412111E0
:1014800009073649494936464949291E00001400D2
:1014900000004034000000081422411414141414F5
:1014A000004122140802015909063E415D594E7C53
:1014B0001211127C7F494949363E414141227F4108
:1014C00041413E7F494949417F090909013E414166
:1014D00051737F0808087F00417F41002040413F51
:1014E000017F081422417F404040407F021C027F60
:1014F0007F0408107F3E4141413E7F090909063EB5
:101500004151215E7F091929462649494932030183
:101510007F01033F4040403F1F2040201F3F403895
:10152000403F631408146303047804036159494D70
:1015300043007F4141410204081020004141417FA6
:10154000040201020440404040400003070800201C
:10155000545478407F28444438384444442838441C
:1015600044287F385454541800087E090218A4A453
:101570009C787F0804047800447D40002040403D72
:10158000007F1028440000417F40007C04780478EC
:101590007C080404783844444438FC18242418187F
:1015A000242418FC7C0804040848545454240404DB
:1015B0003F44243C4040207C1C2040201C3C4030C8
:1015C000403C44281028444C9090907C4464544CF7
:1015D0004400083641000000770000004136080052
:1015E00002010204023C2623263C1EA1A161123AFC
:1015F0004040207A38545455592155557941215449
:10160000547841215554784020545579400C1E524D
:1016100072123955555559395454545939555454F1
:10162000580000457C410002457D420001457C4058
:10163000F0292429F0F0282528F07C545545002075
:1016400054547C547C0A097F493249494932324812
:10165000484832324A4848303A4141217A3A424079
:101660002078009DA0A07D39444444393D4040404D
:101670003D3C24FF2424487E4943662B2FFC2F2B1E
:10168000FF0929F620C0887E0903205454794100BF
:1016900000447D413048484A32384040227A007A3E
:1016A0000A0A727D0D19317D2629292F282629291C
:1016B000292630484D40203808080808080808083E
:1016C000382F10C8ACBA2F102834FA00007B000065
:1016D00008142A142222142A14089500220095AA1C
:1016E000005500AAAA55AA55AA000000FF00101034
:1016F00010FF00141414FF001010FF00FF1010F072
:1017000010F0141414FC001414F700FF0000FF0084
:10171000FF1414F404FC141417101F10101F101FD2
:101720001414141F00101010F0000000001F1010FF
:1017300010101F10101010F010000000FF101010FB
:10174000101010101010FF10000000FF140000FF18
:1017500000FF00001F10170000FC04F41414171001
:10176000171414F404F40000FF00F71414141414F4
:101770001414F700F7141414171410101F101F146A
:101780001414F4141010F010F000001F101F0000CB
:10179000001F14000000FC140000F010F01010FFF7
:1017A00010FF141414FF141010101F00000000F09C
:1017B00010FFFFFFFFFFF0F0F0F0F0FFFFFF000071
:1017C000000000FFFF0F0F0F0F0F38444438447C18
:1017D0002A2A3E147E02020606027E027E0263551B
:1017E0004941633844443C04407E201E2006027E6A
:1017F000020299A5E7A5991C2A492A1C4C7201727C
:101800004C304A4D4D303048784830BC625A463DE5
:101810003E494949007E0101017E2A2A2A2A2A449A
:10182000445F444440514A444040444A51400000CF
:10183000FF0103E080FF000008086B6B08361236DA
:101840002436060F090F06000018180000001010BB
:10185000003040FF0101001F01011E00191D171279
:10186000003C3C3C3C0000000000080B000202026F
:10187000010009040000010202000005240010011B
:1018800005240101010424020605240600010705C0
:10189000810310004009040100020A00000007054E
:1018A000020240000007058302400000040309040F
:1018B00012010002EF0201404123368000010102C3
:1018C000030141726475696E6F204C4C4300417294
:1018D0006475696E6F204C656F6E6172646F000095
:1018E000EF2211241FBECFEFDAE0DEBFCDBF12E042
:1018F000A0E0B1E0EEEFF8E402C005900D92AC3745
:10190000B107D9F727E0ACE7B2E001C01D92AF33D1
:10191000B207E1F71CE0C1E7DCE004C02197FE015B
:101920000E947224C037D107C9F70E948D180C9409
:101930007D240C9400004091A0025091A1022091BE
:101940009E0230919F0242175307B4F49091E80031
:101950009570E1F39091E80092FD19C08093F10039
:101960008091A0029091A10201968F739927892BF3
:1019700019F48EEF8093E8008091A0029091A1026B
:1019800001969093A1028093A00281E0089580E0E7
:101990000895CF92DF92EF92FF920F931F93CF9310
:1019A000DF931F92CDB7DEB7182F062FE42E862FB8
:1019B000880F8E5F99830E949B0C83E00E949B0C92
:1019C000F12EC12E9981D92E8C2D8F19801798F464
:1019D000F601E7FE02C0849101C080810E949B0C49
:1019E000182F80E00E949B0C8123FFEFCF1ADF0AA3
:1019F0008111EACF01C081E00F90DF91CF911F915B
:101A00000F91FF90EF90DF90CF900895DF92EF92CB
:101A1000FF920F931F93CF93DF93D82E8A017B0100
:101A2000E40EF51EEB01CE15DF0571F0D7FE03C005
:101A3000FE01849101C088810E949B0C2196811136
:101A4000F2CF8FEF9FEF01C0C801DF91CF911F91BF
:101A50000F91FF90EF90DF900895615030F020914A
:101A6000F100FC0120830196F8CF289884E680934A
:101A7000A3020895CF92DF92EF92FF920F931F93EC
:101A8000CF93DF936C017A018B01C0E0D0E0CE15DB
:101A9000DF0589F0D8016D918D01D601ED91FC91A2
:101AA0000190F081E02DC6010995892B11F47E018A
:101AB00002C02196ECCFC701DF91CF911F910F910A
:101AC000FF90EF90DF90CF900895CF93DF931F9218
:101AD000CDB7DEB76983DC01ED91FC910280F38123
:101AE000E02D41E050E0BE016F5F7F4F09950F9000
:101AF000DF91CF91089583E08093E9008091F20017
:101B0000882319F08AE38093E8000895FC01848516
:101B1000958597FD0BC09FB7F89482E08093E9000C
:101B20008091F2009FBF90E0019608959FB7F894CE
:101B300082E08093E9008091F2009FBF90E00895D9
:101B40008091A902E091A702F091A802882349F0B0
:101B5000CF0102969093A8028093A7028591949159
:101B60000895CF0102969093A8028093A7028081E6
:101B70009181089580917F0208950895089580E0ED
:101B800090E008950E9478240F931F93CF93DF93E2
:101B90001F92CDB7DEB782E0898342E450E06AE667
:101BA00078E180E80E94060D0E947918DC01129607
:101BB0000D911C9113970115110569F0D801ED9154
:101BC000FC910280F381E02DBE016F5F7F4FC80161
:101BD000099597FF07C089810F90DF91CF911F91E1
:101BE0000F910895F80100851185E5CF0E946818CE
:101BF00090E008950F931F93CF93DF931F92CDB77B
:101C0000DEB78C01FC018485958597FF0EC0CE015F
:101C100001960E943E18019719F4298130E002C014
:101C20002FEF3FEFF80135872487F80184859585EC
:101C30000F90DF91CF911F910F910895CF93DF9374
:101C40001F92CDB7DEB7FC018485958597FD05C051
:101C50002FEF3FEF358724870BC0CE0101960E94FE
:101C60003E18019719F4898190E002C08FEF9FEF31
:101C70000F90DF91CF9108951F920F920FB60F92A0
:101C800011248F939F938091E1009091E100937FC5
:101C90009093E10083FF0FC01092E90091E09093D0
:101CA000EB001092EC0092E39093ED001092A402EE
:101CB00098E09093F00082FF20C093E09093E900B9
:101CC0009091F200992319F09AE39093E800909193
:101CD000A202992339F09091A20291509093A2020E
:101CE000992389F19091A302992339F09091A3024D
:101CF00091509093A302992341F184FF10C08091E9
:101D0000E2008E7E81608093E2008091E1008F7E10
:101D10008093E10080917D028E7E806111C080FF02
:101D200016C08091E2008E7E80618093E2008091F7
:101D3000E1008E7E8093E10080917D028E7E816045
:101D400080937D0204C05D9ACDCF289AD6CF9F9113
:101D50008F910F900FBE0F901F9018951F920F92AA
:101D60000FB60F921124CF92DF92EF92FF920F9352
:101D70001F932F933F934F935F936F937F938F9313
:101D80009F93AF93BF93EF93FF93CF93DF93CDB721
:101D9000DEB76C97DEBFCDBF1092E9008091E800FE
:101DA00083FFEDC168E0CE0145960E942D0D82EFC4
:101DB0008093E8008D8987FF05C09091E80090FF2F
:101DC000FCCF03C09EEF9093E800982F907609F027
:101DD000C6C09E892F89188D91110CC0803829F4B6
:101DE00080917E028093F10002C01092F100109267
:101DF000F10048C1422F50E0512B913051F4811134
:101E000041C14130510509F03DC180917E028D7F75
:101E10000BC0933061F4811135C14130510509F097
:101E200031C180917E02826080937E022BC1953009
:101E300041F48091E80080FFFCCF20682093E3000C
:101E400021C1963009F05FC0EB8CFC8C1092E90048
:101E50001092A1021092A002123091F510929F02EE
:101E600010929E020E94C40D99E0BE016F5F7F4FE9
:101E7000DB01E92F1D92EA95E9F799831A8391E036
:101E80009E8390EA98879AEF99872091A0023091DB
:101E9000A102275F3F4F3C832B838D831092E90083
:101EA0001092A1021092A002F0929F02E0929E0274
:101EB00049E050E080E00E94060D0E94C40DE2C09F
:101EC000F0929F02E0929E020E947918DC01129625
:101ED000ED90FC901397E114F10409F4C0C0D70110
:101EE000ED91FC910480F581E02DBE016B5E7F4F8A
:101EF000C7010995009719F00CF0C4C0C7C0F701DD
:101F0000E084F184E8CF973009F4C0C0983021F420
:101F100081E08093F100B6C0993009F0B3C08370BE
:101F200009F0B4C0E6E2F1E081E021E036E390811F
:101F3000992361F08093E9002093EB0091919093B5
:101F4000EC003093ED008F5F873089F78EE7809348
:101F5000EA001092EA008F898093A40293C08B8DCF
:101F60009C8D1092E9001092A1021092A002909311
:101F70009F0280939E02898D811156C08E899D8912
:101F8000913A59F4813209F081C047E050E065E0B0
:101F900071E080E00E94060D75C0913209F076C0B4
:101FA000833289F4888D90E0982F88272F89822B9F
:101FB000A0E0B0E08093010190930201A09303019F
:101FC000B09304015FC0803269F48091E80082FF21
:101FD000FCCF67E085E091E00E942D0D8BEF8093B0
:101FE000E80006C0823209F04DC08F8980930C0151
:101FF00080917C02882319F0EEEFFAE002C0E0E065
:10200000F8E08091050190910601A0910701B0913F
:102010000801803B9440A105B10509F07BC0809187
:102020000C0180FF93C076C00E947918DC011296E3
:102030000D911C9113970115110541F1D801ED91F6
:10204000FC910190F081E02DBE016B5E7F4FC801D5
:102050000995811117C0F80100851185ECCF113069
:1020600009F44EC0133091F48F89882309F445C0D8
:10207000823081F440E860E18EEC98E10E94C90C66
:10208000882321F08EEF8093E80079C081E280936D
:10209000EB0075C0813029F440E86BE082EC98E1F8
:1020A000EDCF833099F70E947918DC011296ED90FC
:1020B000FC9013978E010F5F1F4F6801E114F1042C
:1020C00079F0D701ED91FC910680F781E02DB80100
:1020D000C7010995080F111DF701E084F184EECFC7
:1020E000D8011C92F60101900020E9F73197BF0159
:1020F0006C197D0940E0C601C1CF6CEA78E102C0ED
:1021000060EB78E16115710509F2FB01449150E043
:1021100080E840CF0FB6F894A89580916000886160
:1021200080936000109260000FBEA895EE3F2AE0F9
:10213000F20739F08091FE0A9091FF0A9183808323
:10214000A1CF1092FF0A1092FE0A9CCFEE3F8AE0C8
:10215000F80731F0808191819093FF0A8093FE0A05
:1021600087E797E7918380839BE088E10FB6F89437
:10217000A895809360000FBE9093600083CF6C960B
:102180000FB6F894DEBF0FBECDBFDF91CF91FF91A8
:10219000EF91BF91AF919F918F917F916F915F91DF
:1021A0004F913F912F911F910F91FF90EF90DF90F2
:1021B000CF900F900FBE0F901F901895611571056D
:1021C00079F0FB0101900020E9F73197AF01461B40
:1021D000570BDC01ED91FC910280F381E02D099415
:1021E00080E090E008953FB7F89480919A02909132
:1021F0009B02A0919C02B0919D0226B5A89B05C0B0
:102200002F3F19F00196A11DB11D3FBFBA2FA92F75
:10221000982F8827820F911DA11DB11DBC01CD01F2
:1022200042E0660F771F881F991F4A95D1F70895DE
:102230008F929F92AF92BF92CF92DF92EF92FF92D6
:102240006B017C010E94F3104B015C01C114D104AD
:10225000E104F104F1F00E94F310DC01CB018819D4
:102260009909AA09BB09883E9340A105B10570F3FD
:1022700021E0C21AD108E108F10888EE880E83E057
:10228000981EA11CB11CC114D104E104F10419F77A
:10229000DDCFFF90EF90DF90CF90BF90AF909F90F9
:1022A0008F9008958F929F92AF92BF92CF92DF92BC
:1022B000EF92FF920F931F93CF93DF935C016B011B
:1022C0007A0180910C01882309F45BC08091A402FB
:1022D000882309F456C080917D0280FF05C080915B
:1022E000E00082608093E000E70110E00AEF83E005
:1022F000882E9AE3992E2097D9F10E9468188111AF
:102300000AC0015009F43DC061E070E080E090E057
:102310000E941811F0CF282F30E0C217D3070CF419
:102320008C2F4FB7F8948092E9009091E80095FFC8
:102330001DC0282F30E0C21BD30BF601982F9150FF
:1023400020F081918093F100FACFC20ED31E1123A9
:1023500019F09092E80009C08091E80085FD06C060
:102360009092E80011E0209709F010E04FBFC3CF32
:102370001111C3CF5D9884E68093A2021E141F043E
:1023800044F081E090E0F5019383828380E090E067
:1023900001C0C701DF91CF911F910F91FF90EF9086
:1023A000DF90CF90BF90AF909F908F9008951F9235
:1023B0000F920FB60F9211242F933F938F939F93F9
:1023C000AF93BF938091800290918102A09182028D
:1023D000B09183023091990223E0230F2D3720F42E
:1023E0000196A11DB11D05C026E8230F0296A11D6F
:1023F000B11D209399028093800290938102A09353
:102400008202B093830280919A0290919B02A091E4
:102410009C02B0919D020196A11DB11D80939A026C
:1024200090939B02A0939C02B0939D02BF91AF91A9
:102430009F918F913F912F910F900FBE0F901F9002
:102440001895CF92DF92EF92FF920F931F93CF9345
:10245000DF930E94A00D811520E8920761F480911E
:1024600071008D7F8093710010929100469847987B
:10247000109292028BC021E020939202813020E8DA
:10248000920751F48091A5029091A6029093A80220
:102490008093A7020E94A00D97FD05C02091910294
:1024A000222309F43FC02091900221113BC021E07A
:1024B00020939302EC01DF77209769F481E0809309
:1024C000940246983FE9C32E3FE0D32EE12CF12C35
:1024D000CAEFD0E014C08E0120E030E060E472E486
:1024E0008FE090E0A90198010E94AC2369017A0174
:1024F00081E0C81AD108E108F10810929402E09135
:102500000507F09106070995811103C081E08093CA
:102510009402809193028823B9F1809194028111F1
:1025200033C003C010929302C5CF46992DC0479A7D
:102530000E94A00D009771F09C01DE010E94002412
:10254000DC01CB0129E0B595A795979587952A954C
:10255000D1F703C08FEF9FEFDC01109290002AE0CB
:1025600020939100D0929900C09298008093950298
:1025700090939602A0939702B09398028091710075
:1025800082608093710002C04798D2CFDF91CF91D3
:102590001F910F91FF90EF90DF90CF9008951F92C1
:1025A0000F920FB60F9211242F933F934F935F9387
:1025B0006F937F938F939F93AF93BF93EF93FF930B
:1025C0008091950290919602A0919702B091980205
:1025D000892B8A2B8B2B81F18091940281110BC066
:1025E00098B180E4892788B980919302882319F0F3
:1025F00088B1805888B98091950290919602A091F7
:102600009702B0919802181619061A061B06B4F420
:102610008091950290919602A0919702B0919802B4
:102620000197A109B1098093950290939602A09316
:102630009702B093980202C00E942112FF91EF917D
:10264000BF91AF919F918F917F916F915F914F91CA
:102650003F912F910F900FBE0F901F901895BC01C6
:1026600080E090E00C9418118FB18095807F669B7C
:1026700088601C9B8460089560387105D0F44034F4
:102680005105B8F4E2E6F3E180E1849FD001A0783F
:102690001124A60F4770E40FF11D8491A655BD4F7C
:1026A000222319F06C91862B03C080956C918623B0
:1026B0008C9308952F923F924F925F926F927F92E8
:1026C0008F929F92AF92BF92CF92DF92EF92FF9242
:1026D0000F931F93CF93DF93CDB7DEB729970FB634
:1026E000F894DEBF0FBECDBFFC016A3069F42589C6
:1026F0008189928938E0239F800D911D1124928B4E
:10270000818B108A1786AAC06D3009F4A7C09987FB
:102710008887F588348823886188728807851089BE
:1027200000381105C4F0A885B98555962C915597A8
:10273000422F50E01F968D919C915097B6E02B9FB1
:10274000800D911D1124E885F985908B8787268956
:1027500021116EC083C0F0E46F16710424F7C80124
:1027600025E0F29E800D911D112418161906DCF645
:102770008F2D90E09C838B83C301A8E0FA9E800D8F
:10278000911D11241816190674F6B5E06B9FB0015F
:102790001124FB01E659FC4EFA83E98330E0888579
:1027A000998504969E838D83E981FA81E490353082
:1027B00009F4E12C430188E0482EE0FC02C0532CD0
:1027C00001C0522C51100BC0321009C0E6944A943B
:1027D0008B819C81880E991E4110EFCF1BC0680130
:1027E0008C2D801B8F1590F754018A2D88198F1519
:1027F00068F4252DA501B6018D819E813F830E943D
:102800003C139FEFA91AB90A3F81EFCFAFEFCA1A65
:10281000DA0AE6CF3F5FEB81FC810E0F1F1F898133
:102820009A8101969A838983363009F0BDCF7BCF98
:102830006AEF64039001659F300D112420583F4FCB
:10284000281739075CF4A885B985ED91FC9111979B
:102850000190F081E02D6AE0CD01099581E090E0E2
:1028600029960FB6F894DEBF0FBECDBFDF91CF9192
:102870001F910F91FF90EF90DF90CF90BF90AF909E
:102880009F908F907F906F905F904F903F902F9090
:1028900008958091B3068F3F69F01CF4883F34F4AB
:1028A0000895882351F0853054F0089587FD8F5F97
:1028B000859506C01092B306089581E001C0880F87
:1028C0008093B30608958091B306882359F01CF4D1
:1028D0008C3F34F40895813039F0893044F0089504
:1028E000880F06C08FEF04C01092B3060895859537
:1028F0008093B30608958091B4068F3F69F01CF46D
:10290000883F34F40895882351F0853054F00895B9
:1029100087FD8F5F859506C01092B406089581E00B
:1029200001C0880F8093B40608958091B40688236F
:1029300059F01CF48C3F34F40895813039F089301B
:1029400044F00895880F06C08FEF04C01092B406BB
:10295000089585958093B40608954F925F926F9283
:102960007F928F929F92AF92BF92CF92DF92EF921F
:10297000FF920F931F93CF93DF9300D000D0CDB77A
:10298000DEB7DC014115510509F4F3C0FA01B4903A
:10299000319694914E5F5F4FCB2CD12C211102C008
:1029A000EE2039F1E92FE695E695E6958E2E912CED
:1029B000E1E0F0E0892F877011F4E0E0F0E0E80D4D
:1029C000F91DCE9E4001CF9E900CDE9E900C1124EE
:1029D0000115110539F0E89CF001E99CF00D112476
:1029E0000E0F1F1F289DF001299DF00D11244E0F81
:1029F0005F1FFD01EC0DFD1D1E161F060CF0B9C07A
:102A0000A038B1050CF0B5C09B01290F311D12167D
:102A100013060CF0AEC0603471050CF0AAC041156D
:102A2000510509F4A6C0262F2770522E7B0177FF8F
:102A300003C037E0E30EF11C83E0F594E7948A9538
:102A4000E1F78E2D77FF04C0552011F08FEF8E0D2A
:102A5000B7FF05C0662777276A1B7B0B02C060E0C3
:102A600070E0E038F10524F020E82A1B422E01C076
:102A70004B2C461AE82E082E000CFF088F3F1CF442
:102A8000FE2DF09501C0F0E0E1E0292F277009F458
:102A9000E0E09695969596959E0FE90EF11C39E02B
:102AA000E316F10414F098E0981B9F2E980E292D40
:102AB00030E82303A00DB11D1124A60FB71F7B0121
:102AC000FB9DE00CF11C11244E0D5F1D61E070E0D8
:102AD000052C02C0660F771F0A94E2F70E0D1F1D2A
:102AE000882E890E981409F444C0CD0186559D4F57
:102AF0005C01E12CF12CE414A0F5F801EE0DFF1DB2
:102B0000E491E69FC001E79F900D11248095909578
:102B10009C838B83FA01EE0DFF1DE491E69F30014B
:102B2000E79F700C11247A82698297FC05C0F50139
:102B300090818923682A6082552061F0F6E0F915BA
:102B40004CF0F501E058FF4F90818C8189239A81E8
:102B5000892B80832FEFE21AF20A3FEFA31AB30A00
:102B6000CACF93944C0D5D1D0C0D1D1DA058BF4F79
:102B7000B9CF0F900F900F900F90DF91CF911F91D1
:102B80000F91FF90EF90DF90CF90BF90AF909F900C
:102B90008F907F906F905F904F9008959C01E1E738
:102BA000F0E090819D7F90831092A902E1E3F7E02D
:102BB000F093A802E093A702F093A602E093A50287
:102BC0003183208382E390E09383828375836483DF
:102BD0009783868351874087938782870C9421123D
:102BE0009C01240F311D1216130684F580389105BF
:102BF0006CF5FC0197FF02C0E0E0F0E02138310500
:102C000014F020E830E02E1BAB014770552781E01F
:102C100090E001C0880F4A95EAF7809577FF02C0DF
:102C2000695F7F4F93E0759567959A95E1F7769583
:102C3000762F662777956795E60FF71FE655FD4FC8
:102C4000215020F0908198239193FACF08952F92EC
:102C50003F924F925F926F927F928F929F92AF922C
:102C6000BF92CF92DF92EF92FF920F931F93CF9379
:102C7000DF93CDB7DEB728970FB6F894DEBF0FBE4F
:102C8000CDBF5A01822E912C9C01280D391D37FD94
:102C9000C4C0803891050CF0C0C09B01200F311DCD
:102CA00037FDBBC0603471050CF0B7C0AB0177FFD6
:102CB00004C044275527461B570B477055279B01D7
:102CC00077FF02C0295F3F4FE3E035952795EA95EE
:102CD000E1F777FF08C02150310968E070E0DB01BF
:102CE000A41BB50BAD01602F66956695669570E0E7
:102CF000077011F06F5F7F4FDB01A20FB31FBA8324
:102D0000A98339017694762C662477946794680EAB
:102D1000791EE12CF12C00E010E02301B0E84B0E0D
:102D2000511C68E070E0DB01A41BB50BBC83AB83D6
:102D300069817A812617370709F46FC02830310579
:102D400009F46BC02F3FBFEF3B070CF45BC0B2012F
:102D5000600F711FDB01A655BD4FBE83AD83D80147
:102D6000A60DB71DA655BD4F6C0160E070E068155B
:102D700079050CF047C0E0E8CE16D10409F442C052
:102D8000D7FC34C02F3FFFEF3F0709F442C0FB01DF
:102D9000EE0DFF1DEA0DFB1DE491042E01C0EE0FA8
:102DA0000A94EAF73C90E329EC9341155105F1F0C0
:102DB00027303105D9F0FB01EE0DFF1DEA0DFB1D9B
:102DC000E4912E2E312CF1010B8002C0F595E79590
:102DD0000A94E2F7F887EF83ED81FE813080EF817E
:102DE000F885E3291F01ED81FE8120826F5F7F4F0F
:102DF000ED81FE813196FE83ED83FFEFCF1ADF0A6E
:102E00001196B5CF2F5F3F4F00581F4FE80CF91CAC
:102E10008FCF4115510579F6E9CF28960FB6F89472
:102E2000DEBF0FBECDBFDF91CF911F910F91FF90FD
:102E3000EF90DF90CF90BF90AF909F908F907F905A
:102E40006F905F904F903F902F900895CF93DF93B6
:102E5000BC0185EB96E00E94DE10EC0169E772E0B0
:102E600085EB96E00E94DE108C0F9D1FDF91CF91C5
:102E7000089580E0EAEAF2E081118FEF0024819367
:102E80008193819381930394D1F7EEE0F7E0128A66
:102E9000118A108A17860895EAEAF2E080E0A0E03D
:102EA000B8E000800EBC8111012C1197A0FDFDCF70
:102EB0000192B9F70DB408958F929F92AF92BF928D
:102EC0000F931F93CF93DF93CDB7DEB7A1970FB6C4
:102ED000F894DEBF0FBECDBF19A2423008F44AE01D
:102EE0008E010F5D1F4F842E912CA12CB12CA501BA
:102EF00094010E94DE23E62FB901CA010150110995
:102F0000EA3014F4E05D01C0E95CD801EC93232BB6
:102F1000242B252B61F7B8018EE097E00E94DE108C
:102F2000A1960FB6F894DEBF0FBECDBFDF91CF9153
:102F30001F910F91BF90AF909F908F9008950F9326
:102F40001F93CF93DF938C01C0E0D0E0F801EC0F2A
:102F5000FD1F6491662371F0E0910E07F0910F0759
:102F60000190F081E02D8EE097E00995892B11F01A
:102F70002196ECCFCE01DF91CF911F910F91089553
:102F80004F925F926F927F928F929F92AF92BF9279
:102F9000CF92DF92EF92FF920F931F93CF93DF9325
:102FA000EC018B01442ECB018C1B9D0B97FF03C0C2
:102FB00091958195910955245394813891053CF45C
:102FC000512CC80100E810E0E12CF12C0FC00C17C7
:102FD0001D0734F07E0180E890E0C0E0D0E006C03C
:102FE00078018E0180E090E0C0E8D0E038016E18F2
:102FF0007F085C01AC1ABD0AB7FE03C0B194A1946E
:10300000B108630177FE03C02FEFC21AD20AD5942C
:10301000C794C817D90714F08FEF01C081E0882E3C
:10302000880F99080E151F05C4F0242D552019F09E
:10303000A701BE0102C0AE01B70182E197E00E9484
:103040003C13CA18DB08D7FE04C0C80DD91DC60C36
:10305000D71C8FEFE81AF80AE5CFDF91CF911F91C7
:103060000F91FF90EF90DF90CF90BF90AF909F9027
:103070008F907F906F905F904F900895FC018091AA
:10308000A402811103C08FEF9FEF08959FB7F894BA
:1030900082E08093E9002091F20030E012161306DE
:1030A00014F421E030E02115310559F0289884E628
:1030B0008093A3028091F10080838091F2008823A5
:1030C00019F09FBFC90108958BE68093E800F9CFFE
:1030D0002FB7F89483E08093E9009091E800892F5E
:1030E000807295FF04C09091F20080E4891B2FBF8D
:1030F00008958091290781110DC082E080932507F2
:1031000084E080932607109228071092270781E019
:103110008093290785E297E00895CF93DF93CDB799
:10312000DEB72B970FB6F894DEBF0FBECDBF7894F5
:1031300084B5826084BD84B5816084BD85B58260BC
:1031400085BD85B5816085BD80916E00816080936D
:103150006E001092810080918100826080938100D6
:1031600080918100816080938100809180008160E6
:103170008093800080919100826080939100809183
:103180009100816080939100809190008160809394
:1031900090008091C10084608093C1008091C10043
:1031A00082608093C1008091C10081608093C100E2
:1031B0008091C30081608093C3008091C0008260D1
:1031C0008093C0008091C20081608093C200809192
:1031D0007A00846080937A0080917A008260809384
:1031E0007A0080917A00816080937A0080917A00E1
:1031F000806880937A001092A40210927E0210924E
:103200007D028091D70081608093D70080EA80930F
:10321000D80089B5806189BD89B5826089BD09B44E
:1032200000FEFDCF61E070E080E090E00E941811A8
:103230008091D8008F7C80618093D8008091E000DD
:10324000807F8093E0008091E1008E7E8093E1009A
:103250008DE08093E200559A209AEEEFFFE785918A
:1032600094918B3F9C4D19F481E080937C0281EC1A
:1032700080937C0085B1806F85B984B1877E84B9E5
:1032800084B1876E84B95E9A5F988AB1806D8AB97D
:10329000769A6E9881B3806F81BB899880B38D7068
:1032A00080BB80E58CBD81E08DBD85E090E00E9413
:1032B0002F135F9A85E090E00E942F135E985C9830
:1032C000E8EFF3E08DE08E0F94919EBD00000DB409
:1032D00007FEFDCF31968E13F7CF5C9A81E880937D
:1032E0006400809165008160809365000E944C17A6
:1032F0000E94341387FF24C05C9885EA8EBD0000CD
:103300000DB407FEFDCF5C9A2E982F982D988091D2
:10331000640080628093640081E083BF889513BE5F
:10332000FCCF2D980E9434138478843871F00E9469
:1033300034138471843129F188EC90E00E942F13BA
:103340000E94341382FDEDCF38C02D9A88EC90E0B6
:103350000E942F132F9882E090E00E9496238F3FC7
:1033600029F06FEF82E090E00E949E2384EF91E0CD
:103370000E942F132F9A0E94341384788438D9F333
:10338000D6CF2D9A88EC90E00E942F132E9882E0E1
:1033900090E00E949623882329F060E082E090E08C
:1033A0000E949E2384EF91E00E942F132E9A0E9488
:1033B000341384718431D9F3BFCF2D9A82E090E029
:1033C0000E949623882331F03E9A3F9A81E08093B1
:1033D0007F0204C010927F023E983F980E943917E6
:1033E00080E1809319079E012F5F3F4F1901412C07
:1033F000512CFFE26F2E712C35E0320D3F838FB7D9
:10340000F894409180025091810260918202709103
:1034100083028FBF80911A07942F981B892F909158
:103420001B07992329F080931C0710921B0710C7D4
:1034300090911907891748F48F5F891708F008C71A
:1034400081E083BF889513BE03C711E010931B076B
:1034500040931A0780911507909116070196909353
:1034600016078093150780911707809318070E940D
:103470003413809317070E94391780918F0282308E
:1034800009F44FC130F4882359F0813009F458C051
:1034900048C4833009F489C1843009F49EC341C40F
:1034A00000E420E842E65FE060E070E080E090E069
:1034B0000E942716E12CF12C00E810E0D090860243
:1034C0004D2DB70180E090E00E94F015B7016F5FCD
:1034D0007F4F4D2DC8018D1991090E94F015A2E072
:1034E000EA0EF11CB0E4EB16F10441F7D7FCB8C6C4
:1034F000D394D092860200E010E021E130E0009306
:10350000AA061093AB062093AC063093AD0640920A
:10351000AE065092AF066092B0067092B10610925D
:10352000070710920A0710920B0710920C071092CF
:103530000D0780E890E09093090780930807F1C396
:1035400080E890E09093090780930807109207079E
:10355000C090AC06D12CF090B00686E0E1E1F1E03D
:10356000D10101900D928A95E1F700E420E842E64E
:103570005BE060E070E080E090E00E942716209120
:103580008D02E22E04E41BE042E55BE060E370E0C4
:1035900081E690E00E94AD14809115079091160786
:1035A0006FE070E00E941B24892B39F481E0909138
:1035B0008D02911180E080938D022091B20660917E
:1035C000B00670E08091AC06E22E0EEF1AE040E209
:1035D0005BE090E00E94AD14809115079091160772
:1035E00083709927892B09F079C00E94341385FFD5
:1035F00005C00E94631481E08093B2060E943413D8
:1036000086FF04C00E9449141092B2060E9434132F
:1036100083FF44C08091B206811111C020918E02B7
:103620006091B00670E0685F7F4F8091AC06E22E3B
:1036300008EB1AE04AED5AE090E00E94AD14809148
:10364000B206813089F420918E026091B00670E05C
:10365000685F7F4F8091AC06E22E02E71AE044E9F2
:103660005AE090E00E94AD148091150790911607E2
:1036700065E070E00E941B24892B31F480918E025A
:103680008F5F817080938E020E94951441E250E01A
:1036900061E470E081E290E00E94CE158091150710
:1036A0009091160787709927892BC1F40E943413D3
:1036B00083FF0E947B140E94341385FD0FC00E947B
:1036C000341386FD0BC08091B306181614F40E94C3
:1036D00063148091B30687FD0E94491429813A81C1
:1036E0008B819C815D814E81B6016F5E7F4F261775
:1036F00037070CF016C3250F311DC216D3060CF088
:1037000010C32F2D30E0B901685F7F4F86179707F0
:103710000CF007C3840F911D281739070CF001C363
:10372000A6C520E030E048E350E02093AA0630939D
:10373000AB064093AC065093AD064092AE06509255
:10374000AF066092B0067092B1061093B206109266
:103750008E0289E490E090938A02809389028FE23E
:1037600090E090938C0280938B0210928D028CE3F8
:10377000809300011092880210928702109307072D
:1037800080E090E0A0EEBFEF80930A0790930B07D4
:10379000A0930C07B0930D0780E191E09093090787
:1037A0008093080783E080938F0220911507309162
:1037B0001607C9016CE370E00E941B24892B61F499
:1037C00090910001923010F0915004C084E08093F9
:1037D0008F0294E09093000123703327232B09F08C
:1037E00079C00E94341385FF05C00E94631481E0F4
:1037F0008093B2060E94341386FF04C00E944914CD
:103800001092B2060E94341383FF44C08091B20626
:10381000811111C020918E026091B00670E0685F46
:103820007F4F8091AC06E22E08EB1AE04AED5AE099
:1038300090E00E94AD148091B206813089F420910D
:103840008E026091B00670E0685F7F4F8091AC0699
:10385000E22E02E71AE044E95AE090E00E94AD143B
:10386000809115079091160765E070E00E941B2477
:10387000892B31F480918E028F5F817080938E024C
:103880000E94951441E250E061E470E081E290E032
:103890000E94CE1580911507909116078770992781
:1038A000892BC1F40E94341383FF0E947B140E9471
:1038B000341385FD0FC00E94341386FD0BC0809128
:1038C000B306181614F40E9463148091B30687FDA2
:1038D0000E9449144091AC068091B00600910A07FD
:1038E00010910B0720910C0730910D076091890210
:1038F00070918A02620F731FFB013796E738F1055A
:1039000008F070C050E020918B0230918C02DA01F7
:1039100051966A177B070CF065C04E175F070CF0D5
:1039200061C090E0AC01485F5F4F241735070CF091
:1039300059C0285F3F4F821793070CF053C0809106
:103940008702909188020296909388028093870262
:10395000E0910707F0E0E35EFE4F208130E040E0B9
:1039600050E0211531054105510571F0288739874F
:103970004A875B870E948823288539854A855B852D
:103980000E94AC239B01AC01E0910707F0E0EE0F31
:10399000FF1FE95EFE4F8081918130E0220F331FCF
:1039A000FC01E20FF31FE491A8E0EA9FF00111246B
:1039B000F0938A02E09389022F5F3F4FFC01E20FF0
:1039C000F31FE491B8E0EB9FF0011124F0938C0217
:1039D000E0938B0242E550E065EA70E087E295E013
:1039E0000E94CE15E0910707F0E0EE0FFF1FE15EA9
:1039F000FE4F80809180E12CF12C5401C12CD12C00
:103A000080910A0790910B07A0910C07B0910D07C8
:103A1000C6018A0F9B1F9C01295F3F4F2738310544
:103A200008F458C4E8E0CE0ED11CFFEFAF1ABF0A6D
:103A300000E1C01601E0D00619F712E2810E911CD8
:103A400028E0E20EF11C30E4E316F104B1F64091F7
:103A50000A0750910B0760910C0770910D07809138
:103A6000890290918A02860F971F9C01295F3F4F20
:103A700027383105F0F420918D0260918B0270910E
:103A80008C02E22E04E41BE042E55BE00E94AD14F0
:103A900080911507909116076FE070E00E941B243B
:103AA000892B39F481E090918D02911180E080930F
:103AB0008D0241E065E370E085E390E00E94C0176D
:103AC000E12CF12C07E310E021E0A801B70182E12D
:103AD00097E00E943C130F5F1F4F00341105A1F7C0
:103AE0004FEFE41AF40A50E8E516F10459F7E12C17
:103AF00000E718E020E040E759E067E370E080E08D
:103B000090E00E94AD1482E090E090931E078093B5
:103B10001D0789E390E09093200780931F078EE6AE
:103B200098E00E949F178091870290918802F1018E
:103B30006AE070E00E941B248193CB01AF81AE1339
:103B4000F7CF8E010A5F1F4FF80162918F0170E07D
:103B500080E090E04AE00E945C1702151305A1F78F
:103B600082E390E090931E0780931D0789E390E025
:103B70009093200780931F0708E028E046E658E06E
:103B800068E370E088E290E00E94271680910001CF
:103B90002AE0622F0E940F24192F0E940F24692F00
:103BA00070E080E090E04AE00E945C17612F70E0D6
:103BB00080E090E04AE00E945C172091B20660919C
:103BC000B00670E08091AC06E22E0EEF1AE040E203
:103BD0005BE090E00E94AD14A4C0E0908402F090FD
:103BE000850200E420E845E054E060E070E0C701B1
:103BF0000E94271620E845E054E060E070E0C7012D
:103C000080589F4F0E9427168091150780FD11C094
:103C1000F1E0EF1AF10800E8E0160FEFF0062CF0E3
:103C2000F0928502E092840204C010928502109204
:103C30008402E12CF12C00E110E020E0A801B701A2
:103C400082E197E00E943C130F5F1F4F0F32110576
:103C5000A1F71FEFE11AF10A20E8E216F10459F783
:103C600041E061E170E081E190E00E94C01741E035
:103C70006DE270E08DE290E00E94C01740E060E3EA
:103C800070E080E390E00E94C01740E062E370E0E3
:103C900082E390E00E94C01785E290E090931E07B7
:103CA00080931D0786E190E09093200780931F0783
:103CB0008CE098E00E949F178FE190E090931E07A0
:103CC00080931D0782E290E09093200780931F0766
:103CD00085E098E00E949F1780918702909188026A
:103CE000F1016AE070E00E941B248193CB013F81C7
:103CF0003E13F7CF8E010A5F1F4FD8016E918D01E1
:103D000070E080E090E04AE00E945C170215130525
:103D1000A1F78091180782FD04C08091170782FDEA
:103D2000E7C20E944C171091B406812F012E000C9F
:103D3000990BAA0BBB0BDC01992788276C017D012D
:103D4000FF0CCC08DC2C76019C01AD016C2D7C2D88
:103D50008C2D9C2D00E10E942F247901042FB52F7A
:103D6000F62FE72F6C01A0E00E94662474F4215026
:103D70003109484F5F4F6F4F7F4F8F4F9F4F7901F2
:103D8000042FB52FF62FE72F6C019701402F5B2FE3
:103D90006F2F7E2FC60103E10E94482469017A013A
:103DA00017FF7EC0E0910707F0E0EE0FFF1FE15E16
:103DB000FE4F408151816091AC0600910A0710913D
:103DC0000B0720910C0730910D078090AE06909064
:103DD000AF06A090B006B090B106C501BB2797FD15
:103DE000B095AB2F782F777009F048C070E0FB01D9
:103DF000E21BF30B9F01E82FE695E695E695E1506F
:103E0000B90113E0769567951A95E1F7A1E0A60F41
:103E100027703327232B11F02A2F01C02FEFF2E256
:103E2000EF9FC0011124FC01E60FF11DE40FF51F07
:103E3000E491E23011F0E93019F482E591E01BC021
:103E4000FC01EA0FF11DE40FF51FE491E23011F0DF
:103E5000E93019F48EE691E00EC0AF3F79F0FC0135
:103E6000E20FF11DE40FF51F4491423011F049308B
:103E700029F48AE891E00E94261712C0C814D904D8
:103E8000EA04FB040CF038C28C0C9D1CAE1CBF1C59
:103E90008092AE069092AF06A092B006B092B106A4
:103EA0008091B40618160CF089C0E0910707F0E085
:103EB000EE0FFF1FE15EFE4F208131811091AC06B5
:103EC00040910A0750910B0760910C0770910D0704
:103ED0008090AE069090AF06A090B006B090B1066C
:103EE000C501BB2797FDB095AB2FE82FF0E0E77039
:103EF000FF27379709F048C0E12FF0E0AF01461BDC
:103F0000570BE82FE695E695E695EF5FBA01F3E0EB
:103F100076956795FA95E1F7A1E0A60F47705527CA
:103F2000452B11F04A2F01C04FEF02E2E09FC00184
:103F30001124FC01E60FF11DE20FF31FE491E230C2
:103F400011F0E93019F486EA91E01BC0FC01EA0F98
:103F5000F11DE20FF31FE491E23011F0E93019F4A2
:103F600085EC91E00EC0AF3F79F0840F911DF9010F
:103F7000E80FF91F2491223011F0293029F484EE42
:103F800091E00E9426171AC080E090E0AFE2B0E016
:103F90008C199D09AE09BF0988169906AA06BB06A9
:103FA0000CF0B3C1C80CD91CEA1CFB1CC092AE06B5
:103FB000D092AF06E092B006F092B1061091B3062F
:103FC000812F012E000C990BAA0BBB0BDC0199274A
:103FD00088276C017D01FF0CCC08DC2C76019C014C
:103FE000AD016C2D7C2D8C2D9C2D00E10E942F2489
:103FF0007901042FB52FF62FE72F6C01A0E00E9466
:10400000662474F421503109484F5F4F6F4F7F4F42
:104010008F4F9F4F7901042FB52FF62FE72F6C019B
:104020009701402F5B2F6F2F7E2FC60103E10E9467
:10403000482469017A0117FF82C0E0910707F0E088
:10404000EE0FFF1FE15EFE4FA081B1814091AA06F5
:104050005091AB066091AC067091AD0680900A0756
:1040600090900B07A0900C07B0900D07262F30E022
:104070002A193B09C90187709927892B09F044C087
:10408000C90133E0969587953A95E1F78150009103
:10409000AE061091AF062091B0063091B1068901AD
:1040A000332717FD3095232FE02FE695E695E6950B
:1040B000077019F031E03E0F01C03FEF90E08C0136
:1040C00022E2E29F000D111D1124F801EA0FFB1FEF
:1040D000E491E23011F0E93019F483E092E011C08C
:1040E0003F3F91F0FC0102E2309FE00DF11D1124F1
:1040F000EA0FFB1F8491823011F0893029F480E2AD
:1041000092E00E9426171BC0B7FE58C14115510509
:1041100018E3610771050CF001C18C149D04AE0415
:10412000BF040CF016C18C189D08AE08BF08809221
:104130000A0790920B07A0920C07B0920D0780918E
:10414000B30618160CF084C0E0910707F0E0EE0FFC
:10415000FF1FE15EFE4FA081B1814091AA06509100
:10416000AB066091AC067091AD0680900A07909006
:104170000B07A0900C07B0900D07262F30E02A19EE
:104180003B092F5E3F4FF901E770FF27379709F092
:1041900044C0C901F3E096958795FA95E1F78F5FE2
:1041A0000091AE061091AF062091B0063091B10695
:1041B0008901332717FD3095232FE02FE695E695EB
:1041C000E695077019F031E03E0F01C03FEF90E037
:1041D0008C0122E2E29F000D111D1124F801EA0F6B
:1041E000FB1FE491E23011F0E93019F48DE392E025
:1041F00011C03F3F91F0FC0102E2309FE00DF11D44
:104200001124EA0FFB1FE491E23011F0E93029F4A8
:104210008BE592E00E9426171BC04115510508E36B
:10422000600771050CF007C1DB01CA018C0D9D1DF3
:10423000AE1DBF1D009718E3A107B1050CF0E2C049
:104240008093AA069093AB06A093AC06B093AD06FC
:1042500080E090E0892B09F4D2C80E940000CCC80D
:1042600080E88093860281E080938F0244C9809128
:1042700064008E7F8093640080917A0080648093D4
:104280007A0080917A0086FDFCCF00917800109131
:1042900079000E94F31020E030E0980111270027F8
:1042A000600F711F821F931F6115710581059105B4
:1042B00011F00E948D2380916400816080936400DE
:1042C00045EA50E066E271E08BE092E00E94CE1594
:1042D00082E00FC0F5014491F8E04F9FA001112446
:1042E0004A5E574F08E028E0B7010E9427169ACB94
:1042F00081E080938F0215CD1092AE061092AF062A
:104300001092B0061092B106CBCD4092AE065092FC
:10431000AF066092B0067092B10650CE41155105BD
:1043200028E362077105F1F48C149D04AE04BF0408
:104330000CF4F9CED701C601D89688199909AA09B3
:10434000BB098093AA069093AB06A093AC06B093EA
:10435000AD0610920A0710920B0710920C071092EC
:104360000D07EDCEDB01CA018C0D9D1DAE1DBF1DDD
:104370008130910538E3A307B10594F588E3A80ED1
:10438000B11C841A950AA60AB70A8C189D08AE08B3
:10439000BF0880920A0790920B07A0920C07B09278
:1043A0000D0700E010E028E330E00093AA06109328
:1043B000AB062093AC063093AD06C1CE8827992773
:1043C000DC018C199D09AE09BF0984179507A60762
:1043D000B7077CF4DB01CA018C0D9D1DAE1DBF1D0E
:1043E0008093AA069093AB06A093AC06B093AD065B
:1043F000A6CE1092AA061092AB061092AC061092AE
:10440000AD069DCE80E090E0A8E3B0E0841B950B64
:10441000A60BB70B8C199D09AE09BF0980930A073B
:1044200090930B07A0930C07B0930D0720E030E0AA
:1044300048E350E087C08091080790910907411533
:10444000510538E36307710509F041C0B501A401C6
:104450004C195D096E097F0920E830E0281B390BF3
:10446000890120E030E09801112700270417150783
:10447000260737074CF440930A0750930B076093C5
:104480000C0770930D07E4CE80589109A0E0B0E0CE
:10449000DC0199278827880E991EAA1EBB1E48E3B7
:1044A000A40EB11CC80CD91CEA1CFB1CC092AA06A5
:1044B000D092AB06E092AC06F092AD0600930A07EC
:1044C00010930B0720930C0730930D07C1CE20E803
:1044D00030E0D901A81BB90BCD01A0E0B0E0DC01B0
:1044E00099278827C40ED51EE61EF71E8816990642
:1044F000AA06BB0699F4C114D104BFE6EB06F10489
:10450000A4F000E010E02FE630E00093AA0610933C
:10451000AB062093AC063093AD069ACEC114D104FD
:1045200011E1E10614E0F1064CF4C092AA06D09223
:10453000AB06E092AC06F092AD068ACE20E030E009
:104540004FEE53E02093AA063093AB064093AC069F
:104550005093AD067DCE0F931F93CF93DF938C01C5
:1045600081E090E00E94962380FF31C08AE090E0D5
:104570000E9496239FEF980F9E3F48F522E330E07C
:10458000D80150963C932E931F9728E330E0529623
:104590003C932E935197CBE0D0E0D801ED91FC9164
:1045A0000190F081E02D682FC8010995CE010E948D
:1045B00096232196C131D10581F70E944C1788EED0
:1045C00093E0DF91CF911F910F910C942F13DF9106
:1045D000CF911F910F91089504970C94AB22E5EBB6
:1045E000F6E01382128288EE93E0A0E0B0E08483CC
:1045F0009583A683B78380E391E0918380838FEFD7
:104600009FEF95878487EEE0F7E013821282118690
:10461000128680E1838710861782158682E491E0F6
:104620009183808380E591E095838483108A178647
:10463000128A118A81E0838B148A858B168A8AEB11
:104640009DE0909306078093050780E090E89093A3
:104650003E0780933D0746983E9A47983F9AE7E089
:10466000F7E080E191E092838183138214821582C6
:10467000168208958F929F92AF92BF92CF92DF924F
:10468000EF92FF92CF93DF93EC01688179818A8169
:104690009B81611571058105910521F464E279ED35
:1046A0008BE597E02DE133EF41E050E00E94AC2331
:1046B00049015A019B01AC01A7EAB1E40E94CB2356
:1046C0006B017C01ACEEB4EFA50194010E94D923EB
:1046D000DC01CB018C0D9D1DAE1DBF1DB7FF03C0BE
:1046E0000197A109B04888839983AA83BB83BC0141
:1046F000CD019F77DF91CF91FF90EF90DF90CF902A
:10470000BF90AF909F908F9008950E943A23089594
:104710008DE091E00E943A23089560930D0170931B
:104720000E0180930F01909310010895F999FECF27
:1047300092BD81BDF89A992780B50895262FF999E1
:10474000FECF1FBA92BD81BD20BD0FB6F894FA9A74
:10475000F99A0FBE01960895052E97FB1EF400945A
:104760000E94C32357FD07D00E94DE2307FC03D01D
:104770004EF40C94C32350954095309521953F4FAE
:104780004F4F5F4F089590958095709561957F4F3D
:104790008F4F9F4F08950E940024A59F900DB49FB6
:1047A000900DA49F800D911D11240895B7FF0C94C6
:1047B000CB230E94CB23821B930B0895A1E21A2ED8
:1047C000AA1BBB1BFD010DC0AA1FBB1FEE1FFF1FB5
:1047D000A217B307E407F50720F0A21BB30BE40B05
:1047E000F50B661F771F881F991F1A9469F760954C
:1047F0007095809590959B01AC01BD01CF01089506
:10480000A29FB001B39FC001A39F700D811D112411
:10481000911DB29F700D811D1124911D0895991B4A
:1048200079E004C0991F961708F0961B881F7A95A7
:10483000C9F780950895AA1BBB1B51E107C0AA1FA9
:10484000BB1FA617B70710F0A61BB70B881F991F31
:104850005A95A9F780959095BC01CD0108950F93C5
:10486000083090F0982F872F762F652F542F432FE5
:10487000322F22270850F4CF220F331F441F551F19
:10488000661F771F881F991F0A95B2F70F91089529
:1048900097FB10F8169400080F93083098F0085012
:1048A000232F342F452F562F672F782F892F902DA8
:1048B000F4CF059497958795779567955795479584
:1048C000379527950A95AAF70F9108950024A7FD1B
:1048D00000942A17300540055005600570058005D5
:1048E00090050895EE0FFF1F0590F491E02D0994B7
:0E48F00081E090E0F8940C947D24F894FFCFC2
:1048FE003CFFFFFFFF00E100000000000001000090
:10490E0000610030000708BE00B400AC000506E8E8
:10491E0002D801C80000C180810000000000000024
:10492E00650D5211F60D7B0D860D1E0EFA0D000053
:10493E0000005A133A0DBF0DBE0DAB22FCFF000056
:10494E00EC22427269636B206F722065646765208A
:10495E00746F20746F70206F662058312E00427273
:10496E0069636B206F72206564676520746F2074B5
:10497E006F70206F662058322E00427269636B2072
:10498E006F72206564676520746F20746F70206F7E
:10499E00662058332E00427269636B206F72206559
:1049AE0064676520746F20626F74746F6D206F661C
:1049BE002058312E00427269636B206F722065643D
:1049CE00676520746F20626F74746F6D206F662040
:1049DE0058322E00427269636B206F7220656467D5
:1049EE006520746F20626F74746F6D206F6620582F
:1049FE00332E00427269636B206F722065646765A7
:104A0E0020746F206C656674206F662059312E00FD
:104A1E00427269636B206F72206564676520746FE4
:104A2E00206C656674206F662059322E00427269C2
:104A3E00636B206F72204564676520746F20726906
:104A4E00676874206F662059312E00427269636B5D
:104A5E00206F72206564676520746F2072696768C5
:0C4A6E0074206F662059322E000D0A00E3
:00000001FF
