:100000000C94C70A0C94EF0A0C94EF0A0C94EF0AB4
:100010000C94EF0A0C94EF0A0C94EF0A0C94EF0A7C
:100020000C94EF0A0C94EF0A0C94920C0C94040DAF
:100030000C94EF0A0C94EF0A0C94EF0A0C94EF0A5C
:100040000C94EF0A0C94EF0A0C94EF0A0C94EF0A4C
:100050000C94EF0A0C94EF0A0C94EF0A0C947610AF
:100060000C94EF0A0C94EF0A0C94EF0A0C94EF0A2C
:100070000C94EF0A0C94EF0A0C94EF0A0C94EF0A1C
:100080000C946E110C94EF0A0C94EF0A0C94EF0A86
:100090000C94EF0A0C94EF0A0C94EF0A0C94EF0AFC
:1000A0000C94EF0A0C94EF0A0C94EF0AD5F08D141F
:1000B000A1C881CFD9F1AF2000F9F9F9F9F9F9F91F
:1000C000F90101010101010101F9F9F9F9F9F9F960
:1000D000F90101010101010101F9F9F9F9F9F9F950
:1000E000F90101010101010101F9F9F9F9F9F9F940
:1000F000F90101010101010101F9F9F9F9F9F9F930
:10010000F90101010101010101F9F9F9F9F9F9F91F
:10011000F90101010101010101F9F9F9F9F9F9F90F
:10012000F90101010101010101F9F9F9F9F9F9F9FF
:10013000F90101010101010101070707070707078D
:1001400007F8F8F8F8F8F8F8F807070707070707B7
:1001500007F8F8F8F8F8F8F8F807070707070707A7
:1001600007F8F8F8F8F8F8F8F80707070707070797
:1001700007F8F8F8F8F8F8F8F80707070707070787
:1001800007F8F8F8F8F8F8F8F80707070707070777
:1001900007F8F8F8F8F8F8F8F80707070707070767
:1001A00007F8F8F8F8F8F8F8F80707070707070757
:1001B00007F8F8F8F8F8F8F8F8F8F8F8F8F8F8F8B0
:1001C000F80707070707070707F8F8F8F8F8F8F837
:1001D000F80707070707070707F8F8F8F8F8F8F827
:1001E000F80707070707070707F8F8F8F8F8F8F817
:1001F000F80707070707070707F8F8F8F8F8F8F807
:10020000F80707070707070707F8F8F8F8F8F8F8F6
:10021000F80707070707070707F8F8F8F8F8F8F8E6
:10022000F80707070707070707F8F8F8F8F8F8F8D6
:10023000F80707070707070707070707070707075D
:1002400007F8F8F8F8F8F8F8F807070707070707B6
:1002500007F8F8F8F8F8F8F8F807070707070707A6
:1002600007F8F8F8F8F8F8F8F80707070707070796
:1002700007F8F8F8F8F8F8F8F80707070707070786
:1002800007F8F8F8F8F8F8F8F80707070707070776
:1002900007F8F8F8F8F8F8F8F80707070707070766
:1002A00007F8F8F8F8F8F8F8F80707070707070756
:1002B00007F8F8F8F8F8F8F8F8F8F8F8F8F8F8F8AF
:1002C000F80707070707070707F8F8F8F8F8F8F836
:1002D000F80707070707070707F8F8F8F8F8F8F826
:1002E000F80707070707070707F8F8F8F8F8F8F816
:1002F000F80707070707070707F8F8F8F8F8F8F806
:10030000F80707070707070707F8F8F8F8F8F8F8F5
:10031000F80707070707070707F8F8F8F8F8F8F8E5
:10032000F80707070707070707F8F8F8F8F8F8F8D5
:10033000F80707070707070707070707070707075C
:1003400007F8F8F8F8F8F8F8F807070707070707B5
:1003500007F8F8F8F8F8F8F8F807070707070707A5
:1003600007F8F8F8F8F8F8F8F80707070707070795
:1003700007F8F8F8F8F8F8F8F80707070707070785
:1003800007F8F8F8F8F8F8F8F80707070707070775
:1003900007F8F8F8F8F8F8F8F80707070707070765
:1003A00007F8F8F8F8F8F8F8F80707070707070755
:1003B00007F8F8F8F8F8F8F8F8F8F8F8F8F8F8F8AE
:1003C000F80707070707070707F8F8F8F8F8F8F835
:1003D000F80707070707070707F8F8F8F8F8F8F825
:1003E000F80707070707070707F8F8F8F8F8F8F815
:1003F000F80707070707070707F8F8F8F8F8F8F805
:10040000F80707070707070707F8F8F8F8F8F8F8F4
:10041000F80707070707070707F8F8F8F8F8F8F8E4
:10042000F80707070707070707F8F8F8F8F8F8F8D4
:10043000F8070707070707070787878787878787DB
:1004400087989898989898989887878787878787B4
:1004500087989898989898989887878787878787A4
:100460008798989898989898988787878787878794
:100470008798989898989898988787878787878784
:100480008798989898989898988787878787878774
:100490008798989898989898988787878787878764
:1004A0008798989898989898988787878787878754
:1004B00087989898989898989853434F52453A003F
:1004C00047414D45204F564552002400FFFFFFFF96
:1004D000FFFFFFFFFFFFFFFFFFFFFFFFFFFFFFFF2C
:1004E000FFFFFFFFFFFFFFFFFFFFFFFFFFFFFFFF1C
:1004F000FFFFFFFFFFFFFFFFFFFFFFFFFFFFFFFF0C
:10050000FFFFFFFFFFFFFFFFFFFFFFFFFFFFFFFFFB
:10051000FFFFFFFFFFFFFFFFFFFFFFFFFFFFFFFFEB
:10052000FFFFFFFFFFFFFFFFFFFFFFFFFFFFFFFFDB
:10053000FFFFFFFFFFFFFFFFFFFFFFFFFFFFFFFFCB
:10054000FFFFFFFFFFFFFFFFFFFFFFFF01010101B3
:10055000010101010101010101010101010101018B
:10056000010101010101010101010101010101017B
:10057000010101010101010101010101010101016B
:10058000010101010101010101010101010101015B
:10059000010101010101010101010101010101014B
:1005A000010101010101010101010101010101013B
:1005B000010101010101010101010101010101012B
:1005C0000101010101010101010101018009FE0197
:1005D000010101010101010101010101010101010B
:1005E00001010101010101010101010101010101FB
:1005F0000101010101FE01010101010101010101EE
:1006000001010101010101010101010101FE000DD2
:100610009F2D970D9F2D970D9F2D970D9F2D970D1A
:100620009F2D970D9F2D970D9F2D970D9F2D970D0A
:100630009F2D970D9F2D970D9F2D970D9F2D970DFA
:100640009F2D970D9F2D970D9F2D970D9F2D01008D
:10065000000000000000000000000000000000009A
:10066000000000000000000000000000000000008A
:100670000000000000010000000000000000000079
:100680000000000000000000000000000001000168
:10069000010101010101010101010101010101014A
:1006A000010101010101010101010101010101013A
:1006B000010101010101010101010101010101012A
:1006C00001010101010101010101010101010D9F70
:1006D0002D970D9F2D970000000000000000404066
:1006E00040404040404016051204140215064040A8
:1006F0004F09ED094F4005020502050205020709F1
:10070000070F0709070F003844829AA244380922CC
:10071000092209220922825A9A42985A9A580002BA
:10072000070E070200000002070E0702000000008B
:1007300000020702000000000002070200000000A3
:100740001104000002040200000000000204020084
:100750000000000000000200000000000000020095
:100760000000000000000002070E07020000000267
:10077000070E070200000000000207020000000050
:100780000002070200001104000000000204020041
:10079000000000000204020000000000000002004F
:1007A0000000000000000200000070F8FEFFFFFFE4
:1007B000FFFFFFFEFEFFFFFFFAF06060F0FAFFFFB1
:1007C000FFFEFEFFFFFFFFFFFFFEF8701108007045
:1007D000186E1E5E1272767C186A1E5A1060000037
:1007E00060105A1E6A187C7672125E1E6E187000B7
:1007F000087CFE7FFE6702087CFE7FFE6E04070811
:100800000008641E6402000008641E640400808006
:1008100080808080808080808080808080808080D8
:1008200080808080808080808080808080800000C8
:1008300000000000000000000000000000000000B8
:1008400000000000000000000000000000000000A8
:100850000000000000000000000000000000000098
:100860000000000000000000000000000080808008
:100870008080808080808080808080808080808078
:1008800080808080808080808080808080803E3EEC
:10089000C0C0C0C0C03E3E3E3E3EC0C0C0C0C03E64
:1008A0003E3E3E3EC0C0C0C0C03E3E3E3E3E00005A
:1008B00000387EFEFFE78787070E000000FFFFFF7E
:1008C000FF8787C7FFFFFE7C0000F0FFFF1FFFFFD1
:1008D000F0800000E0F8FCFE1E0F0707070F000085
:1008E000FFFFFFFF8787878787870000003E3E3E28
:1008F0003E3EC0C0C0C0C03E3E3E3E3EC0C0C0C086
:10090000C03E3E3E3E3EC0C0C0C0C03E3E3EF8F887
:100910000707070707F8F8F8F8F80707070707F8C1
:10092000F8F8F8F80707070707F8F8F8F8F80000EC
:1009300000E0E0C0C1C3E7FFFF7E3C0000FFFFFF17
:10094000FF03030303010180F8FFFF7F3B383B7F78
:10095000FFFFF8800F3F7FFFF0E0C0C0C0E0000065
:10096000FFFFFFFFC3C3C3C3C3C3000000F8F8F811
:10097000F8F80707070707F8F8F8F8F80707070770
:1009800007F8F8F8F8F80707070707F8F8F8020279
:100990000202020202020202020202020202020237
:1009A000020202020202020202020202824280509B
:1009B0000850095129112911289040A050A951A986
:1009C00081C0C0C0C0C0000911A911C0D0C0D0C032
:1009D00011A9110900C0D0C8D1C9D1C9D18910004D
:1009E0000109112951A951895109500040020202FF
:1009F00002020202020202020202020202020202D7
:100A000002020202020202020202020202020000CA
:100A100000000000000000000000000000000000D6
:100A200000000000000000000000000102010201BF
:100A3000020102010000000001020102F97E7FFFB5
:100A4000070301010103000000C07CFFFF07FFFF57
:100A50007CE0000000FF7F7FFFE1F17FFF9F8F00C0
:100A60000102000000000102010201020102010274
:100A70000102000000000000000000000000000073
:100A80000000000000000000000000000000000066
:100A90000000000000000000000000000000000056
:100AA0000000000000000000000000000000000046
:100AB000000000000000000000000000030D1937D6
:100AC0006C585050507800605E4361130A0A0A1354
:100AD00061435E60007F41415F5050594721390FAB
:100AE0000000000000000000808080808000000086
:100AF00000000000000000000000000000000000F6
:100B000000000000000000000000000000002020A5
:100B100020202020202020202020202020202020D5
:100B200020202020202020202020202020202020C5
:100B300020202020202020202020202020202020B5
:100B400020202020202020202020202020202020A5
:100B50002020202020202020202020202020202095
:100B60002020202020202020270476042720202059
:100B70002020202020202020202020202020202075
:100B800020202020202020202020202020200D9FF9
:100B90002D970D9F2D970D9F2D970D9F2D970D9F95
:100BA0002D970D9F2D970D9F2D970D9F2D970D9F85
:100BB0002D970D9F2D970D9F2D970D9F2D970D9F75
:100BC0002D970D9F2D970D9F2D970D9F2D970D9F65
:100BD0002D970D9F2D970D9F2D970D9F2D970D9F55
:100BE0002D970D9F2D970D9F2D970D9F2D970D9F45
:100BF0002D970D9F2D970D9F2D970D9F2D970D9F35
:100C00002D970D9F2D970D9F2D970D9F2D970000D0
:100C100000000000000000000000000000000000D4
:100C200000000000000000000000000000000000C4
:100C300000000000000000000000000000000000B4
:100C400000000000000000000000000000000000A4
:100C50000000000000000000000000000000000094
:100C60000000000000000000000000000000000084
:100C70000000000000000000000000000000000074
:100C80000000000000000000000000000000000064
:100C90000000000000000000000000000000000054
:100CA0000000000000000000000000000000000044
:100CB00000000000000000000000000000808080B4
:100CC00080808000000000808080808080808000A4
:100CD0000000000000000000000000000000000014
:100CE0000000000000000000000000000000000004
:100CF00000000000000000000000000000000000F4
:100D000000000000000000000000000000000000E3
:100D100000000000000000000000000000000000D3
:100D200000000000000000000000000000000000C3
:100D300000000000000000000000020A2AA8A38FA3
:100D40003FFFFFFEF08000FFFFFFFFFFFFFF0700F8
:100D5000000000000080808080C0C0008000000093
:100D60000000000000000000000000000000000083
:100D70000000000000000000000000000000000073
:100D80000000000000000000000000000000000063
:100D90000000000000000000000000000000000053
:100DA0000000000000000000000000000000000043
:100DB0000000000000000000000000000000020A27
:100DC0000A28A3871F7FFCFFFFFFFFFF7F01F0F8CA
:100DD000FCFE06A30B07073F0F23080200000000DC
:100DE0000000000000000000000000000000000003
:100DF00000000000000000000000000000000000F3
:100E000000000000000000000000000000000000E2
:100E100000000000000000000000000000000000D2
:100E200000000000000000000000000000000000C2
:100E300000000000000000000000000000000000B2
:100E4000000000020A28A1871F7FFF1F0080F1F326
:100E5000F3636322B21E202800000000000000009F
:100E60000000000000000000000000000000000082
:100E70000000000000000000000000000000000072
:100E80000000000000000000000000000000000062
:100E90000000000000000000000000000000000052
:100EA0000000000000000000000000000000000042
:100EB0000000000000000000000000000000000032
:100EC00000080808C808884A8A48480888498908E4
:100ED000CA480948C8480808080000000000000087
:100EE0000000000000000000000000000000000002
:100EF00000000000000000000000000000000000F2
:100F000000000000000000000000000000000000E1
:100F100000000000000000000000000000000000D1
:100F200000000000000000000000000000000000C1
:100F300000000000000000000000000000000000B1
:100F40000000000000030000020303000102010092
:100F5000030100000300000000000000000000008A
:100F60000000000000000000000000000000000081
:100F70000000000000000000000000000000000071
:100F80000000000000000000000000000000000061
:100F90000000000000000000000000000000000051
:100FA0000000000000000000000000000000000041
:100FB0000000000000000000000000000000000031
:100FC0000000000000000000000000000000000021
:100FD0000000000000000000000000000000000011
:100FE0000000000000000000000000000000000001
:100FF00000000000000000000000000000000000F1
:1010000000000000000000000000000000000102DD
:1010100004081020408000000000003E5B4F5B3E53
:101020003E6B4F6B3E1C3E7C3E1C183C7E3C181CAD
:10103000577D571C1C5E7F5E1C00183C1800FFE7A4
:10104000C3E7FF0018241800FFE7DBE7FF30483A4A
:10105000060E2629792926407F050507407F0525AC
:101060003F5A3CE73C5A7F3E1C1C08081C1C3E7F34
:1010700014227F22145F5F005F5F06097F017F00FB
:101080006689956A606060606094A2FFA29408041B
:101090007E040810207E201008082A1C08081C2A3C
:1010A00008081E101010100C1E0C1E0C30383E3894
:1010B00030060E3E0E06000000000000005F00003B
:1010C0000007000700147F147F14242A7F2A1223AC
:1010D0001308646236495620500008070300001CBC
:1010E0002241000041221C002A1C7F1C2A08083EC5
:1010F00008080080703000080808080800006060D8
:101100000020100804023E5149453E00427F400045
:1011100072494949462141494D331814127F10271D
:10112000454545393C4A494931412111090736496C
:10113000494936464949291E000014000000403440
:101140000000000814224114141414140041221445
:101150000802015909063E415D594E7C1211127C6C
:101160007F494949363E414141227F4141413E7FCD
:10117000494949417F090909013E414151737F08AD
:1011800008087F00417F41002040413F017F081453
:1011900022417F404040407F021C027F7F040810B4
:1011A0007F3E4141413E7F090909063E4151215E92
:1011B0007F09192946264949493203017F01033F26
:1011C0004040403F1F2040201F3F4038403F6314B5
:1011D00008146303047804036159494D43007F41B7
:1011E00041410204081020004141417F04020102F4
:1011F0000440404040400003070800205454784019
:101200007F284444383844444428384444287F38AC
:101210005454541800087E090218A4A49C787F082E
:1012200004047800447D40002040403D007F1028A9
:10123000440000417F40007C047804787C0804046A
:10124000783844444438FC1824241818242418FC02
:101250007C08040408485454542404043F44243CA7
:101260004040207C1C2040201C3C4030403C442816
:101270001028444C9090907C4464544C44000836B0
:10128000410000007700000041360800020102041E
:10129000023C2623263C1EA1A161123A4040207A3E
:1012A0003854545559215555794121545478412188
:1012B0005554784020545579400C1E5272123955BD
:1012C00055555939545454593955545458000045BA
:1012D0007C410002457D420001457C40F0292429E3
:1012E000F0F0282528F07C545545002054547C54B7
:1012F0007C0A097F493249494932324848483232EA
:101300004A4848303A4141217A3A42402078009D8B
:10131000A0A07D39444444393D4040403D3C24FF39
:101320002424487E4943662B2FFC2F2BFF0929F6E6
:1013300020C0887E090320545479410000447D4137
:101340003048484A32384040227A007A0A0A727D90
:101350000D19317D2629292F2826292929263048AB
:101360004D4020380808080808080808382F10C819
:10137000ACBA2F102834FA00007B000008142A149D
:101380002222142A14089500220095AA005500AACA
:10139000AA55AA55AA000000FF00101010FF001463
:1013A0001414FF001010FF00FF1010F010F01414C0
:1013B00014FC001414F700FF0000FF00FF1414F4E5
:1013C00004FC141417101F10101F101F1414141FE6
:1013D00000101010F0000000001F101010101F105F
:1013E000101010F010000000FF101010101010105E
:1013F0001010FF10000000FF140000FF00FF0000AD
:101400001F10170000FC04F414141710171414F420
:1014100004F40000FF00F714141414141414F7005B
:10142000F7141414171410101F101F141414F414AC
:101430001010F010F000001F101F0000001F14001B
:101440000000FC140000F010F01010FF10FF141446
:1014500014FF141010101F00000000F010FFFFFF19
:10146000FFFFF0F0F0F0F0FFFFFF0000000000FFD2
:10147000FF0F0F0F0F0F38444438447C2A2A3E14C4
:101480007E02020606027E027E02635549416338EF
:1014900044443C04407E201E2006027E020299A5A0
:1014A000E7A5991C2A492A1C4C7201724C304A4DFE
:1014B0004D303048784830BC625A463D3E49494933
:1014C000007E0101017E2A2A2A2A2A44445F4444DC
:1014D00040514A444040444A51400000FF0103E06B
:1014E00080FF000008086B6B083612362436060FA2
:1014F000090F06000018180000001010003040FF0F
:101500000101001F01011E00191D1712003C3C3C87
:101510003C0000000000080B000202020100090468
:101520000000010202000005240010010524010151
:1015300001042402060524060001070581031000AA
:101540004009040100020A000000070502024000F1
:101550000007058302400000040309041201000291
:10156000EF02014041233680000101020301417274
:101570006475696E6F204C4C430041726475696EEE
:101580006F204C656F6E6172646F0000771F1124CD
:101590001FBECFEFDAE0DEBFCDBF12E0A0E0B1E0CA
:1015A000E0E8F1E402C005900D92A238B107D9F746
:1015B00027E0A2E8B2E001C01D92A833B207E1F72C
:1015C0001AE0C7ECDAE004C02197FE010E94B320C4
:1015D000C63CD107C9F70E948D170C94BE200C940D
:1015E00000004091A3025091A4022091A1023091E9
:1015F000A20242175307B4F49091E8009570E1F30A
:101600009091E80092FD19C08093F1008091A302AF
:101610009091A40201968F739927892B19F48EEF6C
:101620008093E8008091A3029091A4020196909388
:10163000A4028093A30281E0089580E00895CF92F0
:10164000DF92EF92FF920F931F93CF93DF931F923E
:10165000CDB7DEB7182F062FE42E862F880F8E5FAA
:1016600099830E94F10A83E00E94F10AF12EC12EB3
:101670009981D92E8C2D8F19801798F4F601E7FEE9
:1016800002C0849101C080810E94F10A182F80E07D
:101690000E94F10A8123FFEFCF1ADF0A8111EACFFE
:1016A00001C081E00F90DF91CF911F910F91FF90CA
:1016B000EF90DF90CF900895DF92EF92FF920F931B
:1016C0001F93CF93DF93D82E8A017B01E40EF51E82
:1016D000EB01CE15DF0571F0D7FE03C0FE0184914A
:1016E00001C088810E94F10A21968111F2CF8FEF0B
:1016F0009FEF01C0C801DF91CF911F910F91FF9023
:10170000EF90DF900895615030F02091F100FC01DE
:1017100020830196F8CF289884E68093A602089546
:10172000CF92DF92EF92FF920F931F93CF93DF93AD
:101730006C017A018B01C0E0D0E0CE15DF0589F0A5
:10174000D8016D918D01D601ED91FC910190F08150
:10175000E02DC6010995892B11F47E0102C0219666
:10176000ECCFC701DF91CF911F910F91FF90EF90C8
:10177000DF90CF900895CF93DF931F92CDB7DEB760
:101780006983DC01ED91FC910280F381E02D41E061
:1017900050E0BE016F5F7F4F09950F90DF91CF91B1
:1017A000089583E08093E9008091F200882319F086
:1017B0008AE38093E8000895FC018485958597FD70
:1017C0000BC09FB7F89482E08093E9008091F2000B
:1017D0009FBF90E0019608959FB7F89482E08093B0
:1017E000E9008091F2009FBF90E008958091AC02E3
:1017F000E091AA02F091AB02882349F0CF01029652
:101800009093AB028093AA02859194910895CF01A1
:1018100002969093AB028093AA02808191810895F1
:101820008091850208950895089580E090E00895DC
:101830000E94B9200F931F93CF93DF931F92CDB7D0
:10184000DEB782E0898342E450E066E175E180E83A
:101850000E945C0B0E947917DC0112960D911C917D
:1018600013970115110569F0D801ED91FC910280E3
:10187000F381E02DBE016F5F7F4FC801099597FF8F
:1018800007C089810F90DF91CF911F910F9108952B
:10189000F80100851185E5CF0E94681790E0089552
:1018A0000F931F93CF93DF931F92CDB7DEB78C01B9
:1018B000FC018485958597FF0EC0CE0101960E949C
:1018C0003E17019719F4298130E002C02FEF3FEF56
:1018D000F80135872487F801848595850F90DF917D
:1018E000CF911F910F910895CF93DF931F92CDB7A2
:1018F000DEB7FC018485958597FD05C02FEF3FEF8E
:10190000358724870BC0CE0101960E943E170197B0
:1019100019F4898190E002C08FEF9FEF0F90DF9163
:10192000CF9108951F920F920FB60F9211248F93AB
:101930009F938091E1009091E100937F9093E1006B
:1019400083FF0FC01092E90091E09093EB0010929A
:10195000EC0092E39093ED001092A70298E0909330
:10196000F00082FF20C093E09093E9009091F20094
:10197000992319F09AE39093E8009091A502992396
:1019800039F09091A50291509093A502992389F185
:101990009091A602992339F09091A60291509093CC
:1019A000A602992341F184FF10C08091E2008E7E4F
:1019B00081608093E2008091E1008F7E8093E1005E
:1019C000809183028E7E806111C080FF16C080915D
:1019D000E2008E7E80618093E2008091E1008E7E45
:1019E0008093E100809183028E7E816080938302E8
:1019F00004C05D9ACDCF289AD6CF9F918F910F903A
:101A00000FBE0F901F9018951F920F920FB60F9256
:101A10001124CF92DF92EF92FF920F931F932F9397
:101A20003F934F935F936F937F938F939F93AF9366
:101A3000BF93EF93FF93CF93DF93CDB7DEB76C9750
:101A4000DEBFCDBF1092E9008091E80083FFEDC1B9
:101A500068E0CE0145960E94830B82EF8093E800F8
:101A60008D8987FF05C09091E80090FFFCCF03C0EF
:101A70009EEF9093E800982F907609F0C6C09E895B
:101A80002F89188D91110CC0803829F4809184021F
:101A90008093F10002C01092F1001092F10048C151
:101AA000422F50E0512B913051F4811141C141300E
:101AB000510509F03DC1809184028D7F0BC09330A8
:101AC00061F4811135C14130510509F031C1809176
:101AD00084028260809384022BC1953041F480910E
:101AE000E80080FFFCCF20682093E30021C19630FE
:101AF00009F05FC0EB8CFC8C1092E9001092A402FC
:101B00001092A302123091F51092A2021092A1023B
:101B10000E941A0C99E0BE016F5F7F4FDB01E92F35
:101B20001D92EA95E9F799831A8391E09E8390EAE2
:101B300098879AEF99872091A3023091A402275F9A
:101B40003F4F3C832B838D831092E9001092A402B7
:101B50001092A302F092A202E092A10249E050E0AA
:101B600080E00E945C0B0E941A0CE2C0F092A2027C
:101B7000E092A1020E947917DC011296ED90FC9090
:101B80001397E114F10409F4C0C0D701ED91FC9161
:101B90000480F581E02DBE016B5E7F4FC701099582
:101BA000009719F00CF0C4C0C7C0F701E084F184BD
:101BB000E8CF973009F4C0C0983021F481E08093D9
:101BC000F100B6C0993009F0B3C0837009F0B4C019
:101BD000E3E3F2E081E021E036E39081992361F0D4
:101BE0008093E9002093EB0091919093EC00309367
:101BF000ED008F5F873089F78EE78093EA001092BF
:101C0000EA008F898093A70293C08B8D9C8D1092E0
:101C1000E9001092A4021092A3029093A202809372
:101C2000A102898D811156C08E899D89913A59F4FE
:101C3000813209F081C047E050E068E071E080E067
:101C40000E945C0B75C0913209F076C0833289F432
:101C5000888D90E0982F88272F89822BA0E0B0E014
:101C60008093040190930501A0930601B0930701AE
:101C70005FC0803269F48091E80082FFFCCF67E0AA
:101C800088E091E00E94830B8BEF8093E80006C010
:101C9000823209F04DC08F8980930F0180918202BA
:101CA000882319F0EEEFFAE002C0E0E0F8E080915E
:101CB000080190910901A0910A01B0910B01803BAC
:101CC0009440A105B10509F07BC080910F0180FF10
:101CD00093C076C00E947917DC0112960D911C9179
:101CE00013970115110541F1D801ED91FC91019077
:101CF000F081E02DBE016B5E7F4FC8010995811117
:101D000017C0F80100851185ECCF113009F44EC0E1
:101D1000133091F48F89882309F445C0823081F40F
:101D200040E860E18AE795E10E941F0B882321F0DB
:101D30008EEF8093E80079C081E28093EB0075C05C
:101D4000813029F440E86BE08EE695E1EDCF8330F9
:101D500099F70E947917DC011296ED90FC90139789
:101D60008E010F5F1F4F6801E114F10479F0D70174
:101D7000ED91FC910680F781E02DB801C70109952E
:101D8000080F111DF701E084F184EECFD8011C92F9
:101D9000F60101900020E9F73197BF016C197D0928
:101DA00040E0C601C1CF68E575E102C06CE575E1B0
:101DB0006115710509F2FB01449150E080E840CFC4
:101DC0000FB6F894A89580916000886180936000B8
:101DD000109260000FBEA895EE3F2AE0F20739F09E
:101DE0008091FE0A9091FF0A91838083A1CF109287
:101DF000FF0A1092FE0A9CCFEE3F8AE0F80731F00E
:101E0000808191819093FF0A8093FE0A87E797E78C
:101E1000918380839BE088E10FB6F894A895809326
:101E200060000FBE9093600083CF6C960FB6F8945D
:101E3000DEBF0FBECDBFDF91CF91FF91EF91BF917C
:101E4000AF919F918F917F916F915F914F913F9152
:101E50002F911F910F91FF90EF90DF90CF900F90F7
:101E60000FBE0F901F9018956115710579F0FB0159
:101E700001900020E9F73197AF01461B570BDC01B9
:101E8000ED91FC910280F381E02D099480E090E0D7
:101E900008954F925F926F927F92EF92FF920F930D
:101EA0001F93CF93DF93CDB7DEB7A1970FB6F8940A
:101EB000DEBF0FBECDBF7C01FA01CB0119A22230DB
:101EC00008F42AE08E010F5D1F4F422E512C612C29
:101ED000712CBF01A30192010E946220F901CA0185
:101EE000015011096A3014F4605D01C0695CD801C9
:101EF0006C93232B242B252B61F7B801C7010E947B
:101F0000340FA1960FB6F894DEBF0FBECDBFDF91A0
:101F1000CF911F910F91FF90EF907F906F905F9006
:101F20004F9008953FB7F89480919D0290919E0242
:101F3000A0919F02B091A00226B5A89B05C02F3F9B
:101F400019F00196A11DB11D3FBFBA2FA92F982FDF
:101F50008827820F911DA11DB11DBC01CD0142E05A
:101F6000660F771F881F991F4A95D1F708958F92A2
:101F70009F92AF92BF92CF92DF92EF92FF926B014E
:101F80007C010E94920F4B015C01C114D104E10459
:101F9000F104F1F00E94920FDC01CB01881999093C
:101FA000AA09BB09883E9340A105B10570F321E061
:101FB000C21AD108E108F10888EE880E83E0981E65
:101FC000A11CB11CC114D104E104F10419F7DDCF47
:101FD000FF90EF90DF90CF90BF90AF909F908F9049
:101FE00008958F929F92AF92BF92CF92DF92EF921D
:101FF000FF920F931F93CF93DF935C016B017A01E4
:1020000080910F01882309F45BC08091A702882387
:1020100009F456C08091830280FF05C08091E000E2
:1020200082608093E000E70110E00AEF83E0882EF1
:102030009AE3992E2097D9F10E94681781110AC05E
:10204000015009F43DC061E070E080E090E00E9442
:10205000B70FF0CF282F30E0C217D3070CF48C2F26
:102060004FB7F8948092E9009091E80095FF1DC069
:10207000282F30E0C21BD30BF601982F915020F08F
:1020800081918093F100FACFC20ED31E112319F073
:102090009092E80009C08091E80085FD06C090920A
:1020A000E80011E0209709F010E04FBFC3CF1111F5
:1020B000C3CF5D9884E68093A5021E141F0444F0EC
:1020C00081E090E0F5019383828380E090E001C09D
:1020D000C701DF91CF911F910F91FF90EF90DF909B
:1020E000CF90BF90AF909F908F9008951F920F92C6
:1020F0000FB60F9211242F933F938F939F93AF931B
:10210000BF938091860290918702A0918802B0913E
:10211000890230919C0223E0230F2D3720F4019691
:10212000A11DB11D05C026E8230F0296A11DB11DFA
:1021300020939C028093860290938702A09388024A
:10214000B093890280919D0290919E02A0919F027E
:10215000B091A0020196A11DB11D80939D029093A4
:102160009E02A0939F02B093A002BF91AF919F9156
:102170008F913F912F910F900FBE0F901F90189548
:10218000CF92DF92EF92FF920F931F93CF93DF9343
:102190000E94F60B811520E8920761F4809171008E
:1021A0008D7F80937100109291004698479810920D
:1021B00095028BC021E020939502813020E89207A0
:1021C00051F48091A8029091A9029093AB02809360
:1021D000AA020E94F60B97FD05C0209194022223CB
:1021E00009F43FC02091930221113BC021E02093CC
:1021F0009602EC01DF77209769F481E080939702E3
:1022000046983FE9C32E3FE0D32EE12CF12CCAEFD4
:10221000D0E014C08E0120E030E060E472E48FE092
:1022200090E0A90198010E94302069017A0181E0C3
:10223000C81AD108E108F10810929702E091FD0652
:10224000F091FE060995811103C081E08093970209
:10225000809196028823B9F180919702811133C051
:1022600003C010929602C5CF46992DC0479A0E948E
:10227000F60B009771F09C01DE010E948420DC01C6
:10228000CB0129E0B595A795979587952A95D1F724
:1022900003C08FEF9FEFDC01109290002AE02093A3
:1022A0009100D0929900C0929800809398029093E8
:1022B0009902A0939A02B0939B0280917100826070
:1022C0008093710002C04798D2CFDF91CF911F91C8
:1022D0000F91FF90EF90DF90CF9008951F920F9293
:1022E0000FB60F9211242F933F934F935F936F93E9
:1022F0007F938F939F93AF93BF93EF93FF938091BF
:10230000980290919902A0919A02B0919B02892B18
:102310008A2B8B2B81F18091970281110BC098B190
:1023200080E4892788B980919602882319F088B1C2
:10233000805888B98091980290919902A0919A0250
:10234000B0919B02181619061A061B06B4F4809168
:10235000980290919902A0919A02B0919B020197E4
:10236000A109B1098093980290939902A0939A02CF
:10237000B0939B0202C00E94C010FF91EF91BF91E9
:10238000AF919F918F917F916F915F914F913F910D
:102390002F910F900FBE0F901F901895BC0180E0F9
:1023A00090E00C94B70F8FB18095807F669B88601A
:1023B0001C9B8460089560387105D0F44034510549
:1023C000B8F4EEE0F0E180E1849FD001A078112420
:1023D000A60F4770E40FF11D8491A355BD4F222332
:1023E00019F06C91862B03C080956C9186238C9399
:1023F00008952F923F924F925F926F927F928F92A9
:102400009F92AF92BF92CF92DF92EF92FF920F9383
:102410001F93CF93DF93CDB7DEB729970FB6F8940C
:10242000DEBF0FBECDBFFC016A3069F4258981890A
:10243000928938E0239F800D911D1124928B818B0E
:10244000108A1786AAC06D3009F4A7C099878887BB
:10245000F588348823886188728807851089003858
:102460001105C4F0A885B98555962C915597422F32
:1024700050E01F968D919C915097B6E02B9F800D58
:10248000911D1124E885F985908B87872689211174
:102490006EC083C0F0E46F16710424F7C80125E014
:1024A000F29E800D911D112418161906DCF68F2D51
:1024B00090E09C838B83C301A8E0FA9E800D911D60
:1024C00011241816190674F6B5E06B9FB00111249B
:1024D000FB01EA5EFF4EFA83E98330E08885998547
:1024E00004969E838D83E981FA81E490353009F466
:1024F000E12C430188E0482EE0FC02C0532C01C0CF
:10250000522C51100BC0321009C0E6944A948B81B2
:102510009C81880E991E4110EFCF1BC068018C2D45
:10252000801B8F1590F754018A2D88198F1568F438
:10253000252DA501B6018D819E813F830E94DB116F
:102540009FEFA91AB90A3F81EFCFAFEFCA1ADA0A93
:10255000E6CF3F5FEB81FC810E0F1F1F89819A81BF
:1025600001969A838983363009F0BDCF7BCF6AEF1D
:1025700064039001659F300D112420583F4F2817A8
:1025800039075CF4A885B985ED91FC91119701900C
:10259000F081E02D6AE0CD01099581E090E0299677
:1025A0000FB6F894DEBF0FBECDBFDF91CF911F9164
:1025B0000F91FF90EF90DF90CF90BF90AF909F90E2
:1025C0008F907F906F905F904F903F902F900895E5
:1025D0008091050790910607009781F02CF48C3FBD
:1025E0002FEF920744F408958130910551F089301E
:1025F000910564F00895880F991F0AC08FEF9FEF2F
:1026000007C01092060710920507089595958795C3
:102610009093060780930507089580910507909190
:1026200006078F3F2FEF920789F02CF4883F2FEF9A
:1026300092073CF40895009771F08530910574F08D
:10264000089597FD0196959587950AC01092060703
:1026500010920507089581E090E002C0880F991F4D
:102660009093060780930507089580910307909142
:102670000407009781F02CF48C3F2FEF920744F46D
:1026800008958130910551F08930910564F00895E5
:10269000880F991F0AC08FEF9FEF07C010920407A1
:1026A000109203070895959587959093040780935A
:1026B0000307089580910307909104078F3F2FEF40
:1026C000920789F02CF4883F2FEF92073CF408958D
:1026D000009771F08530910574F0089597FD01968B
:1026E000959587950AC010920407109203070895E4
:1026F00081E090E002C0880F991F909304078093B7
:10270000030708959C01240F311D1216130684F54A
:10271000803891056CF5FC0197FF02C0E0E0F0E025
:102720002138310514F020E830E02E1BAB01477052
:10273000552781E090E001C0880F4A95EAF780951F
:1027400077FF02C0695F7F4F93E0759567959A9513
:10275000E1F77695762F662777956795E60FF71F51
:10276000E355FD4F215020F0908198239193FACFAB
:1027700008952F923F924F925F926F927F928F9225
:102780009F92AF92BF92CF92DF92EF92FF920F9300
:102790001F93CF93DF93CDB7DEB728970FB6F8948A
:1027A000DEBF0FBECDBF5A01822E912C9C01280D99
:1027B000391D37FDC4C0803891050CF0C0C09B01A5
:1027C000200F311D37FDBBC0603471050CF0B7C060
:1027D000AB0177FF04C044275527461B570B4770B2
:1027E00055279B0177FF02C0295F3F4FE3E03595F6
:1027F0002795EA95E1F777FF08C02150310968E095
:1028000070E0DB01A41BB50BAD01602F66956695EA
:10281000669570E0077011F06F5F7F4FDB01A20FCC
:10282000B31FBA83A98339017694762C66247794F2
:102830006794680E791EE12CF12C00E010E0230172
:10284000B0E84B0E511C68E070E0DB01A41BB50B37
:10285000BC83AB8369817A812617370709F46FC07F
:102860002830310509F46BC02F3FBFEF3B070CF454
:102870005BC0B201600F711FDB01A355BD4FBE836A
:10288000AD83D801A60DB71DA355BD4F6C0160E007
:1028900070E0681579050CF047C0E0E8CE16D10469
:1028A00009F442C0D7FC34C02F3FFFEF3F0709F4C3
:1028B00042C0FB01EE0DFF1DEA0DFB1DE491042E4D
:1028C00001C0EE0F0A94EAF73C90E329EC9341151E
:1028D0005105F1F027303105D9F0FB01EE0DFF1D58
:1028E000EA0DFB1DE4912E2E312CF1010B8002C06C
:1028F000F595E7950A94E2F7F887EF83ED81FE817D
:102900003080EF81F885E3291F01ED81FE8120826F
:102910006F5F7F4FED81FE813196FE83ED83FFEF88
:10292000CF1ADF0A1196B5CF2F5F3F4F00581F4FC8
:10293000E80CF91C8FCF4115510579F6E9CF28969F
:102940000FB6F894DEBF0FBECDBFDF91CF911F91C0
:102950000F91FF90EF90DF90CF90BF90AF909F903E
:102960008F907F906F905F904F903F902F90089541
:102970004F925F926F927F928F929F92AF92BF928F
:10298000CF92DF92EF92FF920F931F93CF93DF933B
:1029900000D000D0CDB7DEB7DC014115510509F4F8
:1029A000F3C0FA01B490319694914E5F5F4FCB2CF7
:1029B000D12C211102C0EE2039F1E92FE695E695E0
:1029C000E6958E2E912CE1E0F0E0892F877011F4CE
:1029D000E0E0F0E0E80DF91DCE9E4001CF9E900CA6
:1029E000DE9E900C11240115110539F0E89CF001D0
:1029F000E99CF00D11240E0F1F1F289DF001299D49
:102A0000F00D11244E0F5F1FFD01EC0DFD1D1E1674
:102A10001F060CF0B9C0A038B1050CF0B5C09B0181
:102A2000290F311D121613060CF0AEC0603471056B
:102A30000CF0AAC04115510509F4A6C0262F277035
:102A4000522E7B0177FF03C037E0E30EF11C83E0D9
:102A5000F594E7948A95E1F78E2D77FF04C0552011
:102A600011F08FEF8E0DB7FF05C0662777276A1B21
:102A70007B0B02C060E070E0E038F10524F020E854
:102A80002A1B422E01C04B2C461AE82E082E000CA1
:102A9000FF088F3F1CF4FE2DF09501C0F0E0E1E04F
:102AA000292F277009F4E0E09695969596959E0F4C
:102AB000E90EF11C39E0E316F10414F098E0981BDC
:102AC0009F2E980E292D30E82303A00DB11D11244F
:102AD000A60FB71F7B01FB9DE00CF11C11244E0DCE
:102AE0005F1D61E070E0052C02C0660F771F0A943D
:102AF000E2F70E0D1F1D882E890E981409F444C0AC
:102B0000CD0183559D4F5C01E12CF12CE414A0F51F
:102B1000F801EE0DFF1DE491E69FC001E79F900DC7
:102B20001124809590959C838B83FA01EE0DFF1DF7
:102B3000E491E69F3001E79F700C11247A8269824C
:102B400097FC05C0F50190818923682A6082552091
:102B500061F0F6E0F9154CF0F501E058FF4F908177
:102B60008C8189239A81892B80832FEFE21AF20AC4
:102B70003FEFA31AB30ACACF93944C0D5D1D0C0D01
:102B80001D1DA058BF4FB9CF0F900F900F900F9001
:102B9000DF91CF911F910F91FF90EF90DF90CF9039
:102BA000BF90AF909F908F907F906F905F904F906D
:102BB00008959C01E1E7F0E090819D7F9083109261
:102BC000AC02EAE2F7E0F093AB02E093AA02F093E2
:102BD000A902E093A8023183208382E390E09383EB
:102BE0008283758364839783868351874087938725
:102BF00082870C94C010EF92FF920F931F93CF9394
:102C0000DF93CDB7DEB72C970FB6F894DEBF0FBEBB
:102C1000CDBF49835A836B837C839E83EF82F88682
:102C200009871A872B873C87E981FA816B817C8130
:102C30004F81588529853A85DF01A80FB11D4A17B4
:102C40005B07A4F48B85480F511DE417F50774F456
:102C50008E81AB01480F511D241735073CF48C853C
:102C6000280F311D81E0621773070CF080E02C966D
:102C70000FB6F894DEBF0FBECDBFDF91CF911F918D
:102C80000F91FF90EF900895CF92DF92EF92FF9215
:102C9000CF93DF936B017C01E091AD06F091AE061E
:102CA0000190F081E02D6DE28DEA96E00995EC014E
:102CB00044275527BA014C195D096E097F092AE09E
:102CC0008DEA96E00E94490F8C0F9D1FDF91CF91F6
:102CD000FF90EF90DF90CF900895AC01990F660BB5
:102CE000770B77FF04C0CB01BA010C9444162AE09D
:102CF0008DEA96E00C94490F80E0EDEAF2E0811154
:102D00008FEF002481938193819381930394D1F772
:102D1000E7E0F7E0128A118A108A17860895EDEA33
:102D2000F2E080E0A0E0B8E000800EBC8111012C50
:102D30001197A0FDFDCF0192B9F70DB408950F933F
:102D40001F93CF93DF938C01C0E0D0E0F801EC0F2C
:102D5000FD1F6491662371F0E0910707F091080769
:102D60000190F081E02D87E097E00995892B11F023
:102D70002196ECCFCE01DF91CF911F910F91089555
:102D80004F925F926F927F928F929F92AF92BF927B
:102D9000CF92DF92EF92FF920F931F93CF93DF9327
:102DA000EC018B01442ECB018C1B9D0B97FF03C0C4
:102DB00091958195910955245394813891053CF45E
:102DC000512CC80100E810E0E12CF12C0FC00C17C9
:102DD0001D0734F07E0180E890E0C0E0D0E006C03E
:102DE00078018E0180E090E0C0E8D0E038016E18F4
:102DF0007F085C01AC1ABD0AB7FE03C0B194A19470
:102E0000B108630177FE03C02FEFC21AD20AD5942E
:102E1000C794C817D90714F08FEF01C081E0882E3E
:102E2000880F99080E151F05C4F0242D552019F0A0
:102E3000A701BE0102C0AE01B7018BE097E00E947E
:102E4000DB11CA18DB08D7FE04C0C80DD91DC60C9B
:102E5000D71C8FEFE81AF80AE5CFDF91CF911F91C9
:102E60000F91FF90EF90DF90CF90BF90AF909F9029
:102E70008F907F906F905F904F900895FC018091AC
:102E8000A702811103C08FEF9FEF08959FB7F894B9
:102E900082E08093E9002091F20030E012161306E0
:102EA00014F421E030E02115310559F0289884E62A
:102EB0008093A6028091F10080838091F2008823A4
:102EC00019F09FBFC90108958BE68093E800F9CF00
:102ED0002FB7F89483E08093E9009091E800892F60
:102EE000807295FF04C09091F20080E4891B2FBF8F
:102EF00008958091220781110DC082E080931E0702
:102F000084E080931F07109221071092200781E030
:102F1000809322078EE197E00895CF93DF93CDB79A
:102F2000DEB7A9970FB6F894DEBF0FBECDBF789479
:102F300084B5826084BD84B5816084BD85B58260BE
:102F400085BD85B5816085BD80916E00816080936F
:102F50006E001092810080918100826080938100D8
:102F600080918100816080938100809180008160E8
:102F70008093800080919100826080939100809185
:102F80009100816080939100809190008160809396
:102F900090008091C10084608093C1008091C10045
:102FA00082608093C1008091C10081608093C100E4
:102FB0008091C30081608093C3008091C0008260D3
:102FC0008093C0008091C20081608093C200809194
:102FD0007A00846080937A0080917A008260809386
:102FE0007A0080917A00816080937A0080917A00E3
:102FF000806880937A001092A70210928402109247
:1030000083028091D70081608093D70080EA80930B
:10301000D80089B5806189BD89B5826089BD09B450
:1030200000FEFDCF61E070E080E090E00E94B70F0D
:103030008091D8008F7C80618093D8008091E000DF
:10304000807F8093E0008091E1008E7E8093E1009C
:103050008DE08093E200559A209AEEEFFFE785918C
:1030600094918B3F9C4D19F481E08093820281EC16
:1030700080937C0085B1806F85B984B1877E84B9E7
:1030800084B1876E84B95E9A5F988AB1806D8AB97F
:10309000769A6E9881B3806F81BB899880B38D706A
:1030A00080BB80E58CBD81E08DBD85E090E00E9415
:1030B000CE115F9A85E090E00E94CE115E985C98F8
:1030C000ECEAF0E08DE08E0F94919EBD00000DB40F
:1030D00007FEFDCF31968E13F7CF5C9A81E880937F
:1030E0006400809165008160809365000E948F1666
:1030F0000E94D31187FF24C05C9885EA8EBD000032
:103100000DB407FEFDCF5C9A2E982F982D988091D4
:10311000640080628093640081E083BF889513BE61
:10312000FCCF2D980E94D3118478843871F00E94CE
:10313000D3118471843129F188EC90E00E94CE1182
:103140000E94D31182FDEDCF38C02D9A88EC90E01B
:103150000E94CE112F9882E090E00E941A208F3FAB
:1031600029F06FEF82E090E00E94222084EF91E04E
:103170000E94CE112F9A0E94D31184788438D9F3FB
:10318000D6CF2D9A88EC90E00E94CE112E9882E046
:1031900090E00E941A20882329F060E082E090E00D
:1031A0000E94222084EF91E00E94CE112E9A0E946C
:1031B000D31184718431D9F3BFCF2D9A82E090E08E
:1031C0000E941A20882331F03E9A3F9A81E0809332
:1031D000850204C0109285023E983F980E947C169A
:1031E00080E180931207CE0101966C0195E09C0D61
:1031F00099A735E0232E312C412C512CDE015F960E
:10320000BEA3ADA3FE017996F8A7EFA38FB7F894FC
:1032100040918602509187026091880270918902E4
:103220008FBF80911307F42FF81B8F2F90911407F5
:10323000992329F0F093150710921407EFC5909188
:103240001207F91748F48F5F891708F0E7C581E086
:1032500083BF889513BEE2C511E010931407409315
:10326000130780910E0790910F07019690930F0717
:1032700080930E0780911007809311070E94D3114D
:10328000809310070E947C1680919202823009F48C
:10329000AEC130F4882359F0813009F43FC01CC519
:1032A000833009F4C9C1843009F470C415C500E441
:1032B00020E84EE05CE060E070E080E090E00E949A
:1032C000B913A12CB12CF0908C024F2DB50180E0E8
:1032D00090E00E948213B5016F5F7F4F4F2D80E811
:1032E00090E08F1991090E94821322E0A20EB11C76
:1032F00080E4A816B10439F7F7FC98C5F394F0926E
:103300008C0288E890E0909300078093FF0688E79E
:1033100091E09093020780930107DEC4FE01379687
:1033200086E0DF011D928A95E9F781E18B8788E0CD
:103330008C878091FF069091000797FD079623E008
:10334000959587952A95E1F7992798878F8380919E
:1033500001079091020797FD079603E095958795E1
:103360000A95E1F799279A87898786E0E4E1F1E0F9
:10337000D60101900D928A95E1F700E420E84EE035
:1033800058E060E070E080E090E00E94B913F090B7
:103390008F02EF2C00EF17E02F2D4EEF57E060E388
:1033A00070E081E690E00E94B81480910E07909141
:1033B0000F076FE070E00E949F20892B29F481E0C5
:1033C0008F0D817080938F0220919102609101078F
:1033D0007091020777FF02C0695F7F4F13E0759518
:1033E00067951A95E1F777278091FF06909100077E
:1033F00097FD0796B3E095958795BA95E1F7E22E8C
:103400000AEA17E04CEC57E090E00E94B814809173
:103410000E0790910F0783709927892B09F0A2C09E
:103420000E94D31185FF05C00E94351381E080936F
:1034300091020E94D31186FF04C00E945A13109279
:1034400091020E94D31183FF68C080919102811183
:1034500023C020919002609101077091020777FFCD
:1034600002C0695F7F4FA3E075956795AA95E1F764
:103470007727685F7F4F8091FF069091000797FD47
:103480000796F3E095958795FA95E1F7E22E04E625
:1034900017E046E857E024C0813029F520919002DA
:1034A000609101077091020777FF02C0695F7F4F4B
:1034B000E3E075956795EA95E1F77727685F7F4FB9
:1034C0008091FF069091000797FD079653E0959530
:1034D00087955A95E1F7E22E0EE117E040E457E0B8
:1034E00090E00E94B81480910E0790910F0765E05C
:1034F00070E00E949F20892B31F4809190028F5FB1
:103500008170809390020E94E81241E250E061E4F1
:1035100070E081E290E00E94D91580910E079091B1
:103520000F0787709927892BE9F40E94D31183FF35
:103530000E940D130E94D31185FD14C00E94D31167
:1035400086FD10C080910307909104071816190694
:1035500014F40E943513809103079091040797FD9E
:103560000E945A13E980FA800B811C812D813E81D3
:103570004F81588569857A858B859C850E94FB15CE
:10358000882309F4A9C3809164008E7F809364002E
:1035900080917A00806480937A0080917A0086FD21
:1035A000FCCFE0907800F09079000E94920F8701A4
:1035B00020E030E0980111270027600F711F821F63
:1035C000931F611571058105910511F00E9411206D
:1035D0008091640081608093640045EA50E066E277
:1035E00071E08BE092E00E94D91582E039C488E84E
:1035F00090E0909300078093FF0688E791E0909316
:10360000020780930107109391021092900289E4BF
:10361000809303018FE28093020110928F0285E074
:10362000809301018CE38093000110928E0210922E
:103630008D0283E08093920241E065E370E085E3D0
:1036400090E00E94C016E12CF12C07E310E021E08D
:10365000A801B7018BE097E00E94DB110F5F1F4FBD
:1036600000341105A1F7BFEFEB1AFB0AE0E8EE16F4
:10367000F10459F7E12C0CEC14E020E04CEC55E09F
:1036800067E370E080E090E00E94B81482E090E090
:10369000909317078093160789E390E0909319079A
:1036A000809318078AEC94E00E949F1680918D0207
:1036B00090918E02F6016AE070E00E949F20819353
:1036C000CB0129A52E13F7CF8E010A5F1F4FD8011A
:1036D0004E918D0150E060E070E02AE087E097E0D5
:1036E0000E94490F0C151D0591F782E390E090931D
:1036F00017078093160789E390E09093190780934A
:103700001807809100012AE0622F0E949320192F50
:103710000E949320492F50E060E070E087E097E03E
:103720000E94490F412F50E060E070E02AE087E0FE
:1037300097E00E94490F82E3E82E81E0F82E812C69
:10374000912C612C712CA12CB12CF701EA0DFB1DE1
:103750004081518103E0440F551F0A95E1F7425320
:10376000594F08E028E0B401C3010E94B913B2E048
:10377000AB0EB11CE8E06E0E711CF0E2AF16B104A6
:1037800021F720E2E20EF11C88E0880E911C90E403
:1037900089169104B1F62091910260910107709110
:1037A000020777FF02C0695F7F4F13E07595679549
:1037B0001A95E1F777278091FF069091000797FD12
:1037C0000796B3E095958795BA95E1F7E22E0AEA58
:1037D00017E04CEC57E090E00E94B814F0908F0294
:1037E00080900201912C60900301712CEF2C00EF6E
:1037F00017E02F2D4EEF57E0B401C3010E94B8141B
:1038000080910E0790910F076FE070E00E949F205B
:10381000892B29F481E08F0D817080938F0286E0DF
:10382000ADA1BEA11D928A95E9F781E18BA388E045
:103830008CA38091FF069091000797FD0796A3E067
:1038400095958795AA95E1F7992798A38F8FA090D2
:103850000107B0900207C501B7FC0796F3E0959504
:103860008795FA95E1F799279AA389A386E0EFA1B6
:10387000F8A5282F11922A95E9F797E09D8F98E0F7
:103880009E8F7A8E698E9C8E8B8EEAE1F1E0DE014E
:103890005396982F01900D929A95E1F7E0E2F1E0AE
:1038A000DE011D96982F01900D929A95E1F7E6E2C0
:1038B000F1E0DE011796982F01900D929A95E1F7AD
:1038C000ECE2F1E0D60101900D928A95E1F7EB88E8
:1038D000FC880D891E892F89388D4F8D58A169A1CB
:1038E0007AA18BA19CA10E94FB15882339F088E066
:1038F000A81AB108B0920207A0920107ED84FE84D5
:103900000F85188929893A894F8D58A169A17AA113
:103910008BA19CA10E94FB15882349F0809101078F
:103920009091020708979093020780930107EF8018
:10393000F88409851A852B853C854F8D58A169A18E
:103940007AA18BA19CA10E94FB15882349F080914C
:10395000010790910207089790930207809301074F
:10396000E980FA800B811C812D813E814F8D58A109
:1039700069A17AA18BA19CA10E94FB15882349F023
:103980008091010790910207089790930207809316
:103990000107E98CFA8C0B8D1C8D2D8D3E8D4F8D82
:1039A00058A169A17AA18BA19CA10E94FB15882333
:1039B000E9F180918D0290918E02029690938E0291
:1039C00080938D020E940C20A20191010E94302060
:1039D00060930101611105C081E08093030180E2E1
:1039E0001BC0613029F484E18093030188E014C096
:1039F000623029F481E38093030188E10DC06330D4
:103A000029F482E68093030180E106C0643031F43A
:103A100089E4809303018FE28093020142E550E044
:103A200065EA70E087E295E00E94D91520910E07C3
:103A300030910F07C9016CE370E00E949F20892B31
:103A400061F490910001923010F0915004C084E034
:103A50008093920294E09093000123703327232BEC
:103A600009F03AC10E94D31185FF05C00E943513A9
:103A700081E0809391020E94D31186FF04C00E94CE
:103A80005A13109291020E94D31183FF68C0809153
:103A90009102811123C020919002609101077091E1
:103AA000020777FF02C0695F7F4FE3E07595679576
:103AB000EA95E1F77727685F7F4F8091FF06909145
:103AC000000797FD079653E0959587955A95E1F77E
:103AD000E22E04E617E046E857E024C0813029F5DD
:103AE00020919002609101077091020777FF02C058
:103AF000695F7F4F43E0759567954A95E1F77727B2
:103B0000685F7F4F8091FF069091000797FD0796B1
:103B100033E0959587953A95E1F7E22E0EE117E0AF
:103B200040E457E090E00E94B81480910E07909115
:103B30000F0765E070E00E949F20892B31F480918F
:103B400090028F5F8170809390020E94E81241E2A0
:103B500050E061E470E081E290E00E94D91580912C
:103B60000E0790910F0787709927892B09F0B4C031
:103B70000E94D31183FF0E940D130E94D31185FD73
:103B8000ABC00E94D31186FF58C1A6C0E0908A0244
:103B9000F0908B0200E420E849EB50E060E070E038
:103BA000C7010E94B91320E849EB50E060E070E0E3
:103BB000C70180589F4F0E94B91380910E0780FD66
:103BC00011C091E0E91AF108A0E8EA16AFEFFA0691
:103BD0002CF0F0928B02E0928A0204C010928B02C9
:103BE00010928A02E12CF12C00E110E020E0A80103
:103BF000B7018BE097E00E94DB110F5F1F4F0F3280
:103C00001105A1F7BFEFEB1AFB0AE0E8EE16F1048D
:103C100059F741E061E170E081E190E00E94C01657
:103C200041E06DE270E08DE290E00E94C01640E05D
:103C300060E370E080E390E00E94C01640E062E341
:103C400070E082E390E00E94C01685E290E09093DD
:103C500017078093160786E190E0909319078093E9
:103C6000180780EC94E00E949F168FE190E09093FB
:103C700017078093160782E290E0909319078093CC
:103C8000180789EB94E00E949F1680918D02909115
:103C90008E02F6016AE070E00E949F208193CB01C2
:103CA00029A52E13F7CF8E010A5F1F4FD8014E9121
:103CB0008D0150E060E070E02AE087E097E00E942C
:103CC000490F0C151D0591F78091110782FD04C065
:103CD0008091100782FDC3C00E948F166FE572E0CD
:103CE0008DEA96E00E94340F8091FF0690910007C4
:103CF0000E946D1663E672E08DEA96E00E94340F32
:103D000080910307909104070E946D166EE672E0A1
:103D10008DEA96E00E94340F80910107909102078E
:103D20000E946D1664E772E08DEA96E00E94340FFF
:103D30004091050750910607052E000C660B770B86
:103D400077FF05C0CB01BA010E94441605C02AE0E6
:103D50008DEA96E00E94490F6FE772E08DEA96E0E7
:103D60000E94340F809105079091060797FF0FC0BE
:103D70002091010730910207821793071CF4820FEC
:103D8000931F15C0109202071092010719C00097E7
:103D9000B9F0409101075091020728E731E0B901DD
:103DA000681B790B461757073CF4840F951F9093B7
:103DB00002078093010704C0309302072093010794
:103DC000809103079091040797FF0FC02091FF0691
:103DD00030910007821793071CF4820F931F15C0C0
:103DE000109200071092FF0619C00097B9F0409199
:103DF000FF065091000728E733E0B901681B790BF3
:103E0000461757073CF4840F951F90930007809343
:103E1000FF0604C0309300072093FF0680E090E087
:103E2000892B09F4F3C90E940000E8C980E8809357
:103E30008C0281E08093920264CA80910307909182
:103E400004071816190614F40E943513809103070D
:103E50009091040797FF40CF0E945A133DCF81E015
:103E60008093920239CF0F931F93CF93DF938C01EE
:103E700081E090E00E941A2080FF31C08AE090E04B
:103E80000E941A209FEF980F9E3F48F522E330E0F2
:103E9000D80150963C932E931F9728E330E052961A
:103EA0003C932E935197CBE0D0E0D801ED91FC915B
:103EB0000190F081E02D682FC8010995CE010E9484
:103EC0001A202196C131D10581F70E948F1688EE04
:103ED00093E0DF91CF911F910F910C94CE11DF9160
:103EE000CF911F910F91089504970C94331FEDEA21
:103EF000F6E01382128288EE93E0A0E0B0E08483C3
:103F00009583A683B7838DE392E0918380838FEFBF
:103F10009FEF95878487E7E0F7E01382128211868E
:103F2000128680E183871086178215868FE492E0DF
:103F3000918380838DE592E095838483108A178630
:103F4000128A118A81E0838B148A858B168A80E11C
:103F50009CE09093FE068093FD0680E090E89093AD
:103F600037078093360746983E9A47983F9AEFEF77
:103F7000F6E0158214821782168208958F929F921E
:103F8000AF92BF92CF92DF92EF92FF92CF93DF93E7
:103F9000EC01688179818A819B81611571058105B8
:103FA000910521F464E279ED8BE597E02DE133EFA3
:103FB00041E050E00E94302049015A019B01AC01D0
:103FC000A7EAB1E40E944F206B017C01ACEEB4EF94
:103FD000A50194010E945D20DC01CB018C0D9D1D8B
:103FE000AE1DBF1DB7FF03C00197A109B04888836C
:103FF0009983AA83BB83BC01CD019F77DF91CF91C9
:10400000FF90EF90DF90CF90BF90AF909F908F90F8
:1040100008950E94BE1F089580E191E00E94BE1F96
:104020000895609310017093110180931201909391
:1040300013010895F999FECF92BD81BDF89A992791
:1040400080B50895262FF999FECF1FBA92BD81BD84
:1040500020BD0FB6F894FA9AF99A0FBE019608950A
:10406000052E97FB1EF400940E94472057FD07D0B1
:104070000E94622007FC03D04EF40C944720509518
:104080004095309521953F4F4F4F5F4F0895909544
:104090008095709561957F4F8F4F9F4F08950E9437
:1040A0008420A59F900DB49F900DA49F800D911D1D
:1040B00011240895B7FF0C944F200E944F20821BBB
:1040C000930B0895A1E21A2EAA1BBB1BFD010DC084
:1040D000AA1FBB1FEE1FFF1FA217B307E407F507B8
:1040E00020F0A21BB30BE40BF50B661F771F881F94
:1040F000991F1A9469F760957095809590959B012A
:10410000AC01BD01CF010895A29FB001B39FC001D2
:10411000A39F700D811D1124911DB29F700D811DF3
:104120001124911D0895991B79E004C0991F9617D9
:1041300008F0961B881F7A95C9F780950895AA1BE9
:10414000BB1B51E107C0AA1FBB1FA617B70710F082
:10415000A61BB70B881F991F5A95A9F780959095B4
:10416000BC01CD010895EE0FFF1F0590F491E02DE5
:10417000099481E090E0F8940C94BE20F894FFCF6D
:104180003C052F49FFFFFFFF00E100000000000099
:10419000010000006100300007080000270010083F
:1041A00011001000180831002000100861001800EC
:1041B00018080600060006000600060006000600B5
:1041C00006000600050005000500060006000600C2
:1041D00006000100010002000200020001000100CF
:1041E00001000100010001000100010001000100C7
:1041F000010001000100090009000900010001009F
:1042000001000100010001000100020002000400A1
:104210000100010001000100010001000100020095
:10422000020001000100010001000900090009006D
:10423000010002000400010001000100010009006A
:10424000090001000100010001000100010001005E
:104250000100090009000100010001000100010046
:104260000100010001000100010001000100010046
:104270000100010001000100010001000100010036
:104280000100010001000100010001000100010026
:104290000100010001000100010001000700010010
:1042A0000100010001000100010001000100010006
:1042B000010000C1808100000000000000BB0BF184
:1042C0000F4C0CD10BDC0B740C500C00000000F9EF
:1042D00011900B150C140C331FFCFF0000741F7899
:1042E0003A20002C207844656C74613A20002C2020
:1042F000793A20002C207944656C74613A20000DD5
:024300000A00B1
:00000001FF
