:100000000C94A9030C94D1030C94D1030C94D10348
:100010000C94D1030C94D1030C94D1030C94D10310
:100020000C94D1030C94D1030C94B1050C942306C9
:100030000C94D1030C94D1030C94D1030C94D103F0
:100040000C94D1030C94D1030C94D1030C94D103E0
:100050000C94D1030C94D1030C94D1030C9401099A
:100060000C94D1030C94D1030C94D1030C94D103C0
:100070000C94D1030C94D1030C94D1030C94D103B0
:100080000C94F9090C94D1030C94D1030C94D10372
:100090000C94D1030C94D1030C94D1030C94D10390
:1000A0000C94D1030C94D1030C94D103F0F89C8EE2
:1000B0008783878E9CF8F00000FEFF030303030391
:1000C000070EFCF80000FEFF0303030303070EFC0A
:1000D000F80000FFFF00000000000000FFFF00002C
:1000E000FEFF8383838383C7EE7C380000F8FC0E19
:1000F00007030303070EFCF800003F7FE0C0808089
:10010000C0E07F3FFFFF01010101010101FFFF008E
:1001100000FFFF0C0C0C0C1C3E77E3C100007FFFBE
:10012000C0C0C0C0C0E0703F1F00001F3F70E0C0F3
:10013000C0C0E0703F1F00007FFFC1C1C1C1C1E36B
:10014000773E1C00001F3F70E0C0C0C0E0703F1F42
:10015000000000000001FFFF01000000D5F08D1439
:10016000A1C881CFD9F1AF2000087CFE7FFE6702D5
:10017000087CFE7FFE6E0407080008641E6402000F
:100180000008641E64040070F8FEFFFFFFFFFFFF1D
:10019000FEFEFFFFFFFAF06060F0FAFFFFFFFEFED9
:1001A000FFFFFFFFFFFFFEF87011080070186E1EC2
:1001B0005E1272767C186A1E5A1060000060105A37
:1001C0001E6A187C7672125E1E6E18700031002452
:1001D0003A00080B000202020100090400000102BB
:1001E000020000052400100105240101010424027D
:1001F00006052406000107058103100040090401DB
:1002000000020A0000000705020240000007058303
:10021000024000000403090412010002EF02014041
:100220004123368000010102030141726475696E49
:100230006F204C4C430041726475696E6F204C65B1
:100240006F6E6172646F000102040810204080002C
:10025000000000003E5B4F5B3E3E6B4F6B3E1C3E22
:100260007C3E1C183C7E3C181C577D571C1C5E7F36
:100270005E1C00183C1800FFE7C3E7FF00182418B5
:1002800000FFE7DBE7FF30483A060E2629792926EA
:10029000407F050507407F05253F5A3CE73C5A7FD4
:1002A0003E1C1C08081C1C3E7F14227F22145F5F2A
:1002B000005F5F06097F017F006689956A60606064
:1002C000606094A2FFA29408047E040810207E209F
:1002D0001008082A1C08081C2A08081E10101010F4
:1002E0000C1E0C1E0C30383E3830060E3E0E06003A
:1002F0000000000000005F00000007000700147FFE
:10030000147F14242A7F2A12231308646236495664
:1003100020500008070300001C2241000041221C5D
:10032000002A1C7F1C2A08083E0808008070300044
:100330000808080808000060600020100804023E59
:100340005149453E00427F4000724949494621419A
:10035000494D331814127F1027454545393C4A4909
:100360004931412111090736494949364649492948
:100370001E00001400000040340000000814224158
:100380001414141414004122140802015909063EE1
:10039000415D594E7C1211127C7F494949363E41DC
:1003A0004141227F4141413E7F494949417F0909FD
:1003B00009013E414151737F0808087F00417F4198
:1003C000002040413F017F081422417F40404040CF
:1003D0007F021C027F7F0408107F3E4141413E7F27
:1003E000090909063E4151215E7F0919294626491E
:1003F00049493203017F01033F4040403F1F2040F5
:10040000201F3F4038403F631408146303047804FE
:10041000036159494D43007F4141410204081020C6
:10042000004141417F04020102044040404040003D
:100430000307080020545478407F28444438384447
:10044000444428384444287F385454541800087EC3
:10045000090218A4A49C787F0804047800447D4015
:10046000002040403D007F1028440000417F4000B4
:100470007C047804787C080404783844444438FCCC
:100480001824241818242418FC7C08040408485450
:1004900054542404043F44243C4040207C1C20400D
:1004A000201C3C4030403C44281028444C90909004
:1004B0007C4464544C44000836410000007700003E
:1004C000004136080002010204023C2623263C1E9D
:1004D000A1A161123A4040207A385454555921550F
:1004E0005579412154547841215554784020545530
:1004F00079400C1E5272123955555559395454547D
:100500005939555454580000457C410002457D42FC
:100510000001457C40F0292429F0F0282528F07CB2
:10052000545545002054547C547C0A097F49324973
:100530004949323248484832324A4848303A4141C3
:10054000217A3A42402078009DA0A07D394444445D
:10055000393D4040403D3C24FF2424487E494366C9
:100560002B2FFC2F2BFF0929F620C0887E090320A2
:10057000545479410000447D413048484A32384063
:1005800040227A007A0A0A727D0D19317D262929C6
:100590002F28262929292630484D402038080808C8
:1005A0000808080808382F10C8ACBA2F102834FAE9
:1005B00000007B000008142A142222142A14089533
:1005C00000220095AA005500AAAA55AA55AA000023
:1005D00000FF00101010FF00141414FF001010FF93
:1005E00000FF1010F010F0141414FC001414F700A5
:1005F000FF0000FF00FF1414F404FC141417101F74
:1006000010101F101F1414141F00101010F0000001
:1006100000001F101010101F10101010F01000001C
:1006200000FF101010101010101010FF100000002C
:10063000FF140000FF00FF00001F10170000FC0463
:10064000F414141710171414F404F40000FF00F746
:1006500014141414141414F700F7141414171410A9
:10066000101F101F141414F4141010F010F00000D8
:100670001F101F0000001F14000000FC140000F0F9
:1006800010F01010FF10FF141414FF141010101F9E
:1006900000000000F010FFFFFFFFFFF0F0F0F0F0AF
:1006A000FFFFFF0000000000FFFF0F0F0F0F0F38CC
:1006B000444438447C2A2A3E147E02020606027E06
:1006C000027E0263554941633844443C04407E2025
:1006D0001E2006027E020299A5E7A5991C2A492A36
:1006E0001C4C7201724C304A4D4D303048784830C5
:1006F000BC625A463D3E494949007E0101017E2ABD
:100700002A2A2A2A44445F444440514A44404044EF
:100710004A51400000FF0103E080FF000008086B21
:100720006B083612362436060F090F06000018181B
:100730000000001010003040FF0101001F01011EE9
:1007400000191D1712003C3C3C3C0000000000005A
:10075000121211241FBECFEFDAE0DEBFCDBF11E0D1
:10076000A0E0B1E0ECE1F7E202C005900D92A83400
:10077000B107D9F725E0A8E4B1E001C01D92AF3E72
:10078000B207E1F713E0C9EAD3E004C02197FE0104
:100790000E948113C83AD107C9F70E94DD0D0C945D
:1007A0008C130C940000FC0180915C01811103C04A
:1007B0008FEF9FEF08959FB7F89482E08093E90050
:1007C0002091F20030E01216130614F421E030E01C
:1007D0002115310559F0289884E680935B018091BA
:1007E000F10080838091F200882319F09FBFC90136
:1007F00008958BE68093E800F9CF2FB7F89483E053
:100800008093E9009091E800892F807295FF04C0E1
:100810009091F20080E4891B2FBF08958091890593
:1008200081110DC082E08093850584E08093860568
:10083000109288051092870581E08093890585E8EC
:1008400095E00895CF93DF931F92CDB7DEB769830C
:10085000DC01ED91FC910280F381E02D41E050E05C
:10086000BE016F5F7F4F09950F90DF91CF91089583
:1008700083E08093E9008091F200882319F08AE3F5
:100880008093E80008950E94FD0390E00895CF93BF
:10089000DF931F92CDB7DEB7FC018485958597FD68
:1008A00005C02FEF3FEF358724870BC0CE0101969F
:1008B0000E94D303019719F4898190E002C08FEF61
:1008C0009FEF0F90DF91CF9108950F931F93CF93D8
:1008D000DF931F92CDB7DEB78C01FC01848595852F
:1008E00097FF0EC0CE0101960E94D303019719F421
:1008F000298130E002C02FEF3FEFF80135872487D0
:10090000F801848595850F90DF91CF911F910F910C
:100910000895FC018485958597FD0BC09FB7F894D9
:1009200082E08093E9008091F2009FBF90E0019601
:1009300008959FB7F89482E08093E9008091F200D7
:100940009FBF90E008958F929F92AF92BF92CF92F7
:10095000DF92EF92FF920F931F93CF93DF935C018F
:100960006B017A0180910F01882309F45BC08091AB
:100970005C01882309F456C080915A0180FF05C0AC
:100980008091E00082608093E000E70110E00AEFD0
:1009900083E0882E9AE3992E2097D9F10E94FD03D7
:1009A00081110AC0015009F43DC061E070E080E0AF
:1009B00090E00E94C708F0CF282F30E0C217D3077D
:1009C0000CF48C2F4FB7F8948092E9009091E800D6
:1009D00095FF1DC0282F30E0C21BD30BF601982FC6
:1009E000915020F081918093F100FACFC20ED31E76
:1009F000112319F09092E80009C08091E80085FD6C
:100A000006C09092E80011E0209709F010E04FBF77
:100A1000C3CF1111C3CF5D9884E6809384051E1463
:100A20001F0444F081E090E0F5019383828380E02D
:100A300090E001C0C701DF91CF911F910F91FF900E
:100A4000EF90DF90CF90BF90AF909F908F900895E0
:100A5000DF92EF92FF920F931F93CF93DF93D82EE5
:100A60008A017B01E40EF51EEB01CE15DF0571F066
:100A7000D7FE03C0FE01849101C088810E94A20DAF
:100A800021968111F2CF8FEF9FEF01C0C801DF9156
:100A9000CF911F910F91FF90EF90DF9008950F93EA
:100AA0001F93CF93DF931F92CDB7DEB782E0898388
:100AB00042E450E062ED71E080E80E9428050E9467
:100AC0000E04DC0112960D911C911397011511056E
:100AD00069F0D801ED91FC910280F381E02DBE0117
:100AE0006F5F7F4FC801099597FF07C089810F90FD
:100AF000DF91CF911F910F910895F8010085118525
:100B0000E5CF0F931F93CF93DF938C01C0E0D0E02C
:100B1000F801EC0FFD1F6491662371F0E0916D0503
:100B2000F0916E050190F081E02D8DE695E009953C
:100B3000892B11F02196ECCFCE01DF91CF911F913F
:100B40000F910895EDE5F1E0A0E0B8E000800EBC63
:100B50008111012C1197A0FDFDCF0192B9F70DB4C1
:100B600008951F920F920FB60F9211248F939F93A7
:100B70008091E1009091E100937F9093E10083FFE9
:100B80000FC01092E90091E09093EB001092EC00FE
:100B900092E39093ED0010925C0198E09093F00046
:100BA00082FF20C093E09093E9009091F200992396
:100BB00019F09AE39093E80090918405992339F015
:100BC00090918405915090938405992389F1909197
:100BD0005B01992339F090915B01915090935B01F7
:100BE000992341F184FF10C08091E2008E7E8160E4
:100BF0008093E2008091E1008F7E8093E1008091FC
:100C00005A018E7E806111C080FF16C08091E20083
:100C10008E7E80618093E2008091E1008E7E8093E1
:100C2000E10080915A018E7E816080935A0104C058
:100C30005D9ACDCF289AD6CF9F918F910F900FBEFE
:100C40000F901F9018951F920F920FB60F921124BC
:100C5000CF92DF92EF92FF920F931F932F933F93C8
:100C60004F935F936F937F938F939F93AF93BF93B4
:100C7000EF93FF93CF93DF93CDB7DEB76C97DEBFD3
:100C8000CDBF1092E9008091E80083FFEDC168E0DC
:100C9000CE0145960E94D00D82EF8093E8008D89A9
:100CA00087FF05C09091E80090FFFCCF03C09EEF46
:100CB0009093E800982F907609F0C6C09E892F89FE
:100CC000188D91110CC0803829F4809159018093BE
:100CD000F10002C01092F1001092F10048C1422FC1
:100CE00050E0512B913051F4811141C141305105F7
:100CF00009F03DC1809159018D7F0BC0933061F4A3
:100D0000811135C14130510509F031C1809159013E
:100D10008260809359012BC1953041F48091E800A5
:100D200080FFFCCF20682093E30021C1963009F0BA
:100D30005FC0EB8CFC8C1092E9001092570110926E
:100D40005601123091F510925501109254010E94F3
:100D50004F0599E0BE016F5F7F4FDB01E92F1D92C8
:100D6000EA95E9F799831A8391E09E8390EA988740
:100D70009AEF99872091560130915701275F3F4F95
:100D80003C832B838D831092E900109257011092BF
:100D90005601F0925501E092540149E050E080E0A4
:100DA0000E9428050E944F05E2C0F0925501E09292
:100DB00054010E940E04DC011296ED90FC901397F2
:100DC000E114F10409F4C0C0D701ED91FC91048055
:100DD000F581E02DBE016B5E7F4FC701099500973D
:100DE00019F00CF0C4C0C7C0F701E084F184E8CF6B
:100DF000973009F4C0C0983021F481E08093F1006D
:100E0000B6C0993009F0B3C0837009F0B4C0EBE10B
:100E1000F1E081E021E036E39081992361F0809355
:100E2000E9002093EB0091919093EC003093ED005A
:100E30008F5F873089F78EE78093EA001092EA008F
:100E40008F8980935C0193C08B8D9C8D1092E900FB
:100E500010925701109256019093550180935401BE
:100E6000898D811156C08E899D89913A59F48132BC
:100E700009F081C047E050E068E071E080E00E9446
:100E8000280575C0913209F076C0833289F4888DC7
:100E900090E0982F88272F89822BA0E0B0E08093E4
:100EA000040190930501A0930601B09307015FC070
:100EB000803269F48091E80082FFFCCF67E088E02F
:100EC00091E00E94D00D8BEF8093E80006C0823243
:100ED00009F04DC08F8980930F01809158018823BC
:100EE00019F0EEEFFAE002C0E0E0F8E080910801CE
:100EF00090910901A0910A01B0910B01803B9440AF
:100F0000A105B10509F07BC080910F0180FF93C05E
:100F100076C00E940E04DC0112960D911C9113976D
:100F20000115110541F1D801ED91FC910190F0817D
:100F3000E02DBE016B5E7F4FC8010995811117C07E
:100F4000F80100851185ECCF113009F44EC0133043
:100F500091F48F89882309F445C0823081F440E8F8
:100F600060E186E392E00E94D511882321F08EEFA4
:100F70008093E80079C081E28093EB0075C08130F6
:100F800029F440E86BE08AE292E0EDCF833099F7F4
:100F90000E940E04DC011296ED90FC9013978E01D6
:100FA0000F5F1F4F6801E114F10479F0D701ED9153
:100FB000FC910680F781E02DB801C7010995080F63
:100FC000111DF701E084F184EECFD8011C92F601E7
:100FD00001900020E9F73197BF016C197D0940E0CD
:100FE000C601C1CF64E172E002C068E172E0611540
:100FF000710509F2FB01449150E080E840CF0FB643
:10100000F894A895809160008861809360001092A8
:1010100060000FBEA895EE3F2AE0F20739F08091FC
:10102000FE0A9091FF0A91838083A1CF1092FF0A5C
:101030001092FE0A9CCFEE3F8AE0F80731F08081E3
:1010400091819093FF0A8093FE0A87E797E7918347
:1010500080839BE088E10FB6F894A89580936000A8
:101060000FBE9093600083CF6C960FB6F894DEBFEE
:101070000FBECDBFDF91CF91FF91EF91BF91AF91A7
:101080009F918F917F916F915F914F913F912F91A0
:101090001F910F91FF90EF90DF90CF900F900FBEB8
:1010A0000F901F901895CF92DF92EF92FF920F93BF
:1010B0001F93CF93DF936C017A018B01C0E0D0E0E6
:1010C000CE15DF0589F0D8016D918D01D601ED9126
:1010D000FC910190F081E02DC6010995892B11F456
:1010E0007E0102C02196ECCFC701DF91CF911F9105
:1010F0000F91FF90EF90DF90CF9008953FB7F89455
:101100008091EB059091EC05A091ED05B091EE0575
:1011100026B5A89B05C02F3F19F00196A11DB11D52
:101120003FBFBA2FA92F982F8827820F911DA11D8D
:10113000B11DBC01CD0142E0660F771F881F991FCA
:101140004A95D1F7089580915101E0914F01F091B6
:101150005001882349F0CF0102969093500180936B
:101160004F01859194910895CF010296909350017B
:1011700080934F0180819181089580914801089565
:101180000895089580E090E008950E9487138F925B
:101190009F92AF92BF92CF92DF92EF92FF926B013C
:1011A0007C010E947E084B015C01C114D104E10462
:1011B000F104F1F00E947E08DC01CB018819990945
:1011C000AA09BB09883E9340A105B10570F321E04F
:1011D000C21AD108E108F10888EE880E83E0981E53
:1011E000A11CB11CC114D104E104F10419F7DDCF35
:1011F000FF90EF90DF90CF90BF90AF909F908F9037
:1012000008951F920F920FB60F9211242F933F93C0
:101210008F939F93AF93BF938091490190914A011F
:10122000A0914B01B0914C013091EA0523E0230FCE
:101230002D3720F40196A11DB11D05C026E8230F0E
:101240000296A11DB11D2093EA0580934901909358
:101250004A01A0934B01B0934C018091EB05909112
:10126000EC05A091ED05B091EE050196A11DB11D13
:101270008093EB059093EC05A093ED05B093EE05FC
:10128000BF91AF919F918F913F912F910F900FBE82
:101290000F901F901895CF92DF92EF92FF920F93CD
:1012A0001F93CF93DF930E94A308811520E8920734
:1012B00061F4809171008D7F809371001092910094
:1012C000469847981092E3058BC021E02093E305F0
:1012D000813020E8920751F480914D0190914E01A8
:1012E0009093500180934F010E94A30897FD05C081
:1012F0002091E205222309F43FC02091E10521114C
:101300003BC021E02093E405EC01DF77209769F4EE
:1013100081E08093E50546983FE9C32E3FE0D32E58
:10132000E12CF12CCAEFD0E014C08E0120E030E0B7
:1013300060E472E48FE090E0A90198010E940A1332
:1013400069017A0181E0C81AD108E108F108109218
:10135000E505E0916B05F0916C050995811103C0DD
:1013600081E08093E5058091E4058823B9F18091BF
:10137000E505811133C003C01092E405C5CF46993D
:101380002DC0479A0E94A308009771F09C01DE01CE
:101390000E945E13DC01CB0129E0B595A7959795D6
:1013A00087952A95D1F703C08FEF9FEFDC0110924C
:1013B00090002AE020939100D0929900C09298006A
:1013C0008093E6059093E705A093E805B093E905BF
:1013D0008091710082608093710002C04798D2CFE3
:1013E000DF91CF911F910F91FF90EF90DF90CF9001
:1013F00008951F920F920FB60F9211242F933F93CF
:101400004F935F936F937F938F939F93AF93BF930C
:10141000EF93FF938091E6059091E705A091E80591
:10142000B091E905892B8A2B8B2B81F18091E50501
:1014300081110BC098B180E4892788B98091E405B7
:10144000882319F088B1805888B98091E605909179
:10145000E705A091E805B091E905181619061A06E6
:101460001B06B4F48091E6059091E705A091E8058C
:10147000B091E9050197A109B1098093E605909320
:10148000E705A093E805B093E90502C00E944B0967
:10149000FF91EF91BF91AF919F918F917F916F914C
:1014A0005F914F913F912F910F900FBE0F901F9022
:1014B00018956F927F928F929F92AF92BF92CF9228
:1014C000DF92EF92FF920F931F93CF93DF9300D0A1
:1014D00000D0CDB7DEB73A014115510509F401C27C
:1014E000FA01F49031965491F2E06F0E711CAF2C1A
:1014F000B12C211102C0EE2069F1A52FA695A69569
:10150000A695B0E0E1E0F0E0352F377011F4E0E0AF
:10151000F0E0AE0FBF1FAA9EF001AB9EF00DBA9E89
:10152000F00D1124A3E08A2EC81003C0EE0FFF1F98
:101530000AC00115110539F0EE9ED001EF9EB00DE5
:1015400011240A0F1B1F2E9FD0012F9FB00D1124B5
:101550006A0E7B1E2FEFC21208C00115110519F08B
:10156000CC24C39402C032E0C32EDC01AA0DBB1D03
:101570001A161B060CF0B5C1803891050CF0B1C1EC
:101580009B01250F311D121613060CF0AAC1603401
:1015900071050CF0A6C16114710409F4A2C1362FC3
:1015A0003770932EFB0177FD379623E0F595E7958D
:1015B0002A95E1F72E2F77FF04C0992011F02FEF25
:1015C0002E0F97FF05C0EE27FF27E81BF90B02C07F
:1015D000E0E0F0E0A038B1051CF030E8381B01C0B5
:1015E0003F2D3E1B622F022E000C770B2F3F1CF469
:1015F000462F409501C040E0B1E0A52FA77009F447
:10160000B0E0569556955695DB2ED50E6D0D711D95
:10161000693071051CF058E0D52ED21AD41A240F67
:10162000DC0150E82503A00DB11D1124AE0FBF1F32
:101630004F9DE00DF11D1124A3014E0F5F1F81E0AE
:1016400090E07C01092C02C0EE0CFF1C0A94E2F72A
:1016500083E0C81609F404C18C15A8F091E0C916FE
:1016600009F4B5C0E2E0CE123CC18FEF8E9DB0010F
:101670008F9D700D1124609570957C836B837C80A9
:101680006D2C620E2BC0FAEFCF1631F09BEF892E36
:10169000C81027C1D20E87C0D20E51C0FA01E00F88
:1016A000F11FE491EE9D6001EF9DD00C1124DA82D0
:1016B000C98227FD07C0FC01D080ED2DE623CE2A8C
:1016C000FC01C082911013C00F5F1F4F01960317DA
:1016D00028F32F5F4A0D5B1DA058BF4F261509F454
:1016E00000C1CD01835A9E4F00E010E0F0CF2730BB
:1016F0005CF7FC01E058FF4FC080C7208A80C828F3
:10170000C082E2CFFA01E60FF71FE491EE9D80015F
:10171000EF9D100D11241A83098327FD04C0FC01DD
:101720001081012B0083911013C06F5F7F4F0196D2
:10173000631740F32F5F4A0D5B1DA058BF4F2D1557
:1017400009F4CFC0CD01835A9E4F60E070E0F0CF26
:1017500027305CF78C0100581F4FF801C080FA81D8
:10176000CF2AF801C082E1CFFA01E00FF11FE49126
:10177000EE9DC001EF9D900D11249A83898327FD72
:1017800005C08095FB01908189238083911014C04E
:101790000F5F1F4F6F5F7F4F031730F32F5F4A0DAF
:1017A0005B1DA058BF4F2D1509F49BC0BD01635AA6
:1017B0007E4F00E010E0F0CF273054F7FB01E058F7
:1017C000FF4F8A818095908189238083E1CF0E0F1E
:1017D0001F1F8D2C820E281509F483C0CD01835A5A
:1017E0009E4F6C0160E070E0631790F5F801E60F22
:1017F000F71FE491EE9DC001EF9D900D112480959F
:1018000090959C838B83FA01E60FF71FE491EE9D80
:101810003001EF9D700C11247A82698227FD05C08A
:10182000F60190818923682A6082992059F0273037
:101830004CF4F601E058FF4F90818C8189239A8106
:10184000892B80836F5F7F4FFFEFCF1ADF0ACCCFEA
:101850002F5F4A0D5B1D0A0D1B1DA058BF4FBBCF4C
:10186000832F90E0E40FF51FA35ABE4F60E870E0AD
:10187000681B790BA81AB90A8501000F111F5D2D8D
:10188000832ECF93DF93ED01EF96EF962296A590EE
:10189000C590992059F0AE9C5001CE9C6001273034
:1018A0002CF4F880D094FD20FB28F99222233AF002
:1018B000FC90C094FC20FA28FD920C94600C1196C8
:1018C0003A9529F75A9551F0382D23951124E00FB8
:1018D000F11DA60FB11DC60FD11DD9CFDF91CF913C
:1018E00011240F900F900F900F90DF91CF911F91C7
:1018F0000F91FF90EF90DF90CF90BF90AF909F90AF
:101900008F907F906F9008952D9A0895BC0180E08C
:1019100090E00C94C7088FB18095807F669B8860AB
:101920001C9B846008950C94F41260387105D0F407
:1019300040345105B8F4E7E4F2E080E1849FD0013F
:10194000A0781124A60F4770E40FF11D8491A35ACB
:10195000BE4F222319F06C91862B03C080956C91A9
:1019600086238C9308952F923F924F925F926F92AD
:101970007F928F929F92AF92BF92CF92DF92EF921F
:10198000FF920F931F93CF93DF93CDB7DEB72997C5
:101990000FB6F894DEBF0FBECDBFFC016A3069F40C
:1019A00025898189928938E0239F800D911D11241A
:1019B000928B818B108A1786AAC06D3009F4A7C05C
:1019C00099878887F5883488238861887288078595
:1019D000108900381105C4F0A885B98555962C9159
:1019E0005597422F50E01F968D919C915097B6E0ED
:1019F0002B9F800D911D1124E885F985908B878799
:101A0000268921116EC083C0F0E46F16710424F79B
:101A1000C80125E0F29E800D911D112418161906AB
:101A2000DCF68F2D90E09C838B83C301A8E0FA9EA7
:101A3000800D911D11241816190674F6B5E06B9FE0
:101A4000B0011124FB01E15BFD4FFA83E98330E033
:101A50008885998504969E838D83E981FA81E49037
:101A6000353009F4E12C430188E0482EE0FC02C047
:101A7000532C01C0522C51100BC0321009C0E694F7
:101A80004A948B819C81880E991E4110EFCF1BC018
:101A900068018C2D801B8F1590F754018A2D8819B1
:101AA0008F1568F4252DA501B6018D819E813F8398
:101AB0000E94950C9FEFA91AB90A3F81EFCFAFEFB3
:101AC000CA1ADA0AE6CF3F5FEB81FC810E0F1F1FB7
:101AD00089819A8101969A838983363009F0BDCF36
:101AE0007BCF6AEF64039001659F300D112420586D
:101AF0003F4F281739075CF4A885B985ED91FC9113
:101B000011970190F081E02D6AE0CD01099581E007
:101B100090E029960FB6F894DEBF0FBECDBFDF91DF
:101B2000CF911F910F91FF90EF90DF90CF90BF90DA
:101B3000AF909F908F907F906F905F904F903F906D
:101B40002F900895409156015091570120915401D2
:101B50003091550142175307B4F49091E800957005
:101B6000E1F39091E80092FD19C08093F10080911B
:101B700056019091570101968F739927892B19F47B
:101B80008EEF8093E8008091560190915701019665
:101B9000909357018093560181E0089580E0089565
:101BA000615030F02091F100FC0120830196F8CFC4
:101BB000289884E680935B010895CF93DF9300D04B
:101BC00000D000D0CDB7DEB7789484B5826084BDF4
:101BD00084B5816084BD85B5826085BD85B5816031
:101BE00085BD80916E00816080936E0010928100AF
:101BF000809181008260809381008091810081606A
:101C0000809381008091800081608093800080912A
:101C10009100826080939100809191008160809317
:101C20009100809190008160809390008091C1002C
:101C300084608093C1008091C10082608093C10064
:101C40008091C10081608093C1008091C300816058
:101C50008093C3008091C00082608093C000809117
:101C6000C20081608093C20080917A00846080937A
:101C70007A0080917A00826080937A0080917A0065
:101C8000816080937A0080917A00806880937A00E6
:101C900010925C011092590110925A018091D70064
:101CA00081608093D70080EA8093D80089B58061F5
:101CB00089BD89B5826089BD09B400FEFDCF61E0B0
:101CC00070E080E090E00E94C7088091D8008F7C8F
:101CD00080618093D8008091E000807F8093E00055
:101CE0008091E1008E7E8093E1008DE08093E200A0
:101CF000559A209AEEEFFFE7859194918B3F9C4D8A
:101D000019F481E08093580181EC80937C0085B1C7
:101D1000806F85B984B1877E84B984B1876E84B9B8
:101D20005E9A5F988AB1806D8AB9769A6E9881B30F
:101D3000806F81BB899880B38D7080BB80E58CBD3E
:101D400081E08DBD85E090E00E94860C5F9A85E081
:101D500090E00E94860C5E985C98ECE5F1E08DE0E6
:101D60008E0F94919EBD00000DB407FEFDCF3196FD
:101D70008E13F7CF5C9A81E88093640080916500B0
:101D800081608093650080E00E94A2050E948B0C18
:101D900087FF24C05C9885EA8EBD00000DB407FE65
:101DA000FDCF5C9A2E982F982D98809164008062C8
:101DB0008093640081E083BF889513BEFCCF2D988B
:101DC0000E948B0C8478843871F00E948B0C847193
:101DD000843131F188EC90E00E94860C0E948B0CDB
:101DE00082FDEDCF3AC00E94840C88EC90E00E9406
:101DF000860C2F9882E090E00E94F4128F3F29F029
:101E00006FEF82E090E00E94FC1284EF91E00E946C
:101E1000860C2F9A0E948B0C84788438D9F3D5CF06
:101E20000E94840C88EC90E00E94860C2E9882E040
:101E300090E00E94F412882329F060E082E090E0B4
:101E40000E94FC1284EF91E00E94860C2E9A0E9460
:101E50008B0C84718431D9F3BDCF0E94840C82E055
:101E600090E00E94F412882331F03E9A3F9A81E07C
:101E70008093480104C0109248013E983F9881E049
:101E800090E00E94930C82FB772470F881FF8EC053
:101E900071102E9800EF1FEF68E0A62EB12C0E9463
:101EA0008B0C86FF04C02E9A2F9A2D9A7FC0772024
:101EB00029F00430110511F42E9A2F9881E00E9428
:101EC000A205980117FF04C022273327201B310BDE
:101ED00027703327C80117FD079653E0959587951E
:101EE0005A95E1F717FF05C00197A501421B530B57
:101EF0009A017C01F694FE2CEE24F794E79440E0DE
:101F000050E02501421A530AB70160587F4F4B0138
:101F10008F3F7FEF970744F40196485A5F4F740153
:101F2000403B510589F721C0D701AF50BE4F60E05B
:101F300070E08F3FEFEF9E0709F4BFC1FB01E40F94
:101F4000F51FE455FF4FE4916D01C818D908CE0C78
:101F5000DF1CF0E01F01022E01C0220C0A94EAF7F8
:101F6000F601608026282082A8C180E00E94A20598
:101F70008FE090E00E94860C0F5F1F4F0931110522
:101F800009F08DCF772011F02F9A2D9880E991E0FC
:101F90000E94860C0E94840CE0917105F0917205FC
:101FA0000190F081E02D81E795E0099582E390E0D2
:101FB0000E94860C0E948B0C8111F8CF80E18093E7
:101FC00078052DE5222E21E0322E32E0632E712C91
:101FD0008FB7F8944091490150914A0160914B01AB
:101FE00070914C018FBF80917905942F981B80913F
:101FF0007A05882329F090937B0510927A0555C1C4
:1020000020917805921748F49F5F921708F04DC110
:1020100081E083BF889513BE48C191E090937A0513
:102020004093790520917405309175052F5F3F4FDE
:102030003093750520937405F10181118FEF002411
:1020400081938193819381930394D1F710927F05BB
:1020500010927E0510927D0510927C0500E010E044
:1020600021E045E350E0B80181E795E00E94950C3E
:102070000F5F1F4F0138110599F7E12CF12C07E391
:1020800010E021E0A801B70181E795E00E94950CDE
:102090000F5F1F4F00341105A1F7FFEFEF1AFF0A82
:1020A00020E8E216F10459F7EE24E394F12C08E35A
:1020B00010E020E0A801B70181E795E00E94950CAF
:1020C0000F5F1F4F00341105A1F74FEFE41AF40A18
:1020D00059E2E516F10459F770927D0560927C058E
:1020E00069E370E070937F0560937E058FEC91E06B
:1020F0000E9481050AE010E021E04CE150E0B801C7
:1021000081E795E00E94950C0F5F1F4F0832110583
:1021100099F78AE0E82EF12C0EE110E021E0A80109
:10212000B70181E795E00E94950C0F5F1F4F0732C2
:102130001105A1F77FEFE71AF70A88E2E816F10424
:1021400059F7E6E1F0E0F0937D05E0937C054FE17F
:1021500050E050937F0540937E058DEC91E00E9406
:10216000810520915301F090030140900201512C10
:102170006F2D70E0CC24C394E22E07E811E049EA09
:1021800051E0C2010E94590A809174059091750531
:1021900063E070E00E946D13892B19F4F394F092C0
:1021A000030180910301803318F08FE280930301D3
:1021B000F0905201A0900101B12C80900001912C6F
:1021C000CC24C394EF2C09E611E02F2D47E751E012
:1021D000B501C4010E94590A80917405909175055A
:1021E0006FE070E00E946D13892B29F481E08F0D60
:1021F00081708093520180910301682F70E096E016
:10220000E4E1F1E0DE01119601900D929A95E1F77B
:1022100049815A812B813C81AD819E81F201719669
:102220004E175F078CF44A0F511D4416550664F48F
:10223000AB01485F5F4F2417350734F4290F311D78
:10224000621773070CF454C08E169F0694F457E07F
:10225000850E911C4814590464F4CB010896A81605
:10226000B9063CF488E0A80EB11C6A157B050CF495
:1022700043C00E948B0C85FF04C080910201811134
:1022800083C00E948B0C86FF05C0809102018F36AF
:1022900008F481C00E948B0C83FF04C0809103016D
:1022A00081117FC080E00E94A20580E090E0892B30
:1022B00009F48ECE0E9400008BCE2115310581F0ED
:1022C000FB01E40FF51FE455FF4FE491F0E0042C0F
:1022D00002C0F595E7950A94E2F7DC90ED29EC93BE
:1022E0006F5F7F4F11966835710509F022CE14CECD
:1022F000815080930301A8CF0E94E61229E730E0C5
:1023000040E050E00E940A13609300010E94E61230
:102310002FE230E040E050E00E940A136093010198
:10232000809171008D7F80937100109251018DE535
:1023300095E09093500180934F0190934E018093CC
:102340004D0187E295E090935E0580935D0582E301
:1023500090E09093600580935F0525EA30E030932C
:10236000620520936105909364058093630522E5DF
:1023700030E030936605209365059093680580935F
:1023800067050E944B0975CF81508093020181E05F
:102390008093530176CF8F5F809302011092530197
:1023A00079CF8150809303017DCFCF92DF92EF925E
:1023B000FF920F931F93CF93DF931F92CDB7DEB79A
:1023C000182F062FE42E862F880F8E5F99830E9488
:1023D000A20D83E00E94A20DF12EC12E9981D92E6B
:1023E0008C2D8F19801798F4F601E7FE02C08491B6
:1023F00001C080810E94A20D182F80E00E94A20DD2
:102400008123FFEFCF1ADF0A8111EACF01C081E0FB
:102410000F90DF91CF911F910F91FF90EF90DF9080
:10242000CF900895E1E9F5E01382128288EE93E0FF
:10243000A0E0B0E084839583A683B78385E291E032
:10244000918380838FEF9FEF95878487EDE6F5E09A
:10245000138212821186128680E18387108617828A
:10246000158687E391E09183808385E491E09583ED
:102470008483108A1786128A118A81E0838B148ADA
:10248000858B168A8DEB98E090936C0580936B0595
:1024900080E090E890936A058093690546983E9A9B
:1024A00047983F9A08950F931F93CF93DF938C0122
:1024B00081E090E00E94930C80FF32C08AE090E0BF
:1024C0000E94930C9FEF980F9E3F50F522E330E05F
:1024D000D80150963C932E931F9728E330E05296F4
:1024E0003C932E935197CBE0D0E0D801ED91FC9135
:1024F0000190F081E02D682FC8010995CE010E945E
:10250000930C2196C131D10581F780E00E94A2058C
:1025100088EE93E0DF91CF911F910F910C94860C80
:10252000DF91CF911F910F91089504970C9453124E
:102530008F929F92AF92BF92CF92DF92EF92FF92D3
:10254000CF93DF93EC01688179818A819B8161154A
:1025500071058105910521F464E279ED8BE597E041
:102560002DE133EF41E050E00E940A1349015A0186
:102570009B01AC01A7EAB1E40E9429136B017C0125
:10258000ACEEB4EFA50194010E943713DC01CB013E
:102590008C0D9D1DAE1DBF1DB7FF03C00197A10986
:1025A000B04888839983AA83BB83BC01CD019F7700
:1025B000DF91CF91FF90EF90DF90CF90BF90AF90E1
:1025C0009F908F9008950E949812089580E191E065
:1025D0000E949812089560931001709311018093E6
:1025E0001201909313010895F999FECF92BD81BD18
:1025F000F89A992780B50895262FF999FECF1FBA2A
:1026000092BD81BD20BD0FB6F894FA9AF99A0FBE1B
:1026100001960895052E97FB1EF400940E94211345
:1026200057FD07D00E943C1307FC03D04EF40C94D6
:10263000211350954095309521953F4F4F4F5F4F57
:10264000089590958095709561957F4F8F4F9F4F1E
:1026500008950E945E13A59F900DB49F900DA49FB6
:10266000800D911D11240895B7FF0C9429130E9429
:102670002913821B930B0895A1E21A2EAA1BBB1BE0
:10268000FD010DC0AA1FBB1FEE1FFF1FA217B3073E
:10269000E407F50720F0A21BB30BE40BF50B661F54
:1026A000771F881F991F1A9469F760957095809518
:1026B00090959B01AC01BD01CF010895A29FB0018F
:1026C000B39FC001A39F700D811D1124911DB29F66
:1026D000700D811D1124911D0895AA1BBB1B51E192
:1026E00007C0AA1FBB1FA617B70710F0A61BB70B82
:1026F000881F991F5A95A9F780959095BC01CD0127
:102700000895EE0FFF1F0590F491E02D099481E0EC
:0C27100090E0F8940C948C13F894FFCF28
:10271C00492F3A20FFFFFFFF00E1000000000000FE
:10272C00010000000A001E001E0900C1808100008B
:10273C0000000000002204A3044304380489044769
:10274C0004650400000000B30C5308C208C1085310
:08275C0012FCFF0000951200C1
:00000001FF
