:100000000C94BE090C94E6090C94E6090C94E609DC
:100010000C94E6090C94E6090C94E6090C94E609A4
:100020000C94E6090C94E6090C94E30F0C9455101B
:100030000C94E6090C94E6090C94E6090C94E60984
:100040000C94E6090C94E6090C94E6090C94E60974
:100050000C94E6090C94E6090C94E6090C9433130D
:100060000C94E6090C94E6090C94E6090C94E60954
:100070000C94E6090C94E6090C94E6090C94E60944
:100080000C942B140C94E6090C94E6090C94E609E4
:100090000C94E6090C94E6090C94E6090C94E60924
:1000A0000C94E6090C94E6090C94E609D5F08D143D
:1000B000A1C881CFD9F1AF2000F9F9F9F9F9F9F91F
:1000C000F90101010101010101F9F9F9F9F9F9F960
:1000D000F90101010101010101F9F9F9F9F9F9F950
:1000E000F90101010101010101F9F9F9F9F9F9F940
:1000F000F90101010101010101F9F9F9F9F9F9F930
:10010000F90101010101010101F9F9F9F9F9F9F91F
:10011000F90101010101010101F9F9F9F9F9F9F90F
:10012000F90101010101010101F9F9F9F9F9F9F9FF
:10013000F90101010101010101070707070707078D
:1001400007F8F8F8F8F8F8F8F807070707070707B7
:1001500007F8F8F8F8F8F8F8F807070707070707A7
:1001600007F8F8F8F8F8F8F8F80707070707070797
:1001700007F8F8F8F8F8F8F8F80707070707070787
:1001800007F8F8F8F8F8F8F8F80707070707070777
:1001900007F8F8F8F8F8F8F8F80707070707070767
:1001A00007F8F8F8F8F8F8F8F80707070707070757
:1001B00007F8F8F8F8F8F8F8F8F8F8F8F8F8F8F8B0
:1001C000F80707070707070707F8F8F8F8F8F8F837
:1001D000F80707070707070707F8F8F8F8F8F8F827
:1001E000F80707070707070707F8F8F8F8F8F8F817
:1001F000F80707070707070707F8F8F8F8F8F8F807
:10020000F80707070707070707F8F8F8F8F8F8F8F6
:10021000F80707070707070707F8F8F8F8F8F8F8E6
:10022000F80707070707070707F8F8F8F8F8F8F8D6
:10023000F80707070707070707070707070707075D
:1002400007F8F8F8F8F8F8F8F807070707070707B6
:1002500007F8F8F8F8F8F8F8F807070707070707A6
:1002600007F8F8F8F8F8F8F8F80707070707070796
:1002700007F8F8F8F8F8F8F8F80707070707070786
:1002800007F8F8F8F8F8F8F8F80707070707070776
:1002900007F8F8F8F8F8F8F8F80707070707070766
:1002A00007F8F8F8F8F8F8F8F80707070707070756
:1002B00007F8F8F8F8F8F8F8F8F8F8F8F8F8F8F8AF
:1002C000F80707070707070707F8F8F8F8F8F8F836
:1002D000F80707070707070707F8F8F8F8F8F8F826
:1002E000F80707070707070707F8F8F8F8F8F8F816
:1002F000F80707070707070707F8F8F8F8F8F8F806
:10030000F80707070707070707F8F8F8F8F8F8F8F5
:10031000F80707070707070707F8F8F8F8F8F8F8E5
:10032000F80707070707070707F8F8F8F8F8F8F8D5
:10033000F80707070707070707070707070707075C
:1003400007F8F8F8F8F8F8F8F807070707070707B5
:1003500007F8F8F8F8F8F8F8F807070707070707A5
:1003600007F8F8F8F8F8F8F8F80707070707070795
:1003700007F8F8F8F8F8F8F8F80707070707070785
:1003800007F8F8F8F8F8F8F8F80707070707070775
:1003900007F8F8F8F8F8F8F8F80707070707070765
:1003A00007F8F8F8F8F8F8F8F80707070707070755
:1003B00007F8F8F8F8F8F8F8F8F8F8F8F8F8F8F8AE
:1003C000F80707070707070707F8F8F8F8F8F8F835
:1003D000F80707070707070707F8F8F8F8F8F8F825
:1003E000F80707070707070707F8F8F8F8F8F8F815
:1003F000F80707070707070707F8F8F8F8F8F8F805
:10040000F80707070707070707F8F8F8F8F8F8F8F4
:10041000F80707070707070707F8F8F8F8F8F8F8E4
:10042000F80707070707070707F8F8F8F8F8F8F8D4
:10043000F8070707070707070787878787878787DB
:1004400087989898989898989887878787878787B4
:1004500087989898989898989887878787878787A4
:100460008798989898989898988787878787878794
:100470008798989898989898988787878787878784
:100480008798989898989898988787878787878774
:100490008798989898989898988787878787878764
:1004A0008798989898989898988787878787878754
:1004B00087989898989898989853434F52453A003F
:1004C00047414D45204F5645520024000D9F2D9722
:1004D0000D9F2D97000000000000000040404040AC
:1004E00040404040160512041402150640404F09D2
:1004F000ED094F4005020502050205020709070F35
:100500000709070F003844829AA2443870F8FEFFAA
:10051000FFFFFFFFFFFEFEFFFFFFFAF06060F0FA53
:10052000FFFFFFFEFEFFFFFFFFFFFFFEF870110859
:100530000070186E1E5E1272767C186A1E5A106069
:10054000000060105A1E6A187C7672125E1E6E18C9
:100550007000087CFE7FFE6702087CFE7FFE6E0452
:1005600007080008641E6402000008641E6404009A
:100570000002070E070200000002070E070200003B
:100580000000000207020000000000020702000055
:100590000000110400000204020000000000020438
:1005A0000200000000000000020000000000000047
:1005B00002000000000000000002070E0702000019
:1005C0000002070E07020000000000020702000000
:1005D00000000002070200001104000000000204F5
:1005E0000200000000000204020000000000000001
:1005F00002000000000000000200000000000000F7
:1006000000000000000000000000000000000000EA
:1006100000000000000000000000000000000000DA
:1006200000000000000000000000000000000000CA
:1006300000000000000000000000000000000000BA
:1006400000000000000000000000000000000000AA
:10065000000000000000000000000000000000009A
:10066000000000000000000000000000000000008A
:10067000000000000000000000000000000000007A
:10068000000000000000000000000000000000006A
:1006900000000000000000000000000000000070EA
:1006A000FCFCFECE0E0E0E1C000000FEFEFEFE0E3A
:1006B0000E8EFEFEFCF80000E0FEFE3EFEFEE000B8
:1006C0000000C0F0F8FC3C1E0E0E0E1E0000FEFEE8
:1006D000FEFE0E0E0E0E0E0E0000000000000000CA
:1006E000000000000000000000000000000000000A
:1006F00000000000000000000000000000000000FA
:1007000000000000000000000000000000000000E9
:10071000000000000000000000000000000000C019
:10072000C0818387CFFFFEFC780000FFFFFFFF073B
:10073000070707030300F0FEFFFF777077FFFFFF57
:10074000F0001F7FFFFFE0C0808080C00000FFFF3F
:10075000FFFF878787878787000000000000000071
:100760000000000000000000000000000000000089
:100770000000000000000000000000000000000079
:100780000000000000000000000000000000000069
:1007900000000000000000000000008000A010A188
:1007A00013A35323532351208040A053A35303404A
:1007B0000040804080132353A340A040A040A35397
:1007C00023130040A051A31323132313200003136A
:1007D0002353A353A313A313A00080000000000021
:1007E0000000000000000000000000000000000009
:1007F00000000000000000000000000000000000F9
:10080000A0A0A0A0A02020202020A0A0A0A0A020E8
:1008100020202020A0A0A0A0A02225222522A4A242
:10082000A4A2A0000000020502050205028482C401
:10083000C2C5C2C10000000102C5C2C4C2C50201D6
:10084000000000C0C0C1C2C5C2C4C2840204020408
:1008500000000001A2A5A2A4A22422242224A2A472
:10086000A0A0A02020202020A0A0A0A0A020202088
:100870002020A0A0A0A0A000000000000000000018
:100880000F0F0F0F0FF0F0F0F0F00F0F0F0F0FF032
:10089000F0F0F0F00F0F0F0F0FF0F0F0F0F00F0F7F
:1008A0000F0F0F00000000000000F8FEFFFF07031D
:1008B00001010103000000C0FCFFFF07FFFFFCE097
:1008C000000000FFFFFFFFE1F1FFFF9F8F0000002E
:1008D000000000000F0F0F0F0FF0F0F0F0F00F0FFF
:1008E0000F0F0FF0F0F0F0F00F0F0F0F0FF0F0F010
:1008F000F0F00F0F0F0F0F000000000000000000CD
:10090000BEBEBEBEBE8181818181BEBEBEBEBE8175
:1009100081818181BEBEBEBEBE8181818181BEBE1C
:10092000BEBEBE00000000000000030F1F3F7C7829
:100930007070707800607E7F7F1F0E0E0E1F7F7FAD
:100940007E60007F7F7F7F7070797F3F3F0F000068
:1009500000000000BEBEBEBEBE8181818181BEBEE0
:10096000BEBEBE8181818181BEBEBEBEBE8181818F
:100970008181BEBEBEBEBE000000000000000000BF
:100980000000000000000000000000000000000067
:100990000000000000000000000000000000000057
:1009A0000000000000000000000000000000000047
:1009B0000000000000000000000000000000000037
:1009C0000000000000000000000000000000000027
:1009D0000000000000000000000000000000000017
:1009E0000000000000000000000000000000000007
:1009F00000000000000000000000000000000000F7
:100A000000000000000000000000000000000000E6
:100A100000000000000000000000000000000000D6
:100A200000000000000000000000000000000000C6
:100A300000000000000000000000000000000000B6
:100A400000000000000000000000000000000000A6
:100A50000000000000000000000000000000000096
:100A60000000000000000000000000000000000086
:100A70000000000000000000000000000000000076
:100A80000000000000000000000000000000000066
:100A90000000000000000000000000000000000056
:100AA00000000000000000000000008080808080C6
:100AB00080000000008080808080808080000000B6
:100AC0000000000000000000000000000000000026
:100AD0000000000000000000000000000000000016
:100AE0000000000000000000000000000000000006
:100AF00000000000000000000000000000000000F6
:100B000000000000000000000000000000000000E5
:100B100000000000000000000000000000000000D5
:100B20000000000000000000020A2AA8A38F3FFF77
:100B3000FFFEF08000FFFFFFFFFFFFFF0700000048
:100B400000000080808080C0C000800000000000A5
:100B50000000000000000000000000000000000095
:100B60000000000000000000000000000000000085
:100B70000000000000000000000000000000000075
:100B80000000000000000000000000000000000065
:100B90000000000000000000000000000000000055
:100BA000000000000000000000000000020A0A2807
:100BB000A3871F7FFCFFFFFFFFFF7F01F0F8FCFE14
:100BC00006A30B07073F0F230802000000000000E8
:100BD0000000000000000000000000000000000015
:100BE0000000000000000000000000000000000005
:100BF00000000000000000000000000000000000F5
:100C000000000000000000000000000000000000E4
:100C100000000000000000000000000000000000D4
:100C200000000000000000000000000000000000C4
:100C300000020A28A1871F7FFF1F0080F1F3F363E2
:100C40006322B21E20280000000000000000000007
:100C50000000000000000000000000000000000094
:100C60000000000000000000000000000000000084
:100C70000000000000000000000000000000000074
:100C80000000000000000000000000000000000064
:100C90000000000000000000000000000000000054
:100CA000000000000000000000000000000000083C
:100CB0000808C808884A8A48480888498908CA48EC
:100CC0000948C848080808000000000000000000AB
:100CD0000000000000000000000000000000000014
:100CE0000000000000000000000000000000000004
:100CF00000000000000000000000000000000000F4
:100D000000000000000000000000000000000000E3
:100D100000000000000000000000000000000000D3
:100D200000000000000000000000000000000000C3
:100D300000000003000002030300010201000301A0
:100D400000000300000000000000000000000000A0
:100D50000000000000000000000000000000000093
:100D60000000000000000000000000000000000083
:100D70000000000000000000000000000000000073
:100D80000000000000000000000000000000000063
:100D90000000000000000000000000000000000053
:100DA0000000000000000000000000000000000043
:100DB0000000000000000000000000000000000033
:100DC0000000000000000000000000000000000023
:100DD0000000000000000000000000000000000013
:100DE0000000000000000000000000000000000003
:100DF000000000000000000000000000080B0002DE
:100E000002020100090400000102020000052400A2
:100E10001001052401010104240206052406000135
:100E20000705810310004009040100020A000000C8
:100E3000070502024000000705830240000004038A
:100E4000090412010002EF02014041233680000133
:100E50000102030141726475696E6F204C4C4300BE
:100E600041726475696E6F204C656F6E6172646F5C
:100E700000010204081020408000000000003E5BDA
:100E80004F5B3E3E6B4F6B3E1C3E7C3E1C183C7ED7
:100E90003C181C577D571C1C5E7F5E1C00183C18BC
:100EA00000FFE7C3E7FF0018241800FFE7DBE7FFB8
:100EB00030483A060E2629792926407F0505074045
:100EC0007F05253F5A3CE73C5A7F3E1C1C08081C06
:100ED0001C3E7F14227F22145F5F005F5F06097F44
:100EE000017F006689956A606060606094A2FFA2DD
:100EF0009408047E040810207E201008082A1C088C
:100F0000081C2A08081E101010100C1E0C1E0C3095
:100F1000383E3830060E3E0E06000000000000008D
:100F20005F00000007000700147F147F14242A7F4D
:100F30002A1223130864623649562050000807031A
:100F400000001C2241000041221C002A1C7F1C2A98
:100F500008083E08080080703000080808080800EB
:100F60000060600020100804023E5149453E0042E6
:100F70007F400072494949462141494D33181412B6
:100F80007F1027454545393C4A49493141211109DE
:100F9000073649494936464949291E0000140000D0
:100FA00000403400000008142241141414141400EA
:100FB0004122140802015909063E415D594E7C1236
:100FC00011127C7F494949363E414141227F4141CE
:100FD000413E7F494949417F090909013E4141514B
:100FE000737F0808087F00417F41002040413F0196
:100FF0007F081422417F404040407F021C027F7FD7
:101000000408107F3E4141413E7F090909063E41E7
:1010100051215E7F09192946264949493203017F3A
:1010200001033F4040403F1F2040201F3F403840C9
:101030003F631408146303047804036159494D4362
:10104000007F4141410204081020004141417F04DA
:1010500002010204404040404000030708002054C1
:101060005478407F28444438384444442838444421
:10107000287F385454541800087E090218A4A49CF0
:10108000787F0804047800447D40002040403D0003
:101090007F1028440000417F40007C047804787C65
:1010A000080404783844444438FC182424181824CC
:1010B0002418FC7C08040408485454542404043FB5
:1010C00044243C4040207C1C2040201C3C403040BC
:1010D0003C44281028444C9090907C4464544C44E8
:1010E0000008364100000077000000413608000289
:1010F000010204023C2623263C1EA1A161123A40B3
:1011000040207A3854545559215555794121545429
:101110007841215554784020545579400C1E527224
:101120001239555555593954545459395554545800
:101130000000457C410002457D420001457C40F0B5
:10114000292429F0F0282528F07C54554500205406
:10115000547C547C0A097F49324949493232484813
:101160004832324A4848303A4141217A3A42402096
:1011700078009DA0A07D39444444393D4040403D25
:101180003C24FF2424487E4943662B2FFC2F2BFF51
:101190000929F620C0887E090320545479410000B3
:1011A000447D413048484A32384040227A007A0A29
:1011B0000A727D0D19317D2629292F2826292929F2
:1011C0002630484D40203808080808080808083824
:1011D0002F10C8ACBA2F102834FA00007B0000088A
:1011E000142A142222142A14089500220095AA0019
:1011F0005500AAAA55AA55AA000000FF0010101019
:10120000FF00141414FF001010FF00FF1010F01066
:10121000F0141414FC001414F700FF0000FF00FF8A
:101220001414F404FC141417101F10101F101F14B2
:1012300014141F00101010F0000000001F101010F8
:10124000101F10101010F010000000FF10101010F0
:101250001010101010FF10000000FF140000FF001D
:10126000FF00001F10170000FC04F41414171017DF
:101270001414F404F40000FF00F7141414141414EC
:1012800014F700F7141414171410101F101F14145F
:1012900014F4141010F010F000001F101F000000D4
:1012A0001F14000000FC140000F010F01010FF10DC
:1012B000FF141414FF141010101F00000000F01091
:1012C000FFFFFFFFFFF0F0F0F0F0FFFFFF00000076
:1012D0000000FFFF0F0F0F0F0F38444438447C2AE3
:1012E0002A3E147E02020606027E027E02635549F1
:1012F00041633844443C04407E201E2006027E02A6
:101300000299A5E7A5991C2A492A1C4C7201724C26
:10131000304A4D4D303048784830BC625A463D3EE8
:10132000494949007E0101017E2A2A2A2A2A444489
:101330005F444440514A444040444A51400000FF09
:101340000103E080FF000008086B6B0836123624AA
:1013500036060F090F0600001818000000101000D4
:101360003040FF0101001F01011E00191D1712006E
:101370003C3C3C3C000000000000D91A11241FBE78
:10138000CFEFDAE0DEBFCDBF12E0A0E0B1E0E8EAE7
:10139000F8E302C005900D92AC35B107D9F727E00C
:1013A000ACE5B2E001C01D92A930B207E1F719E047
:1013B000CEEBD9E004C02197FE010E94471CCD3B33
:1013C000D107C9F70E94A5150C94521C0C9400007B
:1013D0004F925F926F927F928F929F92AF92BF9245
:1013E000CF92DF92EF92FF920F931F93CF93DF93F1
:1013F00000D000D0CDB7DEB7DC014115510509F4AE
:10140000F3C0FA01B490319694914E5F5F4FCB2CAC
:10141000D12C211102C0EE2039F1E92FE695E69595
:10142000E6958E2E912CE1E0F0E0892F877011F483
:10143000E0E0F0E0E80DF91DCE9E4001CF9E900C5B
:10144000DE9E900C11240115110539F0E89CF00185
:10145000E99CF00D11240E0F1F1F289DF001299DFE
:10146000F00D11244E0F5F1FFD01EC0DFD1D1E162A
:101470001F060CF0B9C0A038B1050CF0B5C09B0137
:10148000290F311D121613060CF0AEC06034710521
:101490000CF0AAC04115510509F4A6C0262F2770EB
:1014A000522E7B0177FF03C037E0E30EF11C83E08F
:1014B000F594E7948A95E1F78E2D77FF04C05520C7
:1014C00011F08FEF8E0DB7FF05C0662777276A1BD7
:1014D0007B0B02C060E070E0E038F10524F020E80A
:1014E0002A1B422E01C04B2C461AE82E082E000C57
:1014F000FF088F3F1CF4FE2DF09501C0F0E0E1E005
:10150000292F277009F4E0E09695969596959E0F01
:10151000E90EF11C39E0E316F10414F098E0981B91
:101520009F2E980E292D30E82303A00DB11D112404
:10153000A60FB71F7B01FB9DE00CF11C11244E0D83
:101540005F1D61E070E0052C02C0660F771F0A94F2
:10155000E2F70E0D1F1D882E890E981409F444C061
:10156000CD018E589D4F5C01E12CF12CE414A0F5C7
:10157000F801EE0DFF1DE491E69FC001E79F900D7D
:101580001124809590959C838B83FA01EE0DFF1DAD
:10159000E491E69F3001E79F700C11247A82698202
:1015A00097FC05C0F50190818923682A6082552047
:1015B00061F0F6E0F9154CF0F501E058FF4F90812D
:1015C0008C8189239A81892B80832FEFE21AF20A7A
:1015D0003FEFA31AB30ACACF93944C0D5D1D0C0DB7
:1015E0001D1DA058BF4FB9CF0F900F900F900F90B7
:1015F000DF91CF911F910F91FF90EF90DF90CF90EF
:10160000BF90AF909F908F907F906F905F904F9022
:1016100008952F923F924F925F926F927F928F9296
:101620009F92AF92BF92CF92DF92EF92FF920F9371
:101630001F93CF93DF93CDB7DEB728970FB6F894FB
:10164000DEBF0FBECDBF5A01822E912C9C01280D0A
:10165000391D37FDC4C0803891050CF0C0C09B0116
:10166000200F311D37FDBBC0603471050CF0B7C0D1
:10167000AB0177FF04C044275527461B570B477023
:1016800055279B0177FF02C0295F3F4FE3E0359567
:101690002795EA95E1F777FF08C02150310968E006
:1016A00070E0DB01A41BB50BAD01602F669566955C
:1016B000669570E0077011F06F5F7F4FDB01A20F3E
:1016C000B31FBA83A98339017694762C6624779464
:1016D0006794680E791EE12CF12C00E010E02301E4
:1016E000B0E84B0E511C68E070E0DB01A41BB50BA9
:1016F000BC83AB8369817A812617370709F46FC0F1
:101700002830310509F46BC02F3FBFEF3B070CF4C5
:101710005BC0B201600F711FDB01AE58BD4FBE83CD
:10172000AD83D801A60DB71DAE58BD4F6C0160E06A
:1017300070E0681579050CF047C0E0E8CE16D104DA
:1017400009F442C0D7FC34C02F3FFFEF3F0709F434
:1017500042C0FB01EE0DFF1DEA0DFB1DE491042EBE
:1017600001C0EE0F0A94EAF73C90E329EC9341158F
:101770005105F1F027303105D9F0FB01EE0DFF1DC9
:10178000EA0DFB1DE4912E2E312CF1010B8002C0DD
:10179000F595E7950A94E2F7F887EF83ED81FE81EE
:1017A0003080EF81F885E3291F01ED81FE812082E1
:1017B0006F5F7F4FED81FE813196FE83ED83FFEFFA
:1017C000CF1ADF0A1196B5CF2F5F3F4F00581F4F3A
:1017D000E80CF91C8FCF4115510579F6E9CF289611
:1017E0000FB6F894DEBF0FBECDBFDF91CF911F9132
:1017F0000F91FF90EF90DF90CF90BF90AF909F90B0
:101800008F907F906F905F904F903F902F900895B2
:101810009C01240F311D1216130684F580389105A2
:101820006CF5FC0197FF02C0E0E0F0E021383105E3
:1018300014F020E830E02E1BAB014770552781E003
:1018400090E001C0880F4A95EAF7809577FF02C0C3
:10185000695F7F4F93E0759567959A95E1F7769567
:10186000762F662777956795E60FF71FEE58FD4FA1
:10187000215020F0908198239193FACF08959C01F4
:10188000E1E7F0E090819D7F908310927102E7EE96
:10189000F6E0F0937002E0936F02F0936E02E09333
:1018A0006D023183208382E390E09383828375838A
:1018B00064839783868351874087938782870C94BC
:1018C0007D138F929F92AF92BF920F931F93CF93EE
:1018D000DF93CDB7DEB7A1970FB6F894DEBF0FBE8A
:1018E000CDBF19A2423008F44AE08E010F5D1F4FB0
:1018F000842E912CA12CB12CA50194010E94021CD4
:10190000E62FB901CA0101501109EA3014F4E05D73
:1019100001C0E95CD801EC93232B242B252B61F724
:101920000115110571F0F80101900020E9F73197D8
:10193000AF01401B510BB80184E796E00E9485126D
:1019400002C080E090E0A1960FB6F894DEBF0FBE13
:10195000CDBFDF91CF911F910F91BF90AF909F901E
:101960008F9008950F931F93CF93DF938C01C0E066
:10197000D0E0F801EC0FFD1F6491662371F0E09157
:101980007406F09175060190F081E02D84E796E0F1
:101990000995892B11F02196ECCFCE01DF91CF91E3
:1019A0001F910F9108954F925F926F927F928F9245
:1019B0009F92AF92BF92CF92DF92EF92FF920F93DE
:1019C0001F93CF93DF93EC018B01442ECB018C1B33
:1019D0009D0B97FF03C091958195910955245394D0
:1019E000813891053CF4512CC80100E810E0E12C4D
:1019F000F12C0FC00C171D0734F07E0180E890E039
:101A0000C0E0D0E006C078018E0180E090E0C0E840
:101A1000D0E038016E187F085C01AC1ABD0AB7FE31
:101A200003C0B194A194B108630177FE03C02FEF06
:101A3000C21AD20AD594C794C817D90714F08FEFE9
:101A400001C081E0882E880F99080E151F05C4F08B
:101A5000242D552019F0A701BE0102C0AE01B70127
:101A600088E796E00E949814CA18DB08D7FE04C0E5
:101A7000C80DD91DC60CD71C8FEFE81AF80AE5CFA0
:101A8000DF91CF911F910F91FF90EF90DF90CF905A
:101A9000BF90AF909F908F907F906F905F904F908E
:101AA0000895EF92FF920F931F93CF93DF93CDB7DB
:101AB000DEB72C970FB6F894DEBF0FBECDBF4983BB
:101AC0005A836B837C839E83EF82F88609871A870B
:101AD0002B873C87E981FA816B817C814F81588516
:101AE00029853A85DF01A80FB11D4A175B07A4F4C9
:101AF0008B85480F511DE417F50774F48E81AB01F7
:101B0000480F511D241735073CF48C85280F311DD3
:101B100081E0621773070CF080E02C960FB6F89402
:101B2000DEBF0FBECDBFDF91CF911F910F91FF9010
:101B3000EF90089580E0E2E7F2E081118FEF00245A
:101B400081938193819381930394D1F7E4E7F6E045
:101B5000128A118A108A17860895E2E7F2E080E07F
:101B6000A0E0B8E000800EBC8111012C1197A0FD0F
:101B7000FDCF0192B9F70DB40895FC0180916C027C
:101B8000811103C08FEF9FEF08959FB7F89482E013
:101B90008093E9002091F20030E01216130614F44D
:101BA00021E030E02115310559F0289884E6809332
:101BB0006B028091F10080838091F200882319F0FC
:101BC0009FBFC90108958BE68093E800F9CF2FB736
:101BD000F89483E08093E9009091E800892F807267
:101BE00095FF04C09091F20080E4891B2FBF0895F7
:101BF0008F929F92AF92BF92CF92DF92EF92FF921D
:101C00000F931F93CF93DF935C016B017A01809157
:101C10000E01882309F45BC080916C02882309F4CB
:101C200056C080916A0280FF05C08091E00082600A
:101C30008093E000E70110E00AEF83E0882E9AE34A
:101C4000992E2097D9F10E94E70D81110AC0015009
:101C500009F43DC061E070E080E090E00E94F9127C
:101C6000F0CF282F30E0C217D3070CF48C2F4FB7DA
:101C7000F8948092E9009091E80095FF1DC0282F0C
:101C800030E0C21BD30BF601982F915020F08191C8
:101C90008093F100FACFC20ED31E112319F0909257
:101CA000E80009C08091E80085FD06C09092E80038
:101CB00011E0209709F010E04FBFC3CF1111C3CF3F
:101CC0005D9884E6809369021E141F0444F081E04D
:101CD00090E0F5019383828380E090E001C0C7012A
:101CE000DF91CF911F910F91FF90EF90DF90CF90F8
:101CF000BF90AF909F908F90089580918F06811133
:101D00000DC082E080938B0684E080938C06109255
:101D10008E0610928D0681E080938F068BE896E008
:101D20000895CF93DF931F92CDB7DEB76983DC01AF
:101D3000ED91FC910280F381E02D41E050E0BE0185
:101D40006F5F7F4F09950F90DF91CF91089583E0EA
:101D50008093E9008091F200882319F08AE3809350
:101D6000E8000895FC018485958597FD0BC09FB719
:101D7000F89482E08093E9008091F2009FBF90E0A8
:101D8000019608959FB7F89482E08093E9008091CE
:101D9000F2009FBF90E008954091F9065091FA0635
:101DA0002091F7063091F80642175307B4F490914A
:101DB000E8009570E1F39091E80092FD19C08093DE
:101DC000F1008091F9069091FA0601968F73992798
:101DD000892B19F48EEF8093E8008091F906909199
:101DE000FA0601969093FA068093F90681E0089529
:101DF00080E00895CF92DF92EF92FF920F931F93AE
:101E0000CF93DF931F92CDB7DEB7182F062FE42EA6
:101E1000862F880F8E5F99830E94CC0E83E00E94EC
:101E2000CC0EF12EC12E9981D92E8C2D8F198017B1
:101E300098F4F601E7FE02C0849101C080810E94FF
:101E4000CC0E182F80E00E94CC0E8123FFEFCF1A1A
:101E5000DF0A8111EACF01C081E00F90DF91CF91BD
:101E60001F910F91FF90EF90DF90CF900895DF9238
:101E7000EF92FF920F931F93CF93DF93D82E8A0197
:101E80007B01E40EF51EEB01CE15DF0571F0D7FEE8
:101E900003C0FE01849101C088810E94CC0E21966E
:101EA0008111F2CF8FEF9FEF01C0C801DF91CF9179
:101EB0001F910F91FF90EF90DF900895615030F0E7
:101EC0002091F100FC0120830196F8CF289884E648
:101ED00080936B0208950E94E70D90E00895CF93E0
:101EE000DF931F92CDB7DEB7FC018485958597FD02
:101EF00005C02FEF3FEF358724870BC0CE01019639
:101F00000E94BD0D019719F4898190E002C08FEF06
:101F10009FEF0F90DF91CF9108950F931F93CF9371
:101F2000DF931F92CDB7DEB78C01FC0184859585C8
:101F300097FF0EC0CE0101960E94BD0D019719F4C6
:101F4000298130E002C02FEF3FEFF8013587248769
:101F5000F801848595850F90DF91CF911F910F91A6
:101F600008950F931F93CF93DF931F92CDB7DEB7E2
:101F700082E0898342E450E06CEF7DE080E80E94DB
:101F8000370F0E947D0EDC0112960D911C91139764
:101F90000115110569F0D801ED91FC910280F381E2
:101FA000E02DBE016F5F7F4FC801099597FF07C005
:101FB00089810F90DF91CF911F910F910895F801C2
:101FC00000851185E5CF1F920F920FB60F92112455
:101FD0008F939F938091E1009091E100937F909384
:101FE000E10083FF0FC01092E90091E09093EB00B5
:101FF0001092EC0092E39093ED0010926C0298E046
:102000009093F00082FF20C093E09093E9009091BC
:10201000F200992319F09AE39093E80090916902F5
:10202000992339F090916902915090936902992314
:1020300089F190916B02992339F090916B02915044
:1020400090936B02992341F184FF10C08091E200CC
:102050008E7E81608093E2008091E1008F7E80938C
:10206000E10080916A028E7E806111C080FF16C0FF
:102070008091E2008E7E80618093E2008091E10099
:102080008E7E8093E10080916A028E7E81608093D3
:102090006A0204C05D9ACDCF289AD6CF9F918F91C6
:1020A0000F900FBE0F901F9018951F920F920FB6B2
:1020B0000F921124CF92DF92EF92FF920F931F9312
:1020C0002F933F934F935F936F937F938F939F9340
:1020D000AF93BF93EF93FF93CF93DF93CDB7DEB76B
:1020E0006C97DEBFCDBF1092E9008091E80083FFBE
:1020F000EDC168E0CE0145960E945E0F82EF8093AD
:10210000E8008D8987FF05C09091E80090FFFCCF23
:1021100003C09EEF9093E800982F907609F0C6C018
:102120009E892F89188D91110CC0803829F48091D7
:10213000F6068093F10002C01092F1001092F100B7
:1021400048C1422F50E0512B913051F4811141C1CF
:102150004130510509F03DC18091F6068D7F0BC0DD
:10216000933061F4811135C14130510509F031C11D
:102170008091F60682608093F6062BC1953041F47B
:102180008091E80080FFFCCF20682093E30021C10C
:10219000963009F05FC0EB8CFC8C1092E900109235
:1021A000FA061092F906123091F51092F806109284
:1021B000F7060E94B10F99E0BE016F5F7F4FDB0110
:1021C000E92F1D92EA95E9F799831A8391E09E839E
:1021D00090EA98879AEF99872091F9063091FA064C
:1021E000275F3F4F3C832B838D831092E900109231
:1021F000FA061092F906F092F806E092F70649E026
:1022000050E080E00E94370F0E94B10FE2C0F092D0
:10221000F806E092F7060E947D0EDC011296ED9022
:10222000FC901397E114F10409F4C0C0D701ED91BB
:10223000FC910480F581E02DBE016B5E7F4FC701EC
:102240000995009719F00CF0C4C0C7C0F701E084ED
:10225000F184E8CF973009F4C0C0983021F481E0D0
:102260008093F100B6C0993009F0B3C0837009F0D3
:10227000B4C0E6E5F2E081E021E036E39081992305
:1022800061F08093E9002093EB0091919093EC0032
:102290003093ED008F5F873089F78EE78093EA00F7
:1022A0001092EA008F8980936C0293C08B8D9C8D75
:1022B0001092E9001092FA061092F9069093F8062F
:1022C0008093F706898D811156C08E899D89913A38
:1022D00059F4813209F081C047E050E067E071E0D5
:1022E00080E00E94370F75C0913209F076C08332CA
:1022F00089F4888D90E0982F88272F89822BA0E081
:10230000B0E080930F0190931001A0931101B0935E
:1023100012015FC0803269F48091E80082FFFCCF37
:1023200067E087E091E00E945E0F8BEF8093E8000A
:1023300006C0823209F04DC08F8980930E018091D2
:10234000F506882319F0EEEFFAE002C0E0E0F8E0CD
:102350008091070190910801A0910901B0910A01B3
:10236000803B9440A105B10509F07BC080910E012E
:1023700080FF93C076C00E947D0EDC0112960D9105
:102380001C9113970115110541F1D801ED91FC91B4
:102390000190F081E02DBE016B5E7F4FC801099571
:1023A000811117C0F80100851185ECCF113009F4B7
:1023B0004EC0133091F48F89882309F445C08230D0
:1023C00081F440E860E180E69EE00E94FA0E8823F6
:1023D00021F08EEF8093E80079C081E28093EB00DA
:1023E00075C0813029F440E86BE084E59EE0EDCFD4
:1023F000833099F70E947D0EDC011296ED90FC90DF
:1024000013978E010F5F1F4F6801E114F10479F0FB
:10241000D701ED91FC910680F781E02DB801C7014D
:102420000995080F111DF701E084F184EECFD80162
:102430001C92F60101900020E9F73197BF016C1959
:102440007D0940E0C601C1CF6EE37EE002C062E4D8
:102450007EE06115710509F2FB01449150E080E8CE
:1024600040CF0FB6F894A895809160008861809362
:102470006000109260000FBEA895EE3F2AE0F207C0
:1024800039F08091FE0A9091FF0A91838083A1CF59
:102490001092FF0A1092FE0A9CCFEE3F8AE0F807E6
:1024A00031F0808191819093FF0A8093FE0A87E743
:1024B00097E7918380839BE088E10FB6F894A89515
:1024C000809360000FBE9093600083CF6C960FB630
:1024D000F894DEBF0FBECDBFDF91CF91FF91EF919A
:1024E000BF91AF919F918F917F916F915F914F912C
:1024F0003F912F911F910F91FF90EF90DF90CF9020
:102500000F900FBE0F901F901895CF92DF92EF9211
:10251000FF920F931F93CF93DF936C017A018B018E
:10252000C0E0D0E0CE15DF0589F0D8016D918D01B6
:10253000D601ED91FC910190F081E02DC601099545
:10254000892B11F47E0102C02196ECCFC701DF91E7
:10255000CF911F910F91FF90EF90DF90CF90089552
:1025600080917102E0916F02F0917002882349F02E
:10257000CF0102969093700280936F02859194919F
:102580000895CF0102969093700280936F0280812C
:102590009181089580915C0208950895089580E0E6
:1025A00090E008950E944D1C3FB7F8948091050774
:1025B00090910607A0910707B091080726B5A89B40
:1025C00005C02F3F19F00196A11DB11D3FBFBA2FC5
:1025D000A92F982F8827820F911DA11DB11DBC0125
:1025E000CD0142E0660F771F881F991F4A95D1F7EA
:1025F00008958F929F92AF92BF92CF92DF92EF9207
:10260000FF926B017C010E94D4124B015C01C1144A
:10261000D104E104F104F1F00E94D412DC01CB01F9
:1026200088199909AA09BB09883E9340A105B105FB
:1026300070F321E0C21AD108E108F10888EE880E93
:1026400083E0981EA11CB11CC114D104E104F10463
:1026500019F7DDCFFF90EF90DF90CF90BF90AF9054
:102660009F908F9008951F920F920FB60F92112492
:102670002F933F938F939F93AF93BF9380915D026E
:1026800090915E02A0915F02B091600230910407C8
:1026900023E0230F2D3720F40196A11DB11D05C0A5
:1026A00026E8230F0296A11DB11D209304078093F5
:1026B0005D0290935E02A0935F02B09360028091EE
:1026C000050790910607A0910707B09108070196AA
:1026D000A11DB11D8093050790930607A0930707DE
:1026E000B0930807BF91AF919F918F913F912F9128
:1026F0000F900FBE0F901F901895CF92DF92EF9220
:10270000FF920F931F93CF93DF930E94B012811516
:1027100020E8920761F4809171008D7F80937100B1
:1027200010929100469847981092FD068BC021E0C8
:102730002093FD06813020E8920751F480916D02CC
:1027400090916E029093700280936F020E94B0127B
:1027500097FD05C02091FC06222309F43FC020917B
:10276000FB0621113BC021E02093FE06EC01DF7740
:10277000209769F481E08093FF0646983FE9C32ED5
:102780003FE0D32EE12CF12CCAEFD0E014C08E0133
:1027900020E030E060E472E48FE090E0A90198016D
:1027A0000E94D01B69017A0181E0C81AD108E108B2
:1027B000F1081092FF06E0917206F09173060995F8
:1027C000811103C081E08093FF068091FE0688237B
:1027D000B9F18091FF06811133C003C01092FE064B
:1027E000C5CF46992DC0479A0E94B012009771F04C
:1027F0009C01DE010E94241CDC01CB0129E0B5957F
:10280000A795979587952A95D1F703C08FEF9FEFEE
:10281000DC01109290002AE020939100D092990060
:10282000C09298008093000790930107A09302073D
:10283000B09303078091710082608093710002C0A1
:102840004798D2CFDF91CF911F910F91FF90EF90DA
:10285000DF90CF9008951F920F920FB60F92112420
:102860002F933F934F935F936F937F938F939F9398
:10287000AF93BF93EF93FF9380910007909101076F
:10288000A0910207B0910307892B8A2B8B2B81F132
:102890008091FF0681110BC098B180E4892788B927
:1028A0008091FE06882319F088B1805888B98091FC
:1028B000000790910107A0910207B0910307181635
:1028C00019061A061B06B4F48091000790910107BF
:1028D000A0910207B09103070197A109B109809364
:1028E000000790930107A0930207B093030702C06B
:1028F0000E947D13FF91EF91BF91AF919F918F91B6
:102900007F916F915F914F913F912F910F900FBEEB
:102910000F901F901895BC0180E090E00C94F91284
:102920008FB18095807F669B88601C9B8460089532
:1029300060387105D0F440345105B8F4E1E7FEE0A9
:1029400080E1849FD001A0781124A60F4770E40F86
:10295000F11D8491AE58BD4F222319F06C91862B46
:1029600003C080956C9186238C9308952F923F929B
:102970004F925F926F927F928F929F92AF92BF928F
:10298000CF92DF92EF92FF920F931F93CF93DF933B
:10299000CDB7DEB729970FB6F894DEBF0FBECDBF17
:1029A000FC016A3069F425898189928938E0239F86
:1029B000800D911D1124928B818B108A1786AAC0DD
:1029C0006D3009F4A7C099878887F58834882388F3
:1029D000618872880785108900381105C4F0A885C0
:1029E000B98555962C915597422F50E01F968D91A1
:1029F0009C915097B6E02B9F800D911D1124E88586
:102A0000F985908B8787268921116EC083C0F0E4F9
:102A10006F16710424F7C80125E0F29E800D911D08
:102A2000112418161906DCF68F2D90E09C838B83F9
:102A3000C301A8E0FA9E800D911D112418161906F5
:102A400074F6B5E06B9FB0011124FB01E758F14F1C
:102A5000FA83E98330E08885998504969E838D8387
:102A6000E981FA81E490353009F4E12C430188E0F2
:102A7000482EE0FC02C0532C01C0522C51100BC058
:102A8000321009C0E6944A948B819C81880E991E6D
:102A90004110EFCF1BC068018C2D801B8F1590F764
:102AA00054018A2D88198F1568F4252DA501B601CA
:102AB0008D819E813F830E9498149FEFA91AB90AC5
:102AC0003F81EFCFAFEFCA1ADA0AE6CF3F5FEB8163
:102AD000FC810E0F1F1F89819A8101969A83898339
:102AE000363009F0BDCF7BCF6AEF64039001659F5C
:102AF000300D112420583F4F281739075CF4A88562
:102B0000B985ED91FC9111970190F081E02D6AE07B
:102B1000CD01099581E090E029960FB6F894DEBFCB
:102B20000FBECDBFDF91CF911F910F91FF90EF901E
:102B3000DF90CF90BF90AF909F908F907F906F90DD
:102B40005F904F903F902F900895CF93DF93CDB734
:102B5000DEB7A8970FB6F894DEBF0FBECDBF78944E
:102B600084B5826084BD84B5816084BD85B5826092
:102B700085BD85B5816085BD80916E008160809343
:102B80006E001092810080918100826080938100AC
:102B900080918100816080938100809180008160BC
:102BA0008093800080919100826080939100809159
:102BB000910081608093910080919000816080936A
:102BC00090008091C10084608093C1008091C10019
:102BD00082608093C1008091C10081608093C100B8
:102BE0008091C30081608093C3008091C0008260A7
:102BF0008093C0008091C20081608093C200809168
:102C00007A00846080937A0080917A008260809359
:102C10007A0080917A00816080937A0080917A00B6
:102C2000806880937A0010926C021092F6061092DF
:102C30006A028091D70081608093D70080EA8093F8
:102C4000D80089B5806189BD89B5826089BD09B424
:102C500000FEFDCF61E070E080E090E00E94F9129C
:102C60008091D8008F7C80618093D8008091E000B3
:102C7000807F8093E0008091E1008E7E8093E10070
:102C80008DE08093E200559A209AEEEFFFE7859160
:102C900094918B3F9C4D19F481E08093F50681EC73
:102CA00080937C0085B1806F85B984B1877E84B9BB
:102CB00084B1876E84B95E9A5F988AB1806D8AB953
:102CC000769A6E9881B3806F81BB899880B38D703E
:102CD00080BB80E58CBD81E08DBD85E090E00E94E9
:102CE0008B145F9A85E090E00E948B145E985C984C
:102CF000ECEAF0E08DE08E0F94919EBD00000DB4E3
:102D000007FEFDCF31968E13F7CF5C9A81E8809352
:102D10006400809165008160809365000E94AD0D24
:102D20000E94901487FF24C05C9885EA8EBD000045
:102D30000DB407FEFDCF5C9A2E982F982D988091A8
:102D4000640080628093640081E083BF889513BE35
:102D5000FCCF2D980E9490148478843871F00E94E2
:102D600090148471843129F188EC90E00E948B14D6
:102D70000E94901482FDEDCF38C02D9A88EC90E02F
:102D80000E948B142F9882E090E00E94BA1B8F3F24
:102D900029F06FEF82E090E00E94C21B84EF91E087
:102DA0000E948B142F9A0E94901484788438D9F34F
:102DB000D6CF2D9A88EC90E00E948B142E9882E05A
:102DC00090E00E94BA1B882329F060E082E090E046
:102DD0000E94C21B84EF91E00E948B142E9A0E94E5
:102DE000901484718431D9F3BFCF2D9A82E090E0A2
:102DF0000E94BA1B882331F03E9A3F9A81E080936B
:102E00005C0204C010925C023E983F980E949A0DAA
:102E100080E180937F06CE014F969EA38DA3FE0195
:102E20007996F8A7EFA355E0452E512C612C712C13
:102E300060E8262E312C8FB7F89440915D025091B6
:102E40005E0260915F02709160028FBF8091800688
:102E5000F42FF81B8F2F90918106992329F0F0937E
:102E6000820610928106F8C290917F06F91748F405
:102E70008F5F891708F0F0C281E083BF889513BE89
:102E8000EBC281E0809381064093800680917B06AF
:102E900090917C06019690937C0680937B068091AE
:102EA0007D0680937E060E94901480937D060E948A
:102EB0009A0D8091680281112AC000E420E84CEF4D
:102EC00059E060E070E080E090E00E94090BC12CC6
:102ED000D12CF09067024F2DB60180E090E00E9467
:102EE000080CB6016F5F7F4F4F2DC1018F199109FB
:102EF0000E94080C22E0C20ED11C80E4C816D10446
:102F000041F7F7FCB1C2F394F0926702A3C281309B
:102F100099F400E420E84CEF55E060E070E080E0D8
:102F200090E00E94090B80917E0683FD93C2809100
:102F30007D0683FF8FC29CC2823009F0F8C141E058
:102F400065E370E085E390E00E94D30CE12CF12C66
:102F500007E310E021E0A801B70188E796E00E94AE
:102F600098140F5F1F4F00341105A1F79FEFE91A66
:102F7000F90AE0E8EE16F10459F7EE24E394F12C97
:102F800008E310E020E0A801B70188E796E00E947E
:102F900098140F5F1F4F00341105A1F7FFEFEF1AD0
:102FA000FF0A27E2E216F10459F728E2E22EF12C9B
:102FB00008E310E020E0A801B70188E796E00E944E
:102FC00098140F5F1F4F00341105A1F78FEFE81A17
:102FD000F80A9FE3E916F10459F782E090E0909334
:102FE00084068093830609E310E01093860600931D
:102FF00085068AEC94E00E94B20C609163027091A5
:10300000640280E090E04AE00E94610C82E390E07C
:10301000909384068093830610938606009385061A
:103020006091000170E080E090E04AE00E94610C55
:103030009FE2E92E91E0F92EA12CB12C812C912C4C
:10304000C12CD12CF701EC0DFD1D4081518183E095
:10305000440F551F8A95E1F744535B4F08E028E081
:10306000B501C4010E94090BE2E0CE0ED11CF8E0CC
:103070008F0E911C20E2C216D10421F780E2E80EE7
:10308000F11C98E0A90EB11CE0E4AE16B104B1F653
:1030900020910401F090050180900601912C6F2D84
:1030A00070E0E22E0CE015E04EE255E0C4010E9413
:1030B000E80980917B0690917C0663E070E00E94B5
:1030C000331C892B19F4F394F092050180910501CA
:1030D000803318F08FE280930501F0906502C09074
:1030E0000201D12CA0900301B12CEF2C02E515E0D8
:1030F0002F2D40E655E0B601C5010E94E8098091F8
:103100007B0690917C066FE070E00E94331C892B57
:1031100029F481E08F0D81708093650286E0EDA136
:10312000FEA1282F11922A95E9F791E19BA398E03F
:103130009CA398A28F8E90900501292D30E03AA390
:1031400029A3EFA1F8A5282F11922A95E9F727E0E6
:103150002D8F9E8FBA8EA98EDC8ECB8EE7E1F1E0AB
:10316000DE015396982F01900D929A95E1F7EDE1CB
:10317000F1E0DE011D96982F01900D929A95E1F7EE
:10318000E3E2F1E0DE011796982F01900D929A95F7
:10319000E1F7E9E2F1E0DE01119601900D928A95E6
:1031A000E1F7EB88FC880D891E892F89388D4F8DBA
:1031B00058A169A17AA18BA19CA10E94510D8823DD
:1031C00019F09A9490920501ED84FE840F85188978
:1031D00029893A894F8D58A169A17AA18BA19CA117
:1031E0000E94510D882329F0809105018150809320
:1031F0000501EF80F88409851A852B853C854F8D64
:1032000058A169A17AA18BA19CA10E94510D88238C
:1032100029F080910501815080930501E980FA80B1
:103220000B811C812D813E814F8D58A169A17AA10E
:103230008BA19CA10E94510D882329F0809105014A
:10324000815080930501E98CFA8C0B8D1C8D2D8D9E
:103250003E8D4F8D58A169A17AA18BA19CA10E949E
:10326000510D8823A9F18091630290916402029626
:1032700090936402809363020E94AC1BA3019201AD
:103280000E94D01B60930101613021F4609303011F
:1032900080E214C0623029F484E18093030188E065
:1032A0000DC0633029F481E38093030188E106C0F7
:1032B000643031F482E68093030180E1809302015F
:1032C00042E550E065EA70E087E295E00E943F0C3D
:1032D00080917B0690917C066CE370E00E94331C29
:1032E000892B59F480910001823010F0815003C085
:1032F00083E080936802809300010E94901485FF10
:1033000004C080910601811103C10E94901486FFC0
:1033100005C0809106018F3608F401C10E94901407
:1033200083FF98C0F0900501F110FFC093C0833077
:1033300009F090C0E0906102F090620200E420E8A1
:1033400049EB50E060E070E0C7010E94090B20E803
:1033500049EB50E060E070E0C70180589F4F0E9449
:10336000090B80917B0680FD11C081E0E81AF1080D
:1033700090E8E9169FEFF9062CF0F0926202E092D5
:10338000610204C01092620210926102E12CF12CE1
:1033900000E110E020E0A801B70188E796E00E9474
:1033A00098140F5F1F4F0F321105A1F7EFEFEE1AC0
:1033B000FE0AF0E8EF16F10459F741E061E170E030
:1033C00081E190E00E94D30C41E06DE270E08DE27B
:1033D00090E00E94D30C40E060E370E080E390E076
:1033E0000E94D30C40E062E370E082E390E00E9430
:1033F000D30C85E290E09093840680938306E6E107
:10340000F0E0F0938606E093850680EC94E00E945D
:10341000B20C88E290E09093840680938306E2E207
:10342000F0E0F0938606E093850689EB94E00E9435
:10343000B20C609163027091640280E090E04AE017
:103440000E94610C80917E0682FD04C080917D0601
:1034500082FDABC00E94AD0D80E090E0892B09F4A5
:10346000EACC0E940000E7CC80E8809367029DC010
:10347000809164008E7F8093640080917A008064E4
:1034800080937A0080917A0086FDFCCFE0907800EE
:10349000F09079000E94D412870120E030E098017A
:1034A00011270027600F711F821F931F611571057F
:1034B0008105910511F00E94B11B8091640081602B
:1034C000809364008AE5809306018FE28093050172
:1034D00091E0909304011092660299E490930301A5
:1034E000809302011092650285E0809301018CE3D4
:1034F00080930001109264021092630245EA50E04A
:1035000066E271E08BE092E00E943F0C82E04EC0E8
:1035100081508093060181E080930401F6CE8F5F95
:103520008093060110920401F9CE8091040181116B
:103530000EC0209166026F2D70E0685F7F4F809112
:103540000601E22E06EB15E048ED55E00FC0813094
:1035500081F4209166026F2D70E0685F7F4F80914B
:103560000601E22E00E715E042E955E090E00E94F6
:10357000E80980917B0690917C0665E070E00E94EE
:10358000331C892B31F4809166028F5F81708093A8
:103590006602FA94F092050141E250E061E470E0C5
:1035A00081E290E00E943F0C55CF81E08093680259
:1035B00051CFE7E9F6E01382128288EE93E0A0E0B3
:1035C000B0E084839583A683B78383E392E09183FD
:1035D00080838FEF9FEF95878487E4E7F6E013827F
:1035E00012821186128680E18387108617821586E3
:1035F00085E492E09183808383E592E095838483E0
:10360000108A1786128A118A81E0838B148A858B2F
:10361000168A8AEC92E1909373068093720680E09A
:1036200090E89093F4068093F30646983E9A479864
:103630003F9A08950F931F93CF93DF938C0181E0FE
:1036400090E00E94BA1B80FF31C08AE090E00E94A7
:10365000BA1B9FEF980F9E3F48F522E330E0D80158
:1036600050963C932E931F9728E330E052963C935C
:103670002E935197CBE0D0E0D801ED91FC910190D1
:10368000F081E02D682FC8010995CE010E94BA1B78
:103690002196C131D10581F70E94AD0D88EE93E0EE
:1036A000DF91CF911F910F910C948B14DF91CF91EB
:1036B0001F910F91089504970C941A1B8F929F925B
:1036C000AF92BF92CF92DF92EF92FF92CF93DF93B0
:1036D000EC01688179818A819B8161157105810581
:1036E000910521F464E279ED8BE597E02DE133EF6C
:1036F00041E050E00E94D01B49015A019B01AC01FE
:10370000A7EAB1E40E94EF1B6B017C01ACEEB4EFC1
:10371000A50194010E94FD1BDC01CB018C0D9D1DB8
:10372000AE1DBF1DB7FF03C00197A109B048888334
:103730009983AA83BB83BC01CD019F77DF91CF9191
:10374000FF90EF90DF90CF90BF90AF909F908F90C1
:1037500008950E945E1B089583E191E00E945E1B24
:103760000895609313017093140180931501909351
:1037700016010895F999FECF92BD81BDF89A992757
:1037800080B50895262FF999FECF1FBA92BD81BD4D
:1037900020BD0FB6F894FA9AF99A0FBE01960895D3
:1037A000052E97FB1EF400940E94E71B57FD07D0DF
:1037B0000E94021C07FC03D04EF40C94E71B5095AA
:1037C0004095309521953F4F4F4F5F4F089590950D
:1037D0008095709561957F4F8F4F9F4F08950E9400
:1037E000241CA59F900DB49F900DA49F800D911D4A
:1037F00011240895B7FF0C94EF1B0E94EF1B821B4E
:10380000930B0895A1E21A2EAA1BBB1BFD010DC04C
:10381000AA1FBB1FEE1FFF1FA217B307E407F50780
:1038200020F0A21BB30BE40BF50B661F771F881F5C
:10383000991F1A9469F760957095809590959B01F2
:10384000AC01BD01CF010895A29FB001B39FC0019B
:10385000A39F700D811D1124911DB29F700D811DBC
:103860001124911D0895AA1BBB1B51E107C0AA1F7B
:10387000BB1FA617B70710F0A61BB70B881F991F11
:103880005A95A9F780959095BC01CD010895EE0F4A
:10389000FF1F0590F491E02D099481E090E0F894E9
:0838A0000C94521CF894FFCFB8
:1038A8003C052F49012F5A00E1000000000000FFED
:1038B800FFFFFF01000000000027001008110010A2
:1038C80000180831002000100861001800180806C8
:1038D80000060006000600060006000600060006B0
:1038E80000050005000500060006000600060001A8
:1038F80000010002000200020001000100010001B5
:1039080000010001000100010001000100010001A7
:10391800000100000000000000010001000100019A
:103928000001000100010002000200040001000182
:103938000001000100010001000100020002000175
:103948000001000100010000000000000001000269
:103958000004000100010001000100000000000156
:103968000001000100010001000100010001000048
:103978000000000100010001000100010001000138
:103988000001000100010001000100010001000127
:103998000001000100010001000100010001000117
:1039A8000001000100010001000100010001000107
:1039B80000010001000100010007000100010001F1
:1039C80000010001000100010001000100010000E8
:1039D800000000910EF80D6B0FA70EB20E6F0F8D41
:1039E8000F00000000B6148512CF12CE121A1BFC6D
:0C39F800FF00005B1B00C180810000008C
:00000001FF
